:100000000C9451020C9479020C9479020C947902AC
:100010000C9479020C9479020C9479020C94790274
:100020000C9479020C9479020C94D0240C943F2502
:100030000C9479020C9479020C9479020C94790254
:100040000C9479020C9479020C9479020C94790244
:100050000C9479020C9479020C9479020C94862405
:100060000C9479020C9479020C9479020C94790224
:100070000C9479020C9479020C9479020C94790214
:100080000C9479020C9479020C9479020C94790204
:100090000C9479020C9479020C9479020C947902F4
:1000A0000C9479020C9479020C947902AED580A854
:1000B0003FD300408D142002A1C8DA12817FD9F10C
:1000C000DB40A4A6AF5341542D574845454C00533F
:1000D00041542D33440053415455524E0047454E30
:1000E000455349532D360047454E455349532D330B
:1000F0000056424F59004E545400534E4553004E43
:100100004553004A4F47434F4E00464C49474854D9
:10011000535449434B004455414C53484F434B00C3
:100120004449474954414C004E4547434F4E002BEC
:100130004E4547002B47554E00505358004E4553EF
:10014000202B20534E45530047454E4553495320DD
:100150002B2053415455524E005920005820004F37
:1001600055545055542044495341424C454400583D
:100170002000434F4E4649470047554E434F4E00DF
:100180004E2F41004E4F4E45004D554C54492D5475
:100190004150005245424F4F54494E472E2E2E009B
:1001A0004D554C54492D5441500000030C0F303331
:1001B0003C3FC0C3CCCFF0F3FCFF000000020009BD
:1001C0000F0000030401000C00000000000000000C
:1001D000000000000000000000080B000202020006
:1001E00000090400000102020000052400100105BE
:1001F00024010101042402060524060001070581EB
:100200000310004009040100020A00000007050273
:1002100002400000070583024000000403090412A5
:10022000010002EF02014041233680000101020378
:100230000141726475696E6F204C4C4300417264D9
:1002400075696E6F204C656F6E6172646F00524508
:10025000464C4558000000050720610000000000E2
:1002600000005F000060707870606050485060036C
:10027000070F07030305090503081C3E7F7F081CC1
:1002800022417F7F7F3E1C087F41221C08082A1CD8
:100290002A0808083E08080050300000080808082E
:1002A00008006060000020100804023E5149453EED
:1002B00000427F400042615149462141454B31187F
:1002C00014127F1027454545393C4A494930017190
:1002D0000905033649494936064949291E0036367B
:1002E00000003C7E7E7E3C3C4242423C141414148E
:1002F00014F0F0F0F0F0F0909090F0324979413E37
:100300007E1111117E7F494949363E414141227F8C
:100310004141221C7F494949417F090901013E4170
:100320004151327F0808087F00417F410020404151
:100330003F017F081422417F404040407F02040279
:100340007F7F0408107F3E4141413E7F0909090635
:100350003E4151215E7F09192946464949493101EB
:10036000017F01013F4040403F1F2040201F7F2070
:1003700018207F631408146303047804036151494F
:10038000454300007F4141020408102041417F00A5
:1003900000383C1E0F0740404040403824120907F7
:1003A00020545454787F48444438384444442038D6
:1003B0004444487F3854545418087E0901020814F4
:1003C00054543C7F0804047800447D40002040449D
:1003D0003D00007F10284400417F40007C04180449
:1003E000787C0804047838444444387C1414140895
:1003F000081414187C7C080404084854545420043D
:100400003F4440203C4040207C1C2040201C3C407D
:1004100030403C44281028440C5050503C44645414
:100420004C44E0E0E0E0E000007F0000E0A0A0A09D
:10043000E008082A1C08081C2A0808000609090602
:10044000AC001980400000000000250028002B00AF
:100450002E00310000000000240027002A002D009B
:10046000300004040404040304050202020204032D
:10047000020202020606060606060404020202043E
:100480000404080201104080401020408040800891
:100490000204018040201002011080102040402002
:1004A0001C2B11241FBECFEFDAE0DEBFCDBF13E05F
:1004B000A0E0B1E0E8EAF3E602C005900D92AA3CA4
:1004C000B107D9F725E0AAECB3E001C01D92A0382E
:1004D000B207E1F712E0C1E5D2E004C02197FE01C6
:1004E0000E949230C035D107C9F70E948A2B0C9424
:1004F000D2310C94000090E0FC01EF57FB4F2491A7
:100500008E599B4FFC018491882399F090E0880FCD
:10051000991FFC01EC5AFB4FA591B491FC01EA5BD9
:10052000FB4F859194918FB7F894EC91E22BEC936B
:100530008FBF0895FC01611109C081819281807F84
:10054000480F592F511D528341830895613051F452
:10055000818192818F7020E1429FA0011124480F78
:10056000591FF1CF623039F481819281907F50E040
:10057000542F4427F4CF633049F4818192819F70D6
:1005800050E0542F44275295507FE9CF643011F446
:1005900043830895653011F444830895663011F45F
:1005A00045830895673009F446830895FC018091DE
:1005B0001704882311F13FB7F89482E08093E90093
:1005C0002091F200822F90E01816190614F481E0B1
:1005D00090E0882339F0289844E64093160440912F
:1005E000F1004083222339F02091F200211103C051
:1005F0002BE62093E8003FBF08958FEF9FEF08950B
:10060000CF93DF931F92CDB7DEB76983DC01ED9105
:10061000FC910280F381E02D41E050E0BE016F5F6C
:100620007F4F09950F90DF91CF91089583E08093DC
:10063000E9008091F200882319F08AE38093E800B2
:100640000895CF93DF931F92CDB7DEB7FC01848569
:10065000958597FD08C02FEF3FEF358724870F90D2
:10066000DF91CF910895CE0101960E94D6020197A5
:1006700019F4898190E0F3CF8FEF9FEFF0CF0F93C4
:100680001F93CF93DF931F92CDB7DEB78C01FC0190
:100690008485958597FF0BC0CE0101960E94D602F6
:1006A000019771F4898190E0F80195878487F801BA
:1006B000848595850F90DF91CF911F910F910895BB
:1006C0008FEF9FEFF1CFFC018485958597FD0BC0DF
:1006D0009FB7F89482E08093E9008091F2009FBF79
:1006E00090E0019608959FB7F89482E08093E90026
:1006F0008091F2009FBF90E008953FB7F8948091F9
:10070000120490911304A0911404B091150426B51D
:10071000A89B05C02F3F19F00196A11DB11D3FBF39
:10072000BA2FA92F982F8827BC01CD01620F711D08
:10073000811D911D42E0660F771F881F991F4A9502
:10074000D1F708958F929F92AF92BF92CF92DF928E
:10075000EF92FF924B015C010E947D036B017C01D3
:100760000E947D036C197D098E099F09683E7340C4
:1007700081059105A8F321E0821A9108A108B1082A
:1007800088EEC80E83E0D81EE11CF11C8114910490
:10079000A104B10429F7FF90EF90DF90CF90BF90B4
:1007A000AF909F908F9008952FB7F89460910E04AA
:1007B00070910F0480911004909111042FBF08953F
:1007C00040910004509101042091FE033091FF03F9
:1007D00042175307B4F49091E8009570E1F39091BB
:1007E000E80092FD19C08093F1008091000490917F
:1007F000010401968F739927892B19F48EEF80934A
:10080000E800809100049091010401969093010406
:100810008093000481E0089580E00895EF92FF92B4
:100820000F931F93CF93DF93F82E192FE62E042FEB
:1008300081E0860F880F0E94E00383E00E94E003BE
:10084000CF2DD12FEC0EFD2EF11CCE15DF05B9F00A
:1008500007FF13C0FE0184910E94E003182F80E07F
:100860000E94E003812321968111EFCFDF91CF9188
:100870001F910F91FF90EF9008958881EDCF81E057
:10088000F5CFDF92EF92FF920F931F93CF93DF93F9
:10089000D82E8A01EB017B01E40EF51ECE15DF0593
:1008A00059F0D7FE12C0FE0184910E94E003219608
:1008B0008111F4CF0FEF1FEFC801DF91CF911F918E
:1008C0000F91FF90EF90DF9008958881EECF2FB7C2
:1008D000F89487708093E9009091E800892F8072E6
:1008E00095FF04C09091F20080E4891B2FBF08950A
:1008F00083E00E94670490E008957F928F929F9218
:10090000AF92BF92CF92DF92EF92FF920F931F931D
:10091000CF93DF93C82E8B017A0180911704811148
:1009200010C08FEF9FEFDF91CF911F910F91FF903C
:10093000EF90DF90CF90BF90AF909F908F907F907F
:1009400008958091040480FF05C08091E0008260DA
:100950008093E000CE2DDF2DD12C8AEFB82E8C2D88
:100960008770982E8C2D8072882E8C2D8074782E16
:100970009AE3A92E209719F4DD2009F452C08C2D9A
:100980000E94670481110AC0BA94BB2051F261E051
:1009900070E080E090E00E94A203ECCF8C171D066F
:1009A00011F00CF08C2F9FB7F8949092E9002091F1
:1009B000E80025FD02C09FBFDDCF282F30E0C21B1D
:1009C000D30B882029F08150A0F01092F100FBCFCA
:1009D000F801C7FC0AC0815050F041914093F100EA
:1009E000FACF44914093F10031968150D0F7020F35
:1009F000131FDD2021F0A092E800D12CDCCF8091E4
:100A0000E80085FD07C0A092E800DD24D39420977C
:100A100091F2F3CF209779F6772069F2A092E8005F
:100A2000CACF5D9884E680930304C7017CCFCF933F
:100A3000DF93EC0180914201882331F083E00E9432
:100A40007D041816190634F081E090E09B838A83B8
:100A500080E090E0DF91CF910895615030F02091D7
:100A6000F100FC0120830196F8CF289884E680935A
:100A700016040895AF92BF92CF92DF92EF92FF9249
:100A80000F931F93CF93DF936C017B018B01040FB6
:100A9000151FEB015E01AE18BF08C017D10759F052
:100AA0006991D601ED91FC910190F081E02DC60194
:100AB0000995892B79F7C501DF91CF911F910F918E
:100AC000FF90EF90DF90CF90BF90AF90089580910E
:100AD000F60381110DC082E08093F20384E08093DD
:100AE000F3031092F5031092F40381E08093F60370
:100AF00082EF93E008950F931F93CF93DF931F929C
:100B0000CDB7DEB782E0898342E450E069ED71E061
:100B100080E80E9441040E946705DC0112960D9155
:100B20001C910115110589F0D801ED91FC9102800D
:100B3000F381E02DBE016F5F7F4FC801099597FDDE
:100B400004C0F80100851185ECCF89810F90DF91F9
:100B5000CF911F910F910895CF93CFB7F8948091C3
:100B6000F10381115AC043E754E0FA01949122E95C
:100B700034E0F9018491E92FF0E0EE0FFF1FEC5A09
:100B8000FB4FA591B4919C91982309F037C0EBECF1
:100B9000F1E09491F9012491FA018491882309F4F8
:100BA0002DC09923E9F091509F30D0F4E92FF0E067
:100BB000E452FA4F0C9492301D062106EB051506FF
:100BC0001906F005F005F00524062A062E06320661
:100BD0003806F0053C06909180009F779093800046
:100BE000E82FF0E0EE0FFF1FEA5BFB4FA591B491F9
:100BF0008FB7F8949C91292B2C938FBF81E10E9491
:100C00007B028CB580618CBD8CB580648CBD8FE01F
:100C10000E947B0280E10E947B028091F1038F5F42
:100C20008093F103CFBFCF910895909180009F7D75
:100C3000D5CF90918000977FD1CF94B59F7794BD09
:100C4000CFCF94B59F7DFBCF909190009F779093ED
:100C50009000C6CF909190009F7DF9CF9091900029
:100C6000977FF5CF9091C0009F779093C000B8CF49
:100C70009091C0009F7DF9CF9091C200977F909393
:100C8000C200AECFCF93DF93EC018A85882329F091
:100C900081508A87DF91CF9108959C818E8198172A
:100CA000C8F78D856827E881F9810084F185E02DFA
:100CB00042E0CE0109958C818F5F8C83EBCFFC01E4
:100CC0008FE086838FE7878380871186128613865D
:100CD0000895FC01138214821582168217820895EA
:100CE000DC01FB0112962C911297848195812817C3
:100CF000190641F491818081813A31F49D7F81E030
:100D0000913009F080E008958132E1F79B3029F4B9
:100D100082811F968C9381E008959A3099F78281A1
:100D200050968C93F8CFEF92FF920F931F93CF932F
:100D3000DF93FB012081213889F52381223271F56F
:100D4000DC0112964C91248135814217130631F54E
:100D50008C01FC01C385D485F12CE12C209791F006
:100D60004C815D816A817B818E81811180E80E9446
:100D700041048F3F980759F0E80EF91E0990D88179
:100D8000C02DECCF81E0D8011F968C93C701DF9175
:100D9000CF911F910F91FF90EF90089590E080E028
:100DA000F6CFCF93DF93CDB7DEB769970FB6F89440
:100DB000DEBF0FBECDBFFC01DB018C918F5F8C933A
:100DC0009E012D5F3F4F8DE0D9011D928A95E9F775
:100DD00029E0298384E08A8391E09D8383E08E83E8
:100DE0002A8721E22B879C879D879F8722E2288B79
:100DF00027E02B8B25E02C8B8E8B20E430E0388F86
:100E00002F8B998F82818B8395858685998B8A8B91
:100E1000838180688D8B49E150E0BE016F5F7F4F19
:100E200080E00E94410469960FB6F894DEBF0FBEC1
:100E3000CDBFDF91CF91089523B14FB13FB15FB1E5
:100E400026952170220F220F220F441F4427441F92
:100E5000440F440F240F55FB442740F9240F36FB61
:100E6000332730F9330F230F019721F01B992061AD
:100E70001E992062822F089559B13CB143B163B1EC
:100E800036FB222720F9220F220F352F331F33275D
:100E9000331F330F330F330F230F65FB332730F925
:100EA000230F44FB332730F9330F230F019721F031
:100EB0003699206137992062822F08958FB7F89470
:100EC0008091EE038FBF089584E98093BC0085E68E
:100ED0009091BC0094FF03C08150D1F7089581E048
:100EE00008956EBD00000DB407FEFDCF8EB50895C8
:100EF0002A9A299A8C9A83EC90E00197F1F7089549
:100F00002A9A299A469A83EC90E00197F1F708957E
:100F100080910B0490910C040196843091052CF47F
:100F200090930C0480930B04089581E090E0F8CF37
:100F30008CBD9DBD08958C98809180049091810412
:100F40000E94980783EC90E00197F1F70895469886
:100F500080918004909181040E94980783EC90E036
:100F60000197F1F708958F929F92AF92BF92CF921F
:100F7000DF92EF92FF920F931F93CF93DF937C0149
:100F80006B015A01022F10E0D0E0C0E083EC882E04
:100F9000912CC017D107E1F0D701ED91FC910480AD
:100FA000F581E02D6AE5C114D10421F0D601AC0F22
:100FB000BD1F6C91C7010995A114B10421F0F50181
:100FC000EC0FFD1F8083C4010197F1F72196E1CF5B
:100FD000DF91CF911F910F91FF90EF90DF90CF9015
:100FE000BF90AF909F908F900895CF92DF92EF9235
:100FF000FF920F931F93CF93DF937C016B01D42F4C
:101000008C010E5F1F4F23E0A8010E94B307F70178
:1010100023812F3F61F410E000E0C801DF91CF9100
:101020001F910F91FF90EF90DF90CF9008958481F2
:101030008A3511F08111EFCF2F70C22FCC0FD33032
:1010400059F0B6016D5F7F4F2DEF2D0FA7014B5F5C
:101050005F4FC7010E94B3072C2F2D1B2D5FE9F2B4
:101060004D2F50E0CA01820F911D8197A4F6400FC9
:10107000511F70E060E0C7010E94B307CECFAF926E
:10108000BF92CF92DF92EF92FF920F931F93CF9375
:10109000DF9300D000D01F92CDB7DEB78C01DC010A
:1010A0009C961C929C97D9961C92D997ED91FC9195
:1010B0000190F081E02D0995F80182AD811108C001
:1010C00083AD803409F083C084AD813009F07FC0E6
:1010D00085E0E4E1F2E0DE01119601900D928A953F
:1010E000E1F7D80196968D919C919797069709F014
:1010F00068C0DD968C918C8345E0BE016F5F7F4FA9
:10110000C8010E94F5077C01D801ED91FC91028095
:10111000F381E02DC8010995E114F10409F440C000
:10112000F7018181807F803F09F055C00E94D40380
:101130006B017C01D801ED91FC910190F081E02DD3
:10114000C801099544E06BE072E0C8010E94F50710
:101150005C01D801ED91FC910280F381E02DC80182
:101160000995A114B10429F0F5018181807F803FA8
:1011700089F46AE070E080E090E00E94A2030E949F
:10118000D4036C197D098E099F096B3F7105810598
:10119000910580F262E370E080E090E00E94A2039B
:1011A00080E00F900F900F900F900F90DF91CF91F4
:1011B0001F910F91FF90EF90DF90CF90BF90AF9075
:1011C0000895F80183AD8C8384AD8D8395CF43E082
:1011D00064E172E095CFD80194968D919C9195979A
:1011E00093969C938E9392972381348195963C930A
:1011F0002E93949781818937B9F483E090E0979694
:101200009C938E939697D80196968D919C919797E3
:101210008430910591F150F58230910571F1039779
:1012200009F441C081E0BDCF982F907F903721F421
:1012300082E090E0D801E3CF903531F484E090E093
:10124000F80197A386A3DFCF833219F485E090E0FD
:10125000F1CF903E19F486E090E0F2CF833619F496
:1012600087E090E0E7CF81E090E0EACF863091051B
:1012700009F45CC030F10797A9F681E0D8019C968B
:101280008C939C97F70185819A968C939A97868187
:101290009B968C939B97878198968C939897808543
:1012A00099968C93BFCF81E0F80181AFF701399611
:1012B0009D96C701459621912D93E817F907D9F717
:1012C000DCCF81E09C968C939C97F7019581989652
:1012D0009C939897D9968C93D9978681D3968C9323
:1012E000D3979781D4969C93D4974085D5964C9369
:1012F000D59797FF05C03F7795963C932E9394978B
:1013000087FF0AC0D80194968D919C9195979F7BF9
:1013100095969C938E939497403F08F483CFF80161
:1013200084A195A19B7F95A384A37CCF81E09C960B
:101330008C93F7019681858197FD1AC087FD8FE711
:10134000D80198968C93D80198968C91989780584C
:1013500098968C939897F70185819D968C939D978D
:1013600086819E968C939E9787819F968C935ACF69
:10137000813808F481E8F80180A7E5CF90913A011F
:10138000891778F4E82FF0E0EE0FFF1FE85EFB4FBF
:1013900080819181DC01ED91FC910190F081E02D43
:1013A00009940895FC019081911107C08381948173
:1013B0000196B1F090E080E008959F3051F42281D1
:1013C00030E02F7033272F30310581F482E090E038
:1013D0000895923041F0943049F485E090E008950A
:1013E00083E090E0089584E090E0089581E090E04B
:1013F0000895FC0180818783818192819187808714
:10140000838182878481838785818487868185879C
:101410000895FC016093BC002FEF3FEF8091BC006A
:1014200087FF06C09091B900987F908381E008956E
:101430002150310999F780E00895CF93DF93EC01B3
:101440006093BB0064E80E94090A882329F081E0C8
:101450009881983209F080E0DF91CF910895DF9272
:10146000EF92FF920F931F93CF93DF93EC01D62E51
:10147000F42E8989882329F0411103C00E94640752
:10148000198A8E01015F1F4F8989811119C0E8886F
:1014900064EAC8010E94090A882361F08F858830B8
:1014A00011F0803139F4EE0CE092BB0064E8C80121
:1014B0000E94090A60E0F11060E4C8010E941D0A60
:1014C0006D2DC8010E941D0A82E0F8120BC08989A7
:1014D0008F5F898BDF91CF911F910F91FF90EF90DC
:1014E000DF9008950E946407198AF4CFDC01ED9122
:1014F000FC910084F185E02D40E00994FC012781F6
:10150000269526952695621720F46583606B0C94CA
:10151000760A08950F931F93CF93FC0126816217DB
:1015200098F4C62F8C0164836085C60F6C2F6F7092
:101530000E94760A6C2F62956F706061C801CF912E
:101540001F910F910C94760ACF911F910F910895DE
:101550001F93CF93DF93EC01142F0E948A0A612F0F
:10156000CE01DF91CF911F910C947E0A2F923F9272
:101570004F925F926F927F928F929F92AF92BF92A3
:10158000CF92DF92EF92FF920F931F93CF93DF934F
:1015900000D000D000D0CDB7DEB7FC012385348564
:1015A0002115310509F416C19E838D83F901329608
:1015B000649031964491E42EF12CF7E0EF0EF11C8B
:1015C00053E0F594E7945A95E1F7E982F9013496EE
:1015D00054913196E4916D30F1F460E00E948A0AF2
:1015E00081E090E026960FB6F894DEBF0FBECDBF27
:1015F000DF91CF911F910F91FF90EF90DF90CF90EF
:10160000BF90AF909F908F907F906F905F904F9022
:101610003F902F9008956A3081F460E08D819E8123
:101620000E948A0AED81FE81868565818E9D600D0E
:101630001124CF010E947E0AD3CF651708F4CAC0D7
:101640008E2F90E0FC01E50FF11D6E171F060CF0C8
:10165000C1C089010A5F1F4F651BED81FE81718545
:101660005685759F502D11245C83F90154912F5F8D
:101670003F4FF9012491352F2230310508F06AC01F
:101680006E9CC0016F9C900D1124689FF001699FB2
:10169000F00D11240E0F1F1F512CED81FE81F481DE
:1016A000FA83ED81FE812580F285FB83862C912CC7
:1016B000AA24A394B12C312C8981381608F086C055
:1016C000412CED81FE818685481608F078C08B811B
:1016D0008287311002C0442041F0ED81FE814581B6
:1016E0004F5F6A81CF010E94A80AD12CC12CC61479
:1016F00008F058C0F801EC0DFD1D7490552061F004
:10170000EA14FB0449F4E72DF0E0052C02C0F5953E
:10171000E7950A94E2F77E2EED81FE818685823080
:1017200081F4442009F43AC072948FE07822E72DC6
:10173000F0E0E655FE4F7490672D8D819E810E94EA
:101740004206672D8D819E810E9442068FEFC81A46
:10175000D80ACDCF477028E0522E541A411101C04B
:10176000512CF801612C30E020E0661631F04491F4
:10177000240F311D63943196F8CF600E712E711CC9
:10178000F3016490E29EF001E39EF00DF29EF00DF5
:1017900011248E0F9F1F080F191F7FCFF72DFF7089
:1017A0007F2EC5CFD12CEC81DE1639F060E08D8123
:1017B0009E810E944206D394F6CF439482CF339405
:1017C000080D191DFFEFAF1ABF0A76CF622D8D816C
:1017D0009E8130CF90E080E005CF0F931F93CF9391
:1017E000DF938C01D0E0C0E0F801EC0FFD1F6491A5
:1017F000662341F08AE695E00E94B60A892B11F033
:101800002196F2CFCE01DF91CF911F910F910895D4
:10181000CF92DF92EF92FF920F931F93CF93DF93BC
:10182000EC01F62EC42ED22E1A868F8186958695CF
:101830008695081710F00FEF080F1D2D011780F087
:10184000412F6F2DCE010E94A80AEF2CCE1430F04C
:101850006D85CE010E944206E394F8CF1F5FEECF64
:101860004D2D6F2DCE01DF91CF911F910F91FF90E4
:10187000EF90DF90CF900C94A80A0F93FC010781A2
:1018800006950695069501504681415020E060E09E
:101890000E94080C0F9108954F925F926F927F9271
:1018A0008F92AF92CF92EF92FF920F931F93CF93AD
:1018B000DF93CDB7DEB72701380194E0899F80011F
:1018C0001124F801E653FC4F80819181A281B381FC
:1018D0008E219521A621B72131E0892B8A2B8B2BD4
:1018E00009F430E03C1103C08889882301F1C1105C
:1018F00001C0A82C2D5F640F422F8AE695E00E945C
:10190000A80A6A2D8AE695E00E94B60AF801E65315
:10191000FC4FCC20D1F080819181A281B3818429B8
:101920009529A629B72980839183A283B383DF9168
:10193000CF911F910F91FF90EF90CF90AF908F902C
:101940007F906F905F904F90089540945094609472
:10195000709480819181A281B38184219521A621F7
:10196000B721E1CF0F9307E022E04FE760E08AE67E
:1019700095E00E94080C80910B0490910C04823039
:10198000910579F083309105A1F0019711F56CE094
:101990008AE695E00E948A0A88E491E00F910C940F
:1019A000ED0B64E28AE695E00E948A0A8DE391E0FD
:1019B000F5CF6EE18AE695E00E948A0A89E391E01C
:1019C0000E94ED0B84E391E00E94ED0B8FE291E029
:1019D000E5CF0F910895809312016EEA81116FEAAD
:1019E0008AE695E00E94760A0E94D4036093E003A1
:1019F0007093E1038093E2039093E3030895FC0165
:101A0000448550E0A585B0E0AA0FBB1FA95DBB4F80
:101A10000D90BC91A02D13968C91806490912B0415
:101A2000BF01992321F06E5F7F4F0C947D046D5FA1
:101A30007F4FFBCF089590E080E00895CF92DF9232
:101A4000FF920F931F93CF93DF936C0170E06F5F52
:101A50007F4F759567959091EF03961758F0909189
:101A6000F003FF24F39401E010E0961730F082E0D9
:101A7000F82E6AC0F12C10E000E0F801E151FC4FB3
:101A800081E0890F808391115FC083E190E00E9423
:101A90009830EC0191E09C839D839E01265F3F4F2F
:101AA0003F832E831986188621E233E03983288309
:101AB0001C861B861E861D869F87988BDA8AC98A9C
:101AC00081EC8A870E946705FC0181813C81682F37
:101AD000630F7727771F683071057CF5A281B3818A
:101AE0001097F9F4D383C28390819A838B838D817D
:101AF000890F808390E080E08317F8F42181A22F82
:101B0000B0E0BD01635D7E4F4E815F81480F591F7C
:101B1000DA014C91DB014C932F5F21830196ECCFCE
:101B2000DA0118964D915C91199741155105C1F74D
:101B30001996DC93CE931897D7CF000F111FF80199
:101B4000E95DFB4FD183C0838F2DDF91CF911F9132
:101B50000F91FF90DF90CF9008954F925F926F9218
:101B60007F928F929F92AF92BF92CF92DF92EF922D
:101B7000FF920F931F93CF93DF93CDB7DEB7C45679
:101B8000D1090FB6F894DEBF0FBECDBF3C01CB012B
:101B9000D42EF22EE896BFACE897E9969FACE99771
:101BA00023E433E0D3012D933C936F2D0E941E0D4F
:101BB000182FF301858781E0F2E0FF1508F080E03F
:101BC00080932B0489E493E0D30111969C938E9328
:101BD0001296DC922C2D2A0D2E0D200FBB2DB90D47
:101BE0005B2E580C822F850D95E0980FF30194879A
:101BF00035E0398391E09A8349E04B833C8331EAB5
:101C00003D839E83F2E0FF1508F0F6C385E88F83DD
:101C1000D88698E0E1E0F0E0EC0FFD1FE90FF11D40
:101C200045E04083E1E0E90F66246394712C6C0E7B
:101C30007D1E6E0E711CF30159E05083E2E0E90F46
:101C400061E070E06C0F7D1F6E0F711DFB0189E17B
:101C50008083E3E0E90FA1E0B0E0AC0FBD1FAE0F61
:101C6000B11DFD0131E03083E4E0E90F66246394A7
:101C7000712C6C0E7D1E6E0E711CF30189E2808347
:101C8000E5E0E90F61E070E06C0F7D1F6E0F711DE4
:101C9000FB0188E18083E6E0E90FA1E0B0E0AC0F52
:101CA000BD1FAE0FB11DFD0175E1472E4082E7E07B
:101CB000E90F66246394712C6C0E7D1E6E0E711CF0
:101CC000F3011082E8E0E90F61E070E06C0F7D1F26
:101CD0006E0F711DFB01A5E2FA2EF082E9E0E90F1B
:101CE000A1E0B0E0AC0FBD1FAE0FB11DFD01308310
:101CF000EAE0E90F66246394712C6C0E7D1E6E0E73
:101D0000711CF30175E77083EBE0E90FA1E0B0E02F
:101D1000AC0FBD1FAE0FB11DFD013083ECE0E90F2C
:101D200066246394712C6C0E7D1E6E0E711CF30183
:101D300065E96083EDE0E90FA1E0B0E0AC0FBD1F05
:101D4000AE0FB11DFD018083EEE0E90F66246394C0
:101D5000712C6C0E7D1E6E0E711CF30181E8808368
:101D6000EFE0E90FA1E0B0E0AC0FBD1FAE0FB11D79
:101D7000FD01A2E0DA2ED082E0E1E90F662463944F
:101D8000712C6C0E7D1E6E0E711CF3014083E1E11F
:101D9000E90FA1E0B0E0AC0FBD1FAE0FB11DFD011A
:101DA0003083E2E1E90F66246394712C6C0E7D1E92
:101DB0006E0E711CF3015083E3E1E90FA1E0B0E086
:101DC000AC0FBD1FAE0FB11DFD0149E34083E4E13F
:101DD000E90F66246394712C6C0E7D1E6E0E711CCF
:101DE000F3014082E5E1E90FA1E0B0E0AC0FBD1FD7
:101DF000AE0FB11DFD011082E6E1E90F6624639488
:101E0000712C6C0E7D1E6E0E711CF301F082E7E1E9
:101E1000E90FA1E0B0E0AC0FBD1FAE0FB11DFD0199
:101E200047E04083E8E1E90F66246394712C6C0E6F
:101E30007D1E6E0E711CF30145E34083E9E1E90F5D
:101E4000A1E0B0E0AC0FBD1FAE0FB11DFD011082CF
:101E5000EAE1E90F66246394712C6C0E7D1E6E0E10
:101E6000711CF30146E44083EBE1E90FA1E0B0E02F
:101E7000AC0FBD1FAE0FB11DFD014BE34083ECE184
:101E8000E90F66246394712C6C0E7D1E6E0E711C1E
:101E9000F3013083EDE1E90FA1E0B0E0AC0FBD1F2D
:101EA000AE0FB11DFD0145E64083EEE1E90F66246A
:101EB0006394712C6C0E7D1E6E0E711CF30144E157
:101EC0004083EFE1E90FA1E0B0E0AC0FBD1FAE0F22
:101ED000B11DFD017083E0E2E90F66246394712C6B
:101EE0006C0E7D1E6E0E711CF30148E04083E1E232
:101EF000E90FA1E0B0E0AC0FBD1FAE0FB11DFD01B9
:101F00006083E2E2E90F66246394712C6C0E7D1EFF
:101F10006E0E711CF3013083E3E2E90FA1E0B0E043
:101F2000AC0FBD1FAE0FB11DFD018083E5E2E90FCF
:101F300084E2890F66246394712C6C0E7D1E680EFA
:101F4000711CD301DC92222309F400C1662463943E
:101F5000712C6C0E7D1E6E0E711CF3015083E6E237
:101F6000E90FA1E0B0E0AC0FBD1FAE0FB11DFD0148
:101F70003083E7E2E90F66246394712C6C0E7D1EBA
:101F80006E0E711CF3014082E8E2E90FA1E0B0E0BF
:101F9000AC0FBD1FAE0FB11DFD011082E9E2E90FCC
:101FA00066246394712C6C0E7D1E6E0E711CF30101
:101FB00086E28083EAE2E90FA1E0B0E0AC0FBD1F4A
:101FC000AE0FB11DFD018FEF8083EBE2E90F6624B8
:101FD0006394712C6C0E7D1E6E0E711CF3011082C9
:101FE000ECE2E90FA1E0B0E0AC0FBD1FAE0FB11DF8
:101FF000FD017083EDE2E90F66246394712C6C0E91
:102000007D1E6E0E711CF3014083EEE2E90FA1E02C
:10201000B0E0AC0FBD1FAE0FB11DFD016083EFE25C
:10202000E90F66246394712C6C0E7D1E6E0E711C7C
:10203000F3012083E0E3E90F21E030E02C0F3D1FA6
:102040002E0F311DF90181EA808382E3890FE1E3DC
:10205000E90F61E070E06C0F7D1F6E0F711DFB01D9
:102060001082002391F0E1E0F0E0EC0FFD1FE80F9B
:10207000F11D508384E3890F9D5CE1E0F0E0EC0FFB
:10208000FD1FE90FF11D90E39083EE20A1F0E1E048
:10209000F0E0EC0FFD1FE80FF11D99E09083E1E007
:1020A000E80FA1E0B0E0AC0FBD1FAE0FB11DFD0108
:1020B00091E390838E5FCC20A9F0E1E0F0E0EC0F9B
:1020C000FD1FE80FF11D99E09083E1E0E80F662421
:1020D0006394712C6C0E7D1E6E0E711CF30192E3E5
:1020E00090838E5FAA20A1F0E1E0F0E0EC0FFD1FED
:1020F000E80FF11D99E09083E1E0E80F21E030E086
:102100002C0F3D1F2E0F311DF90195E390838E5F3B
:10211000E1E0F0E0EC0FFD1FE80FF11D91E8908386
:10212000E1E0E80F61E070E06C0F7D1F6E0F711D44
:10213000FB0192E09083E3E0E80F8E5FA1E0B0E066
:10214000AC0FBD1FA80FB11D20EC2C93552009F436
:10215000FAC025E081E090E08C0F9D1F8E0F911D4D
:10216000DC012C9381E08E0F66246394712C6C0E3D
:102170007D1E680E711C22E0D3012C9382E08E0F2D
:1021800066246394712C6C0E7D1E680E711C25E113
:10219000D3012C9383E08E0F66246394712C6C0E14
:1021A0007D1E680E711CD3011C9284E08E0F662484
:1021B0006394712C6C0E7D1E680E711C26E2D30197
:1021C0002C9385E08E0F66246394712C6C0E7D1E1B
:1021D000680E711C2FEFD3012C9386E08E0F6624BE
:1021E0006394712C6C0E7D1E680E711CD3011C92C1
:1021F00087E08E0F66246394712C6C0E7D1E680E32
:10220000711C25E7D3012C9388E08E0F662463941C
:10221000712C6C0E7D1E680E711C28E0D3012C936E
:1022200089E08E0F66246394712C6C0E7D1E680EFF
:10223000711C25E9D3012C938AE08E0F66246394E8
:10224000712C6C0E7D1E680E711CD3015C92ABE08C
:10225000AE0F66246394712C6C0E7D1E6A0E711C89
:10226000D30181EA8C934DE04E0F8CE08E0F21E07C
:1022700030E02C0F3D1F280F311DD9011C92882002
:10228000A9F0A1E0B0E0AC0FBD1FA40FB11D89E023
:102290008C934FE04E0FE25F66246394712C6C0EBA
:1022A0007D1E6E0E711CF3018BEB8083BB20A1F0B1
:1022B000E1E0F0E0EC0FFD1FE40FF11D89E0808309
:1022C000E1E0E40F21E030E02C0F3D1F2E0F311D27
:1022D000F90185EC80834E5F9920A1F0E1E0F0E008
:1022E000EC0FFD1FE40FF11D89E08083E1E0E40FB6
:1022F00061E070E06C0F7D1F6E0F711DFB0188ECBB
:1023000080834E5FE1E0F0E0EC0FFD1FE40FF11D74
:1023100081E88083E1E0E40F81E090E08C0F9D1F75
:102320008E0F911DFC0182E08083E3E0E40FA2E0C8
:10233000A40F66246394712C6C0E7D1E6A0E711CB2
:10234000D30180EC8C93A1E0B0E0AC0FBD1FAE0FC9
:10235000B11D80EC8C93EF5FEE2EF12CC7010E9433
:1023600098306C01A701BE016F5F7F4F0E94C231A0
:1023700087E090E00E949830DC0111961C921E923A
:102380001396DC92CE9212971596FC92EE921497C9
:1023900016961C921697E12FF0E0EE0FFF1FE95DF5
:1023A000FB4F40815181FA0183859485009759F54F
:1023B000B487A387FA018585968514962D913C9163
:1023C000820F931F96878587CC59DF4F0FB6F894FD
:1023D000DEBF0FBECDBFDF91CF911F910F91FF9058
:1023E000EF90DF90CF90BF90AF909F908F907F90B5
:1023F0006F905F904F9008958C5FD3011C968C93E3
:1024000096E008CCC901FC012081318121153105FC
:10241000C9F7B183A083CECF2F923F924F926F9294
:102420007F928F929F92AF92BF92CF92DF92EF9264
:10243000FF920F931F93CF93DF9300D000D0CDB7BF
:10244000DEB770E0F1E04BE050E04798672F6F2770
:1024500080ED97E036B136FB332730F9631330C196
:10246000DA011197F1F70197A9F70F900F900F90EC
:102470000F90DF91CF911F910F91FF90EF90DF9020
:10248000CF90BF90AF909F908F907F906F904F9024
:102490003F902F90089569B19CB133B1E3B196FBA1
:1024A000882780F9880F880F962F991F9927991FE1
:1024B000990F990F990F890FE5FB992790F9890FCB
:1024C00034FB992790F9990F890F713009F016C1E3
:1024D000243091F4813081F486E080930D05479893
:1024E00080ED97E02BE030E0369B0BC1F90131978E
:1024F000F1F70197C9F7B9CF282E220C211120C07E
:10250000823029F190E080E051E06BE070E0291624
:1025100009F4ABCF882309F487C0479A8527A82FF1
:10252000A17020ED37E046B146FB442740F9FB019E
:10253000A4132DC13197F1F721503109A1F795CF9F
:10254000213009F064C0863011F08330D9F66091F3
:102550000C0591E0960F90930C05673008F066E04B
:10256000462F50E09FE0699FB0011124FB01E05F1E
:10257000FA4FFA83E9836B5F7A4F2E3009F056C029
:10258000815090EE8927FB01838710E0312C412C8C
:102590009BE0692E712C8FE0849F4001859F900CF9
:1025A000112494012B5F3A4F4901790131E1E30E87
:1025B000F11C640190E1C90ED11C4F5F5F4F849FF5
:1025C000F001859FF00D1124EB5FFA4FFC83EB8344
:1025D0005401FEE0AF0EB11C2CE0820E911C2116BE
:1025E00009F443CF332041F1479A81E03826332D57
:1025F000317080ED97E026B126FB222720F93213B7
:10260000CAC0F3013197F1F70197A9F72ECF2E3009
:1026100021F4833008F49BCF75CF2F3009F072CFAF
:102620008F3009F06FCF21CF479878CFF0E12F9FFF
:10263000900111248227A7CF4798D7CF133079F480
:10264000F401208131813F70487050E0542F4427BD
:102650005295507F420F531F51834083C0C01430A6
:1026600069F1153041F4F0E14F9EC0011124482B6F
:10267000F5014083B4C0163009F1173041F4F0E1A0
:102680004F9EC0011124482BEB81FC81F2CF183002
:10269000A9F0193039F4F0E14F9EC0011124482B04
:1026A000F601E7CF1A3051F01B3009F098C0F0E185
:1026B0004F9EC0011124482BF701DBCF442E8FC061
:1026C000CA010197F1F77111E6CE39B19CB183B11E
:1026D00063B196FB222720F9220F220F932F991F17
:1026E0009927991F990F990F990F290F65FB992722
:1026F00090F9290F82958170880F280F71E0479A11
:10270000A5CE8BE090E00197F1F7479A80ED97E036
:102710002BE030E0369906C0F9013197F1F70197C7
:10272000C9F7A3CE8BE090E00197F1F7F6E0F983CB
:102730000BE010E00E940C12C8010197F1F729810B
:10274000215029832111F6CF479880ED97E02BE0A7
:1027500030E0369B06C0F9013197F1F70197C9F7D0
:1027600084CE8BE090E00197F1F7479A80ED97E0F7
:102770002BE030E0369906C0F9013197F1F7019767
:10278000C9F773CE8BE090E00197F1F76ECE3197E9
:10279000F1F79F5FBCCE83E090E00197F1F799B12C
:1027A0004CB183B123B146FB442740F9440F440F99
:1027B000991F9927991F990F990F990F490F25FB79
:1027C000992790F9490F82958170880F480F13302F
:1027D00008F034CF612F89819A810E949A021F5F8D
:1027E000FECE2F923F924F926F927F928F929F9246
:1027F000AF92BF92CF92DF92EF92FF920F931F930F
:10280000CF93DF9300D000D0CDB7DEB760E0E1E03A
:102810004BE050E02E98762F7E2720ED37E083B1F5
:1028200083FB882780F9DA0178132DC11197F1F71E
:1028300021503109A1F70F900F900F900F90DF9169
:10284000CF911F910F91FF90EF90DF90CF90BF90AD
:10285000AF909F908F907F906F904F903F902F9070
:10286000089583B13FB12FB17FB186958170880FF4
:10287000880F880F331F3327331F330F330F830F16
:1028800075FB332730F9830F26FB222720F9220F0F
:10289000820F613009F013C1943091F4813081F4DA
:1028A00086E08093A8042E9880ED97E02BE030E03E
:1028B0001B9B08C1F9013197F1F70197C9F7BBCF0D
:1028C000282E220C91111FC0823051F180E051E07E
:1028D0006BE070E0291609F4AECF882309F487C0B5
:1028E0002E9A8527A82FA17020ED37E043B143FB36
:1028F000442740F9FB01A4132BC13197F1F7215074
:102900003109A1F798CF913031F4863049F0833006
:1029100039F090E0DBCF9E3009F062C08330C8F719
:102920004091A70421E0240F2093A704473008F02A
:1029300046E0242F30E06FE0469FA0011124FA0109
:10294000E555FB4FFA83E98340565B4F9E3009F013
:1029500050C0815090EE8927FA01838710E0312C16
:10296000412C9BE0692E712C8FE0829F4001839F58
:10297000900C1124A40140565B4F4A017A0151E1A9
:10298000E50EF11C640190E1C90ED11C2F5F3F4F91
:10299000829FF001839FF00D1124E056FB4FFC83D2
:1029A000EB835401FEE0AF0EB11C2CE0820E911CB3
:1029B000211609F440CF332011F12E9A81E03826F8
:1029C000332D317080ED97E023B123FB222720F9CE
:1029D0003213C2C0F3013197F1F70197A9F72BCF5A
:1029E0009F3009F096CF8F3009F093CF24CF2E98E7
:1029F00078CFF0E19F9FB00111248627ADCF2E98AC
:102A0000DDCF133079F4F401208131813F704870BB
:102A100050E0542F44275295507F420F531F51834B
:102A20004083BEC0143069F1153041F4F0E14F9E8F
:102A3000C0011124482BF5014083B2C0163009F1C2
:102A4000173041F4F0E14F9EC0011124482BEB8177
:102A5000FC81F2CF1830A9F0193039F4F0E14F9E23
:102A6000C0011124482BF601E7CF1A3051F01B307A
:102A700009F096C0F0E14F9EC0011124482BF701E8
:102A8000DBCF442E8DC01197F1F76111EACE93B1DF
:102A90002FB18FB13FB196959170990F990F990F02
:102AA000221F2227221F220F220F920F35FB2227DF
:102AB00020F9920F86FB882780F9880F980F61E034
:102AC0002E9AA9CE8BE090E00197F1F72E9A80ED37
:102AD00097E02BE030E01B9906C0F9013197F1F740
:102AE0000197C9F7A8CE8BE090E00197F1F7F6E0E7
:102AF000F9830BE010E00E94F113C8010197F1F790
:102B00002981215029832111F6CF2E9880ED97E05D
:102B10002BE030E01B9B06C0F9013197F1F70197DC
:102B2000C9F789CE8BE090E00197F1F72E9A80EDFE
:102B300097E02BE030E01B9906C0F9013197F1F7DF
:102B40000197C9F778CE8BE090E00197F1F773CE4B
:102B50003197F1F79F5FBECE83E090E00197F1F7E8
:102B600043B19FB18FB12FB146954170440F440FCF
:102B7000440F991F9927991F990F990F490F25FB0A
:102B8000992790F9490F86FB882780F9880F480F0D
:102B9000133008F036CF612F89819A810E949A0202
:102BA0001F5F06CF0E94BD31CF93DF93FC012085CC
:102BB000318580E0232B69F4EB0161897289CE01B4
:102BC0000E94CB31FE0101900020E9F731978E2F52
:102BD0008C1BDF91CF9108952F923F924F925F927D
:102BE0006F927F928F929F92AF92BF92CF92DF921D
:102BF000EF92FF920F931F93CF93DF93CDB7DEB782
:102C000066970FB6F894DEBF0FBECDBF0E947D035E
:102C10008090EA039090EB03A090EC03B090ED035A
:102C2000AB01BC01481959096A097B098091380137
:102C300090913901B0E0A0E0481759076A077B0777
:102C400008F4A3C580910B0490910C048230910587
:102C500009F4DFC58330910511F40C948E1F512CBB
:102C6000019709F07EC59E012F5F3F4F39018CE02F
:102C7000D9011D928A95E9F780912C01882381F072
:102C800010922C0180913A01833050F045E06EE1C2
:102C90008AE695E00E94A80A80EA91E00E94ED0B86
:102CA00080E195E00E94F9098FE195E00E94F90921
:102CB0008EE295E00E94F9098DE395E00E94F90902
:102CC0008CE495E00E94F9098BE595E00E94F909F2
:102CD00010910C0510920C0510920D055C9A8BE07A
:102CE000E82EF12CC7010197F1F780910E05909124
:102CF0000F050E943C07082F5C98C7010197F1F768
:102D000080910E0590910F050E943C07402F47705F
:102D100020910E0530910F05902F9F70443009F0DF
:102D2000B9C02130310541F021E030E030930F058A
:102D300020930E053F9A479AE0910C0521E02E0F53
:102D400020930C05E73008F0E6E0BFE0EB9FF001D0
:102D50001124EB5FFA4F2FE42387248535853F70DC
:102D6000492F50E0542F44275295507F240F351F90
:102D7000207F8F70280F311D358724875C9A4798F4
:102D80002BE030E0C9010197F1F759B19CB143B193
:102D900063B196FB882780F9880F880F952F991FBC
:102DA0009927991F990F990F990F890F65FB9927FB
:102DB00090F9890F44FB992790F9990F890F40E109
:102DC000849FC0011124448555854F70840F951F41
:102DD000958784875C984798C9010197F1F739B1C5
:102DE0009CB123B143B196FB882780F9880F880FE7
:102DF000932F991F9927991F990F990F990F890F51
:102E000045FB992790F9890F24FB992790F9990F91
:102E1000890F90E0982F882724853585307F820F91
:102E2000931F958784875C9A80910E0590910F057A
:102E3000019709F4479A83E290E00197F1F77091C6
:102E40000C0580E09FE04FEF5FEF60E8781709F432
:102E5000F5C0282F873008F026E030E0929FF0017F
:102E6000939FF00D1124EB5FFA4FB385A289BA1737
:102E700079F05587448766872F5F3F4F929FD00137
:102E8000939FB00D1124AB5FBA4F6C93108A118AD7
:102E90008F5FDCCF913091F4482F4F70413071F447
:102EA0002130310541F081E090E090930F0580934F
:102EB0000E053F9A479A0E940C12B5CF482F4C70CE
:102EC00009F0A0C0232B39F010920F0510920E05C7
:102ED0003F984798479AE0910C0521E02E0F2093E8
:102EE0000C05E73008F0E6E0CE2ED12C6FE0E69F2F
:102EF000F0011124EB5FFA4F20EE2387402F50E0C2
:102F00000C7009F490CF24853585207F290F311D61
:102F10002F70A4E055954795AA95E1F7869586957B
:102F2000842B70E18702C0011124820F931F9587C3
:102F3000848784E091E04BE050E021E0992309F49C
:102F40005FC05C9AFA013197F1F792278150B1F78F
:102F500080910E0590910F050E943C079FE09C9D7B
:102F6000F0019D9DF00D1124EB5FFA4F918D992397
:102F700021F021EE23879150918F8F7009F053CF6C
:102F80002FE02C9DC0012D9D900D1124DC01AB5F25
:102F9000BA4F7D0184E659968C935C9A4BE0C42E1F
:102FA000D12CC6010197F1F780910E0590910F0584
:102FB0000E943C07082F5C98C6010197F1F78091A9
:102FC0000E0590910F050E943C0791EEF701938743
:102FD00024853585307F0F70402F50E0542F4427D3
:102FE000240F351F3F70880F880F880F90E0982FAF
:102FF00088279295907F280F391F3587248713CF14
:103000005C98A0CF933081F48F708F3069F42130B9
:10301000310509F408CF81E090E090930F0580938B
:103020000E053F9A479AFFCE232B09F4FCCE10924F
:103030000F0510920E053F984798F4CF811728F599
:103040006FE07FEF4FEF5FEF90E8282F873008F0B9
:1030500026E030E0629FF001639FF00D1124EB5FEA
:10306000FA4F7387118E5587448796872F5F3F4F9E
:10307000629FD001639FB00D1124AB5FBA4F9C9348
:10308000108A118A8F5F1813E0CF8BEA94E00E94B8
:10309000F9098AEB94E00E94F90989EC94E00E9416
:1030A000F90988ED94E00E94F90987EE94E00E9406
:1030B000F90986EF94E00E94F9091091A704109293
:1030C000A7041092A8042A9A3BE0E32EF12CC70132
:1030D0000197F1F78091A9049091AA040E941C071E
:1030E000082F2A98C7010197F1F78091A9049091C0
:1030F000AA040E941C07402F47702091A904309118
:10310000AA04902F9F70443009F0B5C021303105DA
:1031100041F021E030E03093AA042093A904269ADC
:103120002E9AE091A70421E02E0F2093A704E73008
:1031300008F0E6E02FE0E29FF0011124E056FB4F9B
:103140002FE42387248535853F70492F50E0542F85
:1031500044275295507F240F351F207F8F70280FF2
:10316000311D358724872A9A2E982BE030E0C9013B
:103170000197F1F783B14FB19FB15FB1869581702F
:10318000880F880F880F441F4427441F440F440FA3
:10319000840F55FB442740F9840F96FB992790F93B
:1031A000990F890F40E1849FC00111244485558502
:1031B0004F70840F951F958784872A982E98C90190
:1031C0000197F1F783B12FB19FB13FB1869581701F
:1031D000880F880F880F221F2227221F220F220FFD
:1031E000820F35FB222720F9820F96FB992790F951
:1031F000990F890F90E0982F882724853585307F97
:10320000820F931F958784872A9A8091A9049091B1
:10321000AA04019709F42E9A83E290E00197F1F74E
:103220006091A704F12C2FE04FEF5FEF30E86F15AE
:1032300009F4F5C08F2DF6E0FF1508F486E090E064
:10324000289FF001299FF00D1124E056FB4FA38524
:103250007289A71771F05587448736870196289F92
:10326000D001299FB00D1124A056BB4F3C93108A6A
:10327000118AF394DCCF913091F4482F4F70413094
:1032800071F42130310541F081E090E09093AA047F
:103290008093A904269A2E9A0E94F113B5CF482F45
:1032A0004C7009F0A0C0232B39F01092AA041092A0
:1032B000A90426982E982E9AE091A70421E02E0FBB
:1032C0002093A704E73008F0E6E0CE2ED12C6FE083
:1032D000E69FF0011124E056FB4F20EE2387402F9C
:1032E00050E00C7009F490CF24853585207F290F9C
:1032F000311D2F70B4E055954795BA95E1F7869545
:103300008695842B70E18702C0011124820F931FE0
:103310009587848784E091E04BE050E021E0992399
:1033200009F45FC02A9AFA013197F1F79227815088
:10333000B1F78091A9049091AA040E941C079FE014
:103340009C9DF0019D9DF00D1124E056FB4F918D49
:10335000992321F021EE23879150918F8F7009F0EE
:1033600053CF2FE02C9DC0012D9D900D1124DC0129
:10337000A056BB4F7D0184E659968C932A9A6BE048
:10338000C62ED12CC6010197F1F78091A904909126
:10339000AA040E941C07082F2A98C6010197F1F77A
:1033A0008091A9049091AA040E941C0791EEF70154
:1033B000938724853585307F0F70402F50E0542F40
:1033C0004427240F351F3F70880F880F880F90E027
:1033D000982F88279295907F280F391F358724874B
:1033E00013CF2A98A0CF933081F48F708F3069F477
:1033F0002130310509F408CF81E090E09093AA04D0
:103400008093A904269A2E9AFFCE232B09F4FCCE92
:103410001092AA041092A90426982E98F4CFF116BF
:1034200028F52F2D6FE07FEF4FEF5FEF30E8822F11
:10343000273008F086E090E0689FF001699FF00D6A
:103440001124E056FB4F7387118E558744873687CA
:103450000196689FD001699FB00D1124A056BB4F03
:103460003C93108A118A2F5F1213E1CFA0900C05B4
:103470009A2C9F0C48E1242E44E0342EB12C512C80
:103480005FE0852E80913A019B1409F4F8C0B816CC
:1034900009F4F5C0EE24E394BA1408F4E12C0B2DE2
:1034A000BA1408F043C026E02B1508F406E0089D86
:1034B00080011124005F1A4F823009F449C0D801FD
:1034C0009C9117968C911797981351C011962D9136
:1034D0003C91129718968D919C911997281739074E
:1034E00009F054C013969C9113971A968C911A97D1
:1034F00098134CC014969C9114971B968C911B9713
:10350000981344C015969C9115971C968C911C9706
:1035100098133CC016969C9116971D968C91981303
:1035200035C0B394F2E02F0E311CACCF0A1907302E
:1035300008F006E0089D8001112405551B4F8230DC
:1035400009F0BDCFF8018081FF2009F4B8CF04C095
:10355000AA20C1F3D8018C910E94E827EE2DF0E05B
:10356000EE0FFF1FE60DF71D91838083A8CF8B2DF3
:103570000E94BE0980913A01823041F4F8018081B5
:103580000E94E827BC018E2D0E94312AD801119695
:103590008D919C91B82FBF70BF8722E0C22ED12C95
:1035A00086FF02C0D12CC12C84FD02C06894C2F8F1
:1035B00085FD02C06894C5F892FD02C06894C0F809
:1035C00091FD02C06894C3F890FD02C06894C4F8ED
:1035D00087FD02C06894D1F8F10140805180D80184
:1035E0002C91207F203109F041C013968C911397C4
:1035F000F201878314968C911497808715968C918D
:103600001597818716968C91169782878C910E94C8
:10361000E827069719F4FF85FC60FF87D20113960F
:10362000CC9213971496DC92149715961C92BF8532
:10363000EB2FF0E0E15DFC4F8081F2018683C20157
:103640000E94FF0C80913A01823069F4EE2DF0E087
:10365000EE0FFF1FE60DF71D6081718120E0A801CC
:103660008E2D0E94CC29552453945BCF93FD02C02C
:103670006894C7F897FDD2CF6894C6F8CFCF098178
:103680001A81823079F480912001909121010817EC
:10369000190741F00115110529F470E060E080E0A0
:1036A0000E94312A10932101009320010B811C817B
:1036B00080913A01823079F4809122019091230126
:1036C0008017910741F00115110529F470E060E0C1
:1036D00081E00E94312A10932301009322018091FE
:1036E000E9039816C0F4192D8091E903181798F48E
:1036F00080913A01181779F0812F0E94BE09E12FBD
:10370000F0E0EE0FFF1FE85EFB4F808191810E9489
:10371000FF0C1F5FE9CF9092E90380910D05909116
:10372000A804843039F0943029F0890F51F482E3F1
:1037300090E002C080ED97E09093390180933801CA
:1037400010C0892D90E0019644EF51E0849F9001D4
:10375000859F300D949F300D1124309339012093B3
:1037600038010E947D036093EA037093EB0380931A
:10377000EC039093ED03552041F0809112018111EB
:103780000C94D42381E00E94EB0C809112018823D9
:10379000B1F00E94D4030091E0031091E103209165
:1037A000E2033091E303601B710B820B930B603ECD
:1037B00073498440910518F080E00E94EB0C4E9B09
:1037C00002C00C946D246CE271E080E090E00E94F5
:1037D000A2038091120181110C94E02381E066968E
:1037E0000FB6F894DEBF0FBECDBFDF91CF911F9112
:1037F0000F91FF90EF90DF90CF90BF90AF909F9090
:103800008F907F906F905F904F903F902F900C948F
:10381000EB0C9E012F5F3F4F3E872D878CE0D90137
:103820001D928A95E9F780911F01882381F01092FB
:103830001F0180913A01833050F045E064E28AE64E
:1038400095E00E94A80A89E891E00E94ED0B809122
:10385000960480939B048091970490919804909390
:103860009D0480939C048091990490919A04909374
:103870009F0480939E04A0919404109294042C9A27
:103880008BE290E00197F1F72C9883E190E00197AB
:10389000F1F790E080E030E020E043E150E06CB1EF
:1038A00066FBEE24E0F8F12CB701082E02C0660F8B
:1038B000771F0A94E2F7262B372B2D98FA013197C0
:1038C000F1F72D9AFA013197F1F7019680319105C0
:1038D00031F7832F82958F7090E18D3009F091E060
:1038E00070E060E050E040E0E3E1EE2EF12CECB15E
:1038F000E6FB002700F910E0F801062E02C0EE0FEB
:10390000FF1F0A94E2F74E2B5F2B2D98F70131979A
:10391000F1F72D9AF7013197F1F76F5F7F4F691734
:1039200030F3982F909520953095409550958F3095
:1039300021F44E3FBFEF5B07E1F1E091940461E0B9
:103940006E0F6093940461E070E0E11102C070E0DA
:1039500060E0811113C0E32FFF27EF70FF273F972F
:1039600069F48AE0869FF001879FF00D1124EF56DD
:10397000FB4F8FE085835187408711C092FFD5C0F0
:103980008AE0869FF001879FF00D1124EF56FB4FD0
:1039900084E085839370892F90E0918780878AE007
:1039A000869FF001879FF00D1124EF56FB4F378360
:1039B0002683809194048A17B8F44AE09FEF21E0AF
:1039C00030E0811102C030E020E0429FF001439FCF
:1039D000F00D1124EF56FB4F958317821682118646
:1039E00010868F5FA813EBCF8091870480938C049F
:1039F000809188049091890490938E0480938D0423
:103A000080918A0490918B049093900480938F040A
:103A100060918504109285048E9A8BE290E0019764
:103A2000F1F78E9883E190E00197F1F750E040E0E4
:103A300090E080E0E3E1F0E02FB1022E000C330BC8
:103A40002227330F221F3327042E02C0220F331FD9
:103A50000A94E2F7822B932B8D98DF011197F1F7EF
:103A60008D9ADF011197F1F74F5F5F4F403151059C
:103A700019F7792F72957F7010E17D3009F011E010
:103A8000F0E0E0E050E040E0B3E1EB2EF12C2FB1AC
:103A9000022E000C330B2227330F221F33270E2E4A
:103AA00002C0220F331F0A94E2F7422B532B8D984A
:103AB000D7011197F1F78D9AD7011197F1F7319648
:103AC000E11728F3272F20958C010095109540953C
:103AD00050957F3029F44E3FBFEF5B0709F447C094
:103AE0008091850491E0980F90938504E1E0F0E0E7
:103AF000811102C0F0E0E0E08AE08E9FD0018F9F4C
:103B0000B00D1124AE57BB4F71111AC0812F9927E8
:103B10008F7099270F97A1F48FE015968C931597C6
:103B200019965C934E93189717C09AE0969FF001F0
:103B3000979FF00D1124EF56FB4F9FE089271ACF76
:103B400022FFE1C084E015968C931597237030E036
:103B500019963C932E9318972AE02E9FC0012F9F11
:103B6000900D1124FC01EE57FB4F17830683E09163
:103B70008504EA8BE617C0F48E2F4AE09FEF21E020
:103B800030E0811102C030E020E0429FF001439F0D
:103B9000F00D1124EE57FB4F958317821682118684
:103BA00010868F5F6813EBCF90909404FA89F90D1B
:103BB000F98B28E134E03C8B2B8BD12C512C80915C
:103BC0003A0139893D1509F458C1D81609F455C18F
:103BD000BB24B394D91408F4B12C21E030E0D914FB
:103BE00008F097C0D11002C030E020E06AE0629F88
:103BF000A001639F500D1124DA01AA56BB4F3D016D
:103C0000823009F4A9C0D3018C9115969C91159727
:103C1000891323C011964D915C91129716962D91A0
:103C20003C9117974217530759F413964D915C91A5
:103C3000149718962D913C914217530709F45BC0D5
:103C4000811119C0F301838194810196A1F4D301FC
:103C500018968D919C91019671F08D2D0E94BE0950
:103C600080913A01823039F4C3010E94D209BC012B
:103C70008B2D0E943A29C3010E94D2091C01F30135
:103C800081819281DC01A095B095F4E0B695A7956D
:103C9000FA95E1F71A2F1F709C0121703327AC01B0
:103CA0005695479570E060E0417055276627772765
:103CB000F2E02F16310409F061C0232B09F04260B5
:103CC00082FD516083FD5260AB89BC89ED91FC910E
:103CD000438354836583A12FB0E0A15DBC4F8C91D9
:103CE0008683CF010E94FF0C80913A01823009F453
:103CF00085C055245394D3946B897C896E5F7F4F24
:103D00007C8B6B8B5CCF9FE0972715969C931597C8
:103D100007CFD91002C030E020E0BAE0B29FA00186
:103D2000B39F500D1124FA01E957FB4F3F01823038
:103D300009F069CF3A89332309F465CFC3010E94A2
:103D4000D209EB2DF0E0EE0FFF1F61E070E06C0F89
:103D50007D1FE60FF71F0FC0992061F3CD010E9470
:103D6000D209EB2DF0E0EE0FFF1F21E030E02C0F29
:103D70003D1FE20FF31F9183808345CF232B09F072
:103D8000426090FD446091FD486092FD406193FD6A
:103D9000406224E02216310421F5D30113962D91BF
:103DA0003C9134FD406435FD406820FD546021FDA8
:103DB000586022FD506123FD506224FD506425FDB2
:103DC000506826FD616027FD626030FD646031FD52
:103DD000686032FD606133FD606237FF71CF6064FF
:103DE0006FCFB5E02B16310409F06ACFF3012381C0
:103DF00020FD406421FF64CF406862CF7DE9472EFB
:103E000072E0572E1F868B2D90E0880F991FFC01C2
:103E1000E756FD4FFE8BED8BF2E02F16310441F497
:103E20002F85283008F5F201E05AFF4F243008F0C2
:103E3000F201E080F18002811381D30111968D910E
:103E40009C918E219F21CC24C394892B09F4C12CF1
:103E50001F928780A68024814581ED89FE8960813B
:103E60008B2D0E944C0C0F90FF85FF5FFF8728E091
:103E7000420E511CFC3081F63CCF09811A81823000
:103E800079F480911301909114018017910741F00A
:103E90000115110529F470E060E080E00E943A29E4
:103EA00010931401009313010B811C8180913A013E
:103EB000823079F480911501909116018017910755
:103EC00041F00115110529F470E060E081E00E94E5
:103ED0003A2910931601009315018091E80379891E
:103EE0007817C0F4172F8091E803181798F4809181
:103EF0003A01181779F0812F0E94BE09E12FF0E0F6
:103F0000EE0FFF1FE85EFB4F808191810E94FF0C46
:103F10001F5FE9CF89898093E80323CC10922404A2
:103F20008091E60381115FC08091E70381115BC03E
:103F30008091090481110DC080917C0490917D04D1
:103F4000DC01ED91FC910680F781E02D09958093CD
:103F500009048093E60380910A0481110DC08091C9
:103F60007E0490917F04DC01ED91FC910680F78145
:103F7000E02D099580930A048093E70381E00E9475
:103F8000EB0C07E027E04FE760E08AE695E00E944F
:103F9000080C67E08AE695E00E947E0A60E08AE607
:103FA00095E00E948A0A8091E60381110BC08091FE
:103FB000E703811103C084E891E002C080E891E04A
:103FC0000E94ED0B62E48AE695E00E948A0A9091D5
:103FD000E6038091E703992379F1811104C080E819
:103FE00091E00E94ED0B3CE7832E34E0932E44EEEB
:103FF000C42E43E0D42E56EEA52E53E0B52E09E094
:1040000014E0F12CEE24E394F401819191914F019D
:104010009093260480932504D6011D926D01F5012D
:1040200021915F0121110DC00F5F1F4FF1E0FF16BD
:1040300021F1FF24F394E8CF8111CFCF84E891E000
:10404000D0CFD8012C91211123C1DC01ED91FC913D
:104050000680F781E02D0995882359F0F801E08268
:10406000E0912504F091260466A177A18F2D0E948E
:10407000DE28809108048823B9F2312C512C442485
:10408000439480913A01381608F06BCB832D90E071
:10409000FC01E75FFB4F2081222309F4F2C0FC0101
:1040A000EC51FC4FD080DD2009F4EBC0880F991F44
:1040B000FC01E458FB4F008111811093260400930A
:1040C0002504B0900704BB2009F4EEC090902404AE
:1040D000C92CD12CF601E85FFE4F8081882331F096
:1040E000108265E070E0892D0E94DE28A0912504F1
:1040F000B09126042224239492962D913C9193977B
:1041000094968D919C9195972817390709F4212C45
:1041100098968C909897D9968C91D997A12C8823B2
:1041200019F0D596AC90D597A094E12C882319F07E
:10413000D396EC90D397E094F12C882319F0D49681
:10414000FC90D497F0940091240410E0F801EE0F55
:10415000FF1FE85EFB4F60807180F3018782A086BD
:10416000E186F28680910604882329F0E091180404
:10417000F0911904838694962D913C912095309569
:1041800035FB882780F934FD826033FD846023FD90
:104190008860D30113968C93139714961C921497EE
:1041A00015961C920E94C02798012A5F3E4FF90184
:1041B0004081C8018C5F9E4FD801AE5FBE4F00505A
:1041C0001F4F84120CC0FC014081A41208C04C9106
:1041D000E41205C0F8014081F41201C0B22CF901CB
:1041E0008082FC01A082EC92D801FC92BB2009F4F1
:1041F00047C0C3010E94FF0CB1E0B91508F440C0EC
:10420000E9E16E2EE2E07E2EFBEF2F2ECC0CDD1CC2
:10421000F601E756FD4FF88BEF87D3015896ED90E6
:10422000FD900D911C915B975C962C915C975D962F
:104230004C915D975E96AC905E975F968C90B1E0E6
:10424000B215B8F4E0912504F091260484A195A15B
:10425000809590958E219F21CC24C394892B09F4BD
:10426000C12C1F92EF85F8896081892D0E944C0C2A
:104270000F90F8E06F0E711C239428E02212CDCF2E
:104280005B28809124048F5F809324043394F9CEBB
:104290000E943F08F601319780838111EACED80150
:1042A0001C9270E060E0E2CEF0900804FF2009F478
:1042B0009BC18091DB03882309F4A7C081E00E94A1
:1042C000EB0C1091DB03113009F068C0C09025049D
:1042D000D090260468E070E0C6010E941328B82E32
:1042E0008091D8038150B1100BC060E070E4C6012A
:1042F0000E941328B82E882329F08091D8038F5F5D
:104300008093D803C0902504D090260460E070E22A
:10431000C6010E941328882329F091E0910F909301
:10432000DB03B82ED60196968D919C9197970797AF
:10433000B9F49C968C919C97882391F09A968D91D4
:104340009C919B9798966D917C918130910509F095
:1043500093C26530710521F06A30710509F08CC295
:10436000BB2089F08091DB03813009F046C06CE509
:1043700071E083E00E9450288091D803082E000C41
:10438000990B0E94D72A5090D9035520A1F1809112
:104390001804909119040E94FF0C73CF1230F1F4AD
:1043A000C0902504D090260468E070E0C6010E9409
:1043B0001328B82E8091D2038150B1100CC060E058
:1043C00070E4C6010E941328B82E882309F49ACFFE
:1043D0008091D2038F5F8093D20394CF133009F082
:1043E00091CF1092DB0305E024E04FE760E08AE61E
:1043F00095E00E94080C5F2C44CF69E571E083E0F2
:104400000E9450288091D203B9CF8091DA038111A4
:1044100010C05090D903511076C04092DA034092F8
:10442000D90369E771E081E00E94502881E00E9491
:10443000EB0C5090DA035520F1F2E0912504F09155
:10444000260424A135A12095309535FB882780F9D5
:1044500023FD826036FD84600091180410911904D8
:10446000D80113968C9386A197A18230910508F408
:1044700008CF8430910508F42BC2079709F001CFCB
:1044800084A5882309F47FCF82A593A560A571A593
:104490008130910509F0FFC16530710509F473CFD2
:1044A0006A30710509F0F7C18091D5039091D60368
:1044B000009709F066C084A195A1809590959C0114
:1044C000287030722830304209F05DCF96FF5BCF04
:1044D0001092DA038091D903882331F0D801139622
:1044E0001C92C8010E94FF0C81E00E94EB0C6FE55A
:1044F00071E082E00E94502868EE73E080E090E076
:104500000E94A203E5C160E070E2C8010E94132886
:10451000811107C068E070E0C8010E941328882359
:1045200059F04092DA0344E060E08AE695E00E94A8
:10453000A80A0E942A28A5CE60E070E4C8010E9463
:104540001328582E882309F471CF4092DA03409241
:10455000DB0362E771E082E00E9450286FE671E0C1
:1045600083E00E9450288091D803082E000C990BFC
:104570000E94D72A6CE271E080E090E00E94A203E2
:1045800080CE6091D3037091D4036115710509F455
:1045900092CF2091D203620F711D27FD7A95209151
:1045A000D803820F911D27FD9A950E9406288091BD
:1045B000D7038F5F8093D7038F3F09F0E4CE10922B
:1045C000D7031092D6031092D5031092D403109201
:1045D000D3038091D903882309F4D5CEF80114823E
:1045E00015821682178274C1B09024049924939482
:1045F000F80122A133A184A195A12817390709F454
:10460000912CD80196966D907C900B2D10E0000FA8
:10461000111FF801E452FC4F8081918168167906E0
:1046200021F0B3018B2D0E94DE28E1E0F0E0EC0FD9
:10463000FD1FE00FF11F71826082C3010197059792
:1046400008F0B0C00E94C027E0912504F091260434
:10465000F88BEF8784A195A180959095292F221F33
:104660002227221F30E096FD226095FD246094FDF4
:10467000286092FD206193FD206290FD206491FDF1
:10468000206880FD316083FD326081FD346082FDF1
:104690003860AF85B88998962C9098979996CC9069
:1046A00099978091240490E0FC01EE0FFF1FE85ED3
:1046B000FB4F0190F081E02D9C964C91442309F42E
:1046C00064C0B5E06B16710409F45FC02782C08630
:1046D000AC01405F5E4FDA01FC90BC01625F7E4F2F
:1046E000F2105BC0DB01FC90FC1057C0DA012C9289
:1046F000DB01CC92AF85B8899A965C919A979B968C
:104700004C919B979C966C91662329F0B5E06B16B3
:10471000710409F044C040E84187428750E8BC0179
:10472000645F7E4F7B01DB016C91865F9E4F65135A
:1047300005C0DC016C91641301C0D92CD7015C93D6
:10474000DC014C93238334831582DD2079F0CF0183
:104750000E94FF0CB1E0BB1548F040912504509138
:10476000260420E0B3018B2D0E946128D801A452B9
:10477000BC4FE1E0F0E0EC0FFD1FE00FF11F808186
:1047800091818D939C935D287CCD40E84783408741
:1047900040E8C42E50E8252E9BCF9D2CA7CF5187F3
:1047A0004287BDCFD92CE2CF0E94D4036093E003AF
:1047B0007093E1038093E2039093E3030C94C51B91
:1047C000E0900B04F0900C040E9488070E94B20C49
:1047D00010E000E062E070E080E090E00E94A20360
:1047E0004E990CC06CE271E080E090E00E94A20360
:1047F0000E9488070E94B20C10E000E00F5F1F4F7C
:10480000003DF7E01F0731F760910B0470910C0435
:104810006E157F05D1F466960FB6F894DEBF0FBE15
:10482000CDBFDF91CF911F910F91FF90EF90DF905F
:10483000CF90BF90AF909F908F907F906F905F9040
:104840004F903F902F900C94B20C90E080E00E942B
:1048500062308AE695E00E943D0C83E991E00E9477
:10486000ED0B88E19EE00FB6F894A8958093600068
:104870000FBE90936000FFCF2091D203620F711D95
:1048800027FD7A952091D803820F911D27FD9A95D7
:104890000E94062865CD1092D7039093D60380938B
:1048A000D5037093D4036093D3032091D9032223BB
:1048B00009F469CD2091D203620F711D27FD7A950D
:1048C0002091D803820F911D27FD9A950E940628FA
:1048D0008091DA03811157CD8ECD66960FB6F8948C
:1048E000DEBF0FBECDBFDF91CF911F910F91FF9023
:1048F000EF90DF90CF90BF90AF909F908F907F9080
:104900006F905F904F903F902F9008951F920F925D
:104910000FB60F9211242F933F938F939F93AF93D2
:10492000BF9380910E0490910F04A0911004B09158
:10493000110430910D0423E0230F2D3758F5019613
:10494000A11DB11D20930D0480930E0490930F04BC
:10495000A0931004B0931104809112049091130459
:10496000A0911404B09115040196A11DB11D80936E
:10497000120490931304A0931404B0931504BF91F0
:10498000AF919F918F913F912F910F900FBE0F90FC
:104990001F90189526E8230F0296A11DB11DD2CFB6
:1049A0001F920F920FB60F9211248F939F938091B5
:1049B000E1009091E100937F9093E10083FF0FC0AD
:1049C0001092E90091E09093EB001092EC0092E3DA
:1049D0009093ED001092170498E09093F00082FFFE
:1049E00022C093E09093E9009091F200992319F08E
:1049F0009AE39093E80090910304992341F09091F9
:104A00000304915090930304911101C05D9A909119
:104A10001604992341F09091160491509093160436
:104A2000911101C0289A84FF18C08091E2008E7E07
:104A300081608093E2008091E1008F7E8093E100AD
:104A4000809104048E7E8061809304049F918F91F5
:104A50000F900FBE0F901F90189580FFF7CF809199
:104A6000E2008E7E80618093E2008091E1008E7E84
:104A70008093E100809104048E7E8160E5CF1F92D7
:104A80000F920FB60F921124CF92DF92EF92FF9206
:104A90000F931F932F933F934F935F936F937F9346
:104AA0008F939F93AF93BF93EF93FF93CF93DF9336
:104AB000CDB7DEB76C97DEBFCDBF1092E900809115
:104AC000E80083FF25C068E0CE0145960E942D05D1
:104AD00082EF8093E8008D8987FF39C09091E800CC
:104AE00090FFFCCF982F907609F034C19E894F89B2
:104AF000588D2F89F88C911131C0803861F58091E3
:104B000005048093F1001092F1008EEF8093E8008D
:104B10006C960FB6F894DEBF0FBECDBFDF91CF917C
:104B2000FF91EF91BF91AF919F918F917F916F9185
:104B30005F914F913F912F911F910F91FF90EF90B7
:104B4000DF90CF900F900FBE0F901F9018959EEFA3
:104B50009093E800C7CF1092F100D5CF913059F46F
:104B60008111D3CF4130510581F6809105048D7FAD
:104B700080930504CACF933049F48111C6CF4130E8
:104B8000510519F6809105048260F2CF953041F409
:104B90008091E80080FFFCCF20682093E300B5CF30
:104BA000963009F0A9C00B8D1C8D22E01092E9000F
:104BB0001092010410920004F2122EC01092FF0312
:104BC0001092FE030E947B051F8299E09983FA826E
:104BD00091E09E8390EA98879AEF9987209100044C
:104BE00030910104275F3F4F3C832B838D831092CC
:104BF000E90010920104109200041093FF03009347
:104C0000FE0349E050E0BE016F5F7F4F80E00E94ED
:104C100041040E947B0579CF1093FF030093FE03AC
:104C20000E946705DC0112960D911C91011511057A
:104C300009F451C1D801ED91FC910480F581E02D7A
:104C4000BE016B5E7F4FC8010995009709F03EC118
:104C5000F80100851185EACFF3E0FF120EC08F89BD
:104C6000882309F440C0823061F440E860E18DE3BC
:104C700092E00E940E04811148CF81E28093EB0004
:104C800047CF813029F440E86BE081E392E0F1CF37
:104C9000833099F70E946705DC011296ED90FC9035
:104CA0008E010F5F1F4F6801E114F10479F0D70105
:104CB000ED91FC910680F781E02DB801C7010995BF
:104CC000080F111DF701E084F184EECFD8011C928A
:104CD000F60101900020E9F73197BF016C197D09B9
:104CE00040E0C601C6CF6BE172E0FB01449150E0A9
:104CF00080E80E94410409CF973009F4BECF983074
:104D000021F481E08093F10000CF993009F0FDCECD
:104D1000837009F0B2CFEEE2F1E081E031E096E39A
:104D20002191222371F08093E9003093EB00DF01A1
:104D300011972C912093EC009093ED008F5F8730BA
:104D400079F78EE78093EA001092EA008F898093CA
:104D50001704DBCE8B8D9C8D1092E900109201041C
:104D6000109200049093FF038093FE03898D8111BC
:104D700092C08E899D89913A49F4813209F07DCFA4
:104D800047E050E06BE371E080E0B3CF913209F08F
:104D900074CF833269F48F89988DB0E0A0E080935E
:104DA000340190933501A0933601B0933701ADCE15
:104DB000803269F48091E80082FFFCCF67E08BE3EA
:104DC00091E00E942D058BEF8093E8009ECE823209
:104DD00009F09BCE8F8980934201EEEFFFE785912A
:104DE00094918B3F9C4D51F1E0E0F8E080913B01C4
:104DF00090913C01A0913D01B0913E01803B9440D7
:104E0000A105B105F1F48091420180FD1AC0EE3F89
:104E10008AE0F80789F587E797E791838083809197
:104E200060008093020488E19BE00FB6F894A89597
:104E3000809360000FBE9093600067CEEEEFFAE0C3
:104E4000D5CF808191818737974709F05ECEA895AD
:104E5000809160008861809360008091020480935B
:104E60006000EE3F2AE0F20789F08091FE0A9091FF
:104E7000FF0A9183808349CE80819181873798078B
:104E800051F29093FF0A8093FE0AC5CF1092FF0A59
:104E90001092FE0A3ACE0E946705DC0112960D912F
:104EA0001C910115110509F4E8CED801ED91FC9192
:104EB0000190F081E02DBE016B5E7F4FC801099526
:104EC000811123CEF80100851185EBCF1816190644
:104ED0000CF41BCED2CEF1E0FF12BECE6FE172E039
:104EE00004CF1F93CF93DF93EC0180E888A789A7B5
:104EF0008AA78BA71CA6FE01BD968CE0DF011D9240
:104F00008A95E9F71FA21EA21AAE1BAE1CAE1DAEFB
:104F100015E0CE010E943F0861E070E080E090E083
:104F20000E94A2031150A9F7CE01DF91CF911F91EA
:104F30000C943F08CF93DF93EC01849A8C9A229AC9
:104F40002A9A219A299A23982B982B9A0E94AC0589
:104F5000CE01DF91CF910C947127CF93DF93EC01B9
:104F60003E9A469A229A2A9A219A299A23982B980D
:104F70002B9A0E94AC05CE01DF91CF910C94712742
:104F8000E0912504F091260424A135A120953095C7
:104F9000C90134E0969587953A95E1F741E0842779
:104FA0008170992726FF826027FF846025FF886033
:104FB000E0912404F0E0EE0FFF1FE85EFB4F01904C
:104FC000F081E02D815D9C4FDC018C9186830895FA
:104FD0008F3489F0823079F0863181F0833181F02D
:104FE000803E81F0813E81F021E090E08F3F09F426
:104FF00020E0822F089584E090E0089585E0FCCFC2
:1050000086E0FACF82E0F8CF83E0F6CF2091D90393
:10501000222341F0E0911804F091190484839583D0
:10502000668377830895FC0124A135A142A153A191
:10503000422753274623572391E0452B09F490E05C
:10504000209530956223732381E0672B09F480E07B
:10505000892308950F9320916F05E0917505F091D4
:10506000760500E0309771F03396E491F0E03796E2
:1050700083E0F595E7958A95E1F7009178050E9F15
:10508000002D1124EFEFE20F0E0F409170054150FB
:1050900060916E058AE695E00E94080C0F910895D4
:1050A000CF93DF93EB0142E0480F60E08AE695E0A2
:1050B0000E94A80A0E942A28CE01DF91CF910C9469
:1050C000ED0B2F923F924F925F926F927F928F9251
:1050D0009F92AF92BF92CF92DF92EF92FF920F9387
:1050E0001F93CF93DF9300D000D0CDB7DEB7B82E9B
:1050F0002B011A01922E89E192E09C838B83D12CA3
:10510000FB013297FA83E9836B2C712C660C771CB8
:10511000C30187569D4F3C01E981FA81329770F0B7
:105120008FEF8D0D823050F1F5E04F16510431F4C0
:10513000DD2021F188EF8D0D823000F1EB81FC81C3
:10514000E080F1800281138124814581A6808780DF
:105150002114310459F0F10184A195A18095909515
:105160008E219F21CC24C394892B09F4C12C9F92BA
:10517000F30160818B2D0E944C0C0F90D3948B8196
:105180009C8108969C838B8390E1D912C5CF0F90A8
:105190000F900F900F90DF91CF911F910F91FF9083
:1051A000EF90DF90CF90BF90AF909F908F907F90C7
:1051B0006F905F904F903F902F900895FF920F93C4
:1051C0001F93CF93DF93182FEB01E82FF0E0EE0F42
:1051D000FF1FE756FD4FF08007E023E041816F2D70
:1051E0008AE695E00E94080C47E06F2D8AE695E07C
:1051F0000E94A80AC430D105A1F188F4C130D105BC
:1052000031F186E191E0C230D10589F084E891E086
:10521000DF91CF911F910F91FF900C94ED0BC53052
:10522000D105A9F083E091E0C630D10579F70E945D
:10523000ED0B1230C8F421E050E040E0BE01812FB8
:10524000DF91CF911F910F91FF900C946128809175
:105250000704811103C080E291E0E9CF88E291E088
:10526000E6CF8AE091E0E3CFDF91CF911F910F91DC
:10527000FF9008955F926F927F928F929F92AF926C
:10528000BF92CF92DF92EF92FF920F931F93CF9333
:10529000DF93D82EEB01E82FF0E0EE0FFF1FE7566B
:1052A000FD4F908007E023E04181692D8AE695E07B
:1052B0000E94080C47E0692D8AE695E00E94A80A42
:1052C000C330D10509F462C0C0F48FEF90E0C23062
:1052D000D105E1F084E891E0DF91CF911F910F912A
:1052E000FF90EF90DF90CF90BF90AF909F908F9006
:1052F0007F906F905F900C94ED0BC430D10509F452
:1053000048C081EF90E0C530D10521F70E94ED0B38
:1053100082E0D81659F18DE9682E82E0782EB12C02
:1053200055245394C230D10549F487E08B15B8F069
:1053300083E0F301E05AFF4F8B1508F4F301E0809E
:10534000F180028113815F928780A680CC24C39470
:1053500024814581692D8D2D0E944C0C0F90B394B2
:1053600088E0680E711C8CE0B812DCCFDF91CF9121
:105370001F910F91FF90EF90DF90CF90BF90AF9073
:105380009F908F907F906F905F9008958AEF90E04C
:10539000BDCF86EF90E0BACF2F923F924F925F92AF
:1053A0006F927F928F929F92AF92BF92CF92DF9235
:1053B000EF92FF920F931F93CF93DF93B82E2B01A1
:1053C0001A01922EC3EAD1E0D12C682E712C660C02
:1053D000771CC30187569D4F3C0192E0491651044A
:1053E000B1F4E8E0DE121AC0DF91CF911F910F9166
:1053F000FF90EF90DF90CF90BF90AF909F908F90F5
:105400007F906F905F904F903F902F900895F3E0C2
:105410004F16510419F48CE0D816E9F0E880F980B1
:105420000A811B812C814D81AE808F8081E0211407
:10543000310449F0F101618172816E217F2181E0A7
:10544000672B09F080E09F92C82EF30160818B2DBD
:105450000E944C0C0F90D3942896FDE0DF12BDCF34
:10546000C3CFFF920F931F93CF93DF93182FEB01BE
:10547000E82FF0E0EE0FFF1FE756FD4FF08007E04A
:1054800023E041816F2D8AE695E00E94080C47E0F9
:105490006F2D8AE695E00E94A80AC430D10569F113
:1054A00088F4C230D10531F18DED90E0C330D105E3
:1054B00089F084E891E0DF91CF911F910F91FF90E7
:1054C0000C94ED0BC530D105D9F085EC90E0C630D9
:1054D000D10579F70E94ED0B1230A9F021E050E0E0
:1054E00040E0BE01812FDF91CF911F910F91FF907E
:1054F0000C94CC2987EE90E0EDCF86ED90E0EACFDA
:105500008FEC90E0E7CFDF91CF911F910F91FF904B
:1055100008958F929F92AF92BF920F931F93CF9354
:10552000DF93CDB7DEB7A1970FB6F894DEBF0FBEFD
:10553000CDBF19A2423008F44AE08E010F5D1F4F23
:10554000842E912CB12CA12CA50194010E947030C5
:10555000E62FB901CA01EA3044F5E05DD801EE93C7
:105560008D01232B242B252B79F790E080E01097D9
:1055700069F0FD0101900020E9F73197AF014A1B66
:105580005B0BBD018AE695E00E943A05A1960FB635
:10559000F894DEBF0FBECDBFDF91CF911F910F9169
:1055A000BF90AF909F908F900895E95CD7CFCF9236
:1055B000DF92EF92FF92CF93DF936C01092E000CE4
:1055C000EE08FF0897FF19C06DE28AE695E00E9499
:1055D000B60AEC0166277727CB016C197D098E0985
:1055E0009F094AE00E94892A8C0F9D1FDF91CF916D
:1055F000FF90EF90DF90CF9008954AE0C701B60189
:10560000DF91CF91FF90EF90DF90CF900C94892A9B
:10561000DC0117961C92179718961C9218971A96E9
:105620001C921E9219978AE5E9E4F1E01B9601901D
:105630000D928A95E1F708951F93CF93DF93ECE2E3
:10564000F4E01382128288EE93E0A0E0B0E084835D
:105650009583A683B7838FE493E0918380838FEF54
:105660009FEF95878487EAE6F5E01382128212861F
:1056700014861386158681E0868781E693E0918300
:10568000808385E095E00E94082B80EA94E00E94E8
:10569000082BE1E9F4E0138214828AE0E6E9F4E001
:1056A000DF01282F1D922A95E9F7E2E8F4E0138242
:1056B0001482E7E8F4E0DF011D928A95E9F7E0E85B
:1056C000F4E08EE78083118282E490E00E949830BB
:1056D00012E4FC01212F11922A95E9F72BE733E020
:1056E000DC012D933C93CCE7D4E09983888382E45A
:1056F00090E00E949830FC0111921A95E9F72FE68C
:1057000033E0DC012D933C939B838A83DF91CF911F
:105710001F910895CF93DF93CDB7DEB7EC970FB607
:10572000F894DEBF0FBECDBF789484B5826084BD8F
:1057300084B5816084BD85B5826085BD85B5816095
:1057400085BD80916E00816080936E001092810013
:1057500080918100826080938100809181008160CE
:10576000809381008091800081608093800080918F
:10577000910082608093910080919100816080937C
:105780009100809190008160809390008091C10091
:1057900084608093C1008091C10082608093C100C9
:1057A0008091C10081608093C1008091C3008160BD
:1057B0008093C3008091C00082608093C00080917C
:1057C000C20081608093C20080917A0084608093DF
:1057D0007A0080917A00826080937A0080917A00CA
:1057E000816080937A0080917A00806880937A004B
:1057F0001092170410920504109204048091D700AF
:1058000081608093D70080EA8093D80089B5806159
:1058100089BD89B5826089BD09B400FEFDCF61E014
:1058200070E080E090E00E94A2038091D8008F7C1D
:1058300080618093D8008091E000807F8093E000B9
:105840008091E1008E7E8093E1008DE08093E20004
:10585000559A209A56985E9A90E080E00E945A30BD
:10586000282F30E030930C0420930B04843030F068
:1058700081E090E090930C0480930B0480910B04E2
:1058800090910C048230910509F437C18330910561
:1058900009F49AC1019709F0F9C0549A5C9A2598C5
:1058A0002D982D9A24982C982C9A6E987698769A02
:1058B00057985F985F9A3E984698469A3F984798BF
:1058C000479A10920D0500E115E03AE6632E35E0A7
:1058D000732EEE24EA9444244A94542C50E8F52E76
:1058E000D801EC921E961C921E9712965C924E92D4
:1058F00011971396FC9213971496FC921497159691
:105900001C92159716961C92C8010E94F909015F16
:105910001F4F6016710621F7229A2A9A85988D9852
:105920008D9A86988E988E9A87988F988F9A2198BC
:105930002998299A23982B982B9A26982E982E9A54
:105940001092A8040BEA14E085E0682E85E0782E1A
:10595000EE24EA9444244A94542C20E8F22EF801D0
:10596000E082168652824182F382F4821582168288
:10597000C8010E94F909015F1F4F6016710679F78F
:1059800083E290E00197F1F780ED97E02BE030E0C3
:1059900036990AC3F9013197F1F70197C9F7809158
:1059A0000D05811157C082E080933A0110E0552423
:1059B0005394F0903A011F1508F04EC08EE090E02D
:1059C0000E9498303C0143E0410F1F925F9288246F
:1059D0008394A12CC12CEE24E39401E02F2D6EE9D9
:1059E00073E00E94AD0DE12FF0E0EE0FFF1FE85EC7
:1059F000FB4F718260821F5F0F900F90DACF2130D2
:105A000009F022C3813009F01FC34130510541F034
:105A100081E090E090930F0580930E053F9A479A9E
:105A2000E1E040E0F1E06BE070E04798342F3F2781
:105A300080ED97E026B126FB222720F9321311C30F
:105A4000DB011197F1F70197A9F7A9CFE82F41E002
:105A5000479AECCF86E0A8CF10E080913A01181762
:105A600078F4812F0E94BE09E12FF0E0EE0FFF1FB6
:105A7000E85EFB4F808191810E94FF0C1F5FEDCF9C
:105A800062E370E080E090E00E94A20310927B0548
:105A90008CE380937A051092B90084E48093BC0073
:105AA0008CE08093B80010926E0510926F05E0E4D0
:105AB000F4E085919491F82EE2E4F4E07490E3E44C
:105AC000F4E0E491E0937005E4E4F4E0E491E09321
:105AD0007105E5E4F4E0E491E09372058C01802F18
