:100000000C944B020C9473020C9473020C947302C4
:100010000C9473020C9473020C9473020C9473028C
:100020000C9473020C9473020C94AE140C941D1572
:100030000C9473020C9473020C9473020C9473026C
:100040000C9473020C9473020C9473020C9473025C
:100050000C9473020C9473020C9473020C94641449
:100060000C9473020C9473020C9473020C9473023C
:100070000C9473020C9473020C9473020C9473022C
:100080000C9473020C9473020C9473020C9473021C
:100090000C9473020C9473020C9473020C9473020C
:1000A0000C9473020C9473020C947302AED580A866
:1000B0003FD300408D142002A1C8DA12817FD9F10C
:1000C000DB40A4A6AF56424F59004E545400534E45
:1000D0004553004E4553004A4F47434F4E00464C50
:1000E00049474854535449434B004455414C5348A5
:1000F0004F434B004449474954414C004E45474308
:100100004F4E00504144005749490047414D454337
:10011000554245004E3634002B4E4547005053584B
:10012000004E4553202B20534E4553000000000045
:100130002300260029002C002F0000030C0F303371
:100140003C3FC0C3CCCFF0F3FCFF0000000200092D
:100150000F0000030401000C00000000000000007C
:10016000000000000000000000080B000202020076
:10017000000904000001020200000524001001052E
:10018000240101010424020605240600010705815B
:100190000310004009040100020A000000070502E4
:1001A0000240000007058302400000040309041216
:1001B000010002EF020140412336800001010203E9
:1001C0000141726475696E6F204C4C43004172644A
:1001D00075696E6F204C656F6E6172646F00524579
:1001E000464C455800000005072061000000000053
:1001F00000005F00006070787060605048506003DD
:10020000070F07030305090503081C3E7F7F081C31
:1002100022417F7F7F3E1C087F41221C08082A1C48
:100220002A0808083E08080050300000080808089E
:1002300008006060000020100804023E5149453E5D
:1002400000427F400042615149462141454B3118EF
:1002500014127F1027454545393C4A494930017100
:100260000905033649494936064949291E003636EB
:1002700000003C7E7E7E3C3C4242423C14141414FE
:1002800014F0F0F0F0F0F0909090F0324979413EA7
:100290007E1111117E7F494949363E414141227FFD
:1002A0004141221C7F494949417F090901013E41E1
:1002B0004151327F0808087F00417F4100204041C2
:1002C0003F017F081422417F404040407F020402EA
:1002D0007F7F0408107F3E4141413E7F09090906A6
:1002E0003E4151215E7F091929464649494931015C
:1002F000017F01013F4040403F1F2040201F7F20E1
:1003000018207F63140814630304780403615149BF
:10031000454300007F4141020408102041417F0015
:1003200000383C1E0F074040404040382412090767
:1003300020545454787F4844443838444444203846
:100340004444487F3854545418087E090102081464
:1003500054543C7F0804047800447D40002040440D
:100360003D00007F10284400417F40007C041804B9
:10037000787C0804047838444444387C1414140805
:10038000081414187C7C08040408485454542004AD
:100390003F4440203C4040207C1C2040201C3C40EE
:1003A00030403C44281028440C5050503C44645485
:1003B0004C44E0E0E0E0E000007F0000E0A0A0A00E
:1003C000E008082A1C08081C2A0808000609090673
:1003D000AC00198040004E2F41005245424F4F540F
:1003E000494E472E2E2E004D554C54492D54415008
:1003F000004E4F4E45004E4F5420535550504F52D3
:100400005445440044524157534F4D4500554452C2
:100410004157005455524E5441424C4500445255A8
:100420004D0047554954415200434C4153534943B1
:10043000004E554E4348554B000000000025002853
:10044000002B002E00310000000000240027002AAD
:10045000002D003000040404040403040502020219
:10046000020403020202020606060606060404024D
:100470000202040404080201104080401020408061
:1004800040800802040180402010020110801020EA
:1004900040402000FD1C11241FBECFEFDAE0DEBF7C
:1004A000CDBF14E0A0E0B1E0E2EDF8E602C00590B7
:1004B0000D92A437B107D9F725E0A4E7B4E001C055
:1004C0001D92A53BB207E1F712E0CBE4D2E004C0F5
:1004D0002197FE010E942733CA34D107C9F70E9431
:1004E000AA1D0C9467340C94000090E0FC01EC58B9
:1004F000FB4F24918B5A9B4FFC018491882399F0E8
:1005000090E0880F991FFC01E95BFB4FA591B49126
:10051000FC01E75CFB4F859194918FB7F894EC91C7
:10052000E22BEC938FBF0895FC018091DC048823BB
:1005300011F13FB7F89482E08093E9002091F20036
:10054000822F90E01816190614F481E090E08823B9
:1005500039F0289844E64093DB044091F100408351
:10056000222339F02091F200211103C02BE62093C1
:10057000E8003FBF08958FEF9FEF0895CF93DF937B
:100580001F92CDB7DEB76983DC01ED91FC9102804B
:10059000F381E02D41E050E0BE016F5F7F4F099590
:1005A0000F90DF91CF91089583E08093E9008091CF
:1005B000F200882319F08AE38093E8000895CF932E
:1005C000DF931F92CDB7DEB7FC018485958597FD3B
:1005D00008C02FEF3FEF358724870F90DF91CF9131
:1005E0000895CE0101960E949402019719F4898121
:1005F00090E0F3CF8FEF9FEFF0CF0F931F93CF9348
:10060000DF931F92CDB7DEB78C01FC018485958501
:1006100097FF0BC0CE0101960E949402019771F4DE
:10062000898190E0F80195878487F8018485958514
:100630000F90DF91CF911F910F9108958FEF9FEF52
:10064000F1CFFC018485958597FD0BC09FB7F89489
:1006500082E08093E9008091F2009FBF90E00196D4
:1006600008959FB7F89482E08093E9008091F200AA
:100670009FBF90E008953FB7F8948091D704909180
:10068000D804A091D904B091DA0426B5A89B05C07E
:100690002F3F19F00196A11DB11D3FBFBA2FA92F01
:1006A000982F8827BC01CD01620F711D811D911DFE
:1006B00042E0660F771F881F991F4A95D1F708956A
:1006C0008F929F92AF92BF92CF92DF92EF92FF9262
:1006D0004B015C010E943B036B017C010E943B03C8
:1006E0006C197D098E099F09683E7340810591054B
:1006F000A8F321E0821A9108A108B10888EEC80E7B
:1007000083E0D81EE11CF11C81149104A104B10402
:1007100029F7FF90EF90DF90CF90BF90AF909F9020
:100720008F9008952FB7F8946091D3047091D404FA
:100730008091D5049091D6042FBF089540918C04E8
:1007400050918D0420918A0430918B0442175307F5
:10075000B4F49091E8009570E1F39091E80092FD77
:1007600019C08093F10080918C0490918D040196C2
:100770008F739927892B19F48EEF8093E80080916D
:100780008C0490918D04019690938D0480938C0439
:1007900081E0089580E00895DF92EF92FF920F9339
:1007A0001F93CF93DF93D82E8A01EB017B01E40ED8
:1007B000F51ECE15DF0559F0D7FE12C0FE0184915B
:1007C0000E949E0321968111F4CF0FEF1FEFC80105
:1007D000DF91CF911F910F91FF90EF90DF900895DF
:1007E0008881EECF2FB7F89487708093E9009091BD
:1007F000E800892F807295FF04C09091F20080E498
:10080000891B2FBF089583E00E94F20390E00895B2
:100810007F928F929F92AF92BF92CF92DF92EF9290
:10082000FF920F931F93CF93DF93C82E8B017A0112
:100830008091DC04811110C08FEF9FEFDF91CF9189
:100840001F910F91FF90EF90DF90CF90BF90AF90EE
:100850009F908F907F9008958091900480FF05C0B5
:100860008091E00082608093E000CE2DDF2DD12CBE
:100870008AEFB82E8C2D8770982E8C2D8072882E42
:100880008C2D8074782E9AE3A92E209719F4DD2000
:1008900009F452C08C2D0E94F20381110AC0BA944F
:1008A000BB2051F261E070E080E090E00E946003C4
:1008B000ECCF8C171D0611F00CF08C2F9FB7F8941D
:1008C0009092E9002091E80025FD02C09FBFDDCF96
:1008D000282F30E0C21BD30B882029F08150A0F0D4
:1008E0001092F100FBCFF801C7FC0AC0815050F014
:1008F00041914093F100FACF44914093F100319639
:100900008150D0F7020F131FDD2021F0A092E800E4
:10091000D12CDCCF8091E80085FD07C0A092E800D3
:10092000DD24D394209791F2F3CF209779F67720A6
:1009300069F2A092E800CACF5D9884E680938F04A4
:10094000C7017CCFCF93DF93EC01809134018823E2
:1009500031F083E00E9408041816190634F081E093
:1009600090E09B838A8380E090E0DF91CF910895AF
:10097000615030F02091F100FC0120830196F8CF06
:10098000289884E68093DB0408954F925F926F92DB
:100990007F92AF92BF92CF92DF92EF92FF920F932E
:1009A0001F93CF93DF93EC016B017B01E40EF51EE7
:1009B0008B015801AC18BD080E151F0511F10E94DE
:1009C0009203688779878A879B87E881F981028407
:1009D000F385E02DCE01099597FF23C00E94920375
:1009E000488459846A847B84641975098609970947
:1009F0004C805D806E807F80641575058605970547
:100A000020F3C501DF91CF911F910F91FF90EF90DF
:100A1000DF90CF90BF90AF907F906F905F904F909E
:100A20000895F80181938F01C4CFAF92BF92CF9206
:100A3000DF92EF92FF920F931F93CF93DF936C019E
:100A40007B018B01040F151FEB015E01AE18BF087F
:100A5000C017D10759F06991D601ED91FC91019031
:100A6000F081E02DC6010995892B79F7C501DF9149
:100A7000CF911F910F91FF90EF90DF90CF90BF909B
:100A8000AF9008958091820481110DC082E080931F
:100A90007E0484E080937F0410928104109280048D
:100AA00081E0809382048EE794E008950F931F9372
:100AB000CF93DF931F92CDB7DEB782E0898342E404
:100AC00050E069E671E080E80E94CC030E94420594
:100AD000DC0112960D911C910115110589F0D801C8
:100AE000ED91FC910280F381E02DBE016F5F7F4F9D
:100AF000C801099597FD04C0F80100851185ECCF68
:100B000089810F90DF91CF911F910F910895CF931D
:100B1000CFB7F89480917D0481115AC046E654E025
:100B2000FA01949125E834E0F9018491E92FF0E08D
:100B3000EE0FFF1FE95BFB4FA591B4919C919823A9
:100B400009F037C0EBE5F1E09491F9012491FA0145
:100B50008491882309F42DC09923E9F091509F30A6
:100B6000D0F4E92FF0E0E954FA4F0C942733F8055C
:100B7000FC05C605F005F405CB05CB05CB05FF0547
:100B8000050609060D061306CB0517069091800091
:100B90009F7790938000E82FF0E0EE0FFF1FE75C57
:100BA000FB4FA591B4918FB7F8949C91292B2C936E
:100BB0008FBF81E10E9475028CB580618CBD8CB5C0
:100BC00080648CBD8FE00E94750280E10E947502F6
:100BD00080917D048F5F80937D04CFBFCF91089576
:100BE000909180009F7DD5CF90918000977FD1CF4D
:100BF00094B59F7794BDCFCF94B59F7DFBCF909157
:100C000090009F7790939000C6CF909190009F7D29
:100C1000F9CF90919000977FF5CF9091C0009F778A
:100C20009093C000B8CF9091C0009F7DF9CF909174
:100C3000C200977F9093C200AECFCF93DF93EC01B9
:100C40008A85882329F081508A87DF91CF91089582
:100C50009C818E819817C8F78D856827E881F98176
:100C60000084F185E02D42E0CE0109958C818F5FF3
:100C70008C83EBCF81E090E0089581E0089583E0DC
:100C800090E0089584E090E00895EF920F931F9311
:100C9000F901DA012C913E2D309532233C933081BD
:100CA0003E293083FC01D80198E080E030E020E06C
:100CB0004C914E2189F02A95D9F720E04C914E2194
:100CC00059F02A95D9F720E84C914E2129F02A9520
:100CD000D9F73A9561F717C047E04A95F1F7000058
:100CE00031E0550F4C914E2109F051609A9529F44D
:100CF0005193839598E0681731F020E84C914E218C
:100D000011F72A95D9F71F910F91EF9008950F933E
:100D10001F93F9012081202B2083DA012C91202BB5
:100D20002C9320814081202B30E010E0009510951D
:100D300050E004231523DC015D9148E00083550F4A
:100D400040F474E07A95F1F720837AE07A95F1F730
:100D500005C07EE07A95F1F7000020834A9529F0DE
:100D600073E07A95F1F70000E9CF6A9529F071E018
:100D70007A95F1F70000E0CF72E07A95F1F7000084
:100D80000000008374E07A95F1F7000000002083F2
:100D90001F910F9108957F928F929F92AF92BF9271
:100DA000CF92DF92EF92FF920F931F93CF93DF9337
:100DB000DB01642F5901F02E282F30E0F901EC58A7
:100DC000FB4FE4902B5A3B4FF901249130E0220F66
:100DD000331FF901E95BFB4FC591D491F901E75C41
:100DE000FB4FC590D490F901E45DFE4F859094903F
:100DF0007FB6F8940E2D9601AE01CD010E948706B4
:100E000084019601AE016F2DC5010E9445067FBE8B
:100E1000DF91CF911F910F91FF90EF90DF90CF90D6
:100E2000BF90AF909F908F907F900895FC018FE0CE
:100E300086838FE7878380871186128613860895BD
:100E4000DC01FB0112962C91129784819581281761
:100E5000190641F491818081813A31F49D7F81E0CE
:100E6000913009F080E008958132E1F79B3029F458
:100E700082811F968C9381E008959A3099F7828140
:100E800050968C93F8CFEF92FF920F931F93CF93CE
:100E9000DF93FB012081213889F52381223271F50E
:100EA000DC0112964C91248135814217130631F5ED
:100EB0008C01FC01C385D485F12CE12C209791F0A5
:100EC0004C815D816A817B818E81811180E80E94E5
:100ED000CC038F3F980759F0E80EF91E0990D8818E
:100EE000C02DECCF81E0D8011F968C93C701DF9114
:100EF000CF911F910F91FF90EF90089590E080E0C7
:100F0000F6CFCF93DF93CDB7DEB769970FB6F894DE
:100F1000DEBF0FBECDBFFC01DB018C918F5F8C93D8
:100F20009E012D5F3F4F8DE0D9011D928A95E9F713
:100F300029E0298384E08A8391E09D8383E08E8386
:100F40002A8721E22B879C879D879F8722E2288B17
:100F500027E02B8B25E02C8B8E8B20E430E0388F24
:100F60002F8B998F82818B8395858685998B8A8B30
:100F7000838180688D8B49E150E0BE016F5F7F4FB8
:100F800080E00E94CC0369960FB6F894DEBF0FBED6
:100F9000CDBFDF91CF9108958FB7F89480917C04F5
:100FA0008FBF089584E98093BC0085E69091BC00D2
:100FB00094FF03C08150D1F7089581E008956EBD7C
:100FC00000000DB407FEFDCF8EB508952A9A299A28
:100FD0008C9A83EC90E00197F1F708952A9A299A68
:100FE000469A83EC90E00197F1F708958091CC0444
:100FF0009091CD040196863091052CF49093CD0408
:101000008093CC04089581E090E0F8CF909129017D
:101010008917C0F4E82FF0E0EE0FFF1FE352FB4FFB
:1010200080819181DC01ED91FC910190F081E02DB6
:101030000995E091DD04F091DE048FE787838087D6
:101040008187828708950895DC019C96EC919C9796
:101050009D962C91E21730F4E80FF92FF11D84854D
:1010600090E008958FEF9FEF0895FC0194A585A56A
:101070002FEF3FEF981740F4DF01A90FB11D1C9629
:101080002C9130E09F5F94A7C9010895FC0185A5CC
:1010900094A5891B990B0895CF92DF92EF92FF924E
:1010A0000F931F93CF93DF936C01EB017B01E40E51
:1010B000F51E10E000E0CE15DF0561F06991D60164
:1010C000ED91FC910190F081E02DC6010995080F8A
:1010D000191FF1CFC801DF91CF911F910F91FF90A0
:1010E000EF90DF90CF900895CF93DF9390912901F7
:1010F0008917B0F4C82FD0E0CC0FDD1FC352DB4FEF
:1011000088819981DC01ED91FC910190F081E02DC5
:101110000995E881F9818FE78783808781878287B6
:10112000DF91CF910895EF92FF920F93CF93DF93CA
:101130001F92CDB7DEB77C01FC0180819181892BA4
:10114000E1F48781198203E0970141E0BE016F5FFE
:101150007F4F0E94CB06833061F0F701108211822D
:10116000128280E00F90DF91CF910F91FF90EF906E
:1011700008958BE891E00197F1F7F701878191E0FD
:10118000998304E097012D5F3F4F41E0BE016F5FFF
:101190007F4F0E94CB06843001F781E0E3CFFC0152
:1011A0001082118212820895EF92FF920F93CF93D3
:1011B000DF931F92CDB7DEB77C01FC0185891982D0
:1011C00003E0970141E0BE016F5F7F4F0E94CB06B5
:1011D000833029F0C7010E94CF0890E017C0F701C3
:1011E0008081918188309042C9F0F701858991E42E
:1011F000998397012D5F3F4F0AE041E0BE016F5F89
:101200007F4F0E94CB0691E08A3039F7892F0F90EB
:10121000DF91CF910F91FF90EF90089591E0F6CF7D
:10122000EF92FF920F93CF93DF9300D01F92CDB731
:10123000DEB77C01FC0180819181892B09F1F701E6
:10124000808191818930910579F5928193FB99276D
:1012500090F9858920E4298323E02A839B8308E091
:101260009701235F3F4F43E0BE016F5F7F4F0E94B6
:10127000CB06883099F0C7010E94CF0880E005C0F6
:10128000C7010E94D4088111DACF0F900F900F9000
:10129000DF91CF910F91FF90EF900895F701858531
:1012A00085FDE9CF81E0F1CF88309042D9F7F70191
:1012B000858994E599831A821B8208E09701235F50
:1012C0003F4F43E0BE016F5F7F4F0E94CB068830E7
:1012D00049F3D1CF8CBD9DBD08958C9880917F0539
:1012E000909180050E946A0983EC90E00197F1F7E4
:1012F0000895469880917F05909180050E946A0923
:1013000083EC90E00197F1F708958F929F92AF924E
:10131000BF92CF92DF92EF92FF920F931F93CF93E2
:10132000DF937C016B015A01022F10E0D0E0C0E096
:1013300083EC882E912CC017D107E1F0D701ED91F5
:10134000FC910480F581E02D6AE5C114D10421F0FF
:10135000D601AC0FBD1F6C91C7010995A114B10452
:1013600021F0F501EC0FFD1F8083C4010197F1F717
:101370002196E1CFDF91CF911F910F91FF90EF90D8
:10138000DF90CF90BF90AF909F908F900895CF92B5
:10139000DF92EF92FF920F931F93CF93DF937C0125
:1013A0006B01D42F8C010E5F1F4F23E0A8010E9418
:1013B0008509F70123812F3F61F410E000E0C801A7
:1013C000DF91CF911F910F91FF90EF90DF90CF9021
:1013D000089584818A3511F08111EFCF2F70C22FCB
:1013E000CC0FD33059F0B6016D5F7F4F2DEF2D0F2D
:1013F000A7014B5F5F4FC7010E9485092C2F2D1B52
:101400002D5FE9F24D2F50E0CA01820F911D8197A7
:10141000A4F6400F511F70E060E0C7010E948509EB
:10142000CECFAF92BF92CF92DF92EF92FF920F9307
:101430001F93CF93DF9300D000D01F92CDB7DEB7BC
:101440008C01DC019C961C929C97D9961C92D99792
:10145000ED91FC910190F081E02D0995F80182ADAC
:10146000811108C083AD803409F083C084AD813020
:1014700009F07FC085E0EBE4F1E0DE011196019018
:101480000D928A95E1F7D80196968D919C91979748
:10149000069709F068C0DD968C918C8345E0BE010B
:1014A0006F5F7F4FC8010E94C7097C01D801ED9191
:1014B000FC910280F381E02DC8010995E114F1044B
:1014C00009F440C0F7018181807F803F09F055C059
:1014D0000E9492036B017C01D801ED91FC91019077
:1014E000F081E02DC801099544E062E471E0C80193
:1014F0000E94C7095C01D801ED91FC910280F38143
:10150000E02DC8010995A114B10429F0F5018181EC
:10151000807F803F89F46AE070E080E090E00E9484
:1015200060030E9492036C197D098E099F096B3F2D
:1015300071058105910580F262E370E080E090E042
:101540000E94600380E00F900F900F900F900F901B
:10155000DF91CF911F910F91FF90EF90DF90CF908F
:10156000BF90AF900895F80183AD8C8384AD8D83D7
:1015700095CF43E06BE471E095CFD80194968D91BF
:101580009C91959793969C938E9392972381348107
:1015900095963C932E93949781818937B9F483E093
:1015A00090E097969C938E939697D80196968D91FE
:1015B0009C9197978430910591F150F58230910577
:1015C00071F1039709F441C081E0BDCF982F907F5E
:1015D000903721F482E090E0D801E3CF903531F4E8
:1015E00084E090E0F80197A386A3DFCF833219F45B
:1015F00085E090E0F1CF903E19F486E090E0F2CFE4
:10160000833619F487E090E0E7CF81E090E0EACFFD
:101610008630910509F45CC030F10797A9F681E0A6
:10162000D8019C968C939C97F70185819A968C9310
:101630009A9786819B968C939B97878198968C939B
:101640009897808599968C93BFCF81E0F80181AF00
:10165000F70139969D96C701459621912D93E8177C
:10166000F907D9F7DCCF81E09C968C939C97F70122
:10167000958198969C939897D9968C93D9978681C3
:10168000D3968C93D3979781D4969C93D497408587
:10169000D5964C93D59797FF05C03F7795963C9389
:1016A0002E93949787FF0AC0D80194968D919C91B0
:1016B00095979F7B95969C938E939497403F08F4C3
:1016C00083CFF80184A195A19B7F95A384A37CCFB0
:1016D00081E09C968C93F7019681858197FD1AC0D5
:1016E00087FD8FE7D80198968C93D80198968C91B6
:1016F0009897805898968C939897F70185819D9636
:101700008C939D9786819E968C939E9787819F96BA
:101710008C935ACF813808F481E8F80180A7E5CF8F
:1017200090912901891778F4E82FF0E0EE0FFF1F60
:10173000E352FB4F80819181DC01ED91FC9101909E
:10174000F081E02D09940895FC019081911107C06A
:10175000838194810196B1F090E080E008959F30FC
:1017600051F4228130E02F7033272F30310581F47E
:1017700082E090E00895923041F0943049F485E0A1
:1017800090E0089583E090E0089584E090E008956B
:1017900081E090E00895FC016093BC002FEF3FEFE3
:1017A0008091BC0087FF06C09091B900987F90831C
:1017B00081E008952150310999F780E00895CF9391
:1017C000DF93EC016093BB0064E80E94CB0B88239D
:1017D00029F081E09881983209F080E0DF91CF9183
:1017E0000895DF92EF92FF920F931F93CF93DF93B1
:1017F000EC01D62EF42E8989882329F0411103C0EB
:101800000E94D207198A8E01015F1F4F89898111B9
:1018100019C0E88864EAC8010E94CB0B882361F0F4
:101820008F85883011F0803139F4EE0CE092BB00E6
:1018300064E8C8010E94CB0B60E0F11060E4C801CD
:101840000E94DF0B6D2DC8010E94DF0B82E0F812B1
:101850000BC089898F5F898BDF91CF911F910F9189
:10186000FF90EF90DF9008950E94D207198AF4CF7D
:10187000DC01ED91FC910084F185E02D40E00994BC
:10188000FC012781269526952695621720F465830D
:10189000606B0C94380C08950F931F93CF93FC0149
:1018A0002681621798F4C62F8C0164836085C60F69
:1018B0006C2F6F700E94380C6C2F62956F70606196
:1018C000C801CF911F910F910C94380CCF911F91AB
:1018D0000F9108951F93CF93DF93EC01142F0E9473
:1018E0004C0C612FCE01DF91CF911F910C94400CD5
:1018F0002F923F924F925F926F927F928F929F9220
:10190000AF92BF92CF92DF92EF92FF920F931F930D
:10191000CF93DF9300D000D000D0CDB7DEB7FC016D
:10192000238534852115310509F416C19E838D83E5
:10193000F9013296649031964491E42EF12CF7E04F
:10194000EF0EF11C53E0F594E7945A95E1F7E98224
:10195000F901349654913196E4916D30F1F460E0E0
:101960000E944C0C81E090E026960FB6F894DEBF02
:101970000FBECDBFDF91CF911F910F91FF90EF90E0
:10198000DF90CF90BF90AF909F908F907F906F909F
:101990005F904F903F902F9008956A3081F460E0FF
:1019A0008D819E810E944C0CED81FE818685658132
:1019B0008E9D600D1124CF010E94400CD3CF65177E
:1019C00008F4CAC08E2F90E0FC01E50FF11D6E17E0
:1019D0001F060CF0C1C089010A5F1F4F651BED8116
:1019E000FE8171855685759F502D11245C83F90108
:1019F00054912F5F3F4FF9012491352F223031054B
:101A000008F06AC06E9CC0016F9C900D1124689F05
:101A1000F001699FF00D11240E0F1F1F512CED8155
:101A2000FE81F481FA83ED81FE812580F285FB83BE
:101A3000862C912CAA24A394B12C312C89813816A0
:101A400008F086C0412CED81FE818685481608F09D
:101A500078C08B818287311002C0442041F0ED8133
:101A6000FE8145814F5F6A81CF010E946A0CD12CB3
:101A7000C12CC61408F058C0F801EC0DFD1D74907F
:101A8000552061F0EA14FB0449F4E72DF0E0052C41
:101A900002C0F595E7950A94E2F77E2EED81FE816E
:101AA0008685823081F4442009F43AC072948FE034
:101AB0007822E72DF0E0E65CFE4F7490672D8D8173
:101AC0009E810E941D06672D8D819E810E941D06AC
:101AD0008FEFC81AD80ACDCF477028E0522E541A7B
:101AE000411101C0512CF801612C30E020E0661654
:101AF00031F04491240F311D63943196F8CF600E7C
:101B0000712E711CF3016490E29EF001E39EF00DD2
:101B1000F29EF00D11248E0F9F1F080F191F7FCF0B
:101B2000F72DFF707F2EC5CFD12CEC81DE1639F05A
:101B300060E08D819E810E941D06D394F6CF439470
:101B400082CF3394080D191DFFEFAF1ABF0A76CF6D
:101B5000622D8D819E8130CF90E080E005CF0F9384
:101B60001F93CF93DF938C01D0E0C0E0F801EC0F1E
:101B7000FD1F6491662341F08FE995E00E94780C87
:101B8000892B11F02196F2CFCE01DF91CF911F91D9
:101B90000F910895CF92DF92EF92FF920F931F93D0
:101BA000CF93DF93EC01F62EC42ED22E1A868F81AE
:101BB000869586958695081710F00FEF080F1D2D56
:101BC000011780F0412F6F2DCE010E946A0CEF2C7F
:101BD000CE1430F06D85CE010E941D06E394F8CF3F
:101BE0001F5FEECF4D2D6F2DCE01DF91CF911F9155
:101BF0000F91FF90EF90DF90CF900C946A0C0F93B1
:101C0000FC010781069506950695015046814150D5
:101C100020E060E00E94CA0D0F9108954F925F92FC
:101C20006F927F928F92AF92CF92EF92FF920F932B
:101C30001F93CF93DF93CDB7DEB72701380194E030
:101C4000899F80011124F801EC58FB4F808191811C
:101C5000A281B3818E219521A621B72131E0892B64
:101C60008A2B8B2B09F430E03C1103C08889882330
:101C700001F1C11001C0A82C2D5F640F422F8FE924
:101C800095E00E946A0C6A2D8FE995E00E94780C1D
:101C9000F801EC58FB4FCC20D1F080819181A281DA
:101CA000B38184299529A629B72980839183A283AA
:101CB000B383DF91CF911F910F91FF90EF90CF9061
:101CC000AF908F907F906F905F904F900895409469
:101CD00050946094709480819181A281B381842119
:101CE0009521A621B721E1CF8F929F92AF92BF920B
:101CF000CF92DF92EF92FF920F931F93CF93DF93D8
:101D0000D82EC62FE82FF0E0EE0FFF1FE055FC4F56
:101D1000B08007E023E041816B2D8FE995E00E94C0
:101D2000CA0D47E06B2D8FE995E00E946A0CC13027
:101D300069F583E091E00E94AF0D81E08D15C8F058
:101D4000C8E4D2E099249394E880F9800A811B8149
:101D50009F928F80AE80CC24C3942C814D816B2DBB
:101D60008D2D0E940E0E28960F9082E0C83BD8075A
:101D700059F7DF91CF911F910F91FF90EF90DF9076
:101D8000CF90BF90AF909F908F90089581EF93E098
:101D9000DF91CF911F910F91FF90EF90DF90CF9047
:101DA000BF90AF909F908F900C94AF0D0F9307E072
:101DB00022E04FE760E08FE995E00E94CA0D809134
:101DC000CC049091CD048330910559F138F48130E1
:101DD000910589F00297C9F00F910895843091051B
:101DE00041F10597C9F766E38FE995E00E944C0C35
:101DF00087E091E007C064E28FE995E00E944C0C17
:101E000081E291E00F910C94AF0D6AE28FE995E0C9
:101E10000E944C0C8DE191E00E94AF0D88E191E0B1
:101E2000F1CF66E38FE995E00E944C0C84E191E0EC
:101E3000E9CF64E28FE995E00E944C0C8BE091E0E1
:101E4000E1CF809316016EEA81116FEA8FE995E088
:101E50000E94380C0E949203609397047093980438
:101E60008093990490939A040895FC01448550E06E
:101E7000A585B0E0AA0FBB1FA251BB4F0D90BC912E
:101E8000A02D13968C9180649091F204BF01992348
:101E900021F06E5F7F4F0C9408046D5F7F4FFBCF86
:101EA000089590E080E008952F923F924F925F92C4
:101EB0006F927F928F929F92AF92BF92CF92DF925A
:101EC000EF92FF920F931F93CF93DF93CDB7DEB7BF
:101ED000C456D1090FB6F894DEBF0FBECDBF2C019A
:101EE0001B01942ED22EBE2C84ED93E0D2018D9353
:101EF0009C93822F90E00196959587959091EC04A4
:101F0000981750F09091ED0411E0EE24E394F12C39
:101F1000981728F012E075C010E0F12CE12CF701C1
:101F2000E451FB4F81E0890F808391116AC083E106
:101F300090E00E942D333C0181E0F301848385838E
:101F40009301265F3F4F378326831186108628EC46
:101F500033E031832083148613861686158687879F
:101F6000808B328A218A81EC82870E944205FC01A3
:101F70008181D30114965C91682F650F7727771FB5
:101F800068307105BCF5A281B381109739F5738271
:101F900062829081D30112969C93129713968C9330
:101FA000139715968C91890F808390E080E08517B8
:101FB00008F54181A42FB0E0BD016B5C7E4FD301D9
:101FC00016962D913C91280F391FD9012C91DB01D8
:101FD0002C934F5F41830196EACFD90118962D913A
:101FE0003C91199721153105C1F719967C926E9293
:101FF0001897CFCFF701EE0FFF1FE251FB4F718211
:102000006082F201158781E0F2E0FD1508F080E0C2
:102010008093F2048AED93E0D20111969C938E9303
:1020200012969C922C2D2A0D2B0D200FEA96BFADF7
:10203000EA97EB966FACEB97B60D3B2E380C822FE0
:10204000830D95E0980FD2011C969C9335E039835F
:1020500091E09A8349E04B833C8331EA3D839E8340
:10206000B2E0BD1508F007C485E88F83988698E034
:10207000E1E0F0E0EC0FFD1FE90FF11D45E04083CA
:10208000E1E0E90F66246394712C6C0E7D1E6E0EE8
:10209000711CF30159E05083E2E0E90FEE24E39470
:1020A000F12CEC0EFD1EEE0EF11CF70189E1808390
:1020B000E3E0E90F61E070E06C0F7D1F6E0F711DB2
:1020C000FB0131E03083E4E0E90FA1E0B0E0AC0FC8
:1020D000BD1FAE0FB11DFD0189E28083E5E0E90F70
:1020E00066246394712C6C0E7D1E6E0E711CF301C0
:1020F00088E18083E6E0E90FEE24E394F12CEC0E16
:10210000FD1EEE0EF11CF701A5E19A2E9082E7E08C
:10211000E90F61E070E06C0F7D1F6E0F711DFB0118
:102120001082E8E0E90FA1E0B0E0AC0FBD1FAE0FF8
:10213000B11DFD01B5E2FB2EF082E9E0E90F662456
:102140006394712C6C0E7D1E6E0E711CF301308336
:10215000EAE0E90F61E070E06C0F7D1F6E0F711D0A
:10216000FB0175E77083EBE0E90FA1E0B0E0AC0F95
:10217000BD1FAE0FB11DFD013083ECE0E90F6624F9
:102180006394712C6C0E7D1E6E0E711CF30165E95B
:102190006083EDE0E90FA1E0B0E0AC0FBD1FAE0F32
:1021A000B11DFD018083EEE0E90F66246394712C7C
:1021B0006C0E7D1E6E0E711CF30181E88083EFE0D2
:1021C000E90FA1E0B0E0AC0FBD1FAE0FB11DFD01E6
:1021D000B2E0DB2ED082E0E1E90F66246394712C3B
:1021E0006C0E7D1E6E0E711CF3014083E1E1E90F60
:1021F000A1E0B0E0AC0FBD1FAE0FB11DFD013083FB
:10220000E2E1E90F66246394712C6C0E7D1E6E0E64
:10221000711CF3015083E3E1E90FA1E0B0E0AC0FE2
:10222000BD1FAE0FB11DFD0149E34083E4E1E90F9D
:1022300066246394712C6C0E7D1E6E0E711CF3016E
:102240009082E5E1E90FA1E0B0E0AC0FBD1FAE0F59
:10225000B11DFD011082E6E1E90F66246394712C43
:102260006C0E7D1E6E0E711CF301F082E7E1E90F2A
:10227000EE24E394F12CEC0EFD1EEE0EF11CF701A2
:1022800047E04083E8E1E90FA1E0B0E0AC0FBD1FFB
:10229000AE0FB11DFD0145E34083E9E1E90F66247E
:1022A0006394712C6C0E7D1E6E0E711CF3011082F6
:1022B000EAE1E90FEE24E394F12CEC0EFD1EEE0EA4
:1022C000F11CF70146E44083EBE1E90FA1E0B0E047
:1022D000AC0FBD1FAE0FB11DFD014BE34083ECE120
:1022E000E90F66246394712C6C0E7D1E6E0E711CBA
:1022F000F3013083EDE1E90FEE24E394F12CEC0ED1
:10230000FD1EEE0EF11CF70145E64083EEE1E90FFC
:10231000A1E0B0E0AC0FBD1FAE0FB11DFD0144E167
:102320004083EFE1E90F66246394712C6C0E7D1EEF
:102330006E0E711CF3017083E0E2E90FEE24E3946A
:10234000F12CEC0EFD1EEE0EF11CF70148E040836F
:10235000E1E2E90FA1E0B0E0AC0FBD1FAE0FB11D8F
:10236000FD016083E2E2E90F66246394712C6C0E38
:102370007D1E6E0E711CF3013083E3E2E90FEE2443
:10238000E394F12CEC0EFD1EEE0EF11CF7018083A0
:10239000E5E2E90F84E2890FEE24E394F12CEC0EE0
:1023A000FD1EE80EF11CD701DC92222309F404C1C2
:1023B00066246394712C6C0E7D1E6E0E711CF301ED
:1023C0005083E6E2E90FEE24E394F12CEC0EFD1EBF
:1023D000EE0EF11CF7013083E7E2E90FA1E0B0E077
:1023E000AC0FBD1FAE0FB11DFD019082E8E2E90FF9
:1023F00066246394712C6C0E7D1E6E0E711CF301AD
:102400001082E9E2E90FEE24E394F12CEC0EFD1EBC
:10241000EE0EF11CF70186E28083EAE2E90FA1E00B
:10242000B0E0AC0FBD1FAE0FB11DFD018FEF80837B
:10243000EBE2E90F66246394712C6C0E7D1E6E0E28
:10244000711CF3011082ECE2E90FEE24E394F12C0D
:10245000EC0EFD1EEE0EF11CF7017083EDE2E90FAC
:10246000A1E0B0E0AC0FBD1FAE0FB11DFD01408378
:10247000EEE2E90F66246394712C6C0E7D1E6E0EE5
:10248000711CF3016083EFE2E90FEE24E394F12C79
:10249000EC0EFD1EEE0EF11CF7012083E0E3E90FC8
:1024A00021E030E02C0F3D1F2E0F311DF90181EA94
:1024B000808382E3890FE1E3E90F61E070E06C0F54
:1024C0007D1F6E0F711DFB011082002391F0E1E072
:1024D000F0E0EC0FFD1FE80FF11D508384E3890F3E
:1024E0009D5CE1E0F0E0EC0FFD1FE90FF11D90E3D2
:1024F0009083BB20A1F0E1E0F0E0EC0FFD1FE80FBE
:10250000F11D99E09083E1E0E80FA1E0B0E0AC0FAD
:10251000BD1FAE0FB11DFD0191E390838E5FCC20F6
:10252000A9F0E1E0F0E0EC0FFD1FE80FF11D99E0EC
:102530009083E1E0E80F66246394712C6C0E7D1E9D
:102540006E0E711CF30192E390838E5FAA20A9F0B6
:10255000E1E0F0E0EC0FFD1FE80FF11D99E0908342
:10256000E1E0E80FEE24E394F12CEC0EFD1EEE0EFC
:10257000F11CF70195E390838E5FE1E0F0E0EC0F52
:10258000FD1FE80FF11D91E89083E1E0E80F21E0E5
:1025900030E02C0F3D1F2E0F311DF90192E090838A
:1025A000E3E0E80F8E5F61E070E06C0F7D1F680F65
:1025B000711D20ECDB012C93332009F401C125E0CF
:1025C00081E090E08C0F9D1F8E0F911DDC012C93FC
:1025D00081E08E0F66246394712C6C0E7D1E680E54
:1025E000711C22E0D3012C9382E08E0F6624639449
:1025F000712C6C0E7D1E680E711C25E1D3012C938D
:1026000083E08E0F66246394712C6C0E7D1E680E21
:10261000711CD3011C9284E08E0F66246394712C8C
:102620006C0E7D1E680E711C26E2D3012C9385E092
:102630008E0F66246394712C6C0E7D1E680E711CC7
:102640002FEFD3012C9386E08E0F66246394712CB8
:102650006C0E7D1E680E711CD3011C9287E08E0FDC
:1026600066246394712C6C0E7D1E680E711C25E728
:10267000D3012C9388E08E0F66246394712C6C0E2A
:102680007D1E680E711C28E0D3012C9389E08E0F0B
:1026900066246394712C6C0E7D1E680E711C25E9F6
:1026A000D3012C938AE08E0F66246394712C6C0EF8
:1026B0007D1E680E711CD3013C92ABE0AE0F662408
:1026C0006394712C6C0E7D1E6A0E711CD30181EA1D
:1026D0008C934DE04E0F8CE08E0FEE24E394F12CA2
:1026E000EC0EFD1EE80EF11CD7011C928820A9F00B
:1026F000A1E0B0E0AC0FBD1FA40FB11D89E08C9329
:102700004FE04E0FE25F66246394712C6C0E7D1EC9
:102710006E0E711CF3018BEB8083EA967FACEA9717
:102720007720A9F0E1E0F0E0EC0FFD1FE40FF11DD0
:1027300089E08083E1E0E40FEE24E394F12CEC0ED9
:10274000FD1EEE0EF11CF70185EC80834E5FEB96CB
:10275000FFACEB97FF20A1F0E1E0F0E0EC0FFD1FF4
:10276000E40FF11D89E08083E1E0E40F21E030E037
:102770002C0F3D1F2E0F311DF90188EC80834E5F19
:10278000E1E0F0E0EC0FFD1FE40FF11D81E8808334
:10279000E1E0E40F61E070E06C0F7D1F6E0F711DD2
:1027A000FB0182E08083E3E0E40FA2E0A40F81E07C
:1027B00090E08C0F9D1F8A0F911DDC0180EC8C93A3
:1027C000A1E0B0E0AC0FBD1FAE0FB11D80EC8C934B
:1027D000EF5FEE2EF12CC7010E942D336C01A70193
:1027E000BE016F5F7F4F0E94573487E090E00E94E8
:1027F0002D33DC0111961C921E921396DC92CE9220
:1028000012971596FC92EE92149716961C921697B4
:10281000E12FF0E0EE0FFF1FE251FB4F40815181AD
:10282000FA0183859485009761F5B487A387FA013F
:102830008585968514962D913C91820F931F9687DE
:102840008587CC59DF4F0FB6F894DEBF0FBECDBFE2
:10285000DF91CF911F910F91FF90EF90DF90CF907C
:10286000BF90AF909F908F907F906F905F904F90B0
:102870003F902F9008958C5FF201848796E0F8CB0B
:10288000C901FC012081318121153105C9F7B183CE
:10289000A083CDCF0E945234CF93DF93FC012085DB
:1028A000318580E0232B69F4EB0161897289CE01C7
:1028B0000E946034FE0101900020E9F731978E2FCD
:1028C0008C1BDF91CF9108951F920F920FB60F923C
:1028D00011242F933F938F939F93AF93BF93809136
:1028E000D3049091D404A091D504B091D604309132
:1028F000D20423E0230F2D3758F50196A11DB11DF9
:102900002093D2048093D3049093D404A093D5044D
:10291000B093D6048091D7049091D804A091D904A3
:10292000B091DA040196A11DB11D8093D704909354
:10293000D804A093D904B093DA04BF91AF919F91CA
:102940008F913F912F910F900FBE0F901F90189570
:1029500026E8230F0296A11DB11DD2CF1F920F9220
:102960000FB60F9211248F939F938091E100909165
:10297000E100937F9093E10083FF0FC01092E90084
:1029800091E09093EB001092EC0092E39093ED00B5
:102990001092DC0498E09093F00082FF22C093E054
:1029A0009093E9009091F200992319F09AE39093A3
:1029B000E80090918F04992341F090918F049150F9
:1029C00090938F04911101C05D9A9091DB0499233B
:1029D00041F09091DB0491509093DB04911101C080
:1029E000289A84FF18C08091E2008E7E81608093D7
:1029F000E2008091E1008F7E8093E100809190045D
:102A00008E7E8061809390049F918F910F900FBE76
:102A10000F901F90189580FFF7CF8091E2008E7E77
:102A200080618093E2008091E1008E7E8093E100DE
:102A3000809190048E7E8160E5CF1F920F920FB639
:102A40000F921124CF92DF92EF92FF920F931F9378
:102A50002F933F934F935F936F937F938F939F93A6
:102A6000AF93BF93EF93FF93CF93DF93CDB7DEB7D1
:102A70006C97DEBFCDBF1092E9008091E80083FF24
:102A800025C068E0CE0145960E94B80482EF80938D
:102A9000E8008D8987FF39C09091E80090FFFCCF56
:102AA000982F907609F034C19E894F89588D2F89CF
:102AB000F88C911131C0803861F580919104809338
:102AC000F1001092F1008EEF8093E8006C960FB643
:102AD000F894DEBF0FBECDBFDF91CF91FF91EF9194
:102AE000BF91AF919F918F917F916F915F914F9126
:102AF0003F912F911F910F91FF90EF90DF90CF901A
:102B00000F900FBE0F901F9018959EEF9093E800C6
:102B1000C7CF1092F100D5CF913059F48111D3CFA6
:102B20004130510581F6809191048D7F809391040D
:102B3000CACF933049F48111C6CF4130510519F6FF
:102B4000809191048260F2CF953041F48091E80049
:102B500080FFFCCF20682093E300B5CF963009F0CA
:102B6000A9C00B8D1C8D22E01092E90010928D04FB
:102B700010928C04F2122EC010928B0410928A04D0
:102B80000E9456051F8299E09983FA8291E09E8304
:102B900090EA98879AEF998720918C0430918D0460
:102BA000275F3F4F3C832B838D831092E900109267
:102BB0008D0410928C0410938B0400938A0449E0D6
:102BC00050E0BE016F5F7F4F80E00E94CC030E9407
:102BD000560579CF10938B0400938A040E94420516
:102BE000DC0112960D911C910115110509F451C1DA
:102BF000D801ED91FC910480F581E02DBE016B5E62
:102C00007F4FC8010995009709F03EC1F801008582
:102C10001185EACFF3E0FF120EC08F89882309F4F3
:102C200040C0823061F440E860E18DEC91E00E94A8
:102C3000481A811148CF81E28093EB0047CF813061
:102C400029F440E86BE081EC91E0F1CF833099F713
:102C50000E944205DC011296ED90FC908E010F5F00
:102C60001F4F6801E114F10479F0D701ED91FC9157
:102C70000680F781E02DB801C7010995080F111DE5
:102C8000F701E084F184EECFD8011C92F6010190A7
:102C90000020E9F73197BF016C197D0940E0C601BA
:102CA000C6CF6BEA71E0FB01449150E080E80E94DE
:102CB000CC0309CF973009F4BECF983021F481E0DE
:102CC0008093F10000CF993009F0FDCE837009F0B8
:102CD000B2CFE6E3F1E081E031E096E321912223F7
:102CE00071F08093E9003093EB00DF0111972C9194
:102CF0002093EC009093ED008F5F873079F78EE79B
:102D00008093EA001092EA008F898093DC04DBCE86
:102D10008B8D9C8D1092E90010928D0410928C0482
:102D200090938B0480938A04898D811192C08E893F
:102D30009D89913A49F4813209F07DCF47E050E016
:102D40006DE271E080E0B3CF913209F074CF83324D
:102D500069F48F89988DB0E0A0E080930001909392
:102D60000101A0930201B0930301ADCE803269F45A
:102D70008091E80082FFFCCF67E08DE291E00E9445
:102D8000B8048BEF8093E8009ECE823209F09BCE90
:102D90008F8980933401EEEFFFE7859194918B3F0B
:102DA0009C4D51F1E0E0F8E080912D0190912E01D1
:102DB000A0912F01B0913001803B9440A105B10555
:102DC000F1F48091340180FD1AC0EE3F8AE0F807EB
:102DD00089F587E797E791838083809160008093EE
:102DE0008E0488E19BE00FB6F894A895809360006C
:102DF0000FBE9093600067CEEEEFFAE0D5CF8081F2
:102E000091818737974709F05ECEA8958091600041
:102E100088618093600080918E0480936000EE3F13
:102E20002AE0F20789F08091FE0A9091FF0A9183CF
:102E3000808349CE808191818737980751F29093A2
:102E4000FF0A8093FE0AC5CF1092FF0A1092FE0A75
:102E50003ACE0E944205DC0112960D911C9101159B
:102E6000110509F4E8CED801ED91FC910190F081B3
:102E7000E02DBE016B5E7F4FC8010995811123CE05
:102E8000F80100851185EBCF181619060CF41BCE3E
:102E9000D2CEF1E0FF12BECE6FEA71E004CF71E056
:102EA0002D98259A24982C9A0000000000000E947A
:102EB000CC1925982D9A0E94CC19A89400000000E6
:102EC00000001D9B0E94B419F2F088941C9908948C
:102ED000771F30F72D98259A803021F024982C9A6E
:102EE0000C9474172C98249A0000000000000E9493
:102EF000CC1925982D9AA894000000001D9B0E94D3
:102F0000B4190E94CC19000000002D98259A872F33
:102F10009927089580E208950894881F0C949117CA
:102F2000880F11F12D98259A00000000000028F468
:102F3000000024982C9A0C94A1172C98249A0C9495
:102F4000A1170E94CC1925982D9AA8940000000082
:102F500000001D9B0E94B4191AF488270C94CA170C
:102F60000E94CC190C9490172D98259A000000000F
:102F700024982C9A0E94CC199927882725982D9A55
:102F8000A89400001D9B0E94B4193AF31C9B81E099
:102F90000E94CC19000000002D98259A089581E028
:102FA0000895CF93DF93EC01862F0E948C17811137
:102FB00008C08FA5811102C083E08FA790E080E058
:102FC00002C081E090E0DF91CF9108952D98259A7D
:102FD0002C98249A0E94CC1925982D9A0E94CC19DD
:102FE0001D9B0E94B41924982C9A0E94CC19089514
:102FF0008F93F1E0E4EF8F918F931D9B0E94B419A2
:103000002C98249A0E94CC190E948C17882331F4A2
:103010000E94E617319711F00C94FB1799270F9037
:10302000089581E008952D98259A0E94CC1924983E
:103030002C9A0E94CC1925982D9A0E94CC191D9B80
:103040000E94B4192C98249A0E94CC190E948C17C3
:10305000089581E008951D9B0E94B4192C98249A2C
:103060000E94CC190E948C17089581E008951F9347
:10307000CF93DF93EC011EA584EA112371F00E9427
:103080001318811108C082E08FA781E08EA7DF911D
:10309000CF911F91089580E0F7CF0E942B188111E6
:1030A00001C012E01FA7F1CFFF920F931F93CF93A0
:1030B000DF93EC01F62E042F122F0E943718E881BF
:1030C000F9810190F081E02D6F2DCE010995E88105
:1030D000F9810190F081E02D602FCE0109950FA5B7
:1030E0000E94E6171EA61FA680E0011107C011234B
:1030F00021F087EB92E00197F1F781E0DF91CF912A
:103100001F910F91FF900895AF92BF92CF92DF92DF
:10311000EF92FF921F93CF93DF93EC011FA6162F20
:10312000613208F010E28EA5882331F185EA0E9411
:10313000131891E089279FA5911104C0882311F0ED
:1031400082E08FA76E018CE0C80ED11CF12CE12C1F
:10315000E12FE150FF0B5F01E11690F481E0AE1426
:10316000BF0409F080E00E944F17F60181936F01C0
:10317000FFEFEF1AFF0AF0CF85EA0E942B18D9CF94
:103180001CA68FA5811110E01DA71EA60E94E617A0
:103190008DA5DF91CF911F91FF90EF90DF90CF90A1
:1031A000BF90AF900895EF92FF920F931F93CF932C
:1031B000DF93EC01162F7A010E943718E881F9811C
:1031C0000190F081E02D60E0CE0109950FA50E94ED
:1031D000E6171EA61FA6011110C087EB92E001970B
:1031E000F1F7612FCE010E948418482F50E0B701FB
:1031F000CE010E94C50491E0181390E0892FDF9161
:10320000CF911F910F91FF90EF900895AF92BF92D1
:10321000CF92DF92EF92FF920F931F93CF93DF93A2
:10322000CDB7DEB760970FB6F894DEBF0FBECDBF47
:103230008C0197EBE92E92E0F92EC7010197F1F787
:10324000D8011296ED91FC9121E043E06EEF808170
:1032500091810E945418FE0131966F01811111C0B5
:10326000D8011296ED91FC91A60166E070E0808194
:1032700091810E94D318882309F443C0C7010197A4
:10328000F1F788E05E01B9E0AB0EB11CF501282F23
:1032900011922A95E9F7D6011D928A95E9F787EBF5
:1032A000E82E82E0F82ED8011296ED91FC91A5014E
:1032B00068E070E0808191810E94D318882309F42E
:1032C00043C0C7010197F1F7D8011296ED91FC9127
:1032D000A60168E070E0808191810E94D318882364
:1032E00099F12985998129131DC02A859A8129136D
:1032F00019C09F8591111AC09889911117C0F801C2
:10330000148260960FB6F894DEBF0FBECDBFDF917A
:10331000CF911F910F91FF90EF90DF90CF90BF90D2
:10332000AF900895C7010197F1F7BDCF91E0D801A3
:1033300014969C9314971296ED91FC919481983079
:1033400000F798E09483DDCF80E0DBCF24982598C8
:103350002C9A2D9A882799271C9B08951D9B0895C8
:1033600081E0089581E00895BFE0A0EA00240E9472
:10337000C4193AF40A94D9F71197C1F728940C9418
:10338000CB19A8940C94CB19A8941D990C94C91925
:10339000289400000895089591E09A95F1F7089512
:1033A00008951F93CF93DF93EC0180E888A789A746
:1033B0008AA78BA71CA6FE01BD968CE0DF011D929B
:1033C0008A95E9F71FA21EA21AAE1BAE1CAE1DAE57
:1033D00015E0CE010E94110A61E070E080E090E00B
:1033E0000E9460031150A9F7CE01DF91CF911F9188
:1033F0000C94110ACF93DF93EC01849A8C9A229A51
:103400002A9A219A299A23982B982B9A0E94870509
:10341000CE01DF91CF910C94D119CF93DF93EC01C2
:103420003E9A469A229A2A9A219A299A23982B9868
:103430002B9A0E948705CE01DF91CF910C94D11970
:10344000E091EA04F091EB0424A135A12095309598
:10345000C90134E0969587953A95E1F741E08427D4
:103460008170992726FF826027FF846025FF88608E
:10347000E091E904F0E0EE0FFF1FE352FB4F0190F3
:10348000F081E02D8C549C4FDC018C918683089553
:10349000EF92FF920F931F93CF93DF93F82E192F84
:1034A000E62E042F81E0860F880F0E949E0383E0A2
:1034B0000E949E03CF2DD12FEC0EFD2EF11CCE15B8
:1034C000DF05B9F007FF13C0FE0184910E949E033F
:1034D000182F80E00E949E03812321968111EFCF57
:1034E000DF91CF911F910F91FF90EF900895888108
:1034F000EDCF81E0F5CFCF93DF93EC01E881F98147
:103500000280F381E02D0995EA81FB8122813381DC
:103510002817390739F0019719F481E0232B19F4A2
:1035200080E001C081E0DF91CF9108958F92AF924A
:10353000CF92DF92EF92FF920F931F93CF93DF937F
:10354000EC014091A505415007E023E060E08FE9E0
:1035500095E00E94CA0D47E060E08FE995E00E9487
:103560006A0CFE013297E830F10508F076C0E554A8
:10357000F54E0C9427332A1BC31AF21A101B1E1B7C
:10358000211B241B271B81E394E00E94AF0DC1E0A7
:10359000CF938CE3882E9BE3A92ECC24C394E12CFB
:1035A000F12C8701E39422E040E360E080E00E9498
:1035B0000E0ECF9312E0E12EF12C00E010E023E09C
:1035C00046E360E080E00E940E0E0F900F90DF91C6
:1035D000CF911F910F91FF90EF90DF90CF90AF9020
:1035E0008F90089589E294E00E94AF0DC8E3D3E084
:1035F000DD24D394E880F9800A811B81DF928F80DB
:10360000AE80CC24C3942C814D8160E080E00E9488
:103610000E0E28960F9083E0C03BD80759F7D7CFFE
:1036200082E294E0DF91CF911F910F91FF90EF9094
:10363000DF90CF90AF908F900C94AF0D8DE194E020
:10364000F1CF83E194E0EECF8DE094E0EBCF84E026
:1036500094E0E8CF86EF93E0E5CF81EF93E0E2CF0F
:103660008F929F92AF92BF92CF92DF92EF92FF9292
:103670000F931F93CF93DF93D82EC62FE82FF0E040
:10368000EE0FFF1FE055FC4FB08007E023E04181C3
:103690006B2D8FE995E00E94CA0D47E06B2D8FE9F5
:1036A00095E00E946A0CC13069F583E091E00E94C8
:1036B000AF0D81E08D15C8F0C8EED1E09924939448
:1036C000E880F9800A811B819F928F80AE80CC2494
:1036D000C3942C814D816B2D8D2D0E940E0E28964A
:1036E0000F9082E0C834D80759F7DF91CF911F912E
:1036F0000F91FF90EF90DF90CF90BF90AF909F9091
:103700008F90089581EF93E0DF91CF911F910F91FA
:10371000FF90EF90DF90CF90BF90AF909F908F90F1
:103720000C94AF0D2F923F924F925F926F927F92C7
:103730008F929F92AF92BF92CF92DF92EF92FF92C1
:103740000F931F93CF93DF9300D000D0CDB7DEB798
:10375000B82E2B011A01922E88E691E09C838B8370
:10376000D12CFB013297FA83E9836B2C712C660C08
:10377000771CC30180559C4F3C01E981FA81329747
:1037800070F08FEF8D0D823050F1F5E04F1651043F
:1037900031F4DD2021F188EF8D0D823000F1EB81D5
:1037A000FC81E080F1800281138124814581A68023
:1037B00087802114310459F0F10184A195A18095ED
:1037C00090958E219F21CC24C394892B09F4C12C80
:1037D0009F92F30160818B2D0E940E0E0F90D39467
:1037E0008B819C8108969C838B8390E1D912C5CFF5
:1037F0000F900F900F900F90DF91CF911F910F912D
:10380000FF90EF90DF90CF90BF90AF909F908F9000
:103810007F906F905F904F903F902F900895FF9210
:103820000F931F93CF93DF93182FEB01E82FF0E056
:10383000EE0FFF1FE055FC4FF08007E023E04181D1
:103840006F2D8FE995E00E94CA0D47E06F2D8FE93B
:1038500095E00E946A0CC430D105A1F188F4C13012
:10386000D10531F18AEE90E0C230D10589F081EFC7
:1038700093E0DF91CF911F910F91FF900C94AF0DCA
:10388000C530D105A9F087ED90E0C630D10579F7B4
:103890000E94AF0D1230C8F421E050E040E0BE01BC
:1038A000812FDF91CF911F910F91FF900C94921B6C
:1038B0008091C304811103C084EF90E0E9CF8CEFC5
:1038C00090E0E6CF8EED90E0E3CFDF91CF911F91B6
:1038D0000F91FF9008955F926F927F928F929F92C7
:1038E000AF92BF92CF92DF92EF92FF920F931F930E
:1038F000CF93DF93D82EEB01E82FF0E0EE0FFF1F00
:10390000E055FC4F908007E023E04181692D8FE96D
:1039100095E00E94CA0D47E0692D8FE995E00E946D
:103920006A0CC330D10509F462C0C0F483ED90E0A5
:10393000C230D105E1F081EF93E0DF91CF911F918B
:103940000F91FF90EF90DF90CF90BF90AF909F903E
:103950008F907F906F905F900C94AF0DC430D10525
:1039600009F448C085EC90E0C530D10521F70E94EC
:10397000AF0D82E0D81659F188EB682E82E0782EE0
:10398000B12C55245394C230D10549F487E08B15EE
:10399000B8F083E0F301E05AFF4F8B1508F4F30110
:1039A000E080F180028113815F928780A680CC2421
:1039B000C39424814581692D8D2D0E940E0E0F9098
:1039C000B39488E0680E711C8CE0B812DCCFDF91F4
:1039D000CF911F910F91FF90EF90DF90CF90BF900C
:1039E000AF909F908F907F906F905F9008958EEC36
:1039F00090E0BDCF8AEC90E0BACFAF92BF92CF9269
:103A0000DF92EF92FF921F93CF93DF93E3EFF4E007
:103A10001382128288EEC82E83E0D82EE12CF12C7E
:103A2000C482D582E682F78280EE93E09183808320
:103A30008FEF9FEF95878487EFE9F5E0138212827D
:103A4000128614861386158681E0868782EF93E0BE
:103A500091838083E0E9F5E0138214828AE0E5E94E
:103A6000F5E0DF01282F1D922A95E9F7E1E8F5E05E
:103A700013821482E6E8F5E0DF011D928A95E9F7EA
:103A8000EFE7F5E08EE78083118282E490E00E9408
:103A90002D3312E4FC01212F11922A95E9F72EE132
:103AA00034E0DC012D933C93CBE7D5E09983888308
:103AB00082E490E00E942D33FC0111921A95E9F7FF
:103AC00022E134E0DC012D933C939B838A8388E0E0
:103AD00090E00E942D33C5E1FC01C78327E7A22EA9
:103AE00025E0B22ED5018D939C9388E090E00E9452
:103AF0002D3315E0FC011783D50113969C938E930B
:103B0000129786E190E00E942D33FC01C58BC3E73C
:103B1000D5E09983888386E190E00E942D33DC0113
:103B200055961C939B838A83E3E4F5E0138212820B
:103B3000C482D582E682F78280E094E0918380831C
:103B4000DF91CF911F91FF90EF90DF90CF90BF90CA
:103B5000AF900895CF93DF93CDB7DEB7C856D109A4
:103B60000FB6F894DEBF0FBECDBF789484B58260E7
:103B700084BD84B5816084BD85B5826085BD85B511
:103B8000816085BD80916E00816080936E0010928F
:103B9000810080918100826080938100809181000A
:103BA000816080938100809180008160809380009B
:103BB000809191008260809391008091910081605A
:103BC000809391008091900081608093900080911B
:103BD000C10084608093C1008091C10082608093A5
:103BE000C1008091C10081608093C1008091C300B9
:103BF00081608093C3008091C00082608093C00088
:103C00008091C20081608093C20080917A008460BC
:103C100080937A0080917A00826080937A0080910C
:103C20007A00816080937A0080917A008068809326
:103C30007A001092DC04109291041092900480910A
:103C4000D70081608093D70080EA8093D80089B53F
:103C5000806189BD89B5826089BD09B400FEFDCF50
:103C600061E070E080E090E00E9460038091D80005
:103C70008F7C80618093D8008091E000807F80936A
:103C8000E0008091E1008E7E8093E1008DE08093E2
:103C9000E200559A209A56985E9A90E080E00E9441
:103CA000B632282F30E03093CD042093CC048630F8
:103CB00030F081E090E09093CD048093CC0480912B
:103CC000CC049091CD048330910509F4D4C108F05F
:103CD0003EC08130910509F480C0029709F4E4C028
:103CE0001092B0058CE38093AF051092B90084E484
:103CF0008093BC008CE08093B8001092A3051092D2
:103D0000A405E0EDF3E0E590F490E2EDF3E0D4906B
:103D1000E3EDF3E0E491E093A505E4EDF3E0E49155
:103D2000E093A605E5EDF3E0E491E093A70510E04C
:103D300000E00D1508F0D9C2F701E00FF11F649102
:103D40008FE995E00E94380C0F5F1F4FF2CF84304F
:103D5000910509F4E2C1059709F0C2CF65E070E072
:103D600080E090E00E94600381E08093290182E37B
:103D700090E090932C0180932B018EE090E00E94C4
:103D80002D333C011F921F92812CAA24A394CC2492
:103D9000C394EE24E39401E021E043E06AE674E09A
:103DA0000E94540F7092DE046092DD040F900F9019
:103DB00010E080912901181708F010C2812F0E948D
:103DC0000608E12FF0E0EE0FFF1FE352FB4F80816A
:103DD00091810E94350F1F5FECCF10929405249AB9
:103DE0002C98259A2D9A6E987698769A1092850539
:103DF000869A8E98859A8D9A87988F988F9A83E263
:103E000090E00197F1F782E08093290182E390E04E
:103E100090932C0180932B0110E0F09029011F1545
:103E2000F8F48EE090E00E942D333C0143E0410F16
:103E30001F921F92812CA12CC12CE12C00E02F2D70
:103E400061E474E00E94540FE12FF0E0EE0FFF1FD9
:103E5000E352FB4F718260821F5F0F900F90DDCFA6
:103E600010E080912901181778F4812F0E94900B9F
:103E7000E12FF0E0EE0FFF1FE352FB4F80819181B5
:103E80000E94350F1F5FEDCF80912B0190912C0187
:103E90008230910508F424CF880F991F880F991F4D
:103EA00005970197F1F71CCF849A3E9A8C9A469A0F
:103EB00080917B0590917C059093EB048093EA04BC
:103EC000DC01ED91FC910680F781E02D09958823B6
:103ED00081F081E08093C704E091EA04F091EB0463
:103EE00026A137A12730310509F05CC081E080931D
:103EF000C4048091C304882309F465C082E08093E0
:103F000029013DED632E34E0732E13E0FF24F3947A
:103F10008EE090E00E942D332C018091920466E2A5
:103F200074E0811102C063E374E08F93FF928824F0
:103F30008394A12CCC24C394E12C01E022E0412FF6
:103F4000C2010E94540FF301419251923F010F9020
:103F50000F901430B1F5F12C20E8D22EEE24EA9423
:103F600080912901F81608F07FC00F2D10E0000F96
:103F7000111F03521B4FD8018D919C91DC01ED91D3
:103F8000FC910190F081E02D0995D801ED91FC9113
:103F9000D782E086E186E286D386CF010E94350F84
:103FA000F394DECF2530310529F48093C304809348
:103FB00092049FCF84A195A18095909580FD96CF86
:103FC00098CF14E0A5CF8091C404811131C082E064
:103FD000809329018EE090E00E942D333C011F92D6
:103FE0001F92812CAA24A394CC24C394EE24E3949E
:103FF00001E022E043E06EE474E00E94540F70920E
:10400000DE046092DD048EE090E00E942D333C01DE
:104010001F921F9222E044E06EE474E00E94540F6D
:104020007092E0046092DF040F900F900F900F9059
:10403000F12C80912901F816B8F40F2D10E0000F33
:10404000111F03521B4FF80180819181DC01ED911A
:10405000FC910190F081E02D0995F801808191811A
:104060000E94350FF394E5CF84E690E090932C0105
:1040700080932B0135CE65E070E080E090E00E94F7
:10408000600382E08093290182E390E090932C0109
:1040900080932B018EE090E00E942D333C011F9213
:1040A0001F92812CAA24A394CC24C394EE24E394DD
:1040B00001E022E043E069E574E00E94540F709251
:1040C000DE046092DD048EE090E00E942D333C011E
:1040D0001F921F9222E044E069E574E00E94540FB1
:1040E0007092E0046092DF040F900F900F900F9099
:1040F00010E080912901181708F0E2C0812F0E947A
:104100007408E12FF0E0EE0FFF1FE352FB4F8081B8
:1041100091810E94350F1F5FECCF65E070E080E079
:1041200090E00E94600382E08093290184E690E0A1
:1041300090932C0180932B018EE090E00E942D3310
:104140003C011F921F92812CAA24A394CC24C394D7
:10415000EE24E39401E022E043E062E674E00E9492
:10416000540F7092DE046092DD048EE090E00E94B5
:104170002D333C011F921F9222E044E062E674E07E
:104180000E94540F7092E0046092DF040F900F9031
:104190000F900F9010E000912901101780F013E7A5
:1041A000E12E15E0F12E10E0011709F489C0D701C6
:1041B0008D919D917D010E94D4081F5FF5CF812FC5
:1041C0000E947408E12FF0E0EE0FFF1FE352FB4F57
:1041D000808191810E94350F1F5FDDCF10926F05A6
:1041E0001092700510927205109271050E94A61926
:1041F00080E290E00E942D338C016C01B4E0CB0E84
:10420000D11C83E495E0F80195838483178216829C
:1042100086E08087D382C28284E591E091838083A7
:104220001093A3040093A2048BE090E00E942D332E
:10423000FC01D382C28214828CE591E09183808359
:104240007F0125E0E20EF11C58013EE1A30EB11CF6
:10425000F683E583B086A78212861186D8015F9621
:10426000FC92EE925E97F0939F04E0939E048AE0A6
:1042700090E00E942D33FC01D382C28284E691E05B
:1042800091838083CF010496F583E483B782A6826D
:1042900011861086E114F104D9F4D8015F969C933D
:1042A0008E935E97F0939D04E0939C04D80114963E
:1042B000ED91FC9114A615A617A616A60E94A619A4
:1042C00062E370E080E090E00E94600309CD790134
:1042D000D70114962D913C91159721153105B9F709
:1042E00015969C938E931497DDCF8FE995E00E94ED
:1042F000FF0D61E88FE995E00E94380C61E08FE9DD
:1043000095E00E94380CE5EEF1E0F093AB05E09308
:10431000AA058491E6EEF1E0E491F82F319709F0D7
:1043200049C01092A8058FE995E00E94FF0D11E0A9
:104330001093AD056EE18FE995E00E944C0C82E090
:104340008093AD058EED91E00E94AF0D1093AD0509
:104350000E94D60EFE0131961F010E943B03E090A1
:104360002B01F0902C010091CE041091CF042091EC
:10437000D0043091D104601B710B820B930B870129
:1043800030E020E0601771078207930708F4A5C4A6
:104390008091CC049091CD048330910509F48AC7B3
:1043A00068F48130910509F4C9C0029709F4C7C4C3
:1043B000512C7FC481E08093A805B5CF843091054E
:1043C00011F40C94C62B059799F780911B01882353
:1043D00031F010921B0190E080E00E94961A5090FC
:1043E000A4040091A2041091A30451100C94572F1F
:1043F000D8011296ED91FC91E080F18020E045E536
:1044000060EFC7010E945418882311F40C94442FC4
:104410006AE070E080E090E00E94600320E040E00D
:104420006BEFC7010E945418882311F40C94442F99
:1044300064E170E080E090E00E946003F801C280D7
:10444000D380D601ED90FC90C7010E943718D701A8
:10445000ED91FC910190F081E02D6AEFC701099583
:10446000F701B7A40E94E617D7019E961C929E976B
:104470009F961C92BB2011F40C94E22E90E080E0F9
:10448000F60193838283C8010E947B1AF82E882349
:1044900011F40C944A2FD8011296ED91FC913596A7
:1044A00085E1DF011D928A95E9F7D8011296ED9119
:1044B000FC91139786E08483ED91FC910190F0814B
:1044C000E02DC8010995882311F40C944A2FF801B6
:1044D000068D178D0115110511F40C94532FD80179
:1044E000CD90DC90C6010E947B1A882311F40C94B5
:1044F0004E2FD601ED91FC910190F081E02DC60187
:104500000995F82E882311F40C944E2F81E08093A6
:10451000A40480E00E940608E091A204F091A304A4
:104520000280F381E02D828193810E94961A82E3BA
:1045300090E090932C0180932B01BBC38CE0D101C0
:104540001D928A95E9F780912A01882381F01092C3
:104550002A0180912901833050F045E064E28FE91F
:1045600095E00E946A0C87EE93E00E94AF0D809167
:10457000950580939A058091960590919705909363
:104580009C0580939B058091980590919905909347
:104590009E0580939D05A0919305109293052C9AFA
:1045A0008BE290E00197F1F72C9883E190E001977E
:1045B000F1F790E080E030E020E043E150E06CB1C2
:1045C00066FB662760F96F966FAF6F97A0961FAE78
:1045D000A097A0966EAD7FADA097082E02C0660F83
:1045E000771F0A94E2F7262B372B2D98FA01319783
:1045F000F1F72D9AFA013197F1F701968031910583
:10460000F1F6832F82958F7090E18D3009F091E063
:1046100070E060E050E040E003E110E0ECB1E6FB68
:10462000EE27E0F9A196EFAFA197A2961FAEA29751
:10463000A296EEADFFADA297062E02C0EE0FFF1FB1
:104640000A94E2F74E2B5F2B2D98F8013197F1F782
:104650002D9AF8013197F1F76F5F7F4F6917F0F2EC
:1046600020953095409550958F3021F44E3FBFEF07
:104670005B07F1F19091930561E0690F60939305F9
:1046800061E070E0911102C070E060E0811113C040
:10469000E32FFF27EF70FF273F9769F48AE0869F9B
:1046A000F001879FF00D1124E057FA4F8FE08583CA
:1046B0005187408713C0982F909592FF42C18AE09E
:1046C000869FF001879FF00D1124E057FA4F84E098
:1046D00085839370892F90E0918780878AE0869FF9
:1046E000F001879FF00D1124E057FA4F378326839E
:1046F000809193058A17B8F44AE09FEF21E030E0FB
:10470000811102C030E020E0429FF001439FF00D94
:104710001124E057FA4F958317821682118610866E
:104720008F5FA813EBCF8091860580938B058091D6
:1047300087059091880590938D0580938C058091D5
:10474000890590918A0590938F0580938E055091ED
:104750008405109284058E9A8BE290E00197F1F720
:104760008E9883E190E00197F1F770E060E090E0CF
:1047700080E0E3E1F0E02FB1022E000C330B2227A2
:10478000330F221F3327062E02C0220F331F0A9435
:10479000E2F7822B932B8D98DF011197F1F78D9A19
:1047A000DF011197F1F76F5F7F4F6031710519F7E6
:1047B000492F42954F7010E14D3009F011E070E043
:1047C00060E030E020E0A3E1B0E0EFB10E2E000C9D
:1047D000FF0BEE27FF0FEE1FFF27062E02C0EE0F86
:1047E000FF1F0A94E2F72E2B3F2B8D98FD01319786
:1047F000F1F78D9AFD013197F1F76F5F7F4F6117E8
:1048000020F3BC0160957095209530954F3021F4D0
:104810002E3FEFEF3E0781F18091840591E0980FE4
:1048200090938405E1E0F0E0811102C0F0E0E0E067
:10483000411192C0872F99278F7099270F9709F000
:104840008BC08AE08E9FD0018F9FB00D1124AF578F
:10485000BA4F8FE015968C93159719963C932E932B
:1048600018972AE02E9FC0012F9F900D1124FC0164
:10487000EF57FA4F77836683F09184056596FFAF13
:104880006597F517C0F48F2F4AE09FEF21E030E0E5
:10489000811102C030E020E0429FF001439FF00D03
:1048A0001124EF57FA4F95831782168211861086CE
:1048B0008F5F5813EBCF9090930565962FAD65975A
:1048C000290D63962FAF63974DED54E06A965FAF65
:1048D0004EAF6A97D12C512C8091290163965FAD20
:1048E00063975D1509F491C1D81609F48EC1BB24F4
:1048F000B394D91408F4B12C21E030E0D91408F0B5
:1049000045C0D11002C030E020E06AE0629FA00103
:10491000639F500D1124DA01AB56BA4F3D0182302E
:1049200009F049C0992009F446C0C3010E94A40BB4
:10493000EB2DF0E0EE0FFF1FE20DF31D918380835E
:104940003AC09AE0969FF001979FF00D1124E0572E
:10495000FA4F9FE08927ABCE942F90958AE08E9FE7
:10496000D0018F9FB00D1124AF57BA4F92FF08C0EE
:1049700084E015968C9315979370292F30E06DCFB6
:104980008FE0482715964C93159767CF9D1002C06E
:1049900030E020E0BAE0B29FA001B39F500D112497
:1049A000FA01EA57FA4F3F01823029F46596FFADCC
:1049B0006597F111BACFD3018C9115969C911597FB
:1049C000891323C011964D915C91129716962D91E3
:1049D0003C9117974217530759F413964D915C91E8
:1049E000149718962D913C914217530709F464C00F
:1049F000811119C0F301838194810196A1F4D3013F
:104A000018968D919C91019671F08D2D0E94900BBE
:104A100080912901823039F4C3010E94A40BBC01AA
:104A20008B2D0E946B1CC3010E94A40B2C01F3016F
:104A300081819281FC01E095F095A4E0F695E795DF
:104A4000AA95E1F71E2F1F709C0121703327AC013E
:104A50005695479570E060E04170552766277727A7
:104A6000F2E04F165104A1F5232B09F0426082FDBC
:104A7000516083FD52606A96EEADFFAD6A97A081EA
:104A8000B18113964C93139714965C9314971596D3
:104A90006C931597E12FF0E0EC54FC4F8081169653
:104AA0008C931697CD010E94350F80912901823099
:104AB00009F44EC055245394D3946A964EAD5FAD1D
:104AC0006A974E5F5F4F6A965FAF4EAF6A9704CFAB
:104AD000232B09F0426090FD446091FD486092FDF7
:104AE000406193FD406224E04216510421F5D30158
:104AF00013962D913C9134FD406435FD406820FDB6
:104B0000546021FD586022FD506123FD506224FD58
:104B1000506425FD506826FD616027FD626030FD10
:104B2000646031FD686032FD606133FD606237FFB3
:104B30009ECF60649CCFB5E04B16510409F097CF2F
:104B4000F301238120FD406421FF91CF40688FCF86
:104B500028EB32E068963FAF2EAF689761961FAEA4
:104B600061978B2D90E0880F991FAC0140555C4FE9
:104B70006E965FAF4EAF6E9752E04516510409F046
:104B80003FC061966FAD6197683028F56430C0F51D
:104B90006896EEADFFAD6897E05AFF4FE080F18078
:104BA00002811381D30111968D919C918E219F21B9
:104BB000CC24C394892B09F4C12C1F928780A68032
:104BC000248145816E96EEADFFAD6E9760818B2D91
:104BD0000E940E0E0F906196FFAD6197FF5F619688
:104BE000FFAF619768962EAD3FAD6897285F3F4F46
:104BF00068963FAF2EAF6897FC3009F0BDCF5ACF13
:104C00006896EEADFFAD6897C9CF09811A818230F1
:104C100079F480911D0190911E018017910741F058
:104C20000115110529F470E060E080E00E946B1C22
:104C300010931E0100931D010B811C81809129019D
:104C4000823079F480911F019091200180179107A3
:104C500041F00115110529F470E060E081E00E9447
:104C60006B1C1093200100931F018091CB0463966D
:104C70005FAD63975817C0F4152F8091CB041817B8
:104C800098F480912901181779F0812F0E94900BD8
:104C9000E12FF0E0EE0FFF1FE352FB4F8081918187
:104CA0000E94350F1F5FE9CF63966FAD63976093E6
:104CB000CB040E943B036093CE047093CF04809397
:104CC000D0049093D104552041F0809116018111B8
:104CD0000C944C3281E00E94210F809116018823B0
:104CE000B1F00E94920300919704109198042091D2
:104CF000990430919A04601B710B820B930B603EF8
:104D000073498440910518F080E00E94210F4E996C
:104D10000EC06CE271E080E090E00E946003809140
:104D2000160181110C94583281E00E94210F80E01D
:104D300090E0892B09F411CB0E9400000ECB109259
:104D4000E9048091C90481115FC08091CA04811176
:104D50005BC08091C70481110DC080917B0590914B
:104D60007C05DC01ED91FC910680F781E02D099531
:104D70008093C7048093C9048091C80481110DC039
:104D800080917D0590917E05DC01ED91FC9106807E
:104D9000F781E02D09958093C8048093CA0481E0CF
:104DA0000E94210F07E027E04FE760E08FE995E0E0
:104DB0000E94CA0D67E08FE995E00E94400C60E018
:104DC0008FE995E00E944C0C8091C90481110BC0C1
:104DD0008091CA04811103C081EF93E002C086ED87
:104DE00093E00E94AF0D62E48FE995E00E944C0CC5
:104DF0009091C9048091CA04992361F1811104C082
:104E000086ED93E00E94AF0D4BE7A42E45E0B42E53
:104E100055ECE52E54E0F52E69EC862E64E0962ED6
:104E200010E000E077247394F501819191915F0186
:104E30009093EB048093EA04D7011D927D01F40165
:104E400021914F0121110BC00130110541F101E009
:104E500010E0EACF8111D2CF81EF93E0D3CF980158
:104E600029533B4F6901D9012C91211139C1DC0132
:104E7000ED91FC910680F781E02D0995882359F08A
:104E8000F6017082E091EA04F091EB0466A177A14B
:104E9000802F0E940F1C8091C4048823A9F2912CBA
:104EA000512C30E8432E80912901981608F001CF4B
:104EB000892D90E0FC01E953FB4F2081222309F466
:104EC00008C1FC01EB53FB4FF080FF2009F401C146
:104ED000D090E904880F991FFC01E558FA4F019022
:104EE000F081E02DF093EB04E093EA04B090C3046A
:104EF000BB2009F401C1ED2DF0E06496FFAFEEAFE9
:104F00006497E45FFE4F8081882331F0108265E072
:104F100070E08D2D0E940F1CA091EA04B091EB046B
:104F20006624639492962D913C91939794968D91DB
:104F30009C9195972817390709F4612C98967C90D5
:104F40009897D9968C91D997812C882319F0D5966A
:104F50008C90D5978094A12C882319F0D396AC908F
:104F6000D397A094C12C882319F0D496CC90D497D1
:104F7000C0940091E90410E0F801EE0FFF1FE35226
:104F8000FB4FE080F180F70177828086A186C286A0
:104F900080919204882329F0E091DD04F091DE04F1
:104FA000738694962D913C912095309535FB8827FA
:104FB00080F934FD826033FD846023FD8860D70171
:104FC00013968C93139714961C92149715961C9213
:104FD0000E94201A9801265F3E4FF9014081C801C6
:104FE000885F9E4FB8016A5F7E4FF801EC5FFE4F0D
:104FF00074120CC0DC014C91841208C0DB014C918E
:10500000A41204C04081C41201C0B62CD9017C9204
:10501000DC018C92DB01AC92C082BB2009F458C049
:10502000C7010E94350FB1E0BD1508F451C0E8E694
:105030006E2EE1E07E2EEBEF6196EFAF6197649606
:105040008EAD9FAD6497880F991F9C0120553C4FF2
:1050500064963FAF2EAF6497D3015896ED90FD90C4
:105060000D911C915B975C962C915C975D964C9191
:105070005D975E96AC905E975F968C906196BFADA3
:105080006197B230C8F0E091EA04F091EB0484A19A
:1050900095A1809590958E219F21CC24C394892B36
:1050A00009F4C12C1F926496EEADFFAD6497608148
:1050B0008D2D0E940E0E0F90F8E06F0E711C619600
:1050C0002FAD61972F5F61962FAF6197283021F642
:1050D0005B288091E9048F5F8093E9049394E3CE89
:1050E0000E94110AF701319780838111D4CED60135
:1050F0001C9270E060E0CCCE8091C4048111E9CFB5
:10510000EE24E39422A133A184A195A128173907A5
:1051100009F4E12C06A117A1AD2CB12CAA0CBB1CE3
:10512000F501ED56FB4F808191810817190721F099
:10513000B8018D2D0E940F1CF101EA0DFB1D11839A
:105140000083C8010197059708F0B2C00E94201A99
:105150004091EA045091EB0462965FAF4EAF6297C4
:10516000DA0194968D919C9180959095292F221F1C
:105170002227221F30E096FD226095FD246094FDD9
:10518000286092FD206193FD206290FD206491FDD6
:10519000206880FD316083FD326081FD346082FDD6
:1051A00038606296EEADFFAD629780A4C1A4809195
:1051B000E90490E0FC01EE0FFF1FE352FB4F01906A
:1051C000F081E02D6296AEADBFAD62979C964C919A
:1051D000442309F461C00530110509F45DC08782DC
:1051E000C086BC016C5E7E4FDB017C90AC014E5EE4
:1051F0005E4F781058C0DA017C907C1054C0DB01FF
:105200008C92DA01CC926296AEADBFAD62979A965F
:105210005C919A979B964C919B979C966C91662378
:1052200021F00530110509F040C04186428640E872
:1052300050E8BC01605F7E4F3B01DB016C91825FF7
:105240009E4F651305C0DC016C91641301C0FE2CF8
:10525000D3015C93DC014C93238334831582FF20BC
:1052600079F0CF010E94350FB1E0BD1548F04091B3
:10527000EA045091EB0420E0B8018D2D0E94921BAE
:10528000D501AD56BB4FF101EA0DFB1D8081918127
:105290008D939C935F281DCF4782408640E8C42EA3
:1052A00050E8852E9ECFEF2CAACF51874287C1CFE1
:1052B000FE2CE6CF8091C104811167C08091C204A9
:1052C000811163C06701CC0CDD1CCC0CDD1CE5E05A
:1052D000CE1AD10807E715E091ECA92E94E0B92E7B
:1052E0002BE7822E25E0922ED8018D919D918D0184
:1052F0000E949308F50181935F018091C10481119F
:1053000004C08091C204882339F0F2E0EF16F10462
:1053100018F0C6010197F1F78016910629F781E090
:105320000E94210F07E027E04FE760E08FE995E05A
:105330000E94CA0D67E08FE995E00E94400C60E092
:105340008FE995E00E944C0C8091C10481110BC043
:105350008091C204811103C081EF93E002C086ED09
:1053600093E00E94AF0D62E48FE995E00E944C0C3F
:105370009091C1048091C204992309F479C08111EC
:1053800004C086ED93E00E94AF0D2F961FAE2F97BD
:1053900060961FAE6097712CB0E5AB2EB3ECBB2EC0
:1053A00017E0612E02E3802E912C8091290178165E
:1053B00008F071C0072D10E0F801EE0FFF1FE9584B
:1053C000FA4FC080D180D092C004C092BF04F801CF
:1053D000EF53FB4F8081882309F448C0C6010E9427
:1053E0009308980123543B4F7901882309F445C061
:1053F00087E0F601DE01A95BBF4F01900D928A950F
:10540000E1F787E0FE01E95BFF4FDE01A05CBF4FE3
:1054100001900D928A95E1F7609EC001619E900D0A
:105420001124820D931DFE01E05CFF4FDC01262D4F
:1054300001900D922A95E1F7DC018D919C9111E08C
:10544000009709F410E0F7012081211109C0892B90
:1054500039F0872D0E94740861E0872D0E94740E38
:10546000D7011C9390922C0180922B0173949DCFB5
:10547000811185CF81EF93E086CF872D0E9474083C
:1054800060E0872D0E94740EF7011082B0922C010B
:10549000A0922B01EBCF912CE7E0DE2E8091290129
:1054A000981608F06AC1692C712CF301E354FB4F84
:1054B0008081882309F45FC1D69CF001D79CF00D50
:1054C0001124E20DF31D2381822F82958F7090E0CD
:1054D000982F88279295907F2F7030E0322F2227C7
:1054E000820F931F2481422F42954F7030E1439FDA
:1054F000A0011124840F951F2F70AC01420F511D84
:1055000062965FAF4EAF6297B580568163965FAF8C
:105510006397B30165547B4F68967FAF6EAF689712
:10552000DB018C91B81208C0F301E754FB4F808176
:10553000851711F40C949E32EEE4F0E0EC0FFD1FA1
:10554000E60DF71DB1E0B083D69CF001D79CF00DBD
:105550001124E20DF31D838122E030E087FD02C0BB
:1055600030E020E0D69CF001D79CF00D1124E20D34
:10557000F31D838186FD2160D69CF001D79CF00D40
:105580001124E20DF31D838185FD3160D69CF0016D
:10559000D79CF00D1124E20DF31D838184FD326050
:1055A000D69CF001D79CF00D1124E20DF31D8481EF
:1055B00085FD2061D69CF001D79CF00D1124E20DF1
:1055C000F31D848184FD2062D69CF001D79CF00DF0
:1055D0001124E20DF31D848183FD2064D69CF0012B
:1055E000D79CF00D1124E20DF31D848182FD24600F
:1055F000D69CF001D79CF00D1124E20DF31D84819F
:1056000081FD2860D69CF001D79CF00D1124E20D9D
:10561000F31D848180FD2068F301EE0FFF1F669665
:10562000FFAFEEAF6697E352FB4FA081B1811396B7
:105630002C93139714963C93149715961C921597D8
:10564000D69CF001D79CF00D1124E20DF31D83814F
:1056500083FBEE27E0F921E02E2782FF2260D69C13
:10566000C001D79C900D1124820D931DFC018381F4
:1056700081FF2460D69CC001D79C900D1124820D1F
:10568000931DFC01838180FF2860E22FF0E0EC5441
:10569000FC4F808116968C93169780E88B0D179699
:1056A0008C93179763968FAD639780588095189663
:1056B0008C931897CD010E94350F48E4442E42E0A8
:1056C000542E62964EAD5FAD62979A0150E040E075
:1056D0006C962CAF3DAF4EAF5FAF6C976696EEAD5C
:1056E000FFAD6697E055FC4F50816D965FAF6D97AB
:1056F000D201ED90FD900D911C916C968CAD9DADFD
:10570000AEADBFAD6C978E219F21A023B123CC24D9
:10571000C394892B8A2B8B2B09F4C12C1F92F20185
:105720008780A680248145816D966FAD6D97892D08
:105730000E940E0EF8E04F0E511C0F9028EB32E045
:1057400024153505A9F66696EEADFFAD6697EB54C8
:10575000FB4F62964EAD5FAD629751834083689672
:10576000AEADBFAD6897BC92F301E754FB4F6396B3
:10577000BFAD6397B083939491CE2F965FAC2F9774
:10578000511097CA60965FAC609793CA80911C01D4
:10579000882331F010921C0160E080E00E94301BF1
:1057A0008091B304811166C08091B404811162C0FC
:1057B0008091B104811108C08091730590917405A6
:1057C0000E9410098093B1048093B3048091B204C5
:1057D000811108C080917505909176050E9410098D
:1057E0008093B2048093B40481E00E94210F07E00B
:1057F00027E04FE760E08FE995E00E94CA0D67E07F
:105800008FE995E00E94400C60E08FE995E00E94EE
:105810004C0C8091B30481110BC08091B4048111B0
:1058200003C081EF93E002C086ED93E00E94AF0DCC
:1058300062E48FE995E00E944C0C9091B304809152
:10584000B404992309F478C0811104C086ED93E073
:105850000E94AF0D8091B304882321F061E080E0C5
:105860000E94301B8091B404882321F061E081E024
:105870000E94301B28961FAE289729961FAE2997A5
:10588000512C90E5692E93EC792E25E1422E34E6D9
:10589000832E912C80912901581608F067C0E52CC1
:1058A000F12CF701ED54FB4F8081882309F442C0AD
:1058B0008701000F111FF801ED58FA4FA080B18049
:1058C000C5010E941009F701EF54FB4F6F018823B7
:1058D000C1F185E1F501DE019B9601900D928A955B
:1058E000E1F74E9CC0014F9C900D1124820D931D39
:1058F000FE01BB96DC01242D01900D922A95E1F763
:10590000DC018D919C9111E0009709F410E0F60103
:105910002081211109C0892B39F0852D0E9474083E
:1059200061E0852D0E94301BD6011C9390922C01C2
:1059300080922B015394AECF811186CF81EF93E0FB
:1059400087CF852D0E947408F801E352FB4F8081B8
:1059500091810E94350F60E0852D0E94301BF60179
:10596000108270922C0160922B01E4CF912CB5E152
:10597000DB2E11EEB12E80912901981608F017C286
:10598000492C512CF201EF54FB4F8081882309F4FC
:10599000EEC1D49CF001D59CF00D1124E20DF31D55
:1059A000958586859C0162963FAF2EAF62974785AD
:1059B000B20165557B4F6E967FAF6EAF6E97DB0180
:1059C0008C91082E000C990B9201220F331F48175F
:1059D000190611F55089D201A755BB4F8C91082E9D
:1059E000000C990B58171906B9F45189D201A95521
:1059F000BB4F8C91082E000C990B5817190661F4B7
:105A00005289F201EB55FB4F8081082E000C990B57
:105A10005817190609F49CC5E7E4F0E0EC0FFD1FE8
:105A2000E40DF51DB1E0B083D49CF001D59CF00DE0
:105A30001124E20DF31D858580FF9BC184E090E079
:105A4000D49CF001D59CF00D1124E20DF31D558579
:105A500051FD8260D49CF001D59CF00D1124E20D23
:105A6000F31D558552FD8860D49CF001D59CF00D46
:105A70001124E20DF31D558553FD8160D49CF00186
:105A8000D59CF00D1124E20DF31D568554FD916057
:105A9000D49CF001D59CF00D1124E20DF31D558529
:105AA00054FD9260D49CF001D59CF00D1124E20DC0
:105AB000F31D568556FD8061D49CF001D59CF00DF8
:105AC0001124E20DF31D568555FD806223523B4F94
:105AD000F90100811181D80113968C9313971496C4
