:100000000C946E020C9496020C9496020C94960238
:100010000C9496020C9496020C9496020C94960200
:100020000C9496020C9496020C9413270C9482273D
:100030000C9496020C9496020C9496020C949602E0
:100040000C9496020C9496020C9496020C949602D0
:100050000C9496020C9496020C9496020C94C92669
:100060000C9496020C9496020C9496020C949602B0
:100070000C9496020C9496020C9496020C949602A0
:100080000C9496020C9496020C9496020C94960290
:100090000C9496020C9496020C9496020C94960280
:1000A0000C9496020C9496020C949602AED580A8FD
:1000B0003FD300408D142002A1C8DA12817FD9F10C
:1000C000DB40A4A6AF5341542D574845454C00533F
:1000D00041542D33440053415455524E0047454E30
:1000E000455349532D360047454E455349532D330B
:1000F0000056424F59004E545400534E4553004E43
:100100004553004A4F47434F4E00464C49474854D9
:10011000535449434B004455414C53484F434B00C3
:100120004449474954414C004E4547434F4E002BEC
:100130004A4F47002B47554E00505358004E4553E9
:10014000202B20534E45530047454E4553495320DD
:100150002B2053415455524E0052414E47452000EA
:10016000535020535445502000464F5243452000E1
:1001700046414B45205350494E4E45520057484545
:10018000454C00504144444C45005350494E4E4567
:1001900052005920005820004F55545055542044C7
:1001A000495341424C454400582000434F4E464974
:1001B000470047554E434F4E004E2F41004E4F4E85
:1001C00045004D554C54492D544150005245424F25
:1001D0004F54494E472E2E2E004D554C54492D5408
:1001E00041500000030C0F30333C3FC0C3CCCFF074
:1001F000F3FCFF0000000200090F000003040100EF
:100200000C000000000000000000000000000000E2
:100210000000080B000202020000090400000102B5
:10022000020000052400100105240101010424023C
:10023000060524060001070581031000400904019A
:1002400000020A00000007050202400000070583C3
:10025000024000000403090412010002EF02014001
:100260004123368000010102030141726475696E09
:100270006F204C4C430041726475696E6F204C6571
:100280006F6E6172646F005245464C455800000025
:1002900005072061000000000000005F00006070A2
:1002A000787060605048506003070F07030305092A
:1002B0000503081C3E7F7F081C22417F7F7F3E1C78
:1002C000087F41221C08082A1C2A0808083E080842
:1002D0000050300000080808080800606000002096
:1002E000100804023E5149453E00427F40004261F1
:1002F0005149462141454B311814127F102745457D
:1003000045393C4A49493001710905033649494993
:1003100036064949291E00363600003C7E7E7E3C6A
:100320003C4242423C1414141414F0F0F0F0F0F08B
:10033000909090F0324979413E7E1111117E7F49B3
:100340004949363E414141227F4141221C7F494972
:1003500049417F090901013E414151327F080808A6
:100360007F00417F41002040413F017F081422412E
:100370007F404040407F0204027F7F0408107F3EA0
:100380004141413E7F090909063E4151215E7F09F5
:10039000192946464949493101017F01013F404041
:1003A000403F1F2040201F7F2018207F6314081427
:1003B000630304780403615149454300007F4141D0
:1003C000020408102041417F0000383C1E0F074006
:1003D00040404040382412090720545454787F4844
:1003E0004444383844444420384444487F385454C2
:1003F0005418087E090102081454543C7F08040470
:100400007800447D40002040443D00007F10284497
:1004100000417F40007C041804787C08040478388C
:10042000444444387C14141408081414187C7C08C0
:100430000404084854545420043F4440203C4040A5
:10044000207C1C2040201C3C4030403C442810288C
:10045000440C5050503C4464544C44E0E0E0E0E034
:1004600000007F0000E0A0A0A0E008082A1C080807
:100470001C2A08080006090906AC00198040000083
:10048000000000250028002B002E00310000000095
:1004900000240027002A002D003000040404040476
:1004A0000304050202020204030202020206060617
:1004B00006060604040202020404040802011040B5
:1004C00080401020408040800802040180402010BD
:1004D00002011080102040402000842E11241FBEF5
:1004E000CFEFDAE0DEBFCDBF13E0A0E0B1E0E2EB9A
:1004F000FCE602C005900D92A03EB107D9F725E0B9
:10050000A0EEB3E001C01D92AF3BB207E1F712E0ED
:10051000CEE6D2E004C02197FE010E940335CD361D
:10052000D107C9F70E94F22E0C9457360C940000A4
:10053000FC01A385B485109771F474876387858562
:100540009685DB0114962D913C91820F931F96871F
:1005500085870895DC018D919C9111970097D1F7C3
:100560006D937C93ECCF90E0FC01E654FB4F24911B
:1005700085569B4FFC018491882399F090E0880F69
:10058000991FFC01E357FB4FA591B491FC01E15881
:10059000FB4F859194918FB7F894EC91E22BEC93FB
:1005A0008FBF0895FC01611109C081819281807F14
:1005B000480F592F511D528341830895613051F4E2
:1005C000818192818F7020E1429FA0011124480F08
:1005D000591FF1CF623039F481819281907F50E0D0
:1005E000542F4427F4CF633049F4818192819F7066
:1005F00050E0542F44275295507FE9CF643011F4D6
:1006000043830895653011F444830895663011F4EE
:1006100045830895673009F446830895FC0180916D
:100620006504882311F13FB7F89482E08093E900D4
:100630002091F200822F90E01816190614F481E040
:1006400090E0882339F0289844E640936404409170
:10065000F1004083222339F02091F200211103C0E0
:100660002BE62093E8003FBF08958FEF9FEF08959A
:10067000CF93DF931F92CDB7DEB76983DC01ED9195
:10068000FC910280F381E02D41E050E0BE016F5FFC
:100690007F4F09950F90DF91CF91089583E080936C
:1006A000E9008091F200882319F08AE38093E80042
:1006B0000895CF93DF931F92CDB7DEB7FC018485F9
:1006C000958597FD08C02FEF3FEF358724870F9062
:1006D000DF91CF910895CE0101960E940E030197FC
:1006E00019F4898190E0F3CF8FEF9FEFF0CF0F9354
:1006F0001F93CF93DF931F92CDB7DEB78C01FC0120
:100700008485958597FF0BC0CE0101960E940E034C
:10071000019771F4898190E0F80195878487F80149
:10072000848595850F90DF91CF911F910F9108954A
:100730008FEF9FEFF1CFFC018485958597FD0BC06E
:100740009FB7F89482E08093E9008091F2009FBF08
:1007500090E0019608959FB7F89482E08093E900B5
:100760008091F2009FBF90E008953FB7F894809188
:10077000600490916104A0916204B091630426B575
:10078000A89B05C02F3F19F00196A11DB11D3FBFC9
:10079000BA2FA92F982F8827BC01CD01620F711D98
:1007A000811D911D42E0660F771F881F991F4A9592
:1007B000D1F708958F929F92AF92BF92CF92DF921E
:1007C000EF92FF924B015C010E94B5036B017C012B
:1007D0000E94B5036C197D098E099F09683E73401C
:1007E00081059105A8F321E0821A9108A108B108BA
:1007F00088EEC80E83E0D81EE11CF11C8114910420
:10080000A104B10429F7FF90EF90DF90CF90BF9043
:10081000AF909F908F9008952FB7F89460915C04EB
:1008200070915D0480915E0490915F042FBF0895E4
:10083000FC018FE08583168217820895409135046C
:1008400050913604209133043091340442175307F9
:10085000B4F49091E8009570E1F39091E80092FD76
:1008600019C08093F100809135049091360401966F
:100870008F739927892B19F48EEF8093E80080916C
:100880003504909136040196909336048093350494
:1008900081E0089580E00895EF92FF920F931F93F7
:1008A000CF93DF93F82E192FE62E042F81E0860FC9
:1008B000880F0E941E0483E00E941E04CF2DD12FBA
:1008C000EC0EFD2EF11CCE15DF05B9F007FF13C0AD
:1008D000FE0184910E941E04182F80E00E941E04D5
:1008E000812321968111EFCFDF91CF911F910F913D
:1008F000FF90EF9008958881EDCF81E0F5CFDF92F2
:10090000EF92FF920F931F93CF93DF93D82E8A011C
:10091000EB017B01E40EF51ECE15DF0559F0D7FE85
:1009200012C0FE0184910E941E0421968111F4CF11
:100930000FEF1FEFC801DF91CF911F910F91FF9033
:10094000EF90DF9008958881EECF2FB7F8948770ED
:100950008093E9009091E800892F807295FF04C090
:100960009091F20080E4891B2FBF089583E00E94DC
:10097000A50490E008957F928F929F92AF92BF92CC
:10098000CF92DF92EF92FF920F931F93CF93DF935B
:10099000C82E8B017A0180916504811110C08FEF00
:1009A0009FEFDF91CF911F910F91FF90EF90DF901C
:1009B000CF90BF90AF909F908F907F90089580913F
:1009C000390480FF05C08091E00082608093E000E0
:1009D000CE2DDF2DD12C8AEFB82E8C2D8770982E3E
:1009E0008C2D8072882E8C2D8074782E9AE3A92EFF
:1009F000209719F4DD2009F452C08C2D0E94A50423
:100A000081110AC0BA94BB2051F261E070E080E02D
:100A100090E00E94DA03ECCF8C171D0611F00CF069
:100A20008C2F9FB7F8949092E9002091E80025FD63
:100A300002C09FBFDDCF282F30E0C21BD30B882020
:100A400029F08150A0F01092F100FBCFF801C7FC13
:100A50000AC0815050F041914093F100FACF449187
:100A60004093F10031968150D0F7020F131FDD2023
:100A700021F0A092E800D12CDCCF8091E80085FD28
:100A800007C0A092E800DD24D394209791F2F3CF21
:100A9000209779F6772069F2A092E800CACF5D9896
:100AA00084E680933804C7017CCFCF93DF93EC01B9
:100AB00080913801882331F083E00E94BB0418162E
:100AC000190634F081E090E09B838A8380E090E017
:100AD000DF91CF910895615030F02091F100FC0139
:100AE00020830196F8CF289884E6809364040895C3
:100AF000AF92BF92CF92DF92EF92FF920F931F932C
:100B0000CF93DF936C017B018B01040F151FEB0169
:100B10005E01AE18BF08C017D10759F06991D60120
:100B2000ED91FC910190F081E02DC6010995892B92
:100B300079F7C501DF91CF911F910F91FF90EF9051
:100B4000DF90CF90BF90AF90089580912B048111DA
:100B50000DC082E08093270484E0809328041092E3
:100B60002A041092290481E080932B0487E294E008
:100B700008950F931F93CF93DF931F92CDB7DEB7E6
:100B800082E0898342E450E062E172E080E80E9402
:100B90007F040E94A505DC0112960D911C910115A0
:100BA000110589F0D801ED91FC910280F381E02DCF
:100BB000BE016F5F7F4FC801099597FD04C0F80122
:100BC00000851185ECCF89810F90DF91CF911F9126
:100BD0000F910895CF93CFB7F89480912604811197
:100BE0005AC04CEA54E0FA0194912BEC34E0F9013C
:100BF0008491E92FF0E0EE0FFF1FE357FB4FA59123
:100C0000B4919C91982309F037C0E4E0F2E094910C
:100C1000F9012491FA018491882309F42DC09923C4
:100C2000E9F091509F30D0F4E92FF0E0E65EF94F03
:100C30000C9403355B065F062906530657062E06FD
:100C40002E062E06620668066C06700676062E06CE
:100C50007A06909180009F7790938000E82FF0E0D3
:100C6000EE0FFF1FE158FB4FA591B4918FB7F89499
:100C70009C91292B2C938FBF81E10E94B3028CB5EC
:100C800080618CBD8CB580648CBD8FE00E94B30206
:100C900080E10E94B302809126048F5F8093260436
:100CA000CFBFCF910895909180009F7DD5CF909137
:100CB0008000977FD1CF94B59F7794BDCFCF94B567
:100CC0009F7DFBCF909190009F7790939000C6CF2F
:100CD000909190009F7DF9CF90919000977FF5CFF4
:100CE0009091C0009F779093C000B8CF9091C000C2
:100CF0009F7DF9CF9091C200977F9093C200AECFB5
:100D0000CF93DF93EC018A85882329F081508A876D
:100D1000DF91CF9108959C818E819817C8F78D85BA
:100D20006827E881F9810084F185E02D42E0CE0159
:100D300009958C818F5F8C83EBCFFC018FE08683DC
:100D40008FE7878380871186128613860895FC01BA
:100D5000138214821582168217820895DC01FB012A
:100D600012962C911297848195812817190641F4C7
:100D700091818081813A31F49D7F81E0913009F049
:100D800080E008958132E1F79B3029F482811F963B
:100D90008C9381E008959A3099F7828150968C93D4
:100DA000F8CFEF92FF920F931F93CF93DF93FB0146
:100DB0002081213889F52381223271F5DC011296D8
:100DC0004C91248135814217130631F58C01FC01C9
:100DD000C385D485F12CE12C209791F04C815D8165
:100DE0006A817B818E81811180E80E947F048F3F20
:100DF000980759F0E80EF91E0990D881C02DECCF64
:100E000081E0D8011F968C93C701DF91CF911F918C
:100E10000F91FF90EF90089590E080E0F6CFCF9390
:100E2000DF93CDB7DEB769970FB6F894DEBF0FBE7C
:100E3000CDBFFC01DB018C918F5F8C939E012D5FF8
:100E40003F4F8DE0D9011D928A95E9F729E029836A
:100E500084E08A8391E09D8383E08E832A8721E268
:100E60002B879C879D879F8722E2288B27E02B8BEF
:100E700025E02C8B8E8B20E430E0388F2F8B998FE0
:100E800082818B8395858685998B8A8B8381806807
:100E90008D8B49E150E0BE016F5F7F4F80E00E9483
:100EA0007F0469960FB6F894DEBF0FBECDBFDF9109
:100EB000CF91089523B14FB13FB15FB12695217015
:100EC000220F220F220F441F4427441F440F440FB8
:100ED000240F55FB442740F9240F36FB332730F904
:100EE000330F230F019721F01B9920611E99206277
:100EF000822F089559B13CB143B163B136FB22272B
:100F000020F9220F220F352F331F3327331F330FC2
:100F1000330F330F230F65FB332730F9230F44FBC7
:100F2000332730F9330F230F019721F036992061D1
:100F300037992062822F08958FB7F8948091230407
:100F40008FBF089584E98093BC0085E69091BC0032
:100F500094FF03C08150D1F7089581E008956EBDDC
:100F600000000DB407FEFDCF8EB508952A9A299A88
:100F70008C9A83EC90E00197F1F708952A9A299AC8
:100F8000469A83EC90E00197F1F708958091590417
:100F900090915A040196843091052CF490935A0450
:100FA00080935904089581E090E0F8CF8CBD9DBDF9
:100FB00008958C988091BF049091C0040E94D60738
:100FC00083EC90E00197F1F7089546988091BF0473
:100FD0009091C0040E94D60783EC90E00197F1F74E
:100FE00008958F929F92AF92BF92CF92DF92EF922D
:100FF000FF920F931F93CF93DF937C016B015A01F4
:10100000022F10E0D0E0C0E083EC882E912CC017B6
:10101000D107E1F0D701ED91FC910480F581E02D3D
:101020006AE5C114D10421F0D601AC0FBD1F6C914B
:10103000C7010995A114B10421F0F501EC0FFD1FC2
:101040008083C4010197F1F72196E1CFDF91CF9121
:101050001F910F91FF90EF90DF90CF90BF90AF90D6
:101060009F908F900895CF92DF92EF92FF920F930F
:101070001F93CF93DF937C016B01D42F8C010E5F04
:101080001F4F23E0A8010E94F107F70123812F3FA2
:1010900061F410E000E0C801DF91CF911F910F9142
:1010A000FF90EF90DF90CF90089584818A3511F002
:1010B0008111EFCF2F70C22FCC0FD33059F0B60172
:1010C0006D5F7F4F2DEF2D0FA7014B5F5F4FC70166
:1010D0000E94F1072C2F2D1B2D5FE9F24D2F50E0C0
:1010E000CA01820F911D8197A4F6400F511F70E035
:1010F00060E0C7010E94F107CECFCF92DF92EF925E
:10110000FF920F931F93CF93DF93EC010E940C0487
:101110006B017C01E881F9810190F081E02DCE0125
:10112000099544E06AE072E0CE010E9433088C0128
:10113000E881F9810280F381E02DCE010995011546
:10114000110529F0F8018181807F803F11F56AE067
:1011500070E080E090E00E94DA030E940C046C19B9
:101160007D098E099F096B3F71058105910590F2FC
:10117000C0E062E370E080E090E00E94DA038C2F30
:10118000DF91CF911F910F91FF90EF90DF90CF9063
:101190000895C1E0EECFEF92FF920F931F93CF938C
:1011A000DF9300D000D01F92CDB7DEB78C01DC01F9
:1011B0009C961C929C97D9961C92D997ED91FC9184
:1011C0000190F081E02D0995F80182AD811108C0F0
:1011D00083AD803409F045C084AD813009F041C051
:1011E00085E0E3E1F2E0DE01119601900D928A952F
:1011F000E1F7D80196968D919C919797069759F5AE
:10120000DD968C918C8345E0BE016F5F7F4FC801F6
:101210000E9433087C01D801ED91FC910280F3819A
:10122000E02DC8010995E114F10441F0F701818135
:10123000807F803FD1F4C8010E947D0880E00F903C
:101240000F900F900F900F90DF91CF911F910F9102
:10125000FF90EF900895F80183AD8C8384AD8D836A
:10126000D2CF43E063E172E0D2CFD80194968D9162
:101270009C91959793969C938E939297238134811A
:1012800095963C932E93949781818937B9F483E0A6
:1012900090E097969C938E939697D80196968D9111
:1012A0009C9197978430910591F150F5823091058A
:1012B00071F1039709F441C081E0C1CF982F907F6D
:1012C000903721F482E090E0D801E3CF903531F4FB
:1012D00084E090E0F80197A386A3DFCF833219F46E
:1012E00085E090E0F1CF903E19F486E090E0F2CFF7
:1012F000833619F487E090E0E7CF81E090E0EACF11
:101300008630910509F45CC030F10797A9F681E0B9
:10131000D8019C968C939C97F70185819A968C9323
:101320009A9786819B968C939B97878198968C93AE
:101330009897808599968C93BFCF81E0F80181AF13
:10134000F70139969D96C701459621912D93E8178F
:10135000F907D9F7DCCF81E09C968C939C97F70135
:10136000958198969C939897D9968C93D9978681D6
:10137000D3968C93D3979781D4969C93D49740859A
:10138000D5964C93D59797FF05C03F7795963C939C
:101390002E93949787FF0AC0D80194968D919C91C3
:1013A00095979F7B95969C938E939497403F08F4D6
:1013B00083CFF80184A195A19B7F95A384A37CCFC3
:1013C00081E09C968C93F7019681858197FD1AC0E8
:1013D00087FD8FE7D80198968C93D80198968C91C9
:1013E0009897805898968C939897F70185819D9649
:1013F0008C939D9786819E968C939E9787819F96CE
:101400008C935ACF813808F481E8F80180A7E5CFA2
:10141000CF92DF92EF92FF920F931F93CF93DF93C0
:10142000EC010E940C046B017C01E881F9810190C0
:10143000F081E02DCE01099544E061E072E0CE013B
:101440000E9433088C01E881F9810280F381E02D4C
:10145000CE0109950115110529F0F8018181807FE0
:10146000803F11F16AE070E080E090E00E94DA03D2
:101470000E940C046C197D098E099F096B3F710550
:101480008105910590F2C0E062E370E080E090E0B9
:101490000E94DA038C2FDF91CF911F910F91FF9063
:1014A000EF90DF90CF900895C1E0EECF90913001A2
:1014B000891778F4E82FF0E0EE0FFF1FEC5BFB4F8D
:1014C00080819181DC01ED91FC910190F081E02D12
:1014D00009940895FC019081911107C08381948142
:1014E0000196B1F090E080E008959F3051F42281A0
:1014F00030E02F7033272F30310581F482E090E007
:101500000895923041F0943049F485E090E00895D8
:1015100083E090E0089584E090E0089581E090E019
:101520000895FC01808187838181928191878087E2
:10153000838182878481838785818487868185876B
:101540000895FC016093BC002FEF3FEF8091BC0039
:1015500087FF06C09091B900987F908381E008953D
:101560002150310999F780E00895CF93DF93EC0182
:101570006093BB0064E80E94A10A882329F081E0FF
:101580009881983209F080E0DF91CF910895DF9241
:10159000EF92FF920F931F93CF93DF93EC01D62E20
:1015A000F42E8989882329F0411103C00E94A207E3
:1015B000198A8E01015F1F4F8989811119C0E8883E
:1015C00064EAC8010E94A10A882361F08F858830EF
:1015D00011F0803139F4EE0CE092BB0064E8C801F0
:1015E0000E94A10A60E0F11060E4C8010E94B50AFF
:1015F0006D2DC8010E94B50A82E0F8120BC08989DE
:101600008F5F898BDF91CF911F910F91FF90EF90AA
:10161000DF9008950E94A207198AF4CFDC01ED91B2
:10162000FC910084F185E02D40E00994FC012781C4
:10163000269526952695621720F46583606B0C9499
:101640000E0B08950F931F93CF93FC012681621711
:1016500098F4C62F8C0164836085C60F6C2F6F7061
:101660000E940E0B6C2F62956F706061C801CF9164
:101670001F910F910C940E0BCF911F910F91089514
:101680001F93CF93DF93EC01142F0E94220B612F45
:10169000CE01DF91CF911F910C94160B2F923F92A8
:1016A0004F925F926F927F928F929F92AF92BF9272
:1016B000CF92DF92EF92FF920F931F93CF93DF931E
:1016C00000D000D000D0CDB7DEB7FC012385348533
:1016D0002115310509F416C19E838D83F9013296D7
:1016E000649031964491E42EF12CF7E0EF0EF11C5A
:1016F00053E0F594E7945A95E1F7E982F9013496BD
:1017000054913196E4916D30F1F460E00E94220B27
:1017100081E090E026960FB6F894DEBF0FBECDBFF5
:10172000DF91CF911F910F91FF90EF90DF90CF90BD
:10173000BF90AF909F908F907F906F905F904F90F1
:101740003F902F9008956A3081F460E08D819E81F2
:101750000E94220BED81FE81868565818E9D600D44
:101760001124CF010E94160BD3CF651708F4CAC00D
:101770008E2F90E0FC01E50FF11D6E171F060CF097
:10178000C1C089010A5F1F4F651BED81FE81718514
:101790005685759F502D11245C83F90154912F5F5C
:1017A0003F4FF9012491352F2230310508F06AC0EE
:1017B0006E9CC0016F9C900D1124689FF001699F81
:1017C000F00D11240E0F1F1F512CED81FE81F481AD
:1017D000FA83ED81FE812580F285FB83862C912C96
:1017E000AA24A394B12C312C8981381608F086C024
:1017F000412CED81FE818685481608F078C08B81EA
:101800008287311002C0442041F0ED81FE81458184
:101810004F5F6A81CF010E94400BD12CC12CC614AE
:1018200008F058C0F801EC0DFD1D7490552061F0D2
:10183000EA14FB0449F4E72DF0E0052C02C0F5950D
:10184000E7950A94E2F77E2EED81FE81868582304F
:1018500081F4442009F43AC072948FE07822E72D95
:10186000F0E0ED51FE4F7490672D8D819E810E94B6
:101870008006672D8D819E810E9480068FEFC81A99
:10188000D80ACDCF477028E0522E541A411101C01A
:10189000512CF801612C30E020E0661631F04491C3
:1018A000240F311D63943196F8CF600E712E711C98
:1018B000F3016490E29EF001E39EF00DF29EF00DC4
:1018C00011248E0F9F1F080F191F7FCFF72DFF7058
:1018D0007F2EC5CFD12CEC81DE1639F060E08D81F2
:1018E0009E810E948006D394F6CF439482CF339496
:1018F000080D191DFFEFAF1ABF0A76CF622D8D813B
:101900009E8130CF90E080E005CF0F931F93CF935F
:10191000DF938C01D0E0C0E0F801EC0FFD1F649173
:10192000662341F089EA95E00E944E0B892B11F065
:101930002196F2CFCE01DF91CF911F910F910895A3
:10194000CF92DF92EF92FF920F931F93CF93DF938B
:10195000EC01F62EC42ED22E1A868F81869586959E
:101960008695081710F00FEF080F1D2D011780F056
:10197000412F6F2DCE010E94400BEF2CCE1430F082
:101980006D85CE010E948006E394F8CF1F5FEECFF5
:101990004D2D6F2DCE01DF91CF911F910F91FF90B3
:1019A000EF90DF90CF900C94400B0F93FC010781D8
:1019B00006950695069501504681415020E060E06D
:1019C0000E94A00C0F9108954F925F926F927F92A8
:1019D0008F92AF92CF92EF92FF920F931F93CF937C
:1019E000DF93CDB7DEB72701380194E0899F8001EE
:1019F0001124F801E052FC4F80819181A281B381D2
:101A00008E219521A621B72131E0892B8A2B8B2BA2
:101A100009F430E03C1103C08889882301F1C1102A
:101A200001C0A82C2D5F640F422F89EA95E00E9427
:101A3000400B6A2D89EA95E00E944E0BF801E052B6
:101A4000FC4FCC20D1F080819181A281B381842987
:101A50009529A629B72980839183A283B383DF9137
:101A6000CF911F910F91FF90EF90CF90AF908F90FB
:101A70007F906F905F904F90089540945094609441
:101A8000709480819181A281B38184219521A621C6
:101A9000B721E1CF0F9307E022E04FE760E089EA4A
:101AA00095E00E94A00C8091590490915A048230D4
:101AB000910579F083309105A1F0019711F56CE063
:101AC00089EA95E00E94220B88E491E00F910C9442
:101AD000850C64E289EA95E00E94220B8DE391E097
:101AE000F5CF6EE189EA95E00E94220B89E391E04F
:101AF0000E94850C84E391E00E94850C8FE291E0C6
:101B0000E5CF0F910895809308016EEA81116FEA85
:101B100089EA95E00E940E0B0E940C046093140465
:101B20007093150480931604909317040895FC0194
:101B3000448550E0A585B0E0AA0FBB1FAA59BB4F52
:101B40000D90BC91A02D13968C91806490916A04A5
:101B5000BF01992321F06E5F7F4F0C94BB046D5F32
:101B60007F4FFBCF089590E080E00895CF92DF9201
:101B7000FF920F931F93CF93DF936C0170E06F5F21
:101B80007F4F7595679590912404961758F0909122
:101B90002504FF24F39401E010E0961730F082E072
:101BA000F82E6AC0F12C10E000E0F801EC5DFB4F6C
:101BB00081E0890F808391115FC083E190E00E94F2
:101BC0001D35EC0191E09C839D839E01265F3F4F74
:101BD0003F832E831986188622E433E039832883D5
:101BE0001C861B861E861D869F87988BDA8AC98A6B
:101BF00081EC8A870E94A505FC0181813C81682FC8
:101C0000630F7727771F683071057CF5A281B38158
:101C10001097F9F4D383C28390819A838B838D814B
:101C2000890F808390E080E08317F8F42181A22F50
:101C3000B0E0BD016D5D7E4F4E815F81480F591F41
:101C4000DA014C91DB014C932F5F21830196ECCF9D
:101C5000DA0118964D915C91199741155105C1F71C
:101C60001996DC93CE931897D7CF000F111FF80168
:101C7000EA59FB4FD183C0838F2DDF91CF911F9104
:101C80000F91FF90DF90CF9008955F926F927F92B7
:101C90008F929F92AF92BF92CF92DF92EF92FF927C
:101CA0000F931F93CF93DF93CDB7DEB7C456D109FF
:101CB0000FB6F894DEBF0FBECDBF3C01CB01D42ED2
:101CC000F22EE796BFACE79723E633E0D3012D93DE
:101CD0003C936F2D0E94B60D182FF301858781E08C
:101CE000F2E0FF1508F080E080936A0489E693E053
:101CF000D30111969C938E931296DC9212972C2D01
:101D00002A0D2E0D200F982C9B0C822F890D95E00B
:101D1000980F1C969C9335E0398391E09A8349E0B3
:101D20004B833C8331EA3D839E83B2E0BF1508F0CC
:101D3000CFC385E88F83D88698E0E1E0F0E0EC0F30
:101D4000FD1FE90FF11D45E04083E1E0E90F662446
:101D50006394712C6C0E7D1E6E0E711CF30159E0A4
:101D60005083E2E0E90F61E070E06C0F7D1F6E0FC1
:101D7000711DFB0189E18083E3E0E90FA1E0B0E0A0
:101D8000AC0FBD1FAE0FB11DFD0131E03083E4E0AB
:101D9000E90F66246394712C6C0E7D1E6E0E711C0F
:101DA000F30189E28083E5E0E90F61E070E06C0F08
:101DB0007D1F6E0F711DFB0188E18083E6E0E90F56
:101DC000A1E0B0E0AC0FBD1FAE0FB11DFD0175E18C
:101DD000572E5082E7E0E90F66246394712C6C0E55
:101DE0007D1E6E0E711CF3011082E8E0E90F61E0C8
:101DF00070E06C0F7D1F6E0F711DFB01A5E2FA2EC6
:101E0000F082E9E0E90FA1E0B0E0AC0FBD1FAE0F3A
:101E1000B11DFD013083EAE0E90F66246394712C63
:101E20006C0E7D1E6E0E711CF30175E77083EBE086
:101E3000E90FA1E0B0E0AC0FBD1FAE0FB11DFD0179
:101E40003083ECE0E90F66246394712C6C0E7D1EE8
:101E50006E0E711CF30165E96083EDE0E90FA1E00E
:101E6000B0E0AC0FBD1FAE0FB11DFD018083EEE0F1
:101E7000E90F66246394712C6C0E7D1E6E0E711C2E
:101E8000F30181E88083EFE0E90FA1E0B0E0AC0F5F
:101E9000BD1FAE0FB11DFD01A2E0DA2ED082E0E140
:101EA000E90F66246394712C6C0E7D1E6E0E711CFE
:101EB000F3014083E1E1E90FA1E0B0E0AC0FBD1F09
:101EC000AE0FB11DFD013083E2E1E90F662463949A
:101ED000712C6C0E7D1E6E0E711CF3015083E3E1BC
:101EE000E90FA1E0B0E0AC0FBD1FAE0FB11DFD01C9
:101EF00049E34083E4E1E90F66246394712C6C0E9E
:101F00007D1E6E0E711CF3015082E5E1E90FA1E028
:101F1000B0E0AC0FBD1FAE0FB11DFD011082E6E1B8
:101F2000E90F66246394712C6C0E7D1E6E0E711C7D
:101F3000F301F082E7E1E90FA1E0B0E0AC0FBD1FD3
:101F4000AE0FB11DFD0147E04083E8E1E90F6624D3
:101F50006394712C6C0E7D1E6E0E711CF30145E3B3
:101F60004083E9E1E90FA1E0B0E0AC0FBD1FAE0F87
:101F7000B11DFD011082EAE1E90F66246394712C22
:101F80006C0E7D1E6E0E711CF30146E44083EBE186
:101F9000E90FA1E0B0E0AC0FBD1FAE0FB11DFD0118
:101FA0004BE34083ECE1E90F66246394712C6C0EE3
:101FB0007D1E6E0E711CF3013083EDE1E90FA1E08F
:101FC000B0E0AC0FBD1FAE0FB11DFD0145E6408373
:101FD000EEE1E90F66246394712C6C0E7D1E6E0E8B
:101FE000711CF30144E14083EFE1E90FA1E0B0E0AF
:101FF000AC0FBD1FAE0FB11DFD017083E0E2E90F14
:1020000066246394712C6C0E7D1E6E0E711CF301A0
:1020100048E04083E1E2E90FA1E0B0E0AC0FBD1F72
:10202000AE0FB11DFD016083E2E2E90F6624639407
:10203000712C6C0E7D1E6E0E711CF3013083E3E279
:10204000E90FA1E0B0E0AC0FBD1FAE0FB11DFD0167
:102050008083E5E2E90F84E2890F66246394712CA2
:102060006C0E7D1E680E711CD301DC92222309F4D4
:1020700000C166246394712C6C0E7D1E6E0E711C63
:10208000F3015083E6E2E90FA1E0B0E0AC0FBD1F21
:10209000AE0FB11DFD013083E7E2E90F66246394C2
:1020A000712C6C0E7D1E6E0E711CF3015082E8E2E5
:1020B000E90FA1E0B0E0AC0FBD1FAE0FB11DFD01F7
:1020C0001082E9E2E90F66246394712C6C0E7D1E88
:1020D0006E0E711CF30186E28083EAE2E90FA1E053
:1020E000B0E0AC0FBD1FAE0FB11DFD018FEF8083BF
:1020F000EBE2E90F66246394712C6C0E7D1E6E0E6C
:10210000711CF3011082ECE2E90FA1E0B0E0AC0F2A
:10211000BD1FAE0FB11DFD017083EDE2E90F662416
:102120006394712C6C0E7D1E6E0E711CF301408346
:10213000EEE2E90FA1E0B0E0AC0FBD1FAE0FB11DA4
:10214000FD016083EFE2E90F66246394712C6C0E4D
:102150007D1E6E0E711CF3012083E0E3E90F21E088
:1021600030E02C0F3D1F2E0F311DF90181EA8083D5
:1021700082E3890FE1E3E90F61E070E06C0F7D1FFE
:102180006E0F711DFB011082002391F0E1E0F0E081
:10219000EC0FFD1FE80FF11D508384E3890F9D5C58
:1021A000E1E0F0E0EC0FFD1FE90FF11D90E39083FB
:1021B000EE20A1F0E1E0F0E0EC0FFD1FE80FF11DD3
:1021C00099E09083E1E0E80FA1E0B0E0AC0FBD1F23
:1021D000AE0FB11DFD0191E390838E5FCC20A9F07D
:1021E000E1E0F0E0EC0FFD1FE80FF11D99E09083B6
:1021F000E1E0E80F66246394712C6C0E7D1E6E0E78
:10220000711CF30192E390838E5FAA20A1F0E1E0BC
:10221000F0E0EC0FFD1FE80FF11D99E09083E1E085
:10222000E80F21E030E02C0F3D1F2E0F311DF9018A
:1022300095E390838E5FE1E0F0E0EC0FFD1FE80F87
:10224000F11D91E89083E1E0E80F61E070E06C0F30
:102250007D1F6E0F711DFB0192E09083E3E0E80F9C
:102260008E5FA1E0B0E0AC0FBD1FA80FB11D20EC48
:102270002C93992009F4E3C025E081E090E08C0FD5
:102280009D1F8E0F911DDC012C9381E08E0F662423
:102290006394712C6C0E7D1E680E711C22E0D301BC
:1022A0002C9382E08E0F66246394712C6C0E7D1E3D
:1022B000680E711C25E1D3012C9383E08E0F6624F8
:1022C0006394712C6C0E7D1E680E711CD3011C92E0
:1022D00084E08E0F66246394712C6C0E7D1E680E54
:1022E000711C26E2D3012C9385E08E0F6624639443
:1022F000712C6C0E7D1E680E711C2FEFD3012C9378
:1023000086E08E0F66246394712C6C0E7D1E680E21
:10231000711CD3011C9287E08E0F66246394712C8C
:102320006C0E7D1E680E711C25E7D3012C9388E08E
:102330008E0F66246394712C6C0E7D1E680E711CCA
:1023400028E0D3012C9389E08E0F66246394712CCE
:102350006C0E7D1E680E711C25E9D3012C938AE05A
:102360008E0F66246394712C6C0E7D1E680E711C9A
:10237000D3019C92ABE0AE0F66246394712C6C0E7B
:102380007D1E6A0E711CD30181EA8C934DE04E0FC5
:102390008CE08E0F21E030E02C0F3D1F280F311D07
:1023A000D9011C928820A9F0A1E0B0E0AC0FBD1FBC
:1023B000A40FB11D89E08C934FE04E0FE25F6624BD
:1023C0006394712C6C0E7D1E6E0E711CF3018BEBF1
:1023D0008083BB20A1F0E1E0F0E0EC0FFD1FE40FF3
:1023E000F11D89E08083E1E0E40F21E030E02C0F73
:1023F0003D1F2E0F311DF90185EC80834E5FE1E01A
:10240000F0E0EC0FFD1FE40FF11D81E88083E1E0B7
:10241000E40F61E070E06C0F7D1F6E0F711DFB011A
:1024200082E08083E3E0E40FA2E0A40F81E090E08B
:102430008C0F9D1F8A0F911DDC0180EC8C93A1E015
:10244000B0E0AC0FBD1FAE0FB11D80EC8C93EF5F01
:10245000EE2EF12CC7010E941D356C01A701BE01B3
:102460006F5F7F4F0E94473687E090E00E941D35E6
:10247000DC0111961C921E921396DC92CE9212975A
:102480001596FC92EE92149716961C921697E12FD1
:10249000F0E0EE0FFF1FEA59FB4FBD0180819181F3
:1024A000CC59DF4F0FB6F894DEBF0FBECDBFDF9122
:1024B000CF911F910F91FF90EF90DF90CF90BF9041
:1024C000AF909F908F907F906F905F900C94980248
:1024D0008C5FF301848796E030CC2F923F924F922D
:1024E0006F927F928F929F92AF92BF92CF92DF9224
:1024F000EF92FF920F931F93CF93DF9300D000D002
:10250000CDB7DEB770E0F1E04BE050E04798672FC1
:102510006F2780ED97E036B136FB332730F9631330
:1025200030C1DA011197F1F70197A9F70F900F90D9
:102530000F900F90DF91CF911F910F91FF90EF902F
:10254000DF90CF90BF90AF909F908F907F906F90D3
:102550004F903F902F90089569B19CB133B1E3B192
:1025600096FB882780F9880F880F962F991F992747
:10257000991F990F990F990F890FE5FB992790F9EA
:10258000890F34FB992790F9990F890F713009F061
:1025900016C1243091F4813081F486E080934C059B
:1025A000479880ED97E02BE030E0369B0BC1F901B6
:1025B0003197F1F70197C9F7B9CF282E220C2111D5
:1025C00020C0823029F190E080E051E06BE070E0C3
:1025D000291609F4ABCF882309F487C0479A8527C9
:1025E000A82FA17020ED37E046B146FB442740F903
:1025F000FB01A4132DC13197F1F721503109A1F747
:1026000095CF213009F064C0863011F08330D9F6BF
:1026100060914B0591E0960F90934B05673008F061
:1026200066E0462F50E09FE0699FB0011124FB0156
:10263000E15BFA4FFA83E9836C5B7A4F2E3009F045
:1026400056C0815090EE8927FB01838710E0312C22
:10265000412C9BE0692E712C8FE0849F4001859F67
:10266000900C112494012C5B3A4F4901790131E11E
:10267000E30EF11C640190E1C90ED11C4F5F5F4F66
:10268000849FF001859FF00D1124EC5BFA4FFC83D1
:10269000EB835401FEE0AF0EB11C2CE0820E911CC6
:1026A000211609F443CF332041F1479A81E03826BF
:1026B000332D317080ED97E026B126FB222720F9DB
:1026C0003213CAC0F3013197F1F70197A9F72ECF62
:1026D0002E3021F4833008F49BCF75CF2F3009F0D2
:1026E00072CF8F3009F06FCF21CF479878CFF0E1CC
:1026F0002F9F900111248227A7CF4798D7CF13305F
:1027000079F4F401208131813F70487050E0542FFA
:1027100044275295507F420F531F51834083C0C0BE
:10272000143069F1153041F4F0E14F9EC0011124DD
:10273000482BF5014083B4C0163009F1173041F43D
:10274000F0E14F9EC0011124482BEB81FC81F2CFB8
:102750001830A9F0193039F4F0E14F9EC00111246E
:10276000482BF601E7CF1A3051F01B3009F098C022
:10277000F0E14F9EC0011124482BF701DBCF442E1E
:102780008FC0CA010197F1F77111E6CE39B19CB142
:1027900083B163B196FB222720F9220F220F932FDA
:1027A000991F9927991F990F990F990F290F65FB69
:1027B000992790F9290F82958170880F280F71E071
:1027C000479AA5CE8BE090E00197F1F7479A80ED0C
:1027D00097E02BE030E0369906C0F9013197F1F728
:1027E0000197C9F7A3CE8BE090E00197F1F7F6E0EF
:1027F000F9830BE010E00E946D12C8010197F1F718
:102800002981215029832111F6CF479880ED97E047
:102810002BE030E0369B06C0F9013197F1F70197C4
:10282000C9F784CE8BE090E00197F1F7479A80EDED
:1028300097E02BE030E0369906C0F9013197F1F7C7
:102840000197C9F773CE8BE090E00197F1F76ECE58
:102850003197F1F79F5FBCCE83E090E00197F1F7ED
:1028600099B14CB183B123B146FB442740F9440FE1
:10287000440F991F9927991F990F990F990F490F85
:1028800025FB992790F9490F82958170880F480F91
:10289000133008F034CF612F89819A810E94D202CF
:1028A0001F5FFECE2F923F924F926F927F928F9238
:1028B0009F92AF92BF92CF92DF92EF92FF920F93CF
:1028C0001F93CF93DF9300D000D0CDB7DEB760E089
:1028D000E1E04BE050E02E98762F7E2720ED37E0A8
:1028E00083B183FB882780F9DA0178132DC1119712
:1028F000F1F721503109A1F70F900F900F900F9031
:10290000DF91CF911F910F91FF90EF90DF90CF90CB
:10291000BF90AF909F908F907F906F904F903F901F
:102920002F90089583B13FB12FB17FB1869581700B
:10293000880F880F880F331F3327331F330F330F50
:10294000830F75FB332730F9830F26FB222720F9ED
:10295000220F820F613009F013C1943091F481305D
:1029600081F486E08093E7042E9880ED97E02BE0D9
:1029700030E01B9B08C1F9013197F1F70197C9F7C6
:10298000BBCF282E220C91111FC0823051F180E064
:1029900051E06BE070E0291609F4AECF882309F40A
:1029A00087C02E9A8527A82FA17020ED37E043B16C
:1029B00043FB442740F9FB01A4132BC13197F1F7E6
:1029C00021503109A1F798CF913031F4863049F088
:1029D000833039F090E0DBCF9E3009F062C0833065
:1029E000C8F74091E60421E0240F2093E604473025
:1029F00008F046E0242F30E06FE0469FA00111244C
:102A0000FA01E651FB4FFA83E98341525B4F9E3056
:102A100009F050C0815090EE8927FA01838710E0B9
:102A2000312C412C9BE0692E712C8FE0829F40015C
:102A3000839F900C1124A40141525B4F4A017A01FB
:102A400051E1E50EF11C640190E1C90ED11C2F5F2C
:102A50003F4F829FF001839FF00D1124E152FB4F05
:102A6000FC83EB835401FEE0AF0EB11C2CE0820E20
:102A7000911C211609F440CF332011F12E9A81E0E8
:102A80003826332D317080ED97E023B123FB2227C8
:102A900020F93213C2C0F3013197F1F70197A9F77A
:102AA0002BCF9F3009F096CF8F3009F093CF24CFF2
:102AB0002E9878CFF0E19F9FB00111248627ADCFEB
:102AC0002E98DDCF133079F4F401208131813F70ED
:102AD000487050E0542F44275295507F420F531FA7
:102AE00051834083BEC0143069F1153041F4F0E1E8
:102AF0004F9EC0011124482BF5014083B2C016300F
:102B000009F1173041F4F0E14F9EC0011124482B28
:102B1000EB81FC81F2CF1830A9F0193039F4F0E1E3
:102B20004F9EC0011124482BF601E7CF1A3051F017
:102B30001B3009F096C0F0E14F9EC0011124482BD4
:102B4000F701DBCF442E8DC01197F1F76111EACE6A
:102B500093B12FB18FB13FB196959170990F990FA5
:102B6000990F221F2227221F220F220F920F35FBBF
:102B7000222720F9920F86FB882780F9880F980F6B
:102B800061E02E9AA9CE8BE090E00197F1F72E9AA2
:102B900080ED97E02BE030E01B9906C0F9013197FA
:102BA000F1F70197C9F7A8CE8BE090E00197F1F714
:102BB000F6E0F9830BE010E00E945214C80101977F
:102BC000F1F72981215029832111F6CF2E9880ED2C
:102BD00097E02BE030E01B9B06C0F9013197F1F73D
:102BE0000197C9F789CE8BE090E00197F1F72E9A13
:102BF00080ED97E02BE030E01B9906C0F90131979A
:102C0000F1F70197C9F778CE8BE090E00197F1F7E3
:102C100073CE3197F1F79F5FBECE83E090E00197CE
:102C2000F1F743B19FB18FB12FB146954170440F79
:102C3000440F440F991F9927991F990F990F490F16
:102C400025FB992790F9490F86FB882780F9880F83
:102C5000480F133008F036CF612F89819A810E9486
:102C6000D2021F5F06CF0E944236CF93DF93FC0152
:102C70002085318580E0232B69F4EB01618972891D
:102C8000CE010E945036FE0101900020E9F73197F5
:102C90008E2F8C1BDF91CF9108952F923F924F92F0
:102CA0005F926F927F928F929F92AF92BF92CF92DC
:102CB000DF92EF92FF920F931F93CF93DF93CDB7E5
:102CC000DEB769970FB6F894DEBF0FBECDBF0E9486
:102CD000B50380901F0490902004A0902104B09030
:102CE0002204AB01BC01481959096A097B0980918A
:102CF0002E0190912F01B0E0A0E0481759076A0714
:102D00007B0708F4A3C58091590490915A0482303E
:102D1000910509F4DEC58330910511F40C94EC1F84
:102D2000512C019709F07EC59E012F5F3F4F39015D
:102D30008CE0D9011D928A95E9F7809122018823C0
:102D400081F01092220180913001833050F045E0F3
:102D50006EE189EA95E00E94400B89ED91E00E94C6
:102D6000850C8FE495E00E94910A8EE595E00E9423
:102D7000910A8DE695E00E94910A8CE795E00E9409
:102D8000910A8BE895E00E94910A8AE995E00E94F9
:102D9000910A10914B0510924B0510924C055C9ACC
:102DA0008BE0E82EF12CC7010197F1F780914D05DA
:102DB00090914E050E947A07082F5C98C7010197F1
:102DC000F1F780914D0590914E050E947A07402FB2
:102DD000477020914D0530914E05902F9F704430E3
:102DE00009F0B9C02130310541F021E030E03093E5
:102DF0004E0520934D053F9A479AE0914B0521E0FF
:102E00002E0F20934B05E73008F0E6E0BFE0EB9F84
:102E1000F0011124EC5BFA4F2FE4238724853585DC
:102E20003F70492F50E0542F44275295507F240F74
:102E3000351F207F8F70280F311D358724875C9ABE
:102E400047982BE030E0C9010197F1F759B19CB1E7
:102E500043B163B196FB882780F9880F880F952FBF
:102E6000991F9927991F990F990F990F890F65FB42
:102E7000992790F9890F44FB992790F9990F890FA9
:102E800040E1849FC0011124448555854F70840F13
:102E9000951F958784875C984798C9010197F1F73A
:102EA00039B19CB123B143B196FB882780F9880FD3
:102EB000880F932F991F9927991F990F990F990F91
:102EC000890F45FB992790F9890F24FB992790F9E1
:102ED000990F890F90E0982F882724853585307FBA
:102EE000820F931F958784875C9A80914D059091FE
:102EF0004E05019709F4479A83E290E00197F1F7B4
:102F000070914B0580E09FE04FEF5FEF60E878172E
:102F100009F4F5C0282F873008F026E030E0929FB2
:102F2000F001939FF00D1124EC5BFA4FB385A28959
:102F3000BA1779F05587448766872F5F3F4F929F76
:102F4000D001939FB00D1124AC5BBA4F6C93108AE3
:102F5000118A8F5FDCCF913091F4482F4F70413050
:102F600071F42130310541F081E090E090934E05FD
:102F700080934D053F9A479A0E946D12B5CF482F16
:102F80004C7009F0A0C0232B39F010924E0510921E
:102F90004D053F984798479AE0914B0521E02E0F49
:102FA00020934B05E73008F0E6E0CE2ED12C6FE001
:102FB000E69FF0011124EC5BFA4F20EE2387402FAF
:102FC00050E00C7009F490CF24853585207F290FBF
:102FD000311D2F70A4E055954795AA95E1F7869588
:102FE0008695842B70E18702C0011124820F931F04
:102FF0009587848784E091E04BE050E021E09923BD
:1030000009F45FC05C9AFA013197F1F79227815079
:10301000B1F780914D0590914E050E947A079FE08F
:103020009C9DF0019D9DF00D1124EC5BFA4F918D5C
:10303000992321F021EE23879150918F8F7009F011
:1030400053CF2FE02C9DC0012D9D900D1124DC014C
:10305000AC5BBA4F7D0184E659968C935C9A4BE049
:10306000C42ED12CC6010197F1F780914D059091A6
:103070004E050E947A07082F5C98C6010197F1F768
:1030800080914D0590914E050E947A0791EEF701CF
:10309000938724853585307F0F70402F50E0542F63
:1030A0004427240F351F3F70880F880F880F90E04A
:1030B000982F88279295907F280F391F358724876E
:1030C00013CF5C98A0CF933081F48F708F3069F468
:1030D0002130310509F408CF81E090E090934E054E
:1030E00080934D053F9A479AFFCE232B09F4FCCEDF
:1030F00010924E0510924D053F984798F4CF8117D6
:1031000028F56FE07FEF4FEF5FEF90E8282F8730D3
:1031100008F026E030E0629FF001639FF00D11247B
:10312000EC5BFA4F7387118E5587448796872F5F24
:103130003F4F629FD001639FB00D1124AC5BBA4F2B
:103140009C93108A118A8F5F1813E0CF8AEE94E067
:103150000E94910A89EF94E00E94910A88E095E02C
:103160000E94910A87E195E00E94910A86E295E02B
:103170000E94910A85E395E00E94910A1091E6046D
:103180001092E6041092E7042A9A3BE0E32EF12C19
:10319000C7010197F1F78091E8049091E9040E943A
:1031A0005A07082F2A98C7010197F1F78091E80480
:1031B0009091E9040E945A07402F47702091E8043B
:1031C0003091E904902F9F70443009F0B5C0213050
:1031D000310541F021E030E03093E9042093E80428
:1031E000269A2E9AE091E60421E02E0F2093E60421
:1031F000E73008F0E6E02FE0E29FF0011124E15211
:10320000FB4F2FE42387248535853F70492F50E0FD
:10321000542F44275295507F240F351F207F8F70E5
:10322000280F311D358724872A9A2E982BE030E00D
:10323000C9010197F1F783B14FB19FB15FB1869595
:103240008170880F880F880F441F4427441F440F44
:10325000440F840F55FB442740F9840F96FB9927B0
:1032600090F9990F890F40E1849FC0011124448592
:1032700055854F70840F951F958784872A982E98BF
:10328000C9010197F1F783B12FB19FB13FB1869585
:103290008170880F880F880F221F2227221F220F7C
:1032A000220F820F35FB222720F9820F96FB9927E8
:1032B00090F9990F890F90E0982F882724853585FC
:1032C000307F820F931F958784872A9A8091E80424
:1032D0009091E904019709F42E9A83E290E0019716
:1032E000F1F76091E604912C2FE04FEF5FEF30E8AB
:1032F000691509F4F5C0892DF6E0F91508F486E0A2
:1033000090E0289FF001299FF00D1124E152FB4F1E
:10331000A3857289A71771F0558744873687019670
:10332000289FD001299FB00D1124A152BB4F3C937F
:10333000108A118A9394DCCF913091F4482F4F700A
:10334000413071F42130310541F081E090E09093FB
:10335000E9048093E804269A2E9A0E945214B5CF6D
:10336000482F4C7009F0A0C0232B39F01092E904CB
:103370001092E80426982E982E9AE091E60421E017
:103380002E0F2093E604E73008F0E6E0CE2ED12C95
:103390006FE0E69FF0011124E152FB4F20EE2387FE
:1033A000402F50E00C7009F490CF24853585207FA4
:1033B000290F311D2F70B4E055954795BA95E1F767
:1033C00086958695842B70E18702C0011124820FB7
:1033D000931F9587848784E091E04BE050E021E0E3
:1033E000992309F45FC02A9AFA013197F1F79227DD
:1033F0008150B1F78091E8049091E9040E945A0746
:103400009FE09C9DF0019D9DF00D1124E152FB4F2A
:10341000918D992321F021EE23879150918F8F7008
:1034200009F053CF2FE02C9DC0012D9D900D11244C
:10343000DC01A152BB4F7D0184E659968C932A9AF8
:103440006BE0C62ED12CC6010197F1F78091E804FC
:103450009091E9040E945A07082F2A98C601019703
:10346000F1F78091E8049091E9040E945A0791EEE7
:10347000F701938724853585307F0F70402F50E00A
:10348000542F4427240F351F3F70880F880F880F53
:1034900090E0982F88279295907F280F391F3587C5
:1034A000248713CF2A98A0CF933081F48F708F3068
:1034B00069F42130310509F408CF81E090E0909360
:1034C000E9048093E804269A2E9AFFCE232B09F470
:1034D000FCCE1092E9041092E80426982E98F4CFBE
:1034E000911628F5292D6FE07FEF4FEF5FEF30E861
:1034F000822F273008F086E090E0689FF001699FF6
:10350000F00D1124E152FB4F7387118E55874487CC
:1035100036870196689FD001699FB00D1124A15292
:10352000BB4F3C93108A118A2F5F1213E1CFA090FA
:103530004B05BA2CB90C44E4242E44E0342ED12C93
:10354000512C5FE0852E80913001BD1409F4F8C044
:10355000D81609F4F5C0CC24C394DA1408F4C12CAD
:103560000D2DDA1408F043C026E02D1508F406E00E
:10357000089D80011124015B1A4F823009F449C073
:10358000D8019C9117968C911797981351C011965A
:103590002D913C91129718968D919C91199728170F
:1035A000390709F054C013969C9113971A968C9181
:1035B0001A9798134CC014969C9114971B968C9153
:1035C0001B97981344C015969C9115971C968C9147
:1035D0001C9798133CC016969C9116971D968C913B
:1035E000981335C0D394F2E02F0E311CACCF0A19DA
:1035F000073008F006E0089D8001112406511B4F9A
:10360000823009F0BDCFF8018081992009F4B8CF4C
:1036100004C0AA20C1F3D8018C910E94482AEC2D45
:10362000F0E0EE0FFF1FE60DF71D91838083A8CF1A
:103630008D2D0E94560A80913001823041F4F801AC
:1036400080810E94482ABC018C2D0E949A2DD801AD
:1036500011968D919C91B82FBF70BB8B22E0E22E0A
:10366000F12C86FF02C0F12CE12C84FD02C068948D
:10367000E2F885FD02C06894E5F892FD02C0689406
:10368000E0F891FD02C06894E3F890FD02C06894F0
:10369000E4F887FD02C06894F1F8F10140805180A0
:1036A000D8012C91207F203109F041C013968C91D4
:1036B0001397F201878314968C911497808715963F
:1036C0008C911597818716968C91169782878C918D
:1036D0000E94482A069719F4FB89FC60FB8BD201F3
:1036E0001396EC9213971496FC92149715961C92CD
:1036F000BB89EB2FF0E0E25DFC4F8081F201868315
:10370000C2010E94970D80913001823069F4EC2D46
:10371000F0E0EE0FFF1FE60DF71D6081718120E0E4
:10372000A8018C2D0E94352D552453945BCF93FD19
:1037300002C06894E7F897FDD2CF6894E6F8CFCF3F
:1037400009811A81823079F48091160190911701D4
:103750008017910741F00115110529F470E060E030
:1037600080E00E949A2D10931701009316010B819F
:103770001C8180913001823079F480911801909100
:1037800019018017910741F00115110529F470E026
:1037900060E081E00E949A2D1093190100931801B6
:1037A00080911E04B816C0F41B2D80911E041817BA
:1037B00098F480913001181779F0812F0E94560AF1
:1037C000E12FF0E0EE0FFF1FEC5BFB4F808191815A
:1037D0000E94970D1F5FE9CFB0921E0480914C05A7
:1037E0009091E704843039F0943029F0890F51F436
:1037F00082E390E002C080ED97E090932F018093E8
:103800002E0110C08B2D90E0019644EF51E0849F73
:103810009001859F300D949F300D112430932F011E
:1038200020932E010E94B50360931F04709320041F
:103830008093210490932204552041F08091080147
:1038400081110C94462681E00E94830D809108012D
:103850008823B1F00E940C04009114041091150407
:103860002091160430911704601B710B820B930B8F
:10387000603E73498440910518F080E00E94830DFA
:103880004E990EC06CE271E080E090E00E94DA0395
:103890008091080181110C94522681E00E94830DD1
:1038A00069960FB6F894DEBF0FBECDBFDF91CF9102
:1038B0001F910F91FF90EF90DF90CF90BF90AF904E
:1038C0009F908F907F906F905F904F903F902F9040
:1038D00008959E012F5F3F4F3A8B298B8CE0D901D1
:1038E0001D928A95E9F780911501882381F0109245
:1038F000150180913001833050F045E064E289EA9F
:1039000095E00E94400B82EC91E00E94850C809132
:10391000D5048093DA048091D6049091D7049093D3
:10392000DC048093DB048091D8049091D9049093B7
:10393000DE048093DD04A091D3041092D3042C9A6A
:103940008BE290E00197F1F72C9883E190E00197EA
:10395000F1F790E080E030E020E043E150E06CB12E
:1039600066FBEE24E0F8F12CB701082E02C0660FCA
:10397000771F0A94E2F7262B372B2D98FA013197FF
:10398000F1F72D9AFA013197F1F7019680319105FF
:1039900031F7832F82958F7090E18D3009F091E09F
:1039A00070E060E050E040E0E3E1EE2EF12CECB19D
:1039B000E6FB002700F910E0F801062E02C0EE0F2A
:1039C000FF1F0A94E2F74E2B5F2B2D98F7013197DA
:1039D000F1F72D9AF7013197F1F76F5F7F4F691774
:1039E00030F3982F909520953095409550958F30D5
:1039F00021F44E3FBFEF5B07E1F1E091D30461E0BA
:103A00006E0F6093D30461E070E0E11102C070E0DA
:103A100060E0811113C0E32FFF27EF70FF273F976E
:103A200069F48AE0869FF001879FF00D1124E0532E
:103A3000FB4F8FE085835187408711C092FFD5C02F
:103A40008AE0869FF001879FF00D1124E053FB4F21
:103A500084E085839370892F90E0918780878AE046
:103A6000869FF001879FF00D1124E053FB4F3783B1
:103A700026838091D3048A17B8F44AE09FEF21E0AF
:103A800030E0811102C030E020E0429FF001439F0E
:103A9000F00D1124E053FB4F958317821682118697
:103AA00010868F5FA813EBCF8091C6048093CB0460
:103AB0008091C7049091C8049093CD048093CC0466
:103AC0008091C9049091CA049093CF048093CE044E
:103AD0006091C4041092C4048E9A8BE290E0019726
:103AE000F1F78E9883E190E00197F1F750E040E024
:103AF00090E080E0E3E1F0E02FB1022E000C330B08
:103B00002227330F221F3327042E02C0220F331F18
:103B10000A94E2F7822B932B8D98DF011197F1F72E
:103B20008D9ADF011197F1F74F5F5F4F40315105DB
:103B300019F7792F72957F7010E17D3009F011E04F
:103B4000F0E0E0E050E040E0B3E1EB2EF12C2FB1EB
:103B5000022E000C330B2227330F221F33270E2E89
:103B600002C0220F331F0A94E2F7422B532B8D9889
:103B7000D7011197F1F78D9AD7011197F1F7319687
:103B8000E11728F3272F20958C010095109540957B
:103B900050957F3029F44E3FBFEF5B0709F447C0D3
:103BA0008091C40491E0980F9093C404E1E0F0E0A8
:103BB000811102C0F0E0E0E08AE08E9FD0018F9F8B
:103BC000B00D1124AF53BB4F71111AC0812F99272B
:103BD0008F7099270F97A1F48FE015968C93159706
:103BE00019965C934E93189717C09AE0969FF00130
:103BF000979FF00D1124E053FB4F9FE089271ACFC8
:103C000022FFF1C084E015968C931597237030E065
:103C100019963C932E9318972AE02E9FC0012F9F50
:103C2000900D1124FC01EF53FB4F17830683E091A5
:103C3000C404ED8BE617C0F48E2F4AE09FEF21E01D
:103C400030E0811102C030E020E0429FF001439F4C
:103C5000F00D1124EF53FB4F9583178216821186C6
:103C600010868F5F6813EBCF9090D304FD89F90D18
:103C7000FC8B24E434E03F8B2E8BD12C512C809193
:103C800030013C893D1509F456C1D81609F453C1D9
:103C9000BB24B394D91408F4B12C21E030E0D9143A
:103CA00008F0A7C0D11002C030E020E06AE0629FB7
:103CB000A001639F500D1124DA01AB52BB4F3D01AF
:103CC000823089F4992079F0CD010E946A0AEB2DA7
:103CD000F0E0EE0FFF1F21E030E02C0F3D1FE20F60
:103CE000F31F91838083D3018C9115969C91159736
:103CF000891323C011964D915C91129716962D91C0
:103D00003C9117974217530759F413964D915C91C4
:103D1000149718962D913C914217530709F45BC0F4
:103D2000811119C0F301838194810196A1F4D3011B
:103D300018968D919C91019671F08D2D0E94560AD6
:103D400080913001823039F4C3010E946A0ABC01BB
:103D50008B2D0E94A32CC3010E946A0A1C01F3014F
:103D600081819281DC01A095B095F4E0B695A7958C
:103D7000FA95E1F71A2F1F709C0121703327AC01CF
:103D80005695479570E060E0417055276627772784
:103D9000F2E02F16310409F04FC0232B09F04260E6
:103DA00082FD516083FD5260AE89BF89ED91FC9127
:103DB000438354836583A12FB0E0A25DBC4F8C91F7
:103DC0008683CF010E94970D80913001823009F4E3
:103DD00073C055245394D3946E897F896E5F7F4F4F
:103DE0007F8B6E8B4CCF9FE0972715969C931597F2
:103DF000F7CED91002C030E020E0BAE0B29FA001B7
:103E0000B39F500D1124FA01EA53FB4F3F0182305A
:103E100009F069CF3D89332309F465CFCF010E94B2
:103E20006A0AEB2DF0E0EE0FFF1F61E070E06C0F0F
:103E30007D1FE60FF71F55CF232B09F0426090FD41
:103E4000446091FD486092FD406193FD406224E032
:103E50002216310421F5D30113962D913C9134FDA6
:103E6000406435FD406820FD546021FD586022FD0E
:103E7000506123FD506224FD506425FD506826FDED
:103E8000616027FD626030FD646031FD686032FD75
:103E9000606133FD606237FF83CF606481CFB5E03E
:103EA0002B16310409F07CCFF301238120FD4064FF
:103EB00021FF76CF406874CF7EEA472E72E0572EFE
:103EC0001B8A8B2D90E0880F991FFC01E655FD4F52
:103ED000F98FE88FF2E02F16310441F42B89283056
:103EE00008F5F201E05AFF4F243008F0F201E080BB
:103EF000F18002811381D30111968D919C918E21C5
:103F00009F21CC24C394892B09F4C12C1F92878054
:103F1000A68024814581E88DF98D60818B2D0E94DA
:103F2000E40C0F90FB89FF5FFB8B28E0420E511CD5
:103F3000FC3081F64ECF09811A81823079F480916C
:103F4000090190910A018017910741F001151105AF
:103F500029F470E060E080E00E94A32C10930A0135
:103F6000009309010B811C8180913001823079F42A
:103F700080910B0190910C018017910741F0011580
:103F8000110529F470E060E081E00E94A32C1093F9
:103F90000C0100930B0180911D047C897817C0F4FB
:103FA000172F80911D04181798F48091300118176D
:103FB00079F0812F0E94560AE12FF0E0EE0FFF1FEB
:103FC000EC5BFB4F808191810E94970D1F5FE9CFD1
:103FD0008C8980931D0426CC10921C0450905104AF
:103FE000552009F4EBC250905504511003C00E94B3
:103FF000B62A18CC80915704909158040E94CB089F
:10400000582E811103C0109255040CCC8091FE03F0
:10401000811113C080913B0490913C04092E000C47
:10402000AA0BBB0B8093FA039093FB03A093FC03B2
:10403000B093FD0381E08093FE03188A1F861E86DD
:104040001D861A8219828091570490915804DC01D0
:1040500096962D913C919797512C2630310599F4E5
:104060009C965C90552079F08E010F5F1F4F9E014A
:10407000235F3F4FAE01415F5F4FBE01605F7F4FE7
:104080000E94032A582E8D859E8510E00497F9F42E
:104090008091F8039091F9039E878D87019709F02D
:1040A00020C18EEF888B8FEF8F871092F7031092CD
:1040B000F6031092F5031092F4038F8590E0982F89
:1040C00088278E6F9093F3038093F20310E86D8539
:1040D0007E856115710521F07093F9036093F803F3
:1040E0004F858889342F282F3093F1032093F003D4
:1040F000A0915704B091580494968D919C919597F6
:10410000809590957C01EE0CFF1CEE0CFF1CE4E00A
:10411000EE22FF24AC014C7FE42AF52AF092EF0353
:10412000E092EE035110F7C0AC01442751709C019E
:1041300022273270BC01662773706115734009F045
:10414000D4C01092430421E094FD09C023E095FD02
:1041500006C027E096FD03C097FF03C02FE0209321
:10416000420421E030E084FD0CC022E030E085FD17
:1041700008C024E030E086FD04C087FF06C028E0C8
:1041800030E0309341042093400421E0AC01442707
:10419000547092FF20E093FB882780F92817A9F03C
:1041A00062E0452B09F461E060933F0470E080EA2F
:1041B00090E00E94EF3470933E0460933D04759547
:1041C000679570933C0460933B048091430463E8DB
:1041D00071E0813051F06AE871E0813030F06DE7D4
:1041E00071E0823011F060E771E081E00E94B92B4C
:1041F00069E671E082E00E94B92B6091420470E0B0
:1042000090E080E04AE00E94F22D60E671E083E0F9
:104210000E94B92B80914004909141040E94402E4D
:1042200069E571E084E00E94B92B80913F04813000
:1042300009F06EC08EE091E00E94402E81E00E9465
:10424000830D68EC70E080E090E00E94DA030E9449
:10425000B62A8091570490915804FC0126A137A1F9
:104260002630310589F424A5222371F08E010F5FD9
:104270001F4F9E01235F3F4FAE01415F5F4FBE0165
:10428000605F7F4F0E94032A1092F7031092F6039B
:104290001092F5031092F40380913B0490913C043A
:1042A000092E000CAA0BBB0B8093FA039093FB031F
:1042B000A093FC03B093FD038091F0039091F10370
:1042C0009093F3038093F20380914304833009F0C9
:1042D000A9CA8091EC0387FF6CC18F5F8093EC03C8
:1042E000A1CA8EEF888B1F86E0CEBC0166277C704A
:1042F00061157C4039F0452B49F4232B09F423CF79
:1043000022E001C023E0209343041DCF21E0FBCF36
:1043100087E890E091CFD0904304E0913D04F09184
:104320003E04672B09F454C08091F2039091F3038B
:10433000A901481B590B8091F4039091F503840F58
:10434000951F9093F5038093F403DD2019F063E04B
:10435000D6123EC01092ED03052E000C660B770BB3
:104360008090FA039090FB03A090FC03B090FD03B3
:10437000480D591D6A1D7B1D4093FA035093FB03A2
:104380006093FC037093FD0377FF08C01092FA035B
:104390001092FB031092FC031092FD03AF010F2E4D
:1043A000000C660B770B8090FA039090FB03A090B3
:1043B000FC03B090FD03481559056A057B0544F4DC
:1043C0004093FA035093FB036093FC037093FD0347
:1043D0004F010F2E000CAA08BB088FEF8D0D823005
:1043E00008F0A2C040913B0450913C0488279927D3
:1043F000841B950B281739070CF06FC01092FA0335
:104400001092FB031092FC031092FD0371E0D7128F
:1044100073C081E08093ED03809142048F708063CC
:10442000812BDD968C932091F6033091F703A090B9
:104430004004B09041048091F4039091F503821BF5
:10444000930BB5010E94EF3461384FEF740714F4F9
:1044500061E87FEF8B016038710514F00FE710E021
:104460000A9DC0010B9D900D1A9D900D1124820F85
:10447000931F9093F7038093F603C02E2091FA03C5
:104480003091FB034091FC035091FD03AFEFB0E08E
:104490000E94B3349F01FF0F440B550B0E949434CC
:1044A000B22E322F63E0D61252C080EC07FD03C05B
:1044B000002319F08FE38093EC032091EC0327FF96
:1044C0003BC06894E0F8F092EF03E092EE03809135
:1044D000EE039091EF038D7F36C04217530784F4AB
:1044E0008092FA039092FB03A092FC03B092FD032A
:1044F00081E0D81609F48DCF81E08093ED0314C0DC
:1045000091E0D91202C01092ED03420F531F70E0E8
:1045100060E04093FA035093FB036093FC037093B5
:10452000FD0322E0D21641F38091ED03813009F4BE
:1045300073CFDD961C9377CF8091EE039091EF03BC
:104540008260222321F29093EF038093EE03E090A8
:10455000EE03F090EF038091EA039091EB038E1548
:104560009F0541F48091E903381304C08091E8036A
:10457000C816E9F0F092EB03E092EA03B092E90387
:10458000C092E80381E00E94732AE0914404F09114
:1045900045047FE0E722E382F48280915004811198
:1045A00002C0B7820683CF010E94970D85CE512CA1
:1045B00083CE882309F436C9815090CE80911A04A5
:1045C00081115FC080911B0481115BC080915504F3
:1045D00081110DC08091BB049091BC04DC01ED9170
:1045E000FC910680F781E02D099580935504809316
:1045F0001A048091560481110DC08091BD049091E0
:10460000BE04DC01ED91FC910680F781E02D099557
:104610008093560480931B0481E00E94830D07E081
:1046200027E04FE760E089EA95E00E94A00C67E090
:1046300089EA95E00E94160B60E089EA95E00E9405
:10464000220B80911A0481110BC080911B048111EF
:1046500003C08DEB91E002C089EB91E00E94850CD4
:1046600062E489EA95E00E94220B90911A048091FD
:104670001B04992379F1811104C089EB91E00E9418
:10468000850CABEBAA2EA4E0BA2EB8E1CB2EB4E099
:10469000DB2E1AE1812E14E0912E05E514E0F12CB9
:1046A000EE24E394F501819191915F019093580478
:1046B00080935704D6011D926D01F40121914F01A1
:1046C00021110DC00F5F1F4FF1E0FF1621F1FF24F4
:1046D000F394E8CF8111CFCF8DEB91E0D0CFD8010B
:1046E0002C912111B5C0DC01ED91FC910680F78180
:1046F000E02D0995882359F0F801E082E0915704F4
:10470000F091580466A177A18F2D0E94472C8091CB
:1047100054048823B9F2E12C44244394F0E83F2E5A
:1047200080913001E81608F07DC88E2D90E0FC01E4
:10473000EB5AFB4F2081222309F4C4C0FC01E85E40
:10474000FB4FD080DD2009F4BDC0880F991FFC010C
:10475000E554FB4F008111811093580400935704D6
:10476000F0905304F110AEC0C0905404CC2009F472
:10477000ABC180910F04882309F4B3C081E00E948B
:10478000830D10910F04113009F06EC0A0905704F2
:10479000B090580468E070E0C5010E949F2AF82E8E
:1047A00080910C048150F1100BC060E070E4C501F1
:1047B0000E949F2AF82E882329F080910C048F5F95
:1047C00080930C04A0905704B090580460E070E20D
:1047D000C5010E949F2A882329F091E0910F9093B0
:1047E0000F04F82EF50186A197A1079791F484A5EF
:1047F000882379F082A593A560A571A581309105E4
:1048000009F096C26530710521F06A30710509F032
:104810008FC2FF2089F080910F04813009F059C0C8
:1048200065E971E083E00E94B92B80910C04082EA9
:10483000000C990B0E94402E50900D04552009F455
:1048400040C080914404909145040E94970D3AC065
:104850000E94CB08F60131978083811158CFD8018F
:104860001C9270E060E050CF1230F1F4A090570439
:10487000B090580468E070E0C5010E949F2AF82EAD
:10488000809106048150F1100CC060E070E4C50115
:104890000E949F2AF82E882309F494CF8091060461
:1048A0008F5F809306048ECF133009F08BCF109268
:1048B0000F0405E024E04FE760E089EA95E00E94FC
:1048C000A00C5C2C80911C048F5F80931C04E394EB
:1048D00027CF62E971E083E00E94B92B8091060442
:1048E000A6CF80910E04811114C0809150048111D3
:1048F0007AC080910D04811176C040920E044092DE
:104900000D0462EB71E081E00E94B92B81E00E940E
:10491000830D50900E045520A1F2E0915704F091C0
:10492000580424A135A12095309535FB882780F9BE
:1049300023FD826036FD846000914404109145049B
:10494000D80113968C9386A197A18230910508F423
:10495000B9CF8430910508F417C2079709F0B2CF98
:1049600084A5882309F468CF82A593A560A571A5C5
:104970008130910509F0EBC16530710509F45CCF18
:104980006A30710509F0E3C18091090490910A042D
:10499000009709F066C084A195A1809590959C012F
:1049A000287030722830304209F046CF96FF44CF4D
:1049B00010920E0480910D04882331F0D8011396D3
:1049C0001C92C8010E94970D81E00E94830D68E946
:1049D00071E082E00E94B92B68EE73E080E090E025
:1049E0000E94DA03D1C160E070E2C8010E949F2AF0
:1049F000811107C068E070E0C8010E949F2A8823E7
:104A000059F040920E0444E060E089EA95E00E948B
:104A1000400B0E94932B55CF60E070E4C8010E94C8
:104A20009F2A582E882309F471CF40920E04409299
:104A30000F046BEA71E082E00E94B92B68EA71E032
:104A400083E00E94B92B80910C04082E000C990B76
:104A50000E94402E6CE271E080E090E00E94DA0358
:104A600031CF60910704709108046115710509F454
:104A700092CF20910604620F711D27FD7A95209137
:104A80000C04820F911D27FD9A950E94662A809141
:104A90000B048F5F80930B048F3F09F0CDCE1092F3
:104AA0000B0410920A041092090410920804109248
:104AB000070480910D04882309F4BECEF801148206
:104AC00015821682178260C1B0901C0499249394B9
:104AD000F80122A133A184A195A12817390709F46F
:104AE000912CD80196966D907C900B2D10E0000FC4
:104AF000111FF801E05FFB4F8081918168167906F4
:104B000021F0B3018B2D0E94472CE1E0F0E0EC0F87
:104B1000FD1FE00FF11F71826082C30101970597AD
:104B200008F0B2C080E00E94732AE0915704F0912F
:104B30005804FF8BEE8B84A195A180959095292F29
:104B4000221F2227221F30E096FD226095FD24605F
:104B500094FD286092FD206193FD206290FD206409
:104B600091FD206880FD316083FD326081FD3460FD
:104B700082FD3860AE89BF899896FC909897999687
:104B80002C90999780911C0490E0FC01EE0FFF1F80
:104B9000EC5BFB4F0190F081E02D9C964C914423FF
:104BA00009F466C0B5E06B16710409F461C0F782C0
:104BB0002086AC014A5F5E4FDA01CC90BC016C5F8D
:104BC0007E4FCF105CC0DB01CC90C21058C0DA0120
:104BD000FC92DB012C92AE89BF899A965C919A97E0
:104BE0009B964C919B979C966C91662329F0B5E01F
:104BF0006B16710409F045C03186328640E850E8F2
:104C0000BC016E5F7E4F7F8B6E8BDB016C918050A1
:104C10009F4F651305C0DC016C91641301C0D92C52
:104C2000AE89BF895C93DC014C9323833483158266
:104C3000DD2079F0CF010E94970DB1E0BB1548F05F
:104C4000409157045091580420E0B3018B2D0E94ED
:104C5000CA2BD801A05FBB4FE1E0F0E0EC0FFD1FD5
:104C6000E00FF11F808191818D939C935D282ACE66
:104C70003782308640E8242E50E8F52E9ACF9D2CBE
:104C8000A6CF51874287BCCFD92CE3CF0E940C041A
:104C90006093140470931504809316049093170482
:104CA0000C94261CE0905904F0905A040E94C60708
:104CB0000E944A0D10E000E062E070E080E090E0C9
:104CC0000E94DA034E990CC06CE271E080E090E043
:104CD0000E94DA030E94C6070E944A0D10E000E01D
:104CE0000F5F1F4F003DF7E01F0731F76091590438
:104CF00070915A046E157F0521F40E944A0D0C94A0
:104D0000501C90E080E00E94863489EA95E00E9481
:104D1000D50C8CEC91E00E94850C88E19EE00FB6EA
:104D2000F894A895809360000FBE90936000FFCF29
:104D300020910604620F711D27FD7A9520910C04C5
:104D4000820F911D27FD9A950E94662A62CD1092CE
:104D50000B0490930A0480930904709308046093F1
:104D6000070420910D04222309F466CD2091060446
:104D7000620F711D27FD7A9520910C04820F911D01
:104D800027FD9A950E94662A80910E04811154CDC8
:104D900098CD1F920F920FB60F9211242F933F932D
:104DA0008F939F93AF93BF9380915C0490915D0428
:104DB000A0915E04B0915F0430915B0423E0230F67
:104DC0002D3758F50196A11DB11D20935B048093EA
:104DD0005C0490935D04A0935E04B0935F048091A3
:104DE000600490916104A0916204B0916304019603
:104DF000A11DB11D8093600490936104A09362048F
:104E0000B0936304BF91AF919F918F913F912F9188
:104E10000F900FBE0F901F90189526E8230F029653
:104E2000A11DB11DD2CF1F920F920FB60F92112468
:104E30008F939F938091E1009091E100937F9093F5
:104E4000E10083FF0FC01092E90091E09093EB0026
:104E50001092EC0092E39093ED001092650498E0BC
:104E60009093F00082FF22C093E09093E90090912C
:104E7000F200992319F09AE39093E8009091380496
:104E8000992341F0909138049150909338049111F6
:104E900001C05D9A90916404992341F0909164045B
:104EA000915090936404911101C0289A84FF18C016
:104EB0008091E2008E7E81608093E2008091E1002B
:104EC0008F7E8093E100809139048E7E8061809393
:104ED00039049F918F910F900FBE0F901F901895DE
:104EE00080FFF7CF8091E2008E7E80618093E200A8
:104EF0008091E1008E7E8093E100809139048E7E66
:104F00008160E5CF1F920F920FB60F921124CF92BE
:104F1000DF92EF92FF920F931F932F933F934F9344
:104F20005F936F937F938F939F93AF93BF93EF9311
:104F3000FF93CF93DF93CDB7DEB76C97DEBFCDBFC6
:104F40001092E9008091E80083FF25C068E0CE015F
:104F500045960E946B0582EF8093E8008D8987FF5C
:104F600039C09091E80090FFFCCF982F907609F01F
:104F700034C19E894F89588D2F89F88C911131C089
:104F8000803861F580913A048093F1001092F1002D
:104F90008EEF8093E8006C960FB6F894DEBF0FBEDC
:104FA000CDBFDF91CF91FF91EF91BF91AF919F91D5
:104FB0008F917F916F915F914F913F912F911F91B1
:104FC0000F91FF90EF90DF90CF900F900FBE0F905A
:104FD0001F9018959EEF9093E800C7CF1092F100B4
:104FE000D5CF913059F48111D3CF4130510581F69D
:104FF00080913A048D7F80933A04CACF933049F46C
:105000008111C6CF4130510519F680913A04826072
:10501000F2CF953041F48091E80080FFFCCF20680A
:105020002093E300B5CF963009F0A9C00B8D1C8DFD
:1050300022E01092E9001092360410923504F21228
:105040002EC010923404109233040E94B9051F82BE
:1050500099E09983FA8291E09E8390EA98879AEF8B
:1050600099872091350430913604275F3F4F3C8368
:105070002B838D831092E900109236041092350430
:10508000109334040093330449E050E0BE016F5F95
:105090007F4F80E00E947F040E94B90579CF109372
:1050A0003404009333040E94A505DC0112960D918F
:1050B0001C910115110509F451C1D801ED91FC9124
:1050C0000480F581E02DBE016B5E7F4FC80109951C
:1050D000009709F03EC1F80100851185EACFF3E0A1
:1050E000FF120EC08F89882309F440C0823061F41A
:1050F00040E860E186E792E00E944C04811148CFCD
:1051000081E28093EB0047CF813029F440E86BE0E7
:105110008AE692E0F1CF833099F70E94A505DC0181
:105120001296ED90FC908E010F5F1F4F6801E11405
:10513000F10479F0D701ED91FC910680F781E02D23
:10514000B801C7010995080F111DF701E084F1842A
:10515000EECFD8011C92F60101900020E9F73197BB
:10516000BF016C197D0940E0C601C6CF64E572E05D
:10517000FB01449150E080E80E947F0409CF973002
:1051800009F4BECF983021F481E08093F10000CF84
:10519000993009F0FDCE837009F0B2CFE4E2F1E07E
:1051A00081E031E096E32191222371F08093E900C0
:1051B0003093EB00DF0111972C912093EC0090933A
:1051C000ED008F5F873079F78EE78093EA001092C9
:1051D000EA008F8980936504DBCE8B8D9C8D1092C5
:1051E000E9001092360410923504909334048093B1
:1051F0003304898D811192C08E899D89913A49F439
:10520000813209F07DCF47E050E061E371E080E05A
:10521000B3CF913209F074CF833269F48F89988DBE
:10522000B0E0A0E080932A0190932B01A0932C0181
:10523000B0932D01ADCE803269F48091E80082FFF9
:10524000FCCF67E081E391E00E946B058BEF8093D8
:10525000E8009ECE823209F09BCE8F898093380180
:10526000EEEFFFE7859194918B3F9C4D51F1E0E08B
:10527000F8E08091310190913201A0913301B09119
:105280003401803B9440A105B105F1F480913801CF
:1052900080FD1AC0EE3F8AE0F80789F587E797E7B7
:1052A00091838083809160008093370488E19BE044
:1052B0000FB6F894A895809360000FBE909360009D
:1052C00067CEEEEFFAE0D5CF80819181873797479F
:1052D00009F05ECEA895809160008861809360009F
:1052E0008091370480936000EE3F2AE0F20789F056
:1052F0008091FE0A9091FF0A9183808349CE80813C
:1053000091818737980751F29093FF0A8093FE0AA4
:10531000C5CF1092FF0A1092FE0A3ACE0E94A50550
:10532000DC0112960D911C910115110509F4E8CECE
:10533000D801ED91FC910190F081E02DBE016B5EF2
:105340007F4FC8010995811123CEF8010085118591
:10535000EBCF181619060CF41BCED2CEF1E0FF12DB
:10536000BECE68E572E004CF1F93CF93DF93EC01CC
:1053700080E888A789A78AA78BA71CA6FE01BD96EF
:105380008CE0DF011D928A95E9F71FA21EA21AAEDA
:105390001BAE1CAE1DAE15E0CE010E94CB0861E035
:1053A00070E080E090E00E94DA031150A9F7CE018E
:1053B000DF91CF911F910C94CB08CF93DF93EC0139
:1053C000849A8C9A229A2A9A219A299A23982B981D
:1053D0002B9A0E94EA05CE01DF91CF910C94B4295B
:1053E000CF93DF93EC013E9A469A229A2A9A219A09
:1053F000299A23982B982B9A0E94EA05CE01DF91D7
:10540000CF910C94B4290F931F93CF93DF93EC01AA
:10541000F9018DA5DB018C938EA5DA018C939FA5F4
:105420009F709130D9F038F09230E9F09430F1F07B
:105430008FE090E015C0118210828FA5807F8038A8
:10544000C1F0803CE1F0811120C0F801118210828E
:1054500081E0DF91CF911F910F91089581E090E05D
:1054600091838083EACF82E090E0FACF84E090E0FD
:10547000F7CF80E890E0D8018D939C93E9CF80EC42
:1054800090E0F80191838083E3CF80EF90E0F3CF49
:105490008F3489F0823079F0863181F0833181F068
:1054A000803E81F0813E81F021E090E08F3F09F461
:1054B00020E0822F089584E090E0089585E0FCCFFD
:1054C00086E0FACF82E0F8CF83E0F6CF20910D049A
:1054D000222341F0E0914404F091450484839583B4
:1054E000668377830895E0915704F091580444A1AE
:1054F00055A1409550959A0154E0369527955A95B7
:10550000E1F791E029272170332746FF226047FF0A
:10551000246045FF2860E0911C04F0E0EE0FFF1FBF
:10552000EC5BFB4F0190F081E02D225D3C4FD901F7
:105530009C91882311F09583089596830895FC012A
:1055400024A135A142A153A1422753274623572323
:1055500091E0452B09F490E0209530956223732368
:1055600081E0672B09F480E0892308958F929F9250
:10557000BF92CF92DF92EF92FF920F931F93CF9340
:10558000DF93CDB7DEB729970FB6F894DEBF0FBE15
:10559000CDBF8091570490915804DC01ED91FC91AE
:1055A0000680F781E02D0995882309F4AAC081E0DF
:1055B0008093550480915704909158040E94080AE2
:1055C000882309F498C0009157041091580489E089
:1055D000E1EAF2E0DE01119601900D928A95E1F781
:1055E0001D820E940C046B017C01B12CD801ED914D
:1055F000FC910190F081E02DC801099545E0BE01C4
:105600006F5F7F4FC8010E9433084C01D801ED91B4
:10561000FC910280F381E02DC8010995892809F0E9
:10562000B394B2E0BB1588F06AE070E080E090E0EF
:105630000E94DA030E940C046C197D098E099F09EF
:105640006B3F71058105910588F262E370E080E0AF
:1056500090E00E94DA03009157041091580489E009
:10566000E8E9F2E0DE01119601900D928A95E1F7EA
:105670000E940C046B017C01B12CD801ED91FC91CE
:105680000190F081E02DC801099545E0BE016F5FF2
:105690007F4FC8010E9433084C01D801ED91FC9165
:1056A0000280F381E02DC8010995892809F0B3949F
:1056B000B2E0BB1588F06AE070E080E090E00E9404
:1056C000DA030E940C046C197D098E099F096B3F57
:1056D00071058105910588F262E370E080E090E059
:1056E0000E94DA0381E0F80182AF80915704909123
:1056F00058040E947D0880915704909158040E949C
:10570000CB0829960FB6F894DEBF0FBECDBFDF9150
:10571000CF911F910F91FF90EF90DF90CF90BF90AE
:105720009F908F9008950F932091AE05E091B4055E
:10573000F091B50500E0309771F03396E491F0E018
:10574000379683E0F595E7958A95E1F70091B705DF
:105750000E9F002D1124EFEFE20F0E0F4091AF05C9
:1057600041506091AD0589EA95E00E94A00C0F912F
:105770000895CF93DF93EB0142E0480F60E089EAA0
:1057800095E00E94400B0E94932BCE01DF91CF91B8
:105790000C94850C2F923F924F925F926F927F9262
:1057A0008F929F92AF92BF92CF92DF92EF92FF9231
:1057B0000F931F93CF93DF9300D000D0CDB7DEB708
:1057C000B82E2B011A01922E88E192E09C838B83E4
:1057D000D12CFB013297FA83E9836B2C712C660C78
:1057E000771CC30186559D4F3C01E981FA813297B0
:1057F00070F08FEF8D0D823050F1F5E04F165104AF
:1058000031F4DD2021F188EF8D0D823000F1EB8144
:10581000FC81E080F1800281138124814581A68092
:1058200087802114310459F0F10184A195A180955C
:1058300090958E219F21CC24C394892B09F4C12CEF
:105840009F92F30160818B2D0E94E40C0F90D39402
:105850008B819C8108969C838B8390E1D912C5CF64
:105860000F900F900F900F90DF91CF911F910F919C
:10587000FF90EF90DF90CF90BF90AF909F908F9070
:105880007F906F905F904F903F902F900895FF9280
:105890000F931F93CF93DF93182FEB01E82FF0E0C6
:1058A000EE0FFF1FE655FD4FF08007E023E041813A
:1058B0006F2D89EA95E00E94A00C47E06F2D89EAE0
:1058C00095E00E94400BC430D105A1F188F4C130AD
:1058D000D10531F186E191E0C230D10589F08DEB3F
:1058E00091E0DF91CF911F910F91FF900C94850C67
:1058F000C530D105A9F083E091E0C630D10579F734
:105900000E94850C1230C8F421E050E040E0BE0156
:10591000812FDF91CF911F910F91FF900C94CA2B93
:1059200080915304811103C080E291E0E9CF88E2C5
:1059300091E0E6CF8AE091E0E3CFDF91CF911F9134
:105940000F91FF9008955F926F927F928F929F9236
:10595000AF92BF92CF92DF92EF92FF920F931F937D
:10596000CF93DF93D82EEB01E82FF0E0EE0FFF1F6F
:10597000E655FD4F908007E023E04181692D89EADB
:1059800095E00E94A00C47E0692D89EA95E00E940D
:10599000400BC330D10509F462C0C0F48FEF90E032
:1059A000C230D105E1F08DEB91E0DF91CF911F91F5
:1059B0000F91FF90EF90DF90CF90BF90AF909F90AE
:1059C0008F907F906F905F900C94850CC430D105C0
:1059D00009F448C081EF90E0C530D10521F70E945D
:1059E000850C82E0D81659F18EEA682E82E0782E76
:1059F000B12C55245394C230D10549F487E08B155E
:105A0000B8F083E0F301E05AFF4F8B1508F4F3017F
:105A1000E080F180028113815F928780A680CC2490
:105A2000C39424814581692D8D2D0E94E40C0F9033
:105A3000B39488E0680E711C8CE0B812DCCFDF9163
:105A4000CF911F910F91FF90EF90DF90CF90BF907B
:105A5000AF909F908F907F906F905F9008958AEFA6
:105A600090E0BDCF86EF90E0BACF2F923F924F9259
:105A70005F926F927F928F929F92AF92BF92CF92DE
:105A8000DF92EF92FF920F931F93CF93DF93B82E85
:105A90002B011A01922EC9E9D1E0D12C682E712C6C
:105AA000660C771CC30186559D4F3C0192E0491658
:105AB0005104B1F4E8E0DE121AC0DF91CF911F91DA
:105AC0000F91FF90EF90DF90CF90BF90AF909F909D
:105AD0008F907F906F905F904F903F902F900895A0
