:100000000C94F2010C941A020C941A020C941A0229
:100010000C941A020C941A020C941A020C941A02F0
:100020000C941A020C941A020C94B5250C942426F4
:100030000C941A020C941A020C941A020C941A02D0
:100040000C941A020C941A020C941A020C941A02C0
:100050000C941A020C941A020C941A020C946B253C
:100060000C941A020C941A020C941A020C941A02A0
:100070000C941A020C941A020C941A020C941A0290
:100080000C941A020C941A020C941A020C941A0280
:100090000C941A020C941A020C941A020C941A0270
:1000A0000C941A020C941A020C941A02AED580A871
:1000B0003FD300408D142002A1C8DA12817FD9F10C
:1000C000DB40A4A6AF5341542D574845454C00533F
:1000D00041542D33440053415455524E0047454E30
:1000E000455349532D360047454E455349532D330B
:1000F0000056424F59004E545400534E4553004E43
:100100004553004E4F4E45005043452D3600504359
:10011000452D320047454E45534953202B2053412E
:100120005455524E0050432D454E47494E45004EC2
:100130004553202B20534E4553004D554C54492DCB
:10014000544150004D554C54492D54415000524596
:10015000424F4F54494E472E2E2E004D554C544978
:100160002D5441500000030C0F30333C3FC0C3CC32
:10017000CFF0F3FCFF080B000202020000090400AC
:100180000001020200000524001001052401010104
:10019000042402060524060001070581031000401F
:1001A00009040100020A00000007050202400000E5
:1001B000070583024000000403090412010002EF56
:1001C00002014041233680000101020301417264B3
:1001D00075696E6F204C4C430041726475696E6F97
:1001E000204C656F6E6172646F005245464C4558F5
:1001F00000000005072061000000000000005F0013
:10020000006070787060605048506003070F07030B
:100210000305090503081C3E7F7F081C22417F7FE0
:100220007F3E1C087F41221C08082A1C2A08080857
:100230003E08080050300000080808080800606008
:10024000000020100804023E5149453E00427F4014
:100250000042615149462141454B311814127F102B
:1002600027454545393C4A4949300171090503365E
:1002700049494936064949291E00363600003C7E68
:100280007E7E3C3C4242423C1414141414F0F0F0C4
:10029000F0F0F0909090F0324979413E7E111111CA
:1002A0007E7F494949363E414141227F4141221CDE
:1002B0007F494949417F090901013E414151327F4E
:1002C0000808087F00417F41002040413F017F082E
:1002D0001422417F404040407F0204027F7F040897
:1002E000107F3E4141413E7F090909063E415121AF
:1002F0005E7F09192946464949493101017F0101BB
:100300003F4040403F1F2040201F7F2018207F6338
:100310001408146303047804036151494543000041
:100320007F4141020408102041417F0000383C1EFB
:100330000F074040404040382412090720545454CD
:10034000787F484444383844444420384444487F03
:100350003854545418087E090102081454543C7F40
:100360000804047800447D40002040443D00007FA4
:1003700010284400417F40007C041804787C080465
:10038000047838444444387C1414140808141418AD
:100390007C7C080404084854545420043F44402002
:1003A0003C4040207C1C2040201C3C4030403C44D1
:1003B000281028440C5050503C4464544C44E0E015
:1003C000E0E0E000007F0000E0A0A0A0E008082A34
:1003D0001C08081C2A08080006090906AC00198038
:1003E00040008E2A11241FBECFEFDAE0DEBFCDBF62
:1003F00025E0AAE7B3E001C01D92AF3AB207E1F7EA
:1004000013E0A0E0B1E0E0E7F0E602C005900D9255
:10041000AA37B107D9F711E0C2EFD1E004C02197A4
:10042000FE010E94F62EC13FD107C9F70E94D62ACD
:100430000C9436300C940000FC01611109C08181DC
:100440009281807F480F592F511D52834183089517
:10045000613051F4818192818F7020E1429FA0012F
:100460001124480F591FF1CF623039F481819281F4
:10047000907F50E0542F4427F4CF633049F48181BA
:1004800092819F7050E0542F44275295507FE9CFBE
:10049000643011F443830895653011F44483089562
:1004A000663011F445830895673009F44683089552
:1004B000FC018091B903882311F13FB7F89482E0E1
:1004C0008093E9002091F200822F90E0181619061F
:1004D00014F481E090E0882339F0289844E64093B2
:1004E000B8034091F1004083222339F02091F200BB
:1004F000211103C02BE62093E8003FBF08958FEF42
:100500009FEF0895CF93DF931F92CDB7DEB7698336
:10051000DC01ED91FC910280F381E02D41E050E09F
:10052000BE016F5F7F4F09950F90DF91CF910895C6
:1005300083E08093E9008091F200882319F08AE338
:100540008093E8000895CF93DF931F92CDB7DEB775
:10055000FC018485958597FD08C02FEF3FEF358717
:1005600024870F90DF91CF910895CE0101960E94CC
:100570005802019719F4898190E0F3CF8FEF9FEF34
:10058000F0CF0F931F93CF93DF931F92CDB7DEB7BA
:100590008C01FC018485958597FF0BC0CE010196E7
:1005A0000E945802019771F4898190E0F8019587C3
:1005B0008487F801848595850F90DF91CF911F91F5
:1005C0000F9108958FEF9FEFF1CFFC018485958502
:1005D00097FD0BC09FB7F89482E08093E90080916B
:1005E000F2009FBF90E0019608959FB7F89482E0D3
:1005F0008093E9008091F2009FBF90E008953FB79B
:10060000F8948091B4039091B503A091B603B09192
:10061000B70326B5A89B05C02F3F19F00196A11D71
:10062000B11D3FBFBA2FA92F982F8827BC01CD013C
:10063000620F711D811D911D42E0660F771F881F9B
:10064000991F4A95D1F708958F929F92AF92BF92CA
:10065000CF92DF92EF92FF924B015C010E94FF026A
:100660006B017C010E94FF026C197D098E099F09B4
:10067000683E734081059105A8F321E0821A910834
:10068000A108B10888EEC80E83E0D81EE11CF11C59
:1006900081149104A104B10429F7FF90EF90DF9039
:1006A000CF90BF90AF909F908F90089540919B0303
:1006B00050919C032091990330919A03421753075C
:1006C000B4F49091E8009570E1F39091E80092FD08
:1006D00019C08093F10080919B0390919C03019637
:1006E0008F739927892B19F48EEF8093E8008091FE
:1006F0009B0390919C03019690939C0380939B0392
:1007000081E0089580E00895EF92FF920F931F9388
:10071000CF93DF93F82E192FE62E042F81E0860F5A
:10072000880F0E94560383E00E945603CF2DD12FDD
:10073000EC0EFD2EF11CCE15DF05B9F007FF13C03E
:10074000FE0184910E945603182F80E00E945603F8
:10075000812321968111EFCFDF91CF911F910F91CE
:10076000FF90EF9008958881EDCF81E0F5CFDF9283
:10077000EF92FF920F931F93CF93DF93D82E8A01AE
:10078000EB017B01E40EF51ECE15DF0559F0D7FE17
:1007900012C0FE0184910E94560321968111F4CF6C
:1007A0000FEF1FEFC801DF91CF911F910F91FF90C5
:1007B000EF90DF9008958881EECF2FB7F89487707F
:1007C0008093E9009091E800892F807295FF04C022
:1007D0009091F20080E4891B2FBF089583E00E946E
:1007E000DD0390E008957F928F929F92AF92BF9227
:1007F000CF92DF92EF92FF920F931F93CF93DF93ED
:10080000C82E8B017A018091B903811110C08FEF3E
:100810009FEFDF91CF911F910F91FF90EF90DF90AD
:10082000CF90BF90AF909F908F907F9008958091D0
:100830009F0380FF05C08091E00082608093E0000C
:10084000CE2DDF2DD12C8AEFB82E8C2D8770982ECF
:100850008C2D8072882E8C2D8074782E9AE3A92E90
:10086000209719F4DD2009F452C08C2D0E94DD037D
:1008700081110AC0BA94BB2051F261E070E080E0BF
:1008800090E00E942403ECCF8C171D0611F00CF0B1
:100890008C2F9FB7F8949092E9002091E80025FDF5
:1008A00002C09FBFDDCF282F30E0C21BD30B8820B2
:1008B00029F08150A0F01092F100FBCFF801C7FCA5
:1008C0000AC0815050F041914093F100FACF449119
:1008D0004093F10031968150D0F7020F131FDD20B5
:1008E00021F0A092E800D12CDCCF8091E80085FDBA
:1008F00007C0A092E800DD24D394209791F2F3CFB3
:10090000209779F6772069F2A092E800CACF5D9827
:1009100084E680939E03C7017CCFCF93DF93EC01E5
:1009200080913601882331F083E00E94F30318168A
:10093000190634F081E090E09B838A8380E090E0A8
:10094000DF91CF910895615030F02091F100FC01CA
:1009500020830196F8CF289884E68093B803089501
:10096000AF92BF92CF92DF92EF92FF920F931F93BD
:10097000CF93DF936C017B018B01040F151FEB01FB
:100980005E01AE18BF08C017D10759F06991D601B2
:10099000ED91FC910190F081E02DC6010995892B24
:1009A00079F7C501DF91CF911F910F91FF90EF90E3
:1009B000DF90CF90BF90AF90089580919103811107
:1009C0000DC082E080938D0384E080938E031092AB
:1009D000900310928F0381E0809391038DE893E060
:1009E00008950F931F93CF93DF931F92CDB7DEB778
:1009F00082E0898342E450E065E771E080E80E948C
:100A0000B7030E94DD04DC0112960D911C910115C3
:100A1000110589F0D801ED91FC910280F381E02D60
:100A2000BE016F5F7F4FC801099597FD04C0F801B3
:100A300000851185ECCF89810F90DF91CF911F91B7
:100A40000F910895CF93DF93EC018A85882329F0D5
:100A500081508A87DF91CF9108959C818E8198176C
:100A6000C8F78D856827E881F9810084F185E02D3C
:100A700042E0CE0109958C818F5F8C83EBCFFC0126
:100A80008FE086838FE7878380871186128613869F
:100A90000895DC01FB0112962C91129784819581B7
:100AA0002817190641F491818081813A31F49D7FA4
:100AB00081E0913009F080E008958132E1F79B30C8
:100AC00029F482811F968C9381E008959A3099F7DA
:100AD000828150968C93F8CFEF92FF920F931F93E1
:100AE000CF93DF93FB012081213889F523812232C6
:100AF00071F5DC0112964C91248135814217130661
:100B000031F58C01FC01C385D485F12CE12C2097B3
:100B100091F04C815D816A817B818E81811180E8B9
:100B20000E94B7038F3F980759F0E80EF91E09900D
:100B3000D881C02DECCF81E0D8011F968C93C701DE
:100B4000DF91CF911F910F91FF90EF90089590E06A
:100B500080E0F6CFCF93DF93CDB7DEB769970FB6BE
:100B6000F894DEBF0FBECDBFFC01DB018C918F5F1F
:100B70008C939E012D5F3F4F8DE0D9011D928A9588
:100B8000E9F729E0298384E08A8391E09D8383E06B
:100B90008E832A8721E22B879C879D879F8722E26D
:100BA000288B27E02B8B25E02C8B8E8B20E430E0EC
:100BB000388F2F8B998F82818B8395858685998B32
:100BC0008A8B838180688D8B49E150E0BE016F5F25
:100BD0007F4F80E00E94B70369960FB6F894DEBF9E
:100BE0000FBECDBFDF91CF91089523B14FB13FB17B
:100BF0005FB126952170220F220F220F441F442738
:100C0000441F440F440F240F55FB442740F9240F81
:100C100036FB332730F9330F230F019721F01B994F
:100C200020611E992062822F089559B13CB143B1D1
:100C300063B136FB222720F9220F220F352F331FF5
:100C40003327331F330F330F330F230F65FB332746
:100C500030F9230F44FB332730F9330F230F01976B
:100C600021F03699206137992062822F0895469AA3
:100C70005C9883E090E0FC013197F1F75C9AFC010D
:100C80003197F1F75C980197F1F7089584E9809323
:100C9000BC0085E69091BC0094FF03C08150D1F761
:100CA000089581E008958091AD039091AE0301967F
:100CB000843091052CF49093AE038093AD03089596
:100CC00081E090E0F8CF90912E01891778F4E82F19
:100CD000F0E0EE0FFF1FEF55FC4F80819181DC01AA
:100CE000ED91FC910190F081E02D09940895FC01B3
:100CF0009081911107C0838194810196B1F090E0B9
:100D000080E008959F3051F4228130E02F70332726
:100D10002F30310581F482E090E00895923041F067
:100D2000943049F485E090E0089583E090E00895E0
:100D300084E090E0089581E090E00895FC018081D6
:100D40008783818192819187808783818287848153
:100D5000838785818487868185870895FC016093D8
:100D6000BC002FEF3FEF8091BC0087FF06C0909141
:100D7000B900987F908381E008952150310999F757
:100D800080E00895CF93DF93EC016093BB0064E8AB
:100D90000E94AE06882329F081E09881983209F0FC
:100DA00080E0DF91CF910895DF92EF92FF920F9351
:100DB0001F93CF93DF93EC01D62EF42E89898823DD
:100DC00029F0411103C00E944606198A8E01015F75
:100DD0001F4F8989811119C0E88864EAC8010E94FF
:100DE000AE06882361F08F85883011F0803139F4A8
:100DF000EE0CE092BB0064E8C8010E94AE0660E021
:100E0000F11060E4C8010E94C2066D2DC8010E9465
:100E1000C20682E0F8120BC089898F5F898BDF914F
:100E2000CF911F910F91FF90EF90DF9008950E9456
:100E30004606198AF4CFDC01ED91FC910084F1851E
:100E4000E02D40E00994FC01278126952695269502
:100E5000621720F46583606B0C941B0708950F9351
:100E60001F93CF93FC012681621798F4C62F8C0143
:100E700064836085C60F6C2F6F700E941B076C2FF8
:100E800062956F706061C801CF911F910F910C94B2
:100E90001B07CF911F910F9108951F93CF93DF935D
:100EA000EC01142F0E942F07612FCE01DF91CF910B
:100EB0001F910C9423072F923F924F925F926F9253
:100EC0007F928F929F92AF92BF92CF92DF92EF92DA
:100ED000FF920F931F93CF93DF9300D000D000D0E9
:100EE000CDB7DEB7FC01238534852115310509F422
:100EF00016C19E838D83F901329664903196449198
:100F0000E42EF12CF7E0EF0EF11C53E0F594E7949A
:100F10005A95E1F7E982F901349654913196E491BA
:100F20006D30F1F460E00E942F0781E090E026969A
:100F30000FB6F894DEBF0FBECDBFDF91CF911F91EA
:100F40000F91FF90EF90DF90CF90BF90AF909F9068
:100F50008F907F906F905F904F903F902F9008956B
:100F60006A3081F460E08D819E810E942F07ED81BF
:100F7000FE81868565818E9D600D1124CF010E94C2
:100F80002307D3CF651708F4CAC08E2F90E0FC0169
:100F9000E50FF11D6E171F060CF0C1C089010A5F35
:100FA0001F4F651BED81FE8171855685759F502D04
:100FB00011245C83F90154912F5F3F4FF901249173
:100FC000352F2230310508F06AC06E9CC0016F9C3D
:100FD000900D1124689FF001699FF00D11240E0FF0
:100FE0001F1F512CED81FE81F481FA83ED81FE817A
:100FF0002580F285FB83862C912CAA24A394B12C06
:10100000312C8981381608F086C0412CED81FE8193
:101010008685481608F078C08B818287311002C01F
:10102000442041F0ED81FE8145814F5F6A81CF010F
:101030000E944D07D12CC12CC61408F058C0F801ED
:10104000EC0DFD1D7490552061F0EA14FB0449F489
:10105000E72DF0E0052C02C0F595E7950A94E2F73C
:101060007E2EED81FE818685823081F4442009F454
:101070003AC072948FE07822E72DF0E0EB59FE4FF2
:101080007490672D8D819E810E942205672D8D8130
:101090009E810E9422058FEFC81AD80ACDCF4770D3
:1010A00028E0522E541A411101C0512CF801612C34
:1010B00030E020E0661631F04491240F311D639436
:1010C0003196F8CF600E712E711CF3016490E29E90
:1010D000F001E39EF00DF29EF00D11248E0F9F1F84
:1010E000080F191F7FCFF72DFF707F2EC5CFD12C92
:1010F000EC81DE1639F060E08D819E810E94220530
:10110000D394F6CF439482CF3394080D191DFFEF8B
:10111000AF1ABF0A76CF622D8D819E8130CF90E0CD
:1011200080E005CF0F931F93CF93DF938C01D0E026
:10113000C0E0F801EC0FFD1F6491662341F089E9DE
:1011400095E00E945B07892B11F02196F2CFCE012A
:10115000DF91CF911F910F910895CF92DF92EF927F
:10116000FF920F931F93CF93DF93EC01F62EC42EC3
:10117000D22E1A868F81869586958695081710F04F
:101180000FEF080F1D2D011780F0412F6F2DCE019D
:101190000E944D07EF2CCE1430F06D85CE010E94D9
:1011A0002205E394F8CF1F5FEECF4D2D6F2DCE01BA
:1011B000DF91CF911F910F91FF90EF90DF90CF9033
:1011C0000C944D070F93FC01078106950695069533
:1011D00001504681415020E060E00E94AD080F912F
:1011E00008954F925F926F927F928F92AF92CF92BB
:1011F000EF92FF920F931F93CF93DF93CDB7DEB79C
:101200002701380194E0899F80011124F801E658F4
:10121000FC4F80819181A281B3818E219521A621ED
:10122000B72131E0892B8A2B8B2B09F430E03C115C
:1012300003C08889882301F1C11001C0A82C2D5F4B
:10124000640F422F89E995E00E944D076A2D89E9D4
:1012500095E00E945B07F801E658FC4FCC20D1F0E6
:1012600080819181A281B38184299529A629B729FA
:1012700080839183A283B383DF91CF911F910F91DC
:10128000FF90EF90CF90AF908F907F906F905F9096
:101290004F9008954094509460947094808191810F
:1012A000A281B38184219521A621B721E1CF0F939B
:1012B00007E022E04FE760E089E995E00E94AD0891
:1012C0008091AD039091AE038230910579F0833027
:1012D0009105A1F00197D1F46CE089E995E00E94B5
:1012E0002F0784E191E00F910C94920864E289E960
:1012F00095E00E942F078FE291E0F5CF64E289E943
:1013000095E00E942F0785E291E0EDCF0F910895BF
:10131000809300016EEA81116FEA89E995E00E94ED
:101320001B072FB7F8948091B0039091B103A0915F
:10133000B203B091B3032FBF8093820390938303D2
:10134000A0938403B09385030895FC01448550E085
:10135000A585B0E0AA0FBB1FA454BC4F0D90BC9153
:10136000A02D13968C9180649091C003BF019923A6
:1013700021F06E5F7F4F0C94F3036D5F7F4FFBCFC7
:10138000089590E080E008952F923F924F925F92EF
:101390006F927F928F929F92AF92CF92DF92EF9255
:1013A000FF920F931F93CF93DF93CDB7DEB7C45651
:1013B000D1090FB6F894DEBF0FBECDBF3C012B01A3
:1013C000D42EF22E82E393E0D3018D939C93822F4F
:1013D00090E00196959587959091BA03981750F0F3
:1013E0009091BB0311E022242394312C981728F00C
:1013F00012E075C010E0312C212CF101E654FC4FB5
:1014000081E0890F808391116AC083E190E00E949E
:10141000FC2E4C0181E0F401848385839401265FD6
:101420003F4F378326831186108626E233E03183CF
:10143000208314861386168615868787808B528AAA
:10144000418A81EC82870E94DD04FC018181D40104
:1014500014965C91682F650F7727771F68307105A8
:10146000BCF5A281B381109739F593828282908175
:10147000D40112969C93129713968C9313971596FA
:101480008C91890F808390E080E0851708F5418179
:10149000A42FB0E0BD01695C7E4FD40116962D915A
:1014A0003C91280F391FD9012C91DB012C934F5F00
:1014B00041830196EACFD90118962D913C91199755
:1014C00021153105C1F719969C928E921897CFCFAE
:1014D000F101EE0FFF1FE454FC4F91828082F30173
:1014E000158781E0F2E0FF1508F080E08093C003EB
:1014F00088E393E0D30111969C938E931296DC922D
:101500001297602F6E0D5C2D5A0D862F850F95E07A
:10151000980F1C969C9325E0298391E09A8339E0EB
:101520003B832C8321EA2D839E83B2E0BF1508F014
:10153000C2C385E88F83D88698E0E1E0F0E0EC0F45
:10154000FD1FE90FF11D85E08083E1E0E90F8824AC
:101550008394912C8C0E9D1E8E0E911CF40139E00B
:101560003083E2E0E90FA1E0B0E0AC0FBD1FAE0FA9
:10157000B11DFD0129E12083E3E0E90F8824839474
:10158000912C8C0E9D1E8E0E911CF40121E0208367
:10159000E4E0E90FA1E0B0E0AC0FBD1FAE0FB11D5C
:1015A000FD0149E24083E5E0E90F88248394912C12
:1015B0008C0E9D1E8E0E911CF40178E1F72EF082A8
:1015C000A6E0A90FE1E0F0E0EC0FFD1FEA0FF11D2E
:1015D000DF01F5E1FC93A7E0A90F88248394912C07
:1015E0008C0E9D1E8A0E911CD4011C92A8E0A90F9E
:1015F00088248394912C8C0E9D1E8A0E911CD401FC
:1016000045E24C93A9E0A90F88248394912C8C0E79
:101610009D1E8A0E911CD4012C93AAE0A90F882448
:101620008394912C8C0E9D1E8A0E911CD401E5E7AB
:10163000EC93ABE0A90F88248394912C8C0E9D1E13
:101640008A0E911CD4012C93ACE0A90F88248394BA
:10165000912C8C0E9D1E8A0E911CD40175E97C93F1
:10166000ADE0A90F88248394912C8C0E9D1E8A0EC8
:10167000911CD401FC92AEE0A90F88248394912C94
:101680008C0E9D1E8A0E911CD4010F2EF1E8FF2EA8
:10169000F02DFC92AFE0A90F88248394912C8C0E3E
:1016A0009D1E8A0E911CD4016894DD24D1F8DC9231
:1016B000A0E1A90F88248394912C8C0E9D1E8A0E84
:1016C000911CD4018C93A1E1A90F88248394912CBF
:1016D0008C0E9D1E8A0E911CD4012C93A2E1A90FA1
:1016E00088248394912C8C0E9D1E8A0E911CD4010B
:1016F0003C93A3E1A90F88248394912C8C0E9D1E0A
:101700008A0E911CD40189E38C93A4E1A90F88244B
:101710008394912C8C0E9D1E8A0E911CD401FC93F7
:10172000A5E1A90F88248394912C8C0E9D1E8A0E0E
:10173000911CD4011C92A6E1A90F88248394912CBA
:101740008C0E9D1E8A0E911CD4014C93A7E1A90F0B
:1017500088248394912C8C0E9D1E8A0E911CD4019A
:1017600087E08C93A8E1A90F88248394912C8C0E98
:101770009D1E8A0E911CD40185E38C93A9E1A90FCB
:1017800088248394912C8C0E9D1E8A0E911CD4016A
:101790001C92AAE1A90F88248394912C8C0E9D1E83
:1017A0008A0E911CD40186E48C93ABE1A90F8824A6
:1017B0008394912C8C0E9D1E8A0E911CD4018BE378
:1017C0008C93ACE1A90F88248394912C8C0E9D1EE0
:1017D0008A0E911CD4012C93ADE1A90F8824839427
:1017E000912C8C0E9D1E8A0E911CD40185E68C9343
:1017F000AEE1A90F88248394912C8C0E9D1E8A0E35
:10180000911CD40184E18C93AFE1A90F88248394C7
:10181000912C8C0E9D1E8A0E911CD401EC93A0E29B
:10182000A90F88248394912C8C0E9D1E8A0E911CE6
:10183000D40188E08C93A1E2A90F88248394912C91
:101840008C0E9D1E8A0E911CD4017C93A2E2A90FDE
:1018500088248394912C8C0E9D1E8A0E911CD40199
:101860002C93A3E2A90F88248394912C8C0E9D1EA7
:101870008A0E911CD401FC92490FA4E2A90F88247E
:101880008394912C8C0E9D1E8A0E911CD401DC92A7
:10189000662309F4D8C0A1E0B0E0AC0FBD1FA40FCF
:1018A000B11D3C93A6E2A90F88248394912C8C0E41
:1018B0009D1E8A0E911CD4012C93A7E2A90F8824A7
:1018C0008394912C8C0E9D1E8A0E911CD401FC9346
:1018D000A8E2A90F88248394912C8C0E9D1E8A0E59
:1018E000911CD4011C92A9E2A90F88248394912C05
:1018F0008C0E9D1E8A0E911CD40126E22C93AAE226
:10190000A90F88248394912C8C0E9D1E8A0E911C05
:10191000D4012FEF2C93ABE2A90F88248394912C50
:101920008C0E9D1E8A0E911CD4011C92ACE2A90F54
:1019300088248394912C8C0E9D1E8A0E911CD401B8
:10194000EC93EDE2E90FA1E0B0E0AC0FBD1FAE0FEC
:10195000B11DFD018083EEE2E90F88248394912C70
:101960008C0E9D1E8E0E911CF4017083EFE2E90F28
:10197000A1E0B0E0AC0FBD1FAE0FB11DFD01608353
:10198000E0E3E90F88248394912C8C0E9D1E8E0E2B
:10199000911CF40181EA808382E3890FE1E3E90F7E
:1019A00061E070E06C0F7D1F6E0F711DFB011082F6
:1019B000002391F0E1E0F0E0EC0FFD1FE80FF11DD6
:1019C000308384E3890F9D5CE1E0F0E0EC0FFD1FC4
:1019D000E90FF11D90E39083EE20A1F0E1E0F0E04B
:1019E000EC0FFD1FE80FF11D99E09083E1E0E80F97
:1019F000A1E0B0E0AC0FBD1FAE0FB11DFD0191E342
:101A000090838E5FE1E0F0E0EC0FFD1FE80FF11D29
:101A100091E89083E1E0E80F88248394912C8C0E68
:101A20009D1E8E0E911CF40192E0908343E0480FBE
:101A3000E2E0E80F21E030E02C0F3D1F2E0F311DBA
:101A4000F90180EC8083552309F4DAC085E0E1E0F8
:101A5000F0E0EC0FFD1FE40FF11D8083E1E0E40FE7
:101A600061E070E06C0F7D1F6E0F711DFB0182E065
:101A70008083E2E0E40F81E090E08C0F9D1F8E0FE9
:101A8000911DFC0185E18083E3E0E40FA1E0B0E07B
:101A9000AC0FBD1FAE0FB11DFD011082E4E0E40FDD
:101AA00088248394912C8C0E9D1E8E0E911CF40123
:101AB00086E28083E5E0E40F21E030E02C0F3D1F5B
:101AC0002E0F311DF9018FEF8083E6E0E40F61E016
:101AD00070E06C0F7D1F6E0F711DFB011082E7E03F
:101AE000E40F81E090E08C0F9D1F8E0F911DFC0193
:101AF00085E78083E8E0E40FA1E0B0E0AC0FBD1F14
:101B0000AE0FB11DFD0188E08083E9E0E40F882479
:101B10008394912C8C0E9D1E8E0E911CF40185E9F0
:101B20008083EAE0E40F21E030E02C0F3D1F2E0F10
:101B3000311DF9015083EBE0E40F61E070E06C0FC0
:101B40007D1F6E0F711DFB0181EA8083EDE0E40FC4
:101B5000ACE0A40F81E090E08C0F9D1F8A0F911DD7
:101B6000DC011C92CC20B9F0A1E0B0E0AC0FBD1FAD
:101B7000AE0FB11DFD0189E08083EFE0E40FAEE020
:101B8000A40F88248394912C8C0E9D1E8A0E911C88
:101B9000D4018BEB8C93AA20A1F0A1E0B0E0AC0FB4
:101BA000BD1FAE0FB11D89E08C93A1E0AE0F21E007
:101BB00030E02C0F3D1F2A0F311DD90185EC8C938D
:101BC000EE5FA1E0B0E0AC0FBD1FAE0FB11D81E82C
:101BD0008C93A1E0AE0F61E070E06C0F7D1F6A0F87
:101BE000711DDB0182E08C9343E04E0FEE5F81E0DC
:101BF00090E08C0F9D1F8E0F911DFC0180EC808367
:101C0000E1E0F0E0EC0FFD1FE40FF11D80EC8083BC
:101C1000A1E0A40FEA2EF12CC7010E94FC2E6C015A
:101C2000A701BE016F5F7F4F0E94263087E090E0E2
:101C30000E94FC2EDC0111961C921E921396DC92DF
:101C4000CE9212971596FC92EE92149716961C92CD
:101C50001697E12FF0E0EE0FFF1FE454FC4F408198
:101C60005181FA0183859485009759F5B487A3873C
:101C7000FA018585968514962D913C91820F931FCC
:101C800096878587CC59DF4F0FB6F894DEBF0FBE1D
:101C9000CDBFDF91CF911F910F91FF90EF90DF901B
:101CA000CF90AF909F908F907F906F905F904F906C
:101CB0003F902F9008958C5FF301848796E03DCC90
:101CC000C901FC012081318121153105C9F7B1839A
:101CD000A083CECF2F923F924F926F927F928F929E
:101CE0009F92AF92BF92CF92DF92EF92FF920F93AB
:101CF0001F93CF93DF9300D000D0CDB7DEB770E055
:101D0000F1E04BE050E04798672F6F2780ED97E0B8
:101D100036B136FB332730F9631330C1DA0111973E
:101D2000F1F70197A9F70F900F900F900F90DF91A7
:101D3000CF911F910F91FF90EF90DF90CF90BF90C8
:101D4000AF909F908F907F906F904F903F902F908B
:101D5000089569B19CB133B1E3B196FB882780F94E
:101D6000880F880F962F991F9927991F990F990F00
:101D7000990F890FE5FB992790F9890F34FB992773
:101D800090F9990F890F713009F016C1243091F440
:101D9000813081F486E080933C05479880ED97E0A0
:101DA0002BE030E0369B0BC1F9013197F1F7019739
:101DB000C9F7B9CF282E220C211120C0823029F179
:101DC00090E080E051E06BE070E0291609F4ABCFC1
:101DD000882309F487C0479A8527A82FA17020ED92
:101DE00037E046B146FB442740F9FB01A4132DC15F
:101DF0003197F1F721503109A1F795CF213009F042
:101E000064C0863011F08330D9F660913B0591E0D3
:101E1000960F90933B05673008F066E0462F50E040
:101E20009FE0699FB0011124FB01E15CFA4FFA8346
:101E3000E9836C5C7A4F2E3009F056C0815090EEE9
:101E40008927FB01838710E0312C412C9BE0692E10
:101E5000712C8FE0849F4001859F900C1124940188
:101E60002C5C3A4F4901790131E1E30EF11C640128
:101E700090E1C90ED11C4F5F5F4F849FF001859F99
:101E8000F00D1124EC5CFA4FFC83EB835401FEE06F
:101E9000AF0EB11C2CE0820E911C211609F443CF29
:101EA000332041F1479A81E03826332D317080ED9F
:101EB00097E026B126FB222720F93213CAC0F3018E
:101EC0003197F1F70197A9F72ECF2E3021F4833007
:101ED00008F49BCF75CF2F3009F072CF8F3009F007
:101EE0006FCF21CF479878CFF0E12F9F9001112439
:101EF0008227A7CF4798D7CF133079F4F4012081F8
:101F000031813F70487050E0542F44275295507FE4
:101F1000420F531F51834083C0C0143069F1153004
:101F200041F4F0E14F9EC0011124482BF50140839C
:101F3000B4C0163009F1173041F4F0E14F9EC001F2
:101F40001124482BEB81FC81F2CF1830A9F0193015
:101F500039F4F0E14F9EC0011124482BF601E7CF80
:101F60001A3051F01B3009F098C0F0E14F9EC001CB
:101F70001124482BF701DBCF442E8FC0CA010197F3
:101F8000F1F77111E6CE39B19CB183B163B196FB23
:101F9000222720F9220F220F932F991F9927991F8B
:101FA000990F990F990F290F65FB992790F9290F20
:101FB00082958170880F280F71E0479AA5CE8BE03B
:101FC00090E00197F1F7479A80ED97E02BE030E041
:101FD000369906C0F9013197F1F70197C9F7A3CEF9
:101FE0008BE090E00197F1F7F6E0F9830BE010E069
:101FF0000E946A0EC8010197F1F7298121502983B7
:102000002111F6CF479880ED97E02BE030E0369B2A
:1020100006C0F9013197F1F70197C9F784CE8BE03B
:1020200090E00197F1F7479A80ED97E02BE030E0E0
:10203000369906C0F9013197F1F70197C9F773CEC8
:102040008BE090E00197F1F76ECE3197F1F79F5F4B
:10205000BCCE83E090E00197F1F799B14CB183B128
:1020600023B146FB442740F9440F440F991F992799
:10207000991F990F990F990F490F25FB992790F9EF
:10208000490F82958170880F480F133008F034CFC4
:10209000612F89819A810E941C021F5FFECE2F92C0
:1020A0003F924F926F927F928F929F92AF92BF9288
:1020B000CF92DF92EF92FF920F931F93CF93DF9314
:1020C00000D000D0CDB7DEB760E0E1E04BE050E0FB
:1020D0002E98762F7E2720ED37E083B183FB88276B
:1020E00080F9DA0178132DC11197F1F721503109E8
:1020F000A1F70F900F900F900F90DF91CF911F914C
:102100000F91FF90EF90DF90CF90BF90AF909F9096
:102110008F907F906F904F903F902F90089583B154
:102120003FB12FB17FB186958170880F880F880FDE
:10213000331F3327331F330F330F830F75FB3327C1
:1021400030F9830F26FB222720F9220F820F6130FE
:1021500009F013C1943091F4813081F486E08093CA
:10216000D7042E9880ED97E02BE030E01B9B08C150
:10217000F9013197F1F70197C9F7BBCF282E220C4F
:1021800091111FC0823051F180E051E06BE070E0AE
:10219000291609F4AECF882309F487C02E9A852723
:1021A000A82FA17020ED37E043B143FB442740F94D
:1021B000FB01A4132BC13197F1F721503109A1F78D
:1021C00098CF913031F4863049F0833039F090E087
:1021D000DBCF9E3009F062C08330C8F74091D6044F
:1021E00021E0240F2093D604473008F046E0242F46
:1021F00030E06FE0469FA0011124FA01E652FB4F48
:10220000FA83E98341535B4F9E3009F050C08150FF
:1022100090EE8927FA01838710E0312C412C9BE056
:10222000692E712C8FE0829F4001839F900C1124B6
:10223000A40141535B4F4A017A0151E1E50EF11CC3
:10224000640190E1C90ED11C2F5F3F4F829FF001C6
:10225000839FF00D1124E153FB4FFC83EB8354016A
:10226000FEE0AF0EB11C2CE0820E911C211609F489
:1022700040CF332011F12E9A81E03826332D317072
:1022800080ED97E023B123FB222720F93213C2C04F
:10229000F3013197F1F70197A9F72BCF9F3009F0A0
:1022A00096CF8F3009F093CF24CF2E9878CFF0E1DE
:1022B0009F9FB00111248627ADCF2E98DDCF13301C
:1022C00079F4F401208131813F70487050E0542F3F
:1022D00044275295507F420F531F51834083BEC005
:1022E000143069F1153041F4F0E14F9EC001112422
:1022F000482BF5014083B2C0163009F1173041F484
:10230000F0E14F9EC0011124482BEB81FC81F2CFFC
:102310001830A9F0193039F4F0E14F9EC0011124B2
:10232000482BF601E7CF1A3051F01B3009F096C068
:10233000F0E14F9EC0011124482BF701DBCF442E62
:102340008DC01197F1F76111EACE93B12FB18FB122
:102350003FB196959170990F990F990F221F2227DF
:10236000221F220F220F920F35FB222720F9920FF6
:1023700086FB882780F9880F980F61E02E9AA9CEF6
:102380008BE090E00197F1F72E9A80ED97E02BE03B
:1023900030E01B9906C0F9013197F1F70197C9F7B1
:1023A000A8CE8BE090E00197F1F7F6E0F9830BE01F
:1023B00010E00E944F10C8010197F1F729812150C8
:1023C00029832111F6CF2E9880ED97E02BE030E0A5
:1023D0001B9B06C0F9013197F1F70197C9F789CE28
:1023E0008BE090E00197F1F72E9A80ED97E02BE0DB
:1023F00030E01B9906C0F9013197F1F70197C9F751
:1024000078CE8BE090E00197F1F773CE3197F1F73A
:102410009F5FBECE83E090E00197F1F743B19FB19B
:102420008FB12FB146954170440F440F440F991F4F
:102430009927991F990F990F490F25FB992790F913
:10244000490F86FB882780F9880F480F133008F062
:1024500036CF612F89819A810E941C021F5F06CFAF
:102460000E942130CF93DF93FC012085318580E0ED
:10247000232B69F4EB0161897289CE010E942F3010
:10248000FE0101900020E9F731978E2F8C1BDF9120
:10249000CF9108952F923F924F925F926F927F92C9
:1024A0008F929F92AF92BF92CF92DF92EF92FF9264
:1024B0000F931F93CF93DF93CDB7DEB76A970FB615
:1024C000F894DEBF0FBECDBF0E94FF02809089034B
:1024D00090908A03A0908B03B0908C03AB01BC0159
:1024E000481959096A097B0980912C0190912D01A5
:1024F000B0E0A0E0481759076A077B0708F446C612
:102500008091AD039091AE038230910509F48BC6A2
:102510008330910511F40C94861FA12C019709F0CA
:1025200021C69E012F5F3F4F49018CE0D9011D92CA
:102530008A95E9F780912701882381F0109227017D
:1025400080912E01833050F045E06EE189E995E0FD
:102550000E944D078BE591E00E9492088FE395E081
:102560000E949E068EE495E00E949E068DE595E011
:102570000E949E068CE695E00E949E068BE795E001
:102580000E949E068AE895E00E949E0650903B05B8
:1025900010923B0510923C055C9ABBE0EB2EF12CAF
:1025A000C7010197F1F780913D0590913E050E948A
:1025B0001506182F5C98C7010197F1F780913D052A
:1025C00090913E050E941506412F477020913D05D0
:1025D00030913E05912F9F70443009F0B9C02130F1
:1025E000310541F021E030E030933E0520933D0578
:1025F0003F9A479AE0913B0521E02E0F20933B053F
:10260000E73008F0E6E0BFE0EB9FF0011124EC5C5E
:10261000FA4F2FE42387248535853F70492F50E0FA
:10262000542F44275295507F240F351F207F8F70E1
:10263000280F311D358724875C9A47982BE030E0BE
:10264000C9010197F1F759B19CB143B163B196FB50
:10265000882780F9880F880F952F991F9927991F30
:10266000990F990F990F890F65FB992790F9890F99
:1026700044FB992790F9990F890F40E1849FC0018D
:102680001124448555854F70840F951F9587848745
:102690005C984798C9010197F1F739B19CB123B112
:1026A00043B196FB882780F9880F880F932F991FD5
:1026B0009927991F990F990F990F890F45FB992712
:1026C00090F9890F24FB992790F9990F890F90E0D1
:1026D000982F882724853585307F820F931F958713
:1026E00084875C9A80913D0590913E05019709F49D
:1026F000479A83E290E00197F1F770913B0580E003
:102700009FE04FEF5FEF60E8781709F446C1282F8C
:10271000873008F026E030E0929FF001939FF00DA3
:102720001124EC5CFA4FB385A289BA1779F055876A
:10273000448766872F5F3F4F929FD001939FB00DD4
:102740001124AC5CBA4F6C93108A118A8F5FDCCF76
:10275000913091F4482F4F70413071F421303105A0
:1027600041F081E090E090933E0580933D053F9AD3
:10277000479A0E946A0EB5CF482F4C7009F0A4C04A
:10278000232B39F010923E0510923D053F98479853
:10279000479AE0913B0521E02E0F20933B05E7305F
:1027A00008F0E6E0EE2EF12C5FE0E59FF001112449
:1027B000EC5CFA4F20EE2387412F50E01C7009F4A7
:1027C00090CF24853585207F290F311D2F7064E03F
:1027D000559547956A95E1F786958695842BA0E1F6
:1027E0008A02C0011124820F931F9587848784E099
:1027F00091E04BE050E021E0992309F463C05C9A3A
:10280000FA013197F1F792278150B1F780913D0598
:1028100090913E050E9415069FE09E9DF0019F9DB0
:10282000F00D1124EC5CFA4F918D992321F021EEEB
:1028300023879150918F8F7009F053CF8FE08E9D39
:1028400080018F9D100D11240C5C1A4F84E6F80155
:10285000818F5C9A8BE0C82ED12CC6010197F1F7CD
:1028600080913D0590913E050E941506F82E5C98DA
:10287000C6010197F1F780913D0590913E050E94B8
:10288000150691EED8011B969C931B971C962D91D3
:102890003C911D97307F4F2D4F7050E0542F4427AF
:1028A000240F351F3F70880F880F880F90E0982FF6
:1028B00088279295907F280F391F1D963C932E9361
:1028C0001C970FCF5C989CCF933009F05BC08F7042
:1028D0008F3009F057C02130310541F081E090E0A0
:1028E00090933E0580933D053F9A479A84E08093FC
:1028F0003C05479880ED97E02BE030E0369902C028
:102900000C94C823F9013197F1F70197B9F7E9CE93
:1029100047980C94EB2347980C944924A2E03A2E54
:1029200080913B0591E0980F90933B05873008F02C
:1029300086E0BFE08B9FC0011124FC01E15CFA4FEF
:102940005F018C5C9A4F2225DC011B962C9300E0E2
:102950001123B1F0479A1425312F317080ED97E0A3
:1029600026B126FB222720F932130C946924F601A4
:102970003197F1F70197A1F7B4CEF3E03F2ED0CF16
:102980004798E9CF232B09F4ACCE10923E05109264
:102990003D053F984798479AA4CE851528F56FE0E6
:1029A0007FEF4FEF5FEF90E8282F873008F026E0A9
:1029B00030E0629FF001639FF00D1124EC5CFA4F50
:1029C0007387118E5587448796872F5F3F4F629F8D
:1029D000D001639FB00D1124AC5CBA4F9C93108A58
:1029E000118A8F5F5812E0CF8AED94E00E949E0614
:1029F00089EE94E00E949E0688EF94E00E949E0675
:102A000087E095E00E949E0686E195E00E949E0682
:102A100085E295E00E949E065090D6041092D6045E
:102A20001092D7042A9AEBE0EE2EF12CC701019701
:102A3000F1F78091D8049091D9040E94F505182FE0
:102A40002A98C7010197F1F78091D8049091D90491
:102A50000E94F505412F47702091D8043091D90488
:102A6000912F9F70443009F0B5C02130310541F0FD
:102A700021E030E03093D9042093D804269A2E9A8E
:102A8000E091D60421E02E0F2093D604E73008F021
:102A9000E6E02FE0E29FF0011124E153FB4F2FE429
:102AA0002387248535853F70492F50E0542F4427D4
:102AB0005295507F240F351F207F8F70280F311DB6
:102AC000358724872A9A2E982BE030E0C901019798
:102AD000F1F783B14FB19FB15FB186958170880FD7
:102AE000880F880F441F4427441F440F440F840F4E
:102AF00055FB442740F9840F96FB992790F9990FCD
:102B0000890F40E1849FC0011124448555854F7091
:102B1000840F951F958784872A982E98C90101975D
:102B2000F1F783B12FB19FB13FB186958170880FC6
:102B3000880F880F221F2227221F220F220F820FA9
:102B400035FB222720F9820F96FB992790F9990FE0
:102B5000890F90E0982F882724853585307F820F54
:102B6000931F958784872A9A8091D8049091D904DD
:102B7000019709F42E9A83E290E00197F1F76091B2
:102B8000D604212C2FE04FEF5FEF30E8621509F4F7
:102B900046C1822DF6E0F21508F486E090E0289F09
:102BA000F001299FF00D1124E153FB4FA385728999
:102BB000A71771F05587448736870196289FD00163
:102BC000299FB00D1124A153BB4F3C93108A118A49
:102BD0002394DCCF913091F4482F4F70413071F441
:102BE0002130310541F081E090E09093D904809349
:102BF000D804269A2E9A0E944F10B5CF482F4C70B9
:102C000009F0A4C0232B39F01092D9041092D804F3
:102C100026982E982E9AE091D60421E02E0F20932C
:102C2000D604E73008F0E6E0EE2EF12C5FE0E59FF9
:102C3000F0011124E153FB4F20EE2387412F50E098
:102C40001C7009F490CF24853585207F290F311D14
:102C50002F7094E0559547959A95E1F7869586955E
:102C6000842BA0E18A02C0011124820F931F958753
:102C7000848784E091E04BE050E021E0992309F45F
:102C800063C02A9AFA013197F1F792278150B1F780
:102C90008091D8049091D9040E94F5059FE09E9DF3
:102CA000F0019F9DF00D1124E153FB4F918D99236D
:102CB00021F021EE23879150918F8F7009F053CF2F
:102CC0008FE08E9D80018F9D100D112401531B4FAD
:102CD00084E6F801818F2A9ABBE0CB2ED12CC60165
:102CE0000197F1F78091D8049091D9040E94F505DD
:102CF000F82E2A98C6010197F1F78091D804909197
:102D0000D9040E94F50591EED8011B969C931B9760
:102D10001C962D913C911D97307F4F2D4F7050E0A8
:102D2000542F4427240F351F3F70880F880F880FBA
:102D300090E0982F88279295907F280F391F1D9635
:102D40003C932E931C970FCF2A989CCF933009F079
:102D50005BC08F708F3009F057C02130310541F0D2
:102D600081E090E09093D9048093D804269A2E9A1B
:102D700084E08093D7042E9880ED97E02BE030E03C
:102D80001B9902C00C948F24F9013197F1F7019738
:102D9000B9F7E9CE2E980C94B2242E980C940E25F7
:102DA000E2E03E2E8091D60491E0980F9093D604F5
:102DB000873008F086E0BFE08B9FC0011124FC0142
:102DC000E652FB4F5F0181539B4F2225DC011B968E
:102DD0002C9300E01123B1F02E9A1425312F31707D
:102DE00080ED97E023B123FB222720F932130C94C6
:102DF0002E25F6013197F1F70197A1F7B4CE73E0D4
:102E0000372ED0CF2E98E9CF232B09F4ACCE1092D9
:102E1000D9041092D80426982E982E9AA4CE251460
:102E200008F46EC0E0903B053E2C320C51EA652E52
:102E300053E0752ED12CA12C6FE0C62E80912E016F
:102E40003D1409F41DC1D81609F41AC1FF24F394E6
:102E5000DE1408F4F12C0D2DDE1408F077C046E0E6
:102E6000442E4D1408F406E00C9D80011124015CF1
:102E70001A4F823071F4EE2061F0D8018C910E94DB
:102E80005628EF2DF0E0EE0FFF1FE80DF91D91839E
:102E90008083D8019C9117968C911797981368C0DE
:102EA00011962D913C91129718968D919C9119979E
:102EB0002817390709F06BC013969C9113971A963F
:102EC0008C911A97981363C014969C9114971B9633
:102ED0008C911B9798135BC015969C9115971C9627
:102EE0008C911C97981353C016969C9116971D961B
:102EF0008C9198134CC0D394F2E06F0E711C9ECF4E
:102F0000222D6FE07FEF4FEF5FEF30E8822F273009
:102F100008F086E090E0689FF001699FF00D1124B1
:102F2000E153FB4F7387118E55874487368701968F
:102F3000689FD001699FB00D1124A153BB4F3C93F2
:102F4000108A118A2F5F5212E1CF6CCF0E19073011
:102F500008F006E00C9D8001112406521B4F8230C0
:102F600009F097CF222009F494CFF801808187CF10
:102F70008D2D0E94630680912E01823041F4F8016C
:102F800080810E945628BC018F2D0E94122AD801F0
:102F900011968D919C91B82FBF70BF8722E0A22E11
:102FA000B12C86FF02C0B12CA12C84FD02C0689414
:102FB000A2F885FD02C06894A5F892FD02C068944D
:102FC000A0F891FD02C06894A3F890FD02C0689437
:102FD000A4F887FD02C06894B1F8F30140805180E5
:102FE000D8012C91207F203109F041C013968C919B
:102FF0001397F201878314968C9114978087159606
:103000008C911597818716968C91169782878C9153
:103010000E945628069719F4FF85FC60FF87D201AD
:103020001396AC9213971496BC92149715961C9213
:10303000BF85EB2FF0E0EE5EFC4F8081F2018683CE
:10304000C2010E94A50980912E01823069F4EF2D02
:10305000F0E0EE0FFF1FE80DF91D6081718120E0A7
:10306000A8018F2D0E94AD29AA24A39444CF93FDDB
:1030700002C06894A7F897FDD2CF6894A6F8CFCF86
:1030800009811A81823079F480911B0190911C0191
:103090008017910741F00115110529F470E060E0F7
:1030A00080E00E94122A10931C0100931B010B81E7
:1030B0001C8180912E01823079F480911D019091C4
:1030C0001E018017910741F00115110529F470E0E8
:1030D00060E081E00E94122A10931E0100931D01FE
:1030E000809188033816C0F4132D80918803181737
:1030F00098F480912E01181779F0812F0E946306B1
:10310000E12FF0E0EE0FFF1FEF55FC4F8081918122
:103110000E94A5091F5FE9CF3092880380913C058A
:103120009091D704843039F0943029F0890F51F40C
:1031300082E390E002C080ED97E090932D018093B0
:103140002C0110C0832D90E0019644EF51E0849F44
:103150009001859F300D949F300D112430932D01E7
:1031600020932C010E94FF026093890370938A03CD
:1031700080938B0390938C03AA2041F080910001EF
:1031800081110C94572381E00E94880980910001ED
:103190008823F9F02FB7F8948091B0039091B10390
:1031A000A091B203B091B3032FBF4091820350911D
:1031B00083036091840370918503841B950BA60B98
:1031C000B70B803E9349A440B10518F080E00E94FF
:1031D00088094E9B02C00C9452256CE271E080E09D
:1031E00090E00E9424038091000181110C946C23D3
:1031F00081E06A960FB6F894DEBF0FBECDBFDF91B7
:10320000CF911F910F91FF90EF90DF90CF90BF90E3
:10321000AF909F908F907F906F905F904F903F9076
:103220002F900C9488099E012F5F3F4F3E872D877A
:103230008CE0D9011D928A95E9F780911A018823C3
:1032400081F010921A0180912E01833050F045E0F8
:1032500064E289E995E00E944D0784E491E00E94D0
:103260009208E0EAF4E088EC94E027812487208546
:1032700031853687258722853385308B27873A9697
:103280008E179F0791F7B091A504B98F1092A504EE
:103290002C9A8BE290E00197F1F72C9883E190E073
:1032A0000197F1F78091A604811164C130E020E01C
:1032B00090E080E043E150E06CB166FBEE24E0F882
:1032C000F12CB701022E02C0660F771F0A94E2F7B5
:1032D000862B972B2D98DA011197F1F72D9ADA01A9
:1032E0001197F1F72F5F3F4F2031310529F7E92F73
:1032F000E295EF70F0E1FF2EED3011F0FF24F39432
:1033000030E020E050E040E063E170E0ACB1A6FBCB
:10331000002700F910E0D801022E02C0AA0FBB1F3F
:103320000A94E2F74A2B5B2B2D98DB011197F1F7FA
:103330002D9ADB011197F1F72F5F3F4F2F1530F3D7
:103340002E2F20953FE03E27BC016095709540955B
:103350005095EF3029F44E3FFFEF5F0709F44EC060
:103360008091A50491E0980F9093A504853008F012
:1033700084E090E08C010F5F1F4FE1111BC0A72F6D
:10338000BB27AF70BB271F97A9F42AE0289FD00165
:10339000299FB00D1124A056BB4F3FE017963C93D8
:1033A000209FD001219FB00D1124A056BB4F4D93FB
:1033B0005C9318C022FFD5C03AE0389FD001399FF6
:1033C000B00D1124A056BB4F44E017964C93309F8C
:1033D000D001319FB00D1124A056BB4F237030E0B7
:1033E0002D933C932AE0289FD001299FB00D1124F2
:1033F000A056BB4F19967C936E9318972091A50405
:10340000B98D3AE04FEF2B1708F408C2E1E7F4E07A
:1034100089E994E0278124872085318536872587AF
:1034200022853385308B27873A968E179F0791F731
:1034300030907604109276048E9A8BE290E0019799
:10344000F1F78E9883E190E00197F1F7809177048E
:1034500081117BC250E040E090E080E063E170E0E9
:103460002FB1022E000C330B2227330F221F3327DC
:10347000042E02C0220F331F0A94E2F7822B932BF3
:103480008D98FB013197F1F78D9AFB013197F1F798
:103490004F5F5F4F4031510519F7A92FA295AF70CB
:1034A000B0E1AD3009F0B1E070E060E050E040E044
:1034B00003E110E02FB1022E000C330B2227330F53
:1034C000221F3327062E02C0220F331F0A94E2F771
:1034D000422B532B8D98F8013197F1F78D9AF80113
:1034E0003197F1F76F5F7F4F6B1720F32A2F2095ED
:1034F0003FE03A27BC016095709540955095AF30FC
:1035000029F44E3FFFEF5F0709F4CBC19091760499
:1035100081E0890F80937604953008F094E0892F3C
:1035200090E08C010F5F1F4FA1119AC1E72FFF2779
:10353000EF70FF273F9709F093C12AE0289FF00121
:10354000299FF00D1124EF58FB4F3FE03783209F58
:10355000F001219FF00D1124EF58FB4F5183408360
:1035600096C12AE0289FD001299FB00D1124A056B2
:10357000BB4F14CF10E063E170E08AE004E05C9A96
:10358000DB011197F1F730E020E0912C812CD12C58
:10359000C12C9CB196FB222420F8312CA101022ED3
:1035A00002C0440F551F0A94E2F7C42AD52A96B1E7
:1035B00096FB442440F8512CA201022E02C0440F75
:1035C000551F0A94E2F7842A952A2D98DB0111975A
:1035D000F1F72D9ADB011197F1F72F5F3F4F203163
:1035E0003105B9F6AD2CA294BFE0AB22992D92958E
:1035F0009F702DE0A0E1BA2EA21611F0BB24B39467
:10360000F0E1EF2E9D3011F0EE24E394712C612C4B
:1036100050E040E0F12C2E2DEB1408F42B2DF21687
:1036200068F52CB126FB222720F92F87188A2F85D1
:1036300038890F2C02C0220F331F0A94E2F7422B65
:10364000532B26B126FB222720F92B8B1C8A2B8992
:103650003C890F2C02C0220F331F0A94E2F7622A22
:10366000732A2D98DB011197F1F72D9ADB01119741
:10367000F1F7F394D0CF11E05C9882CFBA2CB094DC
:10368000C094D094409550953FE0A31205C04E3FA2
:10369000AFEF5A0709F44AC02091A50431E0320F78
:1036A0003093A504253008F024E030E0F90131968C
:1036B0007F01A11018C0AD2DBB27AF70BB271F978E
:1036C00091F4829FD001839FB00D1124A056BB4F6F
:1036D000FFE01796FC938E9DD0018F9DB00D1124B5
:1036E000A056BB4F15C0829FD001839FB00D1124FF
:1036F000A056BB4FB2FE56C017960C938E9DD001BC
:103700008F9DB00D1124A056BB4F4B2D437050E040
:103710004D935C93829FA001839F500D11244056CE
:103720005B4FDA011996DC92CE921897B92EB094BD
:1037300080949094609470949F3031F4BEEF6B1637
:10374000BFEF7B0609F457C02091A50431E0320F8A
:103750003093A504253008F024E030E0D90111961B
:10376000911125C0E92CFF24EFE0EE22FF24FFE0B9
:10377000EF16F104E1F4829F7001839FF00C112495
:10378000A70140565B4F7A014FE0F70147838A9FBC
:10379000A0018B9F500D1124DA01A056BB4F6D92F2
:1037A0007C921DC0EFE0AE261796AC9294CFB2FE8D
:1037B00027C0829FA001839F500D112440565B4F6C
:1037C000FA0107838A9FA0018B9F500D1124405658
:1037D0005B4FAB2DA370B0E0FA01B183A083829F51
:1037E000A001839F500D112440565B4FDA011996BA
:1037F0009C928E921897113009F03DCF5C9AFECDC5
:10380000829F7001839FF00C1124A70140565B4FEB
:103810007A015FE09527F7019783B9CF822F253092
:1038200008F084E090E0389FD001399FB00D11245A
:10383000A056BB4F17964C93179719961C921E9241
:1038400018970196389FD001399FB00D1124A056CA
:10385000BB4F1D921C922F5FE98DE213DFCFD6CDB7
:1038600022FF6AC03AE0389FF001399FF00D112421
:10387000EF58FB4F44E04783309FF001319FF00D3C
:103880001124EF58FB4F237030E0318320832AE06E
:10389000289FF001299FF00D1124EF58FB4F7187ED
:1038A0006087209076042D8A2D893AE04FEF23140B
:1038B00008F49EC19090A5043D88390C3B8A21EA0A
:1038C00033E0388F2F8BD12CA12C20912E012B8807
:1038D0002D1409F4CAC2D21609F4C7C2BB24B3948A
:1038E000D91408F4B12C8D2DD91408F09EC144E0F0
:1038F000342E3D1408F484E03AE0432E849DC00148
:103900001124AC0149555B4F3A01223009F09CC1AA
:10391000992009F418C2CA010E947706EB2DF0E045
:10392000EE0FFF1F22242394312C2C0E3D1EE20D9E
:10393000F31D9183808388C12AE0289FF001299F8D
:10394000F00D1124EF58FB4F01CEC12C03E110E024
:103950008AE0BFE0DB2E94E0E92E2A9AF801319745
:10396000F1F770E060E050E040E0F0E0E0E02FB11F
:10397000022E000C330B2227330F221F3327062E73
:1039800002C0220F331F0A94E2F7E22BF32B93B10C
:1039900093FB992790F99D8B1E8A2D893E89062ECF
:1039A00002C0220F331F0A94E2F7422B532B8D984B
:1039B000D8011197F1F78D9AD8011197F1F76F5F40
:1039C0007F4F6031710599F6BF2EB2949FE0B92206
:1039D000952F92959F702DE0222E30E1B21031E0AC
:1039E000B0E1AB2E9D3011F0AA24A39470E060E00A
:1039F000712C612C20E0FA2CA31608F4F32E2F155D
:103A000070F58FB0082C000C99088824990C881C3C
:103A10009924022E02C0880C991C0A94E2F76828A7
:103A20007928F3B0F3FAFF24F0F8FF8A188E8F8814
:103A3000988C022E02C0880C991C0A94E2F768291F
:103A400079298D98D8011197F1F78D9AD80111979E
:103A5000F1F72F5FD0CFCC24C3942A987FCFFB2CD3
:103A6000F0944F0180949094D301A095B095EFE02D
:103A7000BE1205C0AE3FFFEFBF0709F44FC0209153
:103A8000760431E0320F30937604253008F024E0DC
:103A900030E0F90131962F01B1101DC0692C772457
:103AA000FFE06F227724EFE06E167104A1F4829F8D
:103AB0003001839F700C1124F301EF58FB4FD78224
:103AC000849D3001859D700C1124F301EF58FB4F4C
:103AD000B183A08318C0F2FE55C0829FD001839F9E
:103AE000B00D1124AF58BB4F1796EC92849DD001B6
:103AF000859DB00D1124AF58BB4FFF2DF370AF2E35
:103B0000B12CAD92BC92829FD001839FB00D112445
:103B1000AF58BB4F19969C928E921897F92EF0943D
:103B200040955095609570959F3029F46E3FFFEF5A
:103B30007F0709F454C02091760431E0320F3093AE
:103B40007604253008F024E030E0F9013196911137
:103B500024C0A52FBB27AF70BB271F97F1F4829F0E
:103B6000D001839FB00D1124AF58BB4F1796DC9244
:103B70008E9FD0018F9FB00D1124AF58BB4F6D9316
:103B80007C9323C0829F3001839F700C1124F3012A
:103B9000EF58FB4FBD24B78293CF829FD001839F04
:103BA000B00D1124AF58BB4FF2FE1EC01796EC9219
:103BB0008E9FB0018F9F700D11246F587B4FEF2D9A
:103BC000E370F0E0DB01ED93FC93829FB001839FF3
:103BD000700D11246F587B4FFB0151874087F1E036
:103BE000CF1239CF2A9A5DCE9D2517969C93C0CFD0
:103BF000822F253008F084E090E0389FF001399F53
:103C0000F00D1124EF58FB4F478311861086019663
:103C1000389FF001399FF00D1124EF58FB4F1182AE
:103C200010822F5F3212E4CF45CE8919853008F01B
:103C300084E05AE0859FC0011124DC01A858BB4FE5
:103C40003D01223009F47FC0D3018C9115969C91DF
:103C50001597891323C011964D915C911297169672
:103C60002D913C9117974217530759F413964D9194
:103C70005C91149718962D913C914217530709F4C3
:103C80005AC0811119C0F301838194810196A1F476
:103C9000D30118968D919C91019671F08D2D0E9403
:103CA000630680912E01823039F4C3010E947706A9
:103CB000BC018B2D0E941B29C3010E9477061C01A9
:103CC000F30181819281DC01A095B095F4E0B69575
:103CD000A795FA95E1F71A2F1F709C0121703327E1
:103CE000AC015695479570E060E041705527662716
:103CF0007727F2E02F163104C9F5232B09F0426033
:103D000082FD516083FD5260AF89B88DED91FC91C9
:103D1000438354836583A12FB0E0AE5EBC4F8C918A
:103D20008683CF010E94A50980912E01823009F47B
:103D30005DC0AA24A394D3944F89588D4E5F5F4FE2
:103D4000588F4F8BC2CD3D88332009F47DCFC301FE
:103D50000E947706EB2DF0E0EE0FFF1F4424439402
:103D6000512C4C0E5D1EE40DF51DE3CD232B09F007
:103D7000426090FD446091FD486092FD406193FD7A
:103D8000406224E02216310421F5D30113962D91CF
:103D90003C9134FD406435FD406820FD546021FDB8
:103DA000586022FD506123FD506224FD506425FDC2
:103DB000506826FD616027FD626030FD646031FD62
:103DC000686032FD606133FD606237FF99CF6064E7
:103DD00097CFB5E02B16310409F092CFF301238180
:103DE00020FD406421FF8CCF40688ACF72E9472EC6
:103DF00072E0572E1F868B2D90E0880F991FFC01D3
:103E0000E257FD4FFA8FE98FF2E02F16310441F4AB
:103E10002F85283008F5F201E05AFF4F243008F0D2
:103E2000F201E080F18002811381D30111968D911E
:103E30009C918E219F21CC24C394892B09F4C12C01
:103E40001F928780A68024814581E98DFA8D60814B
:103E50008B2D0E94F1080F90FF85FF5FFF8728E000
:103E6000420E511CFC3081F664CF09811A81223048
:103E700079F480910E0190910F018017910741F024
:103E80000115110529F470E060E080E00E941B2913
:103E900010930F0100930E010B811C8180912E0164
:103EA000823079F48091100190911101801791076F
:103EB00041F00115110529F470E060E081E00E94F5
:103EC0001B291093110100931001809187032B8807
:103ED0002816C0F4122D80918703181798F480914A
:103EE0002E01181779F0812F0E946306E12FF0E070
:103EF000EE0FFF1FEF55FC4F808191810E94A509B5
:103F00001F5FE9CF3B88309287032CC99E012F5F4A
:103F10003F4F3C8B2B8B8CE0D9011D928A95E9F7A2
:103F200080910D01882381F010920D0180912E0166
:103F3000833050F045E06EE189E995E00E944D073D
:103F40008AE391E00E94920801E414E0F801808580
:103F5000918595878487828593859787868738960C
:103F6000B4E0E936FB0799F76090470410924704E4
:103F700010924804F12C77247394E12C43E0C42E72
:103F8000D12C812C912C540183940E94370650E04F
:103F900040E0E42F469AC6010197F1F799B18CB140
:103FA00063B133B186FB222720F9220F220F892F1C
:103FB000881F8827881F880F880F880F280F35FBD8
:103FC000882780F9280F62956170660F260F469842
:103FD000C6010197F1F739B19CB163B173B196FB9A
:103FE000882780F9880F880F331F3327331F330F3B
:103FF000330F330F830F75FB992790F9890F64FBFB
:10400000992790F9990F890F453009F490C0E11074
:1040100006C0E091470491E09E0F90934704E6307C
:1040200008F0E5E038E0E39FF0011124E75BFB4F87
:104030006281738190E0211170C014012501042E6A
:1040400004C0220C331C441C551C0A94D2F72F8642
:10405000388A498A5A8AF228707F982F8827860FD3
:10406000971F938382834F5F5F4F4630510509F05E
:1040700090CF33243394E3104DC046985C9883E28C
:1040800090E00197F1F7772009F45BC085E0809319
:10409000480490E080E04F2D50E09A01082E02C0C5
:1040A000359527950A94E2F720FF48C023E030E0D9
:1040B000D80119963C932E9318970196085F1F4FCD
:1040C0008530910551F79091470480E02FEF3FEF45
:1040D000981709F459C0E82F863008F0E5E0F0E0C1
:1040E000DF0113E0AA0FBB1F1A95E1F7A75BBB4FD7
:1040F00003E0EE0FFF1F0A95E1F7EF5BFB4F6D91B9
:104100007C91448555856417750711F033872287A4
:104110008F5FDECFEE24E39438CF607F620F711D96
:104120006F7024E0880F991F2A95E1F798CF21112D
:1041300003C0882309F497CF712C95CF22E030E09B
:10414000B7CF10924804E092470423E030E0F0FC3F
:1041500002C022E030E080E04FEF5FEF81110AC043
:1041600030934A04209349048F5F085F1F4F8530C6
:10417000A9F7A9CFF80111861086538742871586C3
:10418000148657874687F0CF4FEF5FEF861508F408
:10419000EDC0A1E1B4E089E394E0FD012085318523
:1041A00035872487228533853787268738968E176B
:1041B0009F07A1F7F09017041092170410921804AB
:1041C00040E0DD24D39450E063E070E0812C912C3A
:1041D000540183942B9A2A98CB010197F1F72A9ADC
:1041E000CB010197F1F72A98CB010197F1F710E085
:1041F00000E0E02F2B9ACB010197F1F723B19FB19B
:104200008FB13FB126952170220F220F220F991FE7
:104210009927991F990F990F290F35FB992790F925
:10422000290F86FB882780F9880F280F2B98CB0150
:104230000197F1F783B13FB19FB1FFB186958170CE
:10424000880F880F880F331F3327331F330F330F27
:10425000830FF5FB332730F9830F96FB992790F9ED
:10426000990F890F053009F4AFC0511106C0E091D4
:10427000170491E09E0F90931704E63008F0E5E0F4
:1042800038E0E39FF0011124E75EFB4F628073800A
:1042900090E021118AC014012501002E04C0220CD7
:1042A000331C441C551C0A94D2F72F86388A498A3D
:1042B0005A8A422920EF7222982F8827860D971D4F
:1042C000938382830F5F1F4F0630110509F091CF52
:1042D000513009F068C02B982A9883E290E001974A
:1042E000F1F7DD2009F47AC085E08093180490E0AE
:1042F00080E050E09A01082E02C0359527950A9477
:10430000E2F720FF68C023E030E019963C932E933B
:104310001897019618968530910561F780911704DA
:10432000C12C2FEF3FEF8C1509F481C0EC2D45E037
:104330004C1508F4E5E0F0E0DF0113E0AA0FBB1F25
:104340001A95E1F7A75EBB4F03E0EE0FFF1F0A953A
:10435000E1F7EF5EFB4F6D917C91448555856417C5
:10436000750711F033872287C394DDCF282F86305D
:1043700008F025E030E0F90163E0EE0FFF1F6A95D9
:10438000E1F7E75BFB4F1182108273E0220F331FCE
:104390007A95E1F7F901EF5BFB4F538742878F5F17
:1043A0006812E4CFF6CE51E015CF30EF6322260D30
:1043B000372D311D2F7082959295907F9827807FA1
:1043C0009827820F931F7CCF211103C0882309F403
:1043D00079CFD12C77CF22E030E097CF109218041C
:1043E0005093170423E030E040FD02C022E030E0AB
:1043F00080E04FEF5FEF811109C030931A042093E2
:1044000019048F5F18968530B1F788CF19961C92E2
:104410001E9218971B965C934E931A971D961C92AA
:104420001E921C971F965C934E931E97EACF2C2DDD
:104430004FEF5FEFCF1408F444C0B09047048B2CCB
:104440008C0CE1EAEE2EE3E0FE2ED12CA12C809123
:104450002E018D1409F4DBC0D81609F4D8C09924B4
:104460009394DB1408F4912C0D2DDB1408F046C056
:1044700055E05D1508F405E098E0099F80011124DE
:10448000075B1B4F823009F458C0D8012D913C9135
:10449000119714968D919C9115972817390709F05B
:1044A0005FC012962D913C91139716968D919C9119
:1044B0002817390709F061C0D394B2E0EB0EF11C64
:1044C000C6CF822F263008F085E090E0FC0163E043
:1044D000EE0FFF1F6A95E1F7E75EFB4F1182108236
:1044E00073E0880F991F7A95E1F7FC01EF5EFB4FAF
:1044F000538742872F5FF212E4CF9FCF0B1906300C
:1045000008F005E0A8E00A9F80011124075E1B4F18
:10451000823009F0BACFF80180819181CC2009F472
:10452000B4CFE92DF0E0EE0FFF1F22242394312CAD
:104530002C0E3D1EE20DF31D10C0BB2061F3E92DD2
:10454000F0E0EE0FFF1F22242394312C2C0E3D1E91
:10455000E20DF31DD8018D919C919183808395CFBD
:104560008D2D0E94630680912E01823031F4F80176
:1045700060817181892D0E94D128D80112964D91B8
:104580005C9124E030E045FF02C030E020E044FFD1
:10459000206246FF316047FF3260F80180819181DF
:1045A000039741F450FF226051FF216052FF2860C1
:1045B00053FF2061F701A081B18113962C931397CB
:1045C00014963C93149715961C921597E42FE1705E
:1045D00042FDE26043FDE46041FDE860F0E0EE5E34
:1045E000FC4F808116968C931697CD010E94A509E9
:1045F00080912E01823041F4D8016D917C9120E0B0
:10460000A801892D0E947428AA24A39455CF09815A
:104610001A81823079F48091010190910201801712
:10462000910741F00115110529F470E060E080E088
:104630000E94D12810930201009301010B811C817B
:1046400080912E01823079F48091030190910401D0
:104650008017910741F00115110529F470E060E021
:1046600081E00E94D12810930401009303018091FE
:1046700086038816C0F4182D80918603181798F4C5
:1046800080912E01181779F0812F0E946306E12F87
:10469000F0E0EE0FFF1FEF55FC4F808191810E94EB
:1046A000A5091F5FE9CF809286030C94B2182FB73B
:1046B000F8948091B0039091B103A091B203B091AE
:1046C000B3032FBF8093820390938303A09384034B
:1046D000B09385030C94C618E090AD03F090AE0340
:1046E0000E9453060E94570910E000E062E070E06B
:1046F00080E090E00E9424034E990CC06CE271E0CF
:1047000080E090E00E9424030E9453060E94570913
:1047100010E000E00F5F1F4F003DF7E01F0731F78B
:104720006091AD037091AE036E157F05D1F46A966A
:104730000FB6F894DEBF0FBECDBFDF91CF911F91B2
:104740000F91FF90EF90DF90CF90BF90AF909F9030
:104750008F907F906F905F904F903F902F900C9430
:10476000570990E080E00E94E82E89E995E00E94D8
:10477000E2088EE491E00E94920888E19EE00FB684
:10478000F894A895809360000FBE90936000FFCFCF
:104790008BE090E00197F1F7479A80ED97E02BE0EE
:1047A00030E0369907C0F9013197F1F70197C9F761
:1047B0000C9471138BE090E00197F1F730E020E06A
:1047C000712C612C10E0E1E04BE050E0112311F47A
:1047D0000C948814479A1E27712F717080ED97E012
:1047E00066B166FB662760F9761307C0DA01119798
:1047F000F1F70197A9F70C947113CA010197F1F72A
:1048000079B19CB163B1F3B196FB882780F9880F29
:10481000880F972F991F9927991F990F990F990F13
:10482000890FF5FB992790F9890F64FB992790F977
:10483000990F890F90E0022E02C0880F991F0A94E9
:10484000E2F7682A792A2C5F3F4F2031310509F0C1
:10485000BDCFF12CE12CB0EE2B2E442443940BE081
:10486000C02ED12C93010E2C02C0369527950A94A8
:10487000E2F72F7011F40C948E14213011F40C9483
:10488000BD142230E9F486E0112311F40C948B144A
:10489000479A1425412F417020ED37E096B196FBE1
:1048A000992790F9F601491307C03197F1F7215084
:1048B0003109A1F70C9471133197F1F7815021F769
:1048C000B4E0EB0EF11CE0E1EE16F10459F60C94A5
:1048D0007113C6010197F1F729B18CB193B133B1CE
:1048E00086FB442740F9440F440F822F881F8827F6
:1048F000881F880F880F880F480F35FB882780F99D
:10490000480F94FB882780F9880F480F602FC50156
:104910000E941C020F5F30120C94A814D1CF8BE0C0
:1049200090E00197F1F72E9A80ED97E02BE030E0D0
:104930001B9907C0F9013197F1F70197C9F70C945A
:10494000B3158BE090E00197F1F730E020E0712C97
:10495000612C10E071E04BE050E0112311F40C9455
:10496000CA162E9A1727A12FA17080ED97E063B188
:1049700063FB662760F9A61307C0FA013197F1F7C8
:104980000197A9F70C94B315CA010197F1F783B108
:104990006FB19FB1EFB186958170880F880F880F36
:1049A000661F6627661F660F660F860FE5FB662784
:1049B00060F9860F96FB992790F9990F890F90E07F
:1049C000022E02C0880F991F0A94E2F7682A792AFA
:1049D0002C5F3F4F2031310509F0BFCFF12CE12C86
:1049E000F0EE2F2E44244394ABE0CA2ED12C930139
:1049F0000E2C02C0369527950A94E2F72F7011F419
:104A00000C94D016213011F40C94FF162230E9F4E6
:104A100086E0112311F40C94CD162E9A1425412F03
:104A2000417020ED37E093B193FB992790F9F6019F
:104A3000491307C03197F1F721503109A1F70C94C0
:104A4000B3153197F1F7815021F7B4E0EB0EF11C6B
:104A5000E0E1EE16F10459F60C94B315C601019786
:104A6000F1F743B19FB18FB12FB146954170440F1B
:104A7000440F440F991F9927991F990F990F490FB8
:104A800025FB992790F9490F86FB882780F9880F25
:104A9000480F602FC5010E941C020F5F30120C945A
:104AA000EA16D3CF6A960FB6F894DEBF0FBECDBF1D
:104AB000DF91CF911F910F91FF90EF90DF90CF90FA
:104AC000BF90AF909F908F907F906F905F904F902E
:104AD0003F902F9008951F920F920FB60F921124BE
:104AE0002F933F938F939F93AF93BF938091B00386
:104AF0009091B103A091B203B091B3033091AF0391
:104B000023E0230F2D3758F50196A11DB11D2093E9
:104B1000AF038093B0039093B103A093B203B0931B
:104B2000B3038091B4039091B503A091B603B09103
:104B3000B7030196A11DB11D8093B4039093B503F3
:104B4000A093B603B093B703BF91AF919F918F919C
:104B50003F912F910F900FBE0F901F90189526E850
:104B6000230F0296A11DB11DD2CF1F920F920FB637
:104B70000F9211248F939F938091E1009091E10017
:104B8000937F9093E10083FF0FC01092E90091E0C2
:104B90009093EB001092EC0092E39093ED00109252
:104BA000B90398E09093F00082FF22C093E09093C5
:104BB000E9009091F200992319F09AE39093E800AC
:104BC00090919E03992341F090919E039150909370
:104BD0009E03911101C05D9A9091B803992341F011
:104BE0009091B80391509093B803911101C0289A05
:104BF00084FF18C08091E2008E7E81608093E20085
:104C00008091E1008F7E8093E10080919F038E7EF2
:104C1000806180939F039F918F910F900FBE0F90A3
:104C20001F90189580FFF7CF8091E2008E7E806103
:104C30008093E2008091E1008E7E8093E10080917C
:104C40009F038E7E8160E5CF1F920F920FB60F9269
:104C50001124CF92DF92EF92FF920F931F932F9325
:104C60003F934F935F936F937F938F939F93AF93F4
:104C7000BF93EF93FF93CF93DF93CDB7DEB76C97DE
:104C8000DEBFCDBF1092E9008091E80083FF25C010
:104C900068E0CE0145960E94A30482EF8093E8006D
:104CA0008D8987FF39C09091E80090FFFCCF982F45
:104CB000907609F034C19E894F89588D2F89F88CE0
:104CC000911131C0803861F58091A0038093F1008B
:104CD0001092F1008EEF8093E8006C960FB6F89476
:104CE000DEBF0FBECDBFDF91CF91FF91EF91BF919E
:104CF000AF919F918F917F916F915F914F913F9174
:104D00002F911F910F91FF90EF90DF90CF900F9018
:104D10000FBE0F901F9018959EEF9093E800C7CF9D
:104D20001092F100D5CF913059F48111D3CF413099
:104D3000510581F68091A0038D7F8093A003CACF97
:104D4000933049F48111C6CF4130510519F6809155
:104D5000A0038260F2CF953041F48091E80080FF9B
:104D6000FCCF20682093E300B5CF963009F0A9C0AE
:104D70000B8D1C8D22E01092E90010929C03109282
:104D80009B03F2122EC010929A03109299030E9474
:104D9000F1041F8299E09983FA8291E09E8390EA60
:104DA00098879AEF998720919B0330919C03275F06
:104DB0003F4F3C832B838D831092E90010929C031C
:104DC00010929B0310939A030093990349E050E0DB
:104DD000BE016F5F7F4F80E00E94B7030E94F10425
:104DE00079CF10939A03009399030E94DD04DC01AC
:104DF00012960D911C910115110509F451C1D801AC
:104E0000ED91FC910480F581E02DBE016B5E7F4F3A
:104E1000C8010995009709F03EC1F8010085118588
:104E2000EACFF3E0FF120EC08F89882309F440C057
:104E3000823061F440E860E189ED91E00E948403F2
:104E4000811148CF81E28093EB0047CF813029F474
:104E500040E86BE08DEC91E0F1CF833099F70E9450
:104E6000DD04DC011296ED90FC908E010F5F1F4F68
:104E70006801E114F10479F0D701ED91FC9106800D
:104E8000F781E02DB801C7010995080F111DF70141
:104E9000E084F184EECFD8011C92F601019000204D
:104EA000E9F73197BF016C197D0940E0C601C6CF13
:104EB00067EB71E0FB01449150E080E80E94B7038A
:104EC00009CF973009F4BECF983021F481E0809368
:104ED000F10000CF993009F0FDCE837009F0B2CF18
:104EE000E8E3F1E081E031E096E32191222371F0E3
:104EF0008093E9003093EB00DF0111972C91209310
:104F0000EC009093ED008F5F873079F78EE7809308
:104F1000EA001092EA008F898093B903DBCE8B8D73
:104F20009C8D1092E90010929C0310929B03909329
:104F30009A0380939903898D811192C08E899D89EE
:104F4000913A49F4813209F07DCF47E050E06FE2B9
:104F500071E080E0B3CF913209F074CF833269F40D
:104F60008F89988DB0E0A0E080932801909329016B
:104F7000A0932A01B0932B01ADCE803269F48091C9
:104F8000E80082FFFCCF67E08FE291E00E94A3047B
:104F90008BEF8093E8009ECE823209F09BCE8F8902
:104FA00080933601EEEFFFE7859194918B3F9C4D06
:104FB00051F1E0E0F8E080912F0190913001A09153
:104FC0003101B0913201803B9440A105B105F1F46B
:104FD0008091360180FD1AC0EE3F8AE0F80789F51E
:104FE00087E797E7918380838091600080939D039A
:104FF00088E19BE00FB6F894A895809360000FBEFF
:105000009093600067CEEEEFFAE0D5CF808191817A
:105010008737974709F05ECEA89580916000886138
:105020008093600080919D0380936000EE3F2AE0B2
:10503000F20789F08091FE0A9091FF0A91838083A4
:1050400049CE808191818737980751F29093FF0A6A
:105050008093FE0AC5CF1092FF0A1092FE0A3ACE44
:105060000E94DD04DC0112960D911C9101151105C1
:1050700009F4E8CED801ED91FC910190F081E02D8A
:10508000BE016B5E7F4FC8010995811123CEF801E7
:1050900000851185EBCF181619060CF41BCED2CE65
:1050A000F1E0FF12BECE6BEB71E004CF8F3489F0DC
:1050B000823079F0863181F0833181F0803E81F059
:1050C000813E81F021E090E08F3F09F420E0822FC3
:1050D000089584E090E0089585E0FCCF86E0FACF63
:1050E00082E0F8CF83E0F6CF2F923F924F925F920B
:1050F0006F927F928F929F92AF92BF92CF92DF92E8
:10510000EF92FF920F931F93CF93DF93B82E2B0153
:105110001A01922ECEE2D2E0D12C682E712C660CB0
:10512000771CC30182579D4F3C0192E04916510400
:1051300019F4E7E0ED15E8F0E880F9800A811B81B9
:105140002C814D81AE808F8081E02114310449F0A3
:10515000F101628173816E217F2181E0672B09F06B
:1051600080E09F92C82EF30160818B2D0E94F10890
:105170000F90D3942896FCE0DF12D7CFDF91CF9128
:105180001F910F91FF90EF90DF90CF90BF90AF9065
:105190009F908F907F906F905F904F903F902F9057
:1051A0000895FF920F931F93CF93DF93182FEB0176
:1051B000209711F4C2E0D0E0E12FF0E0EE0FFF1FE6
:1051C000E257FD4FF08007E023E041816F2D89E930
:1051D00095E00E94AD0847E06F2D89E995E00E94B7
:1051E0004D07C230D10561F0C330D105D9F083E05D
:1051F00091E0DF91CF911F910F91FF900C94920855
:105200008EE091E00E949208123079F021E050E0A7
:1052100040E0BE01812FDF91CF911F910F91FF9050
:105220000C94742888E091E0EDCFDF91CF911F912D
:105230000F91FF9008955F926F927F928F929F924D
:10524000AF92BF92CF92DF92EF92FF920F931F9394
:10525000CF93DF93D82EEB01E82FF0E0EE0FFF1F86
:10526000E257FD4F908007E023E04181692D89E9F5
:1052700095E00E94AD0847E0692D89E995E00E941C
:105280004D07C330D10509F462C0C0F48FEF90E040
:10529000C230D105E1F083E091E0DF91CF911F9121
:1052A0000F91FF90EF90DF90CF90BF90AF909F90C5
:1052B0008F907F906F905F900C949208C430D105CE
:1052C00009F448C081EF90E0C530D10521F70E9474
:1052D000920882E0D81659F182E9682E82E0782E91
:1052E000B12C55245394C230D10549F487E08B1575
:1052F000B8F083E0F301E05AFF4F8B1508F4F30197
:10530000E080F180028113815F928780A680CC24A7
:10531000C39424814581692D8D2D0E94F1080F9041
:10532000B39488E0680E711C8CE0B812DCCFDF917A
:10533000CF911F910F91FF90EF90DF90CF90BF9092
:10534000AF909F908F907F906F905F9008958AEFBD
:1053500090E0BDCF86EF90E0BACF2F923F924F9270
:105360005F926F927F928F929F92AF92BF92CF92F5
:10537000DF92EF92FF920F931F93CF93DF93B82E9C
:105380002B011A01922EC6ECD1E0D12C682E712C83
:10539000660C771CC30182579D4F3C0192E0491671
:1053A0005104B1F4E8E0DE121AC0DF91CF911F91F1
:1053B0000F91FF90EF90DF90CF90BF90AF909F90B4
:1053C0008F907F906F905F904F903F902F900895B7
:1053D000F3E04F16510419F48CE0D816E9F0E88098
:1053E000F9800A811B812C814D81AE808F8081E004
:1053F0002114310449F0F101618172816E217F2114
:1054000081E0672B09F080E09F92C82EF301608154
:105410008B2D0E94F1080F90D3942896FDE0DF12A7
:10542000BDCFC3CFFF920F931F93CF93DF93182F5E
:10543000EB01E82FF0E0EE0FFF1FE257FD4FF08089
:1054400007E023E041816F2D89E995E00E94AD08D6
:1054500047E06F2D89E995E00E944D07C430D105E2
:1054600069F188F4C230D10531F18DED90E0C3309F
:10547000D10589F083E091E0DF91CF911F910F91E9
:10548000FF900C949208C530D105D9F085EC90E0DE
:10549000C630D10579F70E9492081230A9F021E0B8
:1054A00050E040E0BE01812FDF91CF911F910F911D
:1054B000FF900C94AD2987EE90E0EDCF86ED90E063
:1054C000EACF8FEC90E0E7CFDF91CF911F910F9162
:1054D000FF900895DC0116961C92169717961C9261
:1054E000179788E2E4E4F1E0189601900D928A950E
:1054F000E1F70895DC0117961C92179718961C92F5
:1055000018971A961C921E9219978AE5ECE6F1E01C
:105510001B9601900D928A95E1F70895E1ECF3E076
:105520001382128288EE93E0A0E0B0E0848395833A
:10553000A683B7838EE393E0918380838FEF9FEF01
:1055400095878487E9E9F5E0138212821286148632
:105550001386158681E0868780E593E091838083BA
:1055600084E395E00E947A2A8FEC94E00E947A2AE4
:10557000E0EAF4E01582168288E2E7EAF4E0DF016F
:10558000982F1D929A95E9F7E1E7F4E015821682CB
:10559000E8E7F4E0DF011D928A95E9F781E494E001
:1055A0000E946A2A81E194E00C946A2A789484B576
:1055B000826084BD84B5816084BD85B5826085BD0F
:1055C00085B5816085BD80916E00816080936E009D
:1055D000109281008091810082608093810080918F
:1055E0008100816080938100809180008160809340
:1055F0008000809191008260809391008091910061
:1056000081608093910080919000816080939000F0
:105610008091C10084608093C1008091C10082604C
:105620008093C1008091C10081608093C10080910E
:10563000C30081608093C3008091C000826080932A
:10564000C0008091C20081608093C20080917A0086
:10565000846080937A0080917A00826080937A00DF
:1056600080917A00816080937A0080917A008068CE
:1056700080937A001092B9031092A00310929F03B6
:105680008091D70081608093D70080EA8093D80012
:1056900089B5806189BD89B5826089BD09B400FE84
:1056A000FDCF61E070E080E090E00E9424038091F3
:1056B000D8008F7C80618093D8008091E000807F4B
:1056C0008093E0008091E1008E7E8093E1008DE088
:1056D0008093E200559A209A56985E9A90E080E076
:1056E0000E94E02E282F30E03093AE032093AD03CC
:1056F000843030F081E090E09093AE038093AD036E
:105700008091AD039091AE038230910509F4DCC025
:105710008330910509F4A1C1019709F067C1549A3A
:105720005C9A25982D982D9A24982C982C9A6E98EE
:105730007698769A57985F985F9A3E984698469AD8
:105740003F984798479A10923C05CFE3D5E00FEF7A
:1057500088248A94982C10E808831E869A8289826D
:105760001B831C831D821E82CE010E949E062F96E3
:1057700025E0C939D20781F7229A2A9A85988D980F
:105780008D9A86988E988E9A87988F988F9A21985E
:105790002998299A23982B982B9A26982E982E9AF6
:1057A0001092D704CAEDD4E00FEF88248A94982C85
:1057B00010E808831E869A8289821B831C831D82BF
:1057C0001E82CE010E949E062F9685E0C433D80724
:1057D00081F783E290E00197F1F780ED97E02BE00D
:1057E00030E0369967C2F9013197F1F70197C9F7AF
:1057F00080913C05811151C082E080932E01C0E070
:10580000D0912E01CD1708F04AC08EE090E00E94A2
:10581000FC2E4C0143E04C0FAA24A394CC24C39447
:10582000EE24E39401E02D2F6AE573E00E94C409A1
:10583000EC2FF0E0EE0FFF1FEF55FC4F91828082BE
:10584000CF5FDECF213009F085C2813009F082C2FE
:105850004130510541F081E090E090933E05809306
:105860003D053F9A479AE1E040E0F1E06BE070E0EF
:105870004798342F3F2780ED97E026B126FB22275B
:1058800020F9321374C2DB011197F1F70197A9F7E0
:10589000AFCFE82F41E0479AECCF86E0AECFC0E033
:1058A00080912E01C81708F0BDC18C2F0E9463069D
:1058B000EC2FF0E0EE0FFF1FEF55FC4F8081918140
:1058C0000E94A509CF5FECCF1092A604249A2C98D1
:1058D000259A2D9A6E987698769A549A5C9A3E9864
:1058E0004698469A2C9A8BE090E00197F1F736990A
:1058F00003C084E08093A6042C9883E190E0019794
:10590000F1F710927704869A8E98859A8D9A8798E7
:105910008F988F9A229A2A9A23982B982B9A8E9A4C
:105920008BE090E00197F1F71B9903C084E080932E
:1059300077048E9883E190E00197F1F783E290E09D
:105940000197F1F78091A604811128C082E080932D
:105950002E0182E390E090932D0180932C01C0E012
:10596000D0912E01CD1700F58EE090E00E94FC2E24
:105970004C0143E04C0FA12CC12CE12C00E02D2F59
:1059800063E673E00E94C409EC2FF0E0EE0FFF1F06
:10599000EF55FC4F91828082CF5FE2CF86E080930B
:1059A0002E0188EE93E0D7CFC0E080912E01C8177A
:1059B00078F48C2F0E946306EC2FF0E0EE0FFF1FAF
:1059C000EF55FC4F808191810E94A509CF5FEDCFFB
:1059D00080912C0190912D018230910538F0880F33
:1059E000991F880F991F05970197F1F71092AA0543
:1059F0008CE38093A9051092B90084E48093BC00E5
:105A00008CE08093B80010929D0510929E05ECEDFD
:105A1000F3E085919491982EEEEDF3E01491EFED83
:105A2000F3E0E491E0939F05E0EEF3E0E491E0938E
:105A3000A005E1EEF3E0E491E093A105C82FD92F92
:105A40008C2F8919811708F0F4C0FE01649189E94F
:105A500095E00E941B072196F3CF3E9A4698549AF0
:105A60005C9825982D982D9A24982C982C9A6E98AD
:105A70007698769A57985F985F9A10924804E1E476
:105A8000F4E029E634E08FEF9FEF118610869387CC
:105A90008287158614869787868738962E173F0744
:105AA000A1F7239A2B98229A2A9885988D988D9AF7
:105AB00086988E988E9A87988F988F9A2198299891
:105AC000299A10921804E1E1F4E08FEF9FEF11861C
:105AD00010869387828715861486978786873896DF
