:100000000C9454020C947C020C947C020C947C02A0
:100010000C947C020C947C020C947C020C947C0268
:100020000C947C020C947C020C94AF250C941E263C
:100030000C947C020C947C020C947C020C947C0248
:100040000C947C020C947C020C947C020C947C0238
:100050000C947C020C947C020C947C020C9465251C
:100060000C947C020C947C020C947C020C947C0218
:100070000C947C020C947C020C947C020C947C0208
:100080000C947C020C947C020C947C020C947C02F8
:100090000C947C020C947C020C947C020C947C02E8
:1000A0000C947C020C947C020C947C02AED580A84B
:1000B0003FD300408D142002A1C8DA12817FD9F10C
:1000C000DB40A4A6AF5341542D574845454C00533F
:1000D00041542D33440053415455524E0047454E30
:1000E000455349532D360047454E455349532D330B
:1000F000004A4F47434F4E00464C494748545354DB
:1001000049434B004455414C53484F434B004E45E7
:1001100047434F4E005920005820004F555450552A
:10012000542044495341424C454400582000434F19
:100130004E4649470047554E434F4E005043452DCC
:1001400036005043452D32004A4147554152004E3A
:10015000454F2D47454F0050432D454E47494E458D
:1001600000504C415953544154494F4E0047454E5D
:1001700045534953202B2053415455524E0052456C
:10018000424F4F54494E472E2E2E004D554C544948
:100190002D544150004E2F41004D554C54492D5483
:1001A00041500000030C0F30333C3FC0C3CCCFF0B4
:1001B000F3FCFF0000000200090F0000030401002F
:1001C0000C00000000000000000000000000000023
:1001D0000000080B000202020000090400000102F6
:1001E000020000052400100105240101010424027D
:1001F00006052406000107058103100040090401DB
:1002000000020A0000000705020240000007058303
:10021000024000000403090412010002EF02014041
:100220004123368000010102030141726475696E49
:100230006F204C4C430041726475696E6F204C65B1
:100240006F6E6172646F005245464C455800000065
:1002500005072061000000000000005F00006070E2
:10026000787060605048506003070F07030305096A
:100270000503081C3E7F7F081C22417F7F7F3E1CB8
:10028000087F41221C08082A1C2A0808083E080882
:1002900000503000000808080808006060000020D6
:1002A000100804023E5149453E00427F4000426131
:1002B0005149462141454B311814127F10274545BD
:1002C00045393C4A494930017109050336494949D4
:1002D00036064949291E00363600003C7E7E7E3CAB
:1002E0003C4242423C1414141414F0F0F0F0F0F0CC
:1002F000909090F0324979413E7E1111117E7F49F4
:100300004949363E414141227F4141221C7F4949B2
:1003100049417F090901013E414151327F080808E6
:100320007F00417F41002040413F017F081422416E
:100330007F404040407F0204027F7F0408107F3EE0
:100340004141413E7F090909063E4151215E7F0935
:10035000192946464949493101017F01013F404081
:10036000403F1F2040201F7F2018207F6314081467
:10037000630304780403615149454300007F414110
:10038000020408102041417F0000383C1E0F074046
:1003900040404040382412090720545454787F4884
:1003A0004444383844444420384444487F38545402
:1003B0005418087E090102081454543C7F080404B0
:1003C0007800447D40002040443D00007F102844D8
:1003D00000417F40007C041804787C0804047838CD
:1003E000444444387C14141408081414187C7C0801
:1003F0000404084854545420043F4440203C4040E6
:10040000207C1C2040201C3C4030403C44281028CC
:10041000440C5050503C4464544C44E0E0E0E0E074
:1004200000007F0000E0A0A0A0E008082A1C080847
:100430001C2A08080006090906AC00198040004E75
:100440004F4E45004449474954414C0000000000CC
:10045000250028002B002E003100000000002400A1
:1004600027002A002D0030000404040404030405BE
:100470000202020204030202020206060606060641
:100480000404020202040404080201104080401027
:1004900020408040800802040180402010020110AA
:1004A000801020404020F32D11241FBECFEFDAE052
:1004B000DEBFCDBF14E0A0E0B1E0E6E4FBE602C0A1
:1004C00005900D92A03FB107D9F727E0A0EFB4E067
:1004D00001C01D92A031B207E1F712E0C4E5D2E0FD
:1004E00004C02197FE010E946134C335D107C9F7CA
:1004F0000E946E2E0C94A1350C94000090E0FC013B
:10050000E957FB4F249188599B4FFC018491882324
:1005100099F090E0880F991FFC01E65AFB4FA591D6
:10052000B491FC01E45BFB4F859194918FB7F894F3
:10053000EC91E22BEC938FBF0895FC01611109C08F
:1005400081819281807F480F592F511D52834183B1
:100550000895613051F4818192818F7020E1429F32
:10056000A0011124480F591FF1CF623039F4818165
:100570009281907F50E0542F4427F4CF633049F4A8
:10058000818192819F7050E0542F44275295507F73
:10059000E9CF643011F443830895653011F4448346
:1005A0000895663011F445830895673009F4468351
:1005B0000895FC0180914005882311F13FB7F8941C
:1005C00082E08093E9002091F200822F90E01816DB
:1005D000190614F481E090E0882339F0289844E665
:1005E00040933F054091F1004083222339F0209150
:1005F000F200211103C02BE62093E8003FBF0895CD
:100600008FEF9FEF08953FB7F89480913B0590914D
:100610003C05A0913D05B0913E0526B5A89B05C0BF
:100620002F3F19F00196A11DB11D3FBFBA2FA92F71
:10063000982F8827BC01CD01620F711D811D911D6E
:1006400042E0660F771F881F991F4A95D1F70895DA
:100650008F929F92AF92BF92CF92DF92EF92FF92D2
:100660004B015C010E9403036B017C010E940303A8
:100670006C197D098E099F09683E734081059105BB
:10068000A8F321E0821A9108A108B10888EEC80EEB
:1006900083E0D81EE11CF11C81149104A104B10473
:1006A00029F7FF90EF90DF90CF90BF90AF909F9091
:1006B0008F9008952FB7F8946091370570913805A1
:1006C0008091390590913A052FBF089540912905F1
:1006D00050912A052091270530912805421753078C
:1006E000B4F49091E8009570E1F39091E80092FDE8
:1006F00019C08093F1008091290590912A050196F7
:100700008F739927892B19F48EEF8093E8008091DD
:10071000290590912A05019690932A058093290531
:1007200081E0089580E00895EF92FF920F931F9368
:10073000CF93DF93F82E192FE62E042F81E0860F3A
:10074000880F0E94660383E00E946603CF2DD12F9D
:10075000EC0EFD2EF11CCE15DF05B9F007FF13C01E
:10076000FE0184910E946603182F80E00E946603B8
:10077000812321968111EFCFDF91CF911F910F91AE
:10078000FF90EF9008958881EDCF81E0F5CFDF9263
:10079000EF92FF920F931F93CF93DF93D82E8A018E
:1007A000EB017B01E40EF51ECE15DF0559F0D7FEF7
:1007B00012C0FE0184910E94660321968111F4CF3C
:1007C0000FEF1FEFC801DF91CF911F910F91FF90A5
:1007D000EF90DF9008958881EECF2FB7F89487705F
:1007E0008093E9009091E800892F807295FF04C002
:1007F0009091F20080E4891B2FBF08957F928F9221
:100800009F92AF92BF92CF92DF92EF92FF920F939F
:100810001F93CF93DF93C82E8B017A0180914005FF
:10082000811110C08FEF9FEFDF91CF911F910F913A
:10083000FF90EF90DF90CF90BF90AF909F908F9000
:100840007F90089580912D0580FF05C08091E00084
:1008500082608093E000CE2DDF2DD12C8AEFB82E60
:100860008C2D8770982E8C2D8072882E8C2D807404
:10087000782E9AE3A92E209719F4DD2009F452C0AE
:100880008C2D0E94ED0381110AC0BA94BB2051F255
:1008900061E070E080E090E00E942803ECCF8C17CC
:1008A0001D0611F00CF08C2F9FB7F8949092E90080
:1008B0002091E80025FD02C09FBFDDCF282F30E04A
:1008C000C21BD30B882029F08150A0F01092F100B8
:1008D000FBCFF801C7FC0AC0815050F04191409312
:1008E000F100FACF44914093F10031968150D0F756
:1008F000020F131FDD2021F0A092E800D12CDCCFE5
:100900008091E80085FD07C0A092E800DD24D39423
:10091000209791F2F3CF209779F6772069F2A09291
:10092000E800CACF5D9884E680932C05C7017CCF90
:10093000615030F02091F100FC0120830196F8CF46
:10094000289884E680933F050895AF92BF92CF9296
:10095000DF92EF92FF920F931F93CF93DF936C017F
:100960007B018B01040F151FEB015E01AE18BF0860
:10097000C017D10759F06991D601ED91FC91019012
:10098000F081E02DC6010995892B79F7C501DF912A
:10099000CF911F910F91FF90EF90DF90CF90BF907C
:1009A000AF90089580911F0581110DC082E0809362
:1009B0001B0584E080931C0510921E0510921D05F6
:1009C00081E080931F058BE195E008950F931F93BD
:1009D000CF93DF931F92CDB7DEB782E0898342E4E5
:1009E00050E062ED71E080E80E94C7030E94D204EB
:1009F000DC0112960D911C910115110589F0D801A9
:100A0000ED91FC910280F381E02DBE016F5F7F4F7D
:100A1000C801099597FD04C0F80100851185ECCF48
:100A200089810F90DF91CF911F910F910895CF93FE
:100A3000DF93EC0180914401882331F083E00E9430
:100A4000FE031816190634F081E090E09B838A8338
:100A500080E090E0DF91CF910895CF93DF931F92D4
:100A6000CDB7DEB76983DC01ED91FC910280F381A3
:100A7000E02D41E050E0BE016F5F7F4F09950F9080
:100A8000DF91CF91089583E08093E9008091F20097
:100A9000882319F08AE38093E800089583E00E9498
:100AA000ED0390E00895CF93DF931F92CDB7DEB7AB
:100AB000FC018485958597FD08C02FEF3FEF3587B2
:100AC00024870F90DF91CF910895CE0101960E9467
:100AD000D902019719F4898190E0F3CF8FEF9FEF4E
:100AE000F0CF0F931F93CF93DF931F92CDB7DEB755
:100AF0008C01FC018485958597FF0BC0CE01019682
:100B00000E94D902019771F4898190E0F8019587DC
:100B10008487F801848595850F90DF91CF911F918F
:100B20000F9108958FEF9FEFF1CFFC01848595859C
:100B300097FD0BC09FB7F89482E08093E900809105
:100B4000F2009FBF90E0019608959FB7F89482E06D
:100B50008093E9008091F2009FBF90E00895CF93C9
:100B6000CFB7F89480911A0581115AC049E754E033
:100B7000FA01949128E934E0F9018491E92FF0E039
:100B8000EE0FFF1FE65AFB4FA591B4919C9198235D
:100B900009F037C0E4ECF1E09491F9012491FA01F5
:100BA0008491882309F42DC09923E9F091509F3056
:100BB000D0F4E92FF0E0E152FA4F0C9461342006B2
:100BC0002406EE0518061C06F305F305F3052706B3
:100BD0002D06310635063B06F3053F069091800051
:100BE0009F7790938000E82FF0E0EE0FFF1FE45B0B
:100BF000FB4FA591B4918FB7F8949C91292B2C931E
:100C00008FBF81E10E947E028CB580618CBD8CB566
:100C100080648CBD8FE00E947E0280E10E947E0293
:100C200080911A058F5F80931A05CFBFCF910895E9
:100C3000909180009F7DD5CF90918000977FD1CFFC
:100C400094B59F7794BDCFCF94B59F7DFBCF909106
:100C500090009F7790939000C6CF909190009F7DD9
:100C6000F9CF90919000977FF5CF9091C0009F773A
:100C70009093C000B8CF9091C0009F7DF9CF909124
:100C8000C200977F9093C200AECFCF93DF93EC0169
:100C90008A85882329F081508A87DF91CF91089532
:100CA0009C818E819817C8F78D856827E881F98126
:100CB0000084F185E02D42E0CE0109958C818F5FA3
:100CC0008C83EBCFFC018FE086838FE7878380875F
:100CD0001186128613860895FC01138214821582F0
:100CE000168217820895DC01FB0112962C9112974F
:100CF000848195812817190641F491818081813A78
:100D000031F49D7F81E0913009F080E008958132D7
:100D1000E1F79B3029F482811F968C9381E008953E
:100D20009A3099F7828150968C93F8CFEF92FF9288
:100D30000F931F93CF93DF93FB012081213889F517
:100D40002381223271F5DC0112964C912481358188
:100D50004217130631F58C01FC01C385D485F12CB3
:100D6000E12C209791F04C815D816A817B818E819D
:100D7000811180E80E94C7038F3F980759F0E80E61
:100D8000F91E0990D881C02DECCF81E0D8011F96C3
:100D90008C93C701DF91CF911F910F91FF90EF903E
:100DA000089590E080E0F6CFCF93DF93CDB7DEB724
:100DB00069970FB6F894DEBF0FBECDBFFC01DB0113
:100DC0008C918F5F8C939E012D5F3F4F8DE0D901F9
:100DD0001D928A95E9F729E0298384E08A8391E0CE
:100DE0009D8383E08E832A8721E22B879C879D87C2
:100DF0009F8722E2288B27E02B8B25E02C8B8E8B84
:100E000020E430E0388F2F8B998F82818B839585FA
:100E10008685998B8A8B838180688D8B49E150E030
:100E2000BE016F5F7F4F80E00E94C70369960FB6D7
:100E3000F894DEBF0FBECDBFDF91CF91089523B1EF
:100E40004FB13FB15FB126952170220F220F220FC3
:100E5000441F4427441F440F440F240F55FB4427CD
:100E600040F9240F36FB332730F9330F230F019756
:100E700021F01B9920611E992062822F089559B19B
:100E80003CB143B163B136FB222720F9220F220F78
:100E9000352F331F3327331F330F330F330F230FF8
:100EA00065FB332730F9230F44FB332730F9330F29
:100EB000230F019721F03699206137992062822F04
:100EC00008958FB7F894809117058FBF089584E92E
:100ED0008093BC0085E69091BC0094FF03C08150D4
:100EE000D1F7089581E008956EBD00000DB407FEAE
:100EF000FDCF8EB508952A9A299A8C9A83EC90E0BA
:100F00000197F1F708952A9A299A469A83EC90E07E
:100F10000197F1F708958091340590913505019678
:100F2000863091052CF4909335058093340508950F
:100F300081E090E0F8CF90914701891778F4E82F8D
:100F4000F0E0EE0FFF1FEA5BFA4F80819181DC0138
:100F5000ED91FC910190F081E02D099408958CBDF4
:100F60009DBD08958C9880912E0690912F060E9429
:100F7000AF0783EC90E00197F1F7089546988091D0
:100F80002E0690912F060E94AF0783EC90E0019708
:100F9000F1F708958F929F92AF92BF92CF92DF9216
:100FA000EF92FF920F931F93CF93DF937C016B011E
:100FB0005A01022F10E0D0E0C0E083EC882E912C83
:100FC000C017D107E1F0D701ED91FC910480F581C4
:100FD000E02D6AE5C114D10421F0D601AC0FBD1F8C
:100FE0006C91C7010995A114B10421F0F501EC0F32
:100FF000FD1F8083C4010197F1F72196E1CFDF91B6
:10100000CF911F910F91FF90EF90DF90CF90BF9005
:10101000AF909F908F900895CF92DF92EF92FF92C2
:101020000F931F93CF93DF937C016B01D42F8C011F
:101030000E5F1F4F23E0A8010E94CA07F70123811A
:101040002F3F61F410E000E0C801DF91CF911F91C4
:101050000F91FF90EF90DF90CF90089584818A35B3
:1010600011F08111EFCF2F70C22FCC0FD33059F078
:10107000B6016D5F7F4F2DEF2D0FA7014B5F5F4FC7
:10108000C7010E94CA072C2F2D1B2D5FE9F24D2F9F
:1010900050E0CA01820F911D8197A4F6400F511FA5
:1010A00070E060E0C7010E94CA07CECFAF92BF9246
:1010B000CF92DF92EF92FF920F931F93CF93DF9324
:1010C00000D000D01F92CDB7DEB78C01DC019C961A
:1010D0001C929C97D9961C92D997ED91FC91019006
:1010E000F081E02D0995F80182AD811108C083AD32
:1010F000803409F083C084AD813009F07FC085E081
:10110000E1E5F2E0DE01119601900D928A95E1F79A
:10111000D80196968D919C919797069709F068C093
:10112000DD968C918C8345E0BE016F5F7F4FC801D7
:101130000E940C087C01D801ED91FC910280F381A2
:10114000E02DC8010995E114F10409F440C0F7014C
:101150008181807F803F09F055C00E945A036B0156
:101160007C01D801ED91FC910190F081E02DC80146
:10117000099544E068E472E0C8010E940C085C0133
:10118000D801ED91FC910280F381E02DC801099511
:10119000A114B10429F0F5018181807F803F89F499
:1011A0006AE070E080E090E00E9428030E945A0309
:1011B0006C197D098E099F096B3F710581059105A9
:1011C00080F262E370E080E090E00E94280380E01B
:1011D0000F900F900F900F900F90DF91CF911F9174
:1011E0000F91FF90EF90DF90CF90BF90AF90089558
:1011F000F80183AD8C8384AD8D8395CF43E061E5A9
:1012000072E095CFD80194968D919C919597939685
:101210009C938E9392972381348195963C932E9341
:10122000949781818937B9F483E090E097969C93F5
:101230008E939697D80196968D919C91979784302E
:10124000910591F150F58230910571F1039709F400
:1012500041C081E0BDCF982F907F903721F482E08C
:1012600090E0D801E3CF903531F484E090E0F801CC
:1012700097A386A3DFCF833219F485E090E0F1CF06
:10128000903E19F486E090E0F2CF833619F487E0BF
:1012900090E0E7CF81E090E0EACF8630910509F455
:1012A0005CC030F10797A9F681E0D8019C968C9339
:1012B0009C97F70185819A968C939A9786819B9645
:1012C0008C939B97878198968C9398978085999615
:1012D0008C93BFCF81E0F80181AFF70139969D96DD
:1012E000C701459621912D93E817F907D9F7DCCF6F
:1012F00081E09C968C939C97F701958198969C939E
:101300009897D9968C93D9978681D3968C93D397B7
:101310009781D4969C93D4974085D5964C93D59736
:1013200097FF05C03F7795963C932E93949787FF40
:101330000AC0D80194968D919C9195979F7B959624
:101340009C938E939497403F08F483CFF80184A137
:1013500095A19B7F95A384A37CCF81E09C968C93E1
:10136000F7019681858197FD1AC087FD8FE7D80127
:1013700098968C93D80198968C91989780589896C7
:101380008C939897F70185819D968C939D97868184
:101390009E968C939E9787819F968C935ACF813887
:1013A00008F481E8F80180A7E5CFFC0180818783FC
:1013B00081819281918780878381828784818387DD
:1013C00085818487868185870895FC016093BC00B0
:1013D0002FEF3FEF8091BC0087FF06C09091B900CE
:1013E000987F908381E008952150310999F780E03A
:1013F0000895CF93DF93EC016093BB0064E80E94F3
:10140000E509882329F081E09881983209F080E08D
:10141000DF91CF910895DF92EF92FF920F931F9388
:10142000CF93DF93EC01D62EF42E8989882329F0FF
:10143000411103C00E946707198A8E01015F1F4F87
:101440008989811119C0E88864EAC8010E94E50908
:10145000882361F08F85883011F0803139F4EE0CEB
:10146000E092BB0064E8C8010E94E50960E0F11069
:1014700060E4C8010E94F9096D2DC8010E94F909B4
:1014800082E0F8120BC089898F5F898BDF91CF9141
:101490001F910F91FF90EF90DF9008950E946707D2
:1014A000198AF4CFDC01ED91FC910084F185E02DE7
:1014B00040E00994FC012781269526952695621720
:1014C00020F46583606B0C94520A08950F931F9368
:1014D000CF93FC012681621798F4C62F8C01648398
:1014E0006085C60F6C2F6F700E94520A6C2F629538
:1014F0006F706061C801CF911F910F910C94520AD7
:10150000CF911F910F9108951F93CF93DF93EC011B
:10151000142F0E94660A612FCE01DF91CF911F9197
:101520000C945A0A2F923F924F925F926F927F9241
:101530008F929F92AF92BF92CF92DF92EF92FF92E3
:101540000F931F93CF93DF9300D000D000D0CDB77F
:10155000DEB7FC01238534852115310509F416C158
:101560009E838D83F9013296649031964491E42EE6
:10157000F12CF7E0EF0EF11C53E0F594E7945A9547
:10158000E1F7E982F901349654913196E4916D3096
:10159000F1F460E00E94660A81E090E026960FB6C2
:1015A000F894DEBF0FBECDBFDF91CF911F910F9199
:1015B000FF90EF90DF90CF90BF90AF909F908F9073
:1015C0007F906F905F904F903F902F9008956A307A
:1015D00081F460E08D819E810E94660AED81FE812A
:1015E000868565818E9D600D1124CF010E945A0A67
:1015F000D3CF651708F4CAC08E2F90E0FC01E50F29
:10160000F11D6E171F060CF0C1C089010A5F1F4F44
:10161000651BED81FE8171855685759F502D1124C6
:101620005C83F90154912F5F3F4FF9012491352FCD
:101630002230310508F06AC06E9CC0016F9C900D8D
:101640001124689FF001699FF00D11240E0F1F1FD8
:10165000512CED81FE81F481FA83ED81FE8125809C
:10166000F285FB83862C912CAA24A394B12C312CD7
:101670008981381608F086C0412CED81FE8186856F
:10168000481608F078C08B818287311002C0442050
:1016900041F0ED81FE8145814F5F6A81CF010E945B
:1016A000840AD12CC12CC61408F058C0F801EC0DE6
:1016B000FD1D7490552061F0EA14FB0449F4E72DF8
:1016C000F0E0052C02C0F595E7950A94E2F77E2E2E
:1016D000ED81FE818685823081F4442009F43AC090
:1016E00072948FE07822E72DF0E0ED55FE4F749074
:1016F000672D8D819E810E944506672D8D819E817B
:101700000E9445068FEFC81AD80ACDCF477028E04F
:10171000522E541A411101C0512CF801612C30E0B5
:1017200020E0661631F04491240F311D6394319608
:10173000F8CF600E712E711CF3016490E29EF001EF
:10174000E39EF00DF29EF00D11248E0F9F1F080FE7
:10175000191F7FCFF72DFF707F2EC5CFD12CEC81C5
:10176000DE1639F060E08D819E810E944506D3949B
:10177000F6CF439482CF3394080D191DFFEFAF1AB3
:10178000BF0A76CF622D8D819E8130CF90E080E0C0
:1017900005CF0F931F93CF93DF938C01D0E0C0E070
:1017A000F801EC0FFD1F6491662341F08AEF96E08B
:1017B0000E94920A892B11F02196F2CFCE01DF917F
:1017C000CF911F910F910895CF92DF92EF92FF92E8
:1017D0000F931F93CF93DF93EC01F62EC42ED22EDE
:1017E0001A868F81869586958695081710F00FEFDB
:1017F000080F1D2D011780F0412F6F2DCE010E9483
:10180000840AEF2CCE1430F06D85CE010E9445067F
:10181000E394F8CF1F5FEECF4D2D6F2DCE01DF91FA
:10182000CF911F910F91FF90EF90DF90CF900C948C
:10183000840A0F93FC0107810695069506950150D1
:101840004681415020E060E00E94E40B0F91089532
:101850004F925F926F927F928F92AF92CF92EF9260
:10186000FF920F931F93CF93DF93CDB7DEB727017E
:10187000380194E0899F80011124F801E051FB4F69
:1018800080819181A281B3818E219521A621B721EA
:1018900031E0892B8A2B8B2B09F430E03C1103C0FB
:1018A0008889882301F1C11001C0A82C2D5F640F25
:1018B000422F8AEF96E00E94840A6A2D8AEF96E012
:1018C0000E94920AF801E051FB4FCC20D1F08081B8
:1018D0009181A281B38184299529A629B729808382
:1018E0009183A283B383DF91CF911F910F91FF90DA
:1018F000EF90CF90AF908F907F906F905F904F90D0
:101900000895409450946094709480819181A28154
:10191000B38184219521A621B721E1CF2F923F9257
:101920004F925F926F927F928F92AF92CF92DF929F
:10193000EF92FF920F931F93CF93DF933C01D62E2C
:10194000CCE9D3E0E880F9800A811B819C814D813C
:10195000AE808F8081E06114710479F0F301228000
:101960003380448055802E203F204022512281E048
:1019700023282428252809F080E0DF92C82E292F6B
:1019800060E080E00E94280C28960F90F4E0C434B8
:10199000DF07C1F6DF91CF911F910F91FF90EF907C
:1019A000DF90CF90AF908F907F906F905F904F902F
:1019B0003F902F9008950F93CF93DF93EC0107E0B2
:1019C00023E04CE360E08AEF96E00E94E40B47E0FE
:1019D00060E08AEF96E00E94840A229761F484E432
:1019E00094E00E94C90B61E090E080E0DF91CF912C
:1019F0000F910C948E0C8FE394E0DF91CF910F91B7
:101A00000C94C90B0F9307E022E04FE760E08AEFE8
:101A100096E00E94E40B8091340590913505833067
:101A2000910539F138F48130910589F00297C9F0B8
:101A30000F9108958430910521F10597C9F76AE265
:101A40008AEF96E00E94660A88E491E007C06CE0A5
:101A50008AEF96E00E94660A8DE691E00F910C9461
:101A6000C90B6EE18AEF96E00E94660A81E691E07A
:101A7000F5CF64E28AEF96E00E94660A87E591E07E
:101A8000EDCF6AE28AEF96E00E94660A8FE491E069
:101A9000E5CF809312016EEA81116FEA8AEF96E03A
:101AA0000E94520A0E945A0360930705709308052A
:101AB0008093090590930A050895FC01448550E040
:101AC000A585B0E0AA0FBB1FAF5BBA4F0D90BC91CC
:101AD000A02D13968C91806490914505BF019923A8
:101AE00021F06E5F7F4F0C94FE036D5F7F4FFBCF45
:101AF000089590E080E00895CF92DF92FF920F93D7
:101B00001F93CF93DF936C0170E06F5F7F4F7595EC
:101B1000679590911805961758F090911905FF2434
:101B2000F39401E010E0961730F082E0F82E6AC0DE
:101B3000F12C10E000E0F801E85EFA4F81E0890F37
:101B4000808391115FC083E190E00E946734EC01D3
:101B500091E09C839D839E01265F3F4F3F832E83B0
:101B6000198618862AE833E0398328831C861B8669
:101B70001E861D869F87988BDA8AC98A81EC8A87A0
:101B80000E94D204FC0181813C81682F630F77277A
:101B9000771F683071057CF5A281B3811097F9F445
:101BA000D383C28390819A838B838D81890F8083B5
:101BB00090E080E08317F8F42181A22FB0E0BD010E
:101BC0006E5C7E4F4E815F81480F591FDA014C9148
:101BD000DB014C932F5F21830196ECCFDA0118963D
:101BE0004D915C91199741155105C1F71996DC93F8
:101BF000CE931897D7CF000F111FF801EF5BFA4F64
:101C0000D183C0838F2DDF91CF911F910F91FF90D2
:101C1000DF90CF9008954F925F926F927F928F9254
:101C20009F92AF92BF92CF92DF92EF92FF920F936B
:101C30001F93CF93DF93CDB7DEB7C456D1090FB64C
:101C4000F894DEBF0FBECDBF3C01CB01D42EF22EE7
:101C5000E896BFACE897E9969FACE99728E434E0B2
:101C6000D3012D933C936F2D0E947C0D182FF3010F
:101C7000858781E0F2E0FF1508F080E0809345055C
:101C80008EE494E0D30111969C938E931296DC928D
:101C90002C2D2A0D2E0D200FBB2DB90D5B2E580CAF
:101CA000822F850D95E0980FF301948735E03983F5
:101CB00091E09A8349E04B833C8331EA3D839E83E4
:101CC000F2E0FF1508F0F6C385E88F83D88698E028
:101CD000E1E0F0E0EC0FFD1FE90FF11D45E040836E
:101CE000E1E0E90F66246394712C6C0E7D1E6E0E8C
:101CF000711CF30159E05083E2E0E90F61E070E00C
:101D00006C0F7D1F6E0F711DFB0189E18083E3E085
:101D1000E90FA1E0B0E0AC0FBD1FAE0FB11DFD019A
:101D200031E03083E4E0E90F66246394712C6C0E9B
:101D30007D1E6E0E711CF30189E28083E5E0E90FE0
:101D400061E070E06C0F7D1F6E0F711DFB0188E17B
:101D50008083E6E0E90FA1E0B0E0AC0FBD1FAE0F5D
:101D6000B11DFD0175E1472E4082E7E0E90F6624D1
:101D70006394712C6C0E7D1E6E0E711CF30110822B
:101D8000E8E0E90F61E070E06C0F7D1F6E0F711DE0
:101D9000FB01A5E2FA2EF082E9E0E90FA1E0B0E054
:101DA000AC0FBD1FAE0FB11DFD013083EAE0E90F9E
:101DB00066246394712C6C0E7D1E6E0E711CF301F3
:101DC00075E77083EBE0E90FA1E0B0E0AC0FBD1F59
:101DD000AE0FB11DFD013083ECE0E90F6624639482
:101DE000712C6C0E7D1E6E0E711CF30165E9608313
:101DF000EDE0E90FA1E0B0E0AC0FBD1FAE0FB11DEB
:101E0000FD018083EEE0E90F66246394712C6C0E73
:101E10007D1E6E0E711CF30181E88083EFE0E90FF7
:101E2000A1E0B0E0AC0FBD1FAE0FB11DFD01A2E0FF
:101E3000DA2ED082E0E1E90F66246394712C6C0EF7
:101E40007D1E6E0E711CF3014083E1E1E90FA1E0FC
:101E5000B0E0AC0FBD1FAE0FB11DFD013083E2E15C
:101E6000E90F66246394712C6C0E7D1E6E0E711C3E
:101E7000F3015083E3E1E90FA1E0B0E0AC0FBD1F37
:101E8000AE0FB11DFD0149E34083E4E1E90F662493
:101E90006394712C6C0E7D1E6E0E711CF3014082DA
:101EA000E5E1E90FA1E0B0E0AC0FBD1FAE0FB11D41
:101EB000FD011082E6E1E90F66246394712C6C0E3B
:101EC0007D1E6E0E711CF301F082E7E1E90FA1E0C7
:101ED000B0E0AC0FBD1FAE0FB11DFD0147E0408368
:101EE000E8E1E90F66246394712C6C0E7D1E6E0E82
:101EF000711CF30145E34083E9E1E90FA1E0B0E0A3
:101F0000AC0FBD1FAE0FB11DFD011082EAE1E90F5C
:101F100066246394712C6C0E7D1E6E0E711CF30191
:101F200046E44083EBE1E90FA1E0B0E0AC0FBD1F58
:101F3000AE0FB11DFD014BE34083ECE1E90F6624D8
:101F40006394712C6C0E7D1E6E0E711CF301308338
:101F5000EDE1E90FA1E0B0E0AC0FBD1FAE0FB11D88
:101F6000FD0145E64083EEE1E90F66246394712CA0
:101F70006C0E7D1E6E0E711CF30144E14083EFE197
:101F8000E90FA1E0B0E0AC0FBD1FAE0FB11DFD0128
:101F90007083E0E2E90F66246394712C6C0E7D1E61
:101FA0006E0E711CF30148E04083E1E2E90FA1E00D
:101FB000B0E0AC0FBD1FAE0FB11DFD016083E2E2CA
:101FC000E90F66246394712C6C0E7D1E6E0E711CDD
:101FD000F3013083E3E2E90FA1E0B0E0AC0FBD1FF5
:101FE000AE0FB11DFD018083E5E2E90F84E2890FA8
:101FF00066246394712C6C0E7D1E680E711CD301D7
:10200000DC92222309F400C166246394712C6C0EC7
:102010007D1E6E0E711CF3015083E6E2E90FA1E014
:10202000B0E0AC0FBD1FAE0FB11DFD013083E7E284
:10203000E90F66246394712C6C0E7D1E6E0E711C6C
:10204000F3014082E8E2E90FA1E0B0E0AC0FBD1F70
:10205000AE0FB11DFD011082E9E2E90F6624639421
:10206000712C6C0E7D1E6E0E711CF30186E2808356
:10207000EAE2E90FA1E0B0E0AC0FBD1FAE0FB11D69
:10208000FD018FEF8083EBE2E90F66246394712CEE
:102090006C0E7D1E6E0E711CF3011082ECE2E90FD6
:1020A000A1E0B0E0AC0FBD1FAE0FB11DFD0170830C
:1020B000EDE2E90F66246394712C6C0E7D1E6E0EAA
:1020C000711CF3014083EEE2E90FA1E0B0E0AC0F38
:1020D000BD1FAE0FB11DFD016083EFE2E90F662465
:1020E0006394712C6C0E7D1E6E0E711CF3012083A7
:1020F000E0E3E90F21E030E02C0F3D1F2E0F311DF2
:10210000F90181EA808382E3890FE1E3E90F61E06D
:1021100070E06C0F7D1F6E0F711DFB01108200239C
:1021200091F0E1E0F0E0EC0FFD1FE80FF11D5083AE
:1021300084E3890F9D5CE1E0F0E0EC0FFD1FE90F07
:10214000F11D90E39083EE20A1F0E1E0F0E0EC0FD0
:10215000FD1FE80FF11D99E09083E1E0E80FA1E099
:10216000B0E0AC0FBD1FAE0FB11DFD0191E3908338
:102170008E5FCC20A9F0E1E0F0E0EC0FFD1FE80F4E
:10218000F11D99E09083E1E0E80F66246394712CDF
:102190006C0E7D1E6E0E711CF30192E390838E5FB8
:1021A000AA20A1F0E1E0F0E0EC0FFD1FE80FF11D27
:1021B00099E09083E1E0E80F21E030E02C0F3D1F33
:1021C0002E0F311DF90195E390838E5FE1E0F0E081
:1021D000EC0FFD1FE80FF11D91E89083E1E0E80F9F
:1021E00061E070E06C0F7D1F6E0F711DFB0192E0CE
:1021F0009083E3E0E80F8E5FA1E0B0E0AC0FBD1F7D
:10220000A80FB11D20EC2C93552009F4FAC025E04D
:1022100081E090E08C0F9D1F8E0F911DDC012C93AF
:1022200081E08E0F66246394712C6C0E7D1E680E07
:10223000711C22E0D3012C9382E08E0F66246394FC
:10224000712C6C0E7D1E680E711C25E1D3012C9340
:1022500083E08E0F66246394712C6C0E7D1E680ED5
:10226000711CD3011C9284E08E0F66246394712C40
:102270006C0E7D1E680E711C26E2D3012C9385E046
:102280008E0F66246394712C6C0E7D1E680E711C7B
:102290002FEFD3012C9386E08E0F66246394712C6C
:1022A0006C0E7D1E680E711CD3011C9287E08E0F90
:1022B00066246394712C6C0E7D1E680E711C25E7DC
:1022C000D3012C9388E08E0F66246394712C6C0EDE
:1022D0007D1E680E711C28E0D3012C9389E08E0FBF
:1022E00066246394712C6C0E7D1E680E711C25E9AA
:1022F000D3012C938AE08E0F66246394712C6C0EAC
:102300007D1E680E711CD3015C92ABE0AE0F66249B
:102310006394712C6C0E7D1E6A0E711CD30181EAD0
:102320008C934DE04E0F8CE08E0F21E030E02C0FAF
:102330003D1F280F311DD9011C928820A9F0A1E072
:10234000B0E0AC0FBD1FA40FB11D89E08C934FE02E
:102350004E0FE25F66246394712C6C0E7D1E6E0E30
:10236000711CF3018BEB8083BB20A1F0E1E0F0E076
:10237000EC0FFD1FE40FF11D89E08083E1E0E40F25
:1023800021E030E02C0F3D1F2E0F311DF90185ECAF
:1023900080834E5F9920A1F0E1E0F0E0EC0FFD1F9B
:1023A000E40FF11D89E08083E1E0E40F61E070E07B
:1023B0006C0F7D1F6E0F711DFB0188EC80834E5FDB
:1023C000E1E0F0E0EC0FFD1FE40FF11D81E88083F8
:1023D000E1E0E40F81E090E08C0F9D1F8E0F911DD6
:1023E000FC0182E08083E3E0E40FA2E0A40F662416
:1023F0006394712C6C0E7D1E6A0E711CD30180ECEF
:102400008C93A1E0B0E0AC0FBD1FAE0FB11D80EC0E
:102410008C93EF5FEE2EF12CC7010E9467346C01A4
:10242000A701BE016F5F7F4F0E94913587E090E06A
:102430000E946734DC0111961C921E921396DC9266
:10244000CE9212971596FC92EE92149716961C92C5
:102450001697E12FF0E0EE0FFF1FEF5BFA4F408180
:102460005181FA0183859485009759F5B487A38734
:10247000FA018585968514962D913C91820F931FC4
:1024800096878587CC59DF4F0FB6F894DEBF0FBE15
:10249000CDBFDF91CF911F910F91FF90EF90DF9013
:1024A000CF90BF90AF909F908F907F906F905F90F4
:1024B0004F9008958C5FD3011C968C9396E008CCC6
:1024C000C901FC012081318121153105C9F7B18392
:1024D000A083CECF0E948C35CF93DF93FC01208563
:1024E000318580E0232B69F4EB0161897289CE018B
:1024F0000E949A35FE0101900020E9F731978E2F56
:102500008C1BDF91CF9108952F923F924F925F9253
:102510006F927F928F929F92AF92BF92CF92DF92F3
:10252000EF92FF920F931F93CF93DF93CDB7DEB758
:1025300068970FB6F894DEBF0FBECDBF0E940303AD
:10254000C0901305D0901405E0901505F090160585
:10255000AB01BC014C195D096E097F0980914501F1
:1025600090914601B0E0A0E0481759076A077B0741
:1025700010F40C94D21B8091340590913505833072
:10258000910511F40C94DA1E60F48130910509F480
:1025900000C1029711F40C94301C109211050C9498
:1025A000C81B8430910511F40C9400220597A9F7FB
:1025B0008091BE059091BF059093C5058093C40599
:1025C0008091C0059091C105A091C205B091C3054D
:1025D0008093C6059093C705A093C805B093C9051D
:1025E0005091BC051092BC051092BD058091D001A0
:1025F0009091D101A091D201B091D30189839A83A6
:10260000AB83BC839E012F5F3F4FF901B0E06BE1CC
:1026100070E080910605813011F40C94042310F4CD
:102620000C940123823011F40C940723833011F4AD
:102630000C940A23B23011F40C941023B33011F42B
:102640000C941323B13011F40C940D235F98CB013B
:102650000197F1F7B093060596B1F9B013B1AFB198
:1026600043B103B196FB882780F98295880F807E5D
:102670009F2D9071890F05FB992790F9890F18708C
:10268000810FA1FB992790F9990F990F890F44FBAE
:10269000992790F9990F890F8193BF5FB43009F0A2
:1026A000B8CF9091BC0581E0890F8093BC0581E093
:1026B000911101C080E090E04B81BC016F5F7F4FC2
:1026C00045FD02C00C9416234C8145FD02C00C94BC
:1026D00016234CE0469FF001479FF00D1124EE5465
:1026E000FA4F62E070E07183608301964CE0489F8E
:1026F000F001499FF00D1124EE54FA4F40E0D9014A
:102700008D919D01C82ED12CF12CE12C82819381D9
:10271000A481B58141110C942223807C8C0D9D1DD8
:10272000AE1DBF1D82839383A483B5834F5F443066
:1027300031F79091BC05B12C8CE0CC24CA94DC2CF0
:1027400076019B1511F40C94462321E030E0B11082
:1027500002C030E020E0B9016F5F7F4F869FD0015B
:10276000879FB00D1124AE54BA4F829FF001839F12
:10277000F00D1124EE54FA4F6D917C91228933892A
:102780006217730721F0C686D786E08AF18AB39470
:10279000D8CF9E012F5F3F4F29018CE0D9011D92B8
:1027A0008A95E9F780913101882381F010923101F7
:1027B00080914701833050F045E06EE18AEF96E06A
:1027C0000E94840A89E991E00E94C90B80EA96E0A0
:1027D0000E94D5098FEA96E00E94D5098EEB96E01B
:1027E0000E94D5098DEC96E00E94D5098CED96E00B
:1027F0000E94D5098BEE96E00E94D509B0919C0607
:10280000BD8710929C0610929D065C9AEBE0CE2E3E
:10281000D12CC6010197F1F780919E0690919F06F9
:102820000E943F07F82E5C98C6010197F1F780914E
:102830009E0690919F060E943F079F2D97702091C2
:102840009E0630919F064F2D4F70943009F0C2C004
:102850002130310541F021E030E030939F06209394
:102860009E063F9A479AE0919C0691E09E0F9093B6
:102870009C06E73008F0E6E02FE0E29FF00111242B
:10288000EB56F94F9FE49387248535853F7050E0E0
:10289000542F44275295507F240F351F207F8F706F
:1028A000280F311D358724875C9A47982BE030E04C
:1028B000C9010197F1F759B19CB143B163B196FBDE
:1028C000882780F9880F880F952F991F9927991FBE
:1028D000990F990F990F890F65FB992790F9890F27
:1028E00044FB992790F9990F890F40E1849FC0011B
:1028F0001124448555854F70840F951F95878487D3
:102900005C984798C9010197F1F739B19CB123B19F
:1029100043B196FB882780F9880F880F932F991F62
:102920009927991F990F990F990F890F45FB99279F
:1029300090F9890F24FB992790F9990F890F90E05E
:10294000982F882724853585307F820F931F9587A0
:1029500084875C9A80919E0690919F06019709F466
:10296000479A83E290E00197F1F770919C0620E08E
:102970003FE04FEF5FEF60E8721709F433C2822F38
:10298000273008F086E090E0389FD001399FB00DE5
:102990001124AB56B94F1B96FC911B975296EC91A4
:1029A0005297FE17A9F01D965C934E931C971E96A6
:1029B0006C931E970196389FF001399FF00D1124FA
:1029C000EB56F94F608350961C92509751961C928B
:1029D0002F5FD2CF413009F042C1982F9F709130C4
:1029E00009F03DC12130310541F081E090E0909344
:1029F0009F0680939E063F9A479A70E061E02BE025
:102A000030E04798572F562780ED97E046B146FBB8
:102A1000442740F954130C94AF24F9013197F1F78E
:102A20000197A1F796CF59B19CB143B1E3B196FBA1
:102A3000882780F9880F880F952F991F9927991F4C
:102A4000990F990F990F890FE5FB992790F9890F35
:102A500044FB992790F9990F890F713011F00C946C
:102A6000CF24043019F4813009F473CF582F550F57
:102A70005F87011122C0823039F190E080E051E09F
:102A80006BE070E0AF85A91709F463CF882309F4E0
:102A90008FC0479A8527A82FA17020ED37E046B157
:102AA00046FB442740F9FB01A4130C94D32431972F
:102AB000F1F72150310999F74CCF013009F06BC083
:102AC000863011F08330C9F620919C0691E0920F78
:102AD00090939C06273008F026E0422F50E09FE0BC
:102AE000299F90011124F901E056F94F7F012B56DF
:102AF000394F0E3009F05EC0815000EE8027D901B9
:102B00001B968C9300E0212C312C9BE0A92EB12C3C
:102B100023E0622E712C8FE0849F6001859FD00C92
:102B2000112496012B56394F6901B9016F5E7F4F11
:102B30007A8B698BD9015096BC8BAB8B4F5F5F4F03
:102B4000849F9001859F300D1124F901EB56F94FB8
:102B5000FE8BED8B4601FEE08F0E911C2CE0C20E29
:102B6000D11C3F85301709F4F4CE222059F1479A41
:102B700081E02826322D317080ED97E026B126FBCA
:102B8000222720F932130C94D824F5013197F1F75C
:102B90000197A1F7DECE0E3021F4833008F494CFF4
:102BA0006CCF0F3009F069CF8F3009F066CFD1CEEE
:102BB000479870CFB0E10B9FB00111248627F9012F
:102BC0008387A0CF4798D4CF033089F4D6012D91C5
:102BD0003C9111973F70487050E0542F4427529514
:102BE000507F420F531F4D935C930C94FB24043091
:102BF00099F1053049F4B0E13B9EC0011124482B06
:102C0000F40140830C94FB24063031F1073051F479
:102C1000F0E13F9EC0011124482BAD89BE894C9341
:102C20000C94FB240830C1F0093041F4B0E13B9E24
:102C3000C0011124482BEB89FC89E3CF0A3061F0F5
:102C40000B3011F00C94FB24F0E13F9EC0011124E5
:102C5000482BA989BA89E3CF342E0C94FB24982FF2
:102C60009C7009F0A3C0232B39F010929F0610929C
:102C70009E063F984798479A20919C0691E0920FB4
:102C800090939C06273008F026E0C22ED12CBFE09E
:102C90002B9FF0011124EB56F94F90EE93876F2D87
:102CA00070E09F2D9C7009F454CE24853585207FDB
:102CB000420F532F511D4F70A4E075956795AA954B
:102CC000E1F786958695862B20E18202C0011124CA
:102CD000840F951F9587848784E091E04BE050E056
:102CE00021E0992309F460C05C9AFA013197F1F769
:102CF00092278150B1F780919E0690919F060E9485
:102D00003F079FE09C9DF0019D9DF00D1124EB5627
:102D1000F94F918D992321F021EE23879150918FC6
:102D20008F7009F016CE2FE02C9DC0012D9D900DC7
:102D30001124AC014B56594F7A0184E6DA015996B9
:102D40008C935C9A4BE0C42ED12CC6010197F1F70D
:102D500080919E0690919F060E943F07082F5C98E5
:102D6000C6010197F1F780919E0690919F060E94FF
:102D70003F0791EEF701938724853585307F0F70EB
:102D8000402F50E0542F4427240F351F3F70880FE9
:102D9000880F880F90E0982F88279295907F280FB2
:102DA000391F35872487D5CD5C989FCF433081F478
:102DB0008F708F3069F42130310509F4CACD81E07C
:102DC00090E090939F0680939E063F9A479AC1CDCC
:102DD000232B09F4BECD10929F0610929E063F98B9
:102DE0004798F4CFFD852F1780F56FE07FEF4FEF09
:102DF0005FEF30E8822F273008F086E090E0689F90
:102E0000D001699FB00D1124AB56B94F1B967C932E
:102E10001B9759961C9259971D965C934E931C973D
:102E20001E963C931E970196689FF001699FF00DD6
:102E30001124EB56F94F308350961C9250975196BF
:102E40001C922F5F8D858213D5CF8BE396E00E9475
:102E5000D5098AE496E00E94D50989E596E00E94AA
:102E6000D50988E696E00E94D50987E796E00E949A
:102E7000D50986E896E00E94D509909137069D878E
:102E800010923706109238062A9A3BE0E32EF12C76
:102E9000C7010197F1F78091390690913A060E9497
:102EA0001F07082F2A98C7010197F1F7809139066B
:102EB00090913A060E941F07402F477020913906D3
:102EC00030913A06902F9F70443009F0C0C02130F5
:102ED000310541F021E030E030933A062093390685
:102EE000269A2E9AE091370621E02E0F209337067E
:102EF000E73008F0E6E0AFE0EA9FF0011124E05D82
:102F0000F94F2FE42387248535853F70492F50E002
:102F1000542F44275295507F240F351F207F8F70E8
:102F2000280F311D358724872A9A2E982BE030E010
:102F3000C9010197F1F783B14FB19FB15FB1869598
:102F40008170880F880F880F441F4427441F440F47
:102F5000440F840F55FB442740F9840F96FB9927B3
:102F600090F9990F890FB0E18B9FC001112444851E
:102F700055854F70840F951F958784872A982E98C2
:102F8000C9010197F1F783B12FB19FB13FB1869588
:102F90008170880F880F880F221F2227221F220F7F
:102FA000220F820F35FB222720F9820F96FB9927EB
:102FB00090F9990F890F90E0982F882724853585FF
:102FC000307F820F931F958784872A9A80913906D4
:102FD00090913A06019709F42E9A83E290E00197C6
:102FE000F1F760913706912C2FE04FEF5FEF30E85B
:102FF000691509F42EC2892DF6E0F91508F486E06A
:1030000090E0289FD001299FB00D1124A05DB94FF9
:103010001B96EC911B9752967C915297E717A9F05B
:103020001D965C934E931C971E963C931E9701969B
:10303000289FF001299FF00D1124E05DF94F3083A6
:1030400050961C92509751961C929394D1CF9130E8
:1030500009F040C1482F4F70413009F03BC1213089
:10306000310541F081E090E090933A068093390673
:10307000269A2E9A70E051E02BE030E02E98672FD0
:10308000652780ED97E043B143FB442740F9641383
:103090000C94FE24F9013197F1F70197A1F795CF30
:1030A00083B14FB19FB16FB186958170880F880F42
:1030B000880F441F4427441F440F440F840F65FBAF
:1030C000442740F9840F96FB992790F9990F890FAF
:1030D000713011F00C941C25143019F4813009F46E
:1030E00074CF282E220C111121C0823031F190E0D2
:1030F00080E051E06BE070E0291609F466CF882388
:1031000009F48CC02E9A8527A82FA17020ED37E0F6
:1031100043B143FB442740F9FB01A4130C94202541
:103120003197F1F72150310999F74FCF113009F05C
:1031300068C0863011F08330D1F64091370691E0B7
:10314000940F90933706473008F046E0242F30E084
:103150009FE0499FA0011124FA01E55CF94F7F012E
:10316000405D594F1E3009F05BC0815010EE812741
:10317000DA011B968C93712C312C612C1BE0C12E33
:10318000D12C03E0A02EB12C8FE0829F8001839F81
:10319000100D1124005D194FA8014F5E5F4F588B31
:1031A0004F87B801605F7F4F7A8B698B2F5F3F4FEE
:1031B000829FA001839F500D1124CA01805D994F09
:1031C0009C8B8B8B48019EE0890E911C045F1F4FE6
:1031D000271409F4FACE332059F12E9A81E03826CB
:1031E000332D317080ED97E023B123FB222720F9A6
:1031F00032130C942525F6013197F1F70197A1F7C9
:10320000E4CE1E3021F4833008F497CF70CF1F3006
:1032100009F06DCF8F3009F06ACFD7CE2E9873CFDB
:10322000B0E11B9FB00111248627FA018387A3CF49
:103230002E98D4CFA3E07A1210C0F80120813181FA
:103240003F70487050E0542F44275295507F420FF2
:10325000531F518340830C944925F4E07F16B9F144
:1032600025E0721209C030E1639EC0011124482B91
:10327000D4014C930C944925B6E07B1641F1E7E06C
:103280007E1208C0F0E16F9EC0011124482BAB896B
:10329000BC89EFCFB8E07B16D1F0E9E07E1208C020
:1032A000F0E16F9EC0011124482BA989BA89E1CFB2
:1032B000BAE07B1661F0EBE07E120C944925F0E158
:1032C0006F9EC0011124482BAF85B889D2CF642EE0
:1032D0000C944925482F4C7009F09FC0232B39F0DE
:1032E00010923A061092390626982E982E9A4091FE
:1032F000370621E0240F20933706473008F046E0D8
:10330000E42EF12CBFE04B9FF0011124E05DF94F5A
:1033100020EE2387402F50E00C7009F456CE248510
:103320003585207F290F311D2F70A4E055954795D5
:10333000AA95E1F786958695842B40E18402C00129
:103340001124820F931F9587848784E091E04BE0DE
:1033500050E021E0992309F45EC02A9AFA013197DE
:10336000F1F792278150B1F78091390690913A0692
:103370000E941F079FE09E9DF0019F9DF00D11246C
:10338000E05DF94F918D992321F021EE2387915033
:10339000918F8F7009F019CE8FE08E9D80018F9DE7
:1033A000100D1124005D194F84E6D80159968C93B5
:1033B0002A9A5BE0C52ED12CC6010197F1F78091C6
:1033C000390690913A060E941F07F82E2A98C601E6
:1033D0000197F1F78091390690913A060E941F07F4
:1033E00091EEF801938724853585307F4F2D4F70FE
:1033F00050E0542F4427240F351F3F70880F880F4B
:10340000880F90E0982F88279295907F280F391F7A
:1034100035872487DACD2A98A1CF933081F48F7035
:103420008F3069F42130310509F4CFCD81E090E08F
:1034300090933A0680933906269A2E9AC6CD232B6E
:1034400009F4C3CD10923A061092390626982E98A8
:10345000F4CF2D85921688F5292D6FE07FEF4FEF81
:103460005FEF30E8822F273008F086E090E0689F19
:10347000D001699FB00D1124A05DB94F1B967C93BC
:103480001B9759961C9259971D965C934E931C97C7
:103490001E963C931E970196689FF001699FF00D60
:1034A0001124E05DF94F308350961C92509751964D
:1034B0001C922F5F8D858213D5CF80909C06C82CDF
:1034C000C90C36E4632E35E0732ED12CF12C4FE07D
:1034D000342E80914701CD1409F4F6C0D81609F4B2
:1034E000F3C022242394D81408F4212C0D2DD814D1
:1034F00008F050C096E09D1508F406E0039D800199
:1035000011240056194F823071F4882061F0D801DF
:103510008C910E94C728E22DF0E0EE0FFF1FE40D12
:10352000F51D91838083D8019C9117968C911797F4
:10353000981342C011962D913C91129718968D9137
:103540009C9119972817390709F045C013969C914B
:1035500013971A968C911A9798133DC014969C91C4
:1035600014971B968C911B97981335C015969C91B8
:1035700015971C968C911C9798132DC016969C91AC
:1035800016971D968C91981326C0D394F2E06F0E77
:10359000711C9FCF0819073008F006E0039D8001D9
:1035A0001124055C194F823009F0BDCF992009F430
:1035B000BACFF8018081ADCF8D2D0E949B078091FD
:1035C0004701823041F4F80180810E94C728BC0184
:1035D000822D0E94232BD80111968D919C91B82F9A
:1035E000BF70BD87B2E0EB2EF12C86FF02C0F12C3C
:1035F000E12C84FD02C06894E2F885FD02C0689465
:10360000E5F892FD02C06894E0F891FD02C068946C
:10361000E3F890FD02C06894E4F887FD02C0689466
:10362000F1F8F301A080B180D8012C91207F2031E6
:1036300009F041C013968C911397F5018783149676
:103640008C911497808715968C9115978187169683
:103650008C91169782878C910E94C728069719F43F
:10366000FD85FC60FD87D5011396EC9213971496A7
:10367000FC92149715961C92BD85EB2FF0E0E05B51
:10368000FB4F8081F5018683C5010E945D0D80910D
:103690004701823069F4E22DF0E0EE0FFF1FE40DE8
:1036A000F51D6081718120E0A801822D0E94BE2A53
:1036B000FF24F3946ACF93FD02C06894E7F897FD66
:1036C000D2CF6894E6F8CFCF09811A81823079F49D
:1036D00080912501909126018017910741F00115F5
:1036E000110529F470E060E080E00E94232B109324
:1036F0002601009325010B811C81809147018230B6
:1037000079F480912701909128018017910741F069
:103710000115110529F470E060E081E00E94232B7F
:10372000109328010093270180911205C816C0F458
:103730001C2D80911205181798F4809147011817D5
:1037400079F0812F0E949B07E12FF0E0EE0FFF1F21
:10375000EA5BFA4F808191810E945D0D1F5FE9CF86
:10376000C092120580919D06843051F090913806E8
:10377000943031F0890F09F065C082E390E002C017
:1037800080ED97E09093460180934501F0921105FA
:103790000E9403036093130570931405809315052D
:1037A0009093160580911105882341F080911201B4
:1037B00081110C94412481E00E94490D80911201F5
:1037C0008823B1F00E945A03009107051091080563
:1037D0002091090530910A05601B710B820B930B38
:1037E000603E73498440910518F080E00E94490DC5
:1037F0004E9B02C00C944C256CE271E080E090E09E
:103800000E9428038091120181110C944D2481E0C3
:1038100068960FB6F894DEBF0FBECDBFDF91CF9193
:103820001F910F91FF90EF90DF90CF90BF90AF90DE
:103830009F908F907F906F905F904F903F902F90D0
:103840000C94490DD12C2FEFC21AD20A24EF31E08B
:10385000C29EC001C39E900DD29E900D112492CFA6
:103860001092520580910F0581115FC08091100563
:1038700081115BC08091320581110DC080912A06B3
:1038800090912B06DC01ED91FC910680F781E02DF3
:1038900009958093320580930F058091330581113E
:1038A0000DC080912C0690912D06DC01ED91FC91CC
:1038B0000680F781E02D09958093330580931005EC
:1038C00081E00E94490D07E027E04FE760E08AEFC2
:1038D00096E00E94E40B67E08AEF96E00E945A0AA5
:1038E00060E08AEF96E00E94660A80910F058111E0
:1038F0000BC080911005811103C08FE394E002C0DA
:1039000085E991E00E94C90B62E48AEF96E00E948B
:10391000660A90910F0580911005992361F181113C
:1039200004C085E991E00E94C90B4AE2A42E46E05A
:10393000B42E5DE0E52E55E0F52E6FE0862E65E0B5
:10394000962E10E000E077247394F5018191919117
:103950005F019093540580935305D7011D927D011B
:10396000F40121914F0121110BC00130110541F1EA
:1039700001E010E0EACF8111D2CF8FE394E0D3CF02
:1039800098012E5C3A4F6901D9012C91211124C173
:10399000DC01ED91FC910680F781E02D09958823EB
:1039A00059F0F6017082E0915305F091540566A13B
:1039B00077A1802F0E94622A809131058823A9F285
:1039C000912CD12C30E8432E80914701981608F0B5
:1039D000EEC1892D90E0FC01EE5CFA4F208122239C
:1039E00009F4F3C0FC01E35FFA4FC080CC2009F476
:1039F000ECC0880F991FFC01E65DF94F0190F08142
:103A0000E02DF0935405E0935305B0903005BB20B2
:103A100009F4EEC050905205E52CF12CF701E85F57
:103A2000FE4F8081882331F0108265E070E0852DA3
:103A30000E94622AA0915305B09154052224239438
:103A400092962D913C91939794968D919C919597F8
:103A50002817390709F4212C98963C909897D99605
:103A60008C91D997812C882319F0D5968C90D59775
:103A70008094A12C882319F0D396AC90D397A0946E
:103A8000C12C882319F0D496CC90D497C09400917F
:103A9000520510E0F801EE0FFF1FEA5BFA4F60805D
:103AA0007180F30137828086A186C28680912F05BE
:103AB000882329F0E0914605F091470533869496D6
:103AC0002D913C912095309535FB882780F934FD68
:103AD000826033FD846023FD8860D30113968C934C
:103AE000139714961C92149715961C920E949F2867
:103AF00098012A5F3E4FF9014081C8018C5F9E4FBB
:103B0000D801AE5FBE4F00501F4F34120CC0FC01F5
:103B10004081841208C04C91A41205C0F801408174
:103B2000C41201C0B22CF9013082FC018082AC9237
:103B3000D801CC92BB2009F447C0C3010E945D0D9F
:103B4000B1E0B51508F440C0E6EB6E2EE2E07E2E43
:103B5000FBEF3F2EEE0CFF1CF701E856FC4FFE87F3
:103B6000ED87D3015896ED90FD900D911C915B97D8
:103B70005C962C915C975D964C915D975E96AC90AF
:103B80005E975F968C90B1E0B315B8F4E091530561
:103B9000F091540584A195A1809590958E219F2147
:103BA000CC24C394892B09F4C12C1F92ED85FE858A
:103BB0006081852D0E94280C0F90F8E06F0E711C1B
:103BC000339428E03212CDCFDB28809152058F5FED
:103BD000809352059394F8CE0E945608F7013197CE
:103BE00080838111E9CED6011C9270E060E0E1CEC5
:103BF00010913105112321F00E94FA2BD12EE5CF2F
:103C0000B0905205AA24A39422A133A184A195A126
:103C10002817390709F4A12CE6A0F7A00B2D10E016
:103C2000000F111FF801EE5FFA4F80819181E816B5
:103C3000F90621F0B7018B2D0E94622AE1E0F0E045
:103C4000EC0FFD1FE00FF11FF182E082C701019729
:103C5000059708F0AAC00E949F2820905305309035
:103C60005405D10194968D919C9180959095292F22
:103C7000221F2227221F30E096FD226095FD24603E
:103C800094FD286092FD206193FD206290FD2064E8
:103C900091FD206880FD316083FD326081FD3460DC
:103CA00082FD3860F10170A481A48091520590E0FA
:103CB000FC01EE0FFF1FEA5BFA4F0190F081E02D4F
:103CC000D1019C964C91442309F463C0B5E0EB16F6
:103CD000F10409F45EC077828086AC01405F5E4FDC
:103CE000DA016C90BC01625F7E4F671059C0DB0146
:103CF0006C90681055C0DA017C92DB018C92D10186
:103D00009A965C919A979B964C919B979C966C91F6
:103D1000662329F0B5E0EB16F10409F043C04186B3
:103D2000428640E850E8BC01645F7E4F3B01DB0106
:103D30006C91865F9E4F651305C0DC016C91641326
:103D400001C0CA2CD3015C93DC014C9323833483E0
:103D50001582CC2079F0CF010E945D0DB1E0BB153A
:103D600048F0409153055091540520E0B7018B2D48
:103D70000E94E529D801AE5FBA4FE1E0F0E0EC0F18
:103D8000FD1FE00FF11F808191818D939C93DC28B2
:103D90001CCF4782408640E8842E50E8752E9DCF88
:103DA000AC2CA9CF51874287BECFCA2CE3CFD0928B
:103DB0001105EECCFE0131965F018CE0DF011D9212
:103DC0008A95E9F780912401882381F010922401DB
:103DD00080914701833050F045E06EE18AEF96E034
:103DE0000E94840A8BE891E00E94C90BEAEFF5E09B
:103DF0008085918595878487828593859787868737
:103E00003896B6E0E232FB0799F72091000610924F
:103E1000000610920106469A5C9A83E090E00197B2
:103E2000F1F799B18CB133B143B186FB882780F9A2
:103E3000880F880F991F9927991F990F990F990F2C
:103E4000890F45FB992790F9890F32953170330F0F
:103E5000380F09F069C081E0809300068091020666
:103E600090910306009719F0A1E0039709F4A2E0EE
:103E7000B0E043E050E05C98CA010197F1F799B1D6
:103E80008CB163B173B186FB882780F9880F880FE6
:103E9000991F9927991F990F990F990F890F75FBF2
:103EA000992790F9890F62956170660F680F46989F
:103EB000CA010197F1F7E9B19CB173B1F3B196FB77
:103EC000882780F9880F880F9E2F991F9927991F9F
:103ED000990F990F990F890FF5FB992790F9890F81
:103EE00074FB992790F9990F890F0091040610919E
:103EF0000506E82FF0E061114DC0107FFE2FEE2780
:103F0000E00FF11FF0930506E0930406B1E03F5F78
:103F1000A31337C083E090E0B11102C082E090E0CB
:103F2000909303068093020646985C9883E290E0A3
:103F30000197F1F78091000630E04FEF5FEF8317B4
:103F4000D1F1E32F363008F0E5E0F0E0DF0113E0D7
:103F5000AA0FBB1F1A95E1F7AE5FB94F03E0EE0F52
:103F6000FF1F0A95E1F7E650FA4F0D90BC91A02D86
:103F700064857585A617B70711F0538742873F5FA1
:103F8000DECF313009F077CF469A5C9ACA010197AB
:103F9000F1F771CF007F600F712F711D6F7084E09A
:103FA000EE0FFF1F8A95E1F76E0F7F1F70930506D6
:103FB00060930406ACCF3217F0F44FEF5FEF832F1E
:103FC000363008F085E090E0FC0163E0EE0FFF1F63
:103FD0006A95E1F7EE5FF94F1182108273E0880F66
:103FE000991F7A95E1F7FC01E650FA4F5387428713
:103FF0003F5F2313E4CFEAECF5E080859185958758
:1040000084878285938597878687389625E0E23F67
:10401000F20799F72091D0051092D0051092D105A2
:104020002B9A2A9A83E090E00197F1F783B13FB190
:104030009FB14FB186958170880F880F880F331F0D
:104040003327331F330F330F830F45FB332730F9EB
:10405000830F96FB992790F9990F980F09F069C083
:1040600081E08093D0054091D2055091D305411550
:10407000510521F031E04330510509F432E0A0E070
:1040800043E050E02A98FA013197F1F783B17FB10C
:104090006FB1EFB186958170880F880F880F771FF9
:1040A0007727771F770F770F870FE5FB772770F953
:1040B000870F66FB662760F9660F680F2B98FA0179
:1040C0003197F1F783B1EFB17FB1FFB18695817080
:1040D000880F880F880FEE1FEE27EE1FEE0FEE0FF2
:1040E0008E0FF5FBEE27E0F98E0F76FB772770F940
:1040F000770F870F0091D4051091D505E82FF0E0D8
:1041000061114EC0107FFE2FEE27E00FF11FF093DC
:10411000D505E093D405A1E09F5F391338C083E053
:1041200090E0A11102C082E090E09093D3058093CB
:10413000D2052B982A9883E290E00197F1F78091BD
:10414000D005E12C4FEF5FEF8E15D9F1EE2D35E064
:104150003E1508F4E5E0F0E0DF0193E0AA0FBB1F95
:104160009A95E1F7AE52BA4F33E0EE0FFF1F3A9542
:10417000E1F7E653FA4F0D90BC91A02D648575854B
:10418000A617B70711F053874287E394DDCF91302C
:1041900009F078CF2B9A2A9AFA013197F1F772CF6A
:1041A000007F600F712F711D6F70B4E0EE0FFF1F65
:1041B000BA95E1F76E0F7F1F7093D5056093D40514
:1041C000ABCFE216F8F43E2D4FEF5FEF832F363082
:1041D00008F085E090E0FC0113E0EE0FFF1F1A9558
:1041E000E1F7EE52FA4F1182108203E0880F991F17
:1041F0000A95E1F7FC01E653FA4F538742873F5F88
:104200002313E4CF90900006792C7E0CB6E4CB2EDD
:10421000B5E0DB2EF12C612C809147017F1409F46D
:104220009EC0F81609F49BC088248394F91408F4FE
:10423000812C0F2DF914D0F445E04F1508F405E05A
:1042400058E0059F800111240E5F194F8230E1F480
:104250009920D1F0E82DF0E0EE0FFF1FEA0DFB1DD5
:10426000D8018D919C91918380830EC009190630ED
:1042700008F005E068E0069F800111240E521A4FF5
:10428000823011F4E110E6CFF80120813181848180
:1042900095812817390761F42281338186819781BE
:1042A0002817390791F4F394B2E0CB0ED11CB4CFA8
:1042B0008F2D0E949B0780914701823031F4D801F5
:1042C0006D917C91882D0E949D29F80182819381B6
:1042D00024E030E085FF02C030E020E084FF20626F
:1042E00086FF316087FF3260D8014D915C91433089
:1042F000510541F490FF226091FF216092FF2860F8
:1043000093FF2061F601A081B18113962C9313973E
:1043100014963C93149715961C921597E82FE1700C
:1043200082FDE26083FDE46081FDE860F0E0E05B37
:10433000FB4F808116968C931697CD010E945D0DE0
:1043400080914701823041F4D8016D917C9120E049
:10435000A801882D0E94402966246394A4CF098176
:104360001A81823079F48091180190911901801797
:10437000910741F00115110529F470E060E080E03B
:104380000E949D2910931901009318010B811C8133
:1043900080914701823079F480911A0190911B013C
:1043A0008017910741F00115110529F470E060E0D4
:1043B00081E00E949D2910931B0100931A018091B6
:1043C0000C057816C0F4172D80910C05181798F479
:1043D00080914701181779F0812F0E949B07E12FE8
:1043E000F0E0EE0FFF1FEA5BFA4F808191810E949F
:1043F0005D0D1F5FE9CF70920C0560921105C8C971
:1044000080911701882341F11092170107E023E002
:104410004FE763E28AEF96E00E94E40B66E3462EE4
:1044200063E0562EDD24D394F201E080F180028116
:104430001381DF928780A680C12C2481458163E2AD
:1044400080E00E94280CF8E04F0E511C0F9026E8E7
:10445000421623E0520641F763B133B1E3B179B1BB
:104460005CB193B149B186B126B1F3B163FB662764
:1044700060F9762E770C612C35FB332730F93E87B7
:104480001D86AD85BE856A2A7B2AF695F170FF8769
:10449000188AAF85B8896A2A7B2AE4FB222420F88F
:1044A000312C3694322C2224379427946228732896
:1044B00072957170798B1A8A29883A88F6E0220CF5
:1044C000331CFA95E1F76228732856FB552750F9FB
:1044D0005B8B1C8A2B883C88A5E0220C331CAA9598
:1044E000E1F76228732892FB992790F99D8B1E8A29
:1044F0002D883E88B4E0220C331CBA95E1F762287F
:104500007328042E000C550B4427550F441F5527C4
:1045100003E0440F551F0A95E1F7642A752A082E17
:10452000000C990B8827990F881F9927880F991FCE
:10453000880F991F682A792A26FB222720F92F8BBA
:10454000188E8F89988D880F991F682A792A8091F3
:104550001501909116016816790609F450C0709201
:1045600016016092150192E064FC90E065FE946093
:1045700066FE916067FE9860E0914605F091470500
:10458000938314821582D301AF70BB27A05BBB4F0E
:104590008C918683CF010E945D0D76E3472E73E0F8
:1045A000572E312C212C81E090E0022C02C0880F84
:1045B000991F0A94E2F786219721CC24C394892B72
:1045C00009F0C12CF201E080F180028113811F9279
:1045D0008780A6802481458163E280E00E94280CC8
:1045E000FFEF2F1A3F0A28E0420E511C0F903AE0CD
:1045F00023163104C1F681E080931105C9C880E01B
:10460000FBCF5F9A0C941A13769A0C941A132E9A75
:104610000C941A13479A0C941A1376980C94271337
:104620002E980C94271347980C9427134CE0469F20
:10463000F001479FF00D1124EE54FA4F61E070E055
:104640000C947313413059F48F73907F66E0CC0C57
:10465000DD1CEE1CFF1C6A95D1F70C948E134230C2
:1046600059F49F70AC7F0CE0CC0CDD1CEE1CFF1CE1
:104670000A95D1F70C948E13A37012E1CC0CDD1CBB
:10468000EE1CFF1C1A95D1F70C948E13B51630F55D
:104690008B2D9CE0CC24CA94DC2C760121E030E008
:1046A000811102C030E020E0B9016F5F7F4F969F1B
:1046B000F001979FF00D1124EE54FA4F11821082F1
:1046C000929FF001939FF00D1124EE54FA4FC6868D
:1046D000D786E08AF18A8F5F5813E0CF36E4C32E85
:1046E00035E0D32E10E000E0A12C612C4CE0742EBC
:1046F000AB1409F495C080914701A81609F490C045
:1047000081E0A11001C080E0882E912C94012F5FE0
:104710003F4F729EC001739E900D1124FC01EE5418
:10472000FA4F7F0100811181789CF001799CF00D96
:104730001124EE54FA4F828993890817190791F4CE
:10474000468557856089718984899589A689B78945
:10475000481759076A077B0769F4A394B2E0CB0EA8
:10476000D11CC6CF8A2D0E949B07D7018D919C91A9
:104770000E94DB0C789CF001799CF00D1124EE5422
:10478000FA4F86859785A089B189AD01662777277D
:10479000E1E04E27417055276627772792FF426058
:1047A00084FF4460A6FF516085FF526086FF54601D
:1047B00094FF5860A2FF506187FF406195FF5062EF
:1047C000A3FF406290FF486096FF4064A4FF4068EA
:1047D00091FF506497FF5068A5FF6160F6018080EB
:1047E0009180F40143835483658383FB222720F95E
:1047F00082FD226081FD246080FD2860A22FB0E050
:10480000A05BBB4F8C91D40116968C93C4010E947F
:104810005D0D60E0C7010E948E0C662463949DCFFD
:1048200080911301909114018017910739F00115BF
:10483000110521F490E080E00E94DB0C109314013C
:104840000093130180910B05B816C0F41B2D8091C5
:104850000B05181798F480914701181779F0812FEC
:104860000E949B07E12FF0E0EE0FFF1FEA5BFA4F7B
:10487000808191810E945D0D1F5FE9CFB0920B0591
:10488000BCCD0E945A03609307057093080580937E
:10489000090590930A050C94DE1BE0903405F09016
:1048A00035050E948B070E94020D10E000E062E0D7
:1048B00070E080E090E00E9428034E990CC06CE20A
:1048C00071E080E090E00E9428030E948B070E9424
:1048D000020D10E000E00F5F1F4F003DF7E01F07E3
:1048E00031F760913405709135056E157F05D1F46F
:1048F00068960FB6F894DEBF0FBECDBFDF91CF91A3
:104900001F910F91FF90EF90DF90CF90BF90AF90ED
:104910009F908F907F906F905F904F903F902F90DF
:104920000C94020D90E080E00E9431348AEF96E012
:104930000E94190C8EE791E00E94C90B88E19EE06D
:104940000FB6F894A895809360000FBE9093600016
:1049500068E770E080E090E00E942803F9CFC90189
:104960000197F1F771110C94131549B18CB193B102
:1049700053B186FB002700F9000F000F842F881F1A
:104980008827881F880F880F880F080F55FB8827F6
:1049900080F9080F94FB882780F9880F080F71E0D1
:1049A000479A0C9402153197F1F79F5F0C944215CA
:1049B000C3010197F1F799B14CB183B123B146FB23
:1049C000442740F9440F440F991F9927991F990FC5
:1049D000990F990F490F25FB992790F9490F829557
:1049E0008170880F480F033010F00C94E415602F8D
:1049F000C7010E949D020F5F0C94B115C901019778
:104A0000F1F771110C94501813B19FB18FB14FB1E0
:104A100016951170110F110F110F991F9927991FDA
:104A2000990F990F190F45FB992790F9190F86FBDC
:104A3000882780F9880F180F71E02E9A0C943F1880
:104A40003197F1F79F5F0C947C18C5010197F1F73E
:104A500043B19FB18FB12FB146954170440F440FC0
:104A6000440F991F9927991F990F990F490F25FBFB
:104A7000992790F9490F86FB882780F9880F480FFE
:104A800022E0271510F40C941A19672DC7010E9413
:104A90009D0273940C94E81868960FB6F894DEBFE4
:104AA0000FBECDBFDF91CF911F910F91FF90EF907F
:104AB000DF90CF90BF90AF909F908F907F906F903E
:104AC0005F904F903F902F9008951F920F920FB6D6
:104AD0000F9211242F933F938F939F93AF93BF9384
:104AE0008091370590913805A0913905B0913A052C
:104AF0003091360523E0230F2D3758F50196A11D7F
:104B0000B11D209336058093370590933805A09307
:104B10003905B0933A0580913B0590913C05A091F1
:104B20003D05B0913E050196A11DB11D80933B0549
:104B300090933C05A0933D05B0933E05BF91AF9186
:104B40009F918F913F912F910F900FBE0F901F90CB
:104B5000189526E8230F0296A11DB11DD2CF1F92F2
:104B60000F920FB60F9211248F939F938091E100C3
:104B70009091E100937F9093E10083FF0FC010922A
:104B8000E90091E09093EB001092EC0092E3909397
:104B9000ED001092400598E09093F00082FF22C053
:104BA00093E09093E9009091F200992319F09AE331
:104BB0009093E80090912C05992341F090912C0559
:104BC000915090932C05911101C05D9A90913F05F1
:104BD000992341F090913F05915090933F05911199
:104BE00001C0289A84FF18C08091E2008E7E816007
:104BF0008093E2008091E1008F7E8093E1008091BC
:104C00002D058E7E806180932D059F918F910F9051
:104C10000FBE0F901F90189580FFF7CF8091E20094
:104C20008E7E80618093E2008091E1008E7E809391
:104C3000E10080912D058E7E8160E5CF1F920F925D
:104C40000FB60F921124CF92DF92EF92FF920F9343
:104C50001F932F933F934F935F936F937F938F9304
:104C60009F93AF93BF93EF93FF93CF93DF93CDB712
:104C7000DEB76C97DEBFCDBF1092E9008091E800EF
:104C800083FF25C068E0CE0145960E94980482EF1C
:104C90008093E8008D8987FF39C09091E80090FFEC
:104CA000FCCF982F907609F034C19E894F89588D9A
:104CB0002F89F88C911131C0803861F580912E05D3
:104CC0008093F1001092F1008EEF8093E8006C96D3
:104CD0000FB6F894DEBF0FBECDBFDF91CF91FF912D
:104CE000EF91BF91AF919F918F917F916F915F9164
:104CF0004F913F912F911F910F91FF90EF90DF9077
:104D0000CF900F900FBE0F901F9018959EEF90932D
:104D1000E800C7CF1092F100D5CF913059F481113E
:104D2000D3CF4130510581F680912E058D7F809340
:104D30002E05CACF933049F48111C6CF41305105B9
:104D400019F680912E058260F2CF953041F4809162
:104D5000E80080FFFCCF20682093E300B5CF9630B9
:104D600009F0A9C00B8D1C8D22E01092E900109271
:104D70002A0510922905F2122EC0109228051092D1
:104D800027050E94E6041F8299E09983FA8291E048
:104D90009E8390EA98879AEF998720912905309110
:104DA0002A05275F3F4F3C832B838D831092E900B8
:104DB00010922A05109229051093280500932705C3
:104DC00049E050E0BE016F5F7F4F80E00E94C70363
:104DD0000E94E60479CF10932805009327050E94CE
:104DE000D204DC0112960D911C910115110509F4F4
:104DF00051C1D801ED91FC910480F581E02DBE01F7
:104E00006B5E7F4FC8010995009709F03EC1F8011C
:104E100000851185EACFF3E0FF120EC08F89882349
:104E200009F440C0823061F440E860E186E392E03A
:104E30000E949403811148CF81E28093EB0047CF19
:104E4000813029F440E86BE08AE292E0F1CF8330D0
:104E500099F70E94D204DC011296ED90FC908E012D
:104E60000F5F1F4F6801E114F10479F0D701ED9154
:104E7000FC910680F781E02DB801C7010995080F64
:104E8000111DF701E084F184EECFD8011C92F601E8
:104E900001900020E9F73197BF016C197D0940E0CE
:104EA000C601C6CF64E172E0FB01449150E080E8A6
:104EB0000E94C70309CF973009F4BECF983021F480
:104EC00081E08093F10000CF993009F0FDCE83702E
:104ED00009F0B2CFE3E3F1E081E031E096E3219124
:104EE000222371F08093E9003093EB00DF011197EA
:104EF0002C912093EC009093ED008F5F873079F731
:104F00008EE78093EA001092EA008F898093400533
:104F1000DBCE8B8D9C8D1092E90010922A051092A9
:104F200029059093280580932705898D811192C0CA
:104F30008E899D89913A49F4813209F07DCF47E00D
:104F400050E06DE371E080E0B3CF913209F074CFAF
:104F5000833269F48F89988DB0E0A0E080933901A5
:104F600090933A01A0933B01B0933C01ADCE8032C7
:104F700069F48091E80082FFFCCF67E08DE391E067
:104F80000E9498048BEF8093E8009ECE823209F055
:104F90009BCE8F8980934401EEEFFFE7859194913A
:104FA0008B3F9C4D51F1E0E0F8E080913D01909104
:104FB0003E01A0913F01B0914001803B9440A1058A
:104FC000B105F1F48091440180FD1AC0EE3F8AE002
:104FD000F80789F587E797E79183808380916000E0
:104FE00080932B0588E19BE00FB6F894A8958093F9
:104FF00060000FBE9093600067CEEEEFFAE0D5CF71
:10500000808191818737974709F05ECEA89580917E
:10501000600088618093600080912B058093600020
:10502000EE3F2AE0F20789F08091FE0A9091FF0A94
:105030009183808349CE808191818737980751F28F
:105040009093FF0A8093FE0AC5CF1092FF0A109238
:10505000FE0A3ACE0E94D204DC0112960D911C91F8
:105060000115110509F4E8CED801ED91FC910190EC
:10507000F081E02DBE016B5E7F4FC8010995811163
:1050800023CEF80100851185EBCF181619060CF414
:105090001BCED2CEF1E0FF12BECE68E172E004CFAB
:1050A0001F93CF93DF93EC0180E888A789A78AA795
:1050B0008BA71CA6FE01BD968CE0DF011D928A9590
:1050C000E9F71FA21EA21AAE1BAE1CAE1DAE15E064
:1050D000CE010E94560861E070E080E090E00E94FE
:1050E00028031150A9F7CE01DF91CF911F910C94A5
:1050F0005608CF93DF93EC01849A8C9A229A2A9ACD
:10510000219A299A23982B982B9A0E94AF05CE01B9
:10511000DF91CF910C945028CF93DF93EC013E9A0E
:10512000469A229A2A9A219A299A23982B982B9A5E
:105130000E94AF05CE01DF91CF910C945028E091F1
:105140005305F091540524A135A120953095C9014E
:1051500034E0969587953A95E1F741E08427817090
:10516000992726FF826027FF846025FF8860E091F1
:105170005205F0E0EE0FFF1FEA5BFA4F0190F0815D
:10518000E02D805B9B4FDC018C91868308958F34EA
:1051900089F0823079F0863181F0833181F0803E70
:1051A00081F0813E81F021E090E08F3F09F420E022
:1051B000822F089584E090E0089585E0FCCF86E09A
:1051C000FACF82E0F8CF83E0F6CF2091FF042223CC
:1051D00041F0E0914605F09147058483958366830D
:1051E00077830895FC0124A135A142A153A1422750
:1051F00053274623572391E0452B09F490E020954F
:1052000030956223732381E0672B09F480E08923C2
:1052100008950F932091FF06E0910507F09106078E
:1052200000E0309771F03396E491F0E0379683E038
:10523000F595E7958A95E1F7009108070E9F002DF7
:105240001124EFEFE20F0E0F4091000741506091E3
:10525000FE068AEF96E00E94E40B0F910895CF932B
:10526000DF93EB0142E0480F60E08AEF96E00E9496
:10527000840A0E940929CE01DF91CF910C94C90BB9
:105280002F923F924F925F926F927F928F929F9256
:10529000AF92BF92CF92DF92EF92FF920F931F9344
:1052A000CF93DF93B82E2B011A01922EC6E5D2E0E0
:1052B000D12C682E712C660C771CC30188569C4F2C
:1052C0003C0192E04916510419F4E7E0ED15E8F0CD
:1052D000E880F9800A811B812C814D81AE808F800E
:1052E00081E02114310449F0F101628173816E2162
:1052F0007F2181E0672B09F080E09F92C82EF301A7
:1053000060818B2D0E94280C0F90D3942896FCE08E
:10531000DF12D7CFDF91CF911F910F91FF90EF90C8
:10532000DF90CF90BF90AF909F908F907F906F90C5
:105330005F904F903F902F900895EF92FF920F93C0
:10534000CF93DF93C82F7B01E82FF0E0EE0FFF1F14
:10535000E856FC4FD08107E023E041816D2F8AEFB2
:1053600096E00E94E40B47E06D2F8AEF96E00E94E2
:10537000840A82E0E816F10469F083E0E816F1049B
:10538000D9F08FE394E0DF91CF910F91FF90EF90F0
:105390000C94C90B82E491E00E94C90BC23079F0F1
:1053A00021E050E040E0B7018C2FDF91CF910F91C9
:1053B000FF90EF900C9440298CE391E0EDCFDF91CA
:1053C000CF910F91FF90EF9008952F923F924F92BF
:1053D0005F926F927F928F929F92AF92BF92CF9285
:1053E000DF92EF92FF920F931F93CF93DF9300D042
:1053F00000D0CDB7DEB7B82E2B011A01922E86EB66
:1054000092E09C838B83D12CFB013297FA83E98352
:105410006B2C712C660C771CC30188569C4F3C0189
:10542000E981FA81329770F08FEF8D0D823050F163
:10543000F5E04F16510431F4DD2021F188EF8D0D98
:10544000823000F1EB81FC81E080F18002811381E8
:1054500024814581A68087802114310459F0F1010F
:1054600084A195A1809590958E219F21CC24C394F1
:10547000892B09F4C12C9F92F30160818B2D0E942E
:10548000280C0F90D3948B819C8108969C838B83EE
:1054900090E1D912C5CF0F900F900F900F90DF9130
:1054A000CF911F910F91FF90EF90DF90CF90BF9021
:1054B000AF909F908F907F906F905F904F903F90B4
:1054C0002F900895FF920F931F93CF93DF93182F80
:1054D000EB01E82FF0E0EE0FFF1FE856FC4FF080E5
:1054E00007E023E041816F2D8AEF96E00E94E40BF4
:1054F00047E06F2D8AEF96E00E94840AC430D10500
:10550000A1F188F4C130D10531F184E091E0C230DD
:10551000D10589F08FE394E0DF91CF911F910F9136
:10552000FF900C94C90BC530D105A9F081EF90E034
:10553000C630D10579F70E94C90B1230C8F421E0BA
:1055400050E040E0BE01812FDF91CF911F910F917C
:10555000FF900C94E52980913005811103C084E40B
:1055600094E0E9CF8EE091E0E6CF88EF90E0E3CFE2
:10557000DF91CF911F910F91FF9008952F923F924D
:105580004F925F926F927F928F929F92AF92BF9253
:10559000CF92DF92EF92FF920F931F93CF93DF93FF
:1055A000B82E2B011A01922EC0EED1E0D12C682E1C
:1055B000712C660C771CC30188569C4F3C0192E00D
:1055C00049165104B1F4E8E0DE121AC0DF91CF9120
:1055D0001F910F91FF90EF90DF90CF90BF90AF9011
:1055E0009F908F907F906F905F904F903F902F9003
:1055F0000895F3E04F16510419F48CE0D816E9F041
:10560000E880F9800A811B812C814D81AE808F80DA
:1056100081E02114310449F0F101618172816E2130
:105620007F2181E0672B09F080E09F92C82EF30173
:1056300060818B2D0E94280C0F90D3942896FDE05A
:10564000DF12BDCFC3CFFF920F931F93CF93DF9392
:10565000182FEB01E82FF0E0EE0FFF1FE856FC4F8C
:10566000F08007E023E041816F2D8AEF96E00E94F1
:10567000E40B47E06F2D8AEF96E00E94840AC43065
:10568000D10569F188F4C230D10531F18DED90E09A
:10569000C330D10589F08FE394E0DF91CF911F9162
:1056A0000F91FF900C94C90BC530D105D9F085EC52
:1056B00090E0C630D10579F70E94C90B1230A9F0ED
:1056C00021E050E040E0BE01812FDF91CF911F919A
:1056D0000F91FF900C94BE2A87EE90E0EDCF86EDFF
:1056E00090E0EACF8FEC90E0E7CFDF91CF911F9170
:1056F0000F91FF9008958F929F92AF92BF920F9358
:105700001F93CF93DF93CDB7DEB7A1970FB6F89471
:10571000DEBF0FBECDBF19A2423008F44AE08E01B1
:105720000F5D1F4F842E912CB12CA12CA50194014B
:105730000E943F34E62FB901CA01EA3044F5E05D2A
:10574000D801EE938D01232B242B252B79F790E0A4
:1057500080E0109769F0FD0101900020E9F7319792
:10576000AF014A1B5B0BBD018AEF96E00E94A504C6
:10577000A1960FB6F894DEBF0FBECDBFDF91CF91DB
:105780001F910F91BF90AF909F908F900895E95C0B
:10579000D7CFCF92DF92EF92FF92CF93DF936C013E
:1057A000092E000CEE08FF0897FF19C06DE28AEF82
:1057B00096E00E94920AEC0166277727CB016C19CC
:1057C0007D098E099F094AE00E947B2B8C0F9D1F4B
:1057D000DF91CF91FF90EF90DF90CF9008954AE056
:1057E000C701B601DF91CF91FF90EF90DF90CF908E
:1057F0000C947B2B0F931F93CF93DF938091010524
:10580000882309F4A6C081E00E94490DD0910105CA
:10581000D13009F063C0009153051091540568E040
:1058200070E0C8010E94F228C82F8091FE048150C8
:10583000C1110BC060E070E4C8010E94F228C82FBB
:10584000882329F08091FE048F5F8093FE040091ED
:1058500053051091540560E070E2C8010E94F228DF
:10586000882321F0DF5FD0930105C82FF80186A1BE
:1058700097A1079791F484A5882379F082A593A531
:1058800060A571A58130910509F058C16530710599
:1058900021F06A30710509F051C1CC2389F0809163
:1058A0000105813009F04DC068E171E083E00E949C
:1058B0002F298091FE04082E000C990B0E94C92B01
:1058C0008091FF048823C1F180914605909147059E
:1058D000DF91CF911F910F910C945D0DD230F1F4B7
:1058E000009153051091540568E070E0C8010E94D2
:1058F000F228C82F8091F8048150C1110CC060E0DB
:1059000070E4C8010E94F228C82F882309F49FCFB1
:105910008091F8048F5F8093F80499CFC0E0D33072
:1059200009F095CF1092010505E024E04FE760E013
:105930008AEF96E00E94E40BDF91CF911F910F91C7
:10594000089565E171E083E00E942F298091F804B9
:10595000B2CF80910005811110C08091FF048111A8
:1059600072C081E0809300058093FF0465E371E0DD
:105970000E942F2981E00E94490D80910005882313
:10598000D9F2E0915305F091540524A135A1209559
:10599000309535FB882780F923FD826036FD8460D1
:1059A000C0914605D09147058B8386A197A182308F
:1059B000910508F4C1CF8430910508F4EBC0079736
:1059C00009F0BACF84A5882309F47ACF82A593A5DC
:1059D00060A571A58130910509F0BFC065307105E2
:1059E00009F46ECF6A30710509F0B7C08091FB04ED
:1059F0009091FC04009709F06FC084A195A1809557
:105A000090959C01287030722830304209F058CFB0
:105A100096FF56CF109200058091FF04882321F055
:105A20001B82CE010E945D0D81E00E94490D6BE159
:105A300071E082E00E942F2968EE73E080E090E040
:105A40000E942803A7C0C0915305D091540560E07F
:105A500070E2CE010E94F228811107C068E070E078
:105A6000CE010E94F228882379F081E0809300051E
:105A700044E060E08AEF96E00E94840ADF91CF91D3
:105A80001F910F910C94092960E070E4CE010E94EF
:105A9000F228882309F46ECF81E08093000580937B
:105AA00001056EE271E082E00E942F296BE271E055
:105AB00083E00E942F298091FE04082E000C990B90
:105AC0000E94C92B6CE271E080E090E0DF91CF9101
:105AD0001F910F910C9428036091F9047091FA04BE
