:100000000C9449020C9471020C9471020C947102CC
:100010000C9471020C9471020C9471020C94710294
:100020000C9471020C9471020C9438230C94A72345
:100030000C9471020C9471020C9471020C94710274
:100040000C9471020C9471020C9471020C94710264
:100050000C9471020C9471020C9471020C94EE22B7
:100060000C9471020C9471020C9471020C94710244
:100070000C9471020C9471020C9471020C94710234
:100080000C9471020C9471020C9471020C94710224
:100090000C9471020C9471020C9471020C94710214
:1000A0000C9471020C9471020C947102AED580A86C
:1000B0003FD300408D142002A1C8DA12817FD9F10C
:1000C000DB40A4A6AF5341542D574845454C00533F
:1000D00041542D33440053415455524E0047454E30
:1000E000455349532D360047454E455349532D330B
:1000F0000056424F59004E545400534E4553004E43
:100100004553004A4F47434F4E00464C49474854D9
:10011000535449434B004455414C53484F434B00C3
:100120004449474954414C004E4547434F4E0050C7
:100130004F50204E0047454E45534953202B2053E6
:10014000415455524E00534D532B41544152492B6B
:100150004336342B414D49474100505358004E45DA
:1001600053202B20534E4553202B2056424F5900ED
:10017000504C55472B5245534554004E4F4E450069
:100180004D554C54492D544150005245424F4F5407
:10019000494E472E2E2E004D554C54492D5441505A
:1001A0000000030C0F30333C3FC0C3CCCFF0F3FC56
:1001B000FF0000000200090F0000030401000C0012
:1001C000000000000000000000000000000000002F
:1001D000080B0002020200000904000001020200F4
:1001E0000005240010010524010101042402060574
:1001F00024060001070581031000400904010002E4
:100200000A000000070502024000000705830240C3
:1002100000000403090412010002EF020140D0169D
:100220007E12000101020301556E6B6E6F776E0046
:100230005265666C65782041646170740052454671
:100240004C45580000000507206100000000000038
:10025000005F000060707870606050485060030775
:100260000F07030305090503081C3E7F7F081C22B6
:10027000417F7F7F3E1C087F41221C08082A1C2AE0
:100280000808083E08080050300000080808080860
:10029000006060000020100804023E5149453E0005
:1002A000427F400042615149462141454B3118147B
:1002B000127F1027454545393C4A494930017109AB
:1002C00005033649494936064949291E0036360094
:1002D000003C7E7E7E3C3C4242423C14141414148A
:1002E000F0F0F0F0F0F0909090F0324979413E7EDD
:1002F0001111117E7F494949363E414141227F41DA
:1003000041221C7F494949417F090901013E414180
:1003100051327F0808087F00417F41002040413F63
:10032000017F081422417F404040407F0204027F49
:100330007F0408107F3E4141413E7F090909063E86
:100340004151215E7F091929464649494931010138
:100350007F01013F4040403F1F2040201F7F201869
:10036000207F631408146303047804036151494532
:100370004300007F4141020408102041417F0000FA
:10038000383C1E0F074040404040382412090720E7
:10039000545454787F4844443838444444203844C2
:1003A00044487F3854545418087E090102081454F4
:1003B000543C7F0804047800447D40002040443DC4
:1003C00000007F10284400417F40007C041804781E
:1003D0007C0804047838444444387C141414080815
:1003E0001414187C7C080404084854545420043F16
:1003F0004440203C4040207C1C2040201C3C40309D
:10040000403C44281028440C5050503C4464544C08
:1004100044E0E0E0E0E000007F0000E0A0A0A0E019
:1004200008082A1C08081C2A08080006090906AC46
:10043000001980400000000000250028002B002E3D
:1004400000310000000000240027002A002D0030A9
:10045000000404040404030405020202020403026B
:10046000020202060606060606040402020204044C
:1004700004080201104080401020408040800802A3
:100480000401804020100201108010204040200014
:10049000E22811241FBECFEFDAE0DEBFCDBF26E099
:1004A000A8EBB4E001C01D92A636B207E1F714E054
:1004B000A0E0B1E0E4E0FEE502C005900D92A83BAB
:1004C000B107D9F712E0C9E4D2E004C02197FE01D8
:1004D0000E94C02DC834D107C9F70E9450290C943E
:1004E000002F0C94000090E0FC01E059FB4F249198
:1004F0008F5A9B4FFC018491882399F090E0880FDC
:10050000991FFC01ED5BFB4FA591B491FC01EB5CE5
:10051000FB4F859194918FB7F894EC91E22BEC937B
:100520008FBF08950F931F93CF93DF9380917C0526
:100530008093810580917D0590917E059093830540
:100540008093820580917F05909180059093850529
:1005500080938405A0917A0510927A052C9A8BE2FB
:1005600090E00197F1F72C9883E190E00197F1F783
:1005700030E020E090E080E043E150E0ECB1E6FBC9
:10058000662760F970E0FB01022E02C0EE0FFF1F2C
:100590000A94E2F78E2B9F2B2D98FA013197F1F7F1
:1005A0002D9AFA013197F1F72F5F3F4F2031310536
:1005B00029F7492F42954F7051E04D3009F450E131
:1005C00070E060E030E020E0C3E1D0E0ECB1E6FBB9
:1005D000002700F910E0F801062E02C0EE0FFF1F01
:1005E0000A94E2F72E2B3F2B2D98FE013197F1F75D
:1005F0002D9AFE013197F1F76F5F7F4F651730F34A
:1006000080959095209530954F3021F42E3F5FEFE7
:100610003507E1F150917A0561E0650F60937A0545
:1006200061E070E0511102C070E060E0411111C062
:10063000E92FFF27EF70FF273F9759F44AE0469FC5
:10064000F001479FF00D1124E958FA4F4FE0458320
:1006500011C0542F509552FF39C02AE0269FF00157
:10066000279FF00D1124E958FA4F24E02583537099
:10067000252F30E0318720872AE0269FF001279F31
:10068000F00D1124E958FA4F9783868380917A05FB
:100690008A17B8F44AE09FEF21E030E0811102C0F0
:1006A00030E020E0429FF001439FF00D1124E95813
:1006B000FA4F958317821682118610868F5FA813D2
:1006C000EBCFDF91CF911F910F9108955AE0569F84
:1006D000F001579FF00D1124E958FA4F5FE04527CC
:1006E000B6CFFC01611109C081819281807F480FE2
:1006F000592F511D528341830895613051F48181F6
:1007000092818F7020E1429FA0011124480F591F50
:10071000F1CF623039F481819281907F50E0542F83
:100720004427F4CF633049F4818192819F7050E077
:10073000542F44275295507FE9CF643011F44383FE
:100740000895653011F444830895663011F44583AB
:100750000895673009F446830895FC0180910A05E5
:10076000882311F13FB7F89482E08093E90020914B
:10077000F200822F90E01816190614F481E090E040
:10078000882339F0289844E6409309054091F10008
:100790004083222339F02091F200211103C02BE67F
:1007A0002093E8003FBF08958FEF9FEF0895CF9308
:1007B000DF931F92CDB7DEB76983DC01ED91FC9129
:1007C0000280F381E02D41E050E0BE016F5F7F4F7A
:1007D00009950F90DF91CF91089583E08093E90010
:1007E0008091F200882319F08AE38093E80008954D
:1007F000CF93DF931F92CDB7DEB7FC01848595853B
:1008000097FD08C02FEF3FEF358724870F90DF91CA
:10081000CF910895CE0101960E94AD03019719F47E
:10082000898190E0F3CF8FEF9FEFF0CF0F931F936D
:10083000CF93DF931F92CDB7DEB78C01FC01848587
:10084000958597FF0BC0CE0101960E94AD030197DD
:1008500071F4898190E0F80195878487F801848597
:1008600095850F90DF91CF911F910F9108958FEF94
:100870009FEFF1CFFC018485958597FD0BC09FB755
:10088000F89482E08093E9008091F2009FBF90E0AD
:10089000019608959FB7F89482E08093E9008091D3
:1008A000F2009FBF90E008953FB7F894809105054E
:1008B00090910605A0910705B091080526B5A89B63
:1008C00005C02F3F19F00196A11DB11D3FBFBA2FE2
:1008D000A92F982F8827BC01CD01620F711D811DA2
:1008E000911D42E0660F771F881F991F4A95D1F727
:1008F00008958F929F92AF92BF92CF92DF92EF9224
:10090000FF924B015C010E9454046B017C010E9428
:1009100054046C197D098E099F09683E7340810556
:100920009105A8F321E0821A9108A108B10888EE88
:10093000C80E83E0D81EE11CF11C81149104A104AF
:10094000B10429F7FF90EF90DF90CF90BF90AF9068
:100950009F908F9008952FB7F89460910105709142
:10096000020580910305909104052FBF08954091E1
:10097000E3045091E4042091E1043091E204421731
:100980005307B4F49091E8009570E1F39091E8007A
:1009900092FD19C08093F1008091E3049091E404EA
:1009A00001968F739927892B19F48EEF8093E800B5
:1009B0008091E3049091E40401969093E404809381
:1009C000E30481E0089580E00895EF92FF920F9391
:1009D0001F93CF93DF93F82E192FE62E042F81E07B
:1009E000860F880F0E94B70483E00E94B704CF2DC2
:1009F000D12FEC0EFD2EF11CCE15DF05B9F007FF4F
:100A000013C0FE0184910E94B704182F80E00E9459
:100A1000B704812321968111EFCFDF91CF911F91F0
:100A20000F91FF90EF9008958881EDCF81E0F5CF91
:100A3000DF92EF92FF920F931F93CF93DF93D82E05
:100A40008A01EB017B01E40EF51ECE15DF0559F09E
:100A5000D7FE12C0FE0184910E94B7042196811135
:100A6000F4CF0FEF1FEFC801DF91CF911F910F91CE
:100A7000FF90EF90DF9008958881EECF2FB7F89424
:100A800087708093E9009091E800892F807295FF2C
:100A900004C09091F20080E4891B2FBF089583E089
:100AA0000E943E0590E008957F928F929F92AF92B0
:100AB000BF92CF92DF92EF92FF920F931F93CF934B
:100AC000DF93C82E8B017A0180910A05811110C035
:100AD0008FEF9FEFDF91CF911F910F91FF90EF90DC
:100AE000DF90CF90BF90AF909F908F907F900895B0
:100AF0008091E70480FF05C08091E00082608093D0
:100B0000E000CE2DDF2DD12C8AEFB82E8C2D8770F2
:100B1000982E8C2D8072882E8C2D8074782E9AE3DE
:100B2000A92E209719F4DD2009F452C08C2D0E94C3
:100B30003E0581110AC0BA94BB2051F261E070E019
:100B400080E090E00E947904ECCF8C171D0611F034
:100B50000CF08C2F9FB7F8949092E9002091E80058
:100B600025FD02C09FBFDDCF282F30E0C21BD30B75
:100B7000882029F08150A0F01092F100FBCFF801FD
:100B8000C7FC0AC0815050F041914093F100FACF68
:100B900044914093F10031968150D0F7020F131F1A
:100BA000DD2021F0A092E800D12CDCCF8091E8007C
:100BB00085FD07C0A092E800DD24D394209791F230
:100BC000F3CF209779F6772069F2A092E800CACF98
:100BD0005D9884E68093E604C7017CCFCF93DF93D2
:100BE000EC0180913401882331F083E00E945405A8
:100BF0001816190634F081E090E09B838A8380E028
:100C000090E0DF91CF910895615030F02091F10094
:100C1000FC0120830196F8CF289884E6809309058B
:100C20000895AF92BF92CF92DF92EF92FF920F930F
:100C30001F93CF93DF936C017B018B01040F151F72
:100C4000EB015E01AE18BF08C017D10759F06991DA
:100C5000D601ED91FC910190F081E02DC60109953E
:100C6000892B79F7C501DF91CF911F910F91FF90EB
:100C7000EF90DF90CF90BF90AF9008958091D9040E
:100C800081110DC082E08093D50484E08093D60466
:100C90001092D8041092D70481E08093D90485ED96
:100CA00094E008950F931F93CF93DF931F92CDB7D6
:100CB000DEB782E0898342E450E060ED71E080E8D5
:100CC0000E9418050E943E06DC0112960D911C91AF
:100CD0000115110589F0D801ED91FC910280F38195
:100CE000E02DBE016F5F7F4FC801099597FD04C0DD
:100CF000F80100851185ECCF89810F90DF91CF91AC
:100D00001F910F910895CF93CFB7F8948091D40499
:100D100081115AC042E654E0FA01949121E834E08E
:100D2000F9018491E92FF0E0EE0FFF1FED5BFB4F1F
:100D3000A591B4919C91982309F037C0E2ECF1E0C1
:100D40009491F9012491FA018491882309F42DC02A
:100D50009923E9F091509F30D0F4E92FF0E0ED5461
:100D6000F94F0C94C02DF406F806C206EC06F00606
:100D7000C706C706C706FB060107050709070F07D1
:100D8000C7061307909180009F7790938000E82F0B
:100D9000F0E0EE0FFF1FEB5CFB4FA591B4918FB716
:100DA000F8949C91292B2C938FBF81E10E947302B0
:100DB0008CB580618CBD8CB580648CBD8FE00E9449
:100DC000730280E10E9473028091D4048F5F80934C
:100DD000D404CFBFCF910895909180009F7DD5CF4F
:100DE00090918000977FD1CF94B59F7794BDCFCF5E
:100DF00094B59F7DFBCF909190009F77909390004A
:100E0000C6CF909190009F7DF9CF90919000977FF1
:100E1000F5CF9091C0009F779093C000B8CF90918C
:100E2000C0009F7DF9CF9091C200977F9093C20040
:100E3000AECFCF93DF93EC018A85882329F08150D0
:100E40008A87DF91CF9108959C818E819817C8F78A
:100E50008D856827E881F9810084F185E02D42E0E5
:100E6000CE0109958C818F5F8C83EBCFFC018FE0E5
:100E700086838FE78783808711861286138608957D
:100E8000DC01FB0112962C91129784819581281721
:100E9000190641F491818081813A31F49D7F81E08E
:100EA000913009F080E008958132E1F79B3029F418
:100EB00082811F968C9381E008959A3099F7828100
:100EC00050968C93F8CFEF92FF920F931F93CF938E
:100ED000DF93FB012081213889F52381223271F5CE
:100EE000DC0112964C91248135814217130631F5AD
:100EF0008C01FC01C385D485F12CE12C209791F065
:100F00004C815D816A817B818E81811180E80E94A4
:100F100018058F3F980759F0E80EF91E0990D881FF
:100F2000C02DECCF81E0D8011F968C93C701DF91D3
:100F3000CF911F910F91FF90EF90089590E080E086
:100F4000F6CFCF93DF93CDB7DEB769970FB6F8949E
:100F5000DEBF0FBECDBFFC01DB018C918F5F8C9398
:100F60009E012D5F3F4F8DE0D9011D928A95E9F7D3
:100F700029E0298384E08A8391E09D8383E08E8346
:100F80002A8721E22B879C879D879F8722E2288BD7
:100F900027E02B8B25E02C8B8E8B20E430E0388FE4
:100FA0002F8B998F82818B8395858685998B8A8BF0
:100FB000838180688D8B49E150E0BE016F5F7F4F78
:100FC00080E00E94180569960FB6F894DEBF0FBE48
:100FD000CDBFDF91CF91089523B14FB13FB15FB144
:100FE00026952170220F220F220F441F4427441FF1
:100FF000440F440F240F55FB442740F9240F36FBC0
:10100000332730F9330F230F019721F01B9920610B
:101010001E992062822F089559B13CB143B163B14A
:1010200036FB222720F9220F220F352F331F3327BB
:10103000331F330F330F330F230F65FB332730F983
:10104000230F44FB332730F9330F230F019721F08F
:101050003699206137992062822F08958FB7F894CE
:101060008091D3048FBF089584E98093BC0085E606
:101070009091BC0094FF03C08150D1F7089581E0A6
:1010800008956EBD00000DB407FEFDCF8EB5089526
:101090002A9A299A8C9A83EC90E00197F1F70895A7
:1010A0002A9A299A469A83EC90E00197F1F70895DD
:1010B0008091FE049091FF040196853091052CF4F7
:1010C0009093FF048093FE04089581E090E0F8CFB0
:1010D0008CBD9DBD08958C988091660590916705A3
:1010E0000E94680883EC90E00197F1F70895469814
:1010F00080916605909167050E94680883EC90E0F6
:101100000197F1F708958F929F92AF92BF92CF927D
:10111000DF92EF92FF920F931F93CF93DF937C01A7
:101120006B015A01022F10E0D0E0C0E083EC882E62
:10113000912CC017D107E1F0D701ED91FC9104800B
:10114000F581E02D6AE5C114D10421F0D601AC0F80
:10115000BD1F6C91C7010995A114B10421F0F501DF
:10116000EC0FFD1F8083C4010197F1F72196E1CFB9
:10117000DF91CF911F910F91FF90EF90DF90CF9073
:10118000BF90AF909F908F900895CF92DF92EF9293
:10119000FF920F931F93CF93DF937C016B01D42FAA
:1011A0008C010E5F1F4F23E0A8010E948308F70106
:1011B00023812F3F61F410E000E0C801DF91CF915F
:1011C0001F910F91FF90EF90DF90CF900895848151
:1011D0008A3511F08111EFCF2F70C22FCC0FD33091
:1011E00059F0B6016D5F7F4F2DEF2D0FA7014B5FBB
:1011F0005F4FC7010E9483082C2F2D1B2D5FE9F242
:101200004D2F50E0CA01820F911D8197A4F6400F27
:10121000511F70E060E0C7010E948308CECFAF92FB
:10122000BF92CF92DF92EF92FF920F931F93CF93D3
:10123000DF9300D000D01F92CDB7DEB78C01DC0168
:101240009C961C929C97D9961C92D997ED91FC91F3
:101250000190F081E02D0995F80182AD811108C05F
:1012600083AD803409F083C084AD813009F07FC044
:1012700085E0EDE0F2E0DE01119601900D928A9595
:10128000E1F7D80196968D919C919797069709F072
:1012900068C0DD968C918C8345E0BE016F5F7F4F07
:1012A000C8010E94C5087C01D801ED91FC91028023
:1012B000F381E02DC8010995E114F10409F440C05F
:1012C000F7018181807F803F09F055C00E94AB0407
:1012D0006B017C01D801ED91FC910190F081E02D32
:1012E000C801099544E064E072E0C8010E94C508A5
:1012F0005C01D801ED91FC910280F381E02DC801E1
:101300000995A114B10429F0F5018181807F803F06
:1013100089F46AE070E080E090E00E9479040E9425
:10132000AB046C197D098E099F096B3F710581051E
:10133000910580F262E370E080E090E00E94790421
:1013400080E00F900F900F900F900F90DF91CF9152
:101350001F910F91FF90EF90DF90CF90BF90AF90D3
:101360000895F80183AD8C8384AD8D8395CF43E0E0
:101370006DE072E095CFD80194968D919C919597F0
:1013800093969C938E9392972381348195963C9368
:101390002E93949781818937B9F483E090E09796F2
:1013A0009C938E939697D80196968D919C91979742
:1013B0008430910591F150F58230910571F10397D8
:1013C00009F441C081E0BDCF982F907F903721F480
:1013D00082E090E0D801E3CF903531F484E090E0F2
:1013E000F80197A386A3DFCF833219F485E090E05C
:1013F000F1CF903E19F486E090E0F2CF833619F4F5
:1014000087E090E0E7CF81E090E0EACF8630910579
:1014100009F45CC030F10797A9F681E0D8019C96E9
:101420008C939C97F70185819A968C939A978681E5
:101430009B968C939B97878198968C9398978085A1
:1014400099968C93BFCF81E0F80181AFF70139966F
:101450009D96C701459621912D93E817F907D9F775
:10146000DCCF81E09C968C939C97F70195819896B0
:101470009C939897D9968C93D9978681D3968C9381
:10148000D3979781D4969C93D4974085D5964C93C7
:10149000D59797FF05C03F7795963C932E939497E9
:1014A00087FF0AC0D80194968D919C9195979F7B58
:1014B00095969C938E939497403F08F483CFF801C0
:1014C00084A195A19B7F95A384A37CCF81E09C966A
:1014D0008C93F7019681858197FD1AC087FD8FE770
:1014E000D80198968C93D80198968C9198978058AB
:1014F00098968C939897F70185819D968C939D97EC
:1015000086819E968C939E9787819F968C935ACFC7
:10151000813808F481E8F80180A7E5CF90912C018B
:10152000891778F4E82FF0E0EE0FFF1FEE50FB4F25
:1015300080819181DC01ED91FC910190F081E02DA1
:1015400009940895FC019081911107C083819481D1
:101550000196B1F090E080E008959F3051F422812F
:1015600030E02F7033272F30310581F482E090E096
:101570000895923041F0943049F485E090E0089568
:1015800083E090E0089584E090E0089581E090E0A9
:101590000895FC0180818783818192819187808772
:1015A00083818287848183878581848786818587FB
:1015B0000895FC016093BC002FEF3FEF8091BC00C9
:1015C00087FF06C09091B900987F908381E00895CD
:1015D0002150310999F780E00895CF93DF93EC0112
:1015E0006093BB0064E80E94D90A882329F081E057
:1015F0009881983209F080E0DF91CF910895DF92D1
:10160000EF92FF920F931F93CF93DF93EC01D62EAF
:10161000F42E8989882329F0411103C00E943408DF
:10162000198A8E01015F1F4F8989811119C0E888CD
:1016300064EAC8010E94D90A882361F08F85883046
:1016400011F0803139F4EE0CE092BB0064E8C8017F
:101650000E94D90A60E0F11060E4C8010E94ED0A1E
:101660006D2DC8010E94ED0A82E0F8120BC0898935
:101670008F5F898BDF91CF911F910F91FF90EF903A
:10168000DF9008950E943408198AF4CFDC01ED91AF
:10169000FC910084F185E02D40E00994FC01278154
:1016A000269526952695621720F46583606B0C9429
:1016B000460B08950F931F93CF93FC012681621769
:1016C00098F4C62F8C0164836085C60F6C2F6F70F1
:1016D0000E94460B6C2F62956F706061C801CF91BC
:1016E0001F910F910C94460BCF911F910F9108956C
:1016F0001F93CF93DF93EC01142F0E945A0B612F9D
:10170000CE01DF91CF911F910C944E0B2F923F92FF
:101710004F925F926F927F928F929F92AF92BF9201
:10172000CF92DF92EF92FF920F931F93CF93DF93AD
:1017300000D000D000D0CDB7DEB7FC0123853485C2
:101740002115310509F416C19E838D83F901329666
:10175000649031964491E42EF12CF7E0EF0EF11CE9
:1017600053E0F594E7945A95E1F7E982F90134964C
:1017700054913196E4916D30F1F460E00E945A0B7F
:1017800081E090E026960FB6F894DEBF0FBECDBF85
:10179000DF91CF911F910F91FF90EF90DF90CF904D
:1017A000BF90AF909F908F907F906F905F904F9081
:1017B0003F902F9008956A3081F460E08D819E8182
:1017C0000E945A0BED81FE81868565818E9D600D9C
:1017D0001124CF010E944E0BD3CF651708F4CAC065
:1017E0008E2F90E0FC01E50FF11D6E171F060CF027
:1017F000C1C089010A5F1F4F651BED81FE817185A4
:101800005685759F502D11245C83F90154912F5FEB
:101810003F4FF9012491352F2230310508F06AC07D
:101820006E9CC0016F9C900D1124689FF001699F10
:10183000F00D11240E0F1F1F512CED81FE81F4813C
:10184000FA83ED81FE812580F285FB83862C912C25
:10185000AA24A394B12C312C8981381608F086C0B3
:10186000412CED81FE818685481608F078C08B8179
:101870008287311002C0442041F0ED81FE81458114
:101880004F5F6A81CF010E94780BD12CC12CC61406
:1018900008F058C0F801EC0DFD1D7490552061F062
:1018A000EA14FB0449F4E72DF0E0052C02C0F5959D
:1018B000E7950A94E2F77E2EED81FE8186858230DF
:1018C00081F4442009F43AC072948FE07822E72D25
:1018D000F0E0EF55FE4F7490672D8D819E810E9440
:1018E0001907672D8D819E810E9419078FEFC81AF5
:1018F000D80ACDCF477028E0522E541A411101C0AA
:10190000512CF801612C30E020E0661631F0449152
:10191000240F311D63943196F8CF600E712E711C27
:10192000F3016490E29EF001E39EF00DF29EF00D53
:1019300011248E0F9F1F080F191F7FCFF72DFF70E7
:101940007F2EC5CFD12CEC81DE1639F060E08D8181
:101950009E810E941907D394F6CF439482CF33948B
:10196000080D191DFFEFAF1ABF0A76CF622D8D81CA
:101970009E8130CF90E080E005CF0F931F93CF93EF
:10198000DF938C01D0E0C0E0F801EC0FFD1F649103
:10199000662341F080E596E00E94860B892B11F0CA
:1019A0002196F2CFCE01DF91CF911F910F91089533
:1019B000CF92DF92EF92FF920F931F93CF93DF931B
:1019C000EC01F62EC42ED22E1A868F81869586952E
:1019D0008695081710F00FEF080F1D2D011780F0E6
:1019E000412F6F2DCE010E94780BEF2CCE1430F0DA
:1019F0006D85CE010E941907E394F8CF1F5FEECFEB
:101A00004D2D6F2DCE01DF91CF911F910F91FF9042
:101A1000EF90DF90CF900C94780B0F93FC0107812F
:101A200006950695069501504681415020E060E0FC
:101A30000E94D80C0F9108954F925F926F927F92FF
:101A40008F92AF92CF92EF92FF920F931F93CF930B
:101A5000DF93CDB7DEB72701380194E0899F80017D
:101A60001124F801E854FB4F80819181A281B38158
:101A70008E219521A621B72131E0892B8A2B8B2B32
:101A800009F430E03C1103C08889882301F1C110BA
:101A900001C0A82C2D5F640F422F80E596E00E94C4
:101AA000780B6A2D80E596E00E94860BF801E854D9
:101AB000FB4FCC20D1F080819181A281B381842918
:101AC0009529A629B72980839183A283B383DF91C7
:101AD000CF911F910F91FF90EF90CF90AF908F908B
:101AE0007F906F905F904F900895409450946094D1
:101AF000709480819181A281B38184219521A62156
:101B0000B721E1CF0F9307E022E04FE760E080E5E7
:101B100096E00E94D80C8091FE049091FF048230E0
:101B20009105E1F020F4019779F00F910895833049
:101B30009105E1F00497C9F766E080E596E00E9420
:101B40005A0B86E491E007C06CE080E596E00E94C5
:101B50005A0B85E391E00F910C94BD0C6CE080E58D
:101B600096E00E945A0B8EE591E0F5CF66E380E5A2
:101B700096E00E945A0B8AE591E0EDCF8093080130
:101B80006EEA81116FEA80E596E00E94460B0E94A2
:101B9000AB046093C4047093C5048093C60490930F
:101BA000C7040895FC01448550E0A585B0E0AA0F64
:101BB000BB1FA35FBA4F0D90BC91A02D13968C91C3
:101BC000806490911105BF01992321F06E5F7F4FD2
:101BD0000C9454056D5F7F4FFBCF089590E080E03B
:101BE00008952F923F924F925F926F927F928F92C1
:101BF0009F92AF92BF92CF92DF92EF92FF920F939C
:101C00001F93CF93DF93CDB7DEB7C456D1090FB67C
:101C1000F894DEBF0FBECDBF2C011B01942ED22E37
:101C2000BE2C8EE394E0D2018D939C93822F90E0A2
:101C300001969595879590910B05981750F0909186
:101C40000C0511E0EE24E394F12C981728F012E033
:101C500075C010E0F12CE12CF701E55FFA4F81E04F
:101C6000890F808391116AC083E190E00E94C62DA4
:101C70003C0181E0F301848385839301265F3F4F1C
:101C8000378326831186108622E334E03183208354
:101C900014861386168615868787808B328A218A5A
:101CA00081EC82870E943E06FC018181D30114965B
:101CB0005C91682F650F7727771F68307105BCF539
:101CC000A281B381109739F5738262829081D3012A
:101CD00012969C93129713968C93139715968C914A
:101CE000890F808390E080E0851708F54181A42F5B
:101CF000B0E0BD016B5C7E4FD30116962D913C91F7
:101D0000280F391FD9012C91DB012C934F5F4183A0
:101D10000196EACFD90118962D913C91199721157A
:101D20003105C1F719967C926E921897CFCFF701C3
:101D3000EE0FFF1FE35FFA4F71826082F201158799
:101D400081E08D1508F080E08093110584E494E033
:101D5000D20111969C938E9312969C9212972C2DE1
:101D60002A0D2B0D200FEA963FACEA97380C822FF4
:101D7000830D95E0980F1C969C9335E0398391E094
:101D80009A8349E04B833C8331EA3D839E839D15D2
:101D900008F0EEC385E88F83988698E0E1E0F0E0F4
:101DA000EC0FFD1FE90FF11D45E04083E1E0E90F75
:101DB00066246394712C6C0E7D1E6E0E711CF301F3
:101DC00059E05083E2E0E90FEE24E394F12CEC0EAD
:101DD000FD1EEE0EF11CF70189E18083E3E0E90FBF
:101DE00061E070E06C0F7D1F6E0F711DFB0131E033
:101DF0003083E4E0E90FA1E0B0E0AC0FBD1FAE0F0F
:101E0000B11DFD0189E28083E5E0E90F662463945A
:101E1000712C6C0E7D1E6E0E711CF30188E18083A7
:101E2000E6E0E90FEE24E394F12CEC0EFD1EEE0E3D
:101E3000F11CF701A5E19A2E9082E7E0E90F61E03D
:101E400070E06C0F7D1F6E0F711DFB011082E8E0CA
:101E5000E90FA1E0B0E0AC0FBD1FAE0FB11DFD0159
:101E6000B5E2FB2EF082E9E0E90F66246394712C61
:101E70006C0E7D1E6E0E711CF3013083EAE0E90FDB
:101E800061E070E06C0F7D1F6E0F711DFB0175E747
:101E90007083EBE0E90FA1E0B0E0AC0FBD1FAE0F27
:101EA000B11DFD013083ECE0E90F66246394712CD1
:101EB0006C0E7D1E6E0E711CF30165E96083EDE012
:101EC000E90FA1E0B0E0AC0FBD1FAE0FB11DFD01E9
:101ED0008083EEE0E90F66246394712C6C0E7D1E06
:101EE0006E0E711CF30181E88083EFE0E90FA1E041
:101EF000B0E0AC0FBD1FAE0FB11DFD01B2E0DB2E97
:101F0000D082E0E1E90F66246394712C6C0E7D1E93
:101F10006E0E711CF3014083E1E1E90FA1E0B0E036
:101F2000AC0FBD1FAE0FB11DFD013083E2E1E90F23
:101F300066246394712C6C0E7D1E6E0E711CF30171
:101F40005083E3E1E90FA1E0B0E0AC0FBD1FAE0F9D
:101F5000B11DFD0149E34083E4E1E90F6624639488
:101F6000712C6C0E7D1E6E0E711CF3019082E5E1EA
:101F7000E90FA1E0B0E0AC0FBD1FAE0FB11DFD0138
:101F80001082E6E1E90F66246394712C6C0E7D1ECD
:101F90006E0E711CF301F082E7E1E90FEE24E39489
:101FA000F12CEC0EFD1EEE0EF11CF70147E0408314
:101FB000E8E1E90FA1E0B0E0AC0FBD1FAE0FB11D2D
:101FC000FD0145E34083E9E1E90F66246394712C48
:101FD0006C0E7D1E6E0E711CF3011082EAE1E90F9A
:101FE000EE24E394F12CEC0EFD1EEE0EF11CF70135
:101FF00046E44083EBE1E90FA1E0B0E0AC0FBD1F88
:10200000AE0FB11DFD014BE34083ECE1E90F662407
:102010006394712C6C0E7D1E6E0E711CF301308367
:10202000EDE1E90FEE24E394F12CEC0EFD1EEE0E33
:10203000F11CF70145E64083EEE1E90FA1E0B0E0D5
:10204000AC0FBD1FAE0FB11DFD0144E14083EFE1B8
:10205000E90F66246394712C6C0E7D1E6E0E711C4C
:10206000F3017083E0E2E90FEE24E394F12CEC0E2F
:10207000FD1EEE0EF11CF70148E04083E1E2E90F9E
:10208000A1E0B0E0AC0FBD1FAE0FB11DFD0160833C
:10209000E2E2E90F66246394712C6C0E7D1E6E0ED5
:1020A000711CF3013083E3E2E90FEE24E394F12C99
:1020B000EC0EFD1EEE0EF11CF7018083E5E2E90F48
:1020C00084E2890FEE24E394F12CEC0EFD1EE80E61
:1020D000F11CD701DC92222309F404C16624639425
:1020E000712C6C0E7D1E6E0E711CF3015083E6E2A6
:1020F000E90FEE24E394F12CEC0EFD1EEE0EF11C24
:10210000F7013083E7E2E90FA1E0B0E0AC0FBD1FBB
:10211000AE0FB11DFD019082E8E2E90F66246394E1
:10212000712C6C0E7D1E6E0E711CF3011082E9E2A3
:10213000E90FEE24E394F12CEC0EFD1EEE0EF11CE3
:10214000F70186E28083EAE2E90FA1E0B0E0AC0F9C
:10215000BD1FAE0FB11DFD018FEF8083EBE2E90FD4
:1021600066246394712C6C0E7D1E6E0E711CF3013F
:102170001082ECE2E90FEE24E394F12CEC0EFD1E4C
:10218000EE0EF11CF7017083EDE2E90FA1E0B0E083
:10219000AC0FBD1FAE0FB11DFD014083EEE2E90F94
:1021A00066246394712C6C0E7D1E6E0E711CF301FF
:1021B0006083EFE2E90FEE24E394F12CEC0EFD1EB8
:1021C000EE0EF11CF7012083E0E3E90F21E030E09F
:1021D0002C0F3D1F2E0F311DF90181EA808382E310
:1021E000890FE1E3E90F61E070E06C0F7D1F6E0F76
:1021F000711DFB011082002391F0E1E0F0E0EC0F93
:10220000FD1FE80FF11D508384E3890F9D5CE1E021
:10221000F0E0EC0FFD1FE90FF11D90E39083BB2070
:10222000A1F0E1E0F0E0EC0FFD1FE80FF11D99E0F7
:102230009083E1E0E80FA1E0B0E0AC0FBD1FAE0F6E
:10224000B11DFD0191E390838E5FCC20A9F0E1E008
:10225000F0E0EC0FFD1FE80FF11D99E09083E1E045
:10226000E80F66246394712C6C0E7D1E6E0E711C3B
:10227000F30192E390838E5FAA20A9F0E1E0F0E001
:10228000EC0FFD1FE80FF11D99E09083E1E0E80FEE
:10229000EE24E394F12CEC0EFD1EEE0EF11CF70182
:1022A00095E390838E5FE1E0F0E0EC0FFD1FE80F17
:1022B000F11D91E89083E1E0E80F21E030E02C0F80
:1022C0003D1F2E0F311DF90192E09083E3E0E80FEE
:1022D0008E5F61E070E06C0F7D1F680F711D20EC58
:1022E000DB012C93332009F4E8C025E081E090E085
:1022F0008C0F9D1F8E0F911DDC012C9381E08E0FA2
:1023000066246394712C6C0E7D1E680E711C22E095
:10231000D3012C9382E08E0F66246394712C6C0E93
:102320007D1E680E711C25E1D3012C9383E08E0F76
:1023300066246394712C6C0E7D1E680E711CD30193
:102340001C9284E08E0F66246394712C6C0E7D1EAB
:10235000680E711C26E2D3012C9385E08E0F662453
:102360006394712C6C0E7D1E680E711C2FEFD301CF
:102370002C9386E08E0F66246394712C6C0E7D1E68
:10238000680E711CD3011C9287E08E0F6624639443
:10239000712C6C0E7D1E680E711C25E7D3012C93E9
:1023A00088E08E0F66246394712C6C0E7D1E680E7F
:1023B000711C28E0D3012C9389E08E0F662463946E
:1023C000712C6C0E7D1E680E711C25E9D3012C93B7
:1023D0008AE08E0F66246394712C6C0E7D1E680E4D
:1023E000711CD3013C92ABE0AE0F66246394712C58
:1023F0006C0E7D1E6A0E711CD30181EA8C934DE038
:102400004E0F8CE08E0FEE24E394F12CEC0EFD1EAB
:10241000E80EF11CD7011C928820A9F0A1E0B0E0E1
:10242000AC0FBD1FA40FB11D89E08C934FE04E0F80
:10243000E25F66246394712C6C0E7D1E6E0E711C1F
:10244000F3018BEB8083EA967FACEA977720A9F0C3
:10245000E1E0F0E0EC0FFD1FE40FF11D89E0808367
:10246000E1E0E40FEE24E394F12CEC0EFD1EEE0E01
:10247000F11CF70185EC80834E5FE1E0F0E0EC0FAA
:10248000FD1FE40FF11D81E88083E1E0E40F21E00E
:1024900030E02C0F3D1F2E0F311DF90182E08083AB
:1024A000E3E0E40FA2E0A40F61E070E06C0F7D1F99
:1024B0006A0F711DDB0180EC8C93A1E0B0E0AC0FE2
:1024C000BD1FAE0FB11D80EC8C93EF5FEE2EF12C93
:1024D000C7010E94C62D6C01A701BE016F5F7F4F2F
:1024E0000E94F02E87E090E00E94C62DDC0111963C
:1024F0001C921E921396DC92CE9212971596FC9225
:10250000EE92149716961C921697E12FF0E0EE0FBC
:10251000FF1FE35FFA4F40815181FA018385948563
:10252000009761F5B487A387FA018585968514968F
:102530002D913C91820F931F96878587CC59DF4F51
:102540000FB6F894DEBF0FBECDBFDF91CF911F91C4
:102550000F91FF90EF90DF90CF90BF90AF909F9042
:102560008F907F906F905F904F903F902F90089545
:102570008C5FF201848796E011CCC901FC012081B7
:10258000318121153105C9F7B183A083CDCF0E94D8
:10259000EB2ECF93DF93FC012085318580E0232B48
:1025A00069F4EB0161897289CE010E94F92EFE0166
:1025B00001900020E9F731978E2F8C1BDF91CF918E
:1025C00008952F923F924F925F926F927F928F92D7
:1025D0009F92AF92BF92CF92DF92EF92FF920F93B2
:1025E0001F93CF93DF93CDB7DEB76C970FB6F894F8
:1025F000DEBF0FBECDBF0E9454040091CF041091E6
:10260000D0042091D1043091D204AB01BC01401B15
:10261000510B620B730B80912A0190912B01B0E05A
:10262000A0E0481759076A077B0710F40C94391C7F
:102630008091FE049091FF048230910511F40C9476
:10264000881C30F4019709F411C110E00C94261C89
:102650008330910511F40C94A21F0497B1F7809177
:102660000B01882309F446C010920B014AEA442E5C
:1026700043E0542ED12C5AE1252E53E0352E9924D7
:102680009394F201B08007E023E041816B2D80E557
:1026900096E00E94D80C47E06B2D80E596E00E9402
:1026A000780B3AEE632E32E0732ED301ED90FD905D
:1026B0000D911C9113979F9217968C9017971696D1
:1026C000AC901697C12C14962C91149715964C919A
:1026D0006B2D8D2D0E941C0DB8E06B0E711C0F90A0
:1026E0002614370411F7E2E04E0E511CF1E0DF1220
:1026F0000C948721D12C10E080912C01D81610F079
:102700000C94261CDD2011F40C948B2183B163B151
:1027100053B12FB14FB13FB186FB882780F98F8726
:10272000188A8F85988975E0880F991F7A95E1F747
:1027300063FB662760F9698B1A8AE989FA89A4E044
:10274000EE0FFF1FAA95E1F7E82B35FB882780F9EC
:10275000E82B569551705D8B1E8A8D899E89B3E05A
:10276000880F991FBA95E1F7E82B822F220F990B5A
:102770008827990F881F9927880F991F880F991FFD
:10278000E82B46FB442740F94F8B188E8F89988D94
:10279000880F991FE82B2D2D30E0D901A75FBE4F80
:1027A0008C918E1709F460C0EC932E2E312C82E0B0
:1027B00090E0E4FF02C090E080E0E5FF84608901E2
:1027C000000F111FD801AE50BB4F0D90BC91A02D32
:1027D00013968C93139714961C92149715961C922B
:1027E0001597EF70F0E0E25EFB4F808116968C93B8
:1027F0001697CD010E94D20DF801E655FC4FB0802E
:102800002AEE622E22E0722E512C412CC101042CA2
:1028100002C0959587950A94E2F780959095282FA8
:102820002170C22ED301ED90FD900D911C91139754
:102830001F9217968C9017971696AC901697149631
:102840002C91149715964C916B2D8D2D0E941C0D7B
:10285000BFEF4B1A5B0AE8E06E0E711C0F90F6E0BA
:102860004F16510499F611E0D39446CF9E012F5F85
:102870003F4F59018CE0D9011D928A95E9F780916B
:102880002501882381F01092250180912C0183304D
:1028900050F045E06EE180E596E00E94780B87E914
:1028A00091E00E94BD0C86EF95E00E94C90A85E088
:1028B00096E00E94C90A84E196E00E94C90A83E278
:1028C00096E00E94C90A82E396E00E94C90A81E468
:1028D00096E00E94C90AB091F205BF871092F205F6
:1028E0001092F3055C9AEBE0CE2ED12CC601019735
:1028F000F1F78091F4059091F5050E940C08182FCE
:102900005C98C6010197F1F78091F4059091F50567
:102910000E940C08912F97702091F4053091F505D5
:10292000412F4F70943009F0C2C02130310541F081
:1029300021E030E03093F5052093F4053F9A479A63
:10294000E091F20591E09E0F9093F205E73008F0D8
:10295000E6E02FE0E29FF0011124E551FA4F9FE4F9
:102960009387248535853F7050E0542F4427529536
:10297000507F240F351F207F8F70280F311D358722
:1029800024875C9A47982BE030E0C9010197F1F762
:1029900059B19CB143B163B196FB882780F9880F88
:1029A000880F952F991F9927991F990F990F990FA4
:1029B000890F65FB992790F9890F44FB992790F9B6
:1029C000990F890F40E1849FC001112444855585EA
:1029D0004F70840F951F958784875C984798C9012D
:1029E0000197F1F739B19CB123B143B196FB882728
:1029F00080F9880F880F932F991F9927991F990F96
:102A0000990F990F890F45FB992790F9890F24FB9E
:102A1000992790F9990F890F90E0982F882724859E
:102A20003585307F820F931F958784875C9A8091CC
:102A3000F4059091F505019709F4479A83E290E037
:102A40000197F1F77091F20520E03FE04FEF5FEF63
:102A500060E8721709F434C2822F273008F086E04C
:102A600090E0389FD001399FB00D1124A551BA4F85
:102A70001B96FC911B975296EC915297FE17A9F06A
:102A80001D965C934E931C971E966C931E97019611
:102A9000389FF001399FF00D1124E551FA4F608302
:102AA00050961C92509751961C922F5FD2CF413076
:102AB00009F046C1982F9F70913009F041C1213033
:102AC000310541F081E090E09093F5058093F405A5
:102AD0003F9A479A70E061E02BE030E04798572F2B
:102AE000562780ED97E046B146FB442740F9541342
:102AF0000C943622F9013197F1F70197A1F796CF9F
:102B000059B19CB143B1E3B196FB882780F9880F96
:102B1000880F952F991F9927991F990F990F990F32
:102B2000890FE5FB992790F9890F44FB992790F9C4
:102B3000990F890F713011F00C94562254E0F51260
:102B400003C0813009F472CF682F660F698BF110D2
:102B500022C0823039F190E080E051E06BE070E01B
:102B6000B989B91709F462CF882309F492C0479A4A
:102B70008527A82FA17020ED37E046B146FB4427FA
:102B800040F9FB01A4130C945A223197F1F721501C
:102B9000310999F74BCF71E0F7126DC0863011F013
:102BA0008330C9F60091F20591E0900F9093F20501
:102BB000073008F006E0202F30E09FE0099F8001F9
:102BC0001124F801EA50FA4FFE8BED8BA801FEE0CC
:102BD00045515A4FFF125FC0815090EE8927DA01AC
:102BE0001B968C9310E000E0312C9BE0C92ED12C79
:102BF00043E0842E912C8FE0829F7001839FF00C24
:102C00001124A70145515A4F7A01BA016F5E7F4FD7
:102C1000788F6F8BDA015096BC8BAB8B2F5F3F4F59
:102C2000829FA001839F500D1124FA01E551FA4FB4
:102C3000FA8FE98F3701FEE06F0E711C2CE0E20E77
:102C4000F11C3989311709F4F1CE002361F1479A5B
:102C500081E00827302F317080ED97E026B126FB08
:102C6000222720F932130C945F22F6013197F1F7F5
:102C70000197A1F7DBCE9EE0F91204C0833008F47F
:102C800091CF69CFAFE0FA1266CF8F3009F063CFF2
:102C9000CDCE47986DCFB0E1FB9EB00111248627C1
:102CA000FA0183879FCF4798D3CF133089F4D70198
:102CB0002D913C9111973F70487050E0542F44275C
:102CC0005295507F420F531F4D935C930C94832277
:102CD000143099F1153049F4B0E13B9EC001112444
:102CE000482BF30140830C948322163031F11730C6
:102CF00051F4F0E13F9EC0011124482BA98DBA8DFB
:102D00004C930C9483221830C1F0193041F4B0E197
:102D10003B9EC0011124482BEB89FC89E3CF1A307C
:102D200061F01B3011F00C948322F0E13F9EC00152
:102D30001124482BAF89B88DE3CF342E0C94832215
:102D4000982F9C7009F0A0C0232B39F01092F50544
:102D50001092F4053F984798479A2091F20591E028
:102D6000920F9093F205273008F026E0E22EF12C26
:102D7000BFE02B9FF0011124E551FA4F90EE9387AD
:102D8000612F70E01C7009F451CE24853585207FB9
:102D9000420F532F511D4F7014E0759567951A958A
:102DA000E1F786958695862B20E18202C0011124E9
:102DB000840F951F9587848784E091E04BE050E075
:102DC00021E0992309F45EC05C9AFA013197F1F78A
:102DD00092278150B1F78091F4059091F5050E94FA
:102DE0000C089FE09E9DF0019F9DF00D1124E55180
:102DF000FA4F918D992321F021EE23879150918FE5
:102E00008F7009F013CE8FE08E9D80018F9D100D85
:102E1000112405511A4F84E6D80159968C935C9A77
:102E2000FBE0CF2ED12CC6010197F1F78091F4057C
:102E30009091F5050E940C08F82E5C98C601019748
:102E4000F1F78091F4059091F5050E940C0891EE40
:102E5000F801938724853585307F4F2D4F7050E0E2
:102E6000542F4427240F351F3F70880F880F880F79
:102E700090E0982F88279295907F280F391F3587EB
:102E80002487D4CD5C98A1CF433081F48F708F30EC
:102E900069F42130310509F4C9CD81E090E09093C7
:102EA000F5058093F4053F9A479AC0CD232B09F48A
:102EB000BDCD1092F5051092F4053F984798F4CFD8
:102EC000FF852F1780F56FE07FEF4FEF5FEF30E862
:102ED000822F273008F086E090E0689FD001699F3C
:102EE000B00D1124A551BA4F1B967C931B97599690
:102EF0001C9259971D965C934E931C971E963C937B
:102F00001E970196689FF001699FF00D1124E5510D
:102F1000FA4F308350961C92509751961C922F5F17
:102F20008F858213D5CF81E995E00E94C90A80EA96
:102F300095E00E94C90A8FEA95E00E94C90A8EEBCB
:102F400095E00E94C90A8DEC95E00E94C90A8CEDBB
:102F500095E00E94C90A90918D059F8710928D057A
:102F600010928E052A9AEBE0EE2EF12CC701019704
:102F7000F1F780918F05909190050E94EC07182F32
:102F80002A98C7010197F1F780918F0590919005DC
:102F90000E94EC07412F477020918F0530919005DA
:102FA000912F9F70443009F0C0C02130310541F0AD
:102FB00021E030E03093900520938F05269A2E9AD9
:102FC000E0918D0521E02E0F20938D05E73008F06C
:102FD000E6E0AFE0EA9FF0011124EA57FA4F2FE450
:102FE0002387248535853F70492F50E0542F44278F
:102FF0005295507F240F351F207F8F70280F311D71
:10300000358724872A9A2E982BE030E0C901019752
:10301000F1F783B14FB19FB15FB186958170880F91
:10302000880F880F441F4427441F440F440F840F08
:1030300055FB442740F9840F96FB992790F9990F87
:10304000890FB0E18B9FC0011124448555854F70D5
:10305000840F951F958784872A982E98C901019718
:10306000F1F783B12FB19FB13FB186958170880F81
:10307000880F880F221F2227221F220F220F820F64
:1030800035FB222720F9820F96FB992790F9990F9B
:10309000890F90E0982F882724853585307F820F0F
:1030A000931F958784872A9A80918F059091900528
:1030B000019709F42E9A83E290E00197F1F760916D
:1030C0008D05512C2FE04FEF5FEF30E8651509F4C7
:1030D0002FC2852DF6E0F51508F486E090E0289FD4
:1030E000D001299FB00D1124AA57BA4F1B96EC911D
:1030F0001B9752967C915297E717A9F01D965C9307
:103100004E931C971E963C931E970196289FF001A4
:10311000299FF00D1124EA57FA4F308350961C92E4
:10312000509751961C925394D1CF913009F041C1E0
:10313000482F4F70413009F03CC12130310541F03A
:1031400081E090E09093900580938F05269A2E9AC7
:1031500070E051E02BE030E02E98672F652780ED7E
:1031600097E043B143FB442740F964130C94862253
:10317000F9013197F1F70197A1F795CF83B14FB1DD
:103180009FB16FB186958170880F880F880F441F9B
:103190004427441F440F440F840F65FB442740F924
:1031A000840F96FB992790F9990F890F713011F0D0
:1031B0000C94A522E4E05E1203C0813009F473CFC1
:1031C000282E220C511021C0823031F190E080E095
:1031D00051E06BE070E0291609F465CF882309F40B
:1031E00091C02E9A8527A82FA17020ED37E043B11A
:1031F00043FB442740F9FB01A4130C94A922319707
:10320000F1F72150310999F74ECFF1E05F126CC010
:10321000863011F08330D1F600918D0591E0900F4A
:1032200090938D05073008F006E0202F30E09FE0F6
:10323000099F80011124A8014F565A4F5A8B498B80
:10324000A8016EE04A575A4F56125EC0815090EE68
:103250008927DA011B968C9310E0312C412C8BE0EE
:10326000C82ED12C93E0892E912C8FE0829F700183
:10327000839FF00C1124A7014A575A4F7A01BA01D3
:103280006F5E7F4F7E8B6D8BDA015096B88FAF8B60
:103290002F5F3F4F829FA001839F500D1124FA01A1
:1032A000EA57FA4FFC8BEB8B3701FEE06F0E711C77
:1032B0002CE0E20EF11C211609F4F5CE332061F169
:1032C0002E9A81E03826332D317080ED97E023B1BE
:1032D00023FB222720F932130C94AE22F6013197FA
:1032E000F1F70197A1F7DFCE2EE0521204C0833030
:1032F00008F492CF6BCF3FE0531268CF8F3009F0C4
:1033000065CFD1CE2E986ECFB0E15B9EB001112477
:103310008627FA018387A0CF2E98D3CF133089F464
:10332000D7012D913C9111973F70487050E0542F78
:1033300044275295507F420F531F4D935C930C943A
:10334000D222143099F1153049F4B0E14B9EC001FE
:103350001124482BF30140830C94D222163031F112
:10336000173051F4F0E14F9EC0011124482BAB8976
:10337000BC894C930C94D2221830C1F0193041F41E
:10338000B0E14B9EC0011124482BEF89F88DE3CFAB
:103390001A3061F01B3011F00C94D222F0E14F9EF4
:1033A000C0011124482BAD89BE89E3CF442E0C9473
:1033B000D222482F4C7009F09FC0232B39F0109275
:1033C000900510928F0526982E982E9A40918D0583
:1033D00021E0240F20938D05473008F046E0E42ECD
:1033E000F12CBFE04B9FF0011124EA57FA4F20EE79
:1033F0002387412F50E01C7009F455CE2485358574
:10340000207F290F311D2F70A4E055954795AA956F
:10341000E1F786958695842B40E18402C001112452
:10342000820F931F9587848784E091E04BE050E002
:1034300021E0992309F45EC02A9AFA013197F1F745
:1034400092278150B1F780918F05909190050E944D
:10345000EC079FE09E9DF0019F9DF00D1124EA571F
:10346000FA4F918D992321F021EE23879150918F6E
:103470008F7009F018CE8FE08E9D80018F9D100D0A
:1034800011240A571A4F84E6D80159968C932A9A28
:103490002BE0C22ED12CC6010197F1F780918F0548
:1034A000909190050E94EC07F82E2A98C60101978A
:1034B000F1F780918F05909190050E94EC0791EEB5
:1034C000F801938724853585307F4F2D4F7050E06C
:1034D000542F4427240F351F3F70880F880F880F03
:1034E00090E0982F88279295907F280F391F358775
:1034F0002487D9CD2A98A1CF933081F48F708F3053
:1035000069F42130310509F4CECD81E090E090934B
:10351000900580938F05269A2E9AC5CD232B09F40A
:10352000C2CD1092900510928F0526982E98F4CF58
:103530002F85521688F5252D6FE07FEF4FEF5FEF57
:1035400030E8822F273008F086E090E0689FD001B5
:10355000699FB00D1124AA57BA4F1B967C931B97F5
:1035600059961C9259971D965C934E931C971E96E4
:103570003C931E970196689FF001699FF00D1124FE
:10358000EA57FA4F308350961C92509751961C92EE
:103590002F5F8F858213D5CF3090F205C32CC50CD9
:1035A00082EF882E84E0982ED12C10E09FE0292E07
:1035B00020912C01CD1409F4E7C0D21609F4E4C01F
:1035C00044244394D31408F4412C8D2DD31408F0D3
:1035D00051C096E09D1508F486E0829DC00111243B
:1035E000DC01AA50BA4F7D01223069F4332059F032
:1035F0008C910E942826E42DF0E0EE0FFF1FEA0DCB
:10360000FB1D91838083D7019C9117968C9117970E
:10361000981343C011962D913C91129718968D9155
:103620009C9119972817390709F046C013969C9169
:1036300013971A968C911A9798133EC014969C91E2
:1036400014971B968C911B97981336C015969C91D6
:1036500015971C968C911C9798132EC016969C91CA
:1036600016971D968C91981327C0D394F2E08F0E75
:10367000911C9ECF8319873008F086E0829DC0019F
:103680001124FC01EF56FA4F7F01223009F0BBCF25
:10369000552009F4B8CF8081ACCF8D2D0E948E0AC1
:1036A00080912C01823041F4F70180810E9428260C
:1036B000BC01842D0E947628D70111968D919C9192
:1036C000B82FBF70BF8702E010E086FF02C010E095
:1036D00000E084FF046085FF006292FF016091FFBB
:1036E000086090FF006187FF1260F40160807180C4
:1036F000D7012C91207F203109F040C013968C9186
:103700001397F301878314968C91149780871596ED
:103710008C911597818716968C91169782878C913C
:103720000E942826069719F4FF85FC60FF87D301C5
:1037300013960C93139714961C93149715961C923A
:10374000BF85EB2FF0E0E25EFB4F8081F3018683C3
:10375000C3010E94D20D80912C01823069F4E42DC6
:10376000F0E0EE0FFF1FEA0DFB1D6081718120E08C
:10377000A701842D0E94112811E077CF93FF0068E4
:1037800097FDD5CF0064D3CFE980FA80223079F459
:103790008091190190911A018E159F0541F0E11455
:1037A000F10429F470E060E080E00E947628F09255
:1037B0001A01E0921901EB80FC8080912C0182308B
:1037C00079F480911B0190911C018E159F0541F0A9
:1037D000E114F10429F470E060E081E00E947628B1
:1037E000F0921C01E0921B018091CE04C816C0F437
:1037F0000C2D8091CE04081798F480912C010817A5
:1038000079F0802F0E948E0AE02FF0E0EE0FFF1F6C
:10381000EE50FB4F808191810E94D20D0F5FE9CF66
:10382000C092CE048091F305843051F090918E05C2
:10383000943031F0890F09F05DC082E390E002C05E
:1038400080ED97E090932B0180932A010E9454040D
:103850006093CF047093D0048093D1049093D204EA
:10386000112339F080910801811199C581E00E94EE
:10387000BE0D809108018823B1F00E94AB04009135
:10388000C4041091C5042091C6043091C704601B84
:10389000710B820B930B603C744D8140910518F0C5
:1038A00080E00E94BE0D4E9980C66CE271E080E01F
:1038B00090E00E9479048091080181117BC581E02C
:1038C0006C960FB6F894DEBF0FBECDBFDF91CF91DF
:1038D0001F910F91FF90EF90DF90CF90BF90AF902E
:1038E0009F908F907F906F905F904F903F902F9020
:1038F0000C94BE0DD12C2FEFC21AD20A24EF31E066
:10390000C29EC001C39E900DD29E900D11249ACFED
:10391000AE014F5F5F4F5E874D878CE0DA011D92ED
:103920008A95E9F780911801882381F01092180197
:1039300080912C01833050F045E064E280E596E010
:103940000E94780B80E891E00E94BD0C0E949202D8
:1039500080916D058093720580916E0590916F0541
:103960009093740580937305809170059091710513
:10397000909376058093750560916B0510926B05A9
:103980008E9A8BE290E00197F1F78E9883E190E0B8
:103990000197F1F730E020E050E040E0E3E1F0E0B3
:1039A0008FB1082E000C990B8827990F881F992733
:1039B000022E02C0880F991F0A94E2F7482B592B58
:1039C0008D98CF010197F1F78D9ACF010197F1F70B
:1039D0002F5F3F4F2031310519F7852F82958F706A
:1039E00090E18D3009F091E0B0E0A0E0F12CE12C05
:1039F00003E110E02FB1022E000C330B2227330F0E
:103A0000221F33270A2E02C0220F331F0A94E2F727
:103A1000E22AF32A8D98F8013197F1F78D9AF8018F
:103A20003197F1F71196A91728F3982F90954095A3
:103A30005095F701E095F0958F3029F4EE3F2FEF88
:103A4000F20709F440C070916B0521E0270F209325
:103A50006B0521E030E0711102C030E020E08111FF
:103A600017C0A52FBB27AF70BB271F9789F48AE02B
:103A7000829FD001839FB00D1124A859BA4F8FE0C7
:103A800015968C9315971996FC93EE93189711C081
:103A900092FFECC08AE0829FF001839FF00D112419
:103AA000E859FA4F84E085839370892F90E09187DD
:103AB00080878AE0829FF001839FF00D1124E859EE
:103AC000FA4F5783468330916B053D8B3617C0F410
:103AD000832F4AE09FEF21E030E0811102C030E007
:103AE00020E0429FF001439FF00D1124E859FA4F66
:103AF000958317821682118610868F5F6813EBCF2D
:103B000090907A054D89490D498B62EF74E0788F6A
:103B10006F8BB12C10E080912C0179897B1509F411
:103B2000C0C1B81609F4BDC1DD24D394B91408F49A
:103B3000D12C21E030E0B91408F0A3C0B11002C0CC
:103B400030E020E09AE0929FA001939F500D112455
:103B5000DA01A458BA4F3D01823009F4B5C0D3014F
:103B60008C9115969C911597891323C011964D91B0
:103B70005C91129716962D913C9117974217530717
:103B800059F413964D915C91149718962D913C9190
:103B90004217530709F462C0811119C0F3018381F0
:103BA00094810196A1F4D30118968D919C91019670
:103BB00071F08B2D0E948E0A80912C01823039F495
:103BC000C3010E94A20ABC018D2D0E946227C3017D
:103BD0000E94A20A1C01F30181819281FC01E095FF
:103BE000F09564E0F695E7956A95E1F71E2F1F7052
:103BF0009C0121703327AC015695479570E060E039
:103C00004170552766277727F2E02F16310409F017
:103C10006DC0232B09F0426082FD516083FD52602C
:103C2000EF89F88DA081B18113964C931397149668
:103C30005C93149715966C931597E12FF0E0E25E74
:103C4000FB4F808116968C931697CD010E94D20D62
:103C500080912C01823009F489C011E0B3944F891E
:103C6000588D4E5F5F4F588F4F8B55CF9AE0929F84
:103C7000D001939FB00D1124A859BA4F9FE0892716
:103C8000FFCEB91002C030E020E0BAE0B29FA00140
:103C9000B39F500D1124FA01E359FA4F3F018230CE
:103CA00009F05DCF3D89332309F459CFC3010E9448
:103CB000A20AED2DF0E0EE0FFF1F41E050E04C0FA7
:103CC0005D1FE40FF51F0FC0992061F3CD010E9425
:103CD000A20AED2DF0E0EE0FFF1F21E030E02C0FE7
:103CE0003D1FE20FF31F9183808339CF232B09F00F
:103CF000426090FD446091FD486092FD406193FDFB
:103D0000406224E02216310421F5D30113962D914F
:103D10003C9134FD406435FD406820FD546021FD38
:103D2000586022FD506123FD506224FD506425FD42
:103D3000506826FD616027FD626030FD646031FDE2
:103D4000686032FD606133FD606237FF65CF60649B
:103D500063CFB5E02B16310409F05ECFF301238168
:103D600020FD406421FF58CF406856CF8091E90480
:103D7000882309F457C04EEA442E43E0542E1F8690
:103D8000ED2DF0E0EE0FFF1FE655FC4F20812B8B51
:103D9000D201ED90FD900D911C91139714962C91EA
:103DA000149715964C9115971696AC9016971796F2
:103DB0008C90BF85BC3018F5E2E02E16310491F4EA
:103DC000B83080F01F92C12C6B898D2D0E941C0D84
:103DD0000F90FF85FF5FFF8728E0420E511CFE30E9
:103DE000B9F63BCFD30111968D919C918E219F21E5
:103DF000CC24C394892B09F4C12C1F92E5CFB5E0E4
:103E00002B163104C9F7F30163817481D801C7010E
:103E10003CE0B695A795979587953A95D1F7862377
:103E20009723E6CFEAE24E2EE3E05E2E1F868D2D2D
:103E300090E0880F991FAC0146555C4F5C8B4B8B13
:103E400052E02516310441F46F85683008F5F2011F
:103E5000E05AFF4F643008F0F201E080F180028107
:103E60001381D30111968D919C918E219F21CC2499
:103E7000C394892B09F4C12C1F928780A6802481CA
:103E80004581EB89FC8960818D2D0E941C0D0F906E
:103E9000FF85FF5FFF8728E0420E511CFC3081F652
:103EA000DCCEE980FA80823079F480910C01909127
:103EB0000D01E816F90641F0E114F10429F470E06F
:103EC00060E080E00E946227F0920D01E0920C0118
:103ED000EB80FC8080912C01823079F480910E017E
:103EE00090910F018E159F0541F0E114F10429F422
:103EF00070E060E081E00E946227F0920F01E092A2
:103F00000E018091CD0459895817C0F4052F809176
:103F1000CD04081798F480912C01081779F0802FB0
:103F20000E948E0AE02FF0E0EE0FFF1FEE50FB4FD5
:103F3000808191810E94D20D0F5FE9CF69896093E2
:103F4000CD0484CC1092CC048091CA0481115FC04E
:103F50008091CB0481115BC08091EE0481110DC072
:103F60008091620590916305DC01ED91FC910680E2
:103F7000F781E02D09958093EE048093CA04809127
:103F8000EF0481110DC08091640590916505DC01FD
:103F9000ED91FC910680F781E02D09958093EF0467
:103FA0008093CB0481E00E94BE0D07E027E04FE73D
:103FB00060E080E596E00E94D80C67E080E596E03E
:103FC0000E944E0B60E080E596E00E945A0B8091C3
:103FD000CA0481110BC08091CB04811103C08BE70F
:103FE00091E002C080E791E00E94BD0C62E480E5B0
:103FF00096E00E945A0B9091CA048091CB049923B9
:1040000061F1811104C080E791E00E94BD0C42E69D
:10401000842E45E0942E58ECE52E54E0F52E6AEC03
:10402000A62E64E0B62E10E000E077247394F4012D
:10403000819191914F019093F1048093F004D70105
:104040001D927D01F50121915F0121110BC001300D
:10405000110541F101E010E0EACF8111D2CF8BE7E9
:1040600091E0D3CF980122513B4F6901D9012C91A6
:10407000211135C1DC01ED91FC910680F781E02D25
:104080000995882359F0F6017082E091F004F091CF
:10409000F10466A177A1802F0E94FF268091ED0494
:1040A0008823A9F2912C10E030E8A32E80912C01F6
:1040B000981608F0CBCB892D90E0FC01E251FB4F24
:1040C0002081222309F404C1FC01E853FB4FB08096
:1040D000BB2009F4FDC00091CC04880F991FFC019E
:1040E000EE59FA4F0190F081E02DF093F104E09346
:1040F000F0048091EC048111EBC08091ED048111FA
:10410000E7C08824839422A133A184A195A1281714
:10411000390709F4812CC6A0D7A0E02EF12CEE0CB3
:10412000FF1CF701E054FB4F80819181C816D9062E
:1041300021F0B601802F0E94FF26E1E0F0E0EC0FB5
:10414000FD1FEE0DFF1DD182C082C60101970597AC
:1041500008F0B0C02090F0043090F104F10184A187
:1041600095A1809590959C01B4E036952795BA95D8
:10417000E1F7F1E02F27217086FF226087FF24609E
:1041800085FF28608091EA04882311F0282B2F7086
:104190008091CC0490E0FC01EE0FFF1FEE50FB4F2E
:1041A0000190F081E02D30E0225E3B4FD9012C914F
:1041B0002683D10194964D915C9140955095252F81
:1041C000221F2227221F30E056FD226055FD246069
:1041D00054FD286052FD206153FD206250FD206493
:1041E00051FD206840FD316043FD326041FD346087
:1041F00042FD3860D10198965C90989799966C90A2
:1042000099979C964C91442309F475C0B5E0CB1660
:10421000D10409F470C057826086BC016A5F7E4F8A
:10422000DB017C90AC014C5F5E4F75106BC0DA0116
:104230007C90761067C0782CDB015C92DA016C927E
:10424000D1019A965C919A979B964C919B979C96DC
:104250006C91662329F0B5E0CB16D10409F054C067
:10426000A186A28640E850E8BC016E5F7E4F2B011C
:10427000DB016C9180509F4F651305C0DC016C9190
:10428000641301C0B72CD2015C93DC014C932383EF
:1042900034831582BB2071F0CF010E94D20D023011
:1042A00048F44091F0045091F10420E0B601802FD1
:1042B0000E944626D701A054BB4FE1E0F0E0EC0F8E
:1042C000FD1FEE0DFF1D808191818D939C93182918
:1042D0008091CC048F5F8093CC049394E7CE0E94AE
:1042E0000F09F701319780838111D8CED6011C9236
:1042F00070E060E0D0CEA782A08660E8662E70E80D
:10430000572E8BCF7B2C98CF51874287ADCFDD24A2
:10431000D3940C944113E6B186B129B14CB133B1B9
:1043200053B186FB882780F98B8B1C8A8B899C89EB
:1043300064E0880F991F6A95E1F70E2E000CFF0BC1
:10434000EE27FF0FEE1FFF27A5E0EE0FFF1FAA9538
:10435000E1F7E82B55FB882780F9E82B822F220F05
:10436000990B8827990F881F992703E0880F991FB9
:104370000A95E1F7E82B46FB442740F9498F1A8E4E
:10438000898D9A8D880F991F880F991FE82B329578
:1043900031703B8F1C8E8B8D9C8D0C94C8130E94AA
:1043A000AB046093C4047093C5048093C6049093D7
:1043B000C7045FCAE090FE04F090FF040E94580812
:1043C0000E94820D10E000E062E070E080E090E08A
:1043D0000E9479044E990CC06CE271E080E090E09C
:1043E0000E9479040E9458080E94820D10E000E0AB
:1043F0000F5F1F4F003D37E0130731F76091FE0458
:104400007091FF046E157F05D1F46C960FB6F89489
:10441000DEBF0FBECDBFDF91CF911F910F91FF90F7
:10442000EF90DF90CF90BF90AF909F908F907F9054
:104430006F905F904F903F902F900C94820D90E082
:1044400080E00E94B22D80E596E00E940D0D8AE882
:1044500091E00E94BD0C88E19EE00FB6F894A8950B
:10446000809360000FBE90936000FFCFC901019759
:10447000F1F771110C94801549B18CB193B153B11E
:1044800086FBFF24F0F8FF0CFF0C842F881F882781
:10449000881F880F880F880FF80E55FB882780F932
:1044A000F80E94FB882780F9880FF80E71E0479A80
:1044B0000C946F153197F1F79F5F0C94B015C40100
:1044C0000197F1F799B14CB183B123B146FB442771
:1044D00040F9440F440F991F9927991F990F990F7D
:1044E000990F490F25FB992790F9490F8295817003
:1044F000880F480F133010F00C945516612F8D89DA
:104500009E890E9471031F5F0C942116C9010197B7
:10451000F1F771110C94BE1853B09FB18FB14FB128
:1045200051FA552450F8550C550C550C991F9927E4
:10453000991F990F990F590E45FB992790F9590E1C
:1045400086FB882780F9880F580E71E02E9A0C940C
:10455000AD183197F1F79F5F0C94EB18C4010197E8
:10456000F1F743B19FB18FB12FB146954170440F20
:10457000440F440F991F9927991F990F990F490FBD
:1045800025FB992790F9490F86FB882780F9880F2A
:10459000480F133010F00C948E19612F89899A8975
:1045A0000E9471031F5F0C945B196C960FB6F89410
:1045B000DEBF0FBECDBFDF91CF911F910F91FF9056
:1045C000EF90DF90CF90BF90AF909F908F907F90B3
:1045D0006F905F904F903F902F9008951F920F9291
:1045E0000FB60F9211242F933F938F939F93AF9306
:1045F000BF938091010590910205A0910305B091B0
:1046000004053091000523E0230F2D3758F501965E
:10461000A11DB11D20930005809301059093020513
:10462000A0930305B09304058091050590910605BC
:10463000A0910705B09108050196A11DB11D8093B9
:10464000050590930605A0930705B0930805BF9153
:10465000AF919F918F913F912F910F900FBE0F902F
:104660001F90189526E8230F0296A11DB11DD2CFE9
:104670001F920F920FB60F9211248F939F938091E8
:10468000E1009091E100937F9093E10083FF0FC0E0
:104690001092E90091E09093EB001092EC0092E30D
:1046A0009093ED0010920A0598E09093F00082FF3D
:1046B00022C093E09093E9009091F200992319F0C1
:1046C0009AE39093E8009091E604992341F0909149
:1046D000E60491509093E604911101C05D9A909187
:1046E0000905992341F0909109059150909309058E
:1046F000911101C0289A84FF18C08091E2008E7E3B
:1047000081608093E2008091E1008F7E8093E100E0
:104710008091E7048E7E80618093E7049F918F9162
:104720000F900FBE0F901F90189580FFF7CF8091CC
:10473000E2008E7E80618093E2008091E1008E7EB7
:104740008093E1008091E7048E7E8160E5CF1F9227
:104750000F920FB60F921124CF92DF92EF92FF9239
:104760000F931F932F933F934F935F936F937F9379
:104770008F939F93AF93BF93EF93FF93CF93DF9369
:10478000CDB7DEB76C97DEBFCDBF1092E900809148
:10479000E80083FF25C068E0CE0145960E9404062C
:1047A00082EF8093E8008D8987FF39C09091E800FF
:1047B00090FFFCCF982F907609F034C19E894F89E5
:1047C000588D2F89F88C911131C0803861F5809116
:1047D000E8048093F1001092F1008EEF8093E800DE
:1047E0006C960FB6F894DEBF0FBECDBFDF91CF91B0
:1047F000FF91EF91BF91AF919F918F917F916F91B9
:104800005F914F913F912F911F910F91FF90EF90EA
:10481000DF90CF900F900FBE0F901F9018959EEFD6
:104820009093E800C7CF1092F100D5CF913059F4A2
:104830008111D3CF4130510581F68091E8048D7FFD
:104840008093E804CACF933049F48111C6CF413038
:10485000510519F68091E8048260F2CF953041F459
:104860008091E80080FFFCCF20682093E300B5CF63
:10487000963009F0A9C00B8D1C8D22E01092E90042
:104880001092E4041092E304F2122EC01092E2049B
:104890001092E1040E9452061F8299E09983FA82E5
:1048A00091E09E8390EA98879AEF99872091E3049C
:1048B0003091E404275F3F4F3C832B838D8310921C
:1048C000E9001092E4041092E3041093E2040093D0
:1048D000E10449E050E0BE016F5F7F4F80E00E943D
:1048E00018050E94520679CF1093E2040093E10468
:1048F0000E943E06DC0112960D911C9101151105D6
:1049000009F451C1D801ED91FC910480F581E02DAD
:10491000BE016B5E7F4FC8010995009709F03EC14B
:10492000F80100851185EACFF3E0FF120EC08F89F0
:10493000882309F440C0823061F440E86CE080E3F1
:1049400092E00E94E504811148CF81E28093EB0060
:1049500047CF813029F440E867E088E292E0F1CF68
:10496000833099F70E943E06DC011296ED90FC9090
:104970008E010F5F1F4F6801E114F10479F0D70138
:10498000ED91FC910680F781E02DB801C7010995F2
:10499000080F111DF701E084F184EECFD8011C92BD
:1049A000F60101900020E9F73197BF016C197D09EC
:1049B00040E0C601C6CF62E172E0FB01449150E0E5
:1049C00080E80E94180509CF973009F4BECF9830CF
:1049D00021F481E08093F10000CF993009F0FDCE01
:1049E000837009F0B2CFE6E3F1E081E031E096E3D5
:1049F0002191222371F08093E9003093EB00DF01D5
:104A000011972C912093EC009093ED008F5F8730ED
:104A100079F78EE78093EA001092EA008F898093FD
:104A20000A05DBCE8B8D9C8D1092E9001092E40478
:104A30001092E3049093E2048093E104898D811144
:104A400092C08E899D89913A49F4813209F07DCFD7
:104A500047E050E06DE271E080E0B3CF913209F0C1
:104A600074CF833269F48F89988DB0E0A0E0809391
:104A7000260190932701A0932801B0932901ADCE80
:104A8000803269F48091E80082FFFCCF67E08DE21C
:104A900091E00E9404068BEF8093E8009ECE823264
:104AA00009F09BCE8F8980933401EEEFFFE785916B
:104AB00094918B3F9C4D51F1E0E0F8E080912D0105
:104AC00090912E01A0912F01B0913001803B944034
:104AD000A105B105F1F48091340180FD1AC0EE3FCB
:104AE0008AE0F80789F587E797E7918380838091CB
:104AF00060008093E50488E19BE00FB6F894A895E8
:104B0000809360000FBE9093600067CEEEEFFAE0F6
:104B1000D5CF808191818737974709F05ECEA895E0
:104B2000809160008861809360008091E5048093AB
:104B30006000EE3F2AE0F20789F08091FE0A909132
:104B4000FF0A9183808349CE8081918187379807BE
:104B500051F29093FF0A8093FE0AC5CF1092FF0A8C
:104B60001092FE0A3ACE0E943E06DC0112960D918A
:104B70001C910115110509F4E8CED801ED91FC91C5
:104B80000190F081E02DBE016B5E7F4FC801099559
:104B9000811123CEF80100851185EBCF1816190677
:104BA0000CF41BCED2CEF1E0FF12BECE66E172E075
:104BB00004CF1F93CF93DF93EC0180E888A789A7E8
:104BC0008AA78BA71CA6FE01BD968CE0DF011D9273
:104BD0008A95E9F71FA21EA21AAE1BAE1CAE1DAE2F
:104BE00015E0CE010E940F0961E070E080E090E0E6
:104BF0000E9479041150A9F7CE01DF91CF911F9146
:104C00000C940F09CF93DF93EC01849A8C9A229A2B
:104C10002A9A219A299A23982B982B9A0E948306E4
:104C2000CE01DF91CF910C94D925CF93DF93EC0186
:104C30003E9A469A229A2A9A219A299A23982B9840
:104C40002B9A0E948306CE01DF91CF910C94D92537
:104C50008F3489F0823079F0863181F0833181F0B0
:104C6000803E81F0813E81F021E090E08F3F09F4A9
:104C700020E0822F089584E090E0089585E0FCCF45
:104C800086E0FACF82E0F8CF83E0F6CF2F923F9212
:104C90004F925F926F927F928F929F92AF92BF924C
:104CA000CF92DF92EF92FF920F931F93CF93DF93F8
:104CB00000D000D0CDB7DEB7B82E1B012A01922E4E
:104CC0008091EA048E3009F463C082E192E09C8313
:104CD0008B83D12CFB013297FA83E9836B2C712CE7
:104CE000660C771CC30186559C4F3C01E981FA8113
:104CF000329770F08FEF8D0D823050F1F5E02F1666
:104D0000310431F4DD2021F188EF8D0D823000F186
:104D1000EB81FC81E080F180028113812481458157
:104D2000A68087804114510459F0F20184A195A115
:104D3000809590958E219F21CC24C394892B09F4D2
:104D4000C12C9F92F30160818B2D0E941C0D0F904E
:104D5000D3948B819C8108969C838B8390E1D9129C
:104D6000C5CF0F900F900F900F90DF91CF911F91B3
:104D70000F91FF90EF90DF90CF90BF90AF909F90FA
:104D80008F907F906F905F904F903F902F900895FD
:104D9000E2E9F2E0FA83E9838AEE682E82E0782E77
:104DA000EB2DF0E0EE0FFF1FE655FC4FD080E981C0
:104DB000FA81E080F1800281138124814581A680FF
:104DC00087804114510459F0F20184A195A1809586
:104DD00090958E219F21CC24C394892B09F4C12C5A
:104DE0009F926D2D8B2D0E941C0D89819A810896B2
:104DF0009A8389830F9068167906C9F6B2CFFF921D
:104E00000F931F93CF93DF93182FEB01E82FF0E060
:104E1000EE0FFF1FE655FC4FF08007E023E04181D5
:104E20006F2D80E596E00E94D80C47E06F2D80E55D
:104E300096E00E94780BC430D105D9F188F4C130D6
:104E4000D10531F186E191E0C230D10589F08BE7DF
:104E500091E0DF91CF911F910F91FF900C94BD0CC9
:104E6000C530D105A9F083E091E0C630D10579F7CE
:104E70000E94BD0C123000F521E050E040E0BE0180
:104E8000812FDF91CF911F910F91FF900C944626B7
:104E90008091EA048E3019F48FE291E0E9CF80919D
:104EA000EC04811103C080E291E0E2CF88E291E05E
:104EB000DFCF8AE091E0DCCFDF91CF911F910F919E
:104EC000FF9008955F926F927F928F929F92AF9220
:104ED000BF92CF92DF92EF92FF920F931F93CF93E7
:104EE000DF93B82EEB01E82FF0E0EE0FFF1FE65541
:104EF000FC4FD08007E023E041816D2D80E596E0F6
:104F00000E94D80C47E06D2D80E596E00E94780B5A
:104F1000C330D10509F453C0C0F48FEF90E0C23024
:104F2000D105D9F08BE791E0DF91CF911F910F91DF
:104F3000FF90EF90DF90CF90BF90AF909F908F90B9
:104F40007F906F905F900C94BD0CC430D105D1F16F
:104F500081EF90E0C530D10529F70E94BD0C82E0B9
:104F6000B816E9F08091E904882379F1CEEAD3E01C
:104F700099249394E880F9800A811B819F928F8005
:104F8000AE80CC24C3942C814D816D2D8B2D0E943D
:104F90001C0D28960F9084E0CE31D80759F7DF9189
:104FA000CF911F910F91FF90EF90DF90CF90BF9026
:104FB000AF909F908F907F906F905F9008958AEF51
:104FC00090E0CBCF86EF90E0C8CF8AE2682E83E0F6
:104FD000782E912C55245394C230D10549F487E0A2
:104FE0008915B8F083E0F301E05AFF4F891508F402
:104FF000F301E080F180028113815F928780A680B7
:10500000CC24C394248145816D2D8B2D0E941C0DD1
:105010000F90939488E0680E711C8CE09812DCCF9E
:10502000BECF2F923F924F925F926F927F928F925C
:105030009F92AF92BF92CF92DF92EF92FF920F9327
:105040001F93CF93DF93B82E2B011A01922ECCE938
:10505000D1E0D12C682E712C660C771CC3018655CB
:105060009C4F3C0192E049165104B1F4E8E0DE1295
:105070001AC0DF91CF911F910F91FF90EF90DF90B9
:10508000CF90BF90AF909F908F907F906F905F90E8
:105090004F903F902F900895F3E04F16510419F46C
:1050A0008CE0D816E9F0E880F9800A811B812C8118
:1050B0004D81AE808F8081E02114310449F0F101EF
:1050C000618172816E217F2181E0672B09F080E090
:1050D0009F92C82EF30160818B2D0E941C0D0F90B2
:1050E000D3942896FDE0DF12BDCFC3CFFF920F937C
:1050F0001F93CF93DF93182FEB01E82FF0E0EE0F13
:10510000FF1FE655FC4FF08007E023E041816F2D43
:1051100080E596E00E94D80C47E06F2D80E596E090
:105120000E94780BC430D10569F188F4C230D105F2
:1051300031F18DED90E0C330D10589F08BE791E03E
:10514000DF91CF911F910F91FF900C94BD0CC53052
:10515000D105D9F085EC90E0C630D10579F70E94F1
:10516000BD0C1230A9F021E050E040E0BE01812FDB
:10517000DF91CF911F910F91FF900C94112887EE32
:1051800090E0EDCF86ED90E0EACF8FEC90E0E7CFB6
:10519000DF91CF911F910F91FF900895DC01179639
:1051A0001C92179718961C9218971A961C921E928A
:1051B00019978AE5E2E4F1E01B9601900D928A9539
:1051C000E1F708951F93CF93DF93E2E1F5E01382B7
:1051D000128288EE93E0A0E0B0E084839583A683FA
:1051E000B7838AE494E0918380838FEF9FEF958764
:1051F0008487E0E5F6E01382128212861486138615
:10520000158681E086878CE594E0918380838BEE20
:1052100095E00E94CE2886E895E00E94CE28E7E738
:10522000F5E0138214828AE0ECE7F5E0DF01282F35
:105230001D922A95E9F7E8E6F5E013821482EDE67F
:10524000F5E0DF011D928A95E9F7E6E6F5E08EE7E5
:105250008083118282E490E00E94C62D12E4FC015A
:10526000212F11922A95E9F726E734E0DC012D93EE
:105270003C93C2E6D5E09983888382E490E00E9463
:10528000C62DFC0111921A95E9F72AE634E0DC01FB
:105290002D933C939B838A83DF91CF911F91089537
:1052A000789484B5826084BD84B5816084BD85B501
:1052B000826085BD85B5816085BD80916E0081600D
:1052C00080936E00109281008091810082608093B3
:1052D00081008091810081608093810080918000B5
:1052E0008160809380008091910082608093910022
:1052F0008091910081608093910080919000816005
:10530000809390008091C10084608093C10080915F
:10531000C10082608093C1008091C1008160809350
:10532000C1008091C30081608093C3008091C00060
:1053300082608093C0008091C20081608093C2002F
:1053400080917A00846080937A0080917A008260F4
:1053500080937A0080917A00816080937A008091B6
:105360007A00806880937A0010920A051092E8040F
:105370001092E7048091D70081608093D70080EA83
:105380008093D80089B5806189BD89B5826089BD67
:1053900009B400FEFDCF61E070E080E090E00E9483
:1053A00079048091D8008F7C80618093D8008091AF
:1053B000E000807F8093E0008091E1008E7E80930A
:1053C000E1008DE08093E200559A209A56985E9A0B
:1053D00090E080E00E94AA2D282F30E03093FF0457
:1053E0002093FE04853030F081E090E09093FF043C
:1053F0008093FE048091FE049091FF048230910519
:1054000009F48DC108F03AC0019709F4A7C01092C1
:1054100061068CE3809360061092B90084E4809367
:10542000BC008CE08093B800109254061092550690
:10543000EFE2F4E085919491782EE1E3F4E01491A9
:10544000E2E3F4E0E491E0935606E3E3F4E0E49170
:10545000E0935706E4E3F4E0E491E0935806C82FA4
:10546000D92F8C2F8719811708F0ADC2FE016491E6
:1054700080E596E00E94460B2196F3CF833091059C
:1054800009F4EFC1049709F0C2CF25982D982D9A01
:1054900024982C982C9A6E987698769A57985F98BC
:1054A0005F9A3E984698469A85988D988D9A8698E8
:1054B0008E988E9A87988F988F9A21982998299AF2
:1054C00023982B982B9A3F984798479A26982E987E
:1054D0002E9A82E080932C018EE090E00E94C62DEF
:1054E000EC011F92812CA12CC12CE12C00E022E0C8
:1054F00043E06DEA74E00E94F10DD093F304C09391
:10550000F2048EE090E00E94C62DEC011F9222E092
:1055100044E06DEA74E00E94F10DD093F504C0936D
:10552000F4040F900F9010E080912C01181708F0F0
:105530003FC2C12FD0E0CC0FDD1FCE50DB4F8881A2
:105540009981DC01ED91FC910190F081E02D0995AC
:10555000888199810E94D20D1F5FE6CF549A5C9A90
:1055600025982D982D9A24982C982C9A6E98769898
:10557000769A57985F985F9A3E984698469A3F98D1
:105580004798479A1092F305C6EFD5E0E0E56E2EF6
:10559000E6E07E2E0FEFEE24EA94FE2C10E808835E
:1055A0001E86FA82E9821B831C831D821E82CE0125
:1055B0000E94C90A2F966C167D0689F7229A2A9AAC
:1055C00085988D988D9A86988E988E9A87988F98C0
:1055D0008F9A21982998299A23982B982B9A269864
:1055E0002E982E9A10928E05C1E9D5E00FEF662411
:1055F0006A94762C10E808831E867A8269821B835F
:105600001C831D821E82CE010E94C90A2F9625E0AE
:10561000CB3ED20781F783E290E00197F1F780ED6E
:1056200097E02BE030E036990FC2F9013197F1F79E
:105630000197C9F78091F305811154C082E08093EE
:105640002C01C0E011E0D0912C01CD1708F04CC026
:105650008EE090E00E94C62D3C0143E04C0F1F936A
:1056600088248394A12CC12CEE24E39401E02D2FF7
:1056700067E974E00E94F10DEC2FF0E0EE0FFF1FE0
:10568000EE50FB4F71826082CF5F0F90DCCF2130F4
:1056900009F02AC2813009F027C24130510541F09A
:1056A00081E090E09093F5058093F4053F9A479A46
:1056B000E1E040E0F1E06BE070E04798342F3F27F5
:1056C00080ED97E026B126FB222720F9321319C27C
:1056D000DB011197F1F70197A9F7ACCFE82F41E073
:1056E000479AECCF86E0ABCFC0E080912C01C81781
:1056F00078F48C2F0E948E0AEC2FF0E0EE0FFF1F43
:10570000EE50FB4F808191810E94D20DCF5FEDCF93
:1057100062E370E080E090E00E94790478CE10921D
:105720007B05249A2C98259A2D9A6E987698769ACD
:1057300010926C05869A8E98859A8D9A87988F9884
:105740008F9A83E290E00197F1F782E080932C0139
:1057500082E390E090932B0180932A010E949202B1
:1057600070907A05C0E01AE0DFEF7C1669F1C11194
:105770000AC08CE795E00E94A20A21E0059709F093
:1057800020E02093E90481E090E0C11102C090E0A4
:1057900080E0189FF001199FF00D1124E958FA4F8D
:1057A000D58317821682118610860196189FD00124
:1057B000199FB00D1124A958BA4FDC931486138693
:1057C00016861586CF5FD1CFC0E0D0912C01CD17C2
:1057D00020F58EE090E00E94C62D3C0143E04C0F86
:1057E0008091E9046EE774E0811102C069E874E019
:1057F0001F92812CA12CC12CE12C00E02D2FC30184
:105800000E94F10DEC2FF0E0EE0FFF1FEE50FB4F6A
:1058100071826082CF5F0F90D8CFC0E080912C0161
:10582000C81778F48C2F0E948E0AEC2FF0E0EE0F50
:10583000FF1FEE50FB4F808191810E94D20DCF5F00
:10584000EDCF80912A0190912B018230910508F4CF
:10585000DECD880F991F880F991F05970197F1F7E3
:10586000D6CD849A3E9A8C9A469A80916205909100
:1058700063059093F1048093F004DC01ED91FC91B9
:105880000680F781E02D099530E020E08823F9F0CB
:1058900081E08093EE04E091F004F091F10426A100
:1058A00037A12730310519F48093ED0410C044A1CD
:1058B00055A1409550952530310561F58093EC0454
:1058C00055FF05C09091EB0489278093EB048091EC
:1058D000EC04811166C08091ED048823F1F010E0A2
:1058E00080912C01181708F05CC0C12FD0E0CC0FBC
:1058F000DD1FCE50DB4F88819981DC01ED91FC9159
:105900000190F081E02D0995888199810E94D20D46
:105910001F5FE6CF40FFDBCFC7CF2130310599F4C1
:10592000E091F004F091F10484A195A18095909507
:105930009C01207C3327203C310529F485FF03C0DE
:105940008EE08093EA0482E080932C018EE090E068
:105950000E94C62DEC011F92812CAA24A394CC2472
:10596000C394EE24E39401E022E043E061EA74E0B2
:105970000E94F10DD093F304C093F2048EE090E006
:105980000E94C62DEC011F9222E044E061EA74E01F
:105990000E94F10DD093F504C093F4040F900F9082
:1059A0009ECF84E690E090932B0180932A012FCD27
:1059B00082E390E090932B0180932A0165E070E0F0
:1059C00080E090E0A9CE80E596E00E940D0D61E8B0
:1059D00080E596E00E94460B61E080E596E00E943B
:1059E000460BE4E4F2E0F0935C06E0935B068491FE
:1059F000E5E4F2E0E491F82F319711F510925906A1
:105A000080E596E00E940D0DC1E0C0935E066EE158
:105A100080E596E00E945A0B82E080935E068DE35B
:105A200092E00E94BD0CC0935E060E94820DC0E011
:105A3000D0E00E94E1122097E1F30E940000F9CF2C
:105A400081E080935906DCCF39B18CB193B143B179
:105A500086FB222720F9220F220F832F881F8827F9
:105A6000881F880F880F880F280F45FB882780F92B
:105A7000280F94FB882780F9880F280F5C988BE00B
:105A800090E00197F1F749B19CB133B153B196FB66
:105A9000882780F9880F880F942F991F9927991FBD
:105AA000990F990F990F890F55FB992790F9890F35
:105AB00034FB992790F9990F890F4091F405509183
:105AC000F505233009F0E3CD8F3071F441305105F5
:105AD00041F081E090E09093F5058093F4053F9AC2
