:100000000C94EE010C9416020C9416020C94160239
:100010000C9416020C9416020C9416020C94160200
:100020000C9416020C9416020C94AF250C941E2608
:100030000C9416020C9416020C9416020C941602E0
:100040000C9416020C9416020C9416020C941602D0
:100050000C9416020C9416020C9416020C9465254E
:100060000C9416020C9416020C9416020C941602B0
:100070000C9416020C9416020C9416020C941602A0
:100080000C9416020C9416020C9416020C94160290
:100090000C9416020C9416020C9416020C94160280
:1000A0000C9416020C9416020C941602AED580A87D
:1000B0003FD300408D142002A1C8DA12817FD9F10C
:1000C000DB40A4A6AF5341542D574845454C00533F
:1000D00041542D33440053415455524E0047454E30
:1000E000455349532D360047454E455349532D330B
:1000F0000056424F59004E545400534E4553004E43
:100100004553004E4F4E45005043452D3600504359
:10011000452D320047454E45534953202B2053412E
:100120005455524E0050432D454E47494E45004EC2
:100130004553202B20534E4553004D554C54492DCB
:10014000544150004D554C54492D54415000524596
:10015000424F4F54494E472E2E2E004D554C544978
:100160002D5441500000030C0F30333C3FC0C3CC32
:10017000CFF0F3FCFF080B000202020000090400AC
:100180000001020200000524001001052401010104
:10019000042402060524060001070581031000401F
:1001A00009040100020A00000007050202400000E5
:1001B000070583024000000403090412010002EF56
:1001C000020140D0167E12000101020301556E6B40
:1001D0006E6F776E005265666C6578204164617061
:1001E00074005245464C4558000000050720610048
:1001F0000000000000005F000060707870606050D8
:1002000048506003070F07030305090503081C3E58
:100210007F7F081C22417F7F7F3E1C087F41221C7C
:1002200008082A1C2A0808083E0808005030000068
:100230000808080808006060000020100804023E5A
:100240005149453E00427F400042615149462141AB
:10025000454B311814127F1027454545393C4A4912
:10026000493001710905033649494936064949298A
:100270001E00363600003C7E7E7E3C3C4242423CC4
:100280001414141414F0F0F0F0F0F0909090F03298
:100290004979413E7E1111117E7F494949363E41DF
:1002A0004141227F4141221C7F494949417F09093F
:1002B00001013E414151327F0808087F00417F41E2
:1002C000002040413F017F081422417F40404040D0
:1002D0007F0204027F7F0408107F3E4141413E7F40
:1002E000090909063E4151215E7F091929464649FF
:1002F00049493101017F01013F4040403F1F2040FB
:10030000201F7F2018207F631408146303047804DF
:1003100003615149454300007F4141020408102018
:1003200041417F0000383C1E0F07404040404038AC
:100330002412090720545454787F484444383844E0
:10034000444420384444487F3854545418087E09A3
:100350000102081454543C7F0804047800447D4092
:10036000002040443D00007F10284400417F4000B1
:100370007C041804787C0804047838444444387CAD
:1003800014141408081414187C7C08040408485435
:10039000545420043F4440203C4040207C1C2040DA
:1003A000201C3C4030403C44281028440C50505005
:1003B0003C4464544C44E0E0E0E0E000007F000096
:1003C000E0A0A0A0E008082A1C08081C2A080800D1
:1003D00006090906AC0019804000882A11241FBEB6
:1003E000CFEFDAE0DEBFCDBF25E0ACE7B3E001C080
:1003F0001D92A13BB207E1F713E0A0E0B1E0E4E613
:10040000F0E602C005900D92AC37B107D9F711E0C4
:10041000CEEED1E004C02197FE010E94F02ECD3E29
:10042000D107C9F70E94D02A0C9430300C940000F8
:10043000FC01611109C081819281807F480F592F91
:10044000511D528341830895613051F4818192811D
:100450008F7020E1429FA0011124480F591FF1CF56
:10046000623039F481819281907F50E0542F44278B
:10047000F4CF633049F4818192819F7050E0542F12
:1004800044275295507FE9CF643011F44383089597
:10049000653011F444830895663011F4458308955E
:1004A000673009F446830895FC018091BB038823DB
:1004B00011F13FB7F89482E08093E9002091F200B7
:1004C000822F90E01816190614F481E090E088233A
:1004D00039F0289844E64093BA034091F1004083F4
:1004E000222339F02091F200211103C02BE6209342
:1004F000E8003FBF08958FEF9FEF0895CF93DF93FC
:100500001F92CDB7DEB76983DC01ED91FC910280CB
:10051000F381E02D41E050E0BE016F5F7F4F099510
:100520000F90DF91CF91089583E08093E90080914F
:10053000F200882319F08AE38093E8000895CF93AE
:10054000DF931F92CDB7DEB7FC018485958597FDBB
:1005500008C02FEF3FEF358724870F90DF91CF91B1
:100560000895CE0101960E945402019719F48981E1
:1005700090E0F3CF8FEF9FEFF0CF0F931F93CF93C8
:10058000DF931F92CDB7DEB78C01FC018485958582
:1005900097FF0BC0CE0101960E945402019771F49F
:1005A000898190E0F80195878487F8018485958595
:1005B0000F90DF91CF911F910F9108958FEF9FEFD3
:1005C000F1CFFC018485958597FD0BC09FB7F8940A
:1005D00082E08093E9008091F2009FBF90E0019655
:1005E00008959FB7F89482E08093E9008091F2002B
:1005F0009FBF90E008953FB7F8948091B603909123
:10060000B703A091B803B091B90326B5A89B05C064
:100610002F3F19F00196A11DB11D3FBFBA2FA92F81
:10062000982F8827BC01CD01620F711D811D911D7E
:1006300042E0660F771F881F991F4A95D1F70895EA
:100640008F929F92AF92BF92CF92DF92EF92FF92E2
:100650004B015C010E94FB026B017C010E94FB02CA
:100660006C197D098E099F09683E734081059105CB
:10067000A8F321E0821A9108A108B10888EEC80EFB
:1006800083E0D81EE11CF11C81149104A104B10483
:1006900029F7FF90EF90DF90CF90BF90AF909F90A1
:1006A0008F90089540919D0350919E0320919B034C
:1006B00030919C0342175307B4F49091E800957071
:1006C000E1F39091E80092FD19C08093F1008091D0
:1006D0009D0390919E0301968F739927892B19F49E
:1006E0008EEF8093E80080919D0390919E03019688
:1006F00090939E0380939D0381E0089580E0089588
:10070000EF92FF920F931F93CF93DF93F82E192F41
:10071000E62E042F81E0860F880F0E94520383E0AB
:100720000E945203CF2DD12FEC0EFD2EF11CCE15C1
:10073000DF05B9F007FF13C0FE0184910E94520348
:10074000182F80E00E945203812321968111EFCF60
:10075000DF91CF911F910F91FF90EF9008958881C5
:10076000EDCF81E0F5CFDF92EF92FF920F931F93D1
:10077000CF93DF93D82E8A01EB017B01E40EF51EA7
:10078000CE15DF0559F0D7FE12C0FE0184910E94FC
:10079000520321968111F4CF0FEF1FEFC801DF91B3
:1007A000CF911F910F91FF90EF90DF900895888176
:1007B000EECF2FB7F89487708093E9009091E8000E
:1007C000892F807295FF04C09091F20080E4891B0C
:1007D0002FBF089583E00E94D90390E008957F928F
:1007E0008F929F92AF92BF92CF92DF92EF92FF9241
:1007F0000F931F93CF93DF93C82E8B017A018091C3
:10080000BB03811110C08FEF9FEFDF91CF911F913C
:100810000F91FF90EF90DF90CF90BF90AF909F909F
:100820008F907F9008958091A10380FF05C08091F3
:10083000E00082608093E000CE2DDF2DD12C8AEF86
:10084000B82E8C2D8770982E8C2D8072882E8C2D32
:100850008074782E9AE3A92E209719F4DD2009F4EC
:1008600052C08C2D0E94D90381110AC0BA94BB20BA
:1008700051F261E070E080E090E00E942003ECCF54
:100880008C171D0611F00CF08C2F9FB7F8949092E6
:10089000E9002091E80025FD02C09FBFDDCF282F91
:1008A00030E0C21BD30B882029F08150A0F01092B9
:1008B000F100FBCFF801C7FC0AC0815050F0419114
:1008C0004093F100FACF44914093F100319681506A
:1008D000D0F7020F131FDD2021F0A092E800D12CE9
:1008E000DCCF8091E80085FD07C0A092E800DD2400
:1008F000D394209791F2F3CF209779F6772069F27D
:10090000A092E800CACF5D9884E68093A003C70157
:100910007CCFCF93DF93EC0180913601882331F0B7
:1009200083E00E94EF031816190634F081E090E08E
:100930009B838A8380E090E0DF91CF91089561509E
:1009400030F02091F100FC0120830196F8CF289827
:1009500084E68093BA030895AF92BF92CF92DF925C
:10096000EF92FF920F931F93CF93DF936C017B0164
:100970008B01040F151FEB015E01AE18BF08C017F5
:10098000D10759F06991D601ED91FC910190F08168
:10099000E02DC6010995892B79F7C501DF91CF912B
:1009A0001F910F91FF90EF90DF90CF90BF90AF908D
:1009B00008958091930381110DC082E080938F038D
:1009C00084E080939003109292031092910381E04F
:1009D000809393038FE893E008950F931F93CF9331
:1009E000DF931F92CDB7DEB782E0898342E450E007
:1009F00065E771E080E80E94B3030E94D904DC013E
:100A000012960D911C910115110589F0D801ED91F7
:100A1000FC910280F381E02DBE016F5F7F4FC80122
:100A2000099597FD04C0F80100851185ECCF8981F7
:100A30000F90DF91CF911F910F910895CF93DF9386
:100A4000EC018A85882329F081508A87DF91CF9134
:100A500008959C818E819817C8F78D856827E88155
:100A6000F9810084F185E02D42E0CE0109958C8169
:100A70008F5F8C83EBCFFC018FE086838FE78783CA
:100A800080871186128613860895DC01FB01129679
:100A90002C911297848195812817190641F4918130
:100AA0008081813A31F49D7F81E0913009F080E0CE
:100AB00008958132E1F79B3029F482811F968C934F
:100AC00081E008959A3099F7828150968C93F8CFFF
:100AD000EF92FF920F931F93CF93DF93FB0120813F
:100AE000213889F52381223271F5DC0112964C916F
:100AF000248135814217130631F58C01FC01C38531
:100B0000D485F12CE12C209791F04C815D816A8194
:100B10007B818E81811180E80E94B3038F3F98070B
:100B200059F0E80EF91E0990D881C02DECCF81E074
:100B3000D8011F968C93C701DF91CF911F910F9120
:100B4000FF90EF90089590E080E0F6CFCF93DF9391
:100B5000CDB7DEB769970FB6F894DEBF0FBECDBF35
:100B6000FC01DB018C918F5F8C939E012D5F3F4FC9
:100B70008DE0D9011D928A95E9F729E0298384E067
:100B80008A8391E09D8383E08E832A8721E22B87ED
:100B90009C879D879F8722E2288B27E02B8B25E06F
:100BA0002C8B8E8B20E430E0388F2F8B998F8281B5
:100BB0008B8395858685998B8A8B838180688D8BC5
:100BC00049E150E0BE016F5F7F4F80E00E94B303B8
:100BD00069960FB6F894DEBF0FBECDBFDF91CF91FF
:100BE000089523B14FB13FB15FB126952170220F17
:100BF000220F220F441F4427441F440F440F240F89
:100C000055FB442740F9240F36FB332730F9330FC7
:100C1000230F019721F01B9920611E992062822FDA
:100C2000089559B13CB143B163B136FB222720F995
:100C3000220F220F352F331F3327331F330F330F6C
:100C4000330F230F65FB332730F9230F44FB332782
:100C500030F9330F230F019721F03699206137992E
:100C60002062822F0895469A5C9883E090E0FC0110
:100C70003197F1F75C9AFC013197F1F75C98019795
:100C8000F1F7089584E98093BC0085E69091BC005B
:100C900094FF03C08150D1F7089581E008958091B9
:100CA000AF039091B0030196843091052CF490939A
:100CB000B0038093AF03089581E090E0F8CF909166
:100CC0002E01891778F4E82FF0E0EE0FFF1FED55A5
:100CD000FC4F80819181DC01ED91FC910190F081CC
:100CE000E02D09940895FC019081911107C0838142
:100CF00094810196B1F090E080E008959F3051F426
:100D0000228130E02F7033272F30310581F482E0CB
:100D100090E00895923041F0943049F485E090E0FD
:100D2000089583E090E0089584E090E0089581E0E4
:100D300090E00895FC018081878381819281918771
:100D40008087838182878481838785818487868168
:100D500085870895FC016093BC002FEF3FEF8091E1
:100D6000BC0087FF06C09091B900987F908381E016
:100D700008952150310999F780E00895CF93DF93CA
:100D8000EC016093BB0064E80E94AA06882329F066
:100D900081E09881983209F080E0DF91CF91089549
:100DA000DF92EF92FF920F931F93CF93DF93EC01AB
:100DB000D62EF42E8989882329F0411103C00E9480
:100DC0004206198A8E01015F1F4F8989811119C05E
:100DD000E88864EAC8010E94AA06882361F08F852A
:100DE000883011F0803139F4EE0CE092BB0064E8F9
:100DF000C8010E94AA0660E0F11060E4C8010E94E8
:100E0000BE066D2DC8010E94BE0682E0F8120BC01E
:100E100089898F5F898BDF91CF911F910F91FF900F
:100E2000EF90DF9008950E944206198AF4CFDC010A
:100E3000ED91FC910084F185E02D40E00994FC01E6
:100E40002781269526952695621720F46583606B89
:100E50000C94170708950F931F93CF93FC012681DD
:100E6000621798F4C62F8C0164836085C60F6C2FBF
:100E70006F700E9417076C2F62956F706061C801D8
:100E8000CF911F910F910C941707CF911F910F9144
:100E900008951F93CF93DF93EC01142F0E942B072B
:100EA000612FCE01DF91CF911F910C941F072F92DC
:100EB0003F924F925F926F927F928F929F92AF92EA
:100EC000BF92CF92DF92EF92FF920F931F93CF9337
:100ED000DF9300D000D000D0CDB7DEB7FC01238572
:100EE00034852115310509F416C19E838D83F901DE
:100EF0003296649031964491E42EF12CF7E0EF0E97
:100F0000F11C53E0F594E7945A95E1F7E982F90171
:100F1000349654913196E4916D30F1F460E00E9482
:100F20002B0781E090E026960FB6F894DEBF0FBE47
:100F3000CDBFDF91CF911F910F91FF90EF90DF9088
:100F4000CF90BF90AF909F908F907F906F905F9069
:100F50004F903F902F9008956A3081F460E08D812A
:100F60009E810E942B07ED81FE81868565818E9D85
:100F7000600D1124CF010E941F07D3CF651708F41D
:100F8000CAC08E2F90E0FC01E50FF11D6E171F0601
:100F90000CF0C1C089010A5F1F4F651BED81FE8106
:100FA00071855685759F502D11245C83F9015491EC
:100FB0002F5F3F4FF9012491352F2230310508F082
:100FC0006AC06E9CC0016F9C900D1124689FF00157
:100FD000699FF00D11240E0F1F1F512CED81FE8112
:100FE000F481FA83ED81FE812580F285FB83862CD6
:100FF000912CAA24A394B12C312C8981381608F0A5
:1010000086C0412CED81FE818685481608F078C0A7
:101010008B818287311002C0442041F0ED81FE8136
:1010200045814F5F6A81CF010E944907D12CC12CB5
:10103000C61408F058C0F801EC0DFD1D7490552041
:1010400061F0EA14FB0449F4E72DF0E0052C02C03E
:10105000F595E7950A94E2F77E2EED81FE8186856F
:10106000823081F4442009F43AC072948FE07822EF
:10107000E72DF0E0EB59FE4F7490672D8D819E8136
:101080000E941E05672D8D819E810E941E058FEF97
:10109000C81AD80ACDCF477028E0522E541A4111F1
:1010A00001C0512CF801612C30E020E0661631F0CF
:1010B0004491240F311D63943196F8CF600E712E48
:1010C000711CF3016490E29EF001E39EF00DF29E2C
:1010D000F00D11248E0F9F1F080F191F7FCFF72DC2
:1010E000FF707F2EC5CFD12CEC81DE1639F060E089
:1010F0008D819E810E941E05D394F6CF439482CFAA
:101100003394080D191DFFEFAF1ABF0A76CF622D79
:101110008D819E8130CF90E080E005CF0F931F93AB
:10112000CF93DF938C01D0E0C0E0F801EC0FFD1FFE
:101130006491662341F08BE995E00E945707892B63
:1011400011F02196F2CFCE01DF91CF911F910F9137
:101150000895CF92DF92EF92FF920F931F93CF9358
:10116000DF93EC01F62EC42ED22E1A868F8186953F
:1011700086958695081710F00FEF080F1D2D0117A3
:1011800080F0412F6F2DCE010E944907EF2CCE1425
:1011900030F06D85CE010E941E05E394F8CF1F5FED
:1011A000EECF4D2D6F2DCE01DF91CF911F910F917D
:1011B000FF90EF90DF90CF900C9449070F93FC01C4
:1011C000078106950695069501504681415020E01D
:1011D00060E00E94A9080F9108954F925F926F926C
:1011E0007F928F92AF92CF92EF92FF920F931F93C5
:1011F000CF93DF93CDB7DEB72701380194E0899F05
:1012000080011124F801E458FC4F80819181A28172
:10121000B3818E219521A621B72131E0892B8A2B1C
:101220008B2B09F430E03C1103C08889882301F13D
:10123000C11001C0A82C2D5F640F422F8BE995E0EF
:101240000E9449076A2D8BE995E00E945707F80133
:10125000E458FC4FCC20D1F080819181A281B381F0
:1012600084299529A629B72980839183A283B383F2
:10127000DF91CF911F910F91FF90EF90CF90AF90A2
:101280008F907F906F905F904F900895409450940E
:101290006094709480819181A281B3818421952191
:1012A000A621B721E1CF0F9307E022E04FE760E0EE
:1012B0008BE995E00E94A9088091AF039091B0035B
:1012C0008230910579F083309105A1F00197D1F436
:1012D0006CE08BE995E00E942B0784E191E00F918F
:1012E0000C948E0864E28BE995E00E942B078FE254
:1012F00091E0F5CF64E28BE995E00E942B0785E24F
:1013000091E0EDCF0F910895809300016EEA811175
:101310006FEA8BE995E00E9417072FB7F894809148
:10132000B2039091B303A091B403B091B5032FBF62
:101330008093840390938503A0938603B0938703DF
:101340000895FC01448550E0A585B0E0AA0FBB1FBD
:10135000A254BC4F0D90BC91A02D13968C9180642B
:101360009091C203BF01992321F06E5F7F4F0C94CF
:10137000EF036D5F7F4FFBCF089590E080E008950D
:101380002F923F924F925F926F927F928F929F9295
:10139000AF92CF92DF92EF92FF920F931F93CF9372
:1013A000DF93CDB7DEB7C456D1090FB6F894DEBFD0
:1013B0000FBECDBF3C012B01D42EF22E82E393E071
:1013C000D3018D939C93822F90E0019695958795FC
:1013D0009091BC03981750F09091BD0311E0222426
:1013E0002394312C981728F012E075C010E0312CAE
:1013F000212CF101E454FC4F81E0890F808391118D
:101400006AC083E190E00E94F62E4C0181E0F40175
:10141000848385839401265F3F4F3783268311861B
:10142000108626E233E031832083148613861686E5
:1014300015868787808B528A418A81EC82870E9439
:10144000D904FC018181D40114965C91682F650F49
:101450007727771F68307105BCF5A281B38110979B
:1014600039F5938282829081D40112969C931297CF
:1014700013968C93139715968C91890F808390E027
:1014800080E0851708F54181A42FB0E0BD01695CBB
:101490007E4FD40116962D913C91280F391FD9010A
:1014A0002C91DB012C934F5F41830196EACFD90148
:1014B00018962D913C91199721153105C1F7199670
:1014C0009C928E921897CFCFF101EE0FFF1FE2543E
:1014D000FC4F91828082F301158781E08F1508F01F
:1014E00080E08093C20388E393E0D30111969C933C
:1014F0008E931296DC921297602F6E0D5C2D5A0D12
:10150000862F850F95E0980F1C969C9325E02983E4
:1015100091E09A8339E03B832C8321EA2D839E83DB
:101520009F1508F0C2C385E88F83D88698E0E1E074
:10153000F0E0EC0FFD1FE90FF11D85E08083E1E095
:10154000E90F88248394912C8C0E9D1E8E0E911C85
:10155000F40139E03083E2E0E90FA1E0B0E0AC0F44
:10156000BD1FAE0FB11DFD0129E12083E3E0E90FAE
:1015700088248394912C8C0E9D1E8E0E911CF40158
:1015800021E02083E4E0E90FA1E0B0E0AC0FBD1F53
:10159000AE0FB11DFD0149E24083E5E0E90F88246B
:1015A0008394912C8C0E9D1E8E0E911CF40178E17B
:1015B000F72EF082A6E0A90FE1E0F0E0EC0FFD1FAE
:1015C000EA0FF11DDF01F5E1FC93A7E0A90F8824E4
:1015D0008394912C8C0E9D1E8A0E911CD4011C921A
:1015E000A8E0A90F88248394912C8C0E9D1E8A0E4E
:1015F000911CD40145E24C93A9E0A90F882483945F
:10160000912C8C0E9D1E8A0E911CD4012C93AAE065
:10161000A90F88248394912C8C0E9D1E8A0E911CF8
:10162000D401E5E7EC93ABE0A90F88248394912CD7
:101630008C0E9D1E8A0E911CD4012C93ACE0A90F38
:1016400088248394912C8C0E9D1E8A0E911CD401AB
:1016500075E97C93ADE0A90F88248394912C8C0EBE
:101660009D1E8A0E911CD401FC92AEE0A90F882425
:101670008394912C8C0E9D1E8A0E911CD4010F2EEA
:10168000F1E8FF2EF02DFC92AFE0A90F882483949F
:10169000912C8C0E9D1E8A0E911CD4016894DD2421
:1016A000D1F8DC92A0E1A90F88248394912C8C0EB0
:1016B0009D1E8A0E911CD4018C93A1E1A90F882450
:1016C0008394912C8C0E9D1E8A0E911CD4012C9318
:1016D000A2E1A90F88248394912C8C0E9D1E8A0E62
:1016E000911CD4013C93A3E1A90F88248394912CED
:1016F0008C0E9D1E8A0E911CD40189E38C93A4E16B
:10170000A90F88248394912C8C0E9D1E8A0E911C07
:10171000D401FC93A5E1A90F88248394912C8C0E0D
:101720009D1E8A0E911CD4011C92A6E1A90F88244B
:101730008394912C8C0E9D1E8A0E911CD4014C9387
:10174000A7E1A90F88248394912C8C0E9D1E8A0EEC
:10175000911CD40187E08C93A8E1A90F882483947D
:10176000912C8C0E9D1E8A0E911CD40185E38C93C6
:10177000A9E1A90F88248394912C8C0E9D1E8A0EBA
:10178000911CD4011C92AAE1A90F88248394912C66
:101790008C0E9D1E8A0E911CD40186E48C93ABE1C5
:1017A000A90F88248394912C8C0E9D1E8A0E911C67
:1017B000D4018BE38C93ACE1A90F88248394912C02
:1017C0008C0E9D1E8A0E911CD4012C93ADE1A90FA5
:1017D00088248394912C8C0E9D1E8A0E911CD4011A
:1017E00085E68C93AEE1A90F88248394912C8C0E0E
:1017F0009D1E8A0E911CD40184E18C93AFE1A90F48
:1018000088248394912C8C0E9D1E8A0E911CD401E9
:10181000EC93A0E2A90F88248394912C8C0E9D1E3A
:101820008A0E911CD40188E08C93A1E2A90F882430
:101830008394912C8C0E9D1E8A0E911CD4017C9356
:10184000A2E2A90F88248394912C8C0E9D1E8A0EEF
:10185000911CD4012C93A3E2A90F88248394912C8A
:101860008C0E9D1E8A0E911CD401FC92490FA4E29D
:10187000A90F88248394912C8C0E9D1E8A0E911C96
:10188000D401DC92662309F4D8C0A1E0B0E0AC0F2B
:10189000BD1FA40FB11D3C93A6E2A90F8824839419
:1018A000912C8C0E9D1E8A0E911CD4012C93A7E2C4
:1018B000A90F88248394912C8C0E9D1E8A0E911C56
:1018C000D401FC93A8E2A90F88248394912C8C0E58
:1018D0009D1E8A0E911CD4011C92A9E2A90F882496
:1018E0008394912C8C0E9D1E8A0E911CD40126E2AD
:1018F0002C93AAE2A90F88248394912C8C0E9D1E10
:101900008A0E911CD4012FEF2C93ABE2A90F8824EF
:101910008394912C8C0E9D1E8A0E911CD4011C92D6
:10192000ACE2A90F88248394912C8C0E9D1E8A0E04
:10193000911CD401EC93EDE2E90FA1E0B0E0AC0F13
:10194000BD1FAE0FB11DFD018083EEE2E90F8824BB
:101950008394912C8C0E9D1E8E0E911CF40170832D
:10196000EFE2E90FA1E0B0E0AC0FBD1FAE0FB11D7B
:10197000FD016083E0E3E90F88248394912C8C0EB1
:101980009D1E8E0E911CF40181EA808382E3890FF3
:10199000E1E3E90F61E070E06C0F7D1F6E0F711DD8
:1019A000FB011082002391F0E1E0F0E0EC0FFD1F5D
:1019B000E80FF11D308384E3890F9D5CE1E0F0E0E6
:1019C000EC0FFD1FE90FF11D90E39083EE20A1F0D5
:1019D000E1E0F0E0EC0FFD1FE80FF11D99E09083CE
:1019E000E1E0E80FA1E0B0E0AC0FBD1FAE0FB11D0C
:1019F000FD0191E390838E5FE1E0F0E0EC0FFD1FCD
:101A0000E80FF11D91E89083E1E0E80F88248394CA
:101A1000912C8C0E9D1E8E0E911CF40192E09083F1
:101A200043E0480FE2E0E80F21E030E02C0F3D1FDB
:101A30002E0F311DF90180EC8083552309F4DAC0A3
:101A400085E0E1E0F0E0EC0FFD1FE40FF11D808385
:101A5000E1E0E40F61E070E06C0F7D1F6E0F711D1F
:101A6000FB0182E08083E2E0E40F81E090E08C0FF4
:101A70009D1F8E0F911DFC0185E18083E3E0E40F43
:101A8000A1E0B0E0AC0FBD1FAE0FB11DFD01108293
:101A9000E4E0E40F88248394912C8C0E9D1E8E0E1E
:101AA000911CF40186E28083E5E0E40F21E030E060
:101AB0002C0F3D1F2E0F311DF9018FEF8083E6E0C3
:101AC000E40F61E070E06C0F7D1F6E0F711DFB0174
:101AD0001082E7E0E40F81E090E08C0F9D1F8E0FF5
:101AE000911DFC0185E78083E8E0E40FA1E0B0E010
:101AF000AC0FBD1FAE0FB11DFD0188E08083E9E092
:101B0000E40F88248394912C8C0E9D1E8E0E911CC4
:101B1000F40185E98083EAE0E40F21E030E02C0F56
:101B20003D1F2E0F311DF9015083EBE0E40F61E002
:101B300070E06C0F7D1F6E0F711DFB0181EA8083C9
:101B4000EDE0E40FACE0A40F81E090E08C0F9D1F6E
:101B50008A0F911DDC011C92CC20B9F0A1E0B0E00D
:101B6000AC0FBD1FAE0FB11DFD0189E08083EFE01A
:101B7000E40FAEE0A40F88248394912C8C0E9D1E5C
:101B80008A0E911CD4018BEB8C93AA20A1F0A1E0CA
:101B9000B0E0AC0FBD1FAE0FB11D89E08C93A1E08A
:101BA000AE0F21E030E02C0F3D1F2A0F311DD9016F
:101BB00085EC8C93EE5FA1E0B0E0AC0FBD1FAE0FE3
:101BC000B11D81E88C93A1E0AE0F61E070E06C0F75
:101BD0007D1F6A0F711DDB0182E08C9343E04E0F85
:101BE000EE5F81E090E08C0F9D1F8E0F911DFC0138
:101BF00080EC8083E1E0F0E0EC0FFD1FE40FF11DCD
:101C000080EC8083A1E0A40FEA2EF12CC7010E9492
:101C1000F62E6C01A701BE016F5F7F4F0E9420303E
:101C200087E090E00E94F62EDC0111961C921E9235
:101C30001396DC92CE9212971596FC92EE92149720
:101C400016961C921697E12FF0E0EE0FFF1FE2545C
:101C5000FC4F40815181FA0183859485009759F5A5
:101C6000B487A387FA018585968514962D913C91BA
:101C7000820F931F96878587CC59DF4F0FB6F89454
:101C8000DEBF0FBECDBFDF91CF911F910F91FF90AF
:101C9000EF90DF90CF90AF909F908F907F906F905C
:101CA0005F904F903F902F9008958C5FF301848751
:101CB00096E03DCCC901FC0120813181211531051F
:101CC000C9F7B183A083CECF2F923F924F926F92EC
:101CD0007F928F929F92AF92BF92CF92DF92EF92BC
:101CE000FF920F931F93CF93DF9300D000D0CDB717
:101CF000DEB770E0F1E04BE050E04798672F6F27C8
:101D000080ED97E036B136FB332730F9631330C1ED
:101D1000DA011197F1F70197A9F70F900F900F9043
:101D20000F90DF91CF911F910F91FF90EF90DF9077
:101D3000CF90BF90AF909F908F907F906F904F907B
:101D40003F902F90089569B19CB133B1E3B196FBF8
:101D5000882780F9880F880F962F991F9927991F38
:101D6000990F990F990F890FE5FB992790F9890F22
:101D700034FB992790F9990F890F713009F016C13A
:101D8000243091F4813081F486E080933E054798B9
:101D900080ED97E02BE030E0369B0BC1F9013197E5
:101DA000F1F70197C9F7B9CF282E220C211120C0D5
:101DB000823029F190E080E051E06BE070E029167C
:101DC00009F4ABCF882309F487C0479A8527A82F49
:101DD000A17020ED37E046B146FB442740F9FB01F6
:101DE000A4132DC13197F1F721503109A1F795CFF7
:101DF000213009F064C0863011F08330D9F660914B
:101E00003D0591E0960F90933D05673008F066E040
:101E1000462F50E09FE0699FB0011124FB01EF5B6A
:101E2000FA4FFA83E9836A5C7A4F2E3009F056C084
:101E3000815090EE8927FB01838710E0312C412CE3
:101E40009BE0692E712C8FE0849F4001859F900C50
:101E5000112494012A5C3A4F4901790131E1E30EE2
:101E6000F11C640190E1C90ED11C4F5F5F4F849F4C
:101E7000F001859FF00D1124EA5CFA4FFC83EB839F
:101E80005401FEE0AF0EB11C2CE0820E911C211615
:101E900009F443CF332041F1479A81E03826332DAE
:101EA000317080ED97E026B126FB222720F932130E
:101EB000CAC0F3013197F1F70197A9F72ECF2E3061
:101EC00021F4833008F49BCF75CF2F3009F072CF07
:101ED0008F3009F06FCF21CF479878CFF0E12F9F57
:101EE000900111248227A7CF4798D7CF133079F4D8
:101EF000F401208131813F70487050E0542F442715
:101F00005295507F420F531F51834083C0C01430FD
:101F100069F1153041F4F0E14F9EC0011124482BC6
:101F2000F5014083B4C0163009F1173041F4F0E1F7
:101F30004F9EC0011124482BEB81FC81F2CF183059
:101F4000A9F0193039F4F0E14F9EC0011124482B5B
:101F5000F601E7CF1A3051F01B3009F098C0F0E1DC
:101F60004F9EC0011124482BF701DBCF442E8FC0B8
:101F7000CA010197F1F77111E6CE39B19CB183B175
:101F800063B196FB222720F9220F220F932F991F6E
:101F90009927991F990F990F990F290F65FB992779
:101FA00090F9290F82958170880F280F71E0479A68
:101FB000A5CE8BE090E00197F1F7479A80ED97E08E
:101FC0002BE030E0369906C0F9013197F1F701971F
:101FD000C9F7A3CE8BE090E00197F1F7F6E0F98323
:101FE0000BE010E00E94640EC8010197F1F729810F
:101FF000215029832111F6CF479880ED97E02BE0FF
:1020000030E0369B06C0F9013197F1F70197C9F727
:1020100084CE8BE090E00197F1F7479A80ED97E04E
:102020002BE030E0369906C0F9013197F1F70197BE
:10203000C9F773CE8BE090E00197F1F76ECE319740
:10204000F1F79F5FBCCE83E090E00197F1F799B183
:102050004CB183B123B146FB442740F9440F440FF0
:10206000991F9927991F990F990F990F490F25FBD0
:10207000992790F9490F82958170880F480F133086
:1020800008F034CF612F89819A810E9418021F5F66
:10209000FECE2F923F924F926F927F928F929F929D
:1020A000AF92BF92CF92DF92EF92FF920F931F9366
:1020B000CF93DF9300D000D0CDB7DEB760E0E1E092
:1020C0004BE050E02E98762F7E2720ED37E083B14D
:1020D00083FB882780F9DA0178132DC11197F1F776
:1020E00021503109A1F70F900F900F900F90DF91C1
:1020F000CF911F910F91FF90EF90DF90CF90BF9005
:10210000AF909F908F907F906F904F903F902F90C7
:10211000089583B13FB12FB17FB186958170880F4B
:10212000880F880F331F3327331F330F330F830F6D
:1021300075FB332730F9830F26FB222720F9220F66
:10214000820F613009F013C1943091F4813081F431
:1021500086E08093D9042E9880ED97E02BE030E064
:102160001B9B08C1F9013197F1F70197C9F7BBCF64
:10217000282E220C91111FC0823051F180E051E0D5
:102180006BE070E0291609F4AECF882309F487C00C
:102190002E9A8527A82FA17020ED37E043B143FB8D
:1021A000442740F9FB01A4132BC13197F1F72150CB
:1021B0003109A1F798CF913031F4863049F083305E
:1021C00039F090E0DBCF9E3009F062C08330C8F771
:1021D0004091D80421E0240F2093D804473008F020
:1021E00046E0242F30E06FE0469FA0011124FA0161
:1021F000E452FB4FFA83E9834F525B4F9E3009F064
:1022000050C0815090EE8927FA01838710E0312C6D
:10221000412C9BE0692E712C8FE0829F4001839FAF
:10222000900C1124A4014F525B4F4A017A0151E1F5
:10223000E50EF11C640190E1C90ED11C2F5F3F4FE8
:10224000829FF001839FF00D1124EF52FB4FFC831E
:10225000EB835401FEE0AF0EB11C2CE0820E911C0A
:10226000211609F440CF332011F12E9A81E038264F
:10227000332D317080ED97E023B123FB222720F925
:102280003213C2C0F3013197F1F70197A9F72BCFB1
:102290009F3009F096CF8F3009F093CF24CF2E983E
:1022A00078CFF0E19F9FB00111248627ADCF2E9803
:1022B000DDCF133079F4F401208131813F70487013
:1022C00050E0542F44275295507F420F531F5183A3
:1022D0004083BEC0143069F1153041F4F0E14F9EE7
:1022E000C0011124482BF5014083B2C0163009F11A
:1022F000173041F4F0E14F9EC0011124482BEB81CF
:10230000FC81F2CF1830A9F0193039F4F0E14F9E7A
:10231000C0011124482BF601E7CF1A3051F01B30D1
:1023200009F096C0F0E14F9EC0011124482BF7013F
:10233000DBCF442E8DC01197F1F76111EACE93B136
:102340002FB18FB13FB196959170990F990F990F59
:10235000221F2227221F220F220F920F35FB222736
:1023600020F9920F86FB882780F9880F980F61E08B
:102370002E9AA9CE8BE090E00197F1F72E9A80ED8E
:1023800097E02BE030E01B9906C0F9013197F1F797
:102390000197C9F7A8CE8BE090E00197F1F7F6E03E
:1023A000F9830BE010E00E944910C8010197F1F792
:1023B0002981215029832111F6CF2E9880ED97E0B5
:1023C0002BE030E01B9B06C0F9013197F1F7019734
:1023D000C9F789CE8BE090E00197F1F72E9A80ED56
:1023E00097E02BE030E01B9906C0F9013197F1F737
:1023F0000197C9F778CE8BE090E00197F1F773CEA3
:102400003197F1F79F5FBECE83E090E00197F1F73F
:1024100043B19FB18FB12FB146954170440F440F26
:10242000440F991F9927991F990F990F490F25FB61
:10243000992790F9490F86FB882780F9880F480F64
:10244000133008F036CF612F89819A810E941802DB
:102450001F5F06CF0E941B30CF93DF93FC012085C6
:10246000318580E0232B69F4EB0161897289CE010B
:102470000E942930FE0101900020E9F731978E2F4C
:102480008C1BDF91CF9108952F923F924F925F92D4
:102490006F927F928F929F92AF92BF92CF92DF9274
:1024A000EF92FF920F931F93CF93DF93CDB7DEB7D9
:1024B0006A970FB6F894DEBF0FBECDBF0E94FB0235
:1024C00080908B0390908C03A0908D03B0908E032E
:1024D000AB01BC01481959096A097B0980912C019B
:1024E00090912D01B0E0A0E0481759076A077B07DB
:1024F00008F446C68091AF039091B00382309105F5
:1025000009F48BC68330910511F40C94801FA12C23
:10251000019709F021C69E012F5F3F4F49018CE0D2
:10252000D9011D928A95E9F780912701882381F0CE
:102530001092270180912E01833050F045E06EE12A
:102540008BE995E00E9449078BE591E00E948E0897
:1025500081E495E00E949A0680E595E00E949A0643
:102560008FE595E00E949A068EE695E00E949A0615
:102570008DE795E00E949A068CE895E00E949A0605
:1025800050903D0510923D0510923E055C9ABBE0CF
:10259000EB2EF12CC7010197F1F780913F05909147
:1025A00040050E941106182F5C98C7010197F1F7AA
:1025B00080913F05909140050E941106412F477080
:1025C00020913F0530914005912F9F70443009F0D4
:1025D000B9C02130310541F021E030E030934005B1
:1025E00020933F053F9A479AE0913D0521E02E0F49
:1025F00020933D05E73008F0E6E0BFE0EB9FF001F7
:102600001124EA5CFA4F2FE42387248535853F7037
:10261000492F50E0542F44275295507F240F351FE7
:10262000207F8F70280F311D358724875C9A47984B
:102630002BE030E0C9010197F1F759B19CB143B1EA
:1026400063B196FB882780F9880F880F952F991F13
:102650009927991F990F990F990F890F65FB992752
:1026600090F9890F44FB992790F9990F890F40E160
:10267000849FC0011124448555854F70840F951F98
:10268000958784875C984798C9010197F1F739B11C
:102690009CB123B143B196FB882780F9880F880F3E
:1026A000932F991F9927991F990F990F990F890FA8
:1026B00045FB992790F9890F24FB992790F9990FE9
:1026C000890F90E0982F882724853585307F820FE9
:1026D000931F958784875C9A80913F059091400570
:1026E000019709F4479A83E290E00197F1F770911E
:1026F0003D0580E09FE04FEF5FEF60E8781709F459
:1027000046C1282F873008F026E030E0929FF00184
:10271000939FF00D1124EA5CFA4FB385A289BA1792
:1027200079F05587448766872F5F3F4F929FD0018E
:10273000939FB00D1124AA5CBA4F6C93108A118A32
:102740008F5FDCCF913091F4482F4F70413071F49E
:102750002130310541F081E090E090934005809375
:102760003F053F9A479A0E94640EB5CF482F4C70A0
:1027700009F0A4C0232B39F01092400510923F05B8
:102780003F984798479AE0913D0521E02E0F20930E
:102790003D05E73008F0E6E0EE2EF12C5FE0E59F26
:1027A000F0011124EA5CFA4F20EE2387412F50E01C
:1027B0001C7009F490CF24853585207F290F311DA9
:1027C0002F7064E0559547956A95E1F78695869553
:1027D000842BA0E18A02C0011124820F931F9587E8
:1027E000848784E091E04BE050E021E0992309F4F4
:1027F00063C05C9AFA013197F1F792278150B1F7E3
:1028000080913F05909140050E9411069FE09E9D9A
:10281000F0019F9DF00D1124EA5CFA4F918D9923F0
:1028200021F021EE23879150918F8F7009F053CFC3
:102830008FE08E9D80018F9D100D11240A5C1A4F30
:1028400084E6F801818F5C9A8BE0C82ED12CC601FA
:102850000197F1F780913F05909140050E94110684
:10286000F82E5C98C6010197F1F780913F05909191
:1028700040050E94110691EED8011B969C931B9770
:102880001C962D913C911D97307F4F2D4F7050E03D
:10289000542F4427240F351F3F70880F880F880F4F
:1028A00090E0982F88279295907F280F391F1D96CA
:1028B0003C932E931C970FCF5C989CCF933009F0DC
:1028C0005BC08F708F3009F057C02130310541F067
:1028D00081E090E09093400580933F053F9A479AAE
:1028E00084E080933E05479880ED97E02BE030E050
:1028F000369902C00C94C223F9013197F1F7019780
:10290000B9F7E9CE47980C94E52347980C944324F3
:10291000A2E03A2E80913D0591E0980F90933D05FD
:10292000873008F086E0BFE08B9FC0011124FC01D6
:10293000EF5BFA4F5F018A5C9A4F2225DC011B9600
:102940002C9300E01123B1F0479A1425312F3170F8
:1029500080ED97E026B126FB222720F932130C9454
:102960006324F6013197F1F70197A1F7B4CEF3E0B4
:102970003F2ED0CF4798E9CF232B09F4ACCE10924D
:10298000400510923F053F984798479AA4CE851579
:1029900028F56FE07FEF4FEF5FEF90E8282F87304B
:1029A00008F026E030E0629FF001639FF00D1124F3
:1029B000EA5CFA4F7387118E5587448796872F5F9D
:1029C0003F4F629FD001639FB00D1124AA5CBA4FA4
:1029D0009C93108A118A8F5F5812E0CF8CED94E09F
:1029E0000E949A068BEE94E00E949A068AEF94E089
:1029F0000E949A0689E095E00E949A0688E195E097
:102A00000E949A0687E295E00E949A065090D804A8
:102A10001092D8041092D9042A9AEBE0EE2EF12CF1
:102A2000C7010197F1F78091DA049091DB040E94CD
:102A3000F105182F2A98C7010197F1F78091DA0460
:102A40009091DB040E94F105412F47702091DA0438
:102A50003091DB04912F9F70443009F0B5C02130D4
:102A6000310541F021E030E03093DB042093DA04BB
:102A7000269A2E9AE091D80421E02E0F2093D804B4
:102A8000E73008F0E6E02FE0E29FF0011124EF527A
:102A9000FB4F2FE42387248535853F70492F50E075
:102AA000542F44275295507F240F351F207F8F705D
:102AB000280F311D358724872A9A2E982BE030E085
:102AC000C9010197F1F783B14FB19FB15FB186950D
:102AD0008170880F880F880F441F4427441F440FBC
:102AE000440F840F55FB442740F9840F96FB992728
:102AF00090F9990F890F40E1849FC001112444850A
:102B000055854F70840F951F958784872A982E9836
:102B1000C9010197F1F783B12FB19FB13FB18695FC
:102B20008170880F880F880F221F2227221F220FF3
:102B3000220F820F35FB222720F9820F96FB99275F
:102B400090F9990F890F90E0982F88272485358573
:102B5000307F820F931F958784872A9A8091DA04A9
:102B60009091DB04019709F42E9A83E290E001979B
:102B7000F1F76091D804212C2FE04FEF5FEF30E8A0
:102B8000621509F446C1822DF6E0F21508F486E0DC
:102B900090E0289FF001299FF00D1124EF52FB4F88
:102BA000A3857289A71771F05587448736870196E8
:102BB000289FD001299FB00D1124AF52BB4F3C93E9
:102BC000108A118A2394DCCF913091F4482F4F70F2
:102BD000413071F42130310541F081E090E0909373
:102BE000DB048093DA04269A2E9A0E944910B5CF0E
:102BF000482F4C7009F0A4C0232B39F01092DB044D
:102C00001092DA0426982E982E9AE091D80421E0AA
:102C10002E0F2093D804E73008F0E6E0EE2EF12CDA
:102C20005FE0E59FF0011124EF52FB4F20EE238778
:102C3000412F50E01C7009F490CF24853585207F0A
:102C4000290F311D2F7094E0559547959A95E1F71E
:102C500086958695842BA0E18A02C0011124820FFB
:102C6000931F9587848784E091E04BE050E021E05A
:102C7000992309F463C02A9AFA013197F1F7922750
:102C80008150B1F78091DA049091DB040E94F10544
:102C90009FE09E9DF0019F9DF00D1124EF52FB4F90
:102CA000918D992321F021EE23879150918F8F7080
:102CB00009F053CF8FE08E9D80018F9D100D112460
:102CC0000F521B4F84E6F801818F2A9ABBE0CB2E6E
:102CD000D12CC6010197F1F78091DA049091DB04C1
:102CE0000E94F105F82E2A98C6010197F1F780910C
:102CF000DA049091DB040E94F10591EED8011B9655
:102D00009C931B971C962D913C911D97307F4F2DC6
:102D10004F7050E0542F4427240F351F3F70880F09
:102D2000880F880F90E0982F88279295907F280F22
:102D3000391F1D963C932E931C970FCF2A989CCF3A
:102D4000933009F05BC08F708F3009F057C021308D
:102D5000310541F081E090E09093DB048093DA0448
:102D6000269A2E9A84E08093D9042E9880ED97E0DD
:102D70002BE030E01B9902C00C948924F9013197B3
:102D8000F1F70197B9F7E9CE2E980C94AC242E9860
:102D90000C940825E2E03E2E8091D80491E0980F33
:102DA0009093D804873008F086E0BFE08B9FC00185
:102DB0001124FC01E452FB4F5F018F529B4F2225EF
:102DC000DC011B962C9300E01123B1F02E9A142500
:102DD000312F317080ED97E023B123FB222720F9BA
:102DE00032130C942825F6013197F1F70197A1F7DA
:102DF000B4CE73E0372ED0CF2E98E9CF232B09F431
:102E0000ACCE1092DB041092DA0426982E982E9AFB
:102E1000A4CE251408F46EC0E0903D053E2C320C83
:102E200053EA652E53E0752ED12CA12C6FE0C62EEF
:102E300080912E013D1409F41DC1D81609F41AC160
:102E4000FF24F394DE1408F4F12C0D2DDE1408F0A9
:102E500077C046E0442E4D1408F406E00C9D800136
:102E600011240F5B1A4F823071F4EE2061F0D8010B
:102E70008C910E945028EF2DF0E0EE0FFF1FE80D1F
:102E8000F91D91838083D8019C9117968C91179797
:102E9000981368C011962D913C91129718968D91B8
:102EA0009C9119972817390709F06BC013969C91CC
:102EB00013971A968C911A97981363C014969C9145
:102EC00014971B968C911B9798135BC015969C9139
:102ED00015971C968C911C97981353C016969C912D
:102EE00016971D968C9198134CC0D394F2E06F0EF8
:102EF000711C9ECF222D6FE07FEF4FEF5FEF30E828
:102F0000822F273008F086E090E0689FF001699FEB
:102F1000F00D1124EF52FB4F7387118E55874487B4
:102F200036870196689FD001699FB00D1124AF527A
:102F3000BB4F3C93108A118A2F5F5212E1CF6CCFA6
:102F40000E19073008F006E00C9D80011124045290
:102F50001B4F823009F097CF222009F494CFF8015B
:102F6000808187CF8D2D0E945F0680912E01823057
:102F700041F4F80180810E945028BC018F2D0E94ED
:102F80000C2AD80111968D919C91B82FBF70BF87E4
:102F900022E0A22EB12C86FF02C0B12CA12C84FD10
:102FA00002C06894A2F885FD02C06894A5F892FD5D
:102FB00002C06894A0F891FD02C06894A3F890FD47
:102FC00002C06894A4F887FD02C06894B1F8F301C8
:102FD00040805180D8012C91207F203109F041C0E0
:102FE00013968C911397F201878314968C91149702
:102FF000808715968C911597818716968C911697D8
:1030000082878C910E945028069719F4FF85FC60F6
:10301000FF87D2011396AC9213971496BC92149723
:1030200015961C92BF85EB2FF0E0EE5EFC4F808181
:10303000F2018683C2010E94A10980912E01823093
:1030400069F4EF2DF0E0EE0FFF1FE80DF91D608130
:10305000718120E0A8018F2D0E94A729AA24A394A2
:1030600044CF93FD02C06894A7F897FDD2CF68942F
:10307000A6F8CFCF09811A81823079F480911B01A3
:1030800090911C018017910741F00115110529F459
:1030900070E060E080E00E940C2A10931C01009315
:1030A0001B010B811C8180912E01823079F480916B
:1030B0001D0190911E018017910741F00115110526
:1030C00029F470E060E081E00E940C2A10931E0158
:1030D00000931D0180918A033816C0F4132D80914E
:1030E0008A03181798F480912E01181779F0812F10
:1030F0000E945F06E12FF0E0EE0FFF1FED55FC4F41
:10310000808191810E94A1091F5FE9CF30928A03DB
:1031100080913E059091D904843039F0943029F0A3
:10312000890F51F482E390E002C080ED97E0909324
:103130002D0180932C0110C0832D90E0019644EF67
:1031400051E0849F9001859F300D949F300D112494
:1031500030932D0120932C010E94FB0260938B037E
:1031600070938C0380938D0390938E03AA2041F07B
:103170008091000181110C94512381E00E94840907
:10318000809100018823F9F02FB7F8948091B20361
:103190009091B303A091B403B091B5032FBF4091B8
:1031A0008403509185036091860370918703841B8B
:1031B000950BA60BB70B803C944DA140B10518F0C0
:1031C00080E00E9484094E9B02C00C944C256CE266
:1031D00071E080E090E00E94200380910001811165
:1031E0000C94662381E06A960FB6F894DEBF0FBE9A
:1031F000CDBFDF91CF911F910F91FF90EF90DF90A6
:10320000CF90BF90AF909F908F907F906F905F9086
:103210004F903F902F900C9484099E012F5F3F4F59
:103220003E872D878CE0D9011D928A95E9F7809120
:103230001A01882381F010921A0180912E018330A7
:1032400050F045E064E28BE995E00E94490784E490
:1032500091E00E948E08E2EAF4E08AEC94E0278193
:103260002487208531853687258722853385308BD5
:1032700027873A968E179F0791F7B091A704B98FC9
:103280001092A7042C9A8BE290E00197F1F72C980A
:1032900083E190E00197F1F78091A804811164C166
:1032A00030E020E090E080E043E150E06CB166FB6C
:1032B000EE24E0F8F12CB701022E02C0660F771F52
:1032C0000A94E2F7862B972B2D98DA011197F1F7E4
:1032D0002D9ADA011197F1F72F5F3F4F2031310519
:1032E00029F7E92FE295EF70F0E1FF2EED3011F0B4
:1032F000FF24F39430E020E050E040E063E170E030
:10330000ACB1A6FB002700F910E0D801022E02C0E4
:10331000AA0FBB1F0A94E2F74A2B5B2B2D98DB0107
:103320001197F1F72D9ADB011197F1F72F5F3F4FBE
:103330002F1530F32E2F20953FE03E27BC016095DE
:10334000709540955095EF3029F44E3FFFEF5F07A1
:1033500009F44EC08091A70491E0980F9093A704C0
:10336000853008F084E090E08C010F5F1F4FE11181
:103370001BC0A72FBB27AF70BB271F97A9F42AE05C
:10338000289FD001299FB00D1124AE55BB4F3FE0BF
:1033900017963C93209FD001219FB00D1124AE556C
:1033A000BB4F4D935C9318C022FFD5C03AE0389FC5
:1033B000D001399FB00D1124AE55BB4F44E0179694
:1033C0004C93309FD001319FB00D1124AE55BB4FAF
:1033D000237030E02D933C932AE0289FD001299F51
:1033E000B00D1124AE55BB4F19967C936E93189770
:1033F0002091A704B98D3AE04FEF2B1708F408C2CB
:10340000E3E7F4E08BE994E0278124872085318588
:103410003687258722853385308B27873A968E1706
:103420009F0791F730907804109278048E9A8BE27F
:1034300090E00197F1F78E9883E190E00197F1F722
:103440008091790481117BC250E040E090E080E0FF
:1034500063E170E02FB1022E000C330B2227330FF3
:10346000221F3327042E02C0220F331F0A94E2F7D3
:10347000822B932B8D98FB013197F1F78D9AFB01ED
:103480003197F1F74F5F5F4F4031510519F7A92F81
:10349000A295AF70B0E1AD3009F0B1E070E060E04E
:1034A00050E040E003E110E02FB1022E000C330B9E
:1034B0002227330F221F3327062E02C0220F331F6D
:1034C0000A94E2F7422B532B8D98F8013197F1F7CC
:1034D0008D9AF8013197F1F76F5F7F4F6B1720F3EB
:1034E0002A2F20953FE03A27BC01609570954095C2
:1034F0005095AF3029F44E3FFFEF5F0709F4CBC181
:103500009091780481E0890F80937804953008F0D9
:1035100094E0892F90E08C010F5F1F4FA1119AC199
:10352000E72FFF27EF70FF273F9709F093C12AE0AD
:10353000289FF001299FF00D1124ED58FB4F3FE02B
:103540003783209FF001219FF00D1124ED58FB4F90
:103550005183408396C12AE0289FD001299FB00D56
:103560001124AE55BB4F14CF10E063E170E08AE048
:1035700004E05C9ADB011197F1F730E020E0912C38
:10358000812CD12CC12C9CB196FB222420F8312C0B
:10359000A101022E02C0440F551F0A94E2F7C42A6B
:1035A000D52A96B196FB442440F8512CA201022E54
:1035B00002C0440F551F0A94E2F7842A952A2D98D9
:1035C000DB011197F1F72D9ADB011197F1F72F5FCE
:1035D0003F4F20313105B9F6AD2CA294BFE0AB22AC
:1035E000992D92959F702DE0A0E1BA2EA21611F0B0
:1035F000BB24B394F0E1EF2E9D3011F0EE24E39460
:10360000712C612C50E040E0F12C2E2DEB1408F4CD
:103610002B2DF21668F52CB126FB222720F92F87D7
:10362000188A2F8538890F2C02C0220F331F0A9465
:10363000E2F7422B532B26B126FB222720F92B8BB6
:103640001C8A2B893C890F2C02C0220F331F0A943D
:10365000E2F7622A732A2D98DB011197F1F72D9A70
:10366000DB011197F1F7F394D0CF11E05C9882CF92
:10367000BA2CB094C094D094409550953FE0A312DA
:1036800005C04E3FAFEF5A0709F44AC02091A70486
:1036900031E0320F3093A704253008F024E030E009
:1036A000F90131967F01A11018C0AD2DBB27AF7075
:1036B000BB271F9791F4829FD001839FB00D1124E7
:1036C000AE55BB4FFFE01796FC938E9DD0018F9DAA
:1036D000B00D1124AE55BB4F15C0829FD001839F02
:1036E000B00D1124AE55BB4FB2FE56C017960C93C9
:1036F0008E9DD0018F9DB00D1124AE55BB4F4B2D2B
:10370000437050E04D935C93829FA001839F500DC6
:1037100011244E555B4FDA011996DC92CE92189720
:10372000B92EB09480949094609470949F3031F44A
:10373000BEEF6B16BFEF7B0609F457C02091A704BC
:1037400031E0320F3093A704253008F024E030E058
:10375000D9011196911125C0E92CFF24EFE0EE224A
:10376000FF24FFE0EF16F104E1F4829F7001839FD4
:10377000F00C1124A7014E555B4F7A014FE0F70181
:1037800047838A9FA0018B9F500D1124DA01AE550B
:10379000BB4F6D927C921DC0EFE0AE261796AC92A7
:1037A00094CFB2FE27C0829FA001839F500D1124A9
:1037B0004E555B4FFA0107838A9FA0018B9F500DE6
:1037C00011244E555B4FAB2DA370B0E0FA01B183CD
:1037D000A083829FA001839F500D11244E555B4F03
:1037E000DA0119969C928E921897113009F03DCF0C
:1037F0005C9AFECD829F7001839FF00C1124A7017B
:103800004E555B4F7A015FE09527F7019783B9CF5B
:10381000822F253008F084E090E0389FD001399F56
:10382000B00D1124AE55BB4F17964C9317971996B0
:103830001C921E9218970196389FD001399FB00DA7
:103840001124AE55BB4F1D921C922F5FE98DE213E0
:10385000DFCFD6CD22FF6AC03AE0389FF001399F12
:10386000F00D1124ED58FB4F44E04783309FF001E9
:10387000319FF00D1124ED58FB4F237030E0318360
:1038800020832AE0289FF001299FF00D1124ED5894
:10389000FB4F71876087209078042D8A2D893AE04C
:1038A0004FEF231408F49EC19090A7043D88390C73
:1038B0003B8A23EA33E0388F2F8BD12CA12C209127
:1038C0002E012B882D1409F4CAC2D21609F4C7C2DE
:1038D000BB24B394D91408F4B12C8D2DD91408F05D
:1038E0009EC144E0342E3D1408F484E03AE0432EB7
:1038F000849DC0011124AC0147555B4F3A01223031
:1039000009F09CC1992009F418C2CA010E947306EB
:10391000EB2DF0E0EE0FFF1F22242394312C2C0E10
:103920003D1EE20DF31D9183808388C12AE0289F0C
:10393000F001299FF00D1124ED58FB4F01CEC12C51
:1039400003E110E08AE0BFE0DB2E94E0E92E2A9A42
:10395000F8013197F1F770E060E050E040E0F0E00E
:10396000E0E02FB1022E000C330B2227330F221F71
:103970003327062E02C0220F331F0A94E2F7E22BF0
:10398000F32B93B193FB992790F99D8B1E8A2D8978
:103990003E89062E02C0220F331F0A94E2F7422B03
:1039A000532B8D98D8011197F1F78D9AD801119763
:1039B000F1F76F5F7F4F6031710599F6BF2EB294BA
:1039C0009FE0B922952F92959F702DE0222E30E135
:1039D000B21031E0B0E1AB2E9D3011F0AA24A394D7
:1039E00070E060E0712C612C20E0FA2CA31608F442
:1039F000F32E2F1570F58FB0082C000C9908882431
:103A0000990C881C9924022E02C0880C991C0A94D7
:103A1000E2F768287928F3B0F3FAFF24F0F8FF8A78
:103A2000188E8F88988C022E02C0880C991C0A94DC
:103A3000E2F7682979298D98D8011197F1F78D9AC5
:103A4000D8011197F1F72F5FD0CFCC24C3942A98D7
:103A50007FCFFB2CF0944F0180949094D301A095DC
:103A6000B095EFE0BE1205C0AE3FFFEFBF0709F40F
:103A70004FC02091780431E0320F30937804253024
:103A800008F024E030E0F90131962F01B1101DC09B
:103A9000692C7724FFE06F227724EFE06E16710423
:103AA000A1F4829F3001839F700C1124F301ED5823
:103AB000FB4FD782849D3001859D700C1124F3014A
:103AC000ED58FB4FB183A08318C0F2FE55C0829F12
:103AD000D001839FB00D1124AD58BB4F1796EC92C7
:103AE000849DD001859DB00D1124AD58BB4FFF2D95
:103AF000F370AF2EB12CAD92BC92829FD001839F08
:103B0000B00D1124AD58BB4F19969C928E92189708
:103B1000F92EF09440955095609570959F3029F45A
:103B20006E3FFFEF7F0709F454C02091780431E025
:103B3000320F30937804253008F024E030E0F901AA
:103B40003196911124C0A52FBB27AF70BB271F97BB
:103B5000F1F4829FD001839FB00D1124AD58BB4F6B
:103B60001796DC928E9FD0018F9FB00D1124AD5817
:103B7000BB4F6D937C9323C0829F3001839F700C59
:103B80001124F301ED58FB4FBD24B78293CF829FE0
:103B9000D001839FB00D1124AD58BB4FF2FE1EC063
:103BA0001796EC928E9FB0018F9F700D11246D5867
:103BB0007B4FEF2DE370F0E0DB01ED93FC93829FF0
:103BC000B001839F700D11246D587B4FFB0151870D
:103BD0004087F1E0CF1239CF2A9A5DCE9D25179606
:103BE0009C93C0CF822F253008F084E090E0389F6E
:103BF000F001399FF00D1124ED58FB4F47831186DA
:103C000010860196389FF001399FF00D1124ED5870
:103C1000FB4F118210822F5F3212E4CF45CE8919FB
:103C2000853008F084E05AE0859FC0011124DC0152
:103C3000A658BB4F3D01223009F47FC0D3018C91BF
:103C400015969C911597891323C011964D915C91FF
:103C5000129716962D913C9117974217530759F4D6
:103C600013964D915C91149718962D913C914217A3
:103C7000530709F45AC0811119C0F301838194815B
:103C80000196A1F4D30118968D919C91019671F043
:103C90008D2D0E945F0680912E01823039F4C30180
:103CA0000E947306BC018B2D0E941529C3010E943E
:103CB00073061C01F30181819281DC01A095B0950E
:103CC000F4E0B695A795FA95E1F71A2F1F709C01BD
:103CD00021703327AC015695479570E060E0417044
:103CE000552766277727F2E02F163104C9F5232BD5
:103CF00009F0426082FD516083FD5260AF89B88D4A
:103D0000ED91FC91438354836583A12FB0E0AE5EB7
:103D1000BC4F8C918683CF010E94A10980912E0116
:103D2000823009F45DC0AA24A394D3944F89588D9E
:103D30004E5F5F4F588F4F8BC2CD3D88332009F4C3
:103D40007DCFC3010E947306EB2DF0E0EE0FFF1F45
:103D500044244394512C4C0E5D1EE40DF51DE3CD1F
:103D6000232B09F0426090FD446091FD486092FD74
:103D7000406193FD406224E02216310421F5D30115
:103D800013962D913C9134FD406435FD406820FD33
:103D9000546021FD586022FD506123FD506224FDD6
:103DA000506425FD506826FD616027FD626030FD8E
:103DB000646031FD686032FD606133FD606237FF31
:103DC00099CF606497CFB5E02B16310409F092CFFC
:103DD000F301238120FD406421FF8CCF40688ACF0E
:103DE00072E9472E72E0572E1F868B2D90E0880FC8
:103DF000991FFC01E257FD4FFA8FE98FF2E02F1671
:103E0000310441F42F85283008F5F201E05AFF4FC4
:103E1000243008F0F201E080F18002811381D301A7
:103E200011968D919C918E219F21CC24C394892B36
:103E300009F4C12C1F928780A68024814581E98DD9
:103E4000FA8D60818B2D0E94ED080F90FF85FF5F3A
:103E5000FF8728E0420E511CFC3081F664CF0981B7
:103E60001A81223079F480910E0190910F01801710
:103E7000910741F00115110529F470E060E080E040
:103E80000E94152910930F0100930E010B811C81D4
:103E900080912E01823079F480911001909111016E
:103EA0008017910741F00115110529F470E060E0D9
:103EB00081E00E9415291093110100931001809157
:103EC00089032B882816C0F4122D809189031817B6
:103ED00098F480912E01181779F0812F0E945F06C7
:103EE000E12FF0E0EE0FFF1FED55FC4F8081918137
:103EF0000E94A1091F5FE9CF3B88309289032CC93A
:103F00009E012F5F3F4F3C8B2B8B8CE0D9011D9284
:103F10008A95E9F780910D01882381F010920D01B7
:103F200080912E01833050F045E06EE18BE995E001
:103F30000E9449078AE391E00E948E0803E414E09E
:103F4000F8018085918595878487828593859787F9
:103F500086873896B4E0EB36FB0799F76090490402
:103F60001092490410924A04F12C77247394E12CA6
:103F700043E0C42ED12C812C912C540183940E94B7
:103F8000330650E040E0E42F469AC6010197F1F76E
:103F900099B18CB163B133B186FB222720F9220F8E
:103FA000220F892F881F8827881F880F880F880F66
:103FB000280F35FB882780F9280F62956170660FFE
:103FC000260F4698C6010197F1F739B19CB163B14C
:103FD00073B196FB882780F9880F880F331F33272A
:103FE000331F330F330F330F830F75FB992790F96E
:103FF000890F64FB992790F9990F890F453009F4CF
:1040000090C0E11006C0E091490491E09E0F9093AA
:104010004904E63008F0E5E038E0E39FF0011124C0
:10402000E55BFB4F6281738190E0211170C0140148
:104030002501042E04C0220C331C441C551C0A9478
:10404000D2F72F86388A498A5A8AF228707F982FA9
:104050008827860F971F938382834F5F5F4F463079
:10406000510509F090CF33243394E3104DC04698A6
:104070005C9883E290E00197F1F7772009F45BC048
:1040800085E080934A0490E080E04F2D50E09A0153
:10409000082E02C0359527950A94E2F720FF48C004
:1040A00023E030E0D80119963C932E93189701969F
:1040B000085F1F4F8530910551F79091490480E0CA
:1040C0002FEF3FEF981709F459C0E82F863008F01A
:1040D000E5E0F0E0DF0113E0AA0FBB1F1A95E1F75E
:1040E000A55BBB4F03E0EE0FFF1F0A95E1F7ED5B09
:1040F000FB4F6D917C91448555856417750711F0D0
:10410000338722878F5FDECFEE24E39438CF607F42
:10411000620F711D6F7024E0880F991F2A95E1F7D7
:1041200098CF211103C0882309F497CF712C95CF24
:1041300022E030E0B7CF10924A04E092490423E035
:1041400030E0F0FC02C022E030E080E04FEF5FEFB3
:1041500081110AC030934C0420934B048F5F085F99
:104160001F4F8530A9F7A9CFF80111861086538714
:1041700042871586148657874687F0CF4FEF5FEF4B
:10418000861508F4EDC0A3E1B4E08BE394E0FD01F3
:104190002085318535872487228533853787268793
:1041A00038968E179F07A1F7F09019041092190402
:1041B00010921A0440E0DD24D39450E063E070E0F4
:1041C000812C912C540183942B9A2A98CB0101972E
:1041D000F1F72A9ACB010197F1F72A98CB010197C1
:1041E000F1F710E000E0E02F2B9ACB010197F1F7F7
:1041F00023B19FB18FB13FB126952170220F220FBD
:10420000220F991F9927991F990F990F290F35FB95
:10421000992790F9290F86FB882780F9880F280FA6
:104220002B98CB010197F1F783B13FB19FB1FFB15B
:1042300086958170880F880F880F331F3327331FAF
:10424000330F330F830FF5FB332730F9830F96FBC2
:10425000992790F9990F890F053009F4AFC05111D2
:1042600006C0E091190491E09E0F90931904E63086
:1042700008F0E5E038E0E39FF0011124E55EFB4F34
:104280006280738090E021118AC014012501002E04
:1042900004C0220C331C441C551C0A94D2F72F86F0
:1042A000388A498A5A8A422920EF7222982F882711
:1042B000860D971D938382830F5F1F4F0630110574
:1042C00009F091CF513009F068C02B982A9883E209
:1042D00090E00197F1F7DD2009F47AC085E0809342
:1042E0001A0490E080E050E09A01082E02C0359553
:1042F00027950A94E2F720FF68C023E030E0199682
:104300003C932E931897019618968530910561F786
:1043100080911904C12C2FEF3FEF8C1509F481C057
:10432000EC2D45E04C1508F4E5E0F0E0DF0113E08A
:10433000AA0FBB1F1A95E1F7A55EBB4F03E0EE0F76
:10434000FF1F0A95E1F7ED5EFB4F6D917C9144856F
:1043500055856417750711F033872287C394DDCF25
:10436000282F863008F025E030E0F90163E0EE0FF9
:10437000FF1F6A95E1F7E55BFB4F1182108273E046
:10438000220F331F7A95E1F7F901ED5BFB4F53875D
:1043900042878F5F6812E4CFF6CE51E015CF30EF41
:1043A0006322260D372D311D2F7082959295907FB7
:1043B0009827807F9827820F931F7CCF211103C0FD
:1043C000882309F479CFD12C77CF22E030E097CF42
:1043D00010921A045093190423E030E040FD02C00B
:1043E00022E030E080E04FEF5FEF811109C03093B1
:1043F0001C0420931B048F5F18968530B1F788CF7B
:1044000019961C921E9218971B965C934E931A97BE
:104410001D961C921E921C971F965C934E931E979E
:10442000EACF2C2D4FEF5FEFCF1408F444C0B090CB
:1044300049048B2C8C0CE3EAEE2EE3E0FE2ED12C0B
:10444000A12C80912E018D1409F4DBC0D81609F43B
:10445000D8C099249394DB1408F4912C0D2DDB140F
:1044600008F046C055E05D1508F405E098E0099FA6
:1044700080011124055B1B4F823009F458C0D8011C
:104480002D913C91119714968D919C911597281719
:10449000390709F05FC012962D913C91139716963B
:1044A0008D919C912817390709F061C0D394B2E02F
:1044B000EB0EF11CC6CF822F263008F085E090E08D
:1044C000FC0163E0EE0FFF1F6A95E1F7E55EFB4F2D
:1044D0001182108273E0880F991F7A95E1F7FC0131
:1044E000ED5EFB4F538742872F5FF212E4CF9FCFE1
:1044F0000B19063008F005E0A8E00A9F800111249E
:10450000055E1B4F823009F0BACFF801808191819E
:10451000CC2009F4B4CFE92DF0E0EE0FFF1F2224E8
:104520002394312C2C0E3D1EE20DF31D10C0BB2038
:1045300061F3E92DF0E0EE0FFF1F22242394312CCC
:104540002C0E3D1EE20DF31DD8018D919C9191839F
:10455000808395CF8D2D0E945F0680912E01823041
:1045600031F4F80160817181892D0E94CB28D80136
:1045700012964D915C9124E030E045FF02C030E09E
:1045800020E044FF206246FF316047FF3260F801BF
:1045900080819181039741F450FF226051FF216097
:1045A00052FF286053FF2061F701A081B18113966B
:1045B0002C93139714963C93149715961C92159769
:1045C000E42FE17042FDE26043FDE46041FDE860FC
:1045D000F0E0EE5EFC4F808116968C931697CD012D
:1045E0000E94A10980912E01823041F4D8016D9181
:1045F0007C9120E0A801892D0E946E28AA24A39412
:1046000055CF09811A81823079F48091010190910E
:1046100002018017910741F00115110529F470E09E
:1046200060E080E00E94CB2810930201009301011A
:104630000B811C8180912E01823079F480910301DD
:10464000909104018017910741F00115110529F49B
:1046500070E060E081E00E94CB2810930401009399
:104660000301809188038816C0F4182D8091880377
:10467000181798F480912E01181779F0812F0E9455
:104680005F06E12FF0E0EE0FFF1FED55FC4F80813C
:1046900091810E94A1091F5FE9CF809288030C9449
:1046A000AC182FB7F8948091B2039091B303A09106
:1046B000B403B091B5032FBF809384039093850317
:1046C000A0938603B09387030C94C018E090AF03C7
:1046D000F090B0030E944F060E94530910E000E0E2
:1046E00062E070E080E090E00E9420034E990CC0F0
:1046F0006CE271E080E090E00E9420030E944F068F
:104700000E94530910E000E00F5F1F4F003DF7E0EB
:104710001F0731F76091AF037091B0036E157F05ED
:10472000D1F46A960FB6F894DEBF0FBECDBFDF910D
:10473000CF911F910F91FF90EF90DF90CF90BF909E
:10474000AF909F908F907F906F905F904F903F9031
:104750002F900C94530990E080E00E94E22E8BE9A8
:1047600095E00E94DE088EE491E00E948E0888E1C8
:104770009EE00FB6F894A895809360000FBE9093CA
:104780006000FFCF8BE090E00197F1F7479A80ED52
:1047900097E02BE030E0369907C0F9013197F1F747
:1047A0000197C9F70C946B138BE090E00197F1F738
:1047B00030E020E0712C612C10E0E1E04BE050E0B3
:1047C000112311F40C948214479A1E27712F7170D3
:1047D00080ED97E066B166FB662760F9761307C047
:1047E000DA011197F1F70197A9F70C946B13CA013D
:1047F0000197F1F779B19CB163B1F3B196FB8827CA
:1048000080F9880F880F972F991F9927991F990F63
:10481000990F990F890FF5FB992790F9890F64FB80
:10482000992790F9990F890F90E0022E02C0880F06
:10483000991F0A94E2F7682A792A2C5F3F4F2031AA
:10484000310509F0BDCFF12CE12CB0EE2B2E442424
:1048500043940BE0C02ED12C93010E2C02C0369550
:1048600027950A94E2F72F7011F40C9488142130E4
:1048700011F40C94B7142230E9F486E0112311F4FA
:104880000C948514479A1425412F417020ED37E090
:1048900096B196FB992790F9F601491307C0319715
:1048A000F1F721503109A1F70C946B133197F1F70F
:1048B000815021F7B4E0EB0EF11CE0E1EE16F104BB
:1048C00059F60C946B13C6010197F1F729B18CB11D
:1048D00093B133B186FB442740F9440F440F822F34
:1048E000881F8827881F880F880F880F480F35FB7F
:1048F000882780F9480F94FB882780F9880F480F94
:10490000602FC5010E9418020F5F30120C94A21490
:10491000D1CF8BE090E00197F1F72E9A80ED97E0F0
:104920002BE030E01B9907C0F9013197F1F70197AF
:10493000C9F70C94AD158BE090E00197F1F730E0EA
:1049400020E0712C612C10E071E04BE050E011236D
:1049500011F40C94C4162E9A1727A12FA17080ED84
:1049600097E063B163FB662760F9A61307C0FA01FD
:104970003197F1F70197A9F70C94AD15CA0101978A
:10498000F1F783B16FB19FB1EFB186958170880F58
:10499000880F880F661F6627661F660F660F860FD3
:1049A000E5FB662760F9860F96FB992790F9990F2A
:1049B000890F90E0022E02C0880F991F0A94E2F737
:1049C000682A792A2C5F3F4F2031310509F0BFCF8B
:1049D000F12CE12CF0EE2F2E44244394ABE0CA2EB0
:1049E000D12C93010E2C02C0369527950A94E2F73C
:1049F0002F7011F40C94CA16213011F40C94F9168E
:104A00002230E9F486E0112311F40C94C7162E9A93
:104A10001425412F417020ED37E093B193FB992786
:104A200090F9F601491307C03197F1F72150310988
:104A3000A1F70C94AD153197F1F7815021F7B4E04F
:104A4000EB0EF11CE0E1EE16F10459F60C94AD15F5
:104A5000C6010197F1F743B19FB18FB12FB14695D0
:104A60004170440F440F440F991F9927991F990FC4
:104A7000990F490F25FB992790F9490F86FB882745
:104A800080F9880F480F602FC5010E9418020F5F40
:104A900030120C94E416D3CF6A960FB6F894DEBFAA
:104AA0000FBECDBFDF91CF911F910F91FF90EF907F
:104AB000DF90CF90BF90AF909F908F907F906F903E
:104AC0005F904F903F902F9008951F920F920FB6D6
:104AD0000F9211242F933F938F939F93AF93BF9384
:104AE0008091B2039091B303A091B403B091B50348
:104AF0003091B10323E0230F2D3758F50196A11D06
:104B0000B11D2093B1038093B2039093B303A0939C
:104B1000B403B093B5038091B6039091B703A0910D
:104B2000B803B091B9030196A11DB11D8093B603DE
:104B30009093B703A093B803B093B903BF91AF911B
:104B40009F918F913F912F910F900FBE0F901F90CB
:104B5000189526E8230F0296A11DB11DD2CF1F92F2
:104B60000F920FB60F9211248F939F938091E100C3
:104B70009091E100937F9093E10083FF0FC010922A
:104B8000E90091E09093EB001092EC0092E3909397
:104B9000ED001092BB0398E09093F00082FF22C0DA
:104BA00093E09093E9009091F200992319F09AE331
:104BB0009093E8009091A003992341F09091A00375
:104BC00091509093A003911101C05D9A9091BA0306
:104BD000992341F09091BA0391509093BA039111A7
:104BE00001C0289A84FF18C08091E2008E7E816007
:104BF0008093E2008091E1008F7E8093E1008091BC
:104C0000A1038E7E80618093A1039F918F910F906D
:104C10000FBE0F901F90189580FFF7CF8091E20094
:104C20008E7E80618093E2008091E1008E7E809391
:104C3000E1008091A1038E7E8160E5CF1F920F92EB
:104C40000FB60F921124CF92DF92EF92FF920F9343
:104C50001F932F933F934F935F936F937F938F9304
:104C60009F93AF93BF93EF93FF93CF93DF93CDB712
:104C7000DEB76C97DEBFCDBF1092E9008091E800EF
:104C800083FF25C068E0CE0145960E949F0482EF15
:104C90008093E8008D8987FF39C09091E80090FFEC
:104CA000FCCF982F907609F034C19E894F89588D9A
:104CB0002F89F88C911131C0803861F58091A20361
:104CC0008093F1001092F1008EEF8093E8006C96D3
:104CD0000FB6F894DEBF0FBECDBFDF91CF91FF912D
:104CE000EF91BF91AF919F918F917F916F915F9164
:104CF0004F913F912F911F910F91FF90EF90DF9077
:104D0000CF900F900FBE0F901F9018959EEF90932D
:104D1000E800C7CF1092F100D5CF913059F481113E
:104D2000D3CF4130510581F68091A2038D7F8093CE
:104D3000A203CACF933049F48111C6CF4130510547
:104D400019F68091A2038260F2CF953041F48091F0
:104D5000E80080FFFCCF20682093E300B5CF9630B9
:104D600009F0A9C00B8D1C8D22E01092E900109271
:104D70009E0310929D03F2122EC010929C0310927B
:104D80009B030E94ED041F8299E09983FA8291E0CF
:104D90009E8390EA98879AEF998720919D0330919E
:104DA0009E03275F3F4F3C832B838D831092E90046
:104DB00010929E0310929D0310939C0300939B03FB
:104DC00049E050E0BE016F5F7F4F80E00E94B30377
:104DD0000E94ED0479CF10939C0300939B030E94E3
:104DE000D904DC0112960D911C910115110509F4ED
:104DF00051C1D801ED91FC910480F581E02DBE01F7
:104E00006B5E7F4FC8010995009709F03EC1F8011C
:104E100000851185EACFF3E0FF120EC08F89882349
:104E200009F440C0823061F440E86CE085ED91E027
:104E30000E948003811148CF81E28093EB0047CF2D
:104E4000813029F440E867E08DEC91E0F1CF8330C8
:104E500099F70E94D904DC011296ED90FC908E0126
:104E60000F5F1F4F6801E114F10479F0D701ED9154
:104E7000FC910680F781E02DB801C7010995080F64
:104E8000111DF701E084F184EECFD8011C92F601E8
:104E900001900020E9F73197BF016C197D0940E0CE
:104EA000C601C6CF67EB71E0FB01449150E080E89A
:104EB0000E94B30309CF973009F4BECF983021F494
:104EC00081E08093F10000CF993009F0FDCE83702E
:104ED00009F0B2CFE8E3F1E081E031E096E321911F
:104EE000222371F08093E9003093EB00DF011197EA
:104EF0002C912093EC009093ED008F5F873079F731
:104F00008EE78093EA001092EA008F898093BB03BA
:104F1000DBCE8B8D9C8D1092E90010929E03109237
:104F20009D0390939C0380939B03898D811192C074
:104F30008E899D89913A49F4813209F07DCF47E00D
:104F400050E06FE271E080E0B3CF913209F074CFAE
:104F5000833269F48F89988DB0E0A0E080932801B6
:104F600090932901A0932A01B0932B01ADCE8032FA
:104F700069F48091E80082FFFCCF67E08FE291E066
:104F80000E949F048BEF8093E8009ECE823209F04E
:104F90009BCE8F8980933601EEEFFFE78591949148
:104FA0008B3F9C4D51F1E0E0F8E080912F01909112
:104FB0003001A0913101B0913201803B9440A105B4
:104FC000B105F1F48091360180FD1AC0EE3F8AE010
:104FD000F80789F587E797E79183808380916000E0
:104FE00080939F0388E19BE00FB6F894A895809387
:104FF00060000FBE9093600067CEEEEFFAE0D5CF71
:10500000808191818737974709F05ECEA89580917E
:10501000600088618093600080919F0380936000AE
:10502000EE3F2AE0F20789F08091FE0A9091FF0A94
:105030009183808349CE808191818737980751F28F
:105040009093FF0A8093FE0AC5CF1092FF0A109238
:10505000FE0A3ACE0E94D904DC0112960D911C91F1
:105060000115110509F4E8CED801ED91FC910190EC
:10507000F081E02DBE016B5E7F4FC8010995811163
:1050800023CEF80100851185EBCF181619060CF414
:105090001BCED2CEF1E0FF12BECE6BEB71E004CF9F
:1050A0008F3489F0823079F0863181F0833181F05C
:1050B000803E81F0813E81F021E090E08F3F09F455
:1050C00020E0822F089584E090E0089585E0FCCFF1
:1050D00086E0FACF82E0F8CF83E0F6CF2F923F92BE
:1050E0004F925F926F927F928F929F92AF92BF92F8
:1050F000CF92DF92EF92FF920F931F93CF93DF93A4
:10510000B82E2B011A01922ECEE2D2E0D12C682EBD
:10511000712C660C771CC30182579D4F3C0192E0B5
:105120004916510419F4E7E0ED15E8F0E880F9803C
:105130000A811B812C814D81AE808F8081E02114FA
:10514000310449F0F101628173816E217F2181E098
:10515000672B09F080E09F92C82EF30160818B2DB0
:105160000E94ED080F90D3942896FCE0DF12D7CF71
:10517000DF91CF911F910F91FF90EF90DF90CF9033
:10518000BF90AF909F908F907F906F905F904F9067
:105190003F902F900895FF920F931F93CF93DF932B
:1051A000182FEB01209711F4C2E0D0E0E12FF0E0DE
:1051B000EE0FFF1FE257FD4FF08007E023E0418133
:1051C0006F2D8BE995E00E94A90847E06F2D8BE9D0
:1051D00095E00E944907C230D10561F0C330D10586
:1051E000D9F083E091E0DF91CF911F910F91FF9073
:1051F0000C948E088EE091E00E948E08123079F0B7
:1052000021E050E040E0BE01812FDF91CF911F915E
:105210000F91FF900C946E2888E091E0EDCFDF9124
:10522000CF911F910F91FF9008955F926F927F929F
:105230008F929F92AF92BF92CF92DF92EF92FF92A6
:105240000F931F93CF93DF93D82EEB01E82FF0E05D
:10525000EE0FFF1FE257FD4F908007E023E04181F2
:10526000692D8BE995E00E94A90847E0692D8BE93B
:1052700095E00E944907C330D10509F462C0C0F42B
:105280008FEF90E0C230D105E1F083E091E0DF9153
:10529000CF911F910F91FF90EF90DF90CF90BF9033
:1052A000AF909F908F907F906F905F900C948E083E
:1052B000C430D10509F448C081EF90E0C530D10574
:1052C00021F70E948E0882E0D81659F182E9682EF3
:1052D00082E0782EB12C55245394C230D10549F484
:1052E00087E08B15B8F083E0F301E05AFF4F8B1590
:1052F00008F4F301E080F180028113815F928780DE
:10530000A680CC24C39424814581692D8D2D0E94D3
:10531000ED080F90B39488E0680E711C8CE0B81211
:10532000DCCFDF91CF911F910F91FF90EF90DF9035
:10533000CF90BF90AF909F908F907F906F905F9035
:1053400008958AEF90E0BDCF86EF90E0BACF2F921C
:105350003F924F925F926F927F928F929F92AF9205
:10536000BF92CF92DF92EF92FF920F931F93CF9352
:10537000DF93B82E2B011A01922EC6ECD1E0D12C6E
:10538000682E712C660C771CC30182579D4F3C011F
:1053900092E049165104B1F4E8E0DE121AC0DF9140
:1053A000CF911F910F91FF90EF90DF90CF90BF9022
:1053B000AF909F908F907F906F905F904F903F90B5
:1053C0002F900895F3E04F16510419F48CE0D8168D
:1053D000E9F0E880F9800A811B812C814D81AE8043
:1053E0008F8081E02114310449F0F10161817281E3
:1053F0006E217F2181E0672B09F080E09F92C82E0B
:10540000F30160818B2D0E94ED080F90D3942896B4
:10541000FDE0DF12BDCFC3CFFF920F931F93CF9359
:10542000DF93182FEB01E82FF0E0EE0FFF1FE2579C
:10543000FD4FF08007E023E041816F2D8BE995E07F
:105440000E94A90847E06F2D8BE995E00E9449076B
:10545000C430D10569F188F4C230D10531F18DED48
:1054600090E0C330D10589F083E091E0DF91CF91E6
:105470001F910F91FF900C948E08C530D105D9F083
:1054800085EC90E0C630D10579F70E948E08123085
:10549000A9F021E050E040E0BE01812FDF91CF91E3
:1054A0001F910F91FF900C94A72987EE90E0EDCF0C
:1054B00086ED90E0EACF8FEC90E0E7CFDF91CF91DF
:1054C0001F910F91FF900895DC0116961C9216977C
:1054D00017961C92179788E2E4E4F1E01896019081
:1054E0000D928A95E1F70895DC0117961C921797A3
:1054F00018961C9218971A961C921E9219978AE574
:10550000ECE6F1E01B9601900D928A95E1F7089583
:10551000E3ECF3E01382128288EE93E0A0E0B0E0C7
:1055200084839583A683B7838EE393E091838083FE
:105530008FEF9FEF95878487EBE9F5E01382128266
:10554000128614861386158681E0868780E593E0AF
:105550009183808386E395E00E94742A81ED94E034
:105560000E94742AE2EAF4E01582168288E2E9EAEF
:10557000F4E0DF01982F1D929A95E9F7E3E7F4E054
:1055800015821682EAE7F4E0DF011D928A95E9F7B9
:1055900083E494E00E94642A83E194E00C94642AFA
:1055A000789484B5826084BD84B5816084BD85B5FE
:1055B000826085BD85B5816085BD80916E0081600A
:1055C00080936E00109281008091810082608093B0
:1055D00081008091810081608093810080918000B2
:1055E000816080938000809191008260809391001F
:1055F0008091910081608093910080919000816002
:10560000809390008091C10084608093C10080915C
:10561000C10082608093C1008091C100816080934D
:10562000C1008091C30081608093C3008091C0005D
:1056300082608093C0008091C20081608093C2002C
:1056400080917A00846080937A0080917A008260F1
:1056500080937A0080917A00816080937A008091B3
:105660007A00806880937A001092BB031092A203A4
:105670001092A1038091D70081608093D70080EAC7
:105680008093D80089B5806189BD89B5826089BD64
:1056900009B400FEFDCF61E070E080E090E00E9480
:1056A00020038091D8008F7C80618093D800809106
:1056B000E000807F8093E0008091E1008E7E809307
:1056C000E1008DE08093E200559A209A56985E9A08
:1056D00090E080E00E94DA2E282F30E03093B00373
:1056E0002093AF03843030F081E090E09093B003DA
:1056F0008093AF038091AF039091B0038230910506
:1057000009F4DCC08330910509F4A1C1019709F0C7
:1057100067C1549A5C9A25982D982D9A24982C98B4
:105720002C9A6E987698769A57985F985F9A3E98DA
:105730004698469A3F984798479A10923E05C1E48A
:10574000D5E00FEF88248A94982C10E808831E86F1
:105750009A8289821B831C831D821E82CE010E9435
:105760009A062F9625E0CB39D20781F7229A2A9AFA
:1057700085988D988D9A86988E988E9A87988F980E
:105780008F9A21982998299A23982B982B9A2698B2
:105790002E982E9A1092D904CCEDD4E00FEF8824E5
:1057A0008A94982C10E808831E869A8289821B832B
:1057B0001C831D821E82CE010E949A062F9685E0D0
:1057C000C633D80781F783E290E00197F1F780EDC7
:1057D00097E02BE030E0369967C2F9013197F1F795
:1057E0000197C9F780913E05811151C082E08093F5
:1057F0002E01C0E0D0912E01CD1708F04AC08EE0F6
:1058000090E00E94F62E4C0143E04C0FAA24A39492
:10581000CC24C394EE24E39401E02D2F6AE573E0D9
:105820000E94C009EC2FF0E0EE0FFF1FED55FC4F7A
:1058300091828082CF5FDECF213009F085C2813036
:1058400009F082C24130510541F081E090E090932F
:10585000400580933F053F9A479AE1E040E0F1E040
:105860006BE070E04798342F3F2780ED97E026B13A
:1058700026FB222720F9321374C2DB011197F1F7BE
:105880000197A9F7AFCFE82F41E0479AECCF86E028
:10589000AECFC0E080912E01C81708F0BDC18C2F9B
:1058A0000E945F06EC2FF0E0EE0FFF1FED55FC4F5E
:1058B000808191810E94A109CF5FECCF1092A80452
:1058C000249A2C98259A2D9A6E987698769A549ABE
:1058D0005C9A3E984698469A2C9A8BE090E0019705
:1058E000F1F7369903C084E08093A8042C9883E1F3
:1058F00090E00197F1F710927904869A8E98859A34
:105900008D9A87988F988F9A229A2A9A23982B9803
:105910002B9A8E9A8BE090E00197F1F71B9903C0C8
:1059200084E0809379048E9883E190E00197F1F709
:1059300083E290E00197F1F78091A804811128C0DB
:1059400082E080932E0182E390E090932D0180937A
:105950002C01C0E0D0912E01CD1700F58EE090E033
:105960000E94F62E4C0143E04C0FA12CC12CE12CDF
:1059700000E02D2F64E673E00E94C009EC2FF0E0F8
:10598000EE0FFF1FED55FC4F91828082CF5FE2CF7B
:1059900086E080932E0188EE93E0D7CFC0E080911F
:1059A0002E01C81778F48C2F0E945F06EC2FF0E0D0
:1059B000EE0FFF1FED55FC4F808191810E94A109E0
:1059C000CF5FEDCF80912C0190912D018230910518
:1059D00038F0880F991F880F991F05970197F1F7E5
:1059E0001092AC058CE38093AB051092B90084E46F
:1059F0008093BC008CE08093B80010929F051092B9
:105A0000A005E4EDF3E085919491982EE6EDF3E0A6
:105A10001491E7EDF3E0E491E093A105E8EDF3E004
:105A2000E491E093A205E9EDF3E0E491E093A305AE
:105A3000C82FD92F8C2F8919811708F0F4C0FE01C7
:105A400064918BE995E00E9417072196F3CF3E9A67
:105A50004698549A5C9825982D982D9A24982C98BD
:105A60002C9A6E987698769A57985F985F9A1092CB
:105A70004A04E3E4F4E02BE634E08FEF9FEF118675
:105A8000108693878287158614869787868738962F
:105A90002E173F07A1F7239A2B98229A2A988598C8
:105AA0008D988D9A86988E988E9A87988F988F9ACF
:105AB00021982998299A10921A04E3E1F4E08FEFD3
:105AC0009FEF1186108693878287158614869787A5
:105AD0008687389624E0EB33F20799F783E290E06B
