:100000000C944E020C9476020C9476020C947602B8
:100010000C9476020C9476020C9476020C94760280
:100020000C9476020C9476020C94A6250C9415265A
:100030000C9476020C9476020C9476020C94760260
:100040000C9476020C9476020C9476020C94760250
:100050000C9476020C9476020C9476020C945C2537
:100060000C9476020C9476020C9476020C94760230
:100070000C9476020C9476020C9476020C94760220
:100080000C9476020C9476020C9476020C94760210
:100090000C9476020C9476020C9476020C94760200
:1000A0000C9476020C9476020C947602AED580A85D
:1000B0003FD300408D142002A1C8DA12817FD9F10C
:1000C000DB40A4A6AF5341542D574845454C00533F
:1000D00041542D33440053415455524E0047454E30
:1000E000455349532D360047454E455349532D330B
:1000F0000056424F59004E545400534E4553004E43
:100100004553004A4F47434F4E00464C49474854D9
:10011000535449434B004455414C53484F434B00C3
:100120004449474954414C004E4547434F4E0050C7
:100130004F50204E005041440047454E45534953CF
:10014000202B2053415455524E004E3634204F52EE
:100150004947494E414C2052414E47450050535863
:10016000004E4553202B20534E455300504C5547CD
:100170002B5245534554004E4F4E45004D554C545F
:10018000492D544150005245424F4F54494E472E3D
:100190002E2E004D554C54492D5441500000030C57
:1001A0000F30333C3FC0C3CCCFF0F3FCFF00000066
:1001B0000200090F0000030401000C000000000011
:1001C000000000000000000000000000080B00021A
:1001D00002020000090400000102020000052400E0
:1001E0001001052401010104240206052406000172
:1001F0000705810310004009040100020A00000005
:1002000007050202400000070583024000000403C6
:10021000090412010002EF020140D0167E12000113
:1002200001020301556E6B6E6F776E005265666C4E
:100230006578204164617074005245464C45580011
:10024000000005072061000000000000005F0000C2
:100250006070787060605048506003070F070303B8
:1002600005090503081C3E7F7F081C22417F7F7F14
:100270003E1C087F41221C08082A1C2A0808083E48
:1002800008080050300000080808080800606000F6
:100290000020100804023E5149453E00427F4000C4
:1002A00042615149462141454B311814127F1027B4
:1002B000454545393C4A49493001710905033649EC
:1002C000494936064949291E00363600003C7E7EE3
:1002D0007E3C3C4242423C1414141414F0F0F0F002
:1002E000F0F0909090F0324979413E7E1111117EEC
:1002F0007F494949363E414141227F4141221C7F8D
:10030000494949417F090901013E414151327F0874
:1003100008087F00417F41002040413F017F0814D1
:1003200022417F404040407F0204027F7F0408104A
:100330007F3E4141413E7F090909063E4151215E10
:100340007F09192946464949493101017F01013F89
:100350004040403F1F2040201F7F2018207F631413
:100360000814630304780403615149454300007F86
:100370004141020408102041417F0000383C1E0F1B
:100380000740404040403824120907205454547814
:100390007F484444383844444420384444487F38F3
:1003A00054545418087E090102081454543C7F0820
:1003B00004047800447D40002040443D00007F104C
:1003C000284400417F40007C041804787C08040421
:1003D0007838444444387C14141408081414187CE5
:1003E0007C080404084854545420043F4440203CF2
:1003F0004040207C1C2040201C3C4030403C442895
:100400001028440C5050503C4464544C44E0E0E00C
:10041000E0E000007F0000E0A0A0A0E008082A1CA7
:1004200008081C2A08080006090906AC00198040C3
:1004300000000000002300260029002C002F0000EF
:10044000000000250028002B002E003100000000D5
:1004500000240027002A002D0030000404040404B6
:100460000304050202020204030202020206060657
:1004700006060604040202020404040802011040F5
:1004800080401020408040800802040180402010FD
:1004900002011080102040402000332B11241FBE89
:1004A000CFEFDAE0DEBFCDBF26E0AAE6B4E001C0C0
:1004B0001D92A932B207E1F714E0A0E0B1E0E4E058
:1004C000F2E602C005900D92AA36B107D9F712E004
:1004D000CEE4D2E004C02197FE010E94C02FCD34AB
:1004E000D107C9F70E94B62B0C9400310C94000080
:1004F00090E0FC01E658FB4F2491855A9B4FFC018C
:100500008491882399F090E0880F991FFC01E35BA8
:10051000FB4FA591B491FC01E15CFB4F8591949157
:100520008FB7F894EC91E22BEC938FBF0895CF93A3
:10053000DF93FA013081322B3083DB013C91322B87
:100540003C9340816081422B50E030E02095309513
:1005500070E02623372361E0EC01A99178E0208345
:10056000AA0F40F4B4E0BA95F1F74083BAE0BA9527
:10057000F1F705C0BEE0BA95F1F7000040837A9527
:1005800029F0B3E0BA95F1F70000E9CF6A9529F0B8
:10059000B1E0BA95F1F70000E0CFB2E0BA95F1F71B
:1005A000000000002083B4E0BA95F1F700000000DD
:1005B0004083DF91CF910895FC01611109C08181D1
:1005C0009281807F480F592F511D52834183089596
:1005D000613051F4818192818F7020E1429FA001AE
:1005E0001124480F591FF1CF623039F48181928173
:1005F000907F50E0542F4427F4CF633049F4818139
:1006000092819F7050E0542F44275295507FE9CF3C
:10061000643011F443830895653011F444830895E0
:10062000663011F445830895673009F446830895D0
:10063000FC018091C904882311F13FB7F89482E04E
:100640008093E9002091F200822F90E0181619069D
:1006500014F481E090E0882339F0289844E6409330
:10066000C8044091F1004083222339F02091F20028
:10067000211103C02BE62093E8003FBF08958FEFC0
:100680009FEF0895CF93DF931F92CDB7DEB76983B5
:10069000DC01ED91FC910280F381E02D41E050E01E
:1006A000BE016F5F7F4F09950F90DF91CF91089545
:1006B00083E08093E9008091F200882319F08AE3B7
:1006C0008093E8000895CF93DF931F92CDB7DEB7F4
:1006D000FC018485958597FD08C02FEF3FEF358796
:1006E00024870F90DF91CF910895CE0101960E944B
:1006F0001803019719F4898190E0F3CF8FEF9FEFF2
:10070000F0CF0F931F93CF93DF931F92CDB7DEB738
:100710008C01FC018485958597FF0BC0CE01019665
:100720000E941803019771F4898190E0F801958780
:100730008487F801848595850F90DF91CF911F9173
:100740000F9108958FEF9FEFF1CFFC018485958580
:1007500097FD0BC09FB7F89482E08093E9008091E9
:10076000F2009FBF90E0019608959FB7F89482E051
:100770008093E9008091F2009FBF90E008953FB719
:10078000F8948091C4049091C504A091C604B091DE
:10079000C70426B5A89B05C02F3F19F00196A11DDF
:1007A000B11D3FBFBA2FA92F982F8827BC01CD01BB
:1007B000620F711D811D911D42E0660F771F881F1A
:1007C000991F4A95D1F708958F929F92AF92BF9249
:1007D000CF92DF92EF92FF924B015C010E94BF0328
:1007E0006B017C010E94BF036C197D098E099F0972
:1007F000683E734081059105A8F321E0821A9108B3
:10080000A108B10888EEC80E83E0D81EE11CF11CD7
:1008100081149104A104B10429F7FF90EF90DF90B7
:10082000CF90BF90AF909F908F9008952FB7F8947E
:100830006091C0047091C1048091C2049091C3047E
:100840002FBF08954091A3045091A4042091A104C6
:100850003091A20442175307B4F49091E8009570C8
:10086000E1F39091E80092FD19C08093F10080912E
:10087000A3049091A40401968F739927892B19F4EE
:100880008EEF8093E8008091A3049091A4040196D8
:100890009093A4048093A30481E0089580E00895D8
:1008A000EF92FF920F931F93CF93DF93F82E192FA0
:1008B000E62E042F81E0860F880F0E94220483E039
:1008C0000E942204CF2DD12FEC0EFD2EF11CCE154F
:1008D000DF05B9F007FF13C0FE0184910E942204D6
:1008E000182F80E00E942204812321968111EFCFEE
:1008F000DF91CF911F910F91FF90EF900895888124
:10090000EDCF81E0F5CFDF92EF92FF920F931F932F
:10091000CF93DF93D82E8A01EB017B01E40EF51E05
:10092000CE15DF0559F0D7FE12C0FE0184910E945A
:10093000220421968111F4CF0FEF1FEFC801DF9140
:10094000CF911F910F91FF90EF90DF9008958881D4
:10095000EECF2FB7F89487708093E9009091E8006C
:10096000892F807295FF04C09091F20080E4891B6A
:100970002FBF089583E00E94A90490E008957F921C
:100980008F929F92AF92BF92CF92DF92EF92FF929F
:100990000F931F93CF93DF93C82E8B017A01809121
:1009A000C904811110C08FEF9FEFDF91CF911F918C
:1009B0000F91FF90EF90DF90CF90BF90AF909F90FE
:1009C0008F907F9008958091A70480FF05C080914B
:1009D000E00082608093E000CE2DDF2DD12C8AEFE5
:1009E000B82E8C2D8770982E8C2D8072882E8C2D91
:1009F0008074782E9AE3A92E209719F4DD2009F44B
:100A000052C08C2D0E94A90481110AC0BA94BB2047
:100A100051F261E070E080E090E00E94E403ECCFEE
:100A20008C171D0611F00CF08C2F9FB7F894909244
:100A3000E9002091E80025FD02C09FBFDDCF282FEF
:100A400030E0C21BD30B882029F08150A0F0109217
:100A5000F100FBCFF801C7FC0AC0815050F0419172
:100A60004093F100FACF44914093F10031968150C8
:100A7000D0F7020F131FDD2021F0A092E800D12C47
:100A8000DCCF8091E80085FD07C0A092E800DD245E
:100A9000D394209791F2F3CF209779F6772069F2DB
:100AA000A092E800CACF5D9884E68093A604C701AF
:100AB0007CCFCF93DF93EC0180913101882331F01B
:100AC00083E00E94BF041816190634F081E090E01C
:100AD0009B838A8380E090E0DF91CF9108956150FD
:100AE00030F02091F100FC0120830196F8CF289886
:100AF00084E68093C8040895AF92BF92CF92DF92AC
:100B0000EF92FF920F931F93CF93DF936C017B01C2
:100B10008B01040F151FEB015E01AE18BF08C01753
:100B2000D10759F06991D601ED91FC910190F081C6
:100B3000E02DC6010995892B79F7C501DF91CF9189
:100B40001F910F91FF90EF90DF90CF90BF90AF90EB
:100B500008958091990481110DC082E080939504DD
:100B600084E080939604109298041092970481E098
:100B70008093990485E994E008950F931F93CF9390
:100B8000DF931F92CDB7DEB782E0898342E450E065
:100B90006CEC71E080E80E9483040E94A905DC01EE
:100BA00012960D911C910115110589F0D801ED9156
:100BB000FC910280F381E02DBE016F5F7F4FC80181
:100BC000099597FD04C0F80100851185ECCF898156
:100BD0000F90DF91CF911F910F910895CF93CFB7D1
:100BE000F8948091940481115AC04CE654E0FA01C3
:100BF00094912BE834E0F9018491E92FF0E0EE0FB5
:100C0000FF1FE35BFB4FA591B4919C91982309F0E2
:100C100037C0EEEBF1E09491F9012491FA0184914F
:100C2000882309F42DC09923E9F091509F30D0F426
:100C3000E92FF0E0E25EF94F0C94C02F5F066306E7
:100C40002D0657065B0632063206320666066C062D
:100C5000700674067A0632067E06909180009F77B1
:100C600090938000E82FF0E0EE0FFF1FE15CFB4F58
:100C7000A591B4918FB7F8949C91292B2C938FBF99
:100C800081E10E9478028CB580618CBD8CB5806456
:100C90008CBD8FE00E94780280E10E9478028091F2
:100CA00094048F5F80939404CFBFCF910895909167
:100CB00080009F7DD5CF90918000977FD1CF94B554
:100CC0009F7794BDCFCF94B59F7DFBCF909190003F
:100CD0009F7790939000C6CF909190009F7DF9CF21
:100CE00090919000977FF5CF9091C0009F7790935F
:100CF000C000B8CF9091C0009F7DF9CF9091C20005
:100D0000977F9093C200AECFCF93DF93EC018A859B
:100D1000882329F081508A87DF91CF9108959C81A3
:100D20008E819817C8F78D856827E881F98100843E
:100D3000F185E02D42E0CE0109958C818F5F8C8397
:100D4000EBCFEF920F931F93F901DA012C913E2D17
:100D5000309532233C9330813E293083FC01D80109
:100D600098E080E030E020E04C914E2189F02A9517
:100D7000D9F720E04C914E2159F02A95D9F720E877
:100D80004C914E2129F02A95D9F73A9561F717C071
:100D900047E04A95F1F7000031E0550F4C914E21A4
:100DA00009F051609A9529F45193839598E068175A
:100DB00031F020E84C914E2111F72A95D9F71F9177
:100DC0000F91EF9008959F92AF92BF92CF92DF92D2
:100DD000EF92FF920F931F93CF93DF93DB016A0192
:100DE000F22E282F30E0F901E658FB4FE490255A07
:100DF0003B4FF901249130E0220F331FF901E35BEF
:100E0000FB4FC591D491F901E15CFB4FA590B490E3
:100E1000F901EF5CFB4F059114919FB6F8942E2DCC
:100E2000A501BE01CD010E9497029501AE016F2D73
:100E3000C6010E94A1069FBEDF91CF911F910F9125
:100E4000FF90EF90DF90CF90BF90AF909F9008956C
:100E5000FC018FE086838FE7878380871186128667
:100E600013860895DC01FB0112962C911297848160
:100E700095812817190641F491818081813A31F4D6
:100E80009D7F81E0913009F080E008958132E1F7A3
:100E90009B3029F482811F968C9381E008959A30CB
:100EA00099F7828150968C93F8CFEF92FF920F932F
:100EB0001F93CF93DF93FB012081213889F5238194
:100EC000223271F5DC0112964C9124813581421752
:100ED000130631F58C01FC01C385D485F12CE12C7E
:100EE000209791F04C815D816A817B818E81811197
:100EF00080E80E9483048F3F980759F0E80EF91E9E
:100F00000990D881C02DECCF81E0D8011F968C9339
:100F1000C701DF91CF911F910F91FF90EF9008953E
:100F200090E080E0F6CFCF93DF93CDB7DEB769973F
:100F30000FB6F894DEBF0FBECDBFFC01DB018C9174
:100F40008F5F8C939E012D5F3F4F8DE0D9011D92E5
:100F50008A95E9F729E0298384E08A8391E09D83DB
:100F600083E08E832A8721E22B879C879D879F873A
:100F700022E2288B27E02B8B25E02C8B8E8B20E424
:100F800030E0388F2F8B998F82818B839585868572
:100F9000998B8A8B838180688D8B49E150E0BE01FB
:100FA0006F5F7F4F80E00E94830469960FB6F894CC
:100FB000DEBF0FBECDBFDF91CF91089523B14FB1FA
:100FC0003FB15FB126952170220F220F220F441FDF
:100FD0004427441F440F440F240F55FB442740F976
:100FE000240F36FB332730F9330F230F019721F0FD
:100FF0001B9920611E992062822F089559B13CB13E
:1010000043B163B136FB222720F9220F220F352F7F
:10101000331F3327331F330F330F330F230F65FB7A
:10102000332730F9230F44FB332730F9330F230FD5
:10103000019721F03699206137992062822F089517
:101040008FB7F894809193048FBF089584E98093BB
:10105000BC0085E69091BC0094FF03C08150D1F79D
:10106000089581E008956EBD00000DB407FEFDCF28
:101070008EB508952A9A299A8C9A83EC90E001976C
:10108000F1F708952A9A299A469A83EC90E00197FD
:10109000F1F708958091BD049091BE0401968530CA
:1010A00091052CF49093BE048093BD04089581E0D3
:1010B00090E0F8CFCF93DF93909129018917B0F496
:1010C000C82FD0E0CC0FDD1FCF54DB4F8881998132
:1010D000DC01ED91FC910190F081E02D0995E88112
:1010E000F9818FE78783808781878287DF91CF911E
:1010F00008950F931F93CF93DF931F92CDB7DEB761
:101100008C01FC0180819181892BD1F48781198226
:1011100023E0A801BE016F5F7F4F0E94E30683308A
:1011200059F0F80110821182128280E00F90DF9155
:10113000CF911F910F9108958BE891E00197F1F7FE
:10114000F801878191E0998324E0A8014D5F5F4F0A
:10115000BE016F5F7F4F0E94E306843011F781E08C
:10116000E5CF8CBD9DBD08958C9880912905909107
:101170002A050E94B10883EC90E00197F1F70895E9
:1011800046988091290590912A050E94B10883EC28
:1011900090E00197F1F708958F929F92AF92BF92DE
:1011A000CF92DF92EF92FF920F931F93CF93DF9333
:1011B0007C016B015A01022F10E0D0E0C0E083EC0B
:1011C000882E912CC017D107E1F0D701ED91FC9149
:1011D0000480F581E02D6AE5C114D10421F0D60127
:1011E000AC0FBD1F6C91C7010995A114B10421F08A
:1011F000F501EC0FFD1F8083C4010197F1F72196E3
:10120000E1CFDF91CF911F910F91FF90EF90DF9091
:10121000CF90BF90AF909F908F900895CF92DF9224
:10122000EF92FF920F931F93CF93DF937C016B019B
:10123000D42F8C010E5F1F4F23E0A8010E94CC0821
:10124000F70123812F3F61F410E000E0C801DF9136
:10125000CF911F910F91FF90EF90DF90CF90089565
:1012600084818A3511F08111EFCF2F70C22FCC0FFE
:10127000D33059F0B6016D5F7F4F2DEF2D0FA701D1
:101280004B5F5F4FC7010E94CC082C2F2D1B2D5F99
:10129000E9F24D2F50E0CA01820F911D8197A4F60B
:1012A000400F511F70E060E0C7010E94CC08CECF14
:1012B000AF92BF92CF92DF92EF92FF920F931F9364
:1012C000CF93DF9300D000D01F92CDB7DEB78C0153
:1012D000DC019C961C929C97D9961C92D997ED9113
:1012E000FC910190F081E02D0995F80182AD81110A
:1012F00008C083AD803409F083C084AD813009F02B
:101300007FC085E0EAE0F2E0DE01119601900D92E7
:101310008A95E1F7D80196968D919C9197970697BB
:1013200009F068C0DD968C918C8345E0BE016F5F4B
:101330007F4FC8010E940E097C01D801ED91FC91FC
:101340000280F381E02DC8010995E114F10409F44C
:1013500040C0F7018181807F803F09F055C00E9425
:1013600016046B017C01D801ED91FC910190F08194
:10137000E02DC801099544E061E072E0C8010E94D7
:101380000E095C01D801ED91FC910280F381E02D02
:10139000C8010995A114B10429F0F5018181807F6C
:1013A000803F89F46AE070E080E090E00E94E4030E
:1013B0000E9416046C197D098E099F096B3F710507
:1013C0008105910580F262E370E080E090E00E9488
:1013D000E40380E00F900F900F900F900F90DF913B
:1013E000CF911F910F91FF90EF90DF90CF90BF9022
:1013F000AF900895F80183AD8C8384AD8D8395CF34
:1014000043E06AE072E095CFD80194968D919C916B
:10141000959793969C938E9392972381348195967A
:101420003C932E93949781818937B9F483E090E0BF
:1014300097969C938E939697D80196968D919C91B2
:1014400097978430910591F150F58230910571F1B3
:10145000039709F441C081E0BDCF982F907F90376A
:1014600021F482E090E0D801E3CF903531F484E0BC
:1014700090E0F80197A386A3DFCF833219F485E0CB
:1014800090E0F1CF903E19F486E090E0F2CF833601
:1014900019F487E090E0E7CF81E090E0EACF863072
:1014A000910509F45CC030F10797A9F681E0D801F5
:1014B0009C968C939C97F70185819A968C939A972A
:1014C00086819B968C939B97878198968C9398970F
:1014D000808599968C93BFCF81E0F80181AFF701A9
:1014E00039969D96C701459621912D93E817F907E6
:1014F000D9F7DCCF81E09C968C939C97F70195817E
:1015000098969C939897D9968C93D9978681D396E1
:101510008C93D3979781D4969C93D4974085D596F6
:101520004C93D59797FF05C03F7795963C932E93A4
:10153000949787FF0AC0D80194968D919C919597B6
:101540009F7B95969C938E939497403F08F483CF0E
:10155000F80184A195A19B7F95A384A37CCF81E012
:101560009C968C93F7019681858197FD1AC087FD23
:101570008FE7D80198968C93D80198968C9198977C
:10158000805898968C939897F70185819D968C93B7
:101590009D9786819E968C939E9787819F968C932C
:1015A0005ACF813808F481E8F80180A7E5CF9091FF
:1015B0002901891778F4E82FF0E0EE0FFF1FEF54B0
:1015C000FB4F80819181DC01ED91FC910190F081D4
:1015D000E02D09940895FC019081911107C0838149
:1015E00094810196B1F090E080E008959F3051F42D
:1015F000228130E02F7033272F30310581F482E0D3
:1016000090E00895923041F0943049F485E090E004
:10161000089583E090E0089584E090E0089581E0EB
:1016200090E00895FC018081878381819281918778
:10163000808783818287848183878581848786816F
:1016400085870895FC016093BC002FEF3FEF8091E8
:10165000BC0087FF06C09091B900987F908381E01D
:1016600008952150310999F780E00895CF93DF93D1
:10167000EC016093BB0064E80E94220B882329F0F0
:1016800081E09881983209F080E0DF91CF91089550
:10169000DF92EF92FF920F931F93CF93DF93EC01B2
:1016A000D62EF42E8989882329F0411103C00E9487
:1016B0002608198A8E01015F1F4F8989811119C07F
:1016C000E88864EAC8010E94220B882361F08F85B4
:1016D000883011F0803139F4EE0CE092BB0064E800
:1016E000C8010E94220B60E0F11060E4C8010E9472
:1016F000360B6D2DC8010E94360B82E0F8120BC02C
:1017000089898F5F898BDF91CF911F910F91FF9016
:10171000EF90DF9008950E942608198AF4CFDC012B
:10172000ED91FC910084F185E02D40E00994FC01ED
:101730002781269526952695621720F46583606B90
:101740000C948F0B08950F931F93CF93FC01268168
:10175000621798F4C62F8C0164836085C60F6C2FC6
:101760006F700E948F0B6C2F62956F706061C80163
:10177000CF911F910F910C948F0BCF911F910F91CF
:1017800008951F93CF93DF93EC01142F0E94A30BB6
:10179000612FCE01DF91CF911F910C94970B2F9267
:1017A0003F924F925F926F927F928F929F92AF92F1
:1017B000BF92CF92DF92EF92FF920F931F93CF933E
:1017C000DF9300D000D000D0CDB7DEB7FC01238579
:1017D00034852115310509F416C19E838D83F901E5
:1017E0003296649031964491E42EF12CF7E0EF0E9E
:1017F000F11C53E0F594E7945A95E1F7E982F90179
:10180000349654913196E4916D30F1F460E00E9489
:10181000A30B81E090E026960FB6F894DEBF0FBED2
:10182000CDBFDF91CF911F910F91FF90EF90DF908F
:10183000CF90BF90AF909F908F907F906F905F9070
:101840004F903F902F9008956A3081F460E08D8131
:101850009E810E94A30BED81FE81868565818E9D10
:10186000600D1124CF010E94970BD3CF651708F4A8
:10187000CAC08E2F90E0FC01E50FF11D6E171F0608
:101880000CF0C1C089010A5F1F4F651BED81FE810D
:1018900071855685759F502D11245C83F9015491F3
:1018A0002F5F3F4FF9012491352F2230310508F089
:1018B0006AC06E9CC0016F9C900D1124689FF0015E
:1018C000699FF00D11240E0F1F1F512CED81FE8119
:1018D000F481FA83ED81FE812580F285FB83862CDD
:1018E000912CAA24A394B12C312C8981381608F0AC
:1018F00086C0412CED81FE818685481608F078C0AF
:101900008B818287311002C0442041F0ED81FE813D
:1019100045814F5F6A81CF010E94C10BD12CC12C40
:10192000C61408F058C0F801EC0DFD1D7490552048
:1019300061F0EA14FB0449F4E72DF0E0052C02C045
:10194000F595E7950A94E2F77E2EED81FE81868576
:10195000823081F4442009F43AC072948FE07822F6
:10196000E72DF0E0E356FE4F7490672D8D819E8148
:101970000E948406672D8D819E810E9484068FEFD0
:10198000C81AD80ACDCF477028E0522E541A4111F8
:1019900001C0512CF801612C30E020E0661631F0D6
:1019A0004491240F311D63943196F8CF600E712E4F
:1019B000711CF3016490E29EF001E39EF00DF29E33
:1019C000F00D11248E0F9F1F080F191F7FCFF72DC9
:1019D000FF707F2EC5CFD12CEC81DE1639F060E090
:1019E0008D819E810E948406D394F6CF439482CF4A
:1019F0003394080D191DFFEFAF1ABF0A76CF622D81
:101A00008D819E8130CF90E080E005CF0F931F93B2
:101A1000CF93DF938C01D0E0C0E0F801EC0FFD1F05
:101A20006491662341F083E196E00E94CF0B892BFD
:101A300011F02196F2CFCE01DF91CF911F910F913E
:101A40000895CF92DF92EF92FF920F931F93CF935F
:101A5000DF93EC01F62EC42ED22E1A868F81869546
:101A600086958695081710F00FEF080F1D2D0117AA
:101A700080F0412F6F2DCE010E94C10BEF2CCE14B0
:101A800030F06D85CE010E948406E394F8CF1F5F8D
:101A9000EECF4D2D6F2DCE01DF91CF911F910F9184
:101AA000FF90EF90DF90CF900C94C10B0F93FC014F
:101AB000078106950695069501504681415020E024
:101AC00060E00E94210D0F9108954F925F926F92F6
:101AD0007F928F92AF92CF92EF92FF920F931F93CC
:101AE000CF93DF93CDB7DEB72701380194E0899F0C
:101AF00080011124F801E659FB4F80819181A28178
:101B0000B3818E219521A621B72131E0892B8A2B23
:101B10008B2B09F430E03C1103C08889882301F144
:101B2000C11001C0A82C2D5F640F422F83E196E005
:101B30000E94C10B6A2D83E196E00E94CF0BF80151
:101B4000E659FB4FCC20D1F080819181A281B381F5
:101B500084299529A629B72980839183A283B383F9
:101B6000DF91CF911F910F91FF90EF90CF90AF90A9
:101B70008F907F906F905F904F9008954094509415
:101B80006094709480819181A281B3818421952198
:101B9000A621B721E1CF8F929F92AF92BF92CF92B1
:101BA000DF92EF92FF920F931F93CF93DF93D82E84
:101BB000C62FE82FF0E0EE0FFF1FE95AFC4FB08070
:101BC00007E023E041816B2D83E196E00E94210D27
:101BD00047E06B2D83E196E00E94C10BC13069F5AF
:101BE00085E391E00E94060D81E08D15C8F0C7EEF7
:101BF000D2E099249394E880F9800A811B819F9216
:101C00008F80AE80CC24C3942C814D816B2D8D2D83
:101C10000E94650D28960F9083E0C735D80759F7C5
:101C2000DF91CF911F910F91FF90EF90DF90CF90B8
:101C3000BF90AF909F908F90089587E791E0DF91DC
:101C4000CF911F910F91FF90EF90DF90CF90BF90B9
:101C5000AF909F908F900C94060D0F9307E022E0B9
:101C60004FE760E083E196E00E94210D8091BD0482
:101C70009091BE0482309105E1F020F4019779F053
:101C80000F91089583309105E1F00497C9F766E05C
:101C900083E196E00E94A30B8AE491E007C06CE028
:101CA00083E196E00E94A30B89E391E00F910C94ED
:101CB000060D64E283E196E00E94A30B81E691E0C9
:101CC000F5CF66E383E196E00E94A30B8DE591E0FA
:101CD000EDCF809308016EEA81116FEA83E196E00F
:101CE0000E948F0B0E941604609376047093770411
:101CF00080937804909379040895FC01448550E022
:101D0000A585B0E0AA0FBB1FA453BB4F0D90BC919B
:101D1000A02D13968C9180649091D004BF019923DB
:101D200021F06E5F7F4F0C94BF046D5F7F4FFBCF40
:101D3000089590E080E008952F923F924F925F9235
:101D40006F927F928F929F92AF92BF92CF92DF92CB
:101D5000EF92FF920F931F93CF93DF93CDB7DEB730
:101D6000C456D1090FB6F894DEBF0FBECDBF2C010B
:101D70001B01942ED22EBE2C8BEF93E0D2018D93BB
:101D80009C93822F90E00196959587959091CA0437
:101D9000981750F09091CB0411E0EE24E394F12CCD
:101DA000981728F012E075C010E0F12CE12CF70133
:101DB000E653FB4F81E0890F808391116AC083E174
:101DC00090E00E94C62F3C0181E0F301848385836B
:101DD0009301265F3F4F37832683118610862FEEAF
:101DE00033E0318320831486138616861586878711
:101DF000808B328A218A81EC82870E94A905FC01AE
:101E00008181D30114965C91682F650F7727771F26
:101E100068307105BCF5A281B381109739F57382E2
:101E200062829081D30112969C93129713968C93A1
:101E3000139715968C91890F808390E080E0851729
:101E400008F54181A42FB0E0BD016E5C7E4FD30147
:101E500016962D913C91280F391FD9012C91DB0149
:101E60002C934F5F41830196EACFD90118962D91AB
:101E70003C91199721153105C1F719967C926E9204
:101E80001897CFCFF701EE0FFF1FE453FB4F71827E
:101E90006082F201158781E08D1508F080E0809363
:101EA000D00481E094E0D20111969C938E93129617
:101EB0009C9212972C2D2A0D2B0D200FEA963FACE9
:101EC000EA97380C822F830D95E0980F1C969C930F
:101ED00035E0398391E09A8349E04B833C8331EAD2
:101EE0003D839E839D1508F0EEC385E88F83988619
:101EF00098E0E1E0F0E0EC0FFD1FE90FF11D45E097
:101F00004083E1E0E90F66246394712C6C0E7D1E22
:101F10006E0E711CF30159E05083E2E0E90FEE24EC
:101F2000E394F12CEC0EFD1EEE0EF11CF70189E19D
:101F30008083E3E0E90F61E070E06C0F7D1F6E0FBE
:101F4000711DFB0131E03083E4E0E90FA1E0B0E076
:101F5000AC0FBD1FAE0FB11DFD0189E28083E5E02E
:101F6000E90F66246394712C6C0E7D1E6E0E711C3D
:101F7000F30188E18083E6E0E90FEE24E394F12C9D
:101F8000EC0EFD1EEE0EF11CF701A5E19A2E9082DB
:101F9000E7E0E90F61E070E06C0F7D1F6E0F711DCF
:101FA000FB011082E8E0E90FA1E0B0E0AC0FBD1F3B
:101FB000AE0FB11DFD01B5E2FB2EF082E9E0E90FA5
:101FC00066246394712C6C0E7D1E6E0E711CF301E1
:101FD0003083EAE0E90F61E070E06C0F7D1F6E0F67
:101FE000711DFB0175E77083EBE0E90FA1E0B0E044
:101FF000AC0FBD1FAE0FB11DFD013083ECE0E90F4A
:1020000066246394712C6C0E7D1E6E0E711CF301A0
:1020100065E96083EDE0E90FA1E0B0E0AC0FBD1F22
:10202000AE0FB11DFD018083EEE0E90F66246394DD
:10203000712C6C0E7D1E6E0E711CF30181E8808385
:10204000EFE0E90FA1E0B0E0AC0FBD1FAE0FB11D96
:10205000FD01B2E0DB2ED082E0E1E90F662463945B
:10206000712C6C0E7D1E6E0E711CF3014083E1E13C
:10207000E90FA1E0B0E0AC0FBD1FAE0FB11DFD0137
:102080003083E2E1E90F66246394712C6C0E7D1EAF
:102090006E0E711CF3015083E3E1E90FA1E0B0E0A3
:1020A000AC0FBD1FAE0FB11DFD0149E34083E4E15C
:1020B000E90F66246394712C6C0E7D1E6E0E711CEC
:1020C000F3019082E5E1E90FA1E0B0E0AC0FBD1FA4
:1020D000AE0FB11DFD011082E6E1E90F66246394A5
:1020E000712C6C0E7D1E6E0E711CF301F082E7E107
:1020F000E90FEE24E394F12CEC0EFD1EEE0EF11C24
:10210000F70147E04083E8E1E90FA1E0B0E0AC0F60
:10211000BD1FAE0FB11DFD0145E34083E9E1E90FAD
:1021200066246394712C6C0E7D1E6E0E711CF3017F
:102130001082EAE1E90FEE24E394F12CEC0EFD1E8F
:10214000EE0EF11CF70146E44083EBE1E90FA1E05C
:10215000B0E0AC0FBD1FAE0FB11DFD014BE34083DE
:10216000ECE1E90F66246394712C6C0E7D1E6E0EFB
:10217000711CF3013083EDE1E90FEE24E394F12CBF
:10218000EC0EFD1EEE0EF11CF70145E64083EEE17C
:10219000E90FA1E0B0E0AC0FBD1FAE0FB11DFD0116
:1021A00044E14083EFE1E90F66246394712C6C0EE7
:1021B0007D1E6E0E711CF3017083E0E2E90FEE24C8
:1021C000E394F12CEC0EFD1EEE0EF11CF70148E03D
:1021D0004083E1E2E90FA1E0B0E0AC0FBD1FAE0F1C
:1021E000B11DFD016083E2E2E90F66246394712C66
:1021F0006C0E7D1E6E0E711CF3013083E3E2E90F5D
:10220000EE24E394F12CEC0EFD1EEE0EF11CF70112
:102210008083E5E2E90F84E2890FEE24E394F12C58
:10222000EC0EFD1EE80EF11CD701DC92222309F40E
:1022300004C166246394712C6C0E7D1E6E0E711C9D
:10224000F3015083E6E2E90FEE24E394F12CEC0E67
:10225000FD1EEE0EF11CF7013083E7E2E90FA1E06D
:10226000B0E0AC0FBD1FAE0FB11DFD019082E8E2E2
:10227000E90F66246394712C6C0E7D1E6E0E711C2A
:10228000F3011082E9E2E90FEE24E394F12CEC0E65
:10229000FD1EEE0EF11CF70186E28083EAE2E90FF3
:1022A000A1E0B0E0AC0FBD1FAE0FB11DFD018FEF7F
:1022B0008083EBE2E90F66246394712C6C0E7D1E23
:1022C0006E0E711CF3011082ECE2E90FEE24E39430
:1022D000F12CEC0EFD1EEE0EF11CF7017083EDE209
:1022E000E90FA1E0B0E0AC0FBD1FAE0FB11DFD01C5
:1022F0004083EEE2E90F66246394712C6C0E7D1E20
:102300006E0E711CF3016083EFE2E90FEE24E3949B
:10231000F12CEC0EFD1EEE0EF11CF7012083E0E324
:10232000E90F21E030E02C0F3D1F2E0F311DF90188
:1023300081EA808382E3890FE1E3E90F61E070E0E5
:102340006C0F7D1F6E0F711DFB011082002391F039
:10235000E1E0F0E0EC0FFD1FE80FF11D508384E396
:10236000890F9D5CE1E0F0E0EC0FFD1FE90FF11D2E
:1023700090E39083BB20A1F0E1E0F0E0EC0FFD1FC3
:10238000E80FF11D99E09083E1E0E80FA1E0B0E0F3
:10239000AC0FBD1FAE0FB11DFD0191E390838E5FA9
:1023A000CC20A9F0E1E0F0E0EC0FFD1FE80FF11DFB
:1023B00099E09083E1E0E80F66246394712C6C0E41
:1023C0007D1E6E0E711CF30192E390838E5FAA2036
:1023D000A9F0E1E0F0E0EC0FFD1FE80FF11D99E03E
:1023E0009083E1E0E80FEE24E394F12CEC0EFD1E67
:1023F000EE0EF11CF70195E390838E5FE1E0F0E0D3
:10240000EC0FFD1FE80FF11D91E89083E1E0E80F6C
:1024100021E030E02C0F3D1F2E0F311DF90192E01D
:102420009083E3E0E80F8E5F61E070E06C0F7D1F4A
:10243000680F711D20ECDB012C93332009F4E8C0F8
:1024400025E081E090E08C0F9D1F8E0F911DDC0137
:102450002C9381E08E0F66246394712C6C0E7D1E8C
:10246000680E711C22E0D3012C9382E08E0F66244B
:102470006394712C6C0E7D1E680E711C25E1D301D6
:102480002C9383E08E0F66246394712C6C0E7D1E5A
:10249000680E711CD3011C9284E08E0F6624639435
:1024A000712C6C0E7D1E680E711C26E2D3012C93DC
:1024B00085E08E0F66246394712C6C0E7D1E680E71
:1024C000711C2FEFD3012C9386E08E0F662463944A
:1024D000712C6C0E7D1E680E711CD3011C9287E05E
:1024E0008E0F66246394712C6C0E7D1E680E711C19
:1024F00025E7D3012C9388E08E0F66246394712C1A
:102500006C0E7D1E680E711C28E0D3012C9389E0AF
:102510008E0F66246394712C6C0E7D1E680E711CE8
:1025200025E9D3012C938AE08E0F66246394712CE5
:102530006C0E7D1E680E711CD3013C92ABE0AE0F99
:1025400066246394712C6C0E7D1E6A0E711CD3017F
:1025500081EA8C934DE04E0F8CE08E0FEE24E394D5
:10256000F12CEC0EFD1EE80EF11CD7011C92882008
:10257000A9F0A1E0B0E0AC0FBD1FA40FB11D89E030
:102580008C934FE04E0FE25F66246394712C6C0EC7
:102590007D1E6E0E711CF3018BEB8083EA967FAC7F
:1025A000EA977720A9F0E1E0F0E0EC0FFD1FE40FDF
:1025B000F11D89E08083E1E0E40FEE24E394F12C47
:1025C000EC0EFD1EEE0EF11CF70185EC80834E5FD4
:1025D000E1E0F0E0EC0FFD1FE40FF11D81E88083E6
:1025E000E1E0E40F21E030E02C0F3D1F2E0F311D04
:1025F000F90182E08083E3E0E40FA2E0A40F61E050
:1026000070E06C0F7D1F6A0F711DDB0180EC8C93F5
:10261000A1E0B0E0AC0FBD1FAE0FB11D80EC8C93FC
:10262000EF5FEE2EF12CC7010E94C62F6C01A701AF
:10263000BE016F5F7F4F0E94F03087E090E00E9404
:10264000C62FDC0111961C921E921396DC92CE923C
:1026500012971596FC92EE92149716961C92169766
:10266000E12FF0E0EE0FFF1FE453FB4F408151815B
:10267000FA0183859485009761F5B487A387FA01F1
:102680008585968514962D913C91820F931F968790
:102690008587CC59DF4F0FB6F894DEBF0FBECDBF94
:1026A000DF91CF911F910F91FF90EF90DF90CF902E
:1026B000BF90AF909F908F907F906F905F904F9062
:1026C0003F902F9008958C5FF201848796E011CCA3
:1026D000C901FC012081318121153105C9F7B18380
:1026E000A083CDCF0E94EB30CF93DF93FC012085F8
:1026F000318580E0232B69F4EB0161897289CE0179
:102700000E94F930FE0101900020E9F731978E2FE9
:102710008C1BDF91CF9108952F923F924F925F9241
:102720006F927F928F929F92AF92BF92CF92DF92E1
:10273000EF92FF920F931F93CF93DF93CDB7DEB746
:10274000AE970FB6F894DEBF0FBECDBF0E94BF0399
:10275000A0902701B090280120918F04309190041F
:102760004091910450919204621B730B840B950B62
:10277000950150E040E0621773078407950710F455
:102780000C94471C8091BD049091BE048230910549
:1027900011F40C948B1C30F4019709F464C010E020
:1027A0000C94331C8330910511F40C941D20049774
:1027B000B1F78091860481110C942E2280918704B8
:1027C00081110C942E227501EE0CFF1CEE0CFF1CE7
:1027D000B5E0EB1AF10801E215E086E8C82E84E0C6
:1027E000D82E95E2892E95E0992EF801819191914C
:1027F0008F010E947908D6018D936D018091860426
:10280000811104C080918704882339F0B2E0AB16AF
:10281000B10418F0C7010197F1F78016910629F766
:1028200081E00E94690E07E027E04FE760E083E166
:1028300096E00E94210D67E083E196E00E94970BED
:1028400060E083E196E00E94A30B809186048111F1
:102850000C940C228091870481110C94082287E744
:1028600091E00C940A229E012F5F3F4F29018CE0DA
:10287000D9011D928A95E9F780912201882381F080
:102880001092220180912901833050F045E06EE1E1
:1028900083E196E00E94C10B83E991E00E94060D5E
:1028A00089EB95E00E94120B88EC95E00E94120BD8
:1028B00087ED95E00E94120B86EE95E00E94120BC8
:1028C00085EF95E00E94120B84E096E00E94120BC7
:1028D000B091B505B9A31092B5051092B6055C9AF2
:1028E000EBE0CE2ED12CC6010197F1F78091B70510
:1028F0009091B8050E94FE07182F5C98C6010197B9
:10290000F1F78091B7059091B8050E94FE07912FCD
:1029100097702091B7053091B805412F4F709430D2
:1029200009F0C2C02130310541F021E030E03093A0
:10293000B8052093B7053F9A479AE091B50591E015
:102940009E0F9093B505E73008F0E6E02FE0E29F98
:10295000F0011124E255FA4F9FE4938724853585D1
:102960003F7050E0542F44275295507F240F351F5D
:10297000207F8F70280F311D358724875C9A4798F8
:102980002BE030E0C9010197F1F759B19CB143B197
:1029900063B196FB882780F9880F880F952F991FC0
:1029A0009927991F990F990F990F890F65FB9927FF
:1029B00090F9890F44FB992790F9990F890F40E10D
:1029C000849FC0011124448555854F70840F951F45
:1029D000958784875C984798C9010197F1F739B1C9
:1029E0009CB123B143B196FB882780F9880F880FEB
:1029F000932F991F9927991F990F990F990F890F55
:102A000045FB992790F9890F24FB992790F9990F95
:102A1000890F90E0982F882724853585307F820F95
:102A2000931F958784875C9A8091B7059091B8052C
:102A3000019709F4479A83E290E00197F1F77091CA
:102A4000B50520E03FE04FEF5FEF60E8721709F453
:102A500034C2822F273008F086E090E0389FD00102
:102A6000399FB00D1124A255BA4F1B96FC911B97AC
:102A70005296EC915297FE17A9F01D965C934E93D7
:102A80001C971E966C931E970196389FF001399FF4
:102A9000F00D1124E255FA4F608350961C92509726
:102AA00051961C922F5FD2CF413009F046C1982F2A
:102AB0009F70913009F041C12130310541F081E032
:102AC00090E09093B8058093B7053F9A479A70E0DD
:102AD00061E02BE030E04798572F562780ED97E0D4
:102AE00046B146FB442740F954130C94A024F90145
:102AF0003197F1F70197A1F796CF59B19CB143B146
:102B0000E3B196FB882780F9880F880F952F991FCE
:102B10009927991F990F990F990F890FE5FB99270D
:102B200090F9890F44FB992790F9990F890F71301B
:102B300011F00C94BF2454E0F51203C0813009F465
:102B400072CF682F660F6BA3F11022C0823039F16B
:102B500090E080E051E06BE070E0BBA1B91709F4B0
:102B600062CF882309F492C0479A8527A82FA170C5
:102B700020ED37E046B146FB442740F9FB01A413A2
:102B80000C94C3243197F1F72150310999F74BCFB9
:102B900071E0F7126DC0863011F08330C9F60091F4
:102BA000B50591E0900F9093B505073008F006E069
:102BB000202F30E09FE0099F80011124F801E754A5
:102BC000FA4FFEA3EDA3A801FEE042555A4FFF12B3
:102BD0005FC0815090EE8927DA011B968C9310E03C
:102BE000212C312C8BE0C82ED12C93E0A92EB12CB6
:102BF0008FE0829F7001839FF00C1124A701425542
:102C00005A4F7A01BA016F5E7F4F78A76FA3DA013E
:102C10005096BCA7ABA72F5F3F4F829FA001839F19
:102C2000500D1124FA01E255FA4FFEA7EDA7470116
:102C3000FEE08F0E911C2CE0E20EF11C3BA131173F
:102C400009F4F1CE222061F1479A81E02826322D45
:102C5000317080ED97E026B126FB222720F9321350
:102C60000C94C824F6013197F1F70197A1F7DBCE58
:102C70009EE0F91204C0833008F491CF69CFAFE031
:102C8000FA1266CF8F3009F063CFCDCE47986DCF63
:102C9000B0E1FB9EB00111248627FA0183879FCF04
:102CA0004798D3CF133089F4D7012D913C911197D8
:102CB0003F70487050E0542F44275295507F420F88
:102CC000531F4D935C930C94EC24143099F1153000
:102CD00049F4B0E13B9EC0011124482BF40140832C
:102CE0000C94EC24163031F1173051F4F0E13F9E92
:102CF000C0011124482BADA5BEA54C930C94EC2427
:102D00001830C1F0193041F4B0E13B9EC0011124EC
:102D1000482BEBA5FCA5E3CF1A3061F01B3011F076
:102D20000C94EC24F0E13F9EC0011124482BAFA18C
:102D3000B8A5E3CF342E0C94EC24982F9C7009F0A6
:102D4000A0C0232B39F01092B8051092B7053F9818
:102D50004798479A2091B50591E0920F9093B50559
:102D6000273008F026E0E22EF12CBFE02B9FF00187
:102D70001124E255FA4F90EE9387612F70E01C709A
:102D800009F451CE24853585207F420F532F511DE4
:102D90004F7014E0759567951A95E1F786958695BD
:102DA000862B20E18202C0011124840F951F958794
:102DB000848784E091E04BE050E021E0992309F41E
:102DC0005EC05C9AFA013197F1F792278150B1F712
:102DD0008091B7059091B8050E94FE079FE09E9DE7
:102DE000F0019F9DF00D1124E255FA4F918D99232A
:102DF00021F021EE23879150918F8F7009F013CE2F
:102E00008FE08E9D80018F9D100D112402551A4F69
:102E100084E6D80159968C935C9AFBE0CF2ED12C96
:102E2000C6010197F1F78091B7059091B8050E940E
:102E3000FE07F82E5C98C6010197F1F78091B7055F
:102E40009091B8050E94FE0791EEF80193872485C2
:102E50003585307F4F2D4F7050E0542F4427240F7D
:102E6000351F3F70880F880F880F90E0982F8827B4
:102E70009295907F280F391F35872487D4CD5C9891
:102E8000A1CF433081F48F708F3069F42130310548
:102E900009F4C9CD81E090E09093B8058093B7051F
:102EA0003F9A479AC0CD232B09F4BDCD1092B805A7
:102EB0001092B7053F984798F4CFF9A12F1780F5E6
:102EC0006FE07FEF4FEF5FEF30E8822F273008F0A1
:102ED00086E090E0689FD001699FB00D1124A25553
:102EE000BA4F1B967C931B9759961C9259971D9627
:102EF0005C934E931C971E963C931E970196689F79
:102F0000F001699FF00D1124E255FA4F308350967D
:102F10001C92509751961C922F5F89A18213D5CF96
:102F200084E595E00E94120B83E695E00E94120B67
:102F300082E795E00E94120B81E895E00E94120B57
:102F400080E995E00E94120B8FE995E00E94120B38
:102F50009091500599A310925005109251052A9A0C
:102F6000EBE0EE2EF12CC7010197F1F780915205AD
:102F7000909153050E94DE07182F2A98C7010197E8
:102F8000F1F780915205909153050E94DE07412F81
:102F900047702091520530915305912F9F70443016
:102FA00009F0C0C02130310541F021E030E030931C
:102FB000530520935205269A2E9AE091500521E060
:102FC0002E0F20935005E73008F0E6E0AFE0EA9FCF
:102FD000F0011124E75BFA4F2FE423872485358520
:102FE0003F70492F50E0542F44275295507F240FB3
:102FF000351F207F8F70280F311D358724872A9A2F
:103000002E982BE030E0C9010197F1F783B14FB161
:103010009FB15FB186958170880F880F880F441F1C
:103020004427441F440F440F840F55FB442740F9A5
:10303000840F96FB992790F9990F890FB0E18B9F28
:10304000C0011124448555854F70840F951F9587C5
:1030500084872A982E98C9010197F1F783B12FB17F
:103060009FB13FB186958170880F880F880F221F0E
:103070002227221F220F220F820F35FB222720F941
:10308000820F96FB992790F9990F890F90E0982F5E
:10309000882724853585307F820F931F9587848705
:1030A0002A9A8091520590915305019709F42E9A1E
:1030B00083E290E00197F1F760915005F12C2FE049
:1030C0004FEF5FEF30E86F1509F42FC28F2DF6E058
:1030D000FF1508F486E090E0289FD001299FB00DED
:1030E0001124A75BBA4F1B96EC911B9752967C91CB
:1030F0005297E717A9F01D965C934E931C971E9666
:103100003C931E970196289FF001299FF00D1124F2
:10311000E75BFA4F308350961C92509751961C9261
:10312000F394D1CF913009F041C1482F4F70413015
:1031300009F03CC12130310541F081E090E09093ED
:10314000530580935205269A2E9A70E051E02BE0A9
:1031500030E02E98672F652780ED97E043B143FB61
:10316000442740F964130C94EF24F9013197F1F7E7
:103170000197A1F795CF83B14FB19FB16FB18695FC
:103180008170880F880F880F441F4427441F440F05
:10319000440F840F65FB442740F9840F96FB992761
:1031A00090F9990F890F713011F00C940E25E4E01D
:1031B0007E1203C0813009F473CF282E220C7110C7
:1031C00021C0823031F190E080E051E06BE070E0AE
:1031D000291609F465CF882309F491C02E9A852712
:1031E000A82FA17020ED37E043B143FB442740F9FD
:1031F000FB01A4130C9412253197F1F721503109EA
:1032000099F74ECFF1E07F126CC0863011F0833019
:10321000D1F60091500591E0900F90935005073042
:1032200008F006E0202F30E09FE0099F8001112484
:10323000A8014C5A5A4F5CA34BA3A8016EE0475B10
:103240005A4F76125EC0815090EE8927DA011B96A4
:103250008C9310E0312C612C8BE0C82ED12C93E0A4
:10326000A92EB12C8FE0829F7001839FF00C112456
:10327000A701475B5A4F7A01BA016F5E7F4F7EA369
:103280006DA3DA015096B8A7AFA32F5F3F4F829F7F
:10329000A001839F500D1124FA01E75BFA4FFCA7B0
:1032A000EBA74701FEE08F0E911C2CE0E20EF11C13
:1032B000211609F4F5CE332061F12E9A81E03826EB
:1032C000332D317080ED97E023B123FB222720F9C5
:1032D00032130C941725F6013197F1F70197A1F7F6
:1032E000DFCE2EE0721204C0833008F492CF6BCF91
:1032F0003FE0731268CF8F3009F065CFD1CE2E98A2
:103300006ECFB0E17B9EB00111248627FA0183873E
:10331000A0CF2E98D3CF133089F4D7012D913C91B3
:1033200011973F70487050E0542F44275295507FBA
:10333000420F531F4D935C930C943B25143099F12D
:10334000153049F4B0E16B9EC0011124482BF40103
:1033500040830C943B25163031F1173051F4F0E1E5
:103360006F9EC0011124482BABA5BCA54C930C94B7
:103370003B251830C1F0193041F4B0E16B9EC0011B
:103380001124482BEFA1F8A5E3CF1A3061F01B30D0
:1033900011F00C943B25F0E16F9EC0011124482BE5
:1033A000ADA1BEA1E3CF642E0C943B25482F4C70F9
:1033B00009F09FC0232B39F010925305109252054B
:1033C00026982E982E9A4091500521E0240F2093A4
:1033D0005005473008F046E0E42EF12CBFE04B9F4B
:1033E000F0011124E75BFA4F20EE2387412F50E0D4
:1033F0001C7009F455CE24853585207F290F311D99
:103400002F70A4E055954795AA95E1F78695869586
:10341000842B40E18402C0011124820F931F958701
:10342000848784E091E04BE050E021E0992309F4A7
:103430005EC02A9AFA013197F1F792278150B1F7CD
:1034400080915205909153050E94DE079FE09E9D5A
:10345000F0019F9DF00D1124E75BFA4F918D9923A8
:1034600021F021EE23879150918F8F7009F018CEB3
:103470008FE08E9D80018F9D100D1124075B1A4FE8
:1034800084E6D80159968C932A9A5BE0C52ED12CFC
:10349000C6010197F1F780915205909153050E9462
:1034A000DE07F82E2A98C6010197F1F780915205A0
:1034B000909153050E94DE0791EEF80193872485D1
:1034C0003585307F4F2D4F7050E0542F4427240F07
:1034D000351F3F70880F880F880F90E0982F88273E
:1034E0009295907F280F391F35872487D9CD2A9848
:1034F000A1CF933081F48F708F3069F42130310582
:1035000009F4CECD81E090E090935305809352056D
:10351000269A2E9AC5CD232B09F4C2CD10925305BD
:103520001092520526982E98F4CF29A1F21688F50C
:103530002F2D6FE07FEF4FEF5FEF30E8822F2730C6
:1035400008F086E090E0689FD001699FB00D1124DB
:10355000A75BBA4F1B967C931B9759961C92599761
:103560001D965C934E931C971E963C931E97019656
:10357000689FF001699FF00D1124E75BFA4F3083DB
:1035800050961C92509751961C922F5F89A18213DE
:10359000D5CFC090B5059C2C9F0C31EB232E34E089
:1035A000332ED12C10E04FE0842E209129019D1460
:1035B00009F4E7C0D21609F4E4C0EE24E394DC1465
:1035C00008F4E12C8D2DDC1408F051C096E09D1517
:1035D00008F486E0889DC0011124DC01A754BA4F8D
:1035E0003D01223069F4CC2059F08C910E9496283C
:1035F000EE2DF0E0EE0FFF1FE40DF51D91838083AB
:10360000D3019C9117968C911797981343C01196EC
:103610002D913C91129718968D919C91199728178E
:10362000390709F046C013969C9113971A968C910E
:103630001A9798133EC014969C9114971B968C91E0
:103640001B97981336C015969C9115971C968C91D4
:103650001C9798132EC016969C9116971D968C91C8
:10366000981327C0D394F2E02F0E311C9ECF8C19F3
:10367000873008F086E0889DC0011124FC01EC5AD7
:10368000FA4F3F01223009F0BBCFFF2009F4B8CF39
:103690008081ACCF8D2D0E94D70A80912901823084
:1036A00041F4F30180810E949628BC018E2D0E9476
:1036B000C72AD30111968D919C91B82FBF70B9A3E1
:1036C00002E010E086FF02C010E000E084FF04602A
:1036D00085FF006292FF016091FF086090FF00612A
:1036E00087FF1260F101A080B180D3012C91207F6F
:1036F000203109F040C013968C911397F501878310
:1037000014968C911497808715968C9115978187C4
:1037100016968C91169782878C910E949628069710
:1037200019F4F9A1FC60F9A3D50113960C93139732
:1037300014961C93149715961C92B9A1EB2FF0E0E8
:10374000E552FC4F8081F5018683C5010E947D0E04
:1037500080912901823069F4EE2DF0E0EE0FFF1F19
:10376000E40DF51D6081718120E0A3018E2D0E9482
:10377000622A11E077CF93FF006897FDD5CF0064F0
:10378000D3CFE980FA80223079F4809116019091AC
:1037900017018E159F0541F0E114F10429F470E042
:1037A00060E080E00E94C72AF0921701E0921601C3
:1037B000EB80FC8080912901823079F4809118019E
:1037C000909119018E159F0541F0E114F10429F43F
:1037D00070E060E081E00E94C72AF0921901E09257
:1037E000180180918E049816C0F4092D80918E04E2
:1037F000081798F480912901081779F0802F0E940A
:10380000D70AE02FF0E0EE0FFF1FEF54FB4F80814F
:1038100091810E947D0E0F5FE9CF90928E0480917E
:10382000B605843049F090915105943029F0890F04
:1038300051F482E390E002C080ED97E0909328017C
:103840008093270110C0892D90E0019644EF51E04C
:10385000849F9001859F300D949F300D11243093EB
:103860002801209327010E94BF0360938F04709367
:1038700090048093910490939204112341F08091DD
:10388000080181110C94382481E00E94690E809116
:1038900008018823B1F00E9416040091760410916B
:1038A00077042091780430917904601B710B820BAE
:1038B000930B603C744D8140910518F080E00E94AC
:1038C000690E4E9B02C00C9443256CE271E080E0CF
:1038D00090E00E94E4038091080181110C9444243B
:1038E00081E0AE960FB6F894DEBF0FBECDBFDF917C
:1038F000CF911F910F91FF90EF90DF90CF90BF90ED
:10390000AF909F908F907F906F905F904F903F907F
:103910002F900C94690E9E012F5F3F4F38A32F8F7D
:103920008CE0D9011D928A95E9F7809115018823D1
:1039300081F01092150180912901833050F045E00B
:1039400064E283E196E00E94C10B8CE791E00E9463
:10395000060D80913F05809344058091400590912C
:1039600041059093460580934505809142059091CD
:1039700043059093480580934705A0913D0510921B
:103980003D052C9A8BE290E00197F1F72C9883E1AA
:1039900090E00197F1F750E040E030E020E063E193
:1039A00070E08CB186FB002700F910E0C801042EFE
:1039B00002C0880F991F0A94E2F7282B392B2D9803
:1039C000CB010197F1F72D9ACB010197F1F74F5FEA
:1039D0005F4F4031510529F7832F82958F7090E119
:1039E0008D3009F091E070E060E050E040E003E1EC
:1039F00010E0ECB1E6FBCC24C0F8D12CF601062E89
:103A000002C0EE0FFF1F0A94E2F74E2B5F2B2D989A
:103A1000F8013197F1F72D9AF8013197F1F76F5FBF
:103A20007F4F691730F3982F9095209530954095EA
:103A300050958F3021F44E3FBFEF5B07E1F1E091ED
:103A40003D0561E06E0F60933D0561E070E0E111BE
:103A500002C070E060E0811113C0E32FFF27EF7018
:103A6000FF273F9769F48AE0869FF001879FF00D5A
:103A70001124E65CFA4F8FE085835187408711C09F
:103A800092FFD4C08AE0869FF001879FF00D112439
:103A9000E65CFA4F84E085839370892F90E09187EC
:103AA00080878AE0869FF001879FF00D1124E65CF5
:103AB000FA4F3783268380913D058A17B8F44AE090
:103AC0009FEF21E030E0811102C030E020E0429F12
:103AD000F001439FF00D1124E65CFA4F95831782A5
:103AE0001682118610868F5FA813EBCF8091300568
:103AF000809335058091310590913205909337057B
:103B00008093360580913305909134059093390563
:103B10008093380560912E0510922E058E9A8BE2C7
:103B200090E00197F1F78E9883E190E00197F1F72B
:103B300030E020E050E040E0E3E1F0E08FB1082E1B
:103B4000000C990B8827990F881F9927022E02C015
:103B5000880F991F0A94E2F7482B592B8D98CF01B3
:103B60000197F1F78D9ACF010197F1F72F5F3F4F42
:103B70002031310519F7852F82958F7090E18D30B6
:103B800009F091E0B0E0A0E0F12CE12C03E110E0BD
:103B90002FB1022E000C330B2227330F221F3327A5
:103BA0000A2E02C0220F331F0A94E2F7E22AF32AF8
:103BB0008D98F8013197F1F78D9AF8013197F1F767
:103BC0001196A91728F3982F909540955095F701D5
:103BD000E095F0958F3029F4EE3F2FEFF20709F4CE
:103BE0004BC070912E0521E0270F20932E0521E078
:103BF00030E0711102C030E020E0811122C0A52F19
:103C0000BB27AF70BB271F97E1F48AE0829FD001EA
:103C1000839FB00D1124A55DBA4F8FE015968C934C
:103C200015971996FC93EE9318971CC09AE0969FEF
:103C3000F001979FF00D1124E65CFA4F9FE0892771
:103C40001BCF92FFFCC08AE0829FF001839FF00DA2
:103C50001124E55DFA4F84E085839370892F90E00D
:103C6000918780878AE0829FF001839FF00D112465
:103C7000E55DFA4F5783468330912E053DA33617F5
:103C8000C0F4832F4AE09FEF21E030E0811102C0B1
:103C900030E020E0429FF001439FF00D1124E55DEC
:103CA000FA4F958317821682118610868F5F6813EC
:103CB000EBCF90903D054DA1490D4BA361EB74E016
:103CC00078A76FA3D12C10E0809129017BA17D15ED
:103CD00009F462C1D81609F45FC1BB24B394D914A6
:103CE00008F4B12C21E030E0D91408F0B3C0D110B1
:103CF00002C030E020E09AE0929FA001939F500D17
:103D00001124DA01A15CBA4F3D01823089F4992077
:103D100079F0CD010E94EB0AEB2DF0E0EE0FFF1FD2
:103D200021E030E02C0F3D1FE20FF31F91838083D1
:103D3000D3018C9115969C911597891323C01196E8
:103D40004D915C91129716962D913C9117974217C1
:103D5000530759F413964D915C91149718962D9131
:103D60003C914217530709F462C0811119C0F30155
:103D7000838194810196A1F4D30118968D919C9131
:103D8000019671F08D2D0E94D70A80912901823011
:103D900039F4C3010E94EB0ABC018B2D0E94D0298B
:103DA000C3010E94EB0A1C01F30181819281FC0195
:103DB000E095F09534E0F695E7953A95E1F71E2FFA
:103DC0001F70AC015695479570E060E04170552733
:103DD000662777279C0121703327F2E02F163104E4
:103DE00009F05BC0232B09F0426082FD516083FD26
:103DF0005260EFA1F8A5A081B18113964C9313975F
:103E000014965C93149715966C931597E12FF0E038
:103E1000E552FC4F808116968C931697CD010E9437
:103E20007D0E80912901823009F477C011E0D3948E
:103E30004FA158A54E5F5F4F58A74FA345CF9AE0BB
:103E4000929FD001939FB00D1124A55DBA4F9FE0C2
:103E50008927E4CED91002C030E020E0BAE0B29F5A
:103E6000A001B39F500D1124FA01E05DFA4F3F010C
:103E7000823009F05DCF3DA1332309F459CFCF0142
:103E80000E94EB0AEB2DF0E0EE0FFF1F41E050E047
:103E90004C0F5D1FE40FF51F49CF232B09F0426043
:103EA00090FD446091FD486092FD406193FD406249
:103EB00024E02216310421F5D30113962D913C9173
:103EC00034FD406435FD406820FD546021FD58609C
:103ED00022FD506123FD506224FD506425FD506891
:103EE00026FD616027FD626030FD646031FD686021
:103EF00032FD606133FD606237FF77CF606475CF5C
:103F0000B5E02B16310409F070CFF301238120FDB9
:103F1000406421FF6ACF406868CF9BE5492E93E05B
:103F2000592E19A28B2D90E0880F991F9C01295AB8
:103F30003C4F3CA72BA732E02316310441F449A1A2
:103F4000483008F5F201E05AFF4F443008F0F20122
:103F5000E080F18002811381D30111968D919C91B3
:103F60008E219F21CC24C394892B09F4C12C1F924C
:103F70008780A68024814581EBA5FCA560818B2DDF
:103F80000E94650D0F90F9A1FF5FF9A328E0420E92
:103F9000511CFC3081F64ACFE980FA80823079F4F6
:103FA0008091090190910A018E159F0541F0E1145D
:103FB000F10429F470E060E080E00E94D029F092E2
:103FC0000A01E0920901EB80FC8080912901823096
:103FD00079F480910B0190910C01E816F90641F0FB
:103FE000E114F10429F470E060E081E00E94D0293E
:103FF000F0920C01E0920B0180918D045BA15817A7
:10400000C0F4052F80918D04081798F48091290140
:10401000081779F0802F0E94D70AE02FF0E0EE0F0A
:10402000FF1FEF54FB4F808191810E947D0E0F5F37
:10403000E9CF6BA160938D0416CC10928C04809113
:104040008A0481115FC080918B0481115BC08091D3
:10405000AD0481110DC08091250590912605DC01EC
:10406000ED91FC910680F781E02D09958093AD04D8
:1040700080938A048091AE0481110DC08091270540
:1040800090912805DC01ED91FC910680F781E02DEF
:1040900009958093AE0480938B0481E00E94690EA1
:1040A00007E027E04FE760E083E196E00E94210D02
:1040B00067E083E196E00E94970B60E083E196E081
:1040C0000E94A30B80918A0481110BC080918B0404
:1040D000811103C087E791E002C08CE691E00E9465
:1040E000060D62E483E196E00E94A30B90918A049E
:1040F00080918B04992361F1811104C08CE691E0D9
:104100000E94060DB5E28B2EB5E09B2E18E8E12E3D
:1041100014E0F12E0AE8A02E04E0B02E10E000E03A
:1041200077247394F401819191914F019093B0049D
:104130008093AF04D7011D927D01F50121915F01AC
:1041400021110BC00130110541F101E010E0EACF6F
:104150008111D2CF87E791E0D3CF980123553B4F10
:104160006901D9012C9121113BC1DC01ED91FC9138
:104170000680F781E02D0995882359F0F6017082B9
:10418000E091AF04F091B00466A177A1802F0E9466
:104190006D298091AC048823A9F2912C10E0A0E84D
:1041A000BA2E80912901981608F05DCB892D90E0F8
:1041B000FC01E355FB4F2081222309F40AC1FC01D5
:1041C000E857FB4FD080DD2009F403C100918C0437
:1041D000880F991FFC01EB5DFA4F0190F081E02DF3
:1041E000F093B004E093AF048091AB048111F1C06F
:1041F0008091AC048111EDC03324339422A133A10A
:1042000084A195A12817390709F4312C46A057A09D
:10421000602E712C660C771CF301EE58FB4F8081E9
:1042200091814816590621F0B201802F0E946D2914
:10423000E1E0F0E0EC0FFD1FE60DF71D518240823A
:10424000C2010197059708F0B6C0E091AF04F09164
:10425000B004FAA3E9A384A195A1809590959C014F
:1042600074E0369527957A95E1F7F1E02F272170D4
:1042700086FF226087FF246085FF28608091A90463
:10428000882311F0282B2F7080918C0490E0FC0182
:10429000EE0FFF1FEF54FB4F0190F081E02D30E057
:1042A00025523C4FD9012C912683A9A1BAA19496FD
:1042B0004D915C9140955095252F221F2227221F5A
:1042C00030E056FD226055FD246054FD286052FD0B
:1042D000206153FD206250FD206451FD206840FDA7
:1042E000316043FD326041FD346042FD3860A9A178
:1042F000BAA19896CC9098979996EC9099979C969D
:104300004C91442309F478C0B5E04B16510409F4EC
:1043100073C0C782E086BC016A5F7E4FDB01FC9000
:10432000AC014C5F5E4FFC106EC0DA01FC90FE10D9
:104330006AC0F32CDB01CC92DA01EC92A9A1BAA1FC
:104340009A965C919A979B964C919B979C966C91B0
:10435000662329F0B5E04B16510409F056C0B1862A
:10436000B28640E850E8BC016E5F7E4F7AA369A335
:10437000DB016C9180509F4F651305C0DC016C918F
:10438000641301C0DF2CA9A1BAA15C93DC014C939A
:10439000238334831582DD2071F0CF010E947D0ECE
:1043A000023048F44091AF045091B00420E0B201D3
:1043B000802F0E94B428D301AE58BB4FE1E0F0E05B
:1043C000EC0FFD1FE60DF71D808191818D939C936D
:1043D000132980918C048F5F80938C049394E1CE99
:1043E0000E945809F701319780838111D2CED601FE
:1043F0001C9270E060E0CACEB782B08640E8E42E3E
:1044000050E8C52E88CFFD2C95CF51874287ABCF82
:104410008CE691E00E94060D62E483E196E00E9442
:10442000A30B9091860480918704992309F47AC0A4
:10443000811104C08CE691E00E94060D80918604F3
:10444000882321F061E080E00E94CB0D80918704F9
:10445000882321F061E081E00E94CB0D1D8E1E8E2D
:1044600010E007E080912901181708F06AC0E12EDA
:10447000F12CF701EE0FFF1FEF5DFA4FA080B18026
:10448000B0928504A0928404F701EA57FB4F808123
:10449000882309F445C0C5010E947908F701EE5749
:1044A000FB4F6F01882309F442C087E0F501DE016C
:1044B000569601900D928A95E1F787E0FE01769677
:1044C000DE011F9601900D928A95E1F70E9DC001C5
:1044D0000F9D900D112421E030E02C0F3D1F820F25
:1044E000931FFE013F96DC01202F01900D922A952B
:1044F000E1F7DC018D919C91FF24F394009709F47E
:10450000F12CF6012081211109C0892B39F0812F6E
:104510000E945A0861E0812F0E94CB0DD601FC92C7
:104520001F5FA0CF811184CF87E791E085CF812FD6
:104530000E945A0860E0812F0E94CB0DF601108284
:10454000EFCFB12C77E0D72E80912901B81608F073
:1045500088C16B2C712CF301EE57FB4F80818823AF
:1045600009F47DC1D69CF001D79CF00D112421E007
:1045700030E02C0F3D1FE20FF31F2381822F829525
:104580008F7090E0982F88279295907F2F7030E061
:10459000322F2227820F931F2481422F42954F7082
:1045A00030E1439FA0011124840F951F2F701C013F
:1045B000220E311CA301440F551F5AA349A3DA014F
:1045C000A258BB4F8D919C91958056815BA3B301FE
:1045D00064587B4F7EA36DA3DB012C91921207C020
:1045E000F301E658FB4F2081251709F447C2EDE19E
:1045F000F0E0EC0FFD1FE60DF71D21E0281639064F
:1046000009F420E02083D69CF001D79CF00D112402
:1046100021E030E02C0F3D1FE20FF31F838122E0E9
:1046200030E087FD02C030E020E0D69CF001D79C4E
:10463000F00D112441E050E04C0F5D1FE40FF51F19
:10464000838186FD2160D69CF001D79CF00D11245A
:1046500061E070E06C0F7D1FE60FF71F838185FD21
:104660003160D69CF001D79CF00D112481E090E0E0
:104670008C0F9D1FE80FF91F838184FD3260D69C4B
:10468000F001D79CF00D1124A1E0B0E0AC0FBD1FEC
:10469000EA0FFB1F848185FD2061D69CF001D79C29
:1046A000F00D112441E050E04C0F5D1FE40FF51FA9
:1046B000848184FD2062D69CF001D79CF00D1124EA
:1046C00061E070E06C0F7D1FE60FF71F848183FDB2
:1046D0002064D69CF001D79CF00D112481E090E07D
:1046E0008C0F9D1FE80FF91F848182FD2460D69CEA
:1046F000F001D79CF00D1124A1E0B0E0AC0FBD1F7C
:10470000EA0FFB1F848181FD2860D69CF001D79CB5
:10471000F00D112441E050E04C0F5D1FE40FF51F38
:10472000848180FD2068E9A1FAA1EF54FB4FA081AC
:10473000B18113962C93139714963C931497159666
:104740001C921597D69CF001D79CF00D112461E0C6
:1047500070E06C0F7D1FE60FF71F838183FBEE2750
:10476000E0F941E04E2782FF4260D69CC001D79C11
:10477000900D1124E1E0F0E0EC0FFD1F8E0F9F1F64
:10478000FC01838181FF4460D69CC001D79C900DC1
:10479000112421E030E02C0F3D1F820F931FFC01FC
:1047A000838180FF4860E42FF0E0E552FC4F808178
:1047B00016968C93169780E8890D17968C93179709
:1047C0008BA18058809518968C931897CD010E94E4
:1047D0007D0E87EE482E82E0582E910150E040E099
:1047E0002FA338A749A75AA7E9A1FAA1E95AFC4F74
:1047F00030813BA7D201ED90FD900D911C918FA1CE
:1048000098A5A9A5BAA58E219F21A023B123CC24C8
:10481000C394892B8A2B8B2B09F4C12C1F92F20194
:104820008780A680248145816BA58B2D0E94650D14
:10483000F8E04F0E511C0F9027E533E024153505A5
:10484000C9F6E9A1FAA1E258FB4F31822082ADA15D
:10485000BEA19C92F301E658FB4FBBA1B083B39479
:1048600073CE1D8D11110C94331C1E8D0C94331CB2
:104870000E94160460937604709377048093780402
:10488000909379040C94471CE090BD04F090BE0412
:104890000E944A080E942D0E10E000E062E070E0E5
:1048A00080E090E00E94E4034E990CC06CE271E05D
:1048B00080E090E00E94E4030E944A080E942D0ECE
:1048C00010E000E00F5F1F4F003DF7E01F0731F7DA
:1048D0006091BD047091BE046E157F05D1F4AE9653
:1048E0000FB6F894DEBF0FBECDBFDF91CF911F9101
:1048F0000F91FF90EF90DF90CF90BF90AF909F907F
:104900008F907F906F905F904F903F902F900C947E
:104910002D0E90E080E00E94B22F83E196E00E948D
:10492000560D86E891E00E94060D88E19EE00FB6E4
:10493000F894A895809360000FBE90936000FFCF1D
:10494000C9010197F1F771110C947D1549B19CB122
:1049500083B153B196FBFF24F0F8FF0CFF0C942FAA
:10496000991F9927991F990F990F990FF90E55FBC8
:10497000992790F9F90E82958170880FF80E71E0F1
:10498000479A0C946C153197F1F79F5F0C94AD1515
:10499000C5010197F1F799B14CB183B123B146FB41
:1049A000442740F9440F440F991F9927991F990FE5
:1049B000990F990F490F25FB992790F9490F829577
:1049C0008170880F480F133010F00C945216612F2D
:1049D0008DA19EA10E94DC021F5F0C941E16C901CE
:1049E0000197F1F771110C94BB1873B09FB18FB19F
:1049F0004FB171FA772470F8770C770C770C991F08
:104A00009927991F990F990F790E45FB992790F9CE
:104A1000790E86FB882780F9880F780E71E02E9A30
:104A20000C94AA183197F1F79F5F0C94E818C50110
:104A30000197F1F743B19FB18FB12FB14695417006
:104A4000440F440F440F991F9927991F990F990FED
:104A5000490F25FB992790F9490F86FB882780F994
:104A6000880F480F133010F00C948B19612F8BA115
:104A70009CA10E94DC021F5F0C945819281639066D
:104A800009F0B5CDECCEAE960FB6F894DEBF0FBEF2
:104A9000CDBFDF91CF911F910F91FF90EF90DF90ED
:104AA000CF90BF90AF909F908F907F906F905F90CE
:104AB0004F903F902F9008951F920F920FB60F9234
:104AC00011242F933F938F939F93AF93BF93809124
:104AD000C0049091C104A091C204B091C30430916C
:104AE000BF0423E0230F2D3758F50196A11DB11DFA
:104AF0002093BF048093C0049093C104A093C20488
:104B0000B093C3048091C4049091C504A091C604DD
:104B1000B091C7040196A11DB11D8093C404909368
:104B2000C504A093C604B093C704BF91AF919F91F1
:104B30008F913F912F910F900FBE0F901F9018955E
:104B400026E8230F0296A11DB11DD2CF1F920F920E
:104B50000FB60F9211248F939F938091E100909153
:104B6000E100937F9093E10083FF0FC01092E90072
:104B700091E09093EB001092EC0092E39093ED00A3
:104B80001092C90498E09093F00082FF22C093E055
:104B90009093E9009091F200992319F09AE3909391
:104BA000E8009091A604992341F09091A6049150B9
:104BB0009093A604911101C05D9A9091C804992325
:104BC00041F09091C80491509093C804911101C094
:104BD000289A84FF18C08091E2008E7E81608093C5
:104BE000E2008091E1008F7E8093E1008091A70434
:104BF0008E7E80618093A7049F918F910F900FBE4E
:104C00000F901F90189580FFF7CF8091E2008E7E65
:104C100080618093E2008091E1008E7E8093E100CC
:104C20008091A7048E7E8160E5CF1F920F920FB610
:104C30000F921124CF92DF92EF92FF920F931F9366
:104C40002F933F934F935F936F937F938F939F9394
:104C5000AF93BF93EF93FF93CF93DF93CDB7DEB7BF
:104C60006C97DEBFCDBF1092E9008091E80083FF12
:104C700025C068E0CE0145960E946F0582EF8093C3
:104C8000E8008D8987FF39C09091E80090FFFCCF44
:104C9000982F907609F034C19E894F89588D2F89BD
:104CA000F88C911131C0803861F58091A80480930F
:104CB000F1001092F1008EEF8093E8006C960FB631
:104CC000F894DEBF0FBECDBFDF91CF91FF91EF9182
:104CD000BF91AF919F918F917F916F915F914F9114
:104CE0003F912F911F910F91FF90EF90DF90CF9008
:104CF0000F900FBE0F901F9018959EEF9093E800B5
:104D0000C7CF1092F100D5CF913059F48111D3CF94
:104D10004130510581F68091A8048D7F8093A804CD
:104D2000CACF933049F48111C6CF4130510519F6ED
:104D30008091A8048260F2CF953041F48091E80020
:104D400080FFFCCF20682093E300B5CF963009F0B8
:104D5000A9C00B8D1C8D22E01092E9001092A404D2
:104D60001092A304F2122EC01092A2041092A10479
:104D70000E94BD051F8299E09983FA8291E09E838B
:104D800090EA98879AEF99872091A3043091A40420
:104D9000275F3F4F3C832B838D831092E900109255
:104DA000A4041092A3041093A2040093A10449E068
:104DB00050E0BE016F5F7F4F80E00E9483040E943D
:104DC000BD0579CF1093A2040093A1040E94A90508
:104DD000DC0112960D911C910115110509F451C1C8
:104DE000D801ED91FC910480F581E02DBE016B5E50
:104DF0007F4FC8010995009709F03EC1F801008571
:104E00001185EACFF3E0FF120EC08F89882309F4E1
:104E100040C0823061F440E86CE08CE292E00E9495
:104E20005004811148CF81E28093EB0047CF81305D
:104E300029F440E867E084E292E0F1CF833099F70B
:104E40000E94A905DC011296ED90FC908E010F5F87
:104E50001F4F6801E114F10479F0D701ED91FC9145
:104E60000680F781E02DB801C7010995080F111DD3
:104E7000F701E084F184EECFD8011C92F601019095
:104E80000020E9F73197BF016C197D0940E0C601A8
:104E9000C6CF6EE072E0FB01449150E080E80E94D2
:104EA000830409CF973009F4BECF983021F481E014
:104EB0008093F10000CF993009F0FDCE837009F0A6
:104EC000B2CFE3E3F1E081E031E096E321912223E8
:104ED00071F08093E9003093EB00DF0111972C9182
:104EE0002093EC009093ED008F5F873079F78EE789
:104EF0008093EA001092EA008F898093C904DBCE88
:104F00008B8D9C8D1092E9001092A4041092A30442
:104F10009093A2048093A104898D811192C08E89FF
:104F20009D89913A49F4813209F07DCF47E050E004
:104F30006AE271E080E0B3CF913209F074CF83323E
:104F400069F48F89988DB0E0A0E08093230190935D
:104F50002401A0932501B0932601ADCE803269F4DF
:104F60008091E80082FFFCCF67E08AE291E00E9436
:104F70006F058BEF8093E8009ECE823209F09BCEC6
:104F80008F8980933101EEEFFFE7859194918B3FFC
:104F90009C4D51F1E0E0F8E080912A0190912B01C5
:104FA000A0912C01B0912D01803B9440A105B10549
:104FB000F1F48091310180FD1AC0EE3F8AE0F807DC
:104FC00089F587E797E791838083809160008093DC
:104FD000A50488E19BE00FB6F894A8958093600043
:104FE0000FBE9093600067CEEEEFFAE0D5CF8081E0
:104FF00091818737974709F05ECEA8958091600030
:105000008861809360008091A50480936000EE3FEA
:105010002AE0F20789F08091FE0A9091FF0A9183BD
:10502000808349CE808191818737980751F2909390
:10503000FF0A8093FE0AC5CF1092FF0A1092FE0A63
:105040003ACE0E94A905DC0112960D911C91011522
:10505000110509F4E8CED801ED91FC910190F081A1
:10506000E02DBE016B5E7F4FC8010995811123CEF3
:10507000F80100851185EBCF181619060CF41BCE2C
:10508000D2CEF1E0FF12BECE62E172E004CF1F93F8
:10509000CF93DF93EC0180E888A789A78AA78BA725
:1050A0001CA6FE01BD968CE0DF011D928A95E9F7F2
:1050B0001FA21EA21AAE1BAE1CAE1DAE15E0CE0185
:1050C0000E94580961E070E080E090E00E94E403F3
:1050D0001150A9F7CE01DF91CF911F910C9458097F
:1050E000CF93DF93EC01849A8C9A229A2A9A219A80
:1050F000299A23982B982B9A0E94EE05CE01DF91D6
:10510000CF910C944728CF93DF93EC013E9A469AB7
:10511000229A2A9A219A299A23982B982B9A0E94AC
:10512000EE05CE01DF91CF910C9447288F3489F0A2
:10513000823079F0863181F0833181F0803E81F0D8
:10514000813E81F021E090E08F3F09F420E0822F42
:10515000089584E090E0089585E0FCCF86E0FACFE2
:1051600082E0F8CF83E0F6CF2F923F924F925F928A
:105170006F927F928F929F92AF92BF92CF92DF9267
:10518000EF92FF920F931F93CF93DF9300D000D045
:10519000CDB7DEB7B82E1B012A01922E8091A9044B
:1051A0008E3009F463C08FE092E09C838B83D12C16
:1051B000FB013297FA83E9836B2C712C660C771C08
:1051C000C301895A9C4F3C01E981FA81329770F002
:1051D0008FEF8D0D823050F1F5E02F16310431F450
:1051E000DD2021F188EF8D0D823000F1EB81FC8113
:1051F000E080F1800281138124814581A68087802F
:105200004114510459F0F20184A195A18095909523
:105210008E219F21CC24C394892B09F4C12C9F9209
:10522000F30160818B2D0E94650D0F90D3948B81CB
:105230009C8108969C838B8390E1D912C5CF0F90F7
:105240000F900F900F90DF91CF911F910F91FF90D2
:10525000EF90DF90CF90BF90AF909F908F907F9016
:105260006F905F904F903F902F900895EFE8F2E09D
:10527000FA83E98387EE682E82E0782EEB2DF0E04A
:10528000EE0FFF1FE95AFC4FD080E981FA81E080E0
:10529000F1800281138124814581A6808780411499
:1052A000510459F0F20184A195A1809590958E2129
:1052B0009F21CC24C394892B09F4C12C9F926D2D7E
:1052C0008B2D0E94650D89819A8108969A83898326
:1052D0000F9068167906C9F6B2CFFF920F931F930D
:1052E000CF93DF93182FEB01E82FF0E0EE0FFF1FB5
:1052F000E95AFC4FF08007E023E041816F2D83E104
:1053000096E00E94210D47E06F2D83E196E00E9418
:10531000C10BC430D105D9F188F4C130D10531F1C8
:1053200086E191E0C230D10589F087E791E0DF9115
:10533000CF911F910F91FF900C94060DC530D105B0
:10534000A9F083E091E0C630D10579F70E94060DFF
:10535000123000F521E050E040E0BE01812FDF91E6
:10536000CF911F910F91FF900C94B4288091A904C4
:105370008E3019F48FE291E0E9CF8091AB04811176
:1053800003C080E291E0E2CF88E291E0DFCF8AE0E3
:1053900091E0DCCFDF91CF911F910F91FF900895A5
:1053A0005F926F927F928F929F92AF92BF92CF92B5
:1053B000DF92EF92FF920F931F93CF93DF93D82E3C
:1053C000EB01E82FF0E0EE0FFF1FE95AFC4F908051
:1053D00007E023E04181692D83E196E00E94210DE1
:1053E00047E0692D83E196E00E94C10BC330D105EF
:1053F00009F462C0C0F48FEF90E0C230D105E1F053
:1054000087E791E0DF91CF911F910F91FF90EF908F
:10541000DF90CF90BF90AF909F908F907F906F90D4
:105420005F900C94060DC430D10509F448C081EF9B
:1054300090E0C530D10521F70E94060D82E0D81614
:1054400059F18BE5682E83E0782EB12C55245394C6
:10545000C230D10549F487E08B15B8F083E0F30141
:10546000E05AFF4F8B1508F4F301E080F1800281D0
:1054700013815F928780A680CC24C39424814581C8
:10548000692D8D2D0E94650D0F90B39488E0680EF4
:10549000711C8CE0B812DCCFDF91CF911F910F917E
:1054A000FF90EF90DF90CF90BF90AF909F908F9044
:1054B0007F906F905F9008958AEF90E0BDCF86EF68
:1054C00090E0BACF2F923F924F925F926F927F926D
:1054D0008F929F92AF92BF92CF92DF92EF92FF9204
:1054E0000F931F93CF93DF93B82E2B011A01922EA7
:1054F000C9E9D1E0D12C682E712C660C771CC30150
:10550000895A9C4F3C0192E049165104B1F4E8E0FD
:10551000DE121AC0DF91CF911F910F91FF90EF9093
:10552000DF90CF90BF90AF909F908F907F906F90C3
:105530005F904F903F902F900895F3E04F165104E5
:1055400019F48CE0D816E9F0E880F9800A811B8113
:105550002C814D81AE808F8081E02114310449F08F
:10556000F101618172816E217F2181E0672B09F059
:1055700080E09F92C82EF30160818B2D0E94650D03
:105580000F90D3942896FDE0DF12BDCFC3CFFF92DA
:105590000F931F93CF93DF93182FEB01E82FF0E0C9
:1055A000EE0FFF1FE95AFC4FF08007E023E0418136
:1055B0006F2D83E196E00E94210D47E06F2D83E17E
:1055C00096E00E94C10BC430D10569F188F4C23065
:1055D000D10531F18DED90E0C330D10589F087E739
:1055E00091E0DF91CF911F910F91FF900C94060DE8
:1055F000C530D105D9F085EC90E0C630D10579F7FA
:105600000E94060D1230A9F021E050E040E0BE01FA
:10561000812FDF91CF911F910F91FF900C94622AFF
:1056200087EE90E0EDCF86ED90E0EACF8FEC90E052
:10563000E7CFDF91CF911F910F91FF900895DC018B
:1056400017961C92179718961C9218971A961C92E8
:105650001E9219978AE5EFE3F1E01B9601900D92F7
:105660008A95E1F708951F93CF93DF93E1EDF4E07E
:105670001382128288EE93E0A0E0B0E084839583E9
:10568000A683B78387E094E0918380838FEF9FEFB9
:1056900095878487E3E1F6E01382128212861486EE
:1056A0001386158681E0868789E194E09183808363
:1056B0008EEA95E00E941F2B89E495E00E941F2B43
:1056C000EAE3F5E0138214828AE0EFE3F5E0DF011C
:1056D000282F1D922A95E9F7EBE2F5E01382148258
:1056E000E0E3F5E0DF011D928A95E9F7E9E2F5E0F4
:1056F0008EE78083118282E490E00E94C62F12E43C
:10570000FC01212F11922A95E9F723E334E0DC0113
:105710002D933C93C5E2D5E09983888382E490E0A1
:105720000E94C62FFC0111921A95E9F727E234E096
:10573000DC012D933C939B838A8388E090E00E9458
:10574000C62F25E1FC012783C1E2D5E09983888338
:1057500088E090E00E94C62F25E0DC0117962C938C
:105760009B838A83DF91CF911F910895789484B5AC
:10577000826084BD84B5816084BD85B5826085BD4D
:1057800085B5816085BD80916E00816080936E00DB
:1057900010928100809181008260809381008091CD
:1057A000810081608093810080918000816080937E
:1057B000800080919100826080939100809191009F
:1057C000816080939100809190008160809390002F
:1057D0008091C10084608093C1008091C10082608B
:1057E0008093C1008091C10081608093C10080914D
:1057F000C30081608093C3008091C0008260809369
:10580000C0008091C20081608093C20080917A00C4
:10581000846080937A0080917A00826080937A001D
:1058200080917A00816080937A0080917A0080680C
:1058300080937A001092C9041092A8041092A704D1
:105840008091D70081608093D70080EA8093D80050
:1058500089B5806189BD89B5826089BD09B400FEC2
:10586000FDCF61E070E080E090E00E94E403809171
:10587000D8008F7C80618093D8008091E000807F89
:105880008093E0008091E1008E7E8093E1008DE0C6
:105890008093E200559A209A56985E9A90E080E0B4
:1058A0000E94AA2F282F30E03093BE042093BD041D
:1058B000853030F081E090E09093BE048093BD0489
:1058C0008091BD049091BE048230910509F46FC1AE
:1058D00008F03AC0019709F48CC0109224068CE3BA
:1058E000809323061092B90084E48093BC008CE07E
:1058F0008093B8001092170610921806EBE2F4E0BD
:1059000085919491782EEDE2F4E01491EEE2F4E0CA
:10591000E491E0931906EFE2F4E0E491E0931A06D3
:10592000E0E3F4E0E491E0931B06C82FD92F8C2F1D
:105930008719811708F047C2FE01649183E196E060
:105940000E948F0B2196F3CF8330910509F494C107
:10595000049709F0C2CF65E070E080E090E00E941B
:10596000E40382E08093290184E690E0909328018B
:10597000809327018EE090E00E94C62FEC011F92D9
:10598000812CAA24A394CC24C394EE24E39401E0B4
:1059900022E043E06FE574E00E949C0ED093B204D5
:1059A000C093B1048EE090E00E94C62FEC011F92DC
:1059B00022E044E06FE574E00E949C0ED093B404B2
:1059C000C093B3040F900F90C0E080912901C817D5
:1059D00008F0E6C08C2F0E945A08EC2FF0E0EE0F82
:1059E000FF1FEF54FB4F808191810E947D0ECF5F9E
:1059F000ECCF549A5C9A25982D982D9A24982C983F
:105A00002C9A6E987698769A57985F985F9A3E98F7
:105A10004698469A3F984798479A1092B605C9EB20
:105A2000D5E00FEF66246A94762C10E808831E8672
:105A30007A8269821B831C831D821E82CE010E9492
:105A4000120B2F9626E0C331D20781F7229A2A9AA9
:105A500085988D988D9A86988E988E9A87988F982B
:105A60008F9A21982998299A23982B982B9A2698CF
:105A70002E982E9A10925105C4E5D5E00FEF6624BA
:105A80006A94762C10E808831E867A8269821B83CA
:105A90001C831D821E82CE010E94120B2F9685E070
:105AA000CE3AD80781F783E290E00197F1F780EDD5
:105AB00097E02BE030E03699C7C1F9013197F1F753
:105AC0000197C9F78091B605811154C082E0809397
:105AD0002901C0E011E0D0912901CD1708F04CC098
