:100000000C9438020C9460020C9460020C94600210
:100010000C9460020C9460020C9460020C946002D8
:100020000C9460020C9460020C94FF100C946E11FE
:100030000C9460020C9460020C9460020C946002B8
:100040000C9460020C9460020C9460020C946002A8
:100050000C9460020C9460020C9460020C94B51035
:100060000C9460020C9460020C9460020C94600288
:100070000C9460020C9460020C9460020C94600278
:100080000C9460020C9460020C9460020C94600268
:100090000C9460020C9460020C9460020C94600258
:1000A0000C9460020C9460020C946002AED580A89F
:1000B0003FD300408D142002A1C8DA12817FD9F10C
:1000C000DB40A4A6AF5043452D36005043452D32AA
:1000D00000504144005749490047414D454355426E
:1000E00045004E3634004A4147554152004E454F77
:1000F0002D47454F0050432D454E47494E45000082
:1001000000000200090F0000030401000C000000C1
:1001100000000000000000000000000000004E2F62
:1001200041005245424F4F54494E472E2E2E004D0E
:10013000554C54492D544150000000000023002626
:100140000029002C002F0000030C0F30333C3FC06F
:10015000C3CCCFF0F3FCFF080B0002020200000941
:100160000400000102020000052400100105240122
:10017000010104240206052406000107058103107D
:10018000004009040100020A0000000705020240C5
:100190000000070583024000000403090412010067
:1001A00002EF0201404123368000010102030141B8
:1001B000726475696E6F204C4C43004172647569BE
:1001C0006E6F204C656F6E6172646F0000000000FE
:1001D000250028002B002E00310000000000240024
:1001E00027002A002D003000040404040403040541
:1001F00002020202040302020202060606060606C4
:1002000004040202020404040802011040804010A9
:10021000204080408008020401804020100201102C
:100220008010204040205245464C455800000005B3
:10023000072061000000000000005F00006070788F
:100240007060605048506003070F070303050905FD
:1002500003081C3E7F7F081C22417F7F7F3E1C08D5
:100260007F41221C08082A1C2A0808083E080800AA
:1002700050300000080808080800606000002010E6
:100280000804023E5149453E00427F400042615110
:1002900049462141454B311814127F1027454545E9
:1002A000393C4A4949300171090503364949493603
:1002B000064949291E00363600003C7E7E7E3C3CC5
:1002C0004242423C1414141414F0F0F0F0F0F09098
:1002D0009090F0324979413E7E1111117E7F49495B
:1002E00049363E414141227F4141221C7F494949D3
:1002F000417F090901013E414151327F0808087FD1
:1003000000417F41002040413F017F081422417F8E
:10031000404040407F0204027F7F0408107F3E413E
:1003200041413E7F090909063E4151215E7F09197D
:100330002946464949493101017F01013F4040407A
:100340003F1F2040201F7F2018207F631408146364
:100350000304780403615149454300007F41410291
:100360000408102041417F0000383C1E0F07404028
:10037000404040382412090720545454787F4844A0
:1003800044383844444420384444487F3854545412
:1003900018087E090102081454543C7F08040478AC
:1003A00000447D40002040443D00007F1028440070
:1003B000417F40007C041804787C080404783844A9
:1003C0004444387C14141408081414187C7C080461
:1003D00004084854545420043F4440203C404020EA
:1003E0007C1C2040201C3C4030403C4428102844C9
:1003F0000C5050503C4464544C44E0E0E0E0E000D9
:10040000007F0000E0A0A0A0E008082A1C08081C4B
:100410002A08080006090906AC00198040004E4F62
:100420005420535550504F52544544004452415764
:10043000534F4D45005544524157005455524E5468
:1004400041424C45004452554D0047554954415294
:1004500000434C4153534943004E554E4348554B7E
:10046000004E4F4E45004449474954414C00AA2A8A
:1004700011241FBECFEFDAE0DEBFCDBF14E0A0E055
:10048000B1E0E8EDF2E602C005900D92A83DB1079B
:10049000D9F726E0A8EDB4E001C01D92AD36B20751
:1004A000E1F712E0C8E3D2E004C02197FE010E9408
:1004B0002A30C733D107C9F70E943A2B0C946A310E
:1004C0000C940000FC0180914205882311F13FB794
:1004D000F89482E08093E9002091F200822F90E06E
:1004E0001816190614F481E090E0882339F0289852
:1004F00044E6409341054091F1004083222339F0C6
:100500002091F200211103C02BE62093E8003FBFA9
:1005100008958FEF9FEF08953FB7F89480913D05C0
:1005200090913E05A0913F05B091400526B5A89B4E
:1005300005C02F3F19F00196A11DB11D3FBFBA2F75
:10054000A92F982F8827BC01CD01620F711D811D35
:10055000911D42E0660F771F881F991F4A95D1F7BA
:1005600008958F929F92AF92BF92CF92DF92EF92B7
:10057000FF924B015C010E948C026B017C010E9486
:100580008C026C197D098E099F09683E73408105B4
:100590009105A8F321E0821A9108A108B10888EE1C
:1005A000C80E83E0D81EE11CF11C81149104A10443
:1005B000B10429F7FF90EF90DF90CF90BF90AF90FC
:1005C0009F908F9008952FB7F8946091390570919E
:1005D0003A0580913B0590913C052FBF08954091CD
:1005E0001C0550911D0520911A0530911B054217DD
:1005F0005307B4F49091E8009570E1F39091E8000E
:1006000092FD19C08093F10080911C0590911D0509
:1006100001968F739927892B19F48EEF8093E80048
:1006200080911C0590911D05019690931D05809366
:100630001C0581E0089580E00895DF92EF92FF921B
:100640000F931F93CF93DF93D82E8A01EB017B0189
:10065000E40EF51ECE15DF0559F0D7FE12C0FE01DF
:1006600084910E94EF0221968111F4CF0FEF1FEFCA
:10067000C801DF91CF911F910F91FF90EF90DF9014
:1006800008958881EECF2FB7F89487708093E900A2
:100690009091E800892F807295FF04C09091F2003C
:1006A00080E4891B2FBF08957F928F929F92AF9213
:1006B000BF92CF92DF92EF92FF920F931F93CF934F
:1006C000DF93C82E8B017A0180914205811110C001
:1006D0008FEF9FEFDF91CF911F910F91FF90EF90E0
:1006E000DF90CF90BF90AF909F908F907F900895B4
:1006F0008091200580FF05C08091E000826080939A
:10070000E000CE2DDF2DD12C8AEFB82E8C2D8770F6
:10071000982E8C2D8072882E8C2D8074782E9AE3E2
:10072000A92E209719F4DD2009F452C08C2D0E94C7
:10073000430381110AC0BA94BB2051F261E070E01A
:1007400080E090E00E94B102ECCF8C171D0611F002
:100750000CF08C2F9FB7F8949092E9002091E8005C
:1007600025FD02C09FBFDDCF282F30E0C21BD30B79
:10077000882029F08150A0F01092F100FBCFF80101
:10078000C7FC0AC0815050F041914093F100FACF6C
:1007900044914093F10031968150D0F7020F131F1E
:1007A000DD2021F0A092E800D12CDCCF8091E80080
:1007B00085FD07C0A092E800DD24D394209791F234
:1007C000F3CF209779F6772069F2A092E800CACF9C
:1007D0005D9884E680931F05C7017CCF615030F09F
:1007E0002091F100FC0120830196F8CF289884E63F
:1007F0008093410508954F925F926F927F92AF92DE
:10080000BF92CF92DF92EF92FF920F931F93CF93FD
:10081000DF93EC016B017B01E40EF51E8B015801A7
:10082000AC18BD080E151F0511F10E94E302688780
:1008300079878A879B87E881F9810284F385E02D97
:10084000CE01099597FF23C00E94E3024884598492
:100850006A847B8464197509860997094C805D80D8
:100860006E807F80641575058605970520F3C501A8
:10087000DF91CF911F910F91FF90EF90DF90CF907C
:10088000BF90AF907F906F905F904F900895F80168
:1008900081938F01C4CFAF92BF92CF92DF92EF923C
:1008A000FF920F931F93CF93DF936C017B018B011A
:1008B000040F151FEB015E01AE18BF08C017D1076A
:1008C00059F06991D601ED91FC910190F081E02DF4
:1008D000C6010995892B79F7C501DF91CF911F9149
:1008E0000F91FF90EF90DF90CF90BF90AF90089561
:1008F0008091120581110DC082E080930E0584E085
:1009000080930F05109211051092100581E08093DD
:1009100012058EE095E008950F931F93CF93DF9318
:100920001F92CDB7DEB782E0898342E450E067E5ED
:1009300071E080E80E941D030E947804DC01129699
:100940000D911C910115110589F0D801ED91FC91D3
:100950000280F381E02DBE016F5F7F4FC8010995D2
:1009600097FD04C0F80100851185ECCF89810F90B7
:10097000DF91CF911F910F910895CF93DF93EC01F9
:1009800080912201882331F083E00E9454031816DD
:10099000190634F081E090E09B838A8380E090E048
:1009A000DF91CF910895CF93DF931F92CDB7DEB73C
:1009B0006983DC01ED91FC910280F381E02D41E03F
:1009C00050E0BE016F5F7F4F09950F90DF91CF918F
:1009D000089583E08093E9008091F200882319F064
:1009E0008AE38093E800089583E00E94430390E047
:1009F0000895CF93DF931F92CDB7DEB7FC018485B6
:100A0000958597FD08C02FEF3FEF358724870F901E
:100A1000DF91CF910895CE0101960E946202019765
:100A200019F4898190E0F3CF8FEF9FEFF0CF0F9310
:100A30001F93CF93DF931F92CDB7DEB78C01FC01DC
:100A40008485958597FF0BC0CE0101960E946202B6
:100A5000019771F4898190E0F80195878487F80106
:100A6000848595850F90DF91CF911F910F91089507
:100A70008FEF9FEFF1CFFC018485958597FD0BC02B
:100A80009FB7F89482E08093E9008091F2009FBFC5
:100A900090E0019608959FB7F89482E08093E90072
:100AA0008091F2009FBF90E00895CF93DF93EC0117
:100AB0008A85882329F081508A87DF91CF91089514
:100AC0009C818E819817C8F78D856827E881F98108
:100AD0000084F185E02D42E0CE0109958C818F5F85
:100AE0008C83EBCF81E090E0089581E0089583E06E
:100AF00090E0089584E090E00895EF920F931F93A3
:100B0000F901DA012C913E2D309532233C9330814E
:100B10003E293083FC01D80198E080E030E020E0FD
:100B20004C914E2189F02A95D9F720E04C914E2125
:100B300059F02A95D9F720E84C914E2129F02A95B1
:100B4000D9F73A9561F717C047E04A95F1F70000E9
:100B500031E0550F4C914E2109F051609A9529F4DE
:100B60005193839598E0681731F020E84C914E211D
:100B700011F72A95D9F71F910F91EF9008950F93D0
:100B80001F93F9012081202B2083DA012C91202B47
:100B90002C9320814081202B30E010E000951095AF
:100BA00050E004231523DC015D9148E00083550FDC
:100BB00040F474E07A95F1F720837AE07A95F1F7C2
:100BC00005C07EE07A95F1F7000020834A9529F070
:100BD00073E07A95F1F70000E9CF6A9529F071E0AA
:100BE0007A95F1F70000E0CF72E07A95F1F7000016
:100BF0000000008374E07A95F1F700000000208384
:100C00001F910F9108957F928F929F92AF92BF9202
:100C1000CF92DF92EF92FF920F931F93CF93DF93C8
:100C2000DB01642F5901F02E282F30E0F901E95F34
:100C3000FD4FE49028513E4FF901249130E0220FFE
:100C4000331FF901E652FE4FC591D491F901E453E7
:100C5000FE4FC590D490F901E75CFE4F85909490CB
:100C60007FB6F8940E2D9601AE01CD010E94BF050E
:100C700084019601AE016F2DC5010E947D057FBEE6
:100C8000DF91CF911F910F91FF90EF90DF90CF9068
:100C9000BF90AF909F908F907F900895FC018FE060
:100CA00086838FE78783808711861286138608954F
:100CB000DC01FB0112962C911297848195812817F3
:100CC000190641F491818081813A31F49D7F81E060
:100CD000913009F080E008958132E1F79B3029F4EA
:100CE00082811F968C9381E008959A3099F78281D2
:100CF00050968C93F8CFEF92FF920F931F93CF9360
:100D0000DF93FB012081213889F52381223271F59F
:100D1000DC0112964C91248135814217130631F57E
:100D20008C01FC01C385D485F12CE12C209791F036
:100D30004C815D816A817B818E81811180E80E9476
:100D40001D038F3F980759F0E80EF91E0990D881CE
:100D5000C02DECCF81E0D8011F968C93C701DF91A5
:100D6000CF911F910F91FF90EF90089590E080E058
:100D7000F6CFCF93DF93CDB7DEB769970FB6F89470
:100D8000DEBF0FBECDBFFC01DB018C918F5F8C936A
:100D90009E012D5F3F4F8DE0D9011D928A95E9F7A5
:100DA00029E0298384E08A8391E09D8383E08E8318
:100DB0002A8721E22B879C879D879F8722E2288BA9
:100DC00027E02B8B25E02C8B8E8B20E430E0388FB6
:100DD0002F8B998F82818B8395858685998B8A8BC2
:100DE000838180688D8B49E150E0BE016F5F7F4F4A
:100DF00080E00E941D0369960FB6F894DEBF0FBE17
:100E0000CDBFDF91CF910895469A5C9883E090E042
:100E1000FC013197F1F75C9AFC013197F1F75C988E
:100E20000197F1F7089584E98093BC0085E69091DD
:100E3000BC0094FF03C08150D1F7089581E008956C
:100E400080913605909137050196873091052CF4F5
:100E50009093370580933605089581E090E0F8CFB0
:100E6000909125018917C0F4E82FF0E0EE0FFF1FE5
:100E7000E65DFA4F80819181DC01ED91FC9101905A
:100E8000F081E02D0995E0912A05F0912B058FE77F
:100E9000878380878187828708950895DC019C96E7
:100EA000EC919C979D962C91E21730F4E80FF92F66
:100EB000F11D848590E008958FEF9FEF0895FC0168
:100EC00094A585A52FEF3FEF981740F4DF01A90FF8
:100ED000B11D1C962C9130E09F5F94A7C901089525
:100EE000FC0185A594A5891B990B0895CF92DF92EB
:100EF000EF92FF920F931F93CF93DF936C01EB015F
:100F00007B01E40EF51E10E000E0CE15DF0561F078
:100F10006991D601ED91FC910190F081E02DC6011F
:100F20000995080F191FF1CFC801DF91CF911F91CB
:100F30000F91FF90EF90DF90CF900895CF93DF93C4
:100F4000909125018917B0F4C82FD0E0CC0FDD1F98
:100F5000C65DDA4F88819981DC01ED91FC910190A9
:100F6000F081E02D0995E881F9818FE787838087FB
:100F700081878287DF91CF910895EF92FF920F933F
:100F8000CF93DF931F92CDB7DEB77C01FC01808148
:100F90009181892BE1F48781198203E0970141E077
:100FA000BE016F5F7F4F0E940306833061F0F7013F
:100FB00010821182128280E00F90DF91CF910F9109
:100FC000FF90EF9008958BE891E00197F1F7F7011A
:100FD000878191E0998304E097012D5F3F4F41E0C5
:100FE000BE016F5F7F4F0E940306843001F781E0EE
:100FF000E3CFFC011082118212820895EF92FF92DA
:101000000F93CF93DF931F92CDB7DEB77C01FC0126
:101010008589198203E0970141E0BE016F5F7F4F30
:101020000E940306833029F0C7010E94F90790E06F
:1010300017C0F7018081918188309042C9F0F70193
:10104000858991E4998397012D5F3F4F0AE041E044
:10105000BE016F5F7F4F0E94030691E08A3039F72F
:10106000892F0F90DF91CF910F91FF90EF9008950E
:1010700091E0F6CFEF92FF920F93CF93DF9300D0E2
:101080001F92CDB7DEB77C01FC0180819181892B55
:1010900009F1F701808191818930910579F592817B
:1010A00093FB992790F9858920E4298323E02A83FB
:1010B0009B8308E09701235F3F4F43E0BE016F5FD2
:1010C0007F4F0E940306883099F0C7010E94F907FC
:1010D00080E005C0C7010E94FE078111DACF0F90A2
:1010E0000F900F90DF91CF910F91FF90EF900895A7
:1010F000F701858585FDE9CF81E0F1CF8830904209
:10110000D9F7F701858994E599831A821B8208E053
:101110009701235F3F4F43E0BE016F5F7F4F0E9407
:101120000306883049F3D1CF90912501891778F4CF
:10113000E82FF0E0EE0FFF1FE65DFA4F808191810E
:10114000DC01ED91FC910190F081E02D099408956E
:10115000FC016093BC002FEF3FEF8091BC0087FF44
:1011600006C09091B900987F908381E00895215046
:10117000310999F780E00895CF93DF93EC016093F4
:10118000BB0064E80E94A808882329F081E09881C8
:10119000983209F080E0DF91CF910895DF92EF92CD
:1011A000FF920F931F93CF93DF93EC01D62EF42E73
:1011B0008989882329F0411103C00E941307198AE5
:1011C0008E01015F1F4F8989811119C0E88864EA87
:1011D000C8010E94A808882361F08F85883011F02B
:1011E000803139F4EE0CE092BB0064E8C8010E9443
:1011F000A80860E0F11060E4C8010E94BC086D2DF1
:10120000C8010E94BC0882E0F8120BC089898F5F78
:10121000898BDF91CF911F910F91FF90EF90DF901D
:1012200008950E941307198AF4CFDC01ED91FC9117
:101230000084F185E02D40E00994FC01278126958A
:1012400026952695621720F46583606B0C9415092A
:1012500008950F931F93CF93FC012681621798F492
:10126000C62F8C0164836085C60F6C2F6F700E943F
:1012700015096C2F62956F706061C801CF911F9145
:101280000F910C941509CF911F910F9108951F9301
:10129000CF93DF93EC01142F0E942909612FCE0117
:1012A000DF91CF911F910C941D092F923F924F9285
:1012B0005F926F927F928F929F92AF92BF92CF92E6
:1012C000DF92EF92FF920F931F93CF93DF9300D0A3
:1012D00000D000D0CDB7DEB7FC01238534852115C1
:1012E000310509F416C19E838D83F901329664900D
:1012F00031964491E42EF12CF7E0EF0EF11C53E00F
:10130000F594E7945A95E1F7E982F90134965491FE
:101310003196E4916D30F1F460E00E94290981E09A
:1013200090E026960FB6F894DEBF0FBECDBFDF91DA
:10133000CF911F910F91FF90EF90DF90CF90BF90D2
:10134000AF909F908F907F906F905F904F903F9065
:101350002F9008956A3081F460E08D819E810E9413
:101360002909ED81FE81868565818E9D600D1124A0
:10137000CF010E941D09D3CF651708F4CAC08E2F74
:1013800090E0FC01E50FF11D6E171F060CF0C1C0C7
:1013900089010A5F1F4F651BED81FE8171855685AE
:1013A000759F502D11245C83F90154912F5F3F4F9D
:1013B000F9012491352F2230310508F06AC06E9C66
:1013C000C0016F9C900D1124689FF001699FF00D82
:1013D00011240E0F1F1F512CED81FE81F481FA8321
:1013E000ED81FE812580F285FB83862C912CAA2439
:1013F000A394B12C312C8981381608F086C0412C79
:10140000ED81FE818685481608F078C08B81828741
:10141000311002C0442041F0ED81FE8145814F5FD3
:101420006A81CF010E944709D12CC12CC61408F053
:1014300058C0F801EC0DFD1D7490552061F0EA14C0
:10144000FB0449F4E72DF0E0052C02C0F595E79583
:101450000A94E2F77E2EED81FE818685823081F44A
:10146000442009F43AC072948FE07822E72DF0E02E
:10147000E95BFE4F7490672D8D819E810E9455051A
:10148000672D8D819E810E9455058FEFC81AD80A5D
:10149000CDCF477028E0522E541A411101C0512C73
:1014A000F801612C30E020E0661631F04491240F01
:1014B000311D63943196F8CF600E712E711CF301CB
:1014C0006490E29EF001E39EF00DF29EF00D112477
:1014D0008E0F9F1F080F191F7FCFF72DFF707F2ED4
:1014E000C5CFD12CEC81DE1639F060E08D819E8174
:1014F0000E945505D394F6CF439482CF3394080DC0
:10150000191DFFEFAF1ABF0A76CF622D8D819E8124
:1015100030CF90E080E005CF0F931F93CF93DF9300
:101520008C01D0E0C0E0F801EC0FFD1F6491662350
:1015300041F087E596E00E945509892B11F021962C
:10154000F2CFCE01DF91CF911F910F910895CF92ED
:10155000DF92EF92FF920F931F93CF93DF93EC01F3
:10156000F62EC42ED22E1A868F8186958695869564
:10157000081710F00FEF080F1D2D011780F0412FF5
:101580006F2DCE010E944709EF2CCE1430F06D85EF
:10159000CE010E945505E394F8CF1F5FEECF4D2D8D
:1015A0006F2DCE01DF91CF911F910F91FF90EF90A2
:1015B000DF90CF900C9447090F93FC0107810695AB
:1015C0000695069501504681415020E060E00E945A
:1015D000A70A0F9108954F925F926F927F928F9218
:1015E000AF92CF92EF92FF920F931F93CF93DF931F
:1015F000CDB7DEB72701380194E0899F800111241F
:10160000F801E852FB4F80819181A281B3818E2144
:101610009521A621B72131E0892B8A2B8B2B09F448
:1016200030E03C1103C08889882301F1C11001C05A
:10163000A82C2D5F640F422F87E596E00E94470992
:101640006A2D87E596E00E945509F801E852FB4FA4
:10165000CC20D1F080819181A281B3818429952908
:10166000A629B72980839183A283B383DF91CF9189
:101670001F910F91FF90EF90CF90AF908F907F9040
:101680006F905F904F900895409450946094709440
:1016900080819181A281B38184219521A621B721E6
:1016A000E1CF2F923F924F925F926F927F928F92F3
:1016B000AF92CF92DF92EF92FF920F931F93CF934F
:1016C000DF933C01D62EC5ECD3E0E880F9800A8197
:1016D0001B819C814D81AE808F8081E061147104FB
:1016E00079F0F30122803380448055802E203F2002
:1016F0004022512281E023282428252809F080E077
:10170000DF92C82E292F60E080E00E94EB0A289625
:101710000F90F4E0CD36DF07C1F6DF91CF911F9136
:101720000F91FF90EF90DF90CF90AF908F907F90D0
:101730006F905F904F903F902F9008950F93CF93AD
:10174000DF93EC0107E023E04CE360E087E596E0FF
:101750000E94A70A47E060E087E596E00E944709FB
:10176000229761F486E694E00E948C0A61E090E0A2
:1017700080E0DF91CF910F910C94510B81E694E0C2
:10178000DF91CF910F910C948C0A8F929F92AF9220
:10179000BF92CF92DF92EF92FF920F931F93CF935E
:1017A000DF93D82EC62FE82FF0E0EE0FFF1FEF5388
:1017B000FC4FB08007E023E041816B2D87E596E088
:1017C0000E94A70A47E06B2D87E596E00E94470933
:1017D000C13069F581ED90E00E948C0A81E08D15A1
:1017E000C8F0CBE2D2E099249394E880F9800A8192
:1017F0001B819F928F80AE80CC24C3942C814D811D
:101800006B2D8D2D0E94EB0A28960F9082E0CB392C
:10181000D80759F7DF91CF911F910F91FF90EF906B
:10182000DF90CF90BF90AF909F908F90089581E60A
:1018300094E0DF91CF911F910F91FF90EF90DF9097
:10184000CF90BF90AF909F908F900C948C0A0F9385
:1018500007E022E04FE760E087E596E00E94A70AF4
:1018600080913605909137058330910541F138F428
:101870008130910591F00297D1F00F910895853054
:10188000910569F120F10697C1F766E387E596E0D7
:101890000E94290985ED90E007C064E287E596E0A3
:1018A0000E94290985EF90E00F910C948C0A6AE25E
:1018B00087E596E00E9429098DEE90E0F5CF6AE277
:1018C00087E596E00E94290986EE90E0EDCF66E379
:1018D00087E596E00E94290982EE90E0E5CF64E278
:1018E00087E596E00E94290989ED90E0DDCF80939D
:1018F00000016EEA81116FEA87E596E00E94150902
:101900000E94E3026093E1047093E2048093E30495
:101910009093E4040895FC01448550E0A585B0E06F
:10192000AA0FBB1FAB5BBA4F0D90BC91A02D1396B5
:101930008C91806490914905BF01992321F06E5FDD
:101940007F4F0C9454036D5F7F4FFBCF089590E061
:1019500080E008952F923F924F925F926F927F9214
:101960008F929F92AF92CF92DF92EF92FF920F935E
:101970001F93CF93DF93CDB7DEB7C456D1090FB60F
:10198000F894DEBF0FBECDBF3C012B01D42EF22E4A
:1019900089EB93E0D3018D939C93822F90E0019685
:1019A0009595879590914305981708F468C0909194
:1019B000440512E0981708F07AC011E0222423941D
:1019C000312CF101ED5BFA4F81E0890F8083911199
:1019D0006EC083E190E00E9430304C0181E0F40160
:1019E000848385839401265F3F4F37832683118646
:1019F00010862DEA33E03183208314861386168601
:101A000015868787808B528A418A81EC82870E9463
:101A10007804FC018181D40114965C91682F650FD4
:101A20007727771F68307105DCF5A281B3811097A5
:101A300059F5938282829081D40112969C931297D9
:101A400013968C93139715968C91890F808390E051
:101A500080E0851728F54181A42FB0E0BD016A5DC3
:101A60007E4FD40116962D913C91280F391FD90134
:101A70002C91DB012C934F5F41830196EACF10E05C
:101A8000312C212C9ECFD90118962D913C9119977C
:101A900021153105C1F719969C928E921897CBCFDC
:101AA000F101EE0FFF1FEB5BFA4F91828082F30191
:101AB000158781E0F2E0FF1508F080E0809349058A
:101AC0008FEB93E0D30111969C938E931296DC9248
:101AD00012972C2D2A0D2E0D200F85E0820F1C96BB
:101AE0008C9395E0998381E08A8339E03B839C83E2
:101AF00091EA9D838E83B2E0BF1508F00CC385E8A0
:101B00008F83D88698E0E1E0F0E0EC0FFD1FE90F4D
:101B1000F11D55E0F52EF082E1E0E90F8824839471
:101B2000912C8C0E9D1E8E0E911CF40159E0508359
:101B3000E2E0E90F61E070E06C0F7D1F6E0F711D38
:101B4000FB0189E18083E3E0E90FA1E0B0E0AC0FA5
:101B5000BD1FAE0FB11DFD0131E03083E4E0E90FA0
:101B600088248394912C8C0E9D1E8E0E911CF40162
:101B700089E28083E5E0E90F61E070E06C0F7D1F92
:101B80006E0F711DFB0148E14083A6E0A90FE1E063
:101B9000F0E0EC0FFD1FEA0FF11DDF01E5E1EC9332
:101BA000A7E0A90F88248394912C8C0E9D1E8A0E89
:101BB000911CD4011C92A8E0A90F61E070E06C0FA9
:101BC0007D1F6A0F711DDB0185E28C93A9E0A90FCF
:101BD00088248394912C8C0E9D1E8A0E911CD40116
:101BE0003C93AAE0A90F61E070E06C0F7D1F6A0FC3
:101BF000711DDB0175E77C93ABE0A90F882483940A
:101C0000912C8C0E9D1E8A0E911CD4013C93ACE04D
:101C1000A90F88248394912C8C0E9D1E8A0E911CF2
:101C2000D40165E96C93ADE0A90F88248394912CCD
:101C30008C0E9D1E8A0E911CD4014C93AEE0A90F10
:101C400088248394912C8C0E9D1E8A0E911CD401A5
:101C500041E84C93AFE0A90F88248394912C8C0E1B
:101C60009D1E8A0E911CD401F2E0FC93A0E1A90F05
:101C700088248394912C8C0E9D1E8A0E911CD40175
:101C8000FC92A1E1A90F88248394912C8C0E9D1EB7
:101C90008A0E911CD4013C93A2E1A90F882483945D
:101CA000912C8C0E9D1E8A0E911CD4015C93A3E195
:101CB000A90F88248394912C8C0E9D1E8A0E911C52
:101CC000D4010F2EF9E3FF2EF02DFC92A4E1A90F11
:101CD00088248394912C8C0E9D1E8A0E911CD40115
:101CE000EC93A5E1A90F88248394912C8C0E9D1E62
:101CF0008A0E911CD4011C92A6E1A90F882483941A
:101D0000912C8C0E9D1E8A0E911CD4018C93A7E100
:101D1000A90F88248394912C8C0E9D1E8A0E911CF1
:101D2000D40187E08C93A8E1A90F88248394912C97
:101D30008C0E9D1E8A0E911CD40185E38C93A9E123
:101D4000A90F88248394912C8C0E9D1E8A0E911CC1
:101D5000D4011C92AAE1A90F88248394912C8C0EA3
:101D60009D1E8A0E911CD40186E48C93ABE1A90FD1
:101D700088248394912C8C0E9D1E8A0E911CD40174
:101D80008BE38C93ACE1A90F88248394912C8C0E67
:101D90009D1E8A0E911CD4013C93ADE1A90F8824AD
:101DA0008394912C8C0E9D1E8A0E911CD40185E685
:101DB0008C93AEE1A90F88248394912C8C0E9D1EE8
:101DC0008A0E911CD40184E18C93AFE1A90F882481
:101DD0008394912C8C0E9D1E8A0E911CD4017C93B1
:101DE000A0E2A90F88248394912C8C0E9D1E8A0E4C
:101DF000911CD40188E08C93A1E2A90F88248394DC
:101E0000912C8C0E9D1E8A0E911CD4016C93A2E223
:101E1000A90F88248394912C8C0E9D1E8A0E911CF0
:101E2000D4013C93A3E2A90F88248394912C8C0EB7
:101E30009D1E8A0E911CD4014C9345E2F42EF90E9E
:101E400044E2490F88248394912C8C0E9D1E840EAD
:101E5000911CD401FC93222309F402C1A1E0B0E05B
:101E6000AC0FBD1FAF0DB11D5C93A6E2A90F882476
:101E70008394912C8C0E9D1E8A0E911CD4013C9350
:101E8000A7E2A90F88248394912C8C0E9D1E8A0EA4
:101E9000911CD401EC93E8E2E90FA1E0B0E0AC0FB3
:101EA000BD1FAE0FB11DFD011082E9E2E90F8824CC
:101EB0008394912C8C0E9D1E8E0E911CF40136E2A3
:101EC0003083EAE2E90FA1E0B0E0AC0FBD1FAE0F36
:101ED000B11DFD013FEF3083EBE2E90F88248394CD
:101EE000912C8C0E9D1E8E0E911CF4011082ECE242
:101EF000E90FA1E0B0E0AC0FBD1FAE0FB11DFD01B9
:101F00007083EDE2E90F88248394912C8C0E9D1E42
:101F10008E0E911CF4018083EEE2E90FA1E0B0E0A7
:101F2000AC0FBD1FAE0FB11DFD016083EFE2E90FE5
:101F300088248394912C8C0E9D1E8E0E911CF4018E
:101F40002083E0E3E90F21E030E02C0F3D1F2E0F4E
:101F5000311DF90181EA808322E3290FE1E3E90FD2
:101F600061E070E06C0F7D1F6E0F711DFB01108230
:101F7000002391F0E1E0F0E0EC0FFD1FE20FF11D16
:101F8000508324E3290F9D5CE1E0F0E0EC0FFD1F9E
:101F9000E90FF11D80E38083EE20A1F0E1E0F0E0A5
:101FA000EC0FFD1FE20FF11D89E08083E1E0E20FFD
:101FB00081E090E08C0F9D1F8E0F911DFC0181E34D
:101FC00080832E5FCC20A1F0E1E0F0E0EC0FFD1F5C
:101FD000E20FF11D89E08083E1E0E20FA1E0B0E0D3
:101FE000AC0FBD1FAE0FB11DFD0182E380832E5FDC
:101FF000AA20A9F0E1E0F0E0EC0FFD1FE20FF11DD7
:1020000089E08083E1E0E20F88248394912C8C0E98
:102010009D1E8E0E911CF40185E380832E5FE1E00E
:10202000F0E0EC0FFD1FE20FF11D81E88083E1E09D
:10203000E20F41E050E04C0F5D1F4E0F511DFA01C1
:1020400082E0808393E0F92EF20EE2E0E20F61E09D
:1020500070E06C0F7D1F6E0F711DFB0180EC8083A3
:10206000E1E0F0E0EC0FFD1FEF0DF11D80EC80834F
:10207000A1E0AF0DEA2EF12CC7010E9430306C01B7
:10208000A701BE016F5F7F4F0E945A3187E090E049
:102090000E943030DC0111961C921E921396DC9245
:1020A000CE9212971596FC92EE92149716961C9269
:1020B0001697E12FF0E0EE0FFF1FEB5BFA4F408128
:1020C0005181FA0183859485009761F5B487A387D0
:1020D000FA018585968514962D913C91820F931F68
:1020E00096878587CC59DF4F0FB6F894DEBF0FBEB9
:1020F000CDBFDF91CF911F910F91FF90EF90DF90B7
:10210000CF90AF909F908F907F906F905F904F9007
:102110003F902F90089584E0820FF301848796E02A
:10212000F2CCC901FC012081318121153105C9F7AB
:10213000B183A083CDCF0E945531CF93DF93FC01B3
:102140002085318580E0232B69F4EB016189728958
:10215000CE010E946331FE0101900020E9F7319722
:102160008E2F8C1BDF91CF9108951F920F920FB687
:102170000F9211242F933F938F939F93AF93BF930D
:102180008091390590913A05A0913B05B0913C05AD
:102190003091380523E0230F2D3758F50196A11D06
:1021A000B11D209338058093390590933A05A0938B
:1021B0003B05B0933C0580913D0590913E05A09173
:1021C0003F05B09140050196A11DB11D80933D05CD
:1021D00090933E05A0933F05B0934005BF91AF910A
:1021E0009F918F913F912F910F900FBE0F901F9055
:1021F000189526E8230F0296A11DB11DD2CF1F927C
:102200000F920FB60F9211248F939F938091E1004C
:102210009091E100937F9093E10083FF0FC01092B3
:10222000E90091E09093EB001092EC0092E3909320
:10223000ED001092420598E09093F00082FF22C0DA
:1022400093E09093E9009091F200992319F09AE3BA
:102250009093E80090911F05992341F090911F05FC
:10226000915090931F05911101C05D9A9091410585
:10227000992341F09091410591509093410591111E
:1022800001C0289A84FF18C08091E2008E7E816090
:102290008093E2008091E1008F7E8093E100809145
:1022A00020058E7E8061809320059F918F910F90F5
:1022B0000FBE0F901F90189580FFF7CF8091E2001E
:1022C0008E7E80618093E2008091E1008E7E80931B
:1022D000E100809120058E7E8160E5CF1F920F92F4
:1022E0000FB60F921124CF92DF92EF92FF920F93CD
:1022F0001F932F933F934F935F936F937F938F938E
:102300009F93AF93BF93EF93FF93CF93DF93CDB79B
:10231000DEB76C97DEBFCDBF1092E9008091E80078
:1023200083FF25C068E0CE0145960E94EE0382EF50
:102330008093E8008D8987FF39C09091E80090FF75
:10234000FCCF982F907609F034C19E894F89588D23
:102350002F89F88C911131C0803861F58091210569
:102360008093F1001092F1008EEF8093E8006C965C
:102370000FB6F894DEBF0FBECDBFDF91CF91FF91B6
:10238000EF91BF91AF919F918F917F916F915F91ED
:102390004F913F912F911F910F91FF90EF90DF9000
:1023A000CF900F900FBE0F901F9018959EEF9093B7
:1023B000E800C7CF1092F100D5CF913059F48111C8
:1023C000D3CF4130510581F6809121058D7F8093D7
:1023D0002105CACF933049F48111C6CF4130510550
:1023E00019F6809121058260F2CF953041F48091F9
:1023F000E80080FFFCCF20682093E300B5CF963043
:1024000009F0A9C00B8D1C8D22E01092E9001092FA
:102410001D0510921C05F2122EC010921B05109281
:102420001A050E948C041F8299E09983FA8291E038
:102430009E8390EA98879AEF998720911C053091A6
:102440001D05275F3F4F3C832B838D831092E9004E
:1024500010921D0510921C0510931B0500931A0580
:1024600049E050E0BE016F5F7F4F80E00E941D0396
:102470000E948C0479CF10931B0500931A050E94CB
:102480007804DC0112960D911C910115110509F4D7
:1024900051C1D801ED91FC910480F581E02DBE0180
:1024A0006B5E7F4FC8010995009709F03EC1F801A6
:1024B00000851185EACFF3E0FF120EC08F898823D3
:1024C00009F440C0823061F440E860E18BEB91E0B8
:1024D0000E94AB28811148CF81E28093EB0047CF67
:1024E000813029F440E86BE08FEA91E0F1CF83304E
:1024F00099F70E947804DC011296ED90FC908E0111
:102500000F5F1F4F6801E114F10479F0D701ED91DD
:10251000FC910680F781E02DB801C7010995080FED
:10252000111DF701E084F184EECFD8011C92F60171
:1025300001900020E9F73197BF016C197D0940E057
:10254000C601C6CF69E971E0FB01449150E080E823
:102550000E941D0309CF973009F4BECF983021F4B3
:1025600081E08093F10000CF993009F0FDCE8370B7
:1025700009F0B2CFE7E2F1E081E031E096E32191AA
:10258000222371F08093E9003093EB00DF01119773
:102590002C912093EC009093ED008F5F873079F7BA
:1025A0008EE78093EA001092EA008F8980934205BB
:1025B000DBCE8B8D9C8D1092E90010921D05109240
:1025C0001C0590931B0580931A05898D811192C07B
:1025D0008E899D89913A49F4813209F07DCF47E097
:1025E00050E06BE171E080E0B3CF913209F074CF3D
:1025F000833269F48F89988DB0E0A0E08093170151
:1026000090931801A0931901B0931A01ADCE8032B6
:1026100069F48091E80082FFFCCF67E08BE191E0F4
:102620000E94EE038BEF8093E8009ECE823209F089
:102630009BCE8F8980932201EEEFFFE785919491E5
:102640008B3F9C4D51F1E0E0F8E080911B019091AF
:102650001C01A0911D01B0911E01803B9440A10579
:10266000B105F1F48091220180FD1AC0EE3F8AE0AD
:10267000F80789F587E797E7918380838091600069
:1026800080931E0588E19BE00FB6F894A89580938F
:1026900060000FBE9093600067CEEEEFFAE0D5CFFA
:1026A000808191818737974709F05ECEA895809108
:1026B000600088618093600080911E0580936000B7
:1026C000EE3F2AE0F20789F08091FE0A9091FF0A1E
:1026D0009183808349CE808191818737980751F219
:1026E0009093FF0A8093FE0AC5CF1092FF0A1092C2
:1026F000FE0A3ACE0E947804DC0112960D911C91DC
:102700000115110509F4E8CED801ED91FC91019075
:10271000F081E02DBE016B5E7F4FC80109958111EC
:1027200023CEF80100851185EBCF181619060CF49D
:102730001BCED2CEF1E0FF12BECE6DE971E004CF28
:1027400071E02D98259A24982C9A00000000000032
:102750000E94A62825982D9A0E94A628A8940000D9
:10276000000000001D9B0E948E28F2F088941C99A6
:102770000894771F30F72D98259A803021F02498FF
:102780002C9A0C94C5132C98249A00000000000089
:102790000E94A62825982D9AA894000000001D9B51
:1027A0000E948E280E94A628000000002D98259ADD
:1027B000872F9927089580E208950894881F0C9424
:1027C000E213880F11F12D98259A000000000000F7
:1027D00028F4000024982C9A0C94F2132C98249A34
:1027E0000C94F2130E94A62825982D9AA894000014
:1027F000000000001D9B0E948E281AF488270C946C
:102800001B140E94A6280C94E1132D98259A000011
:10281000000024982C9A0E94A6289927882725989A
:102820002D9AA89400001D9B0E948E283AF31C9BB1
:1028300081E00E94A628000000002D98259A0895A6
:1028400081E00895CF93DF93EC01862F0E94DD1382
:10285000811108C08FA5811102C083E08FA790E08D
:1028600080E002C081E090E0DF91CF9108952D9843
:10287000259A2C98249A0E94A62825982D9A0E9481
:10288000A6281D9B0E948E2824982C9A0E94A62878
:1028900008958F93F1E0E4EF8F918F931D9B0E9439
:1028A0008E282C98249A0E94A6280E94DD13882343
:1028B00031F40E943714319711F00C944C1499277D
:1028C0000F90089581E008952D98259A0E94A628DA
:1028D00024982C9A0E94A62825982D9A0E94A62812
:1028E0001D9B0E948E282C98249A0E94A6280E9444
:1028F000DD13089581E008951D9B0E948E282C9879
:10290000249A0E94A6280E94DD13089581E008956C
:102910001F93CF93DF93EC011EA584EA112371F07E
:102920000E946414811108C082E08FA781E08EA705
:10293000DF91CF911F91089580E0F7CF0E947C1422
:10294000811101C012E01FA7F1CFFF920F931F93D7
:10295000CF93DF93EC01F62E042F122F0E948814E0
:10296000E881F9810190F081E02D6F2DCE0109956C
:10297000E881F9810190F081E02D602FCE01099569
:102980000FA50E9437141EA61FA680E0011107C0E4
:10299000112321F087EB92E00197F1F781E0DF91BD
:1029A000CF911F910F91FF900895AF92BF92CF9258
:1029B000DF92EF92FF921F93CF93DF93EC011FA65C
:1029C000162F613208F010E28EA5882331F185EAD6
:1029D0000E94641491E089279FA5911104C0882367
:1029E00011F082E08FA76E018CE0C80ED11CF12C93
:1029F000E12CE12FE150FF0B5F01E11690F481E043
:102A0000AE14BF0409F080E00E94A013F601819388
:102A10006F01FFEFEF1AFF0AF0CF85EA0E947C14E6
:102A2000D9CF1CA68FA5811110E01DA71EA60E945C
:102A300037148DA5DF91CF911F91FF90EF90DF901C
:102A4000CF90BF90AF900895EF92FF920F931F9396
:102A5000CF93DF93EC01162F7A010E948814E8814E
:102A6000F9810190F081E02D60E0CE0109950FA57C
:102A70000E9437141EA61FA6011110C087EB92E01A
:102A80000197F1F7612FCE010E94D514482F50E035
:102A9000B701CE010E94FB0391E0181390E0892F4B
:102AA000DF91CF911F910F91FF90EF900895AF921A
:102AB000BF92CF92DF92EF92FF920F931F93CF932B
:102AC000DF93CDB7DEB760970FB6F894DEBF0FBEC9
:102AD000CDBF8C0197EBE92E92E0F92EC70101974B
:102AE000F1F7D8011296ED91FC9121E043E06EEFF1
:102AF000808191810E94A514FE0131966F018111A0
:102B000011C0D8011296ED91FC91A60166E070E02B
:102B1000808191810E942415882309F443C0C70154
:102B20000197F1F788E05E01B9E0AB0EB11CF50149
:102B3000282F11922A95E9F7D6011D928A95E9F777
:102B400087EBE82E82E0F82ED8011296ED91FC91E9
:102B5000A50168E070E0808191810E94241588239E
:102B600009F443C0C7010197F1F7D8011296ED911E
:102B7000FC91A60168E070E0808191810E9424159B
:102B8000882399F12985998129131DC02A859A8165
:102B9000291319C09F8591111AC09889911117C0E6
:102BA000F801148260960FB6F894DEBF0FBECDBF59
:102BB000DF91CF911F910F91FF90EF90DF90CF9019
:102BC000BF90AF900895C7010197F1F7BDCF91E095
:102BD000D80114969C9314971296ED91FC919481D0
:102BE000983000F798E09483DDCF80E0DBCF2F9220
:102BF0003F924F925F926F927F928F929F92AF928D
:102C0000BF92CF92DF92EF92FF920F931F93CF93D9
:102C1000DF93CDB7DEB7CD55D1090FB6F894DEBF3F
:102C20000FBECDBF0E948C02C0902301D090240122
:102C300000910A0510910B0520910C0530910D05AE
:102C4000601B710B820B930B860130E020E0601754
:102C500071078207930708F4B8C4809136059091F4
:102C600037058330910509F468C650F48130910529
:102C700009F4CAC0029709F4F8C4109208059BC46D
:102C80008530910511F40C94562110F40C94BA1E61
:102C9000069799F780910501882331F0109205017C
:102CA00090E080E00E94F928F090E804A0902805C8
:102CB000B0902905F1100C942725D5011296ED91BD
:102CC000FC910081118120E045E560EFC8010E9480
:102CD000A514882311F40C9414256AE070E080E0B8
:102CE00090E00E94B10220E040E06BEFC8010E943A
:102CF000A514882311F40C94142564E170E080E09D
:102D000090E00E94B102F501C280D380D6010D91FE
:102D10001C91C8010E948814D801ED91FC9101908A
:102D2000F081E02D6AEFC8010995F801E7A40E943F
:102D30003714D8019E961C929E979F961C92EE2067
:102D400011F40C94B02490E080E0F6019383828328
:102D5000C5010E94DE28E82E882311F40C941A2560
:102D6000D5011296ED91FC91359685E1DF011D921A
:102D70008A95E9F7D5011296ED91FC91139786E0BB
:102D80008483ED91FC910190F081E02DC5010995BE
:102D9000882311F40C941A25F501068D178D011561
:102DA000110511F40C942325D801CD90DC90C601B7
:102DB0000E94DE28882311F40C941E25D601ED9183
:102DC000FC910190F081E02DC6010995E82E882341
:102DD00011F40C941E2581E08093E80480E00E94A9
:102DE0003007E0912805F09129050280F381E02D5C
:102DF000828193810E94F92882E390E090932401DC
:102E0000809323010C94B71E8E010F5F1F4F2F96E6
:102E10001FAF0EAF2F978CE0D8011D928A95E9F76E
:102E200080911601882381F010921601809125016E
:102E3000833050F045E06EE187E596E00E94470957
:102E40008FE291E00E948C0A57E2A52E56E0B52E43
:102E50008FE496E0F501208531853587248722852A
:102E600033853787268738968E179F07A1F7F0900E
:102E70002D0610922D0610922E06D12C222423947A
:102E8000312C33E0832E912C412C512C3201439470
:102E90000E94040750E040E0E42F469AC4010197E5
:102EA000F1F799B18CB163B133B186FB222720F9D8
:102EB000220F220F892F881F8827881F880F880FCD
:102EC000880F280F35FB882780F9280F62956170DD
:102ED000660F260F4698C4010197F1F739B19CB1EE
:102EE00063B173B196FB882780F9880F880F331F71
:102EF0003327331F330F330F330F830F75FB99279E
:102F000090F9890F64FB992790F9990F890F453043
:102F100009F492C0311006C0E0912D0691E09E0F99
:102F200090932D06E63008F0E5E0B8E0EB9FF00165
:102F30001124E15DF94F6281738190E0211172C02B
:102F400093018201042E04C0000F111F221F331FA2
:102F50000A94D2F72D960CAF1DAF2EAF3FAF2D9731
:102F6000D02A707F982F8827860F971F938382839C
:102F70004F5F5F4F4630510509F08ECF11E031129F
:102F80004EC046985C9883E290E00197F1F72220CA
:102F900009F45CC085E080932E0690E080E04D2D22
:102FA00050E09A01082E02C0359527950A94E2F761
:102FB00020FF49C023E030E0D50119963C932E93C1
:102FC00018970196B8E0AB0EB11C8530910549F712
:102FD00090912D0680E02FEF3FEF981709F45AC02B
:102FE000E82F863008F0E5E0F0E0DF0173E0AA0F9B
:102FF000BB1F7A95E1F7A15DB94F13E0EE0FFF1FFC
:103000001A95E1F7E95DF94F6D917C9144855585FD
:103010006417750711F0338722878F5FDECF332463
:10302000339436CF607F620F711D6F7004E0880F9C
:10303000991F0A95E1F798CF211103C0882309F45D
:1030400097CF212C95CF22E030E0B6CF10922E06FC
:1030500030922D0623E030E0D0FC02C022E030E0C8
:1030600080E04FEF5FEF81110BC03093300620936B
:103070002F068F5FF8E0AF0EB11C8530A1F7A8CF07
:10308000F501118610865387428715861486578767
:103090004687EFCF4FEF5FEF8F1508F4EBC0A7EF38
:1030A000B5E08FE196E0FD012085318535872487E5
:1030B000228533853787268738968E179F07A1F795
:1030C0003090FD051092FD051092FE0540E022248F
:1030D000239450E063E070E0812C912C54018394A0
:1030E0002B9A2A98CB010197F1F72A9ACB010197E5
:1030F000F1F72A98CB010197F1F7712C612CE62D9D
:103100002B9ACB010197F1F723B19FB18FB13FB15A
:1031100026952170220F220F220F991F9927991FA0
:10312000990F990F290F35FB992790F9290F86FBE5
:10313000882780F9880F280F2B98CB010197F1F78A
:1031400083B13FB19FB1FFB186958170880F880F21
:10315000880F331F3327331F330F330F830FF5FBD4
:10316000332730F9830F96FB992790F9990F890F30
:10317000E53009F4ACC0511106C0E091FD0591E0C5
:103180009E0F9093FD05E63008F0E5E008E0E09F33
:10319000F0011124E150FA4F4280538090E0211158
:1031A00088C075016401062C04C0CC0CDD1CEE1C2B
:1031B000FF1C0A94D2F74C2910EF5122982F882730
:1031C000840D951D938382838FEF681A780A96E0A9
:1031D0006916710409F093CF513009F068C02B983B
:1031E0002A9883E290E00197F1F7222009F479C050
:1031F00085E08093FE0590E080E050E09A01082E83
:1032000002C0359527950A94E2F720FF67C023E0B6
:1032100030E019963C932E931897019618968530B6
:10322000910561F78091FD05D12C2FEF3FEF8D15B2
:1032300009F480C0ED2DA5E0AD1508F4E5E0F0E05F
:10324000DF0113E0AA0FBB1F1A95E1F7A150BA4F97
:1032500003E0EE0FFF1F0A95E1F7E950FA4F6D9179
:103260007C91448555856417750711F03387228753
:10327000D394DDCF282F863008F025E030E0F90127
:1032800093E0EE0FFF1F9A95E1F7E15DF94F118290
:10329000108263E0220F331F6A95E1F7F901E95DBF
:1032A000F94F538742878F5FF812E4CFF8CE51E091
:1032B00017CF30EF4322240D352D311D2F7014E030
:1032C000880F991F1A95E1F7820F931F7BCF211169
:1032D00003C0882309F478CF212C76CF22E030E098
:1032E00098CF1092FE055093FD0523E030E040FD9D
:1032F00002C022E030E080E04FEF5FEF811109C0B3
:10330000309300062093FF058F5F18968530B1F744
:1033100089CF19961C921E9218971B965C934E9318
:103320001A971D961C921E921C971F965C934E93A3
:103330001E97EACF2D2D4FEF5FEFD31408F457C03F
:1033400070902D06572C5D0CEAE28E2EE5E09E2E45
:10335000F12CC12C209125015F1409F4DCC0F21678
:1033600009F4D9C066246394F71408F4612C8F2DF6
:10337000F71408F059C0B5E0BF1508F485E0E8E09F
:103380008E9FC00111248C01015D194F580122301C
:1033900091F4772009F457C0E62DF0E0EE0FFF1FFF
:1033A00061E070E06C0F7D1FE60FF71FD8018D9173
:1033B0009C9191838083D5012D913C911197149616
:1033C0008D919C9115972817390709F04DC01296D9
:1033D0002D913C91139716968D919C912817390742
:1033E00009F04FC0F394B2E08B0E911CB3CF822F43
:1033F000263008F085E090E0FC0163E0EE0FFF1F4F
:103400006A95E1F7E150FA4F1182108273E0880F5C
:10341000991F7A95E1F7FC01E950FA4F53874287EB
:103420002F5F3212E4CF8CCF8719863008F085E009
:1034300018E0819FC0011124AC0141505A4F5A013C
:10344000223009F0B8CFF50180819181DD2009F4A7
:10345000B2CFE62DF0E0EE0FFF1F01E010E00C0F01
:103460001D1FE00FF11FA5CF8F2D0E9494088091A2
:103470002501823031F4F50160817181862D0E9431
:10348000502AD50112964D915C9124E030E045FF21
:1034900002C030E020E044FF206246FF316047FF79
:1034A0003260F50180819181039741F450FF2260E1
:1034B00051FF216052FF286053FF2061F401A08179
:1034C000B18113962C93139714963C9314971596E9
:1034D0001C921597E42FE17042FDE26043FDE46029
:1034E00041FDE860F0E0E150FD4F808116968C933D
:1034F0001697CD010E948B0C80912501823041F4FA
:10350000D5016D917C9120E0A501862D0E94F329C3
:10351000CC24C39467CF09811A81223079F4809139
:103520000A0190910B010817190741F001151105C7
:1035300029F470E060E080E00E94502A10930B01B3
:1035400000930A010B811C8180912501823079F45E
:1035500080910C0190910D018017910741F00115A8
:10356000110529F470E060E081E00E94502A109378
:103570000D0100930C01809109055816C0F4152D1A
:1035800080910905181798F480912501181779F092
:10359000812F0E949408E12FF0E0EE0FFF1FE65DFF
:1035A000FA4F808191810E948B0C1F5FE9CF50926E
:1035B0000905C09208050E948C0260930A05709369
:1035C0000B0580930C0590930D05809108058823C9
:1035D00041F08091000181110C940D2881E00E943E
:1035E000770C809100018823B1F00E94E3020091E2
:1035F000E1041091E2042091E3043091E404601BA3
:10360000710B820B930B603E73498440910518F057
:1036100080E00E94770C4E990EC06CE271E080E071
:1036200090E00E94B1028091000181110C94192850
:1036300081E00E94770CC35ADF4F0FB6F894DEBFCB
:103640000FBECDBFDF91CF911F910F91FF90EF90F3
:10365000DF90CF90BF90AF909F908F907F906F90B2
:103660005F904F903F902F900895809109018111B4
:1036700051C02090220530902305F12CB12CDD247F
:10368000D394D10112968C911297F81608F0F3C0DA
:103690008F2D90E0880F991FED91FC91E80FF91F95
:1036A00080809180F40111860E94E302D401129679
:1036B0006D937D938D939C9315972C9130E0F90138
:1036C000E150FF4F8491F901E95FFD4F949128513A
:1036D0003E4FF9012491222309F458C0882309F4AC
:1036E00049C081508F3008F045C0E82FF0E0E55820
:1036F000F44E0C942A30161C1A1CB51B0E1C121CFE
:10370000BA1BBA1BBA1B1D1C231C271C2B1C311CEB
:10371000BA1B351C1092090107E023E04FE763E272
:1037200087E596E00E94A70A0BE9602E02E0702E62
:103730008BEE482E82E0582EDD24D394F301E080F6
:10374000F18002811381DF928780A680C12C2481C1
:10375000458163E280E00E94EB0AF8E06F0E711C85
:103760000F904614570451F784CF809180008F77D3
:1037700080938000E22FF0E0EE0FFF1FE75CFE4F2A
:10378000A591B491EC919E2381E009F480E08170D1
:10379000D40117968C93179718969C9118979817A1
:1037A000A9F112964D915D916D917C9115971A96A4
:1037B0004D905D906D907C901D978A019B0104193E
:1037C00015092609370916964C901697512C712C1D
:1037D000612C4016510662067306C0F418968C934D
:1037E0001897F40146875787608B718B1A964D9313
:1037F0005D936D937C931D9711969C9111979817EB
:1038000029F01996DC92199711968C93F401818511
:10381000811101C08B2DF394B82E33CF809180009D
:103820008F7DA6CF80918000877FA2CF84B58F77D0
:1038300084BDA0CF84B58F7DFBCF809190008F7722
:103840008093900097CF809190008F7DF9CF8091E9
:103850009000877FF5CF8091C0008F778093C00064
:1038600089CF8091C0008F7DF9CF8091C200877F82
:103870008093C2007FCFBB2009F459C07BE9672E3B
:1038800072E0772EEBEE2E2EE2E03E2E512C412CF4
:10389000F0EFDF2E912CE0912205F09123050190AD
:1038A000F081E02DC1018B5E9240E80FF91F01907D
:1038B000F081E02DC180F1E0CF2639F0D1018D916A
:1038C0009C91B3E0B915B0F1D82AF301E080F18002
:1038D000028113811F928780A6802481458163E243
:1038E00080E00E94EB0A9394F8E06F0E711C02E0F6
:1038F000200E311C0F901AE09112CDCFA0912A0515
:10390000B0912B0513964C92139714965C921497D2
:1039100015961C921597D094ED2DF0E0E150FD4FD7
:10392000808116968C931697CD010E948B0CB092D5
:10393000080541CE482A592AC8CF8091EB059091BD
:10394000EC059093F2058093F1058091ED0590913F
:10395000EE05A091EF05B091F0058093F3059093EB
:10396000F405A093F505B093F6055091E905109282
:10397000E9051092EA058091670190916801A09194
:103980006901B0916A0189839A83AB83BC839E01EC
:103990002F5F3F4FF901B0E06BE170E08091E004F0
:1039A000813009F4B0C008F4ACC0823009F4ADC075
:1039B000833009F4ACC0B23009F4ADC0B33009F4BF
:1039C000ACC0B13009F4A5C05F98CB010197F1F705
:1039D000B093E00496B1F9B013B1AFB143B103B104
:1039E00096FB882780F98295880F807E9F2D9071A5
:1039F000890F05FB992790F9890F1870810FA1FB9A
:103A0000992790F9990F990F890F44FB992790F9FD
:103A1000990F890F8193BF5FB43009F0BFCF9091A8
:103A2000E90581E0890F8093E90581E0911101C0EA
:103A300080E090E04B81BC016F5F7F4F45FF6FC01E
:103A40004C8145FF6CC04CE0469FF001479FF00D54
:103A50001124E152FA4F62E070E0718360830196B5
:103A60004CE0489FF001499FF00D1124E152FA4FBC
:103A700040E0D9018D919D01882E912CB12CA12C73
:103A800082819381A481B581411154C0807C880DCD
:103A9000991DAA1DBB1D82839383A483B5834F5FA9
:103AA000443039F79091E905D12C8CE088248A9430
:103AB000982C54019D1509F45EC021E030E0D1102E
:103AC00002C030E020E0B9016F5F7F4F869FD001D8
:103AD000879FB00D1124A152BA4F829FF001839F9E
:103AE000F00D1124E152FA4F6D917C9122893389B6
:103AF0006217730721F086869786A08AB18AD394CD
:103B0000D9CF5F9A58CF769A56CF2E9A54CF479AEC
:103B100052CF76985ACF2E9858CF479856CF4CE030
:103B2000469FF001479FF00D1124E152FA4F61E0EA
:103B300070E093CF413051F48F73907F66E0880C32
:103B4000991CAA1CBB1C6A95D1F7A1CF423051F435
:103B50009F70AC7F0CE0880C991CAA1CBB1C0A95BA
:103B6000D1F795CFA37012E1880C991CAA1CBB1C3D
:103B70001A95D1F78CCF8D2D9CE088248A94982CAF
:103B80005401D51608F444C07AE2872E75E0972ECA
:103B900010E000E0712CF12CECE06E2E7D1409F4A5
:103BA000B6C080912501781609F4B1C081E071108A
:103BB00001C080E0482E512C92012F5F3F4F629E42
:103BC000C001639E900D1124FC01E152FA4F5F0188
:103BD00000811181649CF001659CF00D1124E1527B
:103BE000FA4F828993890817190799F546855785F1
:103BF0006089718984899589A689B7894817590789
:103C00006A077B0771F57394B2E08B0E911CC6CFE7
:103C100021E030E0811102C030E020E0B9016F5FA7
:103C20007F4F969FF001979FF00D1124E152FA4FBC
:103C300011821082929FF001939FF00D1124E152A6
:103C4000FA4F86869786A08AB18A8F5F5813E0CF95
:103C50009BCF872D0E949408D5018D919C910E9445
:103C60009E0B649CF001659CF00D1124E152FA4F0B
:103C700086859785A089B189AD0166277727E1E020
:103C80004E27417055276627772792FF426084FFB1
:103C90004460A6FF516085FF526086FF546094FF28
:103CA0005860A2FF506187FF406195FF5062A3FFFB
:103CB000406290FF486096FF4064A4FF406891FF17
:103CC000506497FF5068A5FF6160F401E080F180C7
:103CD000F70143835483658383FB222720F982FD08
:103CE000226081FD246080FD2860A22FB0E0A150F9
:103CF000BD4F8C91D70116968C93C7010E948B0CF7
:103D000060E0C5010E94510BFF24F3947CCF8091A9
:103D10000701909108018017910739F001151105ED
:103D200021F490E080E00E949E0B10930801009324
:103D3000070180910705D816C0F41D2D8091070555
:103D4000181798F480912501181779F0812F0E9497
:103D50009408E12FF0E0EE0FFF1FE65DFA4F80813F
:103D600091810E948B0C1F5FE9CFD0920705F092E2
:103D7000080521CC80910505811167C08091060559
:103D8000811163C05601AA0CBB1CAA0CBB1CE5E048
:103D9000AE1AB1080BED15E025E0E22E25E0F22E7B
:103DA0003FED832E35E0932ED8018D919D918D01AD
:103DB0000E94BD07F70181937F0180910505811164
:103DC00004C080910605882339F0F2E0CF16D104B3
:103DD00018F0C5010197F1F78016910629F781E0E7
:103DE0000E94770C07E027E04FE760E087E596E068
:103DF0000E94A70A67E087E596E00E941D0960E03F
:103E000087E596E00E9429098091050581110BC084
:103E100080910605811103C081E694E002C08EE125
:103E200091E00E948C0A62E487E596E00E942909ED
:103E30009091050580910605992309F47BC08111B5
:103E400004C08EE191E00E948C0A28961FAE28974C
:103E500029961FAE299710E0B0E5AB2EB3ECBB2E30
:103E600007E082E3882E912C80912501181708F035
:103E700074C0612E712CF301EE0FFF1FE552FA4F53
:103E8000408051805092040540920305F301EB5F9E
:103E9000FA4F8081882309F44BC0C2010E94BD07FC
:103EA00093012F5F3A4F6901882309F448C087E0E6
:103EB000F201DE019B9601900D928A95E1F787E071
:103EC000FE01BB96DE01A05CBF4F01900D928A956A
:103ED000E1F7069DC001079D900D112441E050E0DF
:103EE0004C0F5D1F840F951FFE01E05CFF4FDC014E
:103EF000202F01900D922A95E1F7DC018D919C9184
:103F0000FF24F394009709F4F12CF601208121118C
:103F100009C0892B39F0812F0E949E0761E0812F13
:103F20000E94C50BD601FC9290922401809223013D
:103F30001F5F9ACF811183CF81E694E084CF812FD8
:103F40000E949E0760E0812F0E94C50BF60110823F
:103F5000B0922401A0922301EBCFB12C77E0D72EB1
:103F600080912501B81608F096C16B2C712CF301D5
:103F7000EF5FFA4F8081882309F48BC1D69CF00152
:103F8000D79CF00D112401E010E00C0F1D1FE00F75
:103F9000F11F2381822F82958F7090E0982F8827C0
:103FA0009295907F2F7030E0322F2227820F931F3F
:103FB0002481422F42954F7010E1419FA0011124AE
:103FC000840F951F2F701C01220E311C95802681B5
:103FD0002A962FAF2A97A30141505B4F61965FAF9E
:103FE0004EAF6197DA018C91981208C0F301E3504B
:103FF000FB4F8081821711F40C946528E7E4F0E010
:10400000EC0FFD1FE60DF71DB1E0B083D69CF0016B
:10401000D79CF00D112401E010E00C0F1D1FE00FE4
:10402000F11F838122E030E087FD02C030E020E014
:10403000D69CF001D79CF00D112441E050E04C0FCC
:104040005D1FE40FF51F838186FD2160D69CF00182
:10405000D79CF00D112461E070E06C0F7D1FE60F1E
:10406000F71F838185FD3160D69CF001D79CF00D50
:10407000112481E090E08C0F9D1FE80FF91F8381D0
:1040800084FD3260D69CF001D79CF00D1124A1E094
:10409000B0E0AC0FBD1FEA0FFB1F848185FD2061DE
:1040A000D69CF001D79CF00D112401E010E00C0F1C
:1040B0001D1FE00FF11F848184FD2062D69CF0015A
:1040C000D79CF00D112441E050E04C0F5D1FE40F30
:1040D000F51F848183FD2064D69CF001D79CF00DF0
:1040E000112461E070E06C0F7D1FE60FF71F8481E3
:1040F00082FD2460D69CF001D79CF00D112481E054
:1041000090E08C0F9D1FE80FF91F848181FD2860CE
:10411000D69CF001D79CF00D1124A1E0B0E0AC0FCB
:10412000BD1FEA0FFB1F848180FD2068F301EE0FA5
:10413000FF1F2F96FFAFEEAF2F97E65DFA4FA081DE
:10414000B18113962C93139714963C93149715965C
:104150001C921597D69CF001D79CF00D112401E01C
:1041600010E00C0F1D1FE00FF11F838183FBEE2772
:10417000E0F941E04E2782FF4260D69CC001D79C07
:10418000900D112421E030E02C0F3D1F820F931F72
:10419000FC01838181FF4460D69CC001D79C900DB7
:1041A000112401E010E00C0F1D1F800F911FFC0176
:1041B000838180FF4860E42FF0E0E150FD4F808173
:1041C00016968C93169780E8890D17968C931797FF
:1041D0002A968FAD2A978058809518968C931897B9
:1041E000CD010E948B0C9BE2492E92E0592E810159
:1041F00030E020E065960CAF1DAF2EAF3FAF659766
:104200002F96EEADFFAD2F97EF53FC4F10816696C2
:104210001FAF6697D201ED90FD900D911C916596B0
:104220008CAD9DADAEADBFAD65978E219F21A02316
:10423000B123CC24C394892B8A2B8B2B09F4C12C5A
:104240001F92F2018780A6802481458166966FAD1A
:1042500066978B2D0E94EB0AF8E04F0E511C0F90D1
:104260000BE912E004151505A9F62F96EEADFFAD8A
:104270002F97E750FB4F318220826196AEADBFADE4
:1042800061979C92F301E350FB4F2A96BFAD2A97AA
:10429000B083B39465CE28968FAD2897811103C063
:1042A00029968FAD29978093080585C980910601CD
:1042B000882331F01092060160E080E00E9491298D
:1042C0008091F704811166C08091F804811162C069
:1042D0008091F504811108C08091D7059091D8058F
:1042E0000E943A088093F5048093F7048091F604C5
:1042F000811108C08091D9059091DA050E943A0891
:104300008093F6048093F80481E00E94770C07E024
:1043100027E04FE760E087E596E00E94A70A67E0A4
:1043200087E596E00E941D0960E087E596E00E941F
:1043300029098091F70481110BC08091F804811143
:1043400003C081E694E002C08EE191E00E948C0AF5
:1043500062E487E596E00E9429099091F704809134
:10436000F804992309F47CC0811104C08EE191E026
:104370000E948C0A8091F704882321F061E080E09C
:104380000E9491298091F804882321F061E081E066
:104390000E94912921961FAE219722961FAE229747
:1043A000F12C10E5212E13EC312E05E1D02E84E600
:1043B000482E512C80912501F81608F06BC0AF2CC7
:1043C000B12CF501E950FB4F8081882309F446C0E8
:1043D0008501000F111FF801E952FA4F60807180CA
:1043E000C3010E943A08F501EB50FB4F4F018823AF
:1043F000E1F185E1F301DE019B9601900D928A9532
:10440000E1F7DA9CC001DB9C900D112401E010E083
:104410000C0F1D1F800F911FFE01BB96DC012D2D7F
:1044200001900D922A95E1F7DC018D919C9111E0AC
:10443000009709F410E0F4012081211109C0892BB3
:1044400039F08F2D0E949E0761E08F2D0E949129E7
:10445000D4011C935092240140922301F394AACFDB
:10446000811182CF81E694E083CF8F2D0E949E0739
:10447000F801E65DFA4F808191810E948B0C60E02B
:104480008F2D0E949129F4011082309224012092F4
:104490002301E4CFB12CE5E1DE2EF1EE3F2EAEE1BB
:1044A0002A2E80912501B81608F051C26B2C712C70
:1044B000F301EB50FB4F8081882309F424C2D69C82
:1044C000F001D79CF00D112401E010E00C0F1D1F2E
:1044D000E00FF11F958586859C012B963FAF2EAF8F
:1044E0002B974785B30161517B4F67967FAF6EAFC6
:1044F0006797DB018C91082E000C990B9301220F1A
:10450000331F4817190611F55089D301A351BB4F2A
:104510008C91082E000C990B58171906B9F4518983
:10452000D301A551BB4F8C91082E000C990B581745
:10453000190661F45289F301E751FB4F8081082E7F
:10454000000C990B5817190609F4C7C5E0E4F0E010
:10455000EC0FFD1FE60DF71DB1E0B083D69CF00116
:10456000D79CF00D112401E010E00C0F1D1FE00F8F
:10457000F11F858580FFC9C184E090E0D69CF001E1
:10458000D79CF00D112461E070E06C0F7D1FE60FE9
:10459000F71F558551FD8260D69CF001D79CF00D28
:1045A0001124A1E0B0E0AC0FBD1FEA0FFB1F558541
:1045B00052FD8860D69CF001D79CF00D112401E0DB
:1045C00010E00C0F1D1FE00FF11F558553FD81609A
:1045D000D69CF001D79CF00D112461E070E06C0FC7
:1045E0007D1FE60FF71F568554FD9160D69CF001A4
:1045F000D79CF00D1124A1E0B0E0AC0FBD1FEA0F75
:10460000FB1F558554FD9260D69CF001D79CF00DA0
:10461000112401E010E00C0F1D1FE00FF11F568563
:1046200056FD8061D69CF001D79CF00D112461E00D
:1046300070E06C0F7D1FE60FF71F568555FD8062F9
:10464000265D3A4FD9010D911C91F8018383948323
:104650001582D69CF001D79CF00D112421E030E0AA
:104660002C0F3D1FE20FF31F868583FBEE27E0F939
:1046700031E0E32782FFE260D69CD001D79CB00DE9
:10468000112461E070E06C0F7D1FA60FB71F1E960E
:104690008C9180FFE460D69CD001D79CB00D112492
:1046A00081E090E08C0F9D1FA80FB91F1E968C9182
:1046B00081FFE860F0E0E150FD4F8081D80116965F
:1046C0008C934E3108F024C1D69CF001D79CF00D9C
:1046D000112421E030E02C0F3D1FE20FF31F27864D
:1046E000D69CF001D79CF00D112461E070E06C0FB6
:1046F0007D1FE60FF71F80898E3108F019C1208ACF
:10470000D69CF001D79CF00D112481E090E08C0F35
:104710009D1FE80FF91F81898E3108F00EC1218A93
:10472000D69CF001D79CF00D1124A1E0B0E0AC0FB5
:10473000BD1FEA0FFB1F82898E3108F003C1228A58
:10474000D69C4001D79C900C1124E1E0F0E0EC0FE6
:10475000FD1F8E0E9F1ED4011F96BC912E96BFAFDB
:104760002E972B2F30E050E040E02E5131094109C7
:104770005109AFEFB0E00E94EE2F23EC30E040E0B3
:1047800050E00E94CF2FF8012783D4015096BC91AE
:104790006096BFAF60972B2F30E050E040E0215E85
:1047A000310941095109AFEFB0E00E94EE2F2DE32E
:1047B0003FEF4FEF5FEF0E94CF2FF8012087D4012A
:1047C0005196BC916296BFAF62972B2F30E050E0BC
:1047D00040E02E51310941095109AFEFB0E00E948C
:1047E000EE2F23EC30E040E050E00E94CF2FF801A4
:1047F0002187D40152969C90292D30E050E040E072
:10480000215E310941095109AFEFB0E00E94EE2F5E
:104810002DE33FEF4FEF5FEF0E94CF2FF80122878C
:10482000C8010E948B0C5BEC452E51E0552E2B9657
:104830002EAD3FAD2B97890130E020E06D960CAF97
:104840001DAF2EAF3FAF6D97A301440F551F699663
:104850005FAF4EAF6997FA01EF53FC4F50816E96F0
:104860005FAF6E97D201ED90FD900D911C916D960A
:104870008CAD9DADAEADBFAD6D978E219F21A023B8
:10488000B123CC24C394892B8A2B8B2B09F4C12C04
:104890001F92F2018780A680248145816E966FADBC
:1048A0006E978B2D0E94EB0AF8E04F0E511C0F9073
:1048B0000BE212E004151505A9F66996EEADFFAD01
:1048C0006997EF50FB4F2B962EAD3FAD2B97318361
:1048D00020832E96EFAD2E976796AEADBFAD67974E
:1048E000EC93F301E351FB4F60960FAD60970083AB
:1048F000F301E551FB4F62961FAD62971083F30100
:10490000E751FB4F9082B394CCCD90E080E036CE5F
:10491000423E08F4E5CED69CF001D79CF00D112460
:1049200041E050E04C0F5D1FE40FF51F3786D8CEF5
:10493000823E08F4E5CE308AE3CE823E08F4F0CE23
:10494000318AEECE823E08F4FBCE328AF9CE219631
:104950008FAD21978111A7CC22968FAD2297A3CC42
:1049600087EB92E00197F1F766E0C8010E94D51449
:10497000482F50E0BE016F5F7F4FC8010E94FB03CC
:10498000863011F00C94A3168B81843A09F048C04C
:104990008C81803209F044C08D81811103C09E81D9
:1049A000992391F199812A81923058F421111AC0EA
:1049B000843008F52E81213031F484E090E00C94AD
:1049C000A51621110FC08130B1F48E81833061F4BE
:1049D0009923F1F0913001F1933011F587E090E0E7
:1049E0000C94A516813039F48E818231C9F488E0A7
:1049F00090E00C94A516811113C08E81833181F44F
:104A000089E090E00C94A51683E090E00C94A51644
:104A100085E090E00C94A51686E090E00C94A51635
:104A200082E090E00C94A516D5011296ED91FC91D0
:104A30001382128280E593EC0C94FE16F801048137
:104A400015810C94CF16EE20A9F30C94EB16C5013A
:104A50000E94DE28882309F4E9C0D5011296ED9161
:104A6000FC91AF014B5F5F4F648170E08081918169
:104A70000E94241560968FAF6097882309F4D6C0F2
:104A8000F50182819381DC0114964C910596FC011D
:104A90002FEF30E050E0BF01681B790B64177507FA
:104AA00024F46191362B2623F6CF332309F4BEC0BC
:104AB0002F3F09F4BBC0E0912805F0912905028041
:104AC000F381E02D02811381C8010397029708F456
:104AD000C2C0912CD12C2E961FAE2E972A961FAEB7
:104AE0002A97B12C712C612C8091E6049091E704F7
:104AF0006096FFAC60978615970539F4FF24F39410
:104B00008091E5048B1101C0F12C809104012A965B
:104B1000EFAD2A978E1310C0809103012E96FFAD42
:104B20002E978F1309C0809102018D1105C08091CD
:104B30000101891509F4DFC2E0912A05F0912B05E6
:104B40006382748215822B2D30E063963FAF2EAFC7
:104B50006397D901A150BD4F8C9186832A963FADB2
:104B60002A9737832E968FAD2E9781958087D18691
:104B7000892D81958287CF010E948B0C04501109E9
:104B80000230110508F032C24FE066964FAF6697CB
:104B900081E3482E83E0582E312C212CD201ED9058
:104BA000FD900D911C91139714962C9114971596C6
:104BB0004C9115971696AC90169717968C90BAE074
:104BC000B21508F418C2C301022C02C0969587954D
:104BD0000A94E2F7E82FE170CE2E1F9260E080E0A9
:104BE0000E94EB0A0F908FEF281A380A98E0490EBE
:104BF000511C6696AFAD66972A1680F27092E70454
:104C00006092E604B092E5042A96BFAD2A97B0936D
:104C100004012E96EFAD2E97E0930301D09202018E
:104C2000909201016096FFAC6097A1C81092E804D1
:104C300080E593EC909324018093230180E00E940F
:104C400030071092E7041092E60490E080E00E94A2
:104C5000F928F12C8CC80430110509F0A6C1E091A7
:104C60002605F091270584810280F381E02D8111D2
:104C7000C8C0228530E0390195E0759467949A9513
:104C8000E1F760947094B1E06B22772446E03595AB
:104C900027954A95E1F72095309520FDC8C02285DB
:104CA00030E074E0359527957A95E1F720953095B9
:104CB00020FDCDC0228530E053E0359527955A95EB
:104CC000E1F72095309520FDD2C0218530E095E0B8
:104CD000359527959A95E1F72095309520FDD7C019
:104CE000218530E0359527952095309520FDDCC055
:104CF000228530E0220F232F221F330B232B09F4B0
:104D0000E0C0228530E0359527953595279520958B
:104D1000309520FDE5C0218530E0B4E0359527953C
:104D2000BA95E1F72095309520FDEAC0218530E065
:104D300035952795359527952095309520FDEFC021
:104D4000218530E053E0359527955A95E1F7209578
:104D5000309520FDF4C09285BB24B39490FFB12C14
:104D6000218530E096E0359527959A95E1F72095D5
:104D7000309520FD04C06894B1F88111F7C02285F8
:104D800030E0359527952095309520FD04C0689436
:104D9000B2F88111F3C0218530E0220F232F221FAA
:104DA000330B232B21F06894B3F88111F0C0958167
:104DB000592F550F550F2A965FAF2A978681682F76
:104DC000660F660F2E966FAF2E972781907C969573
:104DD00096959695807CD82ED294D69437E0D3229F
:104DE000D92A822F807890E0880F892F881F990B0D
:104DF000D82ADD0CDD0CDD0C922E990C990C990C47
:104E000073CE248530E03901A5E075946794AA95A6
:104E1000E1F76094709441E064227724B6E0359520
:104E20002795BA95E1F72095309520FF05C0689445
:104E300061F8882309F433CF248530E064E03595A8
:104E400027956A95E1F72095309520FF05C0689475
:104E500062F8882309F42ECF248530E043E03595AD
:104E600027954A95E1F72095309520FF05C0689475
:104E700063F8882309F429CF238530E0B5E0359520
:104E80002795BA95E1F72095309520FF05C06894E5
:104E900064F8882309F424CF238530E035952795DD
:104EA0002095309520FF05C0689465F8882309F4A3
:104EB0001FCF248530E0220F232F221F330B232BFB
:104EC00029F4689466F8882309F41BCF248530E020
:104ED00035952795359527952095309520FF05C068
:104EE000689467F8882309F416CF238530E0A4E09E
:104EF00035952795AA95E1F72095309520FF05C0B7
:104F0000689470F8882309F411CF238530E0359533
:104F10002795359527952095309520FF05C06894F5
:104F200071F8882309F40CCF238530E043E03595F0
:104F300027954A95E1F72095309520FF05C06894A4
:104F400072F8882309F407CF948590FD2BC0B12C0B
:104F5000882309F404CF238530E0B6E03595279502
:104F6000BA95E1F72095309520FF05CF248530E0F4
:104F7000359527952095309520FF09CF238530E082
:104F8000220F232F221F330B232B09F00CCF758107
:104F90002A967FAF2A9787812E968FAF2E97D6803D
:104FA0009084A2CDBB24B394D6CFE0912405F09198
:104FB00025050280F381E02D8285682E712C759481
:104FC00067946094709491E06922772480FD02C018
:104FD000689461F8A5812A96AFAF2A97B6812E967C
:104FE000BFAF2E97912CD12CB12C7ECD52E066967E
:104FF0005FAF6697CDCDC1010B9763966EAD7FAD68
:10500000639702C0759567958A95E2F7CB01809505
:105010009095782F7170C72EE0CD0E94E3026093C7
:10502000E1047093E2048093E3049093E4040C940D
:10503000F11AE0903605F09037050E9420070E9493
:10504000270C10E000E062E070E080E090E00E9459
:10505000B1024E990CC06CE271E080E090E00E94D9
:10506000B1020E9420070E94270C10E000E00F5FB1
:105070001F4F003D27E0120731F760913605709110
:1050800037056E157F0521F40E94270C0C941B1B1D
:1050900090E080E00E94C12F87E596E00E94DC0A44
:1050A00082E291E00E948C0A88E19EE00FB6F894BB
:1050B000A895809360000FBE9093600068E770E051
:1050C00080E090E00E94B102F9CF39EF231634E07E
:1050D000330611F00C94FE1FDCC8F901EF50FB4FB2
:1050E000808191812B966EAD7FAD2B9768177907E4
:1050F00009F02CCA08CCFF2011F40C94B71E1CCD6B
:10510000249825982C9A2D9A882799271C9B0895D6
:105110001D9B089581E0089581E00895BFE0A0EA15
:1051200000240E949E283AF40A94D9F71197C1F7F7
:1051300028940C94A528A8940C94A528A8941D99AB
:105140000C94A328289400000895089591E09A955E
:10515000F1F708950895EF92FF920F931F93CF9365
:10516000DF93F82E192FE62E042F81E0860F880F8B
:105170000E94EF0283E00E94EF02CF2DD12FEC0EB0
:10518000FD2EF11CCE15DF05B9F007FF13C0FE019F
:1051900084910E94EF02182F80E00E94EF02812389
:1051A00021968111EFCFDF91CF911F910F91FF9049
:1051B000EF9008958881EDCF81E0F5CFCF93DF9315
:1051C000EC01E881F9810280F381E02D0995EA8103
:1051D000FB81228133812817390739F0019719F4AF
:1051E00081E0232B19F480E001C081E0DF91CF91B1
:1051F00008958F92AF92CF92DF92EF92FF920F932A
:105200001F93CF93DF93EC0107E023E04CE360E0D2
:1052100087E596E00E94A70A47E060E087E596E010
:105220000E944709FE013297E830F10508F076C088
:10523000E45EF64D0C942A308B29242953297129D8
:105240007F2982298529882989E594E00E948C0A92
:10525000C1E0CF938CE3882E9BE3A92ECC24C3948A
:10526000E12CF12C8701E39422E040E360E080E050
:105270000E94EB0ACF9312E0E12EF12C00E010E047
:1052800023E046E360E080E00E94EB0A0F900F907D
:10529000DF91CF911F910F91FF90EF90DF90CF9012
:1052A000AF908F90089581E594E00E948C0AC1E34D
:1052B000D3E0DD24D394E880F9800A811B81DF925A
:1052C0008F80AE80CC24C3942C814D8160E080E03F
:1052D0000E94EB0A28960F9083E0C93AD80759F745
:1052E000D7CF8AE494E0DF91CF911F910F91FF9087
:1052F000EF90DF90CF90AF908F900C948C0A85E464
:1053000094E0F1CF8BE394E0EECF85E394E0EBCF34
:105310008CE294E0E8CF8EE194E0E5CF81E694E082
:10532000E2CF8F929F92AF92BF92CF92DF92EF9295
:10533000FF920F931F93CF93DF93D82EC62FE82FA2
:10534000F0E0EE0FFF1FEF53FC4FB08007E023E0CB
:1053500041816B2D87E596E00E94A70A47E06B2DFF
:1053600087E596E00E944709C13069F581ED90E03C
:105370000E948C0A81E08D15C8F0CBECD1E0992415
:105380009394E880F9800A811B819F928F80AE8080
:10539000CC24C3942C814D816B2D8D2D0E94EB0A62
:1053A00028960F9082E0CB32D80759F7DF91CF9142
:1053B0001F910F91FF90EF90DF90CF90BF90AF9033
:1053C0009F908F90089581E694E0DF91CF911F9197
:1053D0000F91FF90EF90DF90CF90BF90AF909F9094
:1053E0008F900C948C0A2F923F924F925F926F9203
:1053F0007F928F929F92AF92BF92CF92DF92EF9265
:10540000FF920F931F93CF93DF93B82E2B011A01B6
:10541000922ECBE6D1E0D12C682E712C660C771C35
:10542000C3018F539C4F3C0192E04916510419F47B
:10543000E7E0ED15E8F0E880F9800A811B812C8116
:105440004D81AE808F8081E02114310449F0F1015B
:10545000628173816E217F2181E0672B09F080E0FA
:105460009F92C82EF30160818B2D0E94EB0A0F9052
:10547000D3942896FCE0DF12D7CFDF91CF911F9114
:105480000F91FF90EF90DF90CF90BF90AF909F90E3
:105490008F907F906F905F904F903F902F900895E6
:1054A000FF920F931F93CF93DF93182FEB01209759
:1054B00011F4C2E0D0E0E12FF0E0EE0FFF1FEF5358
:1054C000FC4FF08007E023E041816F2D87E596E0F7
:1054D0000E94A70A47E06F2D87E596E00E944709E2
:1054E000C230D10561F0C330D105D9F081E694E036
:1054F000DF91CF911F910F91FF900C948C0A8BEC50
:1055000090E00E948C0A123079F021E050E040E0F7
:10551000BE01812FDF91CF911F910F91FF900C94CD
:10552000F32985EC90E0EDCFDF91CF911F910F91A2
:10553000FF900895DC0116961C92169717961C9200
:10554000179788E2E3E3F1E0189601900D928A95AF
:10555000E1F70895AF92BF92CF92DF92EF92FF9260
:105560001F93CF93DF93EAE4F5E01382128288EE73
:10557000C82E83E0D82EE12CF12CC482D582E6829D
:10558000F78281E794E0918380838FEF9FEF958787
:105590008487EAE9F5E080831282118214861386FB
:1055A0008FEF9FEFDC0187839087A187B287E7E5C4
:1055B000F6E013821282128614861386158681E025
:1055C000868783E894E09183808387E296E00E9457
:1055D0009A2A87EF95E00E949A2AEFEDF5E012866D
:1055E00013868CE0EBE5F1E0ABEEB5E001900D92B7
:1055F0008A95E1F788E090E00E943030C5E1FC0137
:10560000C7832BEDA22E25E0B22EF5019183808376
:1056100088E090E00E94303015E0FC011783F5012E
:105620009383828386E190E00E943030FC01C58B39
:10563000C7EDD5E09983888386E190E00E94303001
:10564000FC01158B9B838A83E7EAF5E013821282C3
:10565000C482D582E682F78281E994E091838083D7
:10566000DF91CF911F91FF90EF90DF90CF90BF908F
:10567000AF900895789484B5826084BD84B58160CC
:1056800084BD85B5826085BD85B5816085BD80910D
:105690006E00816080936E00109281008091810085
:1056A000826080938100809181008160809381007D
:1056B0008091800081608093800080919100826061
:1056C00080939100809191008160809391008091FE
:1056D00090008160809390008091C10084608093ED
:1056E000C1008091C10082608093C1008091C1009F
:1056F00081608093C1008091C30081608093C3006A
:105700008091C00082608093C0008091C20081605F
:105710008093C20080917A00846080937A008091A7
:105720007A00826080937A0080917A008160809311
:105730007A0080917A00806880937A001092420506
:1057400010922105109220058091D70081608093EE
:10575000D70080EA8093D80089B5806189BD89B57A
:10576000826089BD09B400FEFDCF61E070E080E099
:1057700090E00E94B1028091D8008F7C806180937C
:10578000D8008091E000807F8093E0008091E1006C
:105790008E7E8093E1008DE08093E200559A209AFE
:1057A00056985E9A90E080E00E94B92F282F30E052
:1057B0003093370520933605873030F081E090E054
:1057C0009093370580933605809136059091370583
:1057D0008330910509F408C208F03EC0813091057C
:1057E00009F47DC0029709F465C1109268068CE344
:1057F000809367061092B90084E48093BC008CE02B
:105800008093B80010925B0610925C06E8E1F4E029
:1058100085919491082FEAE1F4E01491EBE1F4E032
:10582000E491E0935D06ECE1F4E0E491E0935E0640
:10583000EDE1F4E0E491E0935F06C82FD92F8C2FBF
:10584000801B811708F054C3FE01649187E596E040
:105850000E9415092196F3CF8530910509F47BC28A
:1058600008F430C2069709F0C0CF65E070E080E030
:1058700090E00E94B10281E08093250182E390E0F4
:1058800090932401809323018EE090E00E943030B9
:10589000EC01AA24A394CC24C394EE24E39401E065
:1058A00021E043E06EEC74E00E94AA0CD0932B053B
:1058B000C0932A05C0E080912501C81708F0A1C255
:1058C0008C2F0E943007EC2FF0E0EE0FFF1FE65DFB
:1058D000FA4F808191810E948B0CCF5FECCF3E9A72
:1058E0004698549A5C9825982D982D9A24982C982F
:1058F0002C9A6E987698769A57985F985F9A10923D
:105900002E06E7E2F6E08FEF9FEF11861086938771
:1059100082871586148697878687389626E0EF3427
:10592000F20799F7239A2B98229A2A9885988D98AE
:105930008D9A86988E988E9A87988F988F9A2198AC
:105940002998299A1092FE05E7EFF5E08FEF9FEF77
:105950001186108693878287158614869787868797
:105960003896A6E0EF31FA0799F783E290E00197C5
:10597000F1F70E940407E1E030E043E050E0469A8E
:10598000CA010197F1F769B18CB193B173B186FB8C
:10599000222720F9220F220F862F881F8827881F91
:1059A000880F880F880F280F75FB882780F9280F2C
:1059B00094FB882780F9880F280F4698CA01019721
:1059C000F1F779B19CB163B1F3B196FB882780F907
:1059D000880F880F972F991F9927991F990F990F53
:1059E000990F890FF5FB992790F9890F64FB992787
:1059F00090F9990F890F353021F4211132C08111AE
:105A000030C03F5F363009F0BACF46985C9883E2E9
:105A100090E00197F1F7EE2331F185E080932E06B7
:105A200030932501C0E0D0912501CD1710F58EE00F
:105A300090E00E9430304C0143E04C0FA12CC12C6F
:105A4000E12C00E02D2F6FE974E00E94AA0CEC2FEE
:105A5000F0E0EE0FFF1FE65DFA4F91828082CF5F8C
:105A6000E2CFE0E0CECF10922E0682E080932501B7
:105A7000D9CFC0E080912501C81778F48C2F0E94FF
:105A80009408EC2FF0E0EE0FFF1FE65DFA4F8081E7
:105A900091810E948B0CCF5FEDCF82E390E09093D9
:105AA00024018093230162E370E080E090E00E9493
:105AB000B1029BCE84E090E00E9430308C0184E102
:105AC00090E00E943030F801808391832AE02283A5
:105AD00022E023836FE0C62E63E0D62EEC017BE04C
