:100000000C9424020C944C020C944C020C944C0260
:100010000C944C020C944C020C944C020C944C0228
:100020000C944C020C944C020C9464130C94D31357
:100030000C944C020C944C020C944C020C944C0208
:100040000C944C020C944C020C944C020C944C02F8
:100050000C944C020C944C020C944C020C941A1309
:100060000C944C020C944C020C944C020C944C02D8
:100070000C944C020C944C020C944C020C944C02C8
:100080000C944C020C944C020C944C020C944C02B8
:100090000C944C020C944C020C944C020C944C02A8
:1000A0000C944C020C944C020C944C02AED580A8DB
:1000B0003FD300408D142002A1C8DA12817FD9F10C
:1000C000DB40A4A6AF56424F59004E545400534E45
:1000D0004553004E455300504144004E4553202B9C
:1000E00020534E4553202B2056424F590057494923
:1000F0000047414D4543554245004E36340000000F
:1001000000002300260029002C002F000000000022
:10011000250028002B002E003100000000002400E4
:1001200027002A002D003000040404040403040501
:100130000202020204030202020206060606060684
:10014000040402020204040408020110408040106A
:1001500020408040800802040180402010020110ED
:1001600080102040402000030C0F30333C3FC0C3C0
:10017000CCCFF0F3FCFF080B0002020200000904E0
:100180000000010202000005240010010524010105
:10019000010424020605240600010705810310005E
:1001A0004009040100020A000000070502024000A5
:1001B0000007058302400000040309041201000245
:1001C000EF02014041233680000101020301417228
:1001D0006475696E6F204C4C430041726475696EA2
:1001E0006F204C656F6E6172646F005245464C45DE
:1001F0005800000005072061000000000000005FBB
:1002000000006070787060605048506003070F070E
:10021000030305090503081C3E7F7F081C22417F5C
:100220007F7F3E1C087F41221C08082A1C2A0808E0
:10023000083E080800503000000808080808006060
:1002400060000020100804023E5149453E00427FF4
:10025000400042615149462141454B311814127FFB
:100260001027454545393C4A494930017109050384
:100270003649494936064949291E00363600003CB0
:100280007E7E7E3C3C4242423C1414141414F0F036
:10029000F0F0F0F0909090F0324979413E7E1111EB
:1002A000117E7F494949363E414141227F414122E9
:1002B0001C7F494949417F090901013E41415132B1
:1002C0007F0808087F00417F41002040413F017FB7
:1002D000081422417F404040407F0204027F7F0497
:1002E00008107F3E4141413E7F090909063E4151C8
:1002F000215E7F09192946464949493101017F019B
:10030000013F4040403F1F2040201F7F2018207F9A
:1003100063140814630304780403615149454300DE
:10032000007F4141020408102041417F0000383C19
:100330001E0F074040404040382412090720545403
:1003400054787F484444383844444420384444482E
:100350007F3854545418087E090102081454543C40
:100360007F0804047800447D40002040443D0000A4
:100370007F10284400417F40007C041804787C08EA
:1003800004047838444444387C14141408081414C1
:10039000187C7C080404084854545420043F44400A
:1003A000203C4040207C1C2040201C3C4030403CF5
:1003B00044281028440C5050503C4464544C44E0B1
:1003C000E0E0E0E000007F0000E0A0A0A0E008087E
:1003D0002A1C08081C2A08080006090906AC00198E
:1003E0008040004E2F41005245424F4F54494E47E6
:1003F0002E2E2E004D554C54492D544150004E4F39
:100400004E45004E4F5420535550504F5254454482
:100410000044524157534F4D4500554452415700F7
:100420005455524E5441424C45004452554D00479C
:10043000554954415200434C4153534943004E5592
:100440004E4348554B001C1A11241FBECFEFDAE073
:10045000DEBFCDBF14E0A0E0B1E0E4E0FEE502C005
:1004600005900D92A031B107D9F725E0A0E1B4E0E5
:1004700001C01D92A838B207E1F712E0C4E2D2E051
:1004800004C02197FE010E94C02DC332D107C9F7D5
:100490000E94B01A0C94002F0C9400002F923F92EF
:1004A0004F925F926F927F928F929F92AF92BF9284
:1004B000CF92DF92EF92FF920F931F93CF93DF9330
:1004C00000D000D000D01F92CDB7DEB7E3E4F5E056
:1004D00087818487808591859687858782859385A6
:1004E000908B87873A9605E0EB36F00789F71091F5
:1004F00048051F83109248052C9A8BE290E00197E3
:10050000F1F72C9883E190E00197F1F7809149058C
:100510008111ECC030E020E090E080E063E170E029
:10052000ECB1E6FB442740F950E0FA01022E02C08C
:10053000EE0FFF1F0A94E2F78E2B9F2B2D98FB01E5
:100540003197F1F72D9AFB013197F1F72F5F3F4F6C
:100550002031310529F7492F42954F7051E04D3038
:1005600009F450E170E060E030E020E003E110E0E9
:10057000ECB1E6FBAA27A0F9B0E0FD01062E02C00F
:10058000EE0FFF1F0A94E2F72E2B3F2B2D98F80158
:100590003197F1F72D9AF8013197F1F76F5F7F4F9F
:1005A000651730F3BC0160957095209530954F30FC
:1005B00029F42E3F8FEF380709F44AC0809148058F
:1005C00091E0980F90934805853008F084E090E022
:1005D000DC011196411118C0E72FFF27EF70FF27AC
:1005E0003F9791F44AE0489FF001499FF00D112494
:1005F000ED5BFA4F5FE057834A9FF0014B9FF00D90
:100600001124ED5BFA4F18C0542F509552FF5DC076
:100610002AE0289FF001299FF00D1124ED5BFA4F8D
:1006200034E037832A9FF0012B9FF00D1124ED5BFE
:10063000FA4F5370252F30E0318320832AE0289F22
:10064000F001299FF00D1124ED5BFA4F718760874F
:10065000209148056F802615F8F43AE04FEF822F7D
:10066000253008F084E090E0389FF001399FF00DCC
:100670001124ED5BFA4F4783118610860196389F4F
:10068000F001399FF00D1124ED5BFA4F11821082B9
:100690002F5F7F807212E3CF27960FB6F894DEBFEC
:1006A0000FBECDBFDF91CF911F910F91FF90EF90C3
:1006B000DF90CF90BF90AF909F908F907F906F9082
:1006C0005F904F903F902F9008955AE0589FF0010F
:1006D000599FF00D1124ED5BFA4F0FE0402747833F
:1006E0005A9FF0015B9FF00D11248BCFE12CA3E109
:1006F000B0E08AE05C9AFD013197F1F770E060E0CC
:1007000050E040E0912C812C9CB196FB992790F908
:1007100099831A82E981FA81062E02C0EE0FFF1F2B
:100720000A94E2F78E2A9F2A96B196FB222420F89B
:10073000312CF101062E02C0EE0FFF1F0A94E2F7E2
:100740004E2B5F2B2D98FD013197F1F72D9AFD016E
:100750003197F1F76F5F7F4F60317105A9F6F92D81
:10076000F295FF70FE83952F92959F7021E0FD30EA
:1007700009F420E101E09D3009F400E1B12CA12C45
:1007800070E060E010E0E02F021708F4E22F1E177F
:1007900050F5ECB1E6FB442440F8512CF201012E57
:1007A00002C0EE0FFF1F0A94E2F76E2B7F2BE6B11B
:1007B000E6FB662460F8712CF301012E02C0EE0FF7
:1007C000FF1F0A94E2F7AE2ABF2A2D98FD01319748
:1007D000F1F72D9AFD013197F1F71F5FD4CFEE2489
:1007E000E3945C9888CF8094909460957095FE8196
:1007F000FF3029F46E3F0FEF700709F457C02091C6
:10080000480531E0320F30934805253008F024E0E8
:1008100030E089010F5F1F4FEE81E1111FC0C92C2D
:10082000DD24FFE0CF22DD24EFE0CE16D104B1F4C9
:10083000829F6001839FD00C1124F601ED5BFA4F7B
:100840000F2EFFE0FF2EF02DF782809F6001819F29
:10085000D00C112486010D5B1A4F1BC0CE80C094B2
:10086000C2FE5CC0829FF001839FF00D1124BF0186
:100870006D5B7A4FE4E0DE2EFB01D782809FF001B2
:10088000819FF00D11248F010D5B1A4F6C2D637049
:1008900070E0F80171836083829FB001839F700DC7
:1008A00011246D5B7A4FFB019186808640955095AF
:1008B000A094B0949F3031F4FEEFAF16FFEFBF0667
:1008C00009F462C02091480531E0320F30934805A9
:1008D000253008F024E030E0B9016F5F7F4F9111BF
:1008E0002BC0052F11270F7011270F30110521F58F
:1008F000829F8001839F100D11240D5B1A4FEFE042
:10090000CE2EF801C782869F8001879F100D11248B
:100910000D5B1A4FF801B182A0822CC0829F60014A
:10092000839FD00C1124F601ED5BFA4F6F01FE801E
:10093000EFE0FE26F60188CFD92ED094D2FE29C052
:10094000829FF001839FF00D11248F010D5B1A4FE0
:1009500094E0C92EF801C782869F8001879F100D01
:1009600011240D5B1A4FED2DE3706E2F70E0F8012E
:1009700071836083829FB001839F700D11246D5B32
:100980007A4FFB0151874087F1E0EF1228CF5C9A44
:100990005FCE829F8001839F100D11240D5B1A4F43
:1009A000FFE09F27F8019783AECFFC018091770489
:1009B000882311F13FB7F89482E08093E9002091F9
:1009C000F200822F90E01816190614F481E090E0EE
:1009D000882339F0289844E6409376044091F1004A
:1009E0004083222339F02091F200211103C02BE62D
:1009F0002093E8003FBF08958FEF9FEF08953FB722
:100A0000F8948091720490917304A0917404B09151
:100A1000750426B5A89B05C02F3F19F00196A11DAE
:100A2000B11D3FBFBA2FA92F982F8827BC01CD0138
:100A3000620F711D811D911D42E0660F771F881F97
:100A4000991F4A95D1F708958F929F92AF92BF92C6
:100A5000CF92DF92EF92FF924B015C010E94FF0464
:100A60006B017C010E94FF046C197D098E099F09AE
:100A7000683E734081059105A8F321E0821A910830
:100A8000A108B10888EEC80E83E0D81EE11CF11C55
:100A900081149104A104B10429F7FF90EF90DF9035
:100AA000CF90BF90AF909F908F9008952FB7F894FC
:100AB00060916E0470916F04809170049091710444
:100AC0002FBF0895409126045091270420912404BB
:100AD0003091250442175307B4F49091E8009570C3
:100AE000E1F39091E80092FD19C08093F1008091AC
:100AF00026049091270401968F739927892B19F466
:100B00008EEF8093E800809126049091270401964F
:100B1000909327048093260481E0089580E008954F
:100B2000DF92EF92FF920F931F93CF93DF93D82E14
:100B30008A01EB017B01E40EF51ECE15DF0559F0AD
:100B4000D7FE12C0FE0184910E9462052196811198
:100B5000F4CF0FEF1FEFC801DF91CF911F910F91DD
:100B6000FF90EF90DF9008958881EECF2FB7F89433
:100B700087708093E9009091E800892F807295FF3B
:100B800004C09091F20080E4891B2FBF08957F92EA
:100B90008F929F92AF92BF92CF92DF92EF92FF928D
:100BA0000F931F93CF93DF93C82E8B017A0180910F
:100BB0007704811110C08FEF9FEFDF91CF911F91CC
:100BC0000F91FF90EF90DF90CF90BF90AF909F90EC
:100BD0008F907F90089580912A0480FF05C08091B6
:100BE000E00082608093E000CE2DDF2DD12C8AEFD3
:100BF000B82E8C2D8770982E8C2D8072882E8C2D7F
:100C00008074782E9AE3A92E209719F4DD2009F438
:100C100052C08C2D0E94B60581110AC0BA94BB2027
:100C200051F261E070E080E090E00E942405ECCF9A
:100C30008C171D0611F00CF08C2F9FB7F894909232
:100C4000E9002091E80025FD02C09FBFDDCF282FDD
:100C500030E0C21BD30B882029F08150A0F0109205
:100C6000F100FBCFF801C7FC0AC0815050F0419160
:100C70004093F100FACF44914093F10031968150B6
:100C8000D0F7020F131FDD2021F0A092E800D12C35
:100C9000DCCF8091E80085FD07C0A092E800DD244C
:100CA000D394209791F2F3CF209779F6772069F2C9
:100CB000A092E800CACF5D9884E680932904C7011A
:100CC0007CCF615030F02091F100FC01208301962F
:100CD000F8CF289884E68093760408954F925F9227
:100CE0006F927F92AF92BF92CF92DF92EF92FF927C
:100CF0000F931F93CF93DF93EC016B017B01E40E05
:100D0000F51E8B015801AC18BD080E151F0511F119
:100D10000E945605688779878A879B87E881F981D1
:100D20000284F385E02DCE01099597FF23C00E9430
:100D30005605488459846A847B8464197509860938
:100D400097094C805D806E807F80641575058605EF
:100D5000970520F3C501DF91CF911F910F91FF906F
:100D6000EF90DF90CF90BF90AF907F906F905F90AB
:100D70004F900895F80181938F01C4CFAF92BF9235
:100D8000CF92DF92EF92FF920F931F93CF93DF9357
:100D90006C017B018B01040F151FEB015E01AE1886
:100DA000BF08C017D10759F06991D601ED91FC91A8
:100DB0000190F081E02DC6010995892B79F7C501D5
:100DC000DF91CF911F910F91FF90EF90DF90CF9027
:100DD000BF90AF90089580911C0481110DC082E0F6
:100DE0008093180484E08093190410921B041092DD
:100DF0001A0481E080931C0488E194E008950F9325
:100E00001F93CF93DF931F92CDB7DEB782E0898324
:100E100042E450E066E771E080E80E9490050E949D
:100E2000EB06DC0112960D911C910115110589F05C
:100E3000D801ED91FC910280F381E02DBE016F5F3E
:100E40007F4FC801099597FD04C0F8010085118501
:100E5000ECCF89810F90DF91CF911F910F91089571
:100E6000CF93DF93EC0180910B01882331F083E075
:100E70000E94C7051816190634F081E090E09B83A4
:100E80008A8380E090E0DF91CF910895CF93DF9344
:100E90001F92CDB7DEB76983DC01ED91FC91028032
:100EA000F381E02D41E050E0BE016F5F7F4F099577
:100EB0000F90DF91CF91089583E08093E9008091B6
:100EC000F200882319F08AE38093E800089583E014
:100ED0000E94B60590E00895CF93DF931F92CDB79F
:100EE000DEB7FC018485958597FD08C02FEF3FEFA5
:100EF000358724870F90DF91CF910895CE01019619
:100F00000E94D504019719F4898190E0F3CF8FEF07
:100F10009FEFF0CF0F931F93CF93DF931F92CDB727
:100F2000DEB78C01FC018485958597FF0BC0CE014F
:100F300001960E94D504019771F4898190E0F8012F
:100F400095878487F801848595850F90DF91CF91EF
:100F50001F910F9108958FEF9FEFF1CFFC018485D2
:100F6000958597FD0BC09FB7F89482E08093E900C8
:100F70008091F2009FBF90E0019608959FB7F8948A
:100F800082E08093E9008091F2009FBF90E0089595
:100F9000CF93DF93EC018A85882329F081508A87DB
:100FA000DF91CF9108959C818E819817C8F78D8528
:100FB0006827E881F9810084F185E02D42E0CE01C7
:100FC00009958C818F5F8C83EBCF81E090E0089551
:100FD00081E0089583E090E0089584E090E0089532
:100FE000EF920F931F93F901DA012C913E2D30956A
:100FF00032233C9330813E293083FC01D80198E0B4
:1010000080E030E020E04C914E2189F02A95D9F71C
:1010100020E04C914E2159F02A95D9F720E84C91C7
:101020004E2129F02A95D9F73A9561F717C047E084
:101030004A95F1F7000031E0550F4C914E2109F02F
:1010400051609A9529F45193839598E0681731F08F
:1010500020E84C914E2111F72A95D9F71F910F9155
:10106000EF9008950F931F93F9012081202B208387
:10107000DA012C91202B2C9320814081202B30E011
:1010800010E00095109550E004231523DC015D91DC
:1010900048E00083550F40F474E07A95F1F720831F
:1010A0007AE07A95F1F705C07EE07A95F1F70000D5
:1010B00020834A9529F073E07A95F1F70000E9CF93
:1010C0006A9529F071E07A95F1F70000E0CF72E0BF
:1010D0007A95F1F700000000008374E07A95F1F74B
:1010E0000000000020831F910F9108957F928F923E
:1010F0009F92AF92BF92CF92DF92EF92FF920F93A7
:101100001F93CF93DF93DB01642F5901F02E282F1B
:1011100030E0F901E95BFE4FE490285D3E4FF901B4
:10112000249130E0220F331FF901E65EFE4FC59196
:10113000D491F901E45FFE4FC590D490F901E250DB
:10114000FF4F859094907FB6F8940E2D9601AE01D6
:10115000CD010E94320884019601AE016F2DC501B8
:101160000E94F0077FBEDF91CF911F910F91FF90FA
:10117000EF90DF90CF90BF90AF909F908F907F9037
:101180000895FC018FE086838FE78783808711862F
:10119000128613860895DC01FB0112962C9112979A
:1011A000848195812817190641F491818081813AC3
:1011B00031F49D7F81E0913009F080E00895813223
:1011C000E1F79B3029F482811F968C9381E008958A
:1011D0009A3099F7828150968C93F8CFEF92FF92D4
:1011E0000F931F93CF93DF93FB012081213889F563
:1011F0002381223271F5DC0112964C9124813581D4
:101200004217130631F58C01FC01C385D485F12CFE
:10121000E12C209791F04C815D816A817B818E81E8
:10122000811180E80E9490058F3F980759F0E80EE1
:10123000F91E0990D881C02DECCF81E0D8011F960E
:101240008C93C701DF91CF911F910F91FF90EF9089
:10125000089590E080E0F6CFCF93DF93CDB7DEB76F
:1012600069970FB6F894DEBF0FBECDBFFC01DB015E
:101270008C918F5F8C939E012D5F3F4F8DE0D90144
:101280001D928A95E9F729E0298384E08A8391E019
:101290009D8383E08E832A8721E22B879C879D870D
:1012A0009F8722E2288B27E02B8B25E02C8B8E8BCF
:1012B00020E430E0388F2F8B998F82818B83958546
:1012C0008685998B8A8B838180688D8B49E150E07C
:1012D000BE016F5F7F4F80E00E94900569960FB658
:1012E000F894DEBF0FBECDBFDF91CF91089584E9A2
:1012F0008093BC0085E69091BC0094FF03C08150B0
:10130000D1F7089581E00895809167049091680471
:101310000196853091052CF49093680480936704BE
:10132000089581E090E0F8CF90911F018917C0F4F3
:10133000E82FF0E0EE0FFF1FE55AFB4F808191810F
:10134000DC01ED91FC910190F081E02D0995E09197
:101350005B04F0915C048FE78783808781878287B5
:1013600008950895DC019C96EC919C979D962C9194
:10137000E21730F4E80FF92FF11D848590E008950D
:101380008FEF9FEF0895FC0194A585A52FEF3FEF08
:10139000981740F4DF01A90FB11D1C962C9130E085
:1013A0009F5F94A7C9010895FC0185A594A5891B99
:1013B000990B0895CF92DF92EF92FF920F931F93B4
:1013C000CF93DF936C01EB017B01E40EF51E10E07F
:1013D00000E0CE15DF0561F06991D601ED91FC9139
:1013E0000190F081E02DC6010995080F191FF1CF7A
:1013F000C801DF91CF911F910F91FF90EF90DF9087
:10140000CF900895CF93DF9390911F018917B0F487
:10141000C82FD0E0CC0FDD1FC55ADB4F88819981E2
:10142000DC01ED91FC910190F081E02D0995E881BE
:10143000F9818FE78783808781878287DF91CF91CA
:101440000895EF92FF920F93CF93DF931F92CDB742
:10145000DEB77C01FC0180819181892BE1F48781D9
:10146000198203E0970141E0BE016F5F7F4F0E9448
:101470007608833061F0F70110821182128280E0D9
:101480000F90DF91CF910F91FF90EF9008958BE82F
:1014900091E00197F1F7F701878191E0998304E0EA
:1014A00097012D5F3F4F41E0BE016F5F7F4F0E946C
:1014B0007608843001F781E0E3CFFC0110821182CD
:1014C00012820895EF92FF920F93CF93DF931F92B2
:1014D000CDB7DEB77C01FC018589198203E0970155
:1014E00041E0BE016F5F7F4F0E947608833029F094
:1014F000C7010E945D0A90E017C0F70180819181C9
:1015000088309042C9F0F701858991E49983970169
:101510002D5F3F4F0AE041E0BE016F5F7F4F0E94A9
:10152000760891E08A3039F7892F0F90DF91CF91BB
:101530000F91FF90EF90089591E0F6CFEF92FF9218
:101540000F93CF93DF9300D01F92CDB7DEB77C010E
:10155000FC0180819181892B09F1F70180819181C2
:101560008930910579F5928193FB992790F98589C6
:1015700020E4298323E02A839B8308E09701235FEB
:101580003F4F43E0BE016F5F7F4F0E947608883077
:1015900099F0C7010E945D0A80E005C0C7010E9462
:1015A000620A8111DACF0F900F900F90DF91CF91E7
:1015B0000F91FF90EF900895F701858585FDE9CFA4
:1015C00081E0F1CF88309042D9F7F701858994E521
:1015D00099831A821B8208E09701235F3F4F43E003
:1015E000BE016F5F7F4F0E947608883049F3D1CFEC
:1015F00090911F01891778F4E82FF0E0EE0FFF1F9C
:10160000E55AFB4F80819181DC01ED91FC910190C5
:10161000F081E02D09940895FC019081911107C09B
:10162000838194810196B1F090E080E008959F302D
:1016300051F4228130E02F7033272F30310581F4AF
:1016400082E090E00895923041F0943049F485E0D2
:1016500090E0089583E090E0089584E090E008959C
:1016600081E090E00895FC016093BC002FEF3FEF14
:101670008091BC0087FF06C09091B900987F90834D
:1016800081E008952150310999F780E00895CF93C2
:10169000DF93EC016093BB0064E80E94330B882366
:1016A00029F081E09881983209F080E0DF91CF91B4
:1016B0000895DF92EF92FF920F931F93CF93DF93E2
:1016C000EC01D62EF42E8989882329F0411103C01C
:1016D0000E947709198A8E01015F1F4F8989811144
:1016E00019C0E88864EAC8010E94330B882361F0BE
:1016F0008F85883011F0803139F4EE0CE092BB0018
:1017000064E8C8010E94330B60E0F11060E4C80196
:101710000E94470B6D2DC8010E94470B82E0F81212
:101720000BC089898F5F898BDF91CF911F910F91BA
:10173000FF90EF90DF9008950E947709198AF4CF07
:10174000DC01ED91FC910084F185E02D40E00994ED
:10175000FC012781269526952695621720F465833E
:10176000606B0C94A00B08950F931F93CF93FC0113
:101770002681621798F4C62F8C0164836085C60F9A
:101780006C2F6F700E94A00B6C2F62956F70606160
:10179000C801CF911F910F910C94A00BCF911F9175
:1017A0000F9108951F93CF93DF93EC01142F0E94A4
:1017B000B40B612FCE01DF91CF911F910C94A80B38
:1017C0002F923F924F925F926F927F928F929F9251
:1017D000AF92BF92CF92DF92EF92FF920F931F933F
:1017E000CF93DF9300D000D000D0CDB7DEB7FC019F
:1017F000238534852115310509F416C19E838D8317
:10180000F9013296649031964491E42EF12CF7E080
:10181000EF0EF11C53E0F594E7945A95E1F7E98255
:10182000F901349654913196E4916D30F1F460E011
:101830000E94B40B81E090E026960FB6F894DEBFCC
:101840000FBECDBFDF91CF911F910F91FF90EF9011
:10185000DF90CF90BF90AF909F908F907F906F90D0
:101860005F904F903F902F9008956A3081F460E030
:101870008D819E810E94B40BED81FE8186856581FC
:101880008E9D600D1124CF010E94A80BD3CF651748
:1018900008F4CAC08E2F90E0FC01E50FF11D6E1711
:1018A0001F060CF0C1C089010A5F1F4F651BED8147
:1018B000FE8171855685759F502D11245C83F90139
:1018C00054912F5F3F4FF9012491352F223031057C
:1018D00008F06AC06E9CC0016F9C900D1124689F37
:1018E000F001699FF00D11240E0F1F1F512CED8187
:1018F000FE81F481FA83ED81FE812580F285FB83F0
:10190000862C912CAA24A394B12C312C89813816D1
:1019100008F086C0412CED81FE818685481608F0CE
:1019200078C08B818287311002C0442041F0ED8164
:10193000FE8145814F5F6A81CF010E94D20BD12C7D
:10194000C12CC61408F058C0F801EC0DFD1D7490B0
:10195000552061F0EA14FB0449F4E72DF0E0052C72
:1019600002C0F595E7950A94E2F77E2EED81FE819F
:101970008685823081F4442009F43AC072948FE065
:101980007822E72DF0E0EA59FE4F7490672D8D81A3
:101990009E810E94C807672D8D819E810E94C80785
:1019A0008FEFC81AD80ACDCF477028E0522E541AAC
:1019B000411101C0512CF801612C30E020E0661685
:1019C00031F04491240F311D63943196F8CF600EAD
:1019D000712E711CF3016490E29EF001E39EF00D04
:1019E000F29EF00D11248E0F9F1F080F191F7FCF3D
:1019F000F72DFF707F2EC5CFD12CEC81DE1639F08C
:101A000060E08D819E810E94C807D394F6CF4394F5
:101A100082CF3394080D191DFFEFAF1ABF0A76CF9E
:101A2000622D8D819E8130CF90E080E005CF0F93B5
:101A30001F93CF93DF938C01D0E0C0E0F801EC0F4F
:101A4000FD1F6491662341F082E795E00E94E00B60
:101A5000892B11F02196F2CFCE01DF91CF911F910A
:101A60000F910895CF92DF92EF92FF920F931F9301
:101A7000CF93DF93EC01F62EC42ED22E1A868F81DF
:101A8000869586958695081710F00FEF080F1D2D87
:101A9000011780F0412F6F2DCE010E94D20BEF2C49
:101AA000CE1430F06D85CE010E94C807E394F8CFC4
:101AB0001F5FEECF4D2D6F2DCE01DF91CF911F9186
:101AC0000F91FF90EF90DF90CF900C94D20B0F937B
:101AD000FC01078106950695069501504681415007
:101AE00020E060E00E94320D0F9108954F925F92C6
:101AF0006F927F928F92AF92CF92EF92FF920F935D
:101B00001F93CF93DF93CDB7DEB72701380194E061
:101B1000899F80011124F801E05FFB4F8081918152
:101B2000A281B3818E219521A621B72131E0892B95
:101B30008A2B8B2B09F430E03C1103C08889882361
:101B400001F1C11001C0A82C2D5F640F422F82E764
:101B500095E00E94D20B6A2D82E795E00E94E00B8F
:101B6000F801E05FFB4FCC20D1F080819181A28110
:101B7000B38184299529A629B72980839183A283DB
:101B8000B383DF91CF911F910F91FF90EF90CF9092
:101B9000AF908F907F906F905F904F90089540949A
:101BA00050946094709480819181A281B38184214A
:101BB0009521A621B721E1CF8F929F92AF92BF923C
:101BC000CF92DF92EF92FF920F931F93CF93DF9309
:101BD000D82EC62FE82FF0E0EE0FFF1FE057FC4F86
:101BE000B08007E023E041816B2D82E795E00E9401
:101BF000320D47E06B2D82E795E00E94D20BC13099
:101C000069F587ED90E00E94170D81E08D15C8F011
:101C1000C8E4D1E099249394E880F9800A811B817B
:101C20009F928F80AE80CC24C3942C814D816B2DEC
:101C30008D2D0E94760D28960F9081E0C83AD80726
:101C400059F7DF91CF911F910F91FF90EF90DF90A7
:101C5000CF90BF90AF909F908F9008958EEF93E0BC
:101C6000DF91CF911F910F91FF90EF90DF90CF9078
:101C7000BF90AF909F908F900C94170D8F929F9272
:101C8000AF92BF92CF92DF92EF92FF920F931F938A
:101C9000CF93DF93D82EC62FE82FF0E0EE0FFF1F73
:101CA000E057FC4FB08007E023E041816B2D82E7D5
:101CB00095E00E94320D47E06B2D82E795E00E948F
:101CC000D20BC13069F587ED90E00E94170D81E0DD
:101CD0008D15C8F0C8EAD1E099249394E880F98082
:101CE0000A811B819F928F80AE80CC24C3942C816B
:101CF0004D816B2D8D2D0E94760D28960F9082E0E0
:101D0000C831D80759F7DF91CF911F910F91FF90FC
:101D1000EF90DF90CF90BF90AF909F908F900895FD
:101D20008EEF93E0DF91CF911F910F91FF90EF9095
:101D3000DF90CF90BF90AF909F908F900C94170D35
:101D40000F9307E022E04FE760E082E795E00E9412
:101D5000320D809167049091680482309105E1F022
:101D600020F4019779F00F91089583309105E1F007
:101D70000497C9F766E382E795E00E94B40B8DEE05
:101D800090E007C06CE082E795E00E94B40B8BED19
:101D900090E00F910C94170D66E382E795E00E94A6
:101DA000B40B8AEF90E0F5CF64E282E795E00E9401
:101DB000B40B81EF90E0EDCF80930C016EEA8111BE
:101DC0006FEA82E795E00E94A00B0E94560560939F
:101DD0002C0470932D0480932E0490932F04089567
:101DE000FC01448550E0A585B0E0AA0FBB1FA658B2
:101DF000BB4F0D90BC91A02D13968C918064909157
:101E00007E04BF01992321F06E5F7F4F0C94C705BC
:101E10006D5F7F4FFBCF089590E080E008952F9293
:101E20003F924F925F926F927F928F929F92AF926A
:101E3000CF92DF92EF92FF920F931F93CF93DF9396
:101E4000CDB7DEB7C456D1090FB6F894DEBF0FBECA
:101E5000CDBF3C012B01D42EF22E84EA93E0D301B6
:101E60008D939C93822F90E0019695958795909104
:101E70007804981708F468C09091790412E09817D4
:101E800008F07AC011E022242394312CF101E858A3
:101E9000FB4F81E0890F808391116EC083E190E058
:101EA0000E94C62D4C0181E0F40184838583940156
:101EB000265F3F4F378326831186108628E933E05B
:101EC0003183208314861386168615868787808B38
:101ED000528A418A81EC82870E94EB06FC01818153
:101EE000D40114965C91682F650F7727771F6830AF
:101EF0007105DCF5A281B381109759F59382828236
:101F00009081D40112969C93129713968C931397F9
:101F100015968C91890F808390E080E0851728F5D5
:101F20004181A42FB0E0BD016D5D7E4FD4011696B6
:101F30002D913C91280F391FD9012C91DB012C9355
:101F40004F5F41830196EACF10E0312C212C9ECFC8
:101F5000D90118962D913C91199721153105C1F79A
:101F600019969C928E921897CBCFF101EE0FFF1F1E
:101F7000E658FB4F91828082F301158781E0F2E001
:101F8000FF1508F080E080937E048AEA93E0D30195
:101F900011969C938E931296DC9212972C2D2A0DFB
:101FA0002E0D200F85E0820F1C968C9395E099836F
:101FB00081E08A8339E03B839C8391EA9D838E8311
:101FC000B2E0BF1508F00CC385E88F83D88698E08F
:101FD000E1E0F0E0EC0FFD1FE90FF11D55E0F52EFB
:101FE000F082E1E0E90F88248394912C8C0E9D1EF1
:101FF0008E0E911CF40159E05083E2E0E90F61E09C
:1020000070E06C0F7D1F6E0F711DFB0189E18083F5
:10201000E3E0E90FA1E0B0E0AC0FBD1FAE0FB11DD2
:10202000FD0131E03083E4E0E90F88248394912CB2
:102030008C0E9D1E8E0E911CF40189E28083E5E0DA
:10204000E90F61E070E06C0F7D1F6E0F711DFB01E9
:1020500048E14083A6E0A90FE1E0F0E0EC0FFD1FAE
:10206000EA0FF11DDF01E5E1EC93A7E0A90F882459
:102070008394912C8C0E9D1E8A0E911CD4011C926F
:10208000A8E0A90F61E070E06C0F7D1F6A0F711D61
:10209000DB0185E28C93A9E0A90F88248394912C1D
:1020A0008C0E9D1E8A0E911CD4013C93AAE0A90FB0
:1020B00061E070E06C0F7D1F6A0F711DDB0175E739
:1020C0007C93ABE0A90F88248394912C8C0E9D1EE9
:1020D0008A0E911CD4013C93ACE0A90F8824839410
:1020E000912C8C0E9D1E8A0E911CD40165E96C9377
:1020F000ADE0A90F88248394912C8C0E9D1E8A0E2E
:10210000911CD4014C93AEE0A90F88248394912CA8
:102110008C0E9D1E8A0E911CD40141E84C93AFE0B9
:10212000A90F88248394912C8C0E9D1E8A0E911CDD
:10213000D401F2E0FC93A0E1A90F88248394912CB0
:102140008C0E9D1E8A0E911CD401FC92A1E1A90F58
:1021500088248394912C8C0E9D1E8A0E911CD40190
:102160003C93A2E1A90F88248394912C8C0E9D1E90
:102170008A0E911CD4015C93A3E1A90F8824839457
:10218000912C8C0E9D1E8A0E911CD4010F2EF9E30A
:10219000FF2EF02DFC92A4E1A90F88248394912CAA
:1021A0008C0E9D1E8A0E911CD401EC93A5E1A90F03
:1021B00088248394912C8C0E9D1E8A0E911CD40130
:1021C0001C92A6E1A90F88248394912C8C0E9D1E4D
:1021D0008A0E911CD4018C93A7E1A90F88248394C3
:1021E000912C8C0E9D1E8A0E911CD40187E08C933D
:1021F000A8E1A90F88248394912C8C0E9D1E8A0E31
:10220000911CD40185E38C93A9E1A90F88248394C0
:10221000912C8C0E9D1E8A0E911CD4011C92AAE159
:10222000A90F88248394912C8C0E9D1E8A0E911CDC
:10223000D40186E48C93ABE1A90F88248394912C7C
:102240008C0E9D1E8A0E911CD4018BE38C93ACE105
:10225000A90F88248394912C8C0E9D1E8A0E911CAC
:10226000D4013C93ADE1A90F88248394912C8C0E6A
:102270009D1E8A0E911CD40185E68C93AEE1A90FB8
:1022800088248394912C8C0E9D1E8A0E911CD4015F
:1022900084E18C93AFE1A90F88248394912C8C0E58
:1022A0009D1E8A0E911CD4017C93A0E2A90F882464
:1022B0008394912C8C0E9D1E8A0E911CD40188E073
:1022C0008C93A1E2A90F88248394912C8C0E9D1EDF
:1022D0008A0E911CD4016C93A2E2A90F88248394E6
:1022E000912C8C0E9D1E8A0E911CD4013C93A3E26E
:1022F000A90F88248394912C8C0E9D1E8A0E911C0C
:10230000D4014C9345E2F42EF90E44E2490F88249F
:102310008394912C8C0E9D1E840E911CD401FC93F1
:10232000222309F402C1A1E0B0E0AC0FBD1FAF0D44
:10233000B11D5C93A6E2A90F88248394912C8C0E86
:102340009D1E8A0E911CD4013C93A7E2A90F8824FC
:102350008394912C8C0E9D1E8A0E911CD401EC93BB
:10236000E8E2E90FA1E0B0E0AC0FBD1FAE0FB11D78
:10237000FD011082E9E2E90F88248394912C8C0EF0
:102380009D1E8E0E911CF40136E23083EAE2E90FC5
:10239000A1E0B0E0AC0FBD1FAE0FB11DFD013FEFDE
:1023A0003083EBE2E90F88248394912C8C0E9D1EE0
:1023B0008E0E911CF4011082ECE2E90FA1E0B0E076
:1023C000AC0FBD1FAE0FB11DFD017083EDE2E90F33
:1023D00088248394912C8C0E9D1E8E0E911CF401EA
:1023E0008083EEE2E90FA1E0B0E0AC0FBD1FAE0FBD
:1023F000B11DFD016083EFE2E90F88248394912CE5
:102400008C0E9D1E8E0E911CF4012083E0E3E90FDB
:1024100021E030E02C0F3D1F2E0F311DF90181EA24
:10242000808322E3290FE1E3E90F61E070E06C0FA4
:102430007D1F6E0F711DFB011082002391F0E1E002
:10244000F0E0EC0FFD1FE20FF11D508324E3290F94
:102450009D5CE1E0F0E0EC0FFD1FE90FF11D80E372
:102460008083EE20A1F0E1E0F0E0EC0FFD1FE20F31
:10247000F11D89E08083E1E0E20F81E090E08C0FC4
:102480009D1F8E0F911DFC0181E380832E5FCC2068
:10249000A1F0E1E0F0E0EC0FFD1FE20FF11D89E09B
:1024A0008083E1E0E20FA1E0B0E0AC0FBD1FAE0F12
:1024B000B11DFD0182E380832E5FAA20A9F0E1E037
:1024C000F0E0EC0FFD1FE20FF11D89E08083E1E0F9
:1024D000E20F88248394912C8C0E9D1E8E0E911CED
:1024E000F40185E380832E5FE1E0F0E0EC0FFD1F57
:1024F000E20FF11D81E88083E1E0E20F41E050E06E
:102500004C0F5D1F4E0F511DFA0182E0808393E056
:10251000F92EF20EE2E0E20F61E070E06C0F7D1F39
:102520006E0F711DFB0180EC8083E1E0F0E0EC0FA9
:10253000FD1FEF0DF11D80EC8083A1E0AF0DEA2EB1
:10254000F12CC7010E94C62D6C01A701BE016F5F6F
:102550007F4F0E94F02E87E090E00E94C62DDC01A4
:1025600011961C921E921396DC92CE92129715969B
:10257000FC92EE92149716961C921697E12FF0E0BB
:10258000EE0FFF1FE658FB4F40815181FA01838512
:102590009485009761F5B487A387FA0185859685B0
:1025A00014962D913C91820F931F96878587CC5965
:1025B000DF4F0FB6F894DEBF0FBECDBFDF91CF91D6
:1025C0001F910F91FF90EF90DF90CF90AF909F9071
:1025D0008F907F906F905F904F903F902F900895D5
:1025E00084E0820FF301848796E0F2CCC901FC01FC
:1025F0002081318121153105C9F7B183A083CDCF69
:102600000E94EB2ECF93DF93FC012085318580E083
:10261000232B69F4EB0161897289CE010E94F92EA6
:10262000FE0101900020E9F731978E2F8C1BDF917E
:10263000CF9108951F920F920FB60F9211242F93EE
:102640003F938F939F93AF93BF9380916E0490912C
:102650006F04A0917004B091710430916D0423E077
:10266000230F2D3758F50196A11DB11D20936D0440
:1026700080936E0490936F04A0937004B0937104E0
:102680008091720490917304A0917404B0917504C8
:102690000196A11DB11D8093720490937304A093C1
:1026A0007404B0937504BF91AF919F918F913F9146
:1026B0002F910F900FBE0F901F90189526E8230FB3
:1026C0000296A11DB11DD2CF1F920F920FB60F928D
:1026D00011248F939F938091E1009091E100937F6B
:1026E0009093E10083FF0FC01092E90091E0909376
:1026F000EB001092EC0092E39093ED0010927704BF
:1027000098E09093F00082FF22C093E09093E9005C
:102710009091F200992319F09AE39093E800909138
:102720002904992341F09091290491509093290410
:10273000911101C05D9A90917604992341F0909196
:102740007604915090937604911101C0289A84FFE9
:1027500018C08091E2008E7E81608093E2008091BB
:10276000E1008F7E8093E10080912A048E7E80615B
:1027700080932A049F918F910F900FBE0F901F900E
:10278000189580FFF7CF8091E2008E7E8061809364
:10279000E2008091E1008E7E8093E10080912A0426
:1027A0008E7E8160E5CF1F920F920FB60F9211249B
:1027B000CF92DF92EF92FF920F931F932F933F934D
:1027C0004F935F936F937F938F939F93AF93BF9339
:1027D000EF93FF93CF93DF93CDB7DEB76C97DEBF58
:1027E000CDBF1092E9008091E80083FF25C068E02A
:1027F000CE0145960E94610682EF8093E8008D89A4
:1028000087FF39C09091E80090FFFCCF982F907619
:1028100009F034C19E894F89588D2F89F88C911108
:1028200031C0803861F580912B048093F1001092C3
:10283000F1008EEF8093E8006C960FB6F894DEBF3F
:102840000FBECDBFDF91CF91FF91EF91BF91AF91BF
:102850009F918F917F916F915F914F913F912F91B8
:102860001F910F91FF90EF90DF90CF900F900FBED0
:102870000F901F9018959EEF9093E800C7CF10928D
:10288000F100D5CF913059F48111D3CF41305105AA
:1028900081F680912B048D7F80932B04CACF9330D7
:1028A00049F48111C6CF4130510519F680912B04AE
:1028B0008260F2CF953041F48091E80080FFFCCF38
:1028C00020682093E300B5CF963009F0A9C00B8DA6
:1028D0001C8D22E01092E900109227041092260429
:1028E000F2122EC010922504109224040E94FF06BA
:1028F0001F8299E09983FA8291E09E8390EA9887FB
:102900009AEF99872091260430912704275F3F4F43
:102910003C832B838D831092E90010922704109240
:102920002604109325040093240449E050E0BE01DE
:102930006F5F7F4F80E00E9490050E94FF0679CF75
:1029400010932504009324040E94EB06DC011296E8
:102950000D911C910115110509F451C1D801ED919A
:10296000FC910480F581E02DBE016B5E7F4FC801B4
:102970000995009709F03EC1F80100851185EACF5D
:10298000F3E0FF120EC08F89882309F440C0823023
:1029900061F440E860E18AED91E00E9487188111BE
:1029A00048CF81E28093EB0047CF813029F440E8A3
:1029B0006BE08EEC91E0F1CF833099F70E94EB064B
:1029C000DC011296ED90FC908E010F5F1F4F6801A5
:1029D000E114F10479F0D701ED91FC910680F781C3
:1029E000E02DB801C7010995080F111DF701E0841A
:1029F000F184EECFD8011C92F60101900020E9F796
:102A00003197BF016C197D0940E0C601C6CF68EB64
:102A100071E0FB01449150E080E80E94900509CFED
:102A2000973009F4BECF983021F481E08093F10013
:102A300000CF993009F0FDCE837009F0B2CFE4E207
:102A4000F1E081E031E096E32191222371F080935F
:102A5000E9003093EB00DF0111972C912093EC00FB
:102A60009093ED008F5F873079F78EE78093EA00CF
:102A70001092EA008F8980937704DBCE8B8D9C8D3A
:102A80001092E900109227041092260490932504D6
:102A900080932404898D811192C08E899D89913AF9
:102AA00049F4813209F07DCF47E050E064E071E005
:102AB00080E0B3CF913209F074CF833269F48F890B
:102AC000988DB0E0A0E08093000190930101A09365
:102AD0000201B0930301ADCE803269F48091E80029
:102AE00082FFFCCF67E084E091E00E9461068BEFFB
:102AF0008093E8009ECE823209F09BCE8F8980932E
:102B00000B01EEEFFFE7859194918B3F9C4D51F1C6
:102B1000E0E0F8E08091040190910501A0910601A8
:102B2000B0910701803B9440A105B105F1F480917B
:102B30000B0180FD1AC0EE3F8AE0F80789F587E7B0
:102B400097E791838083809160008093280488E1D7
:102B50009BE00FB6F894A895809360000FBE909309
:102B6000600067CEEEEFFAE0D5CF808191818737A4
:102B7000974709F05ECEA8958091600088618093A8
:102B800060008091280480936000EE3F2AE0F20705
:102B900089F08091FE0A9091FF0A9183808349CE4B
:102BA000808191818737980751F29093FF0A809333
:102BB000FE0AC5CF1092FF0A1092FE0A3ACE0E947A
:102BC000EB06DC0112960D911C910115110509F41B
:102BD000E8CED801ED91FC910190F081E02DBE018D
:102BE0006B5E7F4FC8010995811123CEF8010085E6
:102BF0001185EBCF181619060CF41BCED2CEF1E0DE
:102C0000FF12BECE6CEB71E004CF71E02D98259AD7
:102C100024982C9A0000000000000E948218259839
:102C20002D9A0E948218A8940000000000001D9BAD
:102C30000E946A18F2F088941C990894771F30F764
:102C40002D98259A803021F024982C9A0C942A16DD
:102C50002C98249A0000000000000E9482182598F9
:102C60002D9AA894000000001D9B0E946A180E94E3
:102C70008218000000002D98259A872F9927089523
:102C800080E208950894881F0C944716880F11F16C
:102C90002D98259A00000000000028F400002498D8
:102CA0002C9A0C9457162C98249A0C9457160E9420
:102CB000821825982D9AA8940000000000001D9B02
:102CC0000E946A181AF488270C9480160E948218B1
:102CD0000C9446162D98259A0000000024982C9AF2
:102CE0000E9482189927882725982D9AA894000079
:102CF0001D9B0E946A183AF31C9B81E00E94821877
:102D0000000000002D98259A089581E00895CF9342
:102D1000DF93EC01862F0E944216811108C08FA517
:102D2000811102C083E08FA790E080E002C081E0C3
:102D300090E0DF91CF9108952D98259A2C98249AB0
:102D40000E94821825982D9A0E9482181D9B0E942D
:102D50006A1824982C9A0E94821808958F93F1E0A3
:102D6000E4EF8F918F931D9B0E946A182C98249AF0
:102D70000E9482180E944216882331F40E949C16F9
:102D8000319711F00C94B11699270F90089581E0B6
:102D900008952D98259A0E94821824982C9A0E94B2
:102DA000821825982D9A0E9482181D9B0E946A18ED
:102DB0002C98249A0E9482180E944216089581E05D
:102DC00008951D9B0E946A182C98249A0E948218CC
:102DD0000E944216089581E008951F93CF93DF93D8
:102DE000EC011EA584EA112371F00E94C91681111D
:102DF00008C082E08FA781E08EA7DF91CF911F915D
:102E0000089580E0F7CF0E94E116811101C012E021
:102E10001FA7F1CFFF920F931F93CF93DF93EC0186
:102E2000F62E042F122F0E94ED16E881F9810190F1
:102E3000F081E02D6F2DCE010995E881F981019097
:102E4000F081E02D602FCE0109950FA50E949C1600
:102E50001EA61FA680E0011107C0112321F087EBF9
:102E600092E00197F1F781E0DF91CF911F910F91EF
:102E7000FF900895AF92BF92CF92DF92EF92FF92B0
:102E80001F93CF93DF93EC011FA6162F613208F03A
:102E900010E28EA5882331F185EA0E94C91691E0DF
:102EA00089279FA5911104C0882311F082E08FA784
:102EB0006E018CE0C80ED11CF12CE12CE12FE15009
:102EC000FF0B5F01E11690F481E0AE14BF0409F03E
:102ED00080E00E940516F60181936F01FFEFEF1A63
:102EE000FF0AF0CF85EA0E94E116D9CF1CA68FA574
:102EF000811110E01DA71EA60E949C168DA5DF91D2
:102F0000CF911F91FF90EF90DF90CF90BF90AF9047
:102F10000895EF92FF920F931F93CF93DF93EC01ED
:102F2000162F7A010E94ED16E881F9810190F08157
:102F3000E02D60E0CE0109950FA50E949C161EA60B
:102F40001FA6011110C087EB92E00197F1F7612FE6
:102F5000CE010E943A17482F50E0B701CE010E94DF
:102F60006E0691E0181390E0892FDF91CF911F91A9
:102F70000F91FF90EF900895AF92BF92CF92DF92A2
:102F8000EF92FF920F931F93CF93DF93CDB7DEB7EE
:102F900060970FB6F894DEBF0FBECDBF8C0197EBE4
:102FA000E92E92E0F92EC7010197F1F7D8011296A8
:102FB000ED91FC9121E043E06EEF808191810E94D0
:102FC0000A17FE0131966F01811111C0D8011296C6
:102FD000ED91FC91A60166E070E0808191810E94F4
:102FE0008917882309F443C0C7010197F1F788E0E6
:102FF0005E01B9E0AB0EB11CF501282F11922A95A4
:10300000E9F7D6011D928A95E9F787EBE82E82E071
:10301000F82ED8011296ED91FC91A50168E070E0C0
:10302000808191810E948917882309F443C0C701D8
:103030000197F1F7D8011296ED91FC91A60168E095
:1030400070E0808191810E948917882399F12985F8
:10305000998129131DC02A859A81291319C09F853A
:1030600091111AC09889911117C0F80114826096C5
:103070000FB6F894DEBF0FBECDBFDF91CF911F9189
:103080000F91FF90EF90DF90CF90BF90AF90089599
:10309000C7010197F1F7BDCF91E0D80114969C9339
:1030A00014971296ED91FC919481983000F798E076
:1030B0009483DDCF80E0DBCF249825982C9A2D9A3D
:1030C000882799271C9B08951D9B089581E00895EA
:1030D00081E00895BFE0A0EA00240E947A183AF443
:1030E0000A94D9F71197C1F728940C948118A894E1
:1030F0000C948118A8941D990C947F1828940000B2
:103100000895089591E09A95F1F708950895EF9242
:10311000FF920F931F93CF93DF93F82E192FE62E74
:10312000042F81E0860F880F0E94620583E00E94D1
:103130006205CF2DD12FEC0EFD2EF11CCE15DF0533
:10314000B9F007FF13C0FE0184910E946205182F99
:1031500080E00E946205812321968111EFCFDF91EB
:10316000CF911F910F91FF90EF9008958881EDCF3F
:1031700081E0F5CFCF93DF93EC01E881F981028004
:10318000F381E02D0995EA81FB81228133812817A3
:10319000390739F0019719F481E0232B19F480E005
:1031A00001C081E0DF91CF9108958F92AF92CF92CD
:1031B000DF92EF92FF920F931F93CF93DF93EC0177
:1031C00007E023E04CE360E082E795E00E94320DE7
:1031D00047E060E082E795E00E94D20BFE01329763
:1031E000E830F10508F076C0E850F74E0C94C02D99
:1031F000671900192F194D195B195E1961196419A6
:103200008EE394E00E94170DC1E0CF938CE3882EEB
:103210009BE3A92ECC24C394E12CF12C8701E394E9
:1032200022E040E360E080E00E94760DCF9312E060
:10323000E12EF12C00E010E023E046E360E080E0C6
:103240000E94760D0F900F90DF91CF911F910F91FB
:10325000FF90EF90DF90CF90AF908F90089586E32E
:1032600094E00E94170DC8E1D3E0DD24D394E880F8
:10327000F9800A811B81DF928F80AE80CC24C394B9
:103280002C814D8160E080E00E94760D28960F90A1
:1032900083E0C039D80759F7D7CF8FE294E0DF91A8
:1032A000CF911F910F91FF90EF90DF90CF90AF9053
:1032B0008F900C94170D8AE294E0F1CF80E294E0B5
:1032C000EECF8AE194E0EBCF81E194E0E8CF83E0B8
:1032D00094E0E5CF8EEF93E0E2CF5F926F927F9222
:1032E0008F929F92AF92BF92CF92DF92EF92FF9216
:1032F0000F931F93CF93DF93B82EEB01E82FF0E0ED
:10330000EE0FFF1FE057FC4FD08007E023E0418124
:103310006D2D82E795E00E94320D47E06D2D82E72A
:1033200095E00E94D20BC330D10509F453C0C0F41C
:1033300083ED90E0C230D105D9F08EEF93E0DF91BC
:10334000CF911F910F91FF90EF90DF90CF90BF90A2
:10335000AF909F908F907F906F905F900C94170D1F
:10336000C430D105D1F185EC90E0C530D10529F705
:103370000E94170D82E0B816E9F080915A04882364
:1033800079F1C8E9D2E099249394E880F9800A8120
:103390001B819F928F80AE80CC24C3942C814D8161
:1033A0006D2D8B2D0E94760D28960F9083E0C830EE
:1033B000D80759F7DF91CF911F910F91FF90EF90B0
:1033C000DF90CF90BF90AF909F908F907F906F9045
:1033D0005F9008958EEC90E0CBCF8AEC90E0C8CF60
:1033E00088E1682E82E0782E912C55245394C230C7
:1033F000D10549F487E08915B8F083E0F301E05A7C
:10340000FF4F891508F4F301E080F18002811381F8
:103410005F928780A680CC24C394248145816D2D42
:103420008B2D0E94760D0F90939488E0680E711C8E
:103430008CE09812DCCFBECFAF92BF92CF92DF92DA
:10344000EF92FF921F93CF93DF93EFE7F4E01382A5
:10345000128288EEC82E83E0D82EE12CF12CC48293
:10346000D582E682F78280EB93E0918380838FEFB1
:103470009FEF95878487EFECF4E0808312821182BE
:10348000148613868FEF9FEFDC0187839087A187D7
:10349000B287E2E7F5E01382128212861486138661
:1034A000158681E0868782EC93E091838083E3E454
:1034B000F5E01582168288E2EAE4F5E0DF01982F54
:1034C0001D929A95E9F7E4E1F5E015821682EBE1A9
:1034D000F5E0DF011D928A95E9F788E090E00E940F
:1034E000C62DC5E1FC01C78320E1A22E25E0B22E46
:1034F000D5018D939C9388E090E00E94C62D15E045
:10350000FC011783D50113969C938E93129786E145
:1035100090E00E94C62DFC01C58BCCE0D5E09983DC
:10352000888386E190E00E94C62DDC0155961C93AD
:103530009B838A83ECEDF4E013821282C482D582ED
:10354000E682F78280ED93E091838083DF91CF91D3
:103550001F91FF90EF90DF90CF90BF90AF900895B4
:10356000CF93DF93CDB7DEB7C856D1090FB6F89425
:10357000DEBF0FBECDBF789484B5826084BD84B5B4
:10358000816084BD85B5826085BD85B5816085BD5E
:1035900080916E00816080936E0010928100809116
:1035A000810082608093810080918100816080939E
:1035B00081008091800081608093800080919100E3
:1035C000826080939100809191008160809391004E
:1035D000809190008160809390008091C100846010
:1035E0008093C1008091C10082608093C10080916E
:1035F000C10081608093C1008091C300816080938D
:10360000C3008091C00082608093C0008091C2009E
:1036100081608093C20080917A00846080937A00F8
:1036200080917A00826080937A0080917A00816034
:1036300080937A0080917A00806880937A0010925B
:10364000770410922B0410922A048091D700816095
:103650008093D70080EA8093D80089B5806189BDC6
:1036600089B5826089BD09B400FEFDCF61E070E0DC
:1036700080E090E00E9424058091D8008F7C8061DA
:103680008093D8008091E000807F8093E00080915B
:10369000E1008E7E8093E1008DE08093E200559AF8
:1036A000209A56985E9A90E080E00E944F2D282F35
:1036B00030E03093680420936704853030F081E077
:1036C00090E09093680480936704809167049091E0
:1036D00068048230910509F451C108F03AC001979D
:1036E00009F478C0109283058CE3809382051092D0
:1036F000B90084E48093BC008CE08093B800109201
:10370000760510927705EDEDF3E0E590F490EFED9E
:10371000F3E0D490E0EEF3E0E491E0937805E1EE9D
:10372000F3E0E491E0937905E2EEF3E0E491E093D5
:103730007A0510E000E00D1508F048C2F701E00F2F
:10374000F11F649182E795E00E94A00B0F5F1F4F6D
:10375000F2CF8330910509F45AC1049709F0C2CF22
:1037600065E070E080E090E00E94240581E08093B5
:103770001F0182E390E090932201809321018EE06B
:1037800090E00E94C62D4C01AA24A394CC24C3949B
:10379000EE24E39401E021E043E066E074E00E945F
:1037A0000F0F90925C0480925B0410E080911F01E7
:1037B000181708F084C1812F0E949409E12FF0E0CE
:1037C000EE0FFF1FE55AFB4F808191810E94F00EA2
:1037D0001F5FECCF10924905249A2C98259A2D9AB8
:1037E0006E987698769A549A5C9A3E984698469A3D
:1037F0002C9A8BE090E00197F1F7369903C084E0B2
:10380000809349052C9883E190E00197F1F710929D
:103810001A05869A8E98859A8D9A87988F988F9A8E
:10382000229A2A9A23982B982B9A8E9A8BE090E0D2
:103830000197F1F71B9903C084E080931A058E98D5
:1038400083E190E00197F1F783E290E00197F1F7CF
:103850008091490581113FC082E080931F0182E37E
:1038600090E090932201809321010E944E02E0900B
:10387000480510E05AE0F52E0FEFE116A9F11111FD
:103880000AC08AE495E00E940C0B21E0059709F03C
:1038900020E020935A04812F153008F084E090E056
:1038A000F89EF001F99EF00D1124ED5BFA4F0783AD
:1038B000118610860196F89ED001F99EB00D112454
:1038C000AD5BBA4F1D921C92048716861586108A2E
:1038D00017861F5FD2CF86E080931F0188EE93E0AA
:1038E000909322018093210110E0F0901F011F1599
:1038F00008F58EE090E00E94C62D4C0143E0410F98
:1039000080915A046EED73E0811102C068EE73E09D
:10391000A12CC12CE12C00E02F2DC4010E940F0F1F
:10392000E12FF0E0EE0FFF1FE55AFB4F91828082FE
:103930001F5FDBCF10E080911F01181778F4812FF3
:103940000E94F80AE12FF0E0EE0FFF1FE55AFB4F4F
:10395000808191810E94F00E1F5FEDCF8091210147
:10396000909122018230910508F4BCCE880F991FF6
:10397000880F991F05970197F1F7B4CE65E070E0C5
:1039800080E090E00E94240582E080931F0182E3A2
:1039900090E090932201809321018EE090E00E94BC
:1039A000C62D4C01AA24A394CC24C394EE24E39402
:1039B00001E022E043E065EF73E00E940F0F909278
:1039C0005C0480925B048EE090E00E94C62D4C0166
:1039D00022E044E065EF73E00E940F0F90925E04D6
:1039E00080925D0410E080911F01181708F0D9C083
:1039F000812F0E94020AE12FF0E0EE0FFF1FE55A2F
:103A0000FB4F808191810E94F00E1F5FECCF65E03B
:103A100070E080E090E00E94240582E080931F0126
:103A200084E690E090932201809321018EE090E063
:103A30000E94C62D4C01AA24A394CC24C394EE2446
:103A4000E39401E022E043E06EEF73E00E940F0F89
:103A500090925C0480925B048EE090E00E94C62D00
:103A60004C0122E044E06EEF73E00E940F0F909251
:103A70005E0480925D0410E000911F01101780F039
:103A80001CE0E12E15E0F12E10E0011709F489C0C9
:103A9000D7018D919D917D010E94620A1F5FF5CF34
:103AA000812F0E94020AE12FF0E0EE0FFF1FE55A7E
:103AB000FB4F808191810E94F00E1F5FDDCF10923D
:103AC00008051092090510920B0510920A050E9434
:103AD0005C1880E290E00E94C62D8C016C01B4E07D
:103AE000CB0ED11C8CED94E0F80195838483178272
:103AF000168286E08087D382C28284E391E091833C
:103B0000808310933804009337048BE090E00E9488
:103B1000C62DFC01D382C28214828CE391E0918392
:103B200080837F0125E0E20EF11C58013EE1A30EE7
:103B3000B11CF683E583B086A78212861186D80170
:103B40005F96FC92EE925E97F0933404E093330418
:103B50008AE090E00E94C62DFC01D382C28284E4F8
:103B600091E091838083CF010496F583E483B7824B
:103B7000A68211861086E114F104D9F4D8015F966B
:103B80009C938E935E97F0933204E0933104D801B6
:103B90001496ED91FC9114A615A617A616A60E94E0
:103BA0005C1862E370E080E090E00E9424059ACD0A
:103BB0007901D70114962D913C9115972115310566
:103BC000B9F715969C938E931497DDCF82E795E015
:103BD0000E94670D61E882E795E00E94A00B61E01A
:103BE00082E795E00E94A00BE2EFF1E0F0937E0502
:103BF000E0937D058491E3EFF1E0E491F82F3197B4
:103C000009F046C010927B0582E795E00E94670D9F
:103C100011E0109380056EE182E795E00E94B40BFD
:103C200082E0809380058BEE91E00E94170D109347
:103C300080050E94A00EFE0131961F010E94FF0424
:103C4000E0902101F09022010091690410916A0432
:103C500020916B0430916C04601B710B820B930BF1
:103C6000870130E020E0601771078207930708F4AE
:103C700090C580916704909168048230910509F4A1
:103C8000C6C550F4019709F4C9C01092580477C50D
:103C900081E080937B05B8CF8330910511F40C94BB
:103CA0007526049791F780911101882331F01092C5
:103CB000110190E080E00E94D518A0903904009195
:103CC000370410913804A1100C940B2AD8011296D5
:103CD000ED91FC91E080F18020E045E560EFC701C7
:103CE0000E940A17882311F40C94F8296AE070E006
:103CF00080E090E00E94240520E040E06BEFC701E7
:103D00000E940A17882311F40C94F82964E170E0EA
:103D100080E090E00E942405F801C280D380D601A3
:103D2000ED90FC90C7010E94ED16D701ED91FC913A
:103D30000190F081E02D6AEFC7010995F701B7A462
:103D40000E949C16D7019E961C929E979F961C924D
:103D5000BB2011F40C94962990E080E0F601938347
:103D60008283C8010E94BA18D82E882311F40C94BB
:103D7000FE29D8011296ED91FC91359685E1DF017F
:103D80001D928A95E9F7D8011296ED91FC9113974F
:103D900086E08483ED91FC910190F081E02DC801D3
:103DA0000995882311F40C94FE29F801068D178DCE
:103DB0000115110511F40C94072AD801ED90FC901F
:103DC000C7010E94BA18882311F40C94022AD70163
:103DD000ED91FC910190F081E02DC7010995D82E5D
:103DE000882311F40C94022A81E08093390480E046
:103DF0000E949409E0913704F09138040280F38125
:103E0000E02D828193810E94D51882E390E0909307
:103E1000220180932101A0925804B1C48CE0D10109
:103E20001D928A95E9F780912001882381F01092F4
:103E3000200180911F01833050F045E064E282E769
:103E400095E00E94D20B84EF93E00E94170D0E9430
:103E50004E02E4E1F5E08CE395E02781248720859C
:103E600031853687258722853385308B27873A969B
:103E70008E179F0791F750901905109219058E9A89
:103E80008BE290E00197F1F78E9883E190E0019743
:103E9000F1F780911A05811136C150E040E090E0C1
:103EA00080E063E170E02FB1022E000C330B22277B
:103EB000330F221F3327042E02C0220F331F0A9410
:103EC000E2F7822B932B8D98DB011197F1F78D9AF6
:103ED000DB011197F1F74F5F5F4F4031510519F743
:103EE000392F32953F7020E13D3009F021E050E05C
:103EF00040E070E060E003E110E0AFB10A2E000C9A
:103F0000BB0BAA27BB0FAA1FBB27042E02C0AA0FF8
:103F1000BB1F0A94E2F76A2B7B2B8D98D80111976F
:103F2000F1F78D9AD8011197F1F74F5F5F4F421764
:103F300020F3232F2095EFE0FE2EF326AC014095D1
:103F40005095609570953F3029F46E3FBFEF7B0729
:103F500009F450C08091190591E0980F90931905CC
:103F6000853008F084E090E0DC01119631111DC02D
:103F7000052F11270F7011270F301105B1F40AE03A
:103F8000089F9001099F300D11242C5E3A4F1FE0CD
:103F9000F90117830A9F90010B9F300D1124D9015D
:103FA000AC5EBA4F6D937C9319C022FF9CC03AE07F
:103FB000389FB001399F700D11246C5E7A4F14E068
:103FC000FB0117833A9FB0013B9F700D1124DB0169
:103FD000AC5EBA4F237030E02D933C932AE0289FCB
:103FE000D001299FB00D1124AC5EBA4F19965C9395
:103FF0004E931897B09119056996BFAF6997B5159B
:1040000018F52B2F3AE04FEF822F253008F084E08F
:1040100090E0389FD001399FB00D1124AC5EBA4FAB
:1040200017964C93179719961C921E921897019603
:10403000389FD001399FB00D1124AC5EBA4F1D924C
:104040001C922F5F5212E0CFE09148056396EFAFCC
:1040500063976996FFAD6997EF0F6796EFAF679724
:104060002BE534E06E963FAF2EAF6E97D12C00E07B
:1040700020911F0167963FAD67973D1509F429C34D
:10408000D21609F426C3BB24B39463964FAD63974D
:10409000D41608F4B12C63965FAD63978D2DD516B9
:1040A00008F08CC164E06D1508F484E07AE0879F25
:1040B000C0011124DC01A65BBA4F2D01223009F0AA
:1040C00093C163965FAD6397552309F48DC1C20117
:1040D0000E940C0BEB2DF0E0EE0FFF1FE20DF31D25
:1040E0009183808381C11AE0189F9001199F300D40
:1040F00011242C5E3A4FF901F7821A9F90011B9F01
:10410000300D11244CCF10E063E170E08AE02FE025
:10411000422E04E02A9ADB011197F1F750E040E0CB
:10412000912C812CD12CC12C2FB1022E000C330BE1
:104130002227330F221F3327042E02C0220F331FE2
:104140000A94E2F7C22AD32A93B193FB992790F9F4
:10415000A1969FAFA197A2961FAEA297A2962EAD51
:104160003FADA297042E02C0220F331F0A94E2F73C
:10417000822A932A8D98DB011197F1F78D9ADB0142
:104180001197F1F74F5F5F4F4031510569F6BD2C34
:10419000B294BFE0BB22992D92959F70FDE0A0E103
:1041A000FA2EBF1611F0FF24F39430E19D3009F090
:1041B00031E0712C612C50E040E020E0A32F3F154E
:1041C00008F4AF2D2A1798F5AFB10A2E000CBB0BDF
:1041D000AA27BB0FAA1FBB27022E02C0AA0FBB1F14
:1041E0000A94E2F74A2B5B2BA3B1A3FBAA27A0F901
:1041F000A396AFAFA397A4961FAEA497A496AEAD17
:10420000BFADA497022E02C0AA0FBB1F0A94E2F70B
:104210006A2A7B2A8D98DB011197F1F78D9ADB01D1
:104220001197F1F72F5FCACF11E02A9874CFAB2C0A
:10423000A094C094D094409550952FE0B21205C040
:104240004E3F3FEF530709F447C02091190531E075
:10425000320F30931905253008F024E030E0D90101
:1042600011967D01B11017C0AD2DBB27AF70BB27D4
:104270001F9789F4829FD001839FB00D1124AC5EFB
:10428000BA4F17964C928E9DD0018F9DB00D112480
:10429000AC5EBA4F15C0829FD001839FB00D112430
:1042A000AC5EBA4FA2FE51C017960C938E9DD00102
:1042B0008F9DB00D1124AC5EBA4F4A2D437050E073
:1042C0004D935C93829FA001839F500D11244C5EFF
:1042D0005A4FFA01D186C086B92EB094809490943A
:1042E000609470949F3031F4FEEF6F16FFEF7F06FD
:1042F00009F453C02091190531E0320F30931905AC
:10430000253008F024E030E0D9011196911121C048
:10431000E92CFF244FE0E422FF245FE0E516F104DE
:10432000C1F4829F7001839FF00C1124F701EC5EB1
:10433000FA4F47828A9FA0018B9F500D1124DA010A
:10434000AC5EBA4F6D927C921CC0B4241796BC929E
:104350009ACFB2FE27C0829FA001839F500D1124E7
:104360004C5E5A4FFA0107838A9FA0018B9F500D24
:1043700011244C5E5A4FAB2DA370B0E0FA01B1830B
:10438000A083829FA001839F500D11244C5E5A4F41
:10439000DA0119969C928E921897113009F044CF49
:1043A0002A9A28CE829F7001839FF00C1124A701C6
:1043B0004C5E5A4F9425FA019783BCCF6396BFADEC
:1043C00063978B1B853008F084E0EAE08E9FC00184
:1043D0001124AC01455E5A4F2A01223029F4699616
:1043E0006FAD6997611173CED2018C9115969C9136
:1043F0001597891323C011964D915C9112971696CB
:104400002D913C9117974217530759F413964D91EC
:104410005C91149718962D913C914217530709F41B
:1044200060C0811119C0F201838194810196A1F4C9
:10443000D20118968D919C91019671F08D2D0E945C
:10444000F80A80911F01823039F4C2010E940C0BDE
:10445000BC018B2D0E946D19C2010E940C0B62964B
:104460009FAF8EAF6297F20181819281DC01A095AE
:10447000B095E4E0B695A795EA95E1F71A2F1F707D
:104480009C0121703327AC015695479570E060E0A0
:1044900041705527662777276296AEADBFAD62970C
:1044A000129759F5232B09F0426082FD516083FD7C
:1044B00052606E96AEADBFAD6E97ED91FC914383A9
:1044C00054836583A12FB0E0A85FBC4F8C91868395
:1044D000CF010E94F00E80911F01823009F452C07A
:1044E00001E0D3946E964EAD5FAD6E974E5F5F4F19
:1044F0006E965FAF4EAF6E97BBCD232B09F0426037
:1045000090FD446091FD486092FD406193FD4062E2
:104510006296EEADFFAD6297349721F5D201139606
:104520002D913C9134FD406435FD406820FD546080
:1045300021FD586022FD506123FD506224FD50642E
:1045400025FD506826FD616027FD626030FD6460D6
:1045500031FD686032FD606133FD606237FFA5CFD9
:104560006064A3CF6296EEADFFAD6297359709F018
:104570009CCFD20113962C9120FD406421FF95CF52
:10458000406893CF80915A04882309F45CC068E99D
:10459000662E62E0762E65961FAE6597EB2DF0E0F5
:1045A000EE0FFF1FE057FC4F9080F301E080F18099
:1045B0000281138124814581A68087806596FFADA5
:1045C0006597FC3050F562966EAD7FAD62976230B4
:1045D0007105B1F4F830A0F01F92C12C692D8B2D1C
:1045E0000E94760D0F906596BFAD6597BF5F65968B
:1045F000BFAF6597E8E06E0E711CBE30B1F670CFAC
:10460000D20111968D919C918E219F21CC24C3942F
:10461000892B09F4C12C1F92E1CF6296EEADFFAD5C
:1046200062973597B9F7D20113966D917C91D801B5
:10463000C7015CE0B695A795979587955A95D1F7F0
:1046400086239723E3CF28E1622E22E0722E912C5D
:104650008B2D90E0880F991F9C0120573C4F669648
:104660003FAF2EAF669762964EAD5FAD6297423018
:10467000510549F457E0591520F163E0F301E05A80
:10468000FF4F691508F4F301E080F1800281138186
:10469000D20111968D919C918E219F21CC24C3949F
:1046A000892B09F4C12C1F928780A6802481458123
:1046B0006696EEADFFAD669760818B2D0E94760DFC
:1046C0000F909394F8E06F0E711C2CE09212CBCFF8
:1046D00007CFE980FA80223079F48091130190911C
:1046E00014018E159F0541F0E114F10429F470E0E6
:1046F00060E080E00E946D19F0921401E0921301D5
:10470000EB80FC8080911F01823079F4809115014B
:10471000909116018E159F0541F0E114F10429F4E2
:1047200070E060E081E00E946D19F0921601E09265
:1047300015018091590467965FAD67975817C0F4CB
:10474000152F80915904181798F480911F0118179C
:1047500079F0812F0E94F80AE12FF0E0EE0FFF1FA1
:10476000E55AFB4F808191810E94F00E1F5FE9CFD7
:1047700067966FAD679760935904009358040E9441
:10478000FF046093690470936A0480936B049093B0
:104790006C0480915804882341F080910C018111B0
:1047A0000C94DA2C81E00E94DC0E80910C018823AD
:1047B000B1F00E94560500912C0410912D04209117
:1047C0002E0430912F04601B710B820B930B603E03
:1047D00073498440910518F080E00E94DC0E4E99E8
:1047E0000EC06CE271E080E090E00E9424058091B0
:1047F0000C0181110C94E62C81E00E94DC0E80E01B
:1048000090E0892B09F41ACA0E94000017CA80910F
:104810005604811167C080915704811163C06701FC
:10482000CC0CDD1CCC0CDD1C75E0C71AD10800E1F6
:1048300015E0B6E5AB2EB4E0BB2E84E1882E85E012
:10484000982ED8018D919D918D010E94210AF5012C
:1048500081935F0180915604811104C080915704B7
:10486000882339F0F2E0EF16F10418F0C601019741
:10487000F1F78016910629F781E00E94DC0E07E02F
:1048800027E04FE760E082E795E00E94320D67E0A5
:1048900082E795E00E94A80B60E082E795E00E9425
:1048A000B40B8091560481110BC080915704811183
:1048B00003C08EEF93E002C083EE93E00E94170DD9
:1048C00062E482E795E00E94B40B909156048091D7
:1048D0005704992309F479C0811104C083EE93E051
:1048E0000E94170D2F961FAE2F9760961FAE6097F0
:1048F000712C70E5A72E73ECB72EE7E06E2EF2E375
:104900008F2E912C80911F01781608F071C0072D11
:1049100010E0F801EE0FFF1FE05FFA4FC080D1807A
:10492000D0925504C0925404F801EA5AFB4F80819A
:10493000882309F448C0C6010E94210A98012E5A12
:104940003B4F7901882309F445C087E0F601DE0179
:10495000A95BBF4F01900D928A95E1F787E0FE01B8
:10496000E95BFF4FDE01A05CBF4F01900D928A957D
:10497000E1F7609EC001619E900D1124820D931D90
:10498000FE01E05CFF4FDC01262D01900D922A957F
:10499000E1F7DC018D919C9111E0009709F410E0A2
:1049A000F7012081211109C0892B39F0872D0E9440
:1049B000020A61E0872D0E943E0ED7011C9390925F
:1049C00022018092210173949DCF811185CF8EEFBA
:1049D00093E086CF872D0E94020A60E0872D0E9417
:1049E0003E0EF7011082B0922201A0922101EBCF7E
:1049F000912C57E0D52E80911F01981608F06AC1BE
:104A0000692C712CF301EE5AFB4F8081882309F445
:104A10005FC1D69CF001D79CF00D1124E20DF31D6F
:104A20002381822F82958F7090E0982F882792950E
:104A3000907F2F7030E0322F2227820F931F248126
:104A4000422F42954F7030E1439FA0011124840F03
:104A5000951F2F70AC01420F511D62965FAF4EAF94
:104A60006297558163965FAF6397B680B301605BD1
:104A70007B4F68967FAF6EAF6897DB018C915813C0
:104A800008C0F301E25BFB4F8081B81611F40C946F
:104A9000322DEEE4F0E0EC0FFD1FE60DF71DB1E066
:104AA000B083D69CF001D79CF00D1124E20DF31DCC
:104AB000838122E030E087FD02C030E020E0D69C18
:104AC000F001D79CF00D1124E20DF31D838186FDCA
:104AD0002160D69CF001D79CF00D1124E20DF31D4E
:104AE000838185FD3160D69CF001D79CF00D1124A7
:104AF000E20DF31D838184FD3260D69CF001D79CCA
:104B0000F00D1124E20DF31D848185FD2061D69CFA
:104B1000F001D79CF00D1124E20DF31D848184FD7A
:104B20002062D69CF001D79CF00D1124E20DF31DFC
:104B3000848183FD2064D69CF001D79CF00D112464
:104B4000E20DF31D848182FD2460D69CF001D79C88
:104B5000F00D1124E20DF31D848181FD2860D69CA7
:104B6000F001D79CF00D1124E20DF31D848180FD2E
:104B70002068F301EE0FFF1F6696FFAFEEAF66975A
:104B8000E55AFB4FA081B18113962C93139714968D
:104B90003C93149715961C921597D69CF001D79CC0
:104BA000F00D1124E20DF31D838183FBEE27E0F964
:104BB00021E02E2782FF2260D69CC001D79C900D59
:104BC0001124820D931DFC01838181FF2460D69CFA
:104BD000C001D79C900D1124820D931DFC0183818F
:104BE00080FF2860E22FF0E0E85FFC4F808116969E
:104BF0008C93169763968FAD6397805817968C9316
:104C0000179780E88B0D809518968C931897CD0197
:104C10000E94F00E18EA412E11E0512E62964EAD20
:104C20005FAD62979A0150E040E06C962CAF3DAFCB
:104C30004EAF5FAF6C976696EEADFFAD6697E057EF
:104C4000FC4F50816D965FAF6D97D201ED90FD9056
:104C50000D911C916C968CAD9DADAEADBFAD6C97BA
:104C60008E219F21A023B123CC24C394892B8A2B8E
:104C70008B2B09F4C12C1F92F2018780A68024811E
:104C800045816D966FAD6D97892D0E94760DF8E088
:104C90004F0E511C0F9028E132E024153505A9F67E
:104CA0006696EEADFFAD6697E65BFB4F62964EAD46
:104CB0005FAD6297518340836396EFAD63976896CB
:104CC000AEADBFAD6897EC93F301E25BFB4FB082F2
:104CD000939491CE2F968FAD2F97811103C060963C
:104CE0008FAD6097809358044ACD8091120188233C
:104CF00031F01092120160E080E00E94DC0D8091A2
:104D00004804811166C080914904811162C080917C
:104D10004604811108C080910C0590910D050E94F8
:104D20009E0A809346048093480480914704811131
:104D300008C080910E0590910F050E949E0A8093F5
:104D400047048093490481E00E94DC0E07E027E0DD
:104D50004FE760E082E795E00E94320D67E082E76E
:104D600095E00E94A80B60E082E795E00E94B40BFA
:104D70008091480481110BC080914904811103C0C6
:104D80008EEF93E002C083EE93E00E94170D62E481
:104D900082E795E00E94B40B909148048091490409
:104DA000992309F478C0811104C083EE93E00E9436
:104DB000170D80914804882321F061E080E00E9473
:104DC000DC0D80914904882321F061E081E00E949C
:104DD000DC0D28961FAE289729961FAE2997512CD7
:104DE000F0E56F2EF3EC7F2EA5E14A2EB4E68B2E74
:104DF000912C80911F01581608F067C0E52CF12C0A
:104E0000F701E85BFB4F8081882309F442C08701EA
:104E1000000F111FF801E45FFA4FA080B180C501B7
:104E20000E949E0A97012A5B3B4F69018823C1F1CA
:104E300085E1F501DE019B9601900D928A95E1F7DF
:104E40004E9CC0014F9C900D1124820D931DFE01BC
:104E5000BB96DC01242D01900D922A95E1F7DC012F
:104E60008D919C9111E0009709F410E0F6012081EA
:104E7000211109C0892B39F0852D0E94020A61E0B9
:104E8000852D0E94DC0DD6011C9390922201809208
:104E900021015394AECF811186CF8EEF93E087CF5F
:104EA000852D0E94020AF801E55AFB4F808191810D
:104EB0000E94F00E60E0852D0E94DC0DF60110824C
:104EC0007092220160922101E4CF61961FAE61973A
:104ED00065E1D62E71EE972E80911F016196FFAD90
:104EE0006197F81708F019C24F2E512CF201EA5BB6
:104EF000FB4F8081882309F4EAC1D49CF001D59C42
:104F0000F00D1124E20DF31D958586859C016496B4
:104F10003FAF2EAF64974785B201605C7B4F6E96C2
:104F20007FAF6EAF6E97DB018C91082E000C990B52
:104F30009201220F331F4817190611F55089D2012B
:104F4000A25CBB4F8C91082E000C990B58171906C8
:104F5000B9F45189D201A45CBB4F8C91082E000C8E
:104F6000990B5817190661F45289F201E65CFB4F60
:104F70008081082E000C990B5817190609F47CC57E
:104F8000E7E4F0E0EC0FFD1FE40DF51DB1E0B083A8
:104F9000D49CF001D59CF00D1124E20DF31D858504
:104FA00080FF9DC184E090E0D49CF001D59CF00D81
:104FB0001124E20DF31D558551FD8260D49CF00152
:104FC000D59CF00D1124E20DF31D558552FD88602E
:104FD000D49CF001D59CF00D1124E20DF31D5585F4
:104FE00053FD8160D49CF001D59CF00D1124E20D9D
:104FF000F31D568554FD9160D49CF001D59CF00DB5
:105000001124E20DF31D558554FD9260D49CF001EE
:10501000D59CF00D1124E20DF31D568556FD8061DF
:10502000D49CF001D59CF00D1124E20DF31D5685A2
:1050300055FD8062255A3B4FF90100811181D8014D
:1050400013968C93139714969C93149715961C9211
:10505000D49CF001D59CF00D1124E20DF31D868542
:1050600083FBEE27E0F9B1E0EB2782FFE260D49CFE
:10507000D001D59CB00D1124A20DB31D1E968C91AC
:1050800080FFE460D49CD001D59CB00D1124A20D0A
:10509000B31D1E968C9181FFE860F0E0E85FFC4F45
:1050A0008081F80186834E3108F01CC1D49CF00148
:1050B000D59CF00D1124E20DF31D2EE12787D49C21
:1050C000F001D59CF00D1124E20DF31D80898E3185
:1050D00008F014C13EE1308BD49CF001D59CF00D5A
:1050E0001124E20DF31D81898E3108F00CC14EE1CF
:1050F000418BD49CF001D59CF00D1124E20DF31DE1
:1051000082898E3108F004C15EE1528BD49C70011B
:10511000D59CF00C1124E20CF31CD7011F96BC9116
:105120006596BFAF65972B2F30E050E040E02E51E1
:10513000310941095109AFEFB0E00E94842D23EC01
:1051400030E040E050E00E94652DF8012783D70150
:105150005096BC916796BFAF67972B2F30E050E019
:1051600040E0215E310941095109AFEFB0E00E94F2
:10517000842D2DE33FEF4FEF5FEF0E94652DF80187
:105180002087D7015196BC916996BFAF69972B2FA5
:1051900030E050E040E02E51310941095109AFEFB4
:1051A000B0E00E94842D23EC30E040E050E00E940B
:1051B000652DF8012187D7015296BC902B2D30E048
:1051C00050E040E0215E310941095109AFEFB0E004
:1051D0000E94842D2DE33FEF4FEF5FEF0E94652D7E
:1051E000F8012287C8010E94F00E28E4622E21E017
:1051F000722E64964EAD5FAD64979A0150E040E028
:10520000A8962CAF3DAF4EAF5FAFA897B201660F27
:10521000771FA0967FAF6EAFA097FB01E057FC4FC2
:105220007081A9967FAFA997D301ED90FD900D9164
:105230001C91A8968CAD9DADAEADBFADA8978E214B
:105240009F21A023B123CC24C394892B8A2B8B2BA1
:1052500009F4C12C1F92F3018780A6802481458127
:10526000A9966FADA99761968FAD61970E94760D53
:10527000F8E06F0E711C0F9028EA31E02615370513
:1052800099F6A096EEADFFADA097EE5BFB4F64964E
:105290004EAD5FAD6497518340836596EFAD6597E2
:1052A0006E96AEADBFAD6E97EC93F201E25CFB4F34
:1052B00067962FAD67972083F201E45CFB4F6996F8
:1052C0003FAD69973083F201E65CFB4FB082619697
:1052D0004FAD61974F5F61964FAF6197FDCD90E005
:1052E00080E062CE423E08F4EACED49CF001D59C28
:1052F000F00D1124E20DF31D9786E1CE823E08F4F5
:10530000EBCE908AE9CE823E08F4F3CE918AF1CEBC
:10531000823E08F4FBCE928AF9CE28968FAD28976C
:105320008111E0CC29968FAD2997DCCC87EB92E0F8
:105330000197F1F766E0C7010E943A17482F50E045
:10534000B101C7010E946E06863011F00C94AC1EAC
:105350008B81843A09F048C08C81803209F044C0C6
:105360008D81811103C09E81992391F199812A81B8
:10537000923058F421111AC0843008F52E81213062
:1053800031F484E090E00C94AE1E21110FC0813006
:10539000B1F48E81833061F49923F1F0913001F101
:1053A000933011F587E090E00C94AE1E813039F413
:1053B0008E818231C9F488E090E00C94AE1E811198
:1053C00013C08E81833181F489E090E00C94AE1E8D
:1053D00083E090E00C94AE1E85E090E00C94AE1E4D
:1053E00086E090E00C94AE1E82E090E00C94AE1E3D
:1053F000D8011296ED91FC911382128280E593EC14
:105400000C94071FF801048115810C94D81EDD202F
:10541000A9F30C94F41EC8010E94BA18882309F459
:10542000E1C0D8011296ED91FC91AF014B5F5F4F47
:10543000648170E0808191810E94891765968FAFA9
:105440006597882309F4CEC0F80182819381DC013D
:1054500014964C910596FC012FEF30E050E0BF010F
:10546000681B790B6417750724F46191362B26238A
:10547000F6CF332309F4B6C02F3F09F4B3C0E0914F
:105480003704F09138040280F381E02D028113810A
:10549000C8010397029708F4BBC0912CD12C412C72
:1054A000512CB12C712C612C8091350490913604D3
:1054B0006596AFAC65978615970539F4AA24A39431
:1054C000809130048B1101C0A12C809110018511B5
:1054D0000DC080910F01841109C080910E018D11C2
:1054E00005C080910D01891509F4D4C2E0915B04D7
:1054F000F0915C046382748215826B2D70E0689673
:105500007FAF6EAF6897DB01A85FBC4F8C9186833D
:105510005782842D81958087D186892D81958287B8
:10552000CF010E94F00E045011090230110508F05D
:1055300027C27FE069967FAF6997A8E1B3E06296E2
:10554000BFAFAEAF629764961FAE1EAE6497629611
:10555000EEADFFAD6297E080F1800281138124817E
:105560004581A68087806396FFAD6397FB3008F086
:105570000CC2C30102C096958795FA95E2F7382FC1
:105580003170C32E1F9260E080E00E94760D0F9074
:1055900064968EAD9FAD6497019664969FAF8EAF73
:1055A00064976296AEADBFAD629718966296BFAF34
:1055B000AEAF62976996BFAD69978B1740F2709254
:1055C000360460923504B09230045092100140923B
:1055D0000F01D0920E0190920D016596AFAC6597C8
:1055E0000C940B1F1092390480E593EC90932201E8
:1055F0008093210180E00E94940910923604109259
:10560000350490E080E00E94D518A12C0C940B1F6B
:105610000430110509F099C1E0913304F09134048C
:1056200084810280F381E02D8111C1C0228530E0A8
:105630003901B5E075946794BA95E1F76094709478
:10564000B1E06B22772496E0359527959A95E1F79E
:105650002095309520FDC1C0228530E064E035956D
:1056600027956A95E1F72095309520FDC6C02285E3
:1056700030E043E0359527954A95E1F72095309540
:1056800020FDCBC0218530E0B5E035952795BA9552
:10569000E1F72095309520FDD0C0218530E035958B
:1056A00027952095309520FDD5C0228530E0220F2A
:1056B000232F221F330B232B09F4D9C0228530E07E
:1056C00035952795359527952095309520FDDEC099
:1056D000218530E0A4E035952795AA95E1F720953E
:1056E000309520FDE3C0218530E03595279535952F
:1056F00027952095309520FDE8C0218530E043E0D6
:10570000359527954A95E1F72095309520FDEDC018
:105710009285BB24B39490FFB12C218530E0B6E094
:1057200035952795BA95E1F72095309520FD04C071
:105730006894B1F88111F0C0228530E03595279545
:105740002095309520FD04C06894B2F88111ECC01A
:10575000218530E0220F232F221F330B232B21F032
:105760006894B3F88111E9C08581582E550C550C09
:105770009681492E440C440C2781907C92959695F5
:105780009770807CD82ED694D694D694D92A822F1E
:10579000807890E0880F892F881F990BD82ADD0C1C
:1057A000DD0CDD0C922E990C990C990C7DCE248584
:1057B00030E0390175E0759467947A95E1F760946B
:1057C000709441E064227724A6E035952795AA9548
:1057D000E1F72095309520FF05C0689461F8882393
:1057E00009F43ACF248530E054E0359527955A9551
:1057F000E1F72095309520FF05C0689462F8882372
:1058000009F435CF248530E093E0359527959A95B6
:10581000E1F72095309520FF05C0689463F8882350
:1058200009F430CF238530E0A5E035952795AA957A
:10583000E1F72095309520FF05C0689464F888232F
:1058400009F42BCF238530E03595279520953095A9
:1058500020FF05C0689465F8882309F426CF2485C5
:1058600030E0220F232F221F330B232B29F46894BF
:1058700066F8882309F422CF248530E035952795F2
:10588000359527952095309520FF05C0689467F8D9
:10589000882309F41DCF238530E074E035952795E2
:1058A0007A95E1F72095309520FF05C0689470F84F
:1058B000882309F418CF238530E035952795359551
:1058C00027952095309520FF05C0689471F88823AE
:1058D00009F413CF238530E093E0359527959A9509
:1058E000E1F72095309520FF05C0689472F8882371
:1058F00009F40ECF948590FD25C0B12C882309F4BE
:105900000BCF238530E0A6E035952795AA95E1F7E2
:105910002095309520FF0CCF248530E035952795D4
:105920002095309520FF10CF238530E0220F232FC4
:10593000221F330B232B09F013CF55804780D680CD
:105940009084B2CDBB24B394DCCFE0913104F091CC
:1059500032040280F381E02D8285682E712C7594CB
:1059600067946094709451E06522772480FD02C0B2
:10597000689461F855804680912CD12CB12C94CD3F
:1059800082E069968FAF6997D8CD64968EAD9FAD52
:1059900064970B9768966EAD7FAD689702C075955A
:1059A00067958A95E2F7CB0180959095782F717075
:1059B000C72EE8CD0E94560560932C0470932D04E9
:1059C00080932E0490932F040C94D523E0906704C9
:1059D000F09068040E9484090E94A00E10E000E08C
:1059E00062E070E080E090E00E9424054E990CC0D7
:1059F0006CE271E080E090E00E9424050E9484093E
:105A00000E94A00E10E000E00F5F1F4F003DF7E086
:105A10001F0731F76091670470916804E616F70676
:105A200021F40E94A00E0C94FF2390E080E00E94DD
:105A3000572D82E795E00E94670D87EE93E00E9464
:105A4000170D88E19EE00FB6F894A895809360004A
:105A50000FBE9093600068E770E080E090E00E94E5
:105A60002405F9CF62962EAD3FAD62972A5434409B
:105A700011F00C9449252CC9F901EE5BFB4F808194
:105A8000918164966EAD7FAD64976817790709F0D0
:105A900077CA1DCCAA2011F40C940B1F27CDF999BD
:105AA000FECF92BD81BDF89A992780B50895262F23
:105AB000F999FECF1FBA92BD81BD20BD0FB6F894F3
:105AC000FA9AF99A0FBE01960895052E97FB1EF4D7
:105AD00000940E947C2D57FD07D00E948F2D07FC5B
