:100000000C944B020C9473020C9473020C947302C4
:100010000C9473020C9473020C9473020C9473028C
:100020000C9473020C9473020C94BF240C942E2530
:100030000C9473020C9473020C9473020C9473026C
:100040000C9473020C9473020C9473020C9473025C
:100050000C9473020C9473020C9473020C94752428
:100060000C9473020C9473020C9473020C9473023C
:100070000C9473020C9473020C9473020C9473022C
:100080000C9473020C9473020C9473020C9473021C
:100090000C9473020C9473020C9473020C9473020C
:1000A0000C9473020C9473020C947302AED580A866
:1000B0003FD300408D142002A1C8DA12817FD9F10C
:1000C000DB40A4A6AF5341542D574845454C00533F
:1000D00041542D33440053415455524E0047454E30
:1000E000455349532D360047454E455349532D330B
:1000F0000056424F59004E545400534E4553004E43
:100100004553004A4F47434F4E00464C49474854D9
:10011000535449434B004455414C53484F434B00C3
:100120004449474954414C004E4547434F4E0050C7
:100130004F50204E005043452D36005043452D3240
:100140000047454E45534953202B205341545552A7
:100150004E0050432D454E47494E450050535800E0
:100160004E4553202B20534E4553004D554C54497A
:100170002D54415000504C55472B52455345540087
:100180004E4F4E45004D554C54492D544150005250
:1001900045424F4F54494E472E2E2E004D554C543C
:1001A000492D5441500000030C0F30333C3FC0C375
:1001B000CCCFF0F3FCFF0000000200090F000003A9
:1001C0000401000C0000000000000000000000001E
:1001D0000000000000080B000202020000090400F9
:1001E00000010202000005240010010524010101A4
:1001F00004240206052406000107058103100040BF
:1002000009040100020A0000000705020240000084
:10021000070583024000000403090412010002EFF5
:10022000020140D0167E12000101020301556E6BDF
:100230006E6F776E005265666C6578204164617000
:1002400074005245464C45580000000507206100E7
:100250000000000000005F00006070787060605077
:1002600048506003070F07030305090503081C3EF8
:100270007F7F081C22417F7F7F3E1C087F41221C1C
:1002800008082A1C2A0808083E0808005030000008
:100290000808080808006060000020100804023EFA
:1002A0005149453E00427F4000426151494621414B
:1002B000454B311814127F1027454545393C4A49B2
:1002C000493001710905033649494936064949292A
:1002D0001E00363600003C7E7E7E3C3C4242423C64
:1002E0001414141414F0F0F0F0F0F0909090F03238
:1002F0004979413E7E1111117E7F494949363E417F
:100300004141227F4141221C7F494949417F0909DE
:1003100001013E414151327F0808087F00417F4181
:10032000002040413F017F081422417F404040406F
:100330007F0204027F7F0408107F3E4141413E7FDF
:10034000090909063E4151215E7F0919294646499E
:1003500049493101017F01013F4040403F1F20409A
:10036000201F7F2018207F6314081463030478047F
:1003700003615149454300007F41410204081020B8
:1003800041417F0000383C1E0F074040404040384C
:100390002412090720545454787F48444438384480
:1003A000444420384444487F3854545418087E0943
:1003B0000102081454543C7F0804047800447D4032
:1003C000002040443D00007F10284400417F400051
:1003D0007C041804787C0804047838444444387C4D
:1003E00014141408081414187C7C080404084854D5
:1003F000545420043F4440203C4040207C1C20407A
:10040000201C3C4030403C44281028440C505050A4
:100410003C4464544C44E0E0E0E0E000007F000035
:10042000E0A0A0A0E008082A1C08081C2A08080070
:1004300006090906AC0019804000000000002500F4
:1004400028002B002E0031000000000024002700AF
:100450002A002D00300004040404040304050202F1
:10046000020204030202020206060606060604044D
:1004700002020204040408020110408040102040DF
:10048000804080080204018040201002011080108A
:1004900020404020012B11241FBECFEFDAE0DEBF49
:1004A000CDBF26E0AEE8B4E001C01D92AC39B20782
:1004B000E1F714E0A0E0B1E0E8E1F2E602C0059067
:1004C0000D92AE38B107D9F712E0CBE4D2E004C008
:1004D0002197FE010E94CA2FCA34D107C9F70E9492
:1004E000762B0C940A310C94000090E0FC01EB5840
:1004F000FB4F24918A5A9B4FFC018491882399F0E9
:1005000090E0880F991FFC01E85BFB4FA591B49127
:10051000FC01E65CFB4F859194918FB7F894EC91C8
:10052000E22BEC938FBF0895FC01611109C081811A
:100530009281807F480F592F511D52834183089526
:10054000613051F4818192818F7020E1429FA0013E
:100550001124480F591FF1CF623039F48181928103
:10056000907F50E0542F4427F4CF633049F48181C9
:1005700092819F7050E0542F44275295507FE9CFCD
:10058000643011F443830895653011F44483089571
:10059000663011F445830895673009F44683089561
:1005A000FC018091E004882311F13FB7F89482E0C8
:1005B0008093E9002091F200822F90E0181619062E
:1005C00014F481E090E0882339F0289844E64093C1
:1005D000DF044091F1004083222339F02091F200A2
:1005E000211103C02BE62093E8003FBF08958FEF51
:1005F0009FEF0895CF93DF931F92CDB7DEB7698346
:10060000DC01ED91FC910280F381E02D41E050E0AE
:10061000BE016F5F7F4F09950F90DF91CF910895D5
:1006200083E08093E9008091F200882319F08AE347
:100630008093E8000895CF93DF931F92CDB7DEB784
:10064000FC018485958597FD08C02FEF3FEF358726
:1006500024870F90DF91CF910895CE0101960E94DB
:10066000D002019719F4898190E0F3CF8FEF9FEFCB
:10067000F0CF0F931F93CF93DF931F92CDB7DEB7C9
:100680008C01FC018485958597FF0BC0CE010196F6
:100690000E94D002019771F4898190E0F80195875A
:1006A0008487F801848595850F90DF91CF911F9104
:1006B0000F9108958FEF9FEFF1CFFC018485958511
:1006C00097FD0BC09FB7F89482E08093E90080917A
:1006D000F2009FBF90E0019608959FB7F89482E0E2
:1006E0008093E9008091F2009FBF90E008953FB7AA
:1006F000F8948091DB049091DC04A091DD04B0912A
:10070000DE0426B5A89B05C02F3F19F00196A11D58
:10071000B11D3FBFBA2FA92F982F8827BC01CD014B
:10072000620F711D811D911D42E0660F771F881FAA
:10073000991F4A95D1F708958F929F92AF92BF92D9
:10074000CF92DF92EF92FF924B015C010E94770300
:100750006B017C010E9477036C197D098E099F094A
:10076000683E734081059105A8F321E0821A910843
:10077000A108B10888EEC80E83E0D81EE11CF11C68
:1007800081149104A104B10429F7FF90EF90DF9048
:10079000CF90BF90AF909F908F9008952FB7F8940F
:1007A0006091D7047091D8048091D9049091DA04B3
:1007B0002FBF08954091BA045091BB042091B80412
:1007C0003091B90442175307B4F49091E800957042
:1007D000E1F39091E80092FD19C08093F1008091BF
:1007E000BA049091BB0401968F739927892B19F451
:1007F0008EEF8093E8008091BA049091BB0401963B
:100800009093BB048093BA0481E0089580E008953A
:10081000EF92FF920F931F93CF93DF93F82E192F30
:10082000E62E042F81E0860F880F0E94DA0383E012
:100830000E94DA03CF2DD12FEC0EFD2EF11CCE1528
:10084000DF05B9F007FF13C0FE0184910E94DA03AF
:10085000182F80E00E94DA03812321968111EFCFC7
:10086000DF91CF911F910F91FF90EF9008958881B4
:10087000EDCF81E0F5CFDF92EF92FF920F931F93C0
:10088000CF93DF93D82E8A01EB017B01E40EF51E96
:10089000CE15DF0559F0D7FE12C0FE0184910E94EB
:1008A000DA0321968111F4CF0FEF1FEFC801DF911A
:1008B000CF911F910F91FF90EF90DF900895888165
:1008C000EECF2FB7F89487708093E9009091E800FD
:1008D000892F807295FF04C09091F20080E4891BFB
:1008E0002FBF089583E00E94610490E008957F92F5
:1008F0008F929F92AF92BF92CF92DF92EF92FF9230
:100900000F931F93CF93DF93C82E8B017A018091B1
:10091000E004811110C08FEF9FEFDF91CF911F9105
:100920000F91FF90EF90DF90CF90BF90AF909F908E
:100930008F907F9008958091BE0480FF05C08091C4
:10094000E00082608093E000CE2DDF2DD12C8AEF75
:10095000B82E8C2D8770982E8C2D8072882E8C2D21
:100960008074782E9AE3A92E209719F4DD2009F4DB
:1009700052C08C2D0E94610481110AC0BA94BB2020
:1009800051F261E070E080E090E00E949C03ECCFC7
:100990008C171D0611F00CF08C2F9FB7F8949092D5
:1009A000E9002091E80025FD02C09FBFDDCF282F80
:1009B00030E0C21BD30B882029F08150A0F01092A8
:1009C000F100FBCFF801C7FC0AC0815050F0419103
:1009D0004093F100FACF44914093F1003196815059
:1009E000D0F7020F131FDD2021F0A092E800D12CD8
:1009F000DCCF8091E80085FD07C0A092E800DD24EF
:100A0000D394209791F2F3CF209779F6772069F26B
:100A1000A092E800CACF5D9884E68093BD04C70128
:100A20007CCFCF93DF93EC0180913E01882331F09E
:100A300083E00E9477041816190634F081E090E0F4
:100A40009B838A8380E090E0DF91CF91089561508D
:100A500030F02091F100FC0120830196F8CF289816
:100A600084E68093DF040895AF92BF92CF92DF9225
:100A7000EF92FF920F931F93CF93DF936C017B0153
:100A80008B01040F151FEB015E01AE18BF08C017E4
:100A9000D10759F06991D601ED91FC910190F08157
:100AA000E02DC6010995892B79F7C501DF91CF911A
:100AB0001F910F91FF90EF90DF90CF90BF90AF907C
:100AC00008958091B00481110DC082E08093AC0440
:100AD00084E08093AD041092AF041092AE0481E0E4
:100AE0008093B0048CEA94E008950F931F93CF9302
:100AF000DF931F92CDB7DEB782E0898342E450E0F6
:100B000065ED71E080E80E943B040E946105DC0114
:100B100012960D911C910115110589F0D801ED91E6
:100B2000FC910280F381E02DBE016F5F7F4FC80111
:100B3000099597FD04C0F80100851185ECCF8981E6
:100B40000F90DF91CF911F910F910895CF93CFB761
:100B5000F8948091AB0481115AC047E654E0FA0141
:100B6000949126E834E0F9018491E92FF0E0EE0F4A
:100B7000FF1FE85BFB4FA591B4919C91982309F06E
:100B800037C0E7ECF1E09491F9012491FA018491E6
:100B9000882309F42DC09923E9F091509F30D0F4B7
:100BA000E92FF0E0EA52FA4F0C94CA2F17061B0601
:100BB000E5050F061306EA05EA05EA051E06240602
:100BC00028062C063206EA053606909180009F77AB
:100BD00090938000E82FF0E0EE0FFF1FE65CFB4FE4
:100BE000A591B4918FB7F8949C91292B2C938FBF2A
:100BF00081E10E9475028CB580618CBD8CB58064EA
:100C00008CBD8FE00E94750280E10E947502809188
:100C1000AB048F5F8093AB04CFBFCF9108959091C9
:100C200080009F7DD5CF90918000977FD1CF94B5E4
:100C30009F7794BDCFCF94B59F7DFBCF90919000CF
:100C40009F7790939000C6CF909190009F7DF9CFB1
:100C500090919000977FF5CF9091C0009F779093EF
:100C6000C000B8CF9091C0009F7DF9CF9091C20095
:100C7000977F9093C200AECFCF93DF93EC018A852C
:100C8000882329F081508A87DF91CF9108959C8134
:100C90008E819817C8F78D856827E881F9810084CF
:100CA000F185E02D42E0CE0109958C818F5F8C8328
:100CB000EBCFFC018FE086838FE7878380871186E7
:100CC000128613860895DC01FB0112962C9112976F
:100CD000848195812817190641F491818081813A98
:100CE00031F49D7F81E0913009F080E008958132F8
:100CF000E1F79B3029F482811F968C9381E008955F
:100D00009A3099F7828150968C93F8CFEF92FF92A8
:100D10000F931F93CF93DF93FB012081213889F537
:100D20002381223271F5DC0112964C9124813581A8
:100D30004217130631F58C01FC01C385D485F12CD3
:100D4000E12C209791F04C815D816A817B818E81BD
:100D5000811180E80E943B048F3F980759F0E80E0C
:100D6000F91E0990D881C02DECCF81E0D8011F96E3
:100D70008C93C701DF91CF911F910F91FF90EF905E
:100D8000089590E080E0F6CFCF93DF93CDB7DEB744
:100D900069970FB6F894DEBF0FBECDBFFC01DB0133
:100DA0008C918F5F8C939E012D5F3F4F8DE0D90119
:100DB0001D928A95E9F729E0298384E08A8391E0EE
:100DC0009D8383E08E832A8721E22B879C879D87E2
:100DD0009F8722E2288B27E02B8B25E02C8B8E8BA4
:100DE00020E430E0388F2F8B998F82818B8395851B
:100DF0008685998B8A8B838180688D8B49E150E051
:100E0000BE016F5F7F4F80E00E943B0469960FB682
:100E1000F894DEBF0FBECDBFDF91CF91089523B10F
:100E20004FB13FB15FB126952170220F220F220FE3
:100E3000441F4427441F440F440F240F55FB4427ED
:100E400040F9240F36FB332730F9330F230F019776
:100E500021F01B9920611E992062822F089559B1BB
:100E60003CB143B163B136FB222720F9220F220F98
:100E7000352F331F3327331F330F330F330F230F18
:100E800065FB332730F9230F44FB332730F9330F49
:100E9000230F019721F03699206137992062822F24
:100EA00008958FB7F8948091AA048FBF089584E9BC
:100EB0008093BC0085E69091BC0094FF03C08150F4
:100EC000D1F7089581E008956EBD00000DB407FECE
:100ED000FDCF8EB508952A9A299A8C9A83EC90E0DA
:100EE0000197F1F708952A9A299A469A83EC90E09F
:100EF0000197F1F708958091D4049091D50401965B
:100F0000853091052CF49093D5048093D4040895F2
:100F100081E090E0F8CF90913601891778F4E82FBE
:100F2000F0E0EE0FFF1FE853FB4F80819181DC0161
:100F3000ED91FC910190F081E02D099408958CBD14
:100F40009DBD08958C9880919C0590919D050E946F
:100F50009F0783EC90E00197F1F708954698809100
:100F60009C0590919D050E949F0783EC90E001975E
:100F7000F1F708958F929F92AF92BF92CF92DF9236
:100F8000EF92FF920F931F93CF93DF937C016B013E
:100F90005A01022F10E0D0E0C0E083EC882E912CA3
:100FA000C017D107E1F0D701ED91FC910480F581E4
:100FB000E02D6AE5C114D10421F0D601AC0FBD1FAC
:100FC0006C91C7010995A114B10421F0F501EC0F52
:100FD000FD1F8083C4010197F1F72196E1CFDF91D6
:100FE000CF911F910F91FF90EF90DF90CF90BF9026
:100FF000AF909F908F900895CF92DF92EF92FF92E3
:101000000F931F93CF93DF937C016B01D42F8C013F
:101010000E5F1F4F23E0A8010E94BA07F70123814A
:101020002F3F61F410E000E0C801DF91CF911F91E4
:101030000F91FF90EF90DF90CF90089584818A35D3
:1010400011F08111EFCF2F70C22FCC0FD33059F098
:10105000B6016D5F7F4F2DEF2D0FA7014B5F5F4FE7
:10106000C7010E94BA072C2F2D1B2D5FE9F24D2FCF
:1010700050E0CA01820F911D8197A4F6400F511FC5
:1010800070E060E0C7010E94BA07CECFAF92BF9276
:10109000CF92DF92EF92FF920F931F93CF93DF9344
:1010A00000D000D01F92CDB7DEB78C01DC019C963A
:1010B0001C929C97D9961C92D997ED91FC91019026
:1010C000F081E02D0995F80182AD811108C083AD52
:1010D000803409F083C084AD813009F07FC085E0A1
:1010E000EFE3F2E0DE01119601900D928A95E1F7AF
:1010F000D80196968D919C919797069709F068C0B4
:10110000DD968C918C8345E0BE016F5F7F4FC801F7
:101110000E94FC077C01D801ED91FC910280F381D3
:10112000E02DC8010995E114F10409F440C0F7016C
:101130008181807F803F09F055C00E94CE036B0102
:101140007C01D801ED91FC910190F081E02DC80166
:10115000099544E066E372E0C8010E94FC075C0167
:10116000D801ED91FC910280F381E02DC801099531
:10117000A114B10429F0F5018181807F803F89F4B9
:101180006AE070E080E090E00E949C030E94CE0341
:101190006C197D098E099F096B3F710581059105C9
:1011A00080F262E370E080E090E00E949C0380E0C7
:1011B0000F900F900F900F900F90DF91CF911F9194
:1011C0000F91FF90EF90DF90CF90BF90AF90089578
:1011D000F80183AD8C8384AD8D8395CF43E06FE3BD
:1011E00072E095CFD80194968D919C9195979396A6
:1011F0009C938E9392972381348195963C932E9362
:10120000949781818937B9F483E090E097969C9315
:101210008E939697D80196968D919C91979784304E
:10122000910591F150F58230910571F1039709F420
:1012300041C081E0BDCF982F907F903721F482E0AC
:1012400090E0D801E3CF903531F484E090E0F801EC
:1012500097A386A3DFCF833219F485E090E0F1CF26
:10126000903E19F486E090E0F2CF833619F487E0DF
:1012700090E0E7CF81E090E0EACF8630910509F475
:101280005CC030F10797A9F681E0D8019C968C9359
:101290009C97F70185819A968C939A9786819B9665
:1012A0008C939B97878198968C9398978085999635
:1012B0008C93BFCF81E0F80181AFF70139969D96FD
:1012C000C701459621912D93E817F907D9F7DCCF8F
:1012D00081E09C968C939C97F701958198969C93BE
:1012E0009897D9968C93D9978681D3968C93D397D8
:1012F0009781D4969C93D4974085D5964C93D59757
:1013000097FF05C03F7795963C932E93949787FF60
:101310000AC0D80194968D919C9195979F7B959644
:101320009C938E939497403F08F483CFF80184A157
:1013300095A19B7F95A384A37CCF81E09C968C9301
:10134000F7019681858197FD1AC087FD8FE7D80147
:1013500098968C93D80198968C91989780589896E7
:101360008C939897F70185819D968C939D978681A4
:101370009E968C939E9787819F968C935ACF8138A7
:1013800008F481E8F80180A7E5CFFC019081911174
:1013900007C0838194810196B1F090E080E00895C8
:1013A0009F3051F4228130E02F7033272F303105E8
:1013B00081F482E090E00895923041F0943049F455
:1013C00085E090E0089583E090E0089584E090E067
:1013D000089581E090E00895FC01808187838181F8
:1013E00092819187808783818287848183878581A9
:1013F0008487868185870895FC016093BC002FEF68
:101400003FEF8091BC0087FF06C09091B900987FA4
:10141000908381E008952150310999F780E0089583
:10142000CF93DF93EC016093BB0064E80E94FC095A
:10143000882329F081E09881983209F080E0DF91DB
:10144000CF910895DF92EF92FF920F931F93CF9366
:10145000DF93EC01D62EF42E8989882329F04111DF
:1014600003C00E945707198A8E01015F1F4F8989A7
:10147000811119C0E88864EAC8010E94FC09882328
:1014800061F08F85883011F0803139F4EE0CE092F4
:10149000BB0064E8C8010E94FC0960E0F11060E450
:1014A000C8010E94100A6D2DC8010E94100A82E036
:1014B000F8120BC089898F5F898BDF91CF911F91C3
:1014C0000F91FF90EF90DF9008950E945707198ABF
:1014D000F4CFDC01ED91FC910084F185E02D40E03A
:1014E0000994FC012781269526952695621720F4FC
:1014F0006583606B0C94690A08950F931F93CF93D3
:10150000FC012681621798F4C62F8C0164836085E4
:10151000C60F6C2F6F700E94690A6C2F62956F70F6
:101520006061C801CF911F910F910C94690ACF910E
:101530001F910F9108951F93CF93DF93EC01142F08
:101540000E947D0A612FCE01DF91CF911F910C94F3
:10155000710A2F923F924F925F926F927F928F9279
:101560009F92AF92BF92CF92DF92EF92FF920F9332
:101570001F93CF93DF9300D000D000D0CDB7DEB75C
:10158000FC01238534852115310509F416C19E839C
:101590008D83F9013296649031964491E42EF12CBA
:1015A000F7E0EF0EF11C53E0F594E7945A95E1F75C
:1015B000E982F901349654913196E4916D30F1F459
:1015C00060E00E947D0A81E090E026960FB6F894D4
:1015D000DEBF0FBECDBFDF91CF911F910F91FF9066
:1015E000EF90DF90CF90BF90AF909F908F907F90C3
:1015F0006F905F904F903F902F9008956A3081F4E4
:1016000060E08D819E810E947D0AED81FE8186854C
:1016100065818E9D600D1124CF010E94710AD3CF88
:10162000651708F4CAC08E2F90E0FC01E50FF11D8C
:101630006E171F060CF0C1C089010A5F1F4F651BA2
:10164000ED81FE8171855685759F502D11245C8337
:10165000F90154912F5F3F4FF9012491352F22302A
:10166000310508F06AC06E9CC0016F9C900D11247A
:10167000689FF001699FF00D11240E0F1F1F512C60
:10168000ED81FE81F481FA83ED81FE812580F28572
:10169000FB83862C912CAA24A394B12C312C898114
:1016A000381608F086C0412CED81FE8186854816EB
:1016B00008F078C08B818287311002C0442041F04D
:1016C000ED81FE8145814F5F6A81CF010E949B0AB7
:1016D000D12CC12CC61408F058C0F801EC0DFD1D2A
:1016E0007490552061F0EA14FB0449F4E72DF0E012
:1016F000052C02C0F595E7950A94E2F77E2EED8160
:10170000FE818685823081F4442009F43AC07294C7
:101710008FE07822E72DF0E0EA55FE4F7490672DB8
:101720008D819E810E943C06672D8D819E810E9445
:101730003C068FEFC81AD80ACDCF477028E0522E4A
:10174000541A411101C0512CF801612C30E020E005
:10175000661631F04491240F311D63943196F8CF11
:10176000600E712E711CF3016490E29EF001E39E05
:10177000F00DF29EF00D11248E0F9F1F080F191F00
:101780007FCFF72DFF707F2EC5CFD12CEC81DE16D9
:1017900039F060E08D819E810E943C06D394F6CFA3
:1017A000439482CF3394080D191DFFEFAF1ABF0A7F
:1017B00076CF622D8D819E8130CF90E080E005CF85
:1017C0000F931F93CF93DF938C01D0E0C0E0F8011B
:1017D000EC0FFD1F6491662341F086E896E00E94BD
:1017E000A90A892B11F02196F2CFCE01DF91CF917A
:1017F0001F910F910895CF92DF92EF92FF920F9376
:101800001F93CF93DF93EC01F62EC42ED22E1A86AF
:101810008F81869586958695081710F00FEF080F33
:101820001D2D011780F0412F6F2DCE010E949B0AC4
:10183000EF2CCE1430F06D85CE010E943C06E3946F
:10184000F8CF1F5FEECF4D2D6F2DCE01DF91CF91E1
:101850001F910F91FF90EF90DF90CF900C949B0A17
:101860000F93FC0107810695069506950150468168
:10187000415020E060E00E94FB0B0F9108954F92D1
:101880005F926F927F928F92AF92CF92EF92FF9280
:101890000F931F93CF93DF93CDB7DEB727013801A6
:1018A00094E0899F80011124F801E257FB4F808169
:1018B0009181A281B3818E219521A621B72131E0AA
:1018C000892B8A2B8B2B09F430E03C1103C08889CB
:1018D000882301F1C11001C0A82C2D5F640F422F95
:1018E00086E896E00E949B0A6A2D86E896E00E94B0
:1018F000A90AF801E257FB4FCC20D1F080819181F9
:10190000A281B38184299529A629B729808391834F
:10191000A283B383DF91CF911F910F91FF90EF903E
:10192000CF90AF908F907F906F905F904F90089581
:10193000409450946094709480819181A281B3818D
:1019400084219521A621B721E1CF0F9307E022E062
:101950004FE760E086E896E00E94FB0B8091D4049C
:101960009091D50482309105E1F020F4019779F04F
:101970000F91089583309105E1F00497C9F764E26F
:1019800086E896E00E947D0A82E591E007C06CE05F
:1019900086E896E00E947D0A81E491E00F910C9424
:1019A000E00B64E286E896E00E947D0A80E691E022
:1019B000F5CF66E386E896E00E947D0A8CE591E02B
:1019C000EDCF809308016EEA81116FEA86E896E018
:1019D0000E94690A0E94CE0360939A0470939B044C
:1019E00080939C0490939D040895FC01448550E0ED
:1019F000A585B0E0AA0FBB1FAD51BB4F0D90BC91A8
:101A0000A02D13968C9180649091E704BF019923D7
:101A100021F06E5F7F4F0C9477046D5F7F4FFBCF9B
:101A2000089590E080E008952F923F924F925F9248
:101A30006F927F928F929F92AF92BF92CF92DF92DE
:101A4000EF92FF920F931F93CF93DF93CDB7DEB743
:101A5000C456D1090FB6F894DEBF0FBECDBF2C011E
:101A60001B01942ED22EBE2C80E294E0D2018D93E5
:101A70009C93822F90E00196959587959091E10433
:101A8000981750F09091E20411E0EE24E394F12CC9
:101A9000981728F012E075C010E0F12CE12CF70146
:101AA000EF51FB4F81E0890F808391116AC083E180
:101AB00090E00E94D02F3C0181E0F3018483858374
:101AC0009301265F3F4F378326831186108624E1DA
:101AD00034E0318320831486138616861586878723
:101AE000808B328A218A81EC82870E946105FC0109
:101AF0008181D30114965C91682F650F7727771F3A
:101B000068307105BCF5A281B381109739F57382F5
:101B100062829081D30112969C93129713968C93B4
:101B2000139715968C91890F808390E080E085173C
:101B300008F54181A42FB0E0BD01615C7E4FD30167
:101B400016962D913C91280F391FD9012C91DB015C
:101B50002C934F5F41830196EACFD90118962D91BE
:101B60003C91199721153105C1F719967C926E9217
:101B70001897CFCFF701EE0FFF1FED51FB4F71828A
:101B80006082F201158781E08D1508F080E0809376
:101B9000E70486E294E0D20111969C938E9312960C
:101BA0009C9212972C2D2A0D2B0D200FEA963FACFC
:101BB000EA97380C822F830D95E0980F1C969C9322
:101BC00035E0398391E09A8349E04B833C8331EAE5
:101BD0003D839E839D1508F0EEC385E88F8398862C
:101BE00098E0E1E0F0E0EC0FFD1FE90FF11D45E0AA
:101BF0004083E1E0E90F66246394712C6C0E7D1E36
:101C00006E0E711CF30159E05083E2E0E90FEE24FF
:101C1000E394F12CEC0EFD1EEE0EF11CF70189E1B0
:101C20008083E3E0E90F61E070E06C0F7D1F6E0FD1
:101C3000711DFB0131E03083E4E0E90FA1E0B0E089
:101C4000AC0FBD1FAE0FB11DFD0189E28083E5E041
:101C5000E90F66246394712C6C0E7D1E6E0E711C50
:101C6000F30188E18083E6E0E90FEE24E394F12CB0
:101C7000EC0EFD1EEE0EF11CF701A5E19A2E9082EE
:101C8000E7E0E90F61E070E06C0F7D1F6E0F711DE2
:101C9000FB011082E8E0E90FA1E0B0E0AC0FBD1F4E
:101CA000AE0FB11DFD01B5E2FB2EF082E9E0E90FB8
:101CB00066246394712C6C0E7D1E6E0E711CF301F4
:101CC0003083EAE0E90F61E070E06C0F7D1F6E0F7A
:101CD000711DFB0175E77083EBE0E90FA1E0B0E057
:101CE000AC0FBD1FAE0FB11DFD013083ECE0E90F5D
:101CF00066246394712C6C0E7D1E6E0E711CF301B4
:101D000065E96083EDE0E90FA1E0B0E0AC0FBD1F35
:101D1000AE0FB11DFD018083EEE0E90F66246394F0
:101D2000712C6C0E7D1E6E0E711CF30181E8808398
:101D3000EFE0E90FA1E0B0E0AC0FBD1FAE0FB11DA9
:101D4000FD01B2E0DB2ED082E0E1E90F662463946E
:101D5000712C6C0E7D1E6E0E711CF3014083E1E14F
:101D6000E90FA1E0B0E0AC0FBD1FAE0FB11DFD014A
:101D70003083E2E1E90F66246394712C6C0E7D1EC2
:101D80006E0E711CF3015083E3E1E90FA1E0B0E0B6
:101D9000AC0FBD1FAE0FB11DFD0149E34083E4E16F
:101DA000E90F66246394712C6C0E7D1E6E0E711CFF
:101DB000F3019082E5E1E90FA1E0B0E0AC0FBD1FB7
:101DC000AE0FB11DFD011082E6E1E90F66246394B8
:101DD000712C6C0E7D1E6E0E711CF301F082E7E11A
:101DE000E90FEE24E394F12CEC0EFD1EEE0EF11C37
:101DF000F70147E04083E8E1E90FA1E0B0E0AC0F74
:101E0000BD1FAE0FB11DFD0145E34083E9E1E90FC0
:101E100066246394712C6C0E7D1E6E0E711CF30192
:101E20001082EAE1E90FEE24E394F12CEC0EFD1EA2
:101E3000EE0EF11CF70146E44083EBE1E90FA1E06F
:101E4000B0E0AC0FBD1FAE0FB11DFD014BE34083F1
:101E5000ECE1E90F66246394712C6C0E7D1E6E0E0E
:101E6000711CF3013083EDE1E90FEE24E394F12CD2
:101E7000EC0EFD1EEE0EF11CF70145E64083EEE18F
:101E8000E90FA1E0B0E0AC0FBD1FAE0FB11DFD0129
:101E900044E14083EFE1E90F66246394712C6C0EFA
:101EA0007D1E6E0E711CF3017083E0E2E90FEE24DB
:101EB000E394F12CEC0EFD1EEE0EF11CF70148E050
:101EC0004083E1E2E90FA1E0B0E0AC0FBD1FAE0F2F
:101ED000B11DFD016083E2E2E90F66246394712C79
:101EE0006C0E7D1E6E0E711CF3013083E3E2E90F70
:101EF000EE24E394F12CEC0EFD1EEE0EF11CF70126
:101F00008083E5E2E90F84E2890FEE24E394F12C6B
:101F1000EC0EFD1EE80EF11CD701DC92222309F421
:101F200004C166246394712C6C0E7D1E6E0E711CB0
:101F3000F3015083E6E2E90FEE24E394F12CEC0E7A
:101F4000FD1EEE0EF11CF7013083E7E2E90FA1E080
:101F5000B0E0AC0FBD1FAE0FB11DFD019082E8E2F5
:101F6000E90F66246394712C6C0E7D1E6E0E711C3D
:101F7000F3011082E9E2E90FEE24E394F12CEC0E78
:101F8000FD1EEE0EF11CF70186E28083EAE2E90F06
:101F9000A1E0B0E0AC0FBD1FAE0FB11DFD018FEF92
:101FA0008083EBE2E90F66246394712C6C0E7D1E36
:101FB0006E0E711CF3011082ECE2E90FEE24E39443
:101FC000F12CEC0EFD1EEE0EF11CF7017083EDE21C
:101FD000E90FA1E0B0E0AC0FBD1FAE0FB11DFD01D8
:101FE0004083EEE2E90F66246394712C6C0E7D1E33
:101FF0006E0E711CF3016083EFE2E90FEE24E394AF
:10200000F12CEC0EFD1EEE0EF11CF7012083E0E337
:10201000E90F21E030E02C0F3D1F2E0F311DF9019B
:1020200081EA808382E3890FE1E3E90F61E070E0F8
:102030006C0F7D1F6E0F711DFB011082002391F04C
:10204000E1E0F0E0EC0FFD1FE80FF11D508384E3A9
:10205000890F9D5CE1E0F0E0EC0FFD1FE90FF11D41
:1020600090E39083BB20A1F0E1E0F0E0EC0FFD1FD6
:10207000E80FF11D99E09083E1E0E80FA1E0B0E006
:10208000AC0FBD1FAE0FB11DFD0191E390838E5FBC
:10209000CC20A9F0E1E0F0E0EC0FFD1FE80FF11D0E
:1020A00099E09083E1E0E80F66246394712C6C0E54
:1020B0007D1E6E0E711CF30192E390838E5FAA2049
:1020C000A9F0E1E0F0E0EC0FFD1FE80FF11D99E051
:1020D0009083E1E0E80FEE24E394F12CEC0EFD1E7A
:1020E000EE0EF11CF70195E390838E5FE1E0F0E0E6
:1020F000EC0FFD1FE80FF11D91E89083E1E0E80F80
:1021000021E030E02C0F3D1F2E0F311DF90192E030
:102110009083E3E0E80F8E5F61E070E06C0F7D1F5D
:10212000680F711D20ECDB012C93332009F4E8C00B
:1021300025E081E090E08C0F9D1F8E0F911DDC014A
:102140002C9381E08E0F66246394712C6C0E7D1E9F
:10215000680E711C22E0D3012C9382E08E0F66245E
:102160006394712C6C0E7D1E680E711C25E1D301E9
:102170002C9383E08E0F66246394712C6C0E7D1E6D
:10218000680E711CD3011C9284E08E0F6624639448
:10219000712C6C0E7D1E680E711C26E2D3012C93EF
:1021A00085E08E0F66246394712C6C0E7D1E680E84
:1021B000711C2FEFD3012C9386E08E0F662463945D
:1021C000712C6C0E7D1E680E711CD3011C9287E071
:1021D0008E0F66246394712C6C0E7D1E680E711C2C
:1021E00025E7D3012C9388E08E0F66246394712C2D
:1021F0006C0E7D1E680E711C28E0D3012C9389E0C3
:102200008E0F66246394712C6C0E7D1E680E711CFB
:1022100025E9D3012C938AE08E0F66246394712CF8
:102220006C0E7D1E680E711CD3013C92ABE0AE0FAC
:1022300066246394712C6C0E7D1E6A0E711CD30192
:1022400081EA8C934DE04E0F8CE08E0FEE24E394E8
:10225000F12CEC0EFD1EE80EF11CD7011C9288201B
:10226000A9F0A1E0B0E0AC0FBD1FA40FB11D89E043
:102270008C934FE04E0FE25F66246394712C6C0EDA
:102280007D1E6E0E711CF3018BEB8083EA967FAC92
:10229000EA977720A9F0E1E0F0E0EC0FFD1FE40FF2
:1022A000F11D89E08083E1E0E40FEE24E394F12C5A
:1022B000EC0EFD1EEE0EF11CF70185EC80834E5FE7
:1022C000E1E0F0E0EC0FFD1FE40FF11D81E88083F9
:1022D000E1E0E40F21E030E02C0F3D1F2E0F311D17
:1022E000F90182E08083E3E0E40FA2E0A40F61E063
:1022F00070E06C0F7D1F6A0F711DDB0180EC8C9309
:10230000A1E0B0E0AC0FBD1FAE0FB11D80EC8C930F
:10231000EF5FEE2EF12CC7010E94D02F6C01A701B8
:10232000BE016F5F7F4F0E94FA3087E090E00E940D
:10233000D02FDC0111961C921E921396DC92CE9245
:1023400012971596FC92EE92149716961C92169779
:10235000E12FF0E0EE0FFF1FED51FB4F4081518167
:10236000FA0183859485009761F5B487A387FA0104
:102370008585968514962D913C91820F931F9687A3
:102380008587CC59DF4F0FB6F894DEBF0FBECDBFA7
:10239000DF91CF911F910F91FF90EF90DF90CF9041
:1023A000BF90AF909F908F907F906F905F904F9075
:1023B0003F902F9008958C5FF201848796E011CCB6
:1023C000C901FC012081318121153105C9F7B18393
:1023D000A083CDCF0E94F530CF93DF93FC01208501
:1023E000318580E0232B69F4EB0161897289CE018C
:1023F0000E940331FE0101900020E9F731978E2FF2
:102400008C1BDF91CF9108952F923F924F925F9254
:102410006F927F928F929F92AF92BF92CF92DF92F4
:10242000EF92FF920F931F93CF93DF93CDB7DEB759
:1024300069970FB6F894DEBF0FBECDBF0E94770339
:102440008090A6049090A704A090A804B090A9043E
:10245000AB01BC01481959096A097B098091340113
:1024600090913501B0E0A0E0481759076A077B0753
:1024700010F40C94501B8091D4049091D5048230B8
:10248000910511F40C94941B30F4019709F4F5C0F4
:1024900010E00C943C1B8330910511F40C94271F21
:1024A0000497B1F7FE0131965F018CE0DF011D92C8
:1024B0008A95E9F780911501882381F01092150122
:1024C00080913601833050F045E06EE186E896E079
:1024D0000E949B0A8BE691E00E94E00BE8E6F5E0A3
:1024E0008085918595878487828593859787868760
:1024F0003896B5E0E039FB0799F720916E05109208
:102500006E0510926F05469A5C9A83E090E0019701
:10251000F1F799B18CB133B143B186FB882780F9CB
:10252000880F880F991F9927991F990F990F990F55
:10253000890F45FB992790F9890F32953170330F38
:10254000380F09F06BC081E080936E0580917005B3
:1025500090917105009719F0A1E0039709F4A2E0AA
:10256000B0E043E050E05C98CA010197F1F799B1FF
:102570008CB163B173B186FB882780F9880F880F0F
:10258000991F9927991F990F990F990F890F75FB1B
:10259000992790F9890F62956170660F680F4698C8
:1025A000CA010197F1F7E9B19CB173B1F3B196FBA0
:1025B000882780F9880F880F9E2F991F9927991FC8
:1025C000990F990F990F890FF5FB992790F9890FAA
:1025D00074FB992790F9990F890F0091720510915A
:1025E0007305E82FF0E061110C941D21107FFE2F80
:1025F000EE27E00FF11FF0937305E0937205B1E051
:102600003F5FA3130C94122183E090E0B11102C04C
:1026100082E090E0909371058093700546985C98F5
:1026200083E290E00197F1F780916E0530E04FEF83
:102630005FEF831711F40C942F21E32F363008F04D
:10264000E5E0F0E0DF0113E0AA0FBB1F1A95E1F708
:10265000A059BA4F03E0EE0FFF1F0A95E1F7E859C2
:10266000FA4F0D90BC91A02D64857585A617B7070C
:1026700011F0538742873F5FDCCF9E012F5F3F4FB2
:1026800029018CE0D9011D928A95E9F780912F01EB
:10269000882381F010922F0180913601833050F011
:1026A00045E06EE186E896E00E949B0A8CE991E0A5
:1026B0000E94E00B8CE296E00E94EC098BE396E02E
:1026C0000E94EC098AE496E00E94EC0989E596E014
:1026D0000E94EC0988E696E00E94EC0987E796E004
:1026E0000E94EC09B0912806BF871092280610922C
:1026F00029065C9AEBE0CE2ED12CC6010197F1F7AA
:1027000080912A0690912B060E942F07182F5C9823
:10271000C6010197F1F780912A0690912B060E943D
:102720002F07912F977020912A0630912B06412F69
:102730004F70943009F0C2C02130310541F021E0E2
:1027400030E030932B0620932A063F9A479AE09177
:10275000280691E09E0F90932806E73008F0E6E007
:102760002FE0E29FF0011124EF5DF94F9FE4938782
:10277000248535853F7050E0542F44275295507F73
:10278000240F351F207F8F70280F311D3587248738
:102790005C9A47982BE030E0C9010197F1F759B1F5
:1027A0009CB143B163B196FB882780F9880F880FED
:1027B000952F991F9927991F990F990F990F890F95
:1027C00065FB992790F9890F44FB992790F9990F98
:1027D000890F40E1849FC0011124448555854F70C5
:1027E000840F951F958784875C984798C901019746
:1027F000F1F739B19CB123B143B196FB882780F939
:10280000880F880F932F991F9927991F990F990F58
:10281000990F890F45FB992790F9890F24FB992778
:1028200090F9990F890F90E0982F88272485358596
:10283000307F820F931F958784875C9A80912A0648
:1028400090912B06019709F4479A83E290E0019753
:10285000F1F77091280620E03FE04FEF5FEF60E86E
:10286000721709F434C2822F273008F086E090E016
:10287000389FD001399FB00D1124AF5DB94F1B9621
:10288000FC911B975296EC915297FE17A9F01D965A
:102890005C934E931C971E966C931E970196389FDF
:1028A000F001399FF00D1124EF5DF94F60835096D0
:1028B0001C92509751961C922F5FD2CF413009F055
:1028C00046C1982F9F70913009F041C121303105E8
:1028D00041F081E090E090932B0680932A063F9A86
:1028E000479A70E061E02BE030E04798572F562779
:1028F00080ED97E046B146FB442740F954130C9411
:10290000BE23F9013197F1F70197A1F796CF59B19D
:102910009CB143B1E3B196FB882780F9880F880FFB
:10292000952F991F9927991F990F990F990F890F23
:10293000E5FB992790F9890F44FB992790F9990FA6
:10294000890F713011F00C94DD2354E0F51203C0AF
:10295000813009F472CF682F660F688BF11022C0A6
:10296000823039F190E080E051E06BE070E0B889AE
:10297000B91709F462CF882309F492C0479A8527D2
:10298000A82FA17020ED37E046B146FB442740F95F
:10299000FB01A4130C94E1233197F1F72150310985
:1029A00099F74BCF71E0F7126DC0863011F083308C
:1029B000C9F60091280691E0900F90932806073001
:1029C00008F006E0202F30E09FE0099F80011124ED
:1029D000F801E45DF94FFB8BEA8BA801FEE04F5D47
:1029E000594FFF125FC0815090EE8927DA011B9684
:1029F0008C9310E000E0312C9BE0C92ED12C43E0F9
:102A0000A42EB12C8FE0829F7001839FF00C1124C3
:102A1000A7014F5D594F7A01BA016F5E7F4F7D8BE1
:102A20006C8BDA015096BF8BAE8B2F5F3F4F829F2E
:102A3000A001839F500D1124FA01EF5DF94FF98F2A
:102A4000E88F4701FEE08F0E911C2CE0E20EF11C96
:102A50003889311709F4F1CE002361F1479A81E0FA
:102A60000827302F317080ED97E026B126FB222712
:102A700020F932130C94E623F6013197F1F7019710
:102A8000A1F7DBCE9EE0F91204C0833008F491CFA9
:102A900069CFAFE0FA1266CF8F3009F063CFCDCEA9
:102AA00047986DCFB0E1FB9EB00111248627FA0153
:102AB00083879FCF4798D3CF133089F4D7012D91C7
:102AC0003C9111973F70487050E0542F4427529525
:102AD000507F420F531F4D935C930C940A24143083
:102AE00099F1153049F4B0E13B9EC0011124482B07
:102AF000F40140830C940A24163031F1173051F45C
:102B0000F0E13F9EC0011124482BA88DB98D4C9354
:102B10000C940A241830C1F0193041F4B0E13B9E06
:102B2000C0011124482BEE89FF89E3CF1A3061F0F0
:102B30001B3011F00C940A24F0E13F9EC0011124D7
:102B4000482BAC89BD89E3CF342E0C940A24982FEE
:102B50009C7009F0A0C0232B39F010922B06109224
:102B60002A063F984798479A2091280691E0920FAD
:102B700090932806273008F026E0E22EF12CBFE0E3
:102B80002B9FF0011124EF5DF94F90EE9387612F99
:102B900070E01C7009F451CE24853585207F420FEA
:102BA000532F511D4F7014E0759567951A95E1F7F5
:102BB00086958695862B20E18202C0011124840F20
:102BC000951F9587848784E091E04BE050E021E0F9
:102BD000992309F45EC05C9AFA013197F1F79227C4
:102BE0008150B1F780912A0690912B060E942F0701
:102BF0009FE09E9DF0019F9DF00D1124EF5DF94F28
:102C0000918D992321F021EE23879150918F8F7020
:102C100009F013CE8FE08E9D80018F9D100D112441
:102C20000F5D194F84E6D80159968C935C9AFBE0AE
:102C3000CF2ED12CC6010197F1F780912A069091F1
:102C40002B060E942F07F82E5C98C6010197F1F71A
:102C500080912A0690912B060E942F0791EEF80191
:102C6000938724853585307F4F2D4F7050E0542F4A
:102C70004427240F351F3F70880F880F880F90E07E
:102C8000982F88279295907F280F391F35872487A2
:102C9000D4CD5C98A1CF433081F48F708F3069F42C
:102CA0002130310509F4C9CD81E090E090932B06E5
:102CB00080932A063F9A479AC0CD232B09F4BDCDB5
:102CC00010922B0610922A063F984798F4CFFF8562
:102CD0002F1780F56FE07FEF4FEF5FEF30E8822F27
:102CE000273008F086E090E0689FD001699FB00D22
:102CF0001124AF5DB94F1B967C931B9759961C927C
:102D000059971D965C934E931C971E963C931E9765
:102D10000196689FF001699FF00D1124EF5DF94F56
:102D2000308350961C92509751961C922F5F8F853E
:102D30008213D5CF87EC95E00E94EC0986ED95E0F3
:102D40000E94EC0985EE95E00E94EC0984EF95E085
:102D50000E94EC0983E096E00E94EC0982E196E093
:102D60000E94EC099091C3059F871092C3051092B1
:102D7000C4052A9AEBE0EE2EF12CC7010197F1F77A
:102D80008091C5059091C6050E940F07182F2A98BB
:102D9000C7010197F1F78091C5059091C6050E9482
:102DA0000F07412F47702091C5053091C605912F1F
:102DB0009F70443009F0C0C02130310541F021E05E
:102DC00030E03093C6052093C505269A2E9AE091EF
:102DD000C30521E02E0F2093C305E73008F0E6E09D
:102DE000AFE0EA9FF0011124E454FA4F2FE4238767
:102DF000248535853F70492F50E0542F4427529544
:102E0000507F240F351F207F8F70280F311D35878D
:102E100024872A9A2E982BE030E0C9010197F1F718
:102E200083B14FB19FB15FB186958170880F880FD4
:102E3000880F441F4427441F440F440F840F55FB41
:102E4000442740F9840F96FB992790F9990F890F31
:102E5000B0E18B9FC0011124448555854F70840FCC
:102E6000951F958784872A982E98C9010197F1F7B5
:102E700083B12FB19FB13FB186958170880F880FC4
:102E8000880F221F2227221F220F220F820F35FBBD
:102E9000222720F9820F96FB992790F9990F890F25
:102EA00090E0982F882724853585307F820F931FE7
:102EB000958784872A9A8091C5059091C6050197C8
:102EC00009F42E9A83E290E00197F1F76091C3052F
:102ED000F12C2FE04FEF5FEF30E86F1509F42FC2B0
:102EE0008F2DF6E0FF1508F486E090E0289FD001D2
:102EF000299FB00D1124A454BA4F1B96EC911B9737
:102F000052967C915297E717A9F01D965C934E93C9
:102F10001C971E963C931E970196289FF001299FAF
:102F2000F00D1124E454FA4F308350961C925097C0
:102F300051961C92F394D1CF913009F041C1482FA2
:102F40004F70413009F03CC12130310541F081E042
:102F500090E09093C6058093C505269A2E9A70E05E
:102F600051E02BE030E02E98672F652780ED97E049
:102F700043B143FB442740F964130C940D24F90139
:102F80003197F1F70197A1F795CF83B14FB19FB179
:102F90006FB186958170880F880F880F441F442772
:102FA000441F440F440F840F65FB442740F9840FEE
:102FB00096FB992790F9990F890F713011F00C94B5
:102FC0002C24E4E07E1203C0813009F473CF282E54
:102FD000220C711021C0823031F190E080E051E08C
:102FE0006BE070E0291609F465CF882309F491C0DD
:102FF0002E9A8527A82FA17020ED37E043B143FB1F
:10300000442740F9FB01A4130C9430243197F1F7C5
:103010002150310999F74ECFF1E07F126CC0863014
:1030200011F08330D1F60091C30591E0900F909399
:10303000C305073008F006E0202F30E09FE0099F2D
:1030400080011124A80149535A4F598B488BA8017C
:103050006EE044545A4F76125EC0815090EE89273C
:10306000DA011B968C9310E0312C612C8BE0C82E7A
:10307000D12C93E0A92EB12C8FE0829F7001839F09
:10308000F00C1124A70144545A4F7A01BA016F5E23
:103090007F4F7B8B6A8BDA015096BD8BAC8B2F5F99
:1030A0003F4F829FA001839F500D1124FA01E454E9
:1030B000FA4FFF8BEE8B4701FEE08F0E911C2CE048
:1030C000E20EF11C211609F4F5CE332061F12E9A9F
:1030D00081E03826332D317080ED97E023B123FB5A
:1030E000222720F932130C943524F6013197F1F799
:1030F0000197A1F7DFCE2EE0721204C0833008F4EE
:1031000092CF6BCF3FE0731268CF8F3009F065CF5D
:10311000D1CE2E986ECFB0E17B9EB00111248627D0
:10312000FA018387A0CF2E98D3CF133089F4D7012B
:103130002D913C9111973F70487050E0542F4427D7
:103140005295507F420F531F4D935C930C9459241A
:10315000143099F1153049F4B0E16B9EC00111248F
:10316000482BF40140830C945924163031F1173068
:1031700051F4F0E16F9EC0011124482BAE89BF8944
:103180004C930C9459241830C1F0193041F4B0E13B
:103190006B9EC0011124482BEC89FD89E3CF1A30C6
:1031A00061F01B3011F00C945924F0E16F9EC001C6
:1031B0001124482BAA89BB89E3CF642E0C9459248F
:1031C000482F4C7009F09FC0232B39F01092C60590
:1031D0001092C50526982E982E9A4091C30521E09D
:1031E000240F2093C305473008F046E0E42EF12C6D
:1031F000BFE04B9FF0011124E454FA4F20EE2387E7
:10320000412F50E01C7009F455CE24853585207F70
:10321000290F311D2F70A4E055954795AA95E1F728
:1032200086958695842B40E18402C0011124820F8B
:10323000931F9587848784E091E04BE050E021E084
:10324000992309F45EC02A9AFA013197F1F792277F
:103250008150B1F78091C5059091C6050E940F0776
:103260009FE09E9DF0019F9DF00D1124E454FA4FC4
:10327000918D992321F021EE23879150918F8F70AA
:1032800009F018CE8FE08E9D80018F9D100D1124C6
:1032900004541A4F84E6D80159968C932A9A5BE01D
:1032A000C52ED12CC6010197F1F78091C5059091EB
:1032B000C6050E940F07F82E2A98C6010197F1F75C
:1032C0008091C5059091C6050E940F0791EEF80107
:1032D000938724853585307F4F2D4F7050E0542FD4
:1032E0004427240F351F3F70880F880F880F90E008
:1032F000982F88279295907F280F391F358724872C
:10330000D9CD2A98A1CF933081F48F708F3069F492
:103310002130310509F4CECD81E090E09093C605CF
:103320008093C505269A2E9AC5CD232B09F4C2CDCC
:103330001092C6051092C50526982E98F4CF2F85B9
:10334000F21688F52F2D6FE07FEF4FEF5FEF30E83B
:10335000822F273008F086E090E0689FD001699FB7
:10336000B00D1124A454BA4F1B967C931B97599609
:103370001C9259971D965C934E931C971E963C93F6
:103380001E970196689FF001699FF00D1124E45487
:10339000FA4F308350961C92509751961C922F5F93
:1033A0008F858213D5CFC09028069C2C9F0C38ECBB
:1033B000232E34E0332ED12C10E04FE0842E2091C8
:1033C00036019D1409F4E6C0D21609F4E3C0EE24D8
:1033D000E394DC1408F4E12C8D2DDC14E0F496E089
:1033E0009D1508F486E0889DC0011124DC01A45DD0
:1033F000B94F3D012230E1F4CC2009F44FC08C914B
:103400000E94AF27EE2DF0E0EE0FFF1FE40DF51D3B
:10341000918380830DC08C19873008F086E0889DE9
:10342000C0011124FC01E953FA4F3F012230B1F1F0
:10343000D3019C9117968C911797981334C01196CD
:103440002D913C91129718968D919C911997281760
:103450003907C1F513969C9113971A968C911A9778
:10346000981330C014969C9114971B968C911B97BF
:10347000981328C015969C9115971C968C911C97B3
:10348000981320C016969C9116971D968C919813B0
:1034900019C0D394F2E02F0E311C91CFF30180813B
:1034A000FF2031F2ADCF8D2D0E948B078091360128
:1034B000823041F4F30180810E94AF27BC018E2D40
:1034C0000E94852AD30111968D919C91B82FBF70CF
:1034D000BF8702E010E086FF02C010E000E084FF3A
:1034E000046085FF006292FF016091FF086090FF19
:1034F000006187FF1260F101A080B180D3012C919F
:10350000207F203109F040C013968C911397F5016C
:10351000878314968C911497808715968C911597B4
:10352000818716968C91169782878C910E94AF277F
:10353000069719F4FF85FC60FF87D50113960C935D
:10354000139714961C93149715961C92BF85EB2F16
:10355000F0E0E050FC4F8081F5018683C5010E94B8
:10356000F50C80913601823069F4EE2DF0E0EE0F1B
:10357000FF1FE40DF51D6081718120E0A3018E2DF8
:103580000E94202A11E085CF93FF006897FDD5CFD8
:103590000064D3CFE980FA80223079F4809123014E
:1035A000909124018E159F0541F0E114F10429F456
:1035B00070E060E080E00E94852AF0922401E092B1
:1035C0002301EB80FC8080913601823079F4809178
:1035D0002501909126018E159F0541F0E114F1041B
:1035E00029F470E060E081E00E94852AF0922601D3
:1035F000E09225018091A5049816C0F4092D8091D0
:10360000A504081798F480913601081779F0802FE7
:103610000E948B07E02FF0E0EE0FFF1FE853FB4FF7
:10362000808191810E94F50C0F5FE9CF9092A504F3
:1036300080912906843049F09091C405943029F096
:10364000890F51F482E390E002C080ED97E09093FF
:1036500035018093340110C0892D90E0019644EF2C
:1036600051E0849F9001859F300D949F300D11246F
:1036700030933501209334010E9477036093A604B0
:103680007093A7048093A8049093A904112341F098
:103690008091080181110C94562381E00E94E10C75
:1036A000809108018823B1F00E94CE0300919A0412
:1036B00010919B0420919C0430919D04601B710B20
:1036C000820B930B603C744D8140910518F080E0B3
:1036D0000E94E10C4E9B02C00C945C246CE271E0F1
:1036E00080E090E00E949C038091080181110C947D
:1036F000622381E069960FB6F894DEBF0FBECDBF9E
:10370000DF91CF911F910F91FF90EF90DF90CF90BD
:10371000BF90AF909F908F907F906F905F904F90F1
:103720003F902F900C94E10C9E012F5F3F4F3E87FE
:103730002D878CE0D9011D928A95E9F780912201AD
:10374000882381F01092220180913601833050F05D
:1037500045E064E286E896E00E949B0A85E891E0F5
:103760000E94E00B8091B2058093B7058091B3056C
:103770009091B4059093B9058093B8058091B505F3
:103780009091B6059093BB058093BA05A091B005C2
:103790001092B0052C9A8BE290E00197F1F72C98EB
:1037A00083E190E00197F1F750E040E030E020E065
:1037B00063E170E08CB186FB002700F910E0C801DE
:1037C000042E02C0880F991F0A94E2F7282B392B88
:1037D0002D98CB010197F1F72D9ACB010197F1F7C5
:1037E0004F5F5F4F4031510529F7832F82958F70CE
:1037F00090E18D3009F091E070E060E050E040E051
:1038000003E110E0ECB1E6FBCC24C0F8D12CF601CA
:10381000062E02C0EE0FFF1F0A94E2F74E2B5F2B1D
:103820002D98F8013197F1F72D9AF8013197F1F7BA
:103830006F5F7F4F691730F3982F909520953095E3
:10384000409550958F3021F44E3FBFEF5B07E1F17B
:10385000E091B00561E06E0F6093B00561E070E04B
:10386000E11102C070E060E0811113C0E32FFF2777
:10387000EF70FF273F9769F48AE0869FF001879FEA
:10388000F00D1124E355FA4F8FE08583518740876F
:1038900011C092FFD4C08AE0869FF001879FF00D8F
:1038A0001124E355FA4F84E085839370892F90E0CB
:1038B000918780878AE0869FF001879FF00D112411
:1038C000E355FA4F378326838091B0058A17B8F401
:1038D0004AE09FEF21E030E0811102C030E020E0BB
:1038E000429FF001439FF00D1124E355FA4F958359
:1038F00017821682118610868F5FA813EBCF8091F6
:10390000A3058093A8058091A4059091A5059093A7
:10391000AA058093A9058091A6059091A70590938B
:10392000AC058093AB056091A1051092A1058E9A1C
:103930008BE290E00197F1F78E9883E190E0019798
:10394000F1F730E020E050E040E0E3E1F0E08FB15B
:10395000082E000C990B8827990F881F9927022E93
:1039600002C0880F991F0A94E2F7482B592B8D98B3
:10397000CF010197F1F78D9ACF010197F1F72F5FF2
:103980003F4F2031310519F7852F82958F7090E1D7
:103990008D3009F091E0B0E0A0E0F12CE12C03E1E2
:1039A00010E02FB1022E000C330B2227330F221F01
:1039B00033270A2E02C0220F331F0A94E2F7E22AAD
:1039C000F32A8D98F8013197F1F78D9AF801319724
:1039D000F1F71196A91728F3982F909540955095D7
:1039E000F701E095F0958F3029F4EE3F2FEFF207C5
:1039F00009F44BC07091A10521E0270F2093A10588
:103A000021E030E0711102C030E020E0811122C0DD
:103A1000A52FBB27AF70BB271F97E1F48AE0829FD9
:103A2000D001839FB00D1124A256BA4F8FE0159696
:103A30008C9315971996FC93EE9318971CC09AE0F7
:103A4000969FF001979FF00D1124E355FA4F9FE0E8
:103A500089271BCF92FF76C08AE0829FF001839F67
:103A6000F00D1124E256FA4F84E085839370892F7C
:103A700090E0918780878AE0829FF001839FF00D1C
:103A80001124E256FA4F578346833091A1053A8BB1
:103A90003617C0F4832F4AE09FEF21E030E0811118
:103AA00002C030E020E0429FF001439FF00D11245E
:103AB000E256FA4F958317821682118610868F5F21
:103AC0006813EBCF9090B0054A89490D488B68EC9C
:103AD00074E07D8B6C8BD12C10E08091360178895D
:103AE0007D1509F463C1D81609F460C1BB24B394F1
:103AF000D91408F4B12C21E030E0D91470F5D110BC
:103B000002C030E020E09AE0929FA001939F500D08
:103B10001124DA01AE54BA4F3D01823079F5992073
:103B200009F4B3C0CD010E94C509EB2DF0E0EE0F02
:103B3000FF1F21E030E02C0F3D1FE20FF31F9183A8
:103B400080831CC09AE0929FD001939FB00D1124F6
:103B5000A256BA4F9FE089276ACFD91002C030E041
:103B600020E0BAE0B29FA001B39F500D1124FA01EA
:103B7000ED55FA4F3F01823009F487C0D3018C9193
:103B800015969C911597891323C011964D915C91C0
:103B9000129716962D913C9117974217530759F497
:103BA00013964D915C91149718962D913C91421764
:103BB000530709F462C0811119C0F3018381948114
:103BC0000196A1F4D30118968D919C91019671F004
:103BD0008D2D0E948B0780913601823039F4C3010C
:103BE0000E94C509BC018B2D0E948E29C3010E9431
:103BF000C5091C01F30181819281FC01E095F095DA
:103C000034E0F695E7953A95E1F71E2F1F709C0179
:103C100021703327AC015695479570E060E0417004
:103C2000552766277727F2E02F16310409F03FC0A9
:103C3000232B09F0426082FD516083FD5260EC89C4
:103C4000FD89A081B18113964C93139714965C93D0
:103C5000149715966C931597E12FF0E0E050FC4F08
:103C6000808116968C931697CD010E94F50C809159
:103C70003601823009F45BC011E0D3944C895D8930
:103C80004E5F5F4F5D8B4C8B28CF3A89332309F40D
:103C900075CFC3010E94C509EB2DF0E0EE0FFF1FA9
:103CA00041E050E04C0F5D1FE40FF51F48CF232B80
:103CB00009F0426090FD446091FD486092FD4061D2
:103CC00093FD406224E02216310421F5D3011396BE
:103CD0002D913C9134FD406435FD406820FD5460D9
:103CE00021FD586022FD506123FD506224FD506487
:103CF00025FD506826FD616027FD626030FD64602F
:103D000031FD686032FD606133FD606237FF93CF43
:103D1000606491CFB5E02B16310409F08CCFF3012C
:103D2000238120FD406421FF86CF406884CF90E846
:103D3000492E93E0592E1F868B2D90E0880F991FF6
:103D40009C0124583C4F3F8B2E8B32E023163104CC
:103D500041F44F85483008F5F201E05AFF4F4430F6
:103D600008F0F201E080F18002811381D301119605
:103D70008D919C918E219F21CC24C394892B09F491
:103D8000C12C1F928780A68024814581EE89FF89FE
:103D900060818B2D0E943F0C0F90FF85FF5FFF8796
:103DA00028E0420E511CFC3081F666CFE980FA8093
:103DB000823079F48091160190911701E816F90686
:103DC00041F0E114F10429F470E060E080E00E9429
:103DD0008E29F0921701E0921601EB80FC80809111
:103DE0003601823079F480911801909119018E1575
:103DF0009F0541F0E114F10429F470E060E081E0F6
:103E00000E948E29F0921901E09218018091A40479
:103E100058895817C0F4052F8091A404081798F406
:103E200080913601081779F0802F0E948B07E02FD0
:103E3000F0E0EE0FFF1FE853FB4F808191810E945D
:103E4000F50C0F5FE9CF68896093A40415CC10923C
:103E5000A3048091A10481115FC08091A20481110B
:103E60005BC08091C40481110DC080919805909130
:103E70009905DC01ED91FC910680F781E02D099513
:103E80008093C4048093A1048091C50481110DC066
:103E900080919A0590919B05DC01ED91FC91068043
:103EA000F781E02D09958093C5048093A20481E0F9
:103EB0000E94E10C07E027E04FE760E086E896E02B
:103EC0000E94FB0B67E086E896E00E94710A60E0C2
:103ED00086E896E00E947D0A8091A10481110BC0C2
:103EE0008091A204811103C080E891E002C085E7BF
:103EF00091E00E94E00B62E486E896E00E947D0A71
:103F00009091A1048091A204992361F1811104C0D0
:103F100085E791E00E94E00BB8E98B2EB5E09B2E7F
:103F20001FE9E12E14E0F12E01EAA02E04E0B02EEC
:103F300010E000E077247394F401819191914F0196
:103F40009093C7048093C604D7011D927D01F501AB
:103F500021915F0121110BC00130110541F101E0F8
:103F600010E0EACF8111D2CF80E891E0D3CF980161
:103F70002C533B4F6901D9012C9121113BC1DC012C
:103F8000ED91FC910680F781E02D0995882359F089
:103F9000F6017082E091C604F091C70466A177A192
:103FA000802F0E942B298091C3048823A9F2912C91
:103FB00010E0A0E8BA2E80913601981608F05CCB8C
:103FC000892D90E0FC01EC53FB4F2081222309F462
:103FD0000AC1FC01E156FB4FD080DD2009F403C18A
:103FE0000091A304880F991FFC01E856FA4F019035
:103FF000F081E02DF093C704E093C6048091C204E1
:104000008111F1C08091C3048111EDC03324339438
:1040100022A133A184A195A12817390709F4312CD5
:1040200046A057A0602E712C660C771CF301EA564F
:10403000FB4F808191814816590621F0B201802FF3
:104040000E942B29E1E0F0E0EC0FFD1FE60DF71DCB
:1040500051824082C2010197059708F0B6C0E091F5
:10406000C604F091C704F98BE88B84A195A18095D3
:1040700090959C0174E0369527957A95E1F7F1E0EB
:104080002F27217086FF226087FF246085FF28602C
:104090008091C004882311F0282B2F708091A304F5
:1040A00090E0FC01EE0FFF1FE853FB4F0190F08101
:1040B000E02D30E020503C4FD9012C912683A88977
:1040C000B98994964D915C9140955095252F221F6A
:1040D0002227221F30E056FD226055FD246054FD4A
:1040E000286052FD206153FD206250FD206451FD87
:1040F000206840FD316043FD326041FD346042FD87
:104100003860A889B9899896CC9098979996EC9040
:1041100099979C964C91442309F478C0B5E04B16CE
:10412000510409F473C0C782E086BC016A5F7E4F08
:10413000DB01FC90AC014C5F5E4FFC106EC0DA01FD
:10414000FC90FE106AC0F32CDB01CC92DA01EC92F9
:10415000A889B9899A965C919A979B964C919B975E
:104160009C966C91662329F0B5E04B16510409F03A
:1041700056C0B186B28640E850E8BC016E5F7E4F03
:10418000798B688BDB016C9180509F4F651305C064
:10419000DC016C91641301C0DF2CA889B9895C93A0
:1041A000DC014C93238334831582DD2071F0CF0131
:1041B0000E94F50C023048F44091C6045091C704A7
:1041C00020E0B201802F0E947228D301AA56BB4F73
:1041D000E1E0F0E0EC0FFD1FE60DF71D808191811D
:1041E0008D939C9313298091A3048F5F8093A304E4
:1041F0009394E1CE0E944608F701319780838111A4
:10420000D2CED6011C9270E060E0CACEB782B086F2
:1042100040E8E42E50E8C52E88CFFD2C95CF51877D
:104220004287ABCF313011F00C94B312469A5C9AAE
:10423000CA010197F1F70C94B312007F600F712F40
:10424000711D6F7084E0EE0FFF1F8A95E1F76E0F0E
:104250007F1F70937305609372050C9400133217DF
:10426000F0F44FEF5FEF832F363008F085E090E0F9
:10427000FC0173E0EE0FFF1F7A95E1F7E059FA4F6A
:1042800011821082E3E0880F991FEA95E1F7FC01A3
:10429000E859FA4F538742873F5F2313E4CFE8E39F
:1042A000F5E080E695E020853185358724872285F5
:1042B00033853787268738968E179F07A1F7209179
:1042C0003E0510923E0510923F052B9A2A9A83E0F4
:1042D00090E00197F1F783B13FB19FB14FB186955F
:1042E0008170880F880F880F331F3327331F330FD8
:1042F000330F830F45FB332730F9830F96FB992744
:1043000090F9990F980F09F069C081E080933E05FC
:1043100040914005509141054115510521F031E092
:104320004330510509F432E0A0E043E050E02A9820
:10433000FA013197F1F783B17FB16FB1EFB1869593
:104340008170880F880F880F771F7727771F770F67
:10435000770F870FE5FB772770F9870F66FB6627D6
:1043600060F9660F680F2B98FA013197F1F783B166
:10437000EFB17FB1FFB186958170880F880F880FEC
:10438000EE1FEE27EE1FEE0FEE0F8E0FF5FBEE2762
:10439000E0F98E0F76FB772770F9770F870F009182
:1043A000420510914305E82FF0E061114EC0107FE7
:1043B000FE2FEE27E00FF11FF0934305E093420537
:1043C000A1E09F5F391338C083E090E0A11102C0E3
:1043D00082E090E090934105809340052B982A98C5
:1043E00083E290E00197F1F780913E05912C4FEF29
:1043F0005FEF8915D9F1E92DF5E0F91508F4E5E04D
:10440000F0E0DF0113E0AA0FBB1F1A95E1F7A05CF3
:10441000BA4F03E0EE0FFF1F0A95E1F7E85CFA4F91
:104420000D90BC91A02D64857585A617B70711F076
:10443000538742879394DDCF913009F078CF2B9A40
:104440002A9AFA013197F1F772CF007F600F712F2E
:10445000711D6F7084E0EE0FFF1F8A95E1F76E0FFC
:104460007F1F7093430560934205ABCF9216F8F41B
:10447000392D4FEF5FEF832F363008F085E090E065
:10448000FC0163E0EE0FFF1F6A95E1F7E05CFA4F75
:104490001182108273E0880F991F7A95E1F7FC0171
:1044A000E85CFA4F538742873F5F2313E4CF809045
:1044B0006E05682C690C28ECC22E24E0D22E00E098
:1044C00010E020913601601609F4A0C0021709F42B
:1044D0009DC077247394081508F4712C802F08155B
:1044E000D8F4063008F085E038E0839FC00111243D
:1044F000AC0140595A4F7A012230F1F48820E1F0A2
:10450000E72DF0E0EE0FFF1FEA0DFB1DD7018D91A7
:104510009C919183808310C08819863008F085E0D3
:1045200058E0859FC0011124BC01605C7A4F7B017B
:10453000223011F49110E4CFF70120813181848180
:1045400095812817390761F422813381868197810B
:104550002817390791F40F5FB2E0CB0ED11CB1CF11
:10456000802F0E948B0780913601823031F4D70171
:104570006D917C91872D0E942A28F7018281938179
:1045800024E030E085FF02C030E020E084FF2062BC
:1045900086FF316087FF3260D7014D915C914330D7
:1045A000510541F490FF226091FF216092FF286045
:1045B00093FF2061F601A081B18113962C9313978C
:1045C00014963C93149715961C921597E82FE1705A
:1045D00082FDE26083FDE46081FDE860F0E0E05090
:1045E000FC4F808116968C931697CD010E94F50C96
:1045F00080913601823041F4D7016D917C9120E0A9
:10460000A701872D0E94CD2711E0A5CFE980FA8070
:10461000223079F48091090190910A018E159F054D
:1046200041F0E114F10429F470E060E080E00E94C0
:104630002A28F0920A01E0920901EB80FC80809127
:104640003601823079F480910B0190910C018E1526
:104650009F0541F0E114F10429F470E060E081E08D
:104660000E942A28F0920C01E0920B0180919E0496
:104670006816C0F4062D80919E04081798F4809166
:104680003601081779F0802F0E948B07E02FF0E0A9
:10469000EE0FFF1FE853FB4F808191810E94F50CC4
:1046A0000F5FE9CF60929E040C943C1B0E94CE03E6
:1046B00060939A0470939B0480939C0490939D0450
:1046C0000C94501BE090D404F090D5040E947B071A
:1046D0000E94A50C10E000E062E070E080E090E055
:1046E0000E949C034E990CC06CE271E080E090E067
:1046F0000E949C030E947B070E94A50C10E000E032
:104700000F5F1F4F003DF7E01F0731F76091D404A2
:104710007091D5046E157F05D1F469960FB6F894A3
:10472000DEBF0FBECDBFDF91CF911F910F91FF90E4
:10473000EF90DF90CF90BF90AF909F908F907F9041
:104740006F905F904F903F902F900C94A50C90E04D
:1047500080E00E94BC2F86E896E00E94300C8FE833
:1047600091E00E94E00B88E19EE00FB6F894A895D6
:10477000809360000FBE90936000FFCFC901019746
:10478000F1F771110C94871449B19CB183B153B105
:1047900096FBFF24F0F8FF0CFF0C942F991F99272C
:1047A000991F990F990F990FF90E55FB992790F9B9
:1047B000F90E82958170880FF80E71E0479A0C947B
:1047C00076143197F1F79F5F0C94B714C5010197E8
:1047D000F1F799B14CB183B123B146FB442740F9BD
:1047E000440F440F991F9927991F990F990F990FFB
:1047F000490F25FB992790F9490F82958170880F01
:10480000480F133010F00C945C15612F8A899B8936
:104810000E9494021F5F0C942815C9010197F1F7BB
:1048200071110C94C51773B09FB18FB14FB171FA6C
:10483000772470F8770C770C770C991F9927991FBC
:10484000990F990F790E45FB992790F9790E86FB00
:10485000882780F9880F780E71E02E9A0C94B4178F
:104860003197F1F79F5F0C94F217C5010197F1F7AB
:1048700043B19FB18FB12FB146954170440F440FA2
:10488000440F991F9927991F990F990F490F25FBDD
:10489000992790F9490F86FB882780F9880F480FE0
:1048A000133010F00C949518612F888999890E9413
:1048B00094021F5F0C94621869960FB6F894DEBFDD
:1048C0000FBECDBFDF91CF911F910F91FF90EF9061
:1048D000DF90CF90BF90AF909F908F907F906F9020
:1048E0005F904F903F902F9008951F920F920FB6B8
:1048F0000F9211242F933F938F939F93AF93BF9366
:104900008091D7049091D804A091D904B091DA0491
:104910003091D60423E0230F2D3758F50196A11DC1
:10492000B11D2093D6048093D7049093D804A0930C
:10493000D904B093DA048091DB049091DC04A09157
:10494000DD04B091DE040196A11DB11D8093DB044E
:104950009093DC04A093DD04B093DE04BF91AF918B
:104960009F918F913F912F910F900FBE0F901F90AD
:10497000189526E8230F0296A11DB11DD2CF1F92D4
:104980000F920FB60F9211248F939F938091E100A5
:104990009091E100937F9093E10083FF0FC010920C
:1049A000E90091E09093EB001092EC0092E3909379
:1049B000ED001092E00498E09093F00082FF22C096
:1049C00093E09093E9009091F200992319F09AE313
:1049D0009093E8009091BD04992341F09091BD041B
:1049E00091509093BD04911101C05D9A9091DF04A4
:1049F000992341F09091DF0491509093DF0491113D
:104A000001C0289A84FF18C08091E2008E7E8160E8
:104A10008093E2008091E1008F7E8093E10080919D
:104A2000BE048E7E80618093BE049F918F910F9013
:104A30000FBE0F901F90189580FFF7CF8091E20076
:104A40008E7E80618093E2008091E1008E7E809373
:104A5000E1008091BE048E7E8160E5CF1F920F92AF
:104A60000FB60F921124CF92DF92EF92FF920F9325
:104A70001F932F933F934F935F936F937F938F93E6
:104A80009F93AF93BF93EF93FF93CF93DF93CDB7F4
:104A9000DEB76C97DEBFCDBF1092E9008091E800D1
:104AA00083FF25C068E0CE0145960E94270582EF6E
:104AB0008093E8008D8987FF39C09091E80090FFCE
:104AC000FCCF982F907609F034C19E894F89588D7C
:104AD0002F89F88C911131C0803861F58091BF0425
:104AE0008093F1001092F1008EEF8093E8006C96B5
:104AF0000FB6F894DEBF0FBECDBFDF91CF91FF910F
:104B0000EF91BF91AF919F918F917F916F915F9145
:104B10004F913F912F911F910F91FF90EF90DF9058
:104B2000CF900F900FBE0F901F9018959EEF90930F
:104B3000E800C7CF1092F100D5CF913059F4811120
:104B4000D3CF4130510581F68091BF048D7F809392
:104B5000BF04CACF933049F48111C6CF413051050B
:104B600019F68091BF048260F2CF953041F48091B4
:104B7000E80080FFFCCF20682093E300B5CF96309B
:104B800009F0A9C00B8D1C8D22E01092E900109253
:104B9000BB041092BA04F2122EC01092B904109203
:104BA000B8040E9475051F8299E09983FA8291E00A
:104BB0009E8390EA98879AEF99872091BA04309162
:104BC000BB04275F3F4F3C832B838D831092E9000A
:104BD0001092BB041092BA041093B9040093B80465
:104BE00049E050E0BE016F5F7F4F80E00E943B04D0
:104BF0000E94750579CF1093B9040093B8040E9400
:104C00006105DC0112960D911C910115110509F445
:104C100051C1D801ED91FC910480F581E02DBE01D8
:104C20006B5E7F4FC8010995009709F03EC1F801FE
:104C300000851185EACFF3E0FF120EC08F8988232B
:104C400009F440C0823061F440E86CE085E392E012
:104C50000E940804811148CF81E28093EB0047CF86
:104C6000813029F440E867E08DE292E0F1CF8330B3
:104C700099F70E946105DC011296ED90FC908E017F
:104C80000F5F1F4F6801E114F10479F0D701ED9136
:104C9000FC910680F781E02DB801C7010995080F46
:104CA000111DF701E084F184EECFD8011C92F601CA
:104CB00001900020E9F73197BF016C197D0940E0B0
:104CC000C601C6CF67E172E0FB01449150E080E885
:104CD0000E943B0409CF973009F4BECF983021F4ED
:104CE00081E08093F10000CF993009F0FDCE837010
:104CF00009F0B2CFE0E4F1E081E031E096E3219108
:104D0000222371F08093E9003093EB00DF011197CB
:104D10002C912093EC009093ED008F5F873079F712
:104D20008EE78093EA001092EA008F898093E00476
:104D3000DBCE8B8D9C8D1092E9001092BB041092FB
:104D4000BA049093B9048093B804898D811192C0FC
:104D50008E899D89913A49F4813209F07DCF47E0EF
:104D600050E067E371E080E0B3CF913209F074CF97
:104D7000833269F48F89988DB0E0A0E08093300190
:104D800090933101A0933201B0933301ADCE8032C4
:104D900069F48091E80082FFFCCF67E087E391E04F
:104DA0000E9427058BEF8093E8009ECE823209F0A7
:104DB0009BCE8F8980933E01EEEFFFE78591949122
:104DC0008B3F9C4D51F1E0E0F8E0809137019091EC
:104DD0003801A0913901B0913A01803B9440A1057E
:104DE000B105F1F480913E0180FD1AC0EE3F8AE0EA
:104DF000F80789F587E797E79183808380916000C2
:104E00008093BC0488E19BE00FB6F894A89580934A
:104E100060000FBE9093600067CEEEEFFAE0D5CF52
:104E2000808191818737974709F05ECEA895809160
:104E300060008861809360008091BC048093600072
:104E4000EE3F2AE0F20789F08091FE0A9091FF0A76
:104E50009183808349CE808191818737980751F271
:104E60009093FF0A8093FE0AC5CF1092FF0A10921A
:104E7000FE0A3ACE0E946105DC0112960D911C914A
:104E80000115110509F4E8CED801ED91FC910190CE
:104E9000F081E02DBE016B5E7F4FC8010995811145
:104EA00023CEF80100851185EBCF181619060CF4F6
:104EB0001BCED2CEF1E0FF12BECE6BE172E004CF8A
:104EC0001F93CF93DF93EC0180E888A789A78AA777
:104ED0008BA71CA6FE01BD968CE0DF011D928A9572
:104EE000E9F71FA21EA21AAE1BAE1CAE1DAE15E046
:104EF000CE010E94460861E070E080E090E00E94F0
:104F00009C031150A9F7CE01DF91CF911F910C9412
:104F10004608CF93DF93EC01849A8C9A229A2A9ABE
:104F2000219A299A23982B982B9A0E94A605CE01A4
:104F3000DF91CF910C946027CF93DF93EC013E9AE1
:104F4000469A229A2A9A219A299A23982B982B9A40
:104F50000E94A605CE01DF91CF910C9460278F347B
:104F600089F0823079F0863181F0833181F0803EA2
:104F700081F0813E81F021E090E08F3F09F420E054
:104F8000822F089584E090E0089585E0FCCF86E0CC
:104F9000FACF82E0F8CF83E0F6CF2F923F924F9284
:104FA0005F926F927F928F929F92AF92BF92CF92B9
:104FB000DF92EF92FF920F931F93CF93DF93B82E60
:104FC0002B011A01922ECCE1D3E0D12C682E712C4A
:104FD000660C771CC30184589C4F3C0192E0491633
:104FE000510419F4E7E0ED15E8F0E880F9800A8152
:104FF0001B812C814D81AE808F8081E02114310492
:1050000049F0F101628173816E217F2181E0672B7C
:1050100009F080E09F92C82EF30160818B2D0E94E1
:105020003F0C0F90D3942896FCE0DF12D7CFDF918E
:10503000CF911F910F91FF90EF90DF90CF90BF9095
:10504000AF909F908F907F906F905F904F903F9028
:105050002F900895EF92FF920F93CF93DF93C82F75
:105060007B01E82FF0E0EE0FFF1FE458FC4FD081EA
:1050700007E023E041816D2F86E896E00E94FB0B5C
:1050800047E06D2F86E896E00E949B0A82E0E816D2
:10509000F10469F083E0E816F104D9F080E891E0CA
:1050A000DF91CF910F91FF90EF900C94E00B8BE389
:1050B00091E00E94E00BC23079F021E050E040E046
:1050C000B7018C2FDF91CF910F91FF90EF900C944F
:1050D000CD2785E391E0EDCFDF91CF910F91FF9048
:1050E000EF9008952F923F924F925F926F927F922E
:1050F0008F929F92AF92BF92CF92DF92EF92FF92E8
:105100000F931F93CF93DF9300D000D0CDB7DEB7BE
:10511000B82E1B012A01922E8091C0048E3009F412
:1051200063C084E492E09C838B83D12CFB01329793
:10513000FA83E9836B2C712C660C771CC3018458AD
:105140009C4F3C01E981FA81329770F08FEF8D0D11
:10515000823050F1F5E02F16310431F4DD2021F1D9
:1051600088EF8D0D823000F1EB81FC81E080F180D1
:105170000281138124814581A680878041145104D6
:1051800059F0F20184A195A1809590958E219F21DF
:10519000CC24C394892B09F4C12C9F92F301608124
:1051A0008B2D0E943F0C0F90D3948B819C8108968D
:1051B0009C838B8390E1D912C5CF0F900F900F90F5
:1051C0000F90DF91CF911F910F91FF90EF90DF90A3
:1051D000CF90BF90AF909F908F907F906F905F9097
:1051E0004F903F902F900895E4ECF2E0FA83E9832A
:1051F0008CE1682E83E0782EEB2DF0E0EE0FFF1FA0
:10520000E458FC4FD080E981FA81E080F18002818E
:10521000138124814581A68087804114510459F06F
:10522000F20184A195A1809590958E219F21CC2497
:10523000C394892B09F4C12C9F926D2D8B2D0E9454
:105240003F0C89819A8108969A8389830F9068160A
:105250007906C9F6B2CFFF920F931F93CF93DF93D6
:10526000182FEB01E82FF0E0EE0FFF1FE458FC4F82
:10527000F08007E023E041816F2D86E896E00E94F0
:10528000FB0B47E06F2D86E896E00E949B0AC43036
:10529000D105D9F188F4C130D10531F186E191E031
:1052A000C230D10589F080E891E0DF91CF911F9164
:1052B0000F91FF900C94E00BC530D105A9F083E06D
:1052C00091E0C630D10579F70E94E00B123000F56D
:1052D00021E050E040E0BE01812FDF91CF911F918E
:1052E0000F91FF900C9472288091C0048E3019F4B5
:1052F0008FE291E0E9CF8091C204811103C080E286
:1053000091E0E2CF88E291E0DFCF8AE091E0DCCF6C
:10531000DF91CF911F910F91FF9008955F926F924F
:105320007F928F929F92AF92BF92CF92DF92EF9235
:10533000FF920F931F93CF93DF93D82EEB01E82FAB
:10534000F0E0EE0FFF1FE458FC4F908007E023E0F1
:105350004181692D86E896E00E94FB0B47E0692DAC
:1053600086E896E00E949B0AC330D10509F462C02A
:10537000C0F48FEF90E0C230D105E1F080E891E019
:10538000DF91CF911F910F91FF90EF90DF90CF9021
:10539000BF90AF909F908F907F906F905F900C9494
:1053A000E00BC430D10509F448C081EF90E0C5306E
:1053B000D10521F70E94E00B82E0D81659F180E870
:1053C000682E83E0782EB12C55245394C230D10539
:1053D00049F487E08B15B8F083E0F301E05AFF4F02
:1053E0008B1508F4F301E080F180028113815F9254
:1053F0008780A680CC24C39424814581692D8D2D7E
:105400000E943F0C0F90B39488E0680E711C8CE0F2
:10541000B812DCCFDF91CF911F910F91FF90EF90E9
:10542000DF90CF90BF90AF909F908F907F906F90C4
:105430005F9008958AEF90E0BDCF86EF90E0BACFFD
:105440002F923F924F925F926F927F928F929F9294
:10545000AF92BF92CF92DF92EF92FF920F931F9382
:10546000CF93DF93B82E2B011A01922ECEECD1E010
:10547000D12C682E712C660C771CC30184589C4F6C
:105480003C0192E049165104B1F4E8E0DE121AC082
:10549000DF91CF911F910F91FF90EF90DF90CF9010
:1054A000BF90AF909F908F907F906F905F904F9044
:1054B0003F902F900895F3E04F16510419F48CE0BB
:1054C000D816E9F0E880F9800A811B812C814D8192
:1054D000AE808F8081E02114310449F0F1016181B7
:1054E00072816E217F2181E0672B09F080E09F921D
:1054F000C82EF30160818B2D0E943F0C0F90D39436
:105500002896FDE0DF12BDCFC3CFFF920F931F930C
:10551000CF93DF93182FEB01E82FF0E0EE0FFF1F82
:10552000E458FC4FF08007E023E041816F2D86E8CE
:1055300096E00E94FB0B47E06F2D86E896E00E9404
:105540009B0AC430D10569F188F4C230D10531F12C
:105550008DED90E0C330D10589F080E891E0DF91D6
:10556000CF911F910F91FF900C94E00BC530D105A6
:10557000D9F085EC90E0C630D10579F70E94E00BB8
:105580001230A9F021E050E040E0BE01812FDF9110
:10559000CF911F910F91FF900C94202A87EE90E0FD
:1055A000EDCF86ED90E0EACF8FEC90E0E7CFDF9192
:1055B000CF911F910F91FF900895DC0116961C92D8
:1055C000169717961C92179788E2ECE4F1E018966C
:1055D00001900D928A95E1F70895DC0117961C92CF
:1055E000179718961C9218971A961C921E92199744
:1055F0008AE5E4E7F1E01B9601900D928A95E1F7C8
:1056000008951F93CF93DF93E8EEF4E013821282A4
:1056100088EE93E0A0E0B0E084839583A683B7830F
:105620008CE294E0918380838FEF9FEF958784874E
:10563000E6E8F6E013821282128614861386158637
:1056400081E086878EE394E09183808381E296E017
:105650000E94ED2A8CEB95E00E94ED2AEDEAF5E040
:10566000138214828AE0E2EBF5E0DF01282F1D921D
:105670002A95E9F7EEE9F5E013821482E3EAF5E012
:10568000DF011D928A95E9F7ECE9F5E08EE780836A
:10569000118282E490E00E94D02F12E4FC01212FBD
:1056A00011922A95E9F728E534E0DC012D933C932B
:1056B000C8E9D5E09983888382E490E00E94D02FE6
:1056C000FC0111921A95E9F72CE434E0DC012D93EA
:1056D0003C939B838A8388E695E00E94DD2A88E3D9
:1056E00095E0DF91CF911F910C94DD2A789484B5D9
:1056F000826084BD84B5816084BD85B5826085BDCE
:1057000085B5816085BD80916E00816080936E005B
:10571000109281008091810082608093810080914D
:1057200081008160809381008091800081608093FE
:10573000800080919100826080939100809191001F
:1057400081608093910080919000816080939000AF
:105750008091C10084608093C1008091C10082600B
:105760008093C1008091C10081608093C1008091CD
:10577000C30081608093C3008091C00082608093E9
:10578000C0008091C20081608093C20080917A0045
:10579000846080937A0080917A00826080937A009E
:1057A00080917A00816080937A0080917A0080688D
:1057B00080937A001092E0041092BF041092BE040D
:1057C0008091D70081608093D70080EA8093D800D1
:1057D00089B5806189BD89B5826089BD09B400FE43
:1057E000FDCF61E070E080E090E00E949C0380913A
:1057F000D8008F7C80618093D8008091E000807F0A
:105800008093E0008091E1008E7E8093E1008DE046
:105810008093E200559A209A56985E9A90E080E034
:105820000E94B42F282F30E03093D5042093D40465
:10583000853030F081E090E09093D5048093D404DB
:105840008091D4049091D5048230910509F493C1DC
:1058500008F03AC0019709F4B3C0109297068CE3A0
:10586000809396061092B90084E48093BC008CE08B
:105870008093B80010928A0610928B06E4E3F4E05D
:1058800085919491782EE6E3F4E01491E7E3F4E057
:10589000E491E0938C06E8E3F4E0E491E0938D0674
:1058A000E9E3F4E0E491E0938E06C82FD92F8C2F22
:1058B0008719811708F091C2FE01649186E896E08D
:1058C0000E94690A2196F3CF8330910509F4B8C18B
:1058D000049709F0C2CF3E9A4698549A5C9825984E
:1058E0002D982D9A24982C982C9A6E987698769AC2
:1058F00057985F985F9A10926F05E8E6F5E08FEF92
:105900009FEF118610869387828715861486978766
:1059100086873896B5E0E039FB0799F7239A2B98EC
:10592000229A2A9885988D988D9A86988E988E9A24
:1059300087988F988F9A21982998299A10923F05D5
:10594000E8E3F5E020E635E08FEF9FEF1186108663
:1059500093878287158614869787868738962E17B1
:105960003F07A1F783E290E00197F1F780916F057F
:1059700081110DC282E080933601C0E0D0913601E2
:10598000CD1708F009C28EE090E00E94D02F3C01B4
:1059900043E04C0F1F92812CA12CC12CE12C00E084
:1059A0002D2F64E874E00E94140DEC2FF0E0EE0F50
:1059B000FF1FE853FB4F71826082CF5F0F90DECFF5
:1059C000549A5C9A25982D982D9A24982C982C9A64
:1059D0006E987698769A57985F985F9A3E98469810
:1059E000469A3F984798479A10922906CCE2D6E00B
:1059F0000FEFEE24EA94FE2C10E808831E86FA824C
:105A0000E9821B831C831D821E82CE010E94EC0949
:105A10002F9626E0C638D20781F7229A2A9A8598CF
:105A20008D988D9A86988E988E9A87988F988F9A4F
:105A300021982998299A23982B982B9A26982E9862
:105A40002E9A1092C405C7ECD5E0E1E26E2EE6E096
:105A50007E2E0FEFEE24EA94FE2C10E808831E86BB
:105A6000FA82E9821B831C831D821E82CE010E9462
:105A7000EC092F966C167D0689F783E290E001977A
:105A8000F1F780ED97E02BE030E03699E7C1F901BE
:105A90003197F1F70197C9F780912906811154C018
:105AA00082E080933601C0E011E0D0913601CD173D
:105AB00008F04CC08EE090E00E94D02F3C0143E003
:105AC0004C0F1F9388248394A12CC12CEE24E394C3
:105AD00001E02D2F60E674E00E94140DEC2FF0E041
