:100000000C9464020C948C020C948C020C948C0260
:100010000C948C020C948C020C948C020C948C0228
:100020000C948C020C948C020C947A130C94E913AB
:100030000C948C020C948C020C948C020C948C0208
:100040000C948C020C948C020C948C020C948C02F8
:100050000C948C020C948C020C948C020C94301333
:100060000C948C020C948C020C948C020C948C02D8
:100070000C948C020C948C020C948C020C948C02C8
:100080000C948C020C948C020C948C020C948C02B8
:100090000C948C020C948C020C948C020C948C02A8
:1000A0000C948C020C948C020C948C02AED580A81B
:1000B0003FD300408D142002A1C8DA12817FD9F10C
:1000C000DB40A4A6AF56424F59004E545400534E45
:1000D0004553004E4553004A4F47434F4E00464C50
:1000E00049474854535449434B004455414C5348A5
:1000F0004F434B004449474954414C004E45474308
:100100004F4E00504144004E4553202B20534E4546
:100110005300574949004E363400504C415953540E
:100120004154494F4E0052414E4745200053502004
:10013000535445502000464F524345200046414B02
:1001400045205350494E4E455200574845454C00B6
:10015000504144444C45005350494E4E4552004E88
:100160002F41005245424F4F54494E472E2E2E00EC
:100170004D554C54492D5441500000030C0F303361
:100180003C3FC0C3CCCFF0F3FCFF000000020009ED
:100190000F0000030401000C00000000000000003C
:1001A000000000000000000000080B000202020036
:1001B00000090400000102020000052400100105EE
:1001C000240101010424020605240600010705811B
:1001D0000310004009040100020A000000070502A4
:1001E00002400000070583024000000403090412D6
:1001F000010002EF020140412336800001010203A9
:100200000141726475696E6F204C4C430041726409
:1002100075696E6F204C656F6E6172646F00524538
:10022000464C455800000005072061000000000012
:1002300000005F000060707870606050485060039C
:10024000070F07030305090503081C3E7F7F081CF1
:1002500022417F7F7F3E1C087F41221C08082A1C08
:100260002A0808083E08080050300000080808085E
:1002700008006060000020100804023E5149453E1D
:1002800000427F400042615149462141454B3118AF
:1002900014127F1027454545393C4A4949300171C0
:1002A0000905033649494936064949291E003636AB
:1002B00000003C7E7E7E3C3C4242423C14141414BE
:1002C00014F0F0F0F0F0F0909090F0324979413E67
:1002D0007E1111117E7F494949363E414141227FBD
:1002E0004141221C7F494949417F090901013E41A1
:1002F0004151327F0808087F00417F410020404182
:100300003F017F081422417F404040407F020402A9
:100310007F7F0408107F3E4141413E7F0909090665
:100320003E4151215E7F091929464649494931011B
:10033000017F01013F4040403F1F2040201F7F20A0
:1003400018207F631408146303047804036151497F
:10035000454300007F4141020408102041417F00D5
:1003600000383C1E0F074040404040382412090727
:1003700020545454787F4844443838444444203806
:100380004444487F3854545418087E090102081424
:1003900054543C7F0804047800447D4000204044CD
:1003A0003D00007F10284400417F40007C04180479
:1003B000787C0804047838444444387C14141408C5
:1003C000081414187C7C080404084854545420046D
:1003D0003F4440203C4040207C1C2040201C3C40AE
:1003E00030403C44281028440C5050503C44645445
:1003F0004C44E0E0E0E0E000007F0000E0A0A0A0CE
:10040000E008082A1C08081C2A0808000609090632
:10041000AC00198040004E4F4E45004E4F542053C3
:100420005550504F525445440044524157534F4D3C
:1004300045005544524157005455524E5441424C88
:1004400045004452554D0047554954415200434CD4
:100450004153534943004E554E4348554B0000000D
:1004600000002300260029002C002F0000000000BF
:10047000250028002B002E00310000000000240081
:1004800027002A002D00300004040404040304059E
:100490000202020204030202020206060606060621
:1004A0000404020202040404080201104080401007
:1004B000204080408008020401804020100201108A
:1004C000801020404020A22E11241FBECFEFDAE082
:1004D000DEBFCDBF14E0A0E0B1E0E8E7FCE602C07B
:1004E00005900D92A233B107D9F725E0A2E3B4E05D
:1004F00001C01D92A03AB207E1F712E0C4E6D2E0D3
:1005000004C02197FE010E94E634C336D107C9F723
:100510000E94412F0C943A360C940000FC01A385F4
:10052000B485109771F47487638785859685DB01A0
:1005300014962D913C91820F931F9687858708957D
:10054000DC018D919C9111970097D1F76D937C936D
:10055000ECCF90E0FC01E955FB4F249188579B4F6D
:10056000FC018491882399F090E0880F991FFC0189
:10057000E658FB4FA591B491FC01E459FB4F8591DE
:1005800094918FB7F894EC91E22BEC938FBF089580
:10059000CF93DF93FA013081322B3083DB013C9122
:1005A000322B3C9340816081422B50E030E020951B
:1005B000309570E02623372361E0EC01A99178E0C3
:1005C0002083AA0F40F4B4E0BA95F1F74083BAE073
:1005D000BA95F1F705C0BEE0BA95F1F70000408387
:1005E0007A9529F0B3E0BA95F1F70000E9CF6A9562
:1005F00029F0B1E0BA95F1F70000E0CFB2E0BA958A
:10060000F1F7000000002083B4E0BA95F1F7000094
:1006100000004083DF91CF910895FC018091CF04C9
:10062000882311F13FB7F89482E08093E90020918C
:10063000F200822F90E01816190614F481E090E081
:10064000882339F0289844E64093CE044091F10085
:100650004083222339F02091F200211103C02BE6C0
:100660002093E8003FBF08958FEF9FEF08953FB7B5
:10067000F8948091CA049091CB04A091CC04B091DD
:10068000CD0426B5A89B05C02F3F19F00196A11DEA
:10069000B11D3FBFBA2FA92F982F8827BC01CD01CC
:1006A000620F711D811D911D42E0660F771F881F2B
:1006B000991F4A95D1F708958F929F92AF92BF925A
:1006C000CF92DF92EF92FF924B015C010E943703C1
:1006D0006B017C010E9437036C197D098E099F090B
:1006E000683E734081059105A8F321E0821A9108C4
:1006F000A108B10888EEC80E83E0D81EE11CF11CE9
:1007000081149104A104B10429F7FF90EF90DF90C8
:10071000CF90BF90AF909F908F9008952FB7F8948F
:100720006091C6047091C7048091C8049091C90477
:100730002FBF0895FC018FE08583168217820895EC
:100740004091990450919A04209197043091980413
:1007500042175307B4F49091E8009570E1F390913B
:10076000E80092FD19C08093F10080919904909166
:100770009A0401968F739927892B19F48EEF809331
:10078000E8008091990490919A04019690939A04BC
:100790008093990481E0089580E00895DF92EF92BC
:1007A000FF920F931F93CF93DF93D82E8A01EB0113
:1007B0007B01E40EF51ECE15DF0559F0D7FE12C001
:1007C000FE0184910E94A00321968111F4CF0FEFC6
:1007D0001FEFC801DF91CF911F910F91FF90EF9014
:1007E000DF9008958881EECF2FB7F89487708093BB
:1007F000E9009091E800892F807295FF04C09091E4
:10080000F20080E4891B2FBF08957F928F929F9200
:10081000AF92BF92CF92DF92EF92FF920F931F930E
:10082000CF93DF93C82E8B017A018091CF04811181
:1008300010C08FEF9FEFDF91CF911F910F91FF902D
:10084000EF90DF90CF90BF90AF909F908F907F9070
:10085000089580919D0480FF05C08091E000826032
:100860008093E000CE2DDF2DD12C8AEFB82E8C2D79
:100870008770982E8C2D8072882E8C2D8074782E07
:100880009AE3A92E209719F4DD2009F452C08C2D8B
:100890000E94F40381110AC0BA94BB2051F261E0B6
:1008A00070E080E090E00E945C03ECCF8C171D06A6
:1008B00011F00CF08C2F9FB7F8949092E9002091E2
:1008C000E80025FD02C09FBFDDCF282F30E0C21B0E
:1008D000D30B882029F08150A0F01092F100FBCFBB
:1008E000F801C7FC0AC0815050F041914093F100DB
:1008F000FACF44914093F10031968150D0F7020F26
:10090000131FDD2021F0A092E800D12CDCCF8091D4
:10091000E80085FD07C0A092E800DD24D39420976D
:1009200091F2F3CF209779F6772069F2A092E80050
:10093000CACF5D9884E680939C04C7017CCF615048
:1009400030F02091F100FC0120830196F8CF289827
:1009500084E68093CE0408954F925F926F927F92C7
:10096000AF92BF92CF92DF92EF92FF920F931F93BD
:10097000CF93DF93EC016B017B01E40EF51E8B013D
:100980005801AC18BD080E151F0511F10E948E0309
:10099000688779878A879B87E881F9810284F38554
:1009A000E02DCE01099597FF23C00E948E03488455
:1009B00059846A847B8464197509860997094C8077
:1009C0005D806E807F80641575058605970520F330
:1009D000C501DF91CF911F910F91FF90EF90DF90B4
:1009E000CF90BF90AF907F906F905F904F900895A1
:1009F000F80181938F01C4CFAF92BF92CF92DF9263
:100A0000EF92FF920F931F93CF93DF936C017B01C3
:100A10008B01040F151FEB015E01AE18BF08C01754
:100A2000D10759F06991D601ED91FC910190F081C7
:100A3000E02DC6010995892B79F7C501DF91CF918A
:100A40001F910F91FF90EF90DF90CF90BF90AF90EC
:100A5000089580918F0481110DC082E080938B04F2
:100A600084E080938C0410928E0410928D0481E0B7
:100A700080938F048BE894E008950F931F93CF9396
:100A8000DF931F92CDB7DEB782E0898342E450E066
:100A900069EA71E080E80E94CE030E942905DC012A
:100AA00012960D911C910115110589F0D801ED9157
:100AB000FC910280F381E02DBE016F5F7F4FC80182
:100AC000099597FD04C0F80100851185ECCF898157
:100AD0000F90DF91CF911F910F910895CF93DF93E6
:100AE000EC0180912D01882331F083E00E94050400
:100AF0001816190634F081E090E09B838A8380E029
:100B000090E0DF91CF910895CF93DF931F92CDB7FF
:100B1000DEB76983DC01ED91FC910280F381E02D69
:100B200041E050E0BE016F5F7F4F09950F90DF916C
:100B3000CF91089583E08093E9008091F2008823AB
:100B400019F08AE38093E800089583E00E94F4039B
:100B500090E00895CF93DF931F92CDB7DEB7FC01ED
:100B60008485958597FD08C02FEF3FEF3587248753
:100B70000F90DF91CF910895CE0101960E940D0351
:100B8000019719F4898190E0F3CF8FEF9FEFF0CFB9
:100B90000F931F93CF93DF931F92CDB7DEB78C01D6
:100BA000FC018485958597FF0BC0CE0101960E94BC
:100BB0000D03019771F4898190E0F801958784878E
:100BC000F801848595850F90DF91CF911F910F914A
:100BD00008958FEF9FEFF1CFFC018485958597FDF8
:100BE0000BC09FB7F89482E08093E9008091F200F7
:100BF0009FBF90E0019608959FB7F89482E080939C
:100C0000E9008091F2009FBF90E00895CF93CFB7A5
:100C1000F89480918A0481115AC049E954E0FA019C
:100C2000949128EB34E0F9018491E92FF0E0EE0F84
:100C3000FF1FE658FB4FA591B4919C91982309F0B2
:100C400037C0EBE9F1E09491F9012491FA01849124
:100C5000882309F42DC09923E9F091509F30D0F4F6
:100C6000E92FF0E0EA5CF94F0C94E63477067B0656
:100C700045066F0673064A064A064A067E0684063D
:100C800088068C0692064A069606909180009F7709
:100C900090938000E82FF0E0EE0FFF1FE459FB4F28
:100CA000A591B4918FB7F8949C91292B2C938FBF69
:100CB00081E10E94A9028CB580618CBD8CB58064F5
:100CC0008CBD8FE00E94A90280E10E94A902809160
:100CD0008A048F5F80938A04CFBFCF91089590914B
:100CE00080009F7DD5CF90918000977FD1CF94B524
:100CF0009F7794BDCFCF94B59F7DFBCF909190000F
:100D00009F7790939000C6CF909190009F7DF9CFF0
:100D100090919000977FF5CF9091C0009F7790932E
:100D2000C000B8CF9091C0009F7DF9CF9091C200D4
:100D3000977F9093C200AECFCF93DF93EC018A856B
:100D4000882329F081508A87DF91CF9108959C8173
:100D50008E819817C8F78D856827E881F98100840E
:100D6000F185E02D42E0CE0109958C818F5F8C8367
:100D7000EBCF81E090E0089581E0089583E090E07A
:100D8000089584E090E00895EF920F931F93F90186
:100D9000DA012C913E2D309532233C9330813E294F
:100DA0003083FC01D80198E080E030E020E04C91F5
:100DB0004E2189F02A95D9F720E04C914E2159F027
:100DC0002A95D9F720E84C914E2129F02A95D9F798
:100DD0003A9561F717C047E04A95F1F7000031E016
:100DE000550F4C914E2109F051609A9529F4519379
:100DF000839598E0681731F020E84C914E2111F767
:100E00002A95D9F71F910F91EF9008959F92AF9275
:100E1000BF92CF92DF92EF92FF920F931F93CF93E7
:100E2000DF93DB016A01F22E282F30E0F901E9554A
:100E3000FB4FE49028573B4FF901249130E0220FFB
:100E4000331FF901E658FB4FC591D491F901E459DC
:100E5000FB4FA590B490F901E25AFB4F0591149114
:100E60009FB6F8942E2DA501BE01CD010E94C802A7
:100E70009501AE016F2DC6010E94C4069FBEDF9191
:100E8000CF911F910F91FF90EF90DF90CF90BF9087
:100E9000AF909F900895FC018FE086838FE7878352
:100EA00080871186128613860895FC0113821482AE
:100EB0001582168217820895DC01FB0112962C918F
:100EC0001297848195812817190641F491818081B8
:100ED000813A31F49D7F81E0913009F080E00895FE
:100EE0008132E1F79B3029F482811F968C9381E057
:100EF00008959A3099F7828150968C93F8CFEF92AB
:100F0000FF920F931F93CF93DF93FB012081213832
:100F100089F52381223271F5DC0112964C912481EE
:100F200035814217130631F58C01FC01C385D48548
:100F3000F12CE12C209791F04C815D816A817B81BD
:100F40008E81811180E80E94CE038F3F980759F06F
:100F5000E80EF91E0990D881C02DECCF81E0D801B0
:100F60001F968C93C701DF91CF911F910F91FF9036
:100F7000EF90089590E080E0F6CFCF93DF93CDB768
:100F8000DEB769970FB6F894DEBF0FBECDBFFC0188
:100F9000DB018C918F5F8C939E012D5F3F4F8DE025
:100FA000D9011D928A95E9F729E0298384E08A8393
:100FB00091E09D8383E08E832A8721E22B879C87A3
:100FC0009D879F8722E2288B27E02B8B25E02C8BA7
:100FD0008E8B20E430E0388F2F8B998F82818B832A
:100FE00095858685998B8A8B838180688D8B49E175
:100FF00050E0BE016F5F7F4F80E00E94CE03699694
:101000000FB6F894DEBF0FBECDBFDF91CF9108952C
:101010008FB7F894809187048FBF089584E98093F7
:10102000BC0085E69091BC0094FF03C08150D1F7CD
:10103000089581E008956EBD00000DB407FEFDCF58
:101040008EB508952A9A299A8C9A83EC90E001979C
:10105000F1F708952A9A299A469A83EC90E001972D
:10106000F1F708958091C3049091C40401968530EE
:1010700091052CF49093C4048093C304089581E0F7
:1010800090E0F8CF909130018917C0F4E82FF0E09C
:10109000EE0FFF1FE954FB4F80819181DC01ED9140
:1010A000FC910190F081E02D0995E091B704F09159
:1010B000B8048FE7878380878187828708950895A2
:1010C000DC019C96EC919C979D962C91E21730F454
:1010D000E80FF92FF11D848590E008958FEF9FEFC1
:1010E0000895FC0194A585A52FEF3FEF981740F4D4
:1010F000DF01A90FB11D1C962C9130E09F5F94A7D2
:10110000C9010895FC0185A594A5891B990B089533
:10111000CF92DF92EF92FF920F931F93CF93DF93C3
:101120006C01EB017B01E40EF51E10E000E0CE1532
:10113000DF0561F06991D601ED91FC910190F0819C
:10114000E02DC6010995080F191FF1CFC801DF91E5
:10115000CF911F910F91FF90EF90DF90CF90089566
:10116000CF93DF93909130018917B0F4C82FD0E06E
:10117000CC0FDD1FC954DB4F88819981DC01ED91D3
:10118000FC910190F081E02D0995E881F9818FE7CC
:101190008783808781878287DF91CF9108950F931E
:1011A0001F93CF93DF931F92CDB7DEB78C01FC0165
:1011B00080819181892BD1F48781198223E0A80154
:1011C000BE016F5F7F4F0E940607833059F0F80120
:1011D00010821182128280E00F90DF91CF911F91D7
:1011E0000F9108958BE891E00197F1F7F80187815D
:1011F00091E0998324E0A8014D5F5F4FBE016F5FCE
:101200007F4F0E940607843011F781E0E5CF8CBD47
:101210009DBD08958C9880916A0590916B050E9400
:10122000070983EC90E00197F1F7089546988091C3
:101230006A0590916B050E94070983EC90E0019785
:10124000F1F708958F929F92AF92BF92CF92DF9263
:10125000EF92FF920F931F93CF93DF937C016B016B
:101260005A01022F10E0D0E0C0E083EC882E912CD0
:10127000C017D107E1F0D701ED91FC910480F58111
:10128000E02D6AE5C114D10421F0D601AC0FBD1FD9
:101290006C91C7010995A114B10421F0F501EC0F7F
:1012A000FD1F8083C4010197F1F72196E1CFDF9103
:1012B000CF911F910F91FF90EF90DF90CF90BF9053
:1012C000AF909F908F900895CF92DF92EF92FF9210
:1012D0000F931F93CF93DF937C016B01D42F8C016D
:1012E0000E5F1F4F23E0A8010E942209F70123810E
:1012F0002F3F61F410E000E0C801DF91CF911F9112
:101300000F91FF90EF90DF90CF90089584818A3500
:1013100011F08111EFCF2F70C22FCC0FD33059F0C5
:10132000B6016D5F7F4F2DEF2D0FA7014B5F5F4F14
:10133000C7010E9422092C2F2D1B2D5FE9F24D2F92
:1013400050E0CA01820F911D8197A4F6400F511FF2
:1013500070E060E0C7010E942209CECFCF92DF92F9
:10136000EF92FF920F931F93CF93DF93EC010E94B4
:101370008E036B017C01E881F9810190F081E02D01
:10138000CE01099544E060E471E0CE010E94640959
:101390008C01E881F9810280F381E02DCE0109956D
:1013A0000115110529F0F8018181807F803F11F539
:1013B0006AE070E080E090E00E945C030E948E038F
:1013C0006C197D098E099F096B3F71058105910597
:1013D00090F2C0E062E370E080E090E00E945C0385
:1013E0008C2FDF91CF911F910F91FF90EF90DF90A5
:1013F000CF900895C1E0EECFEF92FF920F931F932D
:10140000CF93DF9300D000D01F92CDB7DEB78C0111
:10141000DC019C961C929C97D9961C92D997ED91D1
:10142000FC910190F081E02D0995F80182AD8111C8
:1014300008C083AD803409F045C084AD813009F027
:1014400041C085E0E9E4F1E0DE01119601900D92E2
:101450008A95E1F7D80196968D919C91979706977A
:1014600059F5DD968C918C8345E0BE016F5F7F4F0F
:10147000C8010E9464097C01D801ED91FC910280B1
:10148000F381E02DC8010995E114F10441F0F70161
:101490008181807F803FD1F4C8010E94AE0980E045
:1014A0000F900F900F900F900F90DF91CF911F91A1
:1014B0000F91FF90EF900895F80183AD8C8384AD78
:1014C0008D83D2CF43E069E471E0D2CFD801949606
:1014D0008D919C91959793969C938E93929723814F
:1014E000348195963C932E93949781818937B9F4F2
:1014F00083E090E097969C938E939697D80196966A
:101500008D919C9197978430910591F150F582309F
:10151000910571F1039709F441C081E0C1CF982F83
:10152000907F903721F482E090E0D801E3CF9035AE
:1015300031F484E090E0F80197A386A3DFCF8332F3
:1015400019F485E090E0F1CF903E19F486E090E048
:10155000F2CF833619F487E090E0E7CF81E090E0A6
:10156000EACF8630910509F45CC030F10797A9F6FF
:1015700081E0D8019C968C939C97F70185819A967F
:101580008C939A9786819B968C939B97878198964C
:101590008C939897808599968C93BFCF81E0F801C2
:1015A00081AFF70139969D96C701459621912D93FC
:1015B000E817F907D9F7DCCF81E09C968C939C97CC
:1015C000F701958198969C939897D9968C93D99783
:1015D0008681D3968C93D3979781D4969C93D497F6
:1015E0004085D5964C93D59797FF05C03F77959644
:1015F0003C932E93949787FF0AC0D80194968D91BF
:101600009C9195979F7B95969C938E939497403F42
:1016100008F483CFF80184A195A19B7F95A384A3AF
:101620007CCF81E09C968C93F7019681858197FD14
:101630001AC087FD8FE7D80198968C93D8019896A9
:101640008C919897805898968C939897F7018581FC
:101650009D968C939D9786819E968C939E9787816D
:101660009F968C935ACF813808F481E8F80180A7BF
:10167000E5CFCF92DF92EF92FF920F931F93CF931C
:10168000DF93EC010E948E036B017C01E881F981FC
:101690000190F081E02DCE01099544E067E371E00F
:1016A000CE010E9464098C01E881F9810280F381F6
:1016B000E02DCE0109950115110529F0F801818170
:1016C000807F803F11F16AE070E080E090E00E944E
:1016D0005C030E948E036C197D098E099F096B3F84
:1016E00071058105910590F2C0E062E370E080E051
:1016F00090E00E945C038C2FDF91CF911F910F919E
:10170000FF90EF90DF90CF900895C1E0EECF9091E1
:101710003001891778F4E82FF0E0EE0FFF1FE9544D
:10172000FB4F80819181DC01ED91FC910190F08172
:10173000E02D09940895FC019081911107C08381E7
:1017400094810196B1F090E080E008959F3051F4CB
:10175000228130E02F7033272F30310581F482E071
:1017600090E00895923041F0943049F485E090E0A3
:10177000089583E090E0089584E090E0089581E08A
:1017800090E00895FC016093BC002FEF3FEF809143
:10179000BC0087FF06C09091B900987F908381E0DC
:1017A00008952150310999F780E00895CF93DF9390
:1017B000EC016093BB0064E80E94C20B882329F00F
:1017C00081E09881983209F080E0DF91CF9108950F
:1017D000DF92EF92FF920F931F93CF93DF93EC0171
:1017E000D62EF42E8989882329F0411103C00E9446
:1017F0000E08198A8E01015F1F4F8989811119C056
:10180000E88864EAC8010E94C20B882361F08F85D2
:10181000883011F0803139F4EE0CE092BB0064E8BE
:10182000C8010E94C20B60E0F11060E4C8010E9490
:10183000D60B6D2DC8010E94D60B82E0F8120BC0AA
:1018400089898F5F898BDF91CF911F910F91FF90D5
:10185000EF90DF9008950E940E08198AF4CFDC0102
:10186000ED91FC910084F185E02D40E00994FC01AC
:101870002781269526952695621720F46583606B4F
:101880000C942F0C08950F931F93CF93FC01268186
:10189000621798F4C62F8C0164836085C60F6C2F85
:1018A0006F700E942F0C6C2F62956F706061C80181
:1018B000CF911F910F910C942F0CCF911F910F91ED
:1018C00008951F93CF93DF93EC01142F0E94430CD4
:1018D000612FCE01DF91CF911F910C94370C2F9285
:1018E0003F924F925F926F927F928F929F92AF92B0
:1018F000BF92CF92DF92EF92FF920F931F93CF93FD
:10190000DF9300D000D000D0CDB7DEB7FC01238537
:1019100034852115310509F416C19E838D83F901A3
:101920003296649031964491E42EF12CF7E0EF0E5C
:10193000F11C53E0F594E7945A95E1F7E982F90137
:10194000349654913196E4916D30F1F460E00E9448
:10195000430C81E090E026960FB6F894DEBF0FBEF0
:10196000CDBFDF91CF911F910F91FF90EF90DF904E
:10197000CF90BF90AF909F908F907F906F905F902F
:101980004F903F902F9008956A3081F460E08D81F0
:101990009E810E94430CED81FE81868565818E9D2E
:1019A000600D1124CF010E94370CD3CF651708F4C6
:1019B000CAC08E2F90E0FC01E50FF11D6E171F06C7
:1019C0000CF0C1C089010A5F1F4F651BED81FE81CC
:1019D00071855685759F502D11245C83F9015491B2
:1019E0002F5F3F4FF9012491352F2230310508F048
:1019F0006AC06E9CC0016F9C900D1124689FF0011D
:101A0000699FF00D11240E0F1F1F512CED81FE81D7
:101A1000F481FA83ED81FE812580F285FB83862C9B
:101A2000912CAA24A394B12C312C8981381608F06A
:101A300086C0412CED81FE818685481608F078C06D
:101A40008B818287311002C0442041F0ED81FE81FC
:101A500045814F5F6A81CF010E94610CD12CC12C5E
:101A6000C61408F058C0F801EC0DFD1D7490552007
:101A700061F0EA14FB0449F4E72DF0E0052C02C004
:101A8000F595E7950A94E2F77E2EED81FE81868535
:101A9000823081F4442009F43AC072948FE07822B5
:101AA000E72DF0E0E658FE4F7490672D8D819E8102
:101AB0000E949C06672D8D819E810E949C068FEF5F
:101AC000C81AD80ACDCF477028E0522E541A4111B7
:101AD00001C0512CF801612C30E020E0661631F095
:101AE0004491240F311D63943196F8CF600E712E0E
:101AF000711CF3016490E29EF001E39EF00DF29EF2
:101B0000F00D11248E0F9F1F080F191F7FCFF72D87
:101B1000FF707F2EC5CFD12CEC81DE1639F060E04E
:101B20008D819E810E949C06D394F6CF439482CFF0
:101B30003394080D191DFFEFAF1ABF0A76CF622D3F
:101B40008D819E8130CF90E080E005CF0F931F9371
:101B5000CF93DF938C01D0E0C0E0F801EC0FFD1FC4
:101B60006491662341F08AE895E00E946F0C892B0E
:101B700011F02196F2CFCE01DF91CF911F910F91FD
:101B80000895CF92DF92EF92FF920F931F93CF931E
:101B9000DF93EC01F62EC42ED22E1A868F81869505
:101BA00086958695081710F00FEF080F1D2D011769
:101BB00080F0412F6F2DCE010E94610CEF2CCE14CE
:101BC00030F06D85CE010E949C06E394F8CF1F5F34
:101BD000EECF4D2D6F2DCE01DF91CF911F910F9143
:101BE000FF90EF90DF90CF900C94610C0F93FC016D
:101BF000078106950695069501504681415020E0E3
:101C000060E00E94C10D0F9108954F925F926F9214
:101C10007F928F92AF92CF92EF92FF920F931F938A
:101C2000CF93DF93CDB7DEB72701380194E0899FCA
:101C300080011124F801EE5CFB4F80819181A2812B
:101C4000B3818E219521A621B72131E0892B8A2BE2
:101C50008B2B09F430E03C1103C08889882301F103
:101C6000C11001C0A82C2D5F640F422F8AE895E0B7
:101C70000E94610C6A2D8AE895E00E946F0CF801C1
:101C8000EE5CFB4FCC20D1F080819181A281B381A9
:101C900084299529A629B72980839183A283B383B8
:101CA000DF91CF911F910F91FF90EF90CF90AF9068
:101CB0008F907F906F905F904F90089540945094D4
:101CC0006094709480819181A281B3818421952157
:101CD000A621B721E1CF8F929F92AF92BF92CF9270
:101CE000DF92EF92FF920F931F93CF93DF93D82E43
:101CF000C62FE82FF0E0EE0FFF1FEF56FC4FB0802D
:101D000007E023E041816B2D8AE895E00E94C10D38
:101D100047E06B2D8AE895E00E94610CC13069F5BF
:101D200083E091E00E94A60D81E08D15C8F0C0EE21
:101D3000D1E099249394E880F9800A811B819F92D5
:101D40008F80AE80CC24C3942C814D816B2D8D2D42
:101D50000E94050E28960F9082E0C035D80759F7EB
:101D6000DF91CF911F910F91FF90EF90DF90CF9077
:101D7000BF90AF909F908F90089586E194E0DF919F
:101D8000CF911F910F91FF90EF90DF90CF90BF9078
:101D9000AF909F908F900C94A60D0F9307E022E0D8
:101DA0004FE760E08AE895E00E94C10D8091C3048E
:101DB0009091C40482309105E1F020F4019779F00C
:101DC0000F91089583309105E1F00497C9F766E318
:101DD0008AE895E00E94430C82E191E007C064E24A
:101DE0008AE895E00E94430C87E091E00F910C9403
:101DF000A60D6EE18AE895E00E94430C8AE191E02D
:101E0000F5CF66E38AE895E00E94430C86E191E015
:101E1000EDCF809308016EEA81116FEA8AE895E0C0
:101E20000E942F0C0E948E036093660470936704D7
:101E300080936804909369040895FC01448550E000
:101E4000A585B0E0AA0FBB1FA053BB4F0D90BC915E
:101E5000A02D13968C9180649091D404BF01992396
:101E600021F06E5F7F4F0C9405046D5F7F4FFBCFB9
:101E7000089590E080E00895CF92DF92FF920F9353
:101E80001F93CF93DF936C0170E06F5F7F4F759569
:101E9000679590918804961758F090918904FF24D3
:101EA000F39401E010E0961730F082E0F82E6AC05B
:101EB000F12C10E000E0F801E857FB4F81E0890FBA
:101EC000808391115FC083E190E00E940035EC01B6
:101ED00091E09C839D839E01265F3F4F3F832E832D
:101EE0001986188624EE32E0398328831C861B86E7
:101EF0001E861D869F87988BDA8AC98A81EC8A871D
:101F00000E942905FC0181813C81682F630F77279E
:101F1000771F683071057CF5A281B3811097F9F4C1
:101F2000D383C28390819A838B838D81890F808331
:101F300090E080E08317F8F42181A22FB0E0BD018A
:101F4000655E7E4F4E815F81480F591FDA014C91CB
:101F5000DB014C932F5F21830196ECCFDA011896B9
:101F60004D915C91199741155105C1F71996DC9374
:101F7000CE931897D7CF000F111FF801E053FB4FF6
:101F8000D183C0838F2DDF91CF911F910F91FF904F
:101F9000DF90CF9008956F927F928F929F92AF9231
:101FA000CF92EF92FF920F931F93CF93DF93CDB712
:101FB000DEB7C456D1090FB6F894DEBF0FBECDBF51
:101FC0004C01CB01642E722E29E933E0D4012D930C
:101FD0003C93672D0E943C0F182FF401858781E008
:101FE000F2E0F71508F080E08093D4048FE993E0E5
:101FF000D40111969C938E9312966C9212972C2D6D
:102000002A0D2E0D200F85E0820F1C968C9395E0F3
:10201000998381E08A8339E03B839C8391EA9D83A5
:102020008E83B2E0B71508F0FBC285E88F8368861F
:1020300098E0E1E0F0E0EC0FFD1FE90FF11D35E065
:10204000932E9082E1E0E90F66246394712C6C0E6C
:102050007D1E6E0E711CF30159E05083E2E0E90F22
:1020600061E070E06C0F7D1F6E0F711DFB0189E157
:102070008083E3E0E90FA1E0B0E0AC0FBD1FAE0F3D
:10208000B11DFD0131E03083E4E0E90F6624639483
:10209000712C6C0E7D1E6E0E711CF30189E2808323
:1020A000E5E0E90F61E070E06C0F7D1F6E0F711DC0
:1020B000FB0148E14083A6E0A90FE1E0F0E0EC0F6E
:1020C000FD1FEA0FF11DDF01E5E1EC93A7E0A90F89
:1020D00066246394712C6C0E7D1E6A0E711CD301F4
:1020E0001C92A8E0A90F61E070E06C0F7D1F6A0FE1
:1020F000711DDB0185E28C93A9E0A90F662463942E
:10210000712C6C0E7D1E6A0E711CD3013C93AAE0EB
:10211000A90F61E070E06C0F7D1F6A0F711DDB017C
:1021200075E77C93ABE0A90F66246394712C6C0E69
:102130007D1E6A0E711CD3013C93ACE0A90F66248E
:102140006394712C6C0E7D1E6A0E711CD30165E9BF
:102150006C93ADE0A90F66246394712C6C0E7D1E08
:102160006A0E711CD3014C93AEE0A90F66246394F0
:10217000712C6C0E7D1E6A0E711CD30141E84C93CC
:10218000AFE0A90F66246394712C6C0E7D1E6A0E5D
:10219000711CD301F2E0FC93A0E1A90F66246394C3
:1021A000712C6C0E7D1E6A0E711CD3019C92A1E1F4
:1021B000A90F88248394912C8C0E9D1E8A0E911C4D
:1021C000D4013C93A2E1A90F66246394712C6C0E98
:1021D0007D1E6A0E711CD3015C93A3E1A90F8824B4
:1021E0008394912C8C0E9D1E8A0E911CD4010F2E6F
:1021F000F9E39F2EF02D9C92A4E1A90F662463942D
:10220000712C6C0E7D1E6A0E711CD301EC93A5E13E
:10221000A90F88248394912C8C0E9D1E8A0E911CEC
:10222000D4011C92A6E1A90F66246394712C6C0E54
:102230007D1E6A0E711CD3018C93A7E1A90F88241F
:102240008394912C8C0E9D1E8A0E911CD40187E0E4
:102250008C93A8E1A90F66246394712C6C0E7D1EEB
:102260006A0E711CD30185E38C93A9E1A90F882420
:102270008394912C8C0E9D1E8A0E911CD4011C926D
:10228000AAE1A90F66246394712C6C0E7D1E6A0E60
:10229000711CD30186E48C93ABE1A90F882483944D
:1022A000912C8C0E9D1E8A0E911CD4018BE38C9375
:1022B000ACE1A90F66246394712C6C0E7D1E6A0E2E
:1022C000711CD3013C93ADE1A90F88248394912C18
:1022D0008C0E9D1E8A0E911CD40185E68C93AEE176
:1022E000A90F66246394712C6C0E7D1E6A0E711CFE
:1022F000D30184E18C93AFE1A90F88248394912CBE
:102300008C0E9D1E8A0E911CD4017C93A0E2A90F15
:1023100066246394712C6C0E7D1E6A0E711CD301B1
:1023200088E08C93A1E2A90F88248394912C8C0ED1
:102330009D1E8A0E911CD4016C93A2E2A90F662403
:102340006394712C6C0E7D1E6A0E711CD3013C933C
:10235000A3E2A90F88248394912C8C0E9D1E8A0ED3
:10236000911CD4014C9345E2F42EF90E44E2490F3E
:1023700066246394712C6C0E7D1E640E711CD30157
:10238000FC93222309F405C1A1E0B0E0AC0FBD1F0E
:10239000AF0DB11D5C93A6E2A90F66246394712C66
:1023A0006C0E7D1E6A0E711CD3013C93A7E2A90F2F
:1023B00088248394912C8C0E9D1E8A0E911CD4012E
:1023C000EC93E8E2E90FA1E0B0E0AC0FBD1FAE0F67
:1023D000B11DFD011082E9E2E90F66246394712CBE
:1023E0006C0E7D1E6E0E711CF30136E23083EAE244
:1023F000E90F88248394912C8C0E9D1E8E0E911CC7
:10240000F4013FEF3083EBE2E90FA1E0B0E0AC0F65
:10241000BD1FAE0FB11DFD011082ECE2E90F662475
:102420006394712C6C0E7D1E6E0E711CF301708313
:10243000EDE2E90F88248394912C8C0E9D1E8E0E64
:10244000911CF4018083EEE2E90FA1E0B0E0AC0F53
:10245000BD1FAE0FB11DFD016083EFE2E90F6624E1
:102460006394712C6C0E7D1E6E0E711CF301208323
:10247000E0E3E90F88248394912C8C0E9D1E8E0E30
:10248000911CF40181EA808322E3290FE1E3E90F43
:1024900061E070E06C0F7D1F6E0F711DFB011082FB
:1024A000002391F0E1E0F0E0EC0FFD1FE20FF11DE1
:1024B000508324E3290F9D5CE1E0F0E0EC0FFD1F69
:1024C000E90FF11D80E38083EE20A1F0E1E0F0E070
:1024D000EC0FFD1FE20FF11D89E08083E1E0E20FC8
:1024E00081E090E08C0F9D1F8E0F911DFC0181E318
:1024F00080832E5FCC20A1F0E1E0F0E0EC0FFD1F27
:10250000E20FF11D89E08083E1E0E20FA1E0B0E09D
:10251000AC0FBD1FAE0FB11DFD0182E380832E5FA6
:10252000AA20A9F0E1E0F0E0EC0FFD1FE20FF11DA1
:1025300089E08083E1E0E20F66246394712C6C0EE5
:102540007D1E6E0E711CF30185E380832E5FE1E03A
:10255000F0E0EC0FFD1FE20FF11D81E88083E1E068
:10256000E20F88248394912C8C0E9D1E8E0E911C5C
:10257000F40182E0808333E0F32EF20EE2E0E20F1A
:1025800021E030E02C0F3D1F2E0F311DF90180ECB2
:102590008083E1E0F0E0EC0FFD1FEF0DF11D80EC1A
:1025A0008083A1E0AF0D8A2E912CC4010E940035DA
:1025B0003C01A401BE016F5F7F4F0E942A3687E075
:1025C00090E00E940035DC0111961C921E92139639
:1025D0007C926E92129715969C928E9214971696F4
:1025E0001C921697E12FF0E0EE0FFF1FE053FB4F18
:1025F000BD0180819181CC59DF4F0FB6F894DEBFC9
:102600000FBECDBFDF91CF911F910F91FF90EF9043
:10261000CF90AF909F908F907F906F900C948E0290
:1026200084E0820FF401848796E003CD0E94253672
:10263000CF93DF93FC012085318580E0232B69F463
:10264000EB0161897289CE010E943336FE0101904F
:102650000020E9F731978E2F8C1BDF91CF910895E1
:102660001F920F920FB60F9211242F933F938F93C7
:102670009F93AF93BF938091C6049091C704A0919C
:10268000C804B091C9043091C50423E0230F2D374D
:1026900058F50196A11DB11D2093C5048093C60471
:1026A0009093C704A093C804B093C9048091CA044E
:1026B0009091CB04A091CC04B091CD040196A11DC2
:1026C000B11D8093CA049093CB04A093CC04B09323
:1026D000CD04BF91AF919F918F913F912F910F901A
:1026E0000FBE0F901F90189526E8230F0296A11D8C
:1026F000B11DD2CF1F920F920FB60F9211248F935C
:102700009F938091E1009091E100937F9093E1008D
:1027100083FF0FC01092E90091E09093EB001092BC
:10272000EC0092E39093ED001092CF0498E0909328
:10273000F00082FF22C093E09093E9009091F200B4
:10274000992319F09AE39093E80090919C049923BF
:1027500041F090919C04915090939C04911101C080
:102760005D9A9091CE04992341F09091CE049150BE
:102770009093CE04911101C0289A84FF18C08091D3
:10278000E2008E7E81608093E2008091E1008F7E86
:102790008093E10080919D048E7E806180939D04F2
:1027A0009F918F910F900FBE0F901F90189580FFF3
:1027B000F7CF8091E2008E7E80618093E20080916D
:1027C000E1008E7E8093E10080919D048E7E816089
:1027D000E5CF1F920F920FB60F921124CF92DF9286
:1027E000EF92FF920F931F932F933F934F935F931B
:1027F0006F937F938F939F93AF93BF93EF93FF93C9
:10280000CF93DF93CDB7DEB76C97DEBFCDBF10920D
:10281000E9008091E80083FF25C068E0CE0145967D
:102820000E949F0482EF8093E8008D8987FF39C062
:102830009091E80090FFFCCF982F907609F034C17A
:102840009E894F89588D2F89F88C911131C080381D
:1028500061F580919E048093F1001092F1008EEF5B
:102860008093E8006C960FB6F894DEBF0FBECDBF24
:10287000DF91CF91FF91EF91BF91AF919F918F9198
:102880007F916F915F914F913F912F911F910F9188
:10289000FF90EF90DF90CF900F900FBE0F901F90A2
:1028A00018959EEF9093E800C7CF1092F100D5CF16
:1028B000913059F48111D3CF4130510581F6809187
:1028C0009E048D7F80939E04CACF933049F481117A
:1028D000C6CF4130510519F680919E048260F2CF37
:1028E000953041F48091E80080FFFCCF2068209370
:1028F000E300B5CF963009F0A9C00B8D1C8D22E006
:102900001092E90010929A0410929904F2122EC0CB
:1029100010929804109297040E943D051F8299E03E
:102920009983FA8291E09E8390EA98879AEF99873B
:102930002091990430919A04275F3F4F3C832B8369
:102940008D831092E90010929A04109299041093CA
:1029500098040093970449E050E0BE016F5F7F4FF9
:1029600080E00E94CE030E943D0579CF1093980429
:10297000009397040E942905DC0112960D911C9189
:102980000115110509F451C1D801ED91FC910480A4
:10299000F581E02DBE016B5E7F4FC8010995009760
:1029A00009F03EC1F80100851185EACFF3E0FF127E
:1029B0000EC08F89882309F440C0823061F440E85A
:1029C00060E18DE092E00E942D2A811148CF81E2E2
:1029D0008093EB0047CF813029F440E86BE081E041
:1029E00092E0F1CF833099F70E942905DC0112961D
:1029F000ED90FC908E010F5F1F4F6801E114F10410
:102A000079F0D701ED91FC910680F781E02DB801B6
:102A1000C7010995080F111DF701E084F184EECF7D
:102A2000D8011C92F60101900020E9F73197BF010F
:102A30006C197D0940E0C601C6CF6BEE71E0FB0169
:102A4000449150E080E80E94CE0309CF973009F40A
:102A5000BECF983021F481E08093F10000CF99300F
:102A600009F0FDCE837009F0B2CFECE1F1E081E036
:102A700031E096E32191222371F08093E9003093B5
:102A8000EB00DF0111972C912093EC009093ED0067
:102A90008F5F873079F78EE78093EA001092EA0023
:102AA0008F898093CF04DBCE8B8D9C8D1092E900B3
:102AB00010929A041092990490939804809397042A
:102AC000898D811192C08E899D89913A49F4813214
:102AD00009F07DCF47E050E066E271E080E0B3CFDF
:102AE000913209F074CF833269F48F89988DB0E008
:102AF000A0E08093220190932301A0932401B0933E
:102B00002501ADCE803269F48091E80082FFFCCFD0
:102B100067E086E291E00E949F048BEF8093E800DB
:102B20009ECE823209F09BCE8F8980932D01EEEFED
:102B3000FFE7859194918B3F9C4D51F1E0E0F8E0E7
:102B40008091260190912701A0912801B09129013F
:102B5000803B9440A105B105F1F480912D0180FDE9
:102B60001AC0EE3F8AE0F80789F587E797E7918377
:102B700080838091600080939B0488E19BE00FB686
:102B8000F894A895809360000FBE9093600067CE84
:102B9000EEEFFAE0D5CF808191818737974709F032
:102BA0005ECEA895809160008861809360008091DE
:102BB0009B0480936000EE3F2AE0F20789F0809149
:102BC000FE0A9091FF0A9183808349CE8081918192
:102BD0008737980751F29093FF0A8093FE0AC5CF7A
:102BE0001092FF0A1092FE0A3ACE0E942905DC01DB
:102BF00012960D911C910115110509F4E8CED8012A
:102C0000ED91FC910190F081E02DBE016B5E7F4F54
:102C1000C8010995811123CEF80100851185EBCFFC
:102C2000181619060CF41BCED2CEF1E0FF12BECE60
:102C30006FEE71E004CF71E02D98259A24982C9ABC
:102C40000000000000000E94D92925982D9A0E94BA
:102C5000D929A8940000000000001D9B0E94C129F2
:102C6000F2F088941C990894771F30F72D98259AD4
:102C7000803021F024982C9A0C9440162C98249A99
:102C80000000000000000E94D92925982D9AA894E0
:102C9000000000001D9B0E94C1290E94D92900004C
:102CA00000002D98259A872F9927089580E208958E
:102CB0000894881F0C945D16880F11F12D98259AA1
:102CC00000000000000028F4000024982C9A0C94C6
:102CD0006D162C98249A0C946D160E94D92925986B
:102CE0002D9AA8940000000000001D9B0E94C1299D
:102CF0001AF488270C9496160E94D9290C945C1615
:102D00002D98259A0000000024982C9A0E94D92919
:102D10009927882725982D9AA89400001D9B0E942A
:102D2000C1293AF31C9B81E00E94D92900000000D0
:102D30002D98259A089581E00895CF93DF93EC01B3
:102D4000862F0E945816811108C08FA5811102C0DC
:102D500083E08FA790E080E002C081E090E0DF9107
:102D6000CF9108952D98259A2C98249A0E94D929BC
:102D700025982D9A0E94D9291D9B0E94C12924982B
:102D80002C9A0E94D92908958F93F1E0E4EF8F9156
:102D90008F931D9B0E94C1292C98249A0E94D929A7
:102DA0000E945816882331F40E94B216319711F010
:102DB0000C94C71699270F90089581E008952D98D7
:102DC000259A0E94D92924982C9A0E94D9292598BD
:102DD0002D9A0E94D9291D9B0E94C1292C98249AC2
:102DE0000E94D9290E945816089581E008951D9BDC
:102DF0000E94C1292C98249A0E94D9290E94581611
:102E0000089581E008951F93CF93DF93EC011EA5F1
:102E100084EA112371F00E94DF16811108C082E05C
:102E20008FA781E08EA7DF91CF911F91089580E059
:102E3000F7CF0E94F716811101C012E01FA7F1CF52
:102E4000FF920F931F93CF93DF93EC01F62E042F85
:102E5000122F0E940317E881F9810190F081E02D83
:102E60006F2DCE010995E881F9810190F081E02D67
:102E7000602FCE0109950FA50E94B2161EA61FA6AF
:102E800080E0011107C0112321F087EB92E0019748
:102E9000F1F781E0DF91CF911F910F91FF9008959D
:102EA000AF92BF92CF92DF92EF92FF921F93CF9398
:102EB000DF93EC011FA6162F613208F010E28EA5F9
:102EC000882331F185EA0E94DF1691E089279FA5CA
:102ED000911104C0882311F082E08FA76E018CE06D
:102EE000C80ED11CF12CE12CE12FE150FF0B5F014A
:102EF000E11690F481E0AE14BF0409F080E00E9476
:102F00001B16F60181936F01FFEFEF1AFF0AF0CF56
:102F100085EA0E94F716D9CF1CA68FA5811110E073
:102F20001DA71EA60E94B2168DA5DF91CF911F91FD
:102F3000FF90EF90DF90CF90BF90AF900895EF9209
:102F4000FF920F931F93CF93DF93EC01162F7A011B
:102F50000E940317E881F9810190F081E02D60E083
:102F6000CE0109950FA50E94B2161EA61FA601113B
:102F700010C087EB92E00197F1F7612FCE010E941C
:102F80005017482F50E0B701CE010E94AC0491E0E9
:102F9000181390E0892FDF91CF911F910F91FF902F
:102FA000EF900895AF92BF92CF92DF92EF92FF928F
:102FB0000F931F93CF93DF93CDB7DEB760970FB614
:102FC000F894DEBF0FBECDBF8C0197EBE92E92E0E7
:102FD000F92EC7010197F1F7D8011296ED91FC91F6
:102FE00021E043E06EEF808191810E942017FE0175
:102FF00031966F01811111C0D8011296ED91FC91AB
:10300000A60166E070E0808191810E949F1788236D
:1030100009F443C0C7010197F1F788E05E01B9E008
:10302000AB0EB11CF501282F11922A95E9F7D601B4
:103030001D928A95E9F787EBE82E82E0F82ED801F9
:103040001296ED91FC91A50168E070E0808191817C
:103050000E949F17882309F443C0C7010197F1F725
:10306000D8011296ED91FC91A60168E070E0808194
:1030700091810E949F17882399F1298599812913AD
:103080001DC02A859A81291319C09F8591111AC0E4
:103090009889911117C0F801148260960FB6F894C0
:1030A000DEBF0FBECDBFDF91CF911F910F91FF907B
:1030B000EF90DF90CF90BF90AF900895C701019738
:1030C000F1F7BDCF91E0D80114969C931497129616
:1030D000ED91FC919481983000F798E09483DDCFD6
:1030E00080E0DBCF2F923F924F925F926F927F9260
:1030F0008F929F92AF92BF92CF92DF92EF92FF9208
:103100000F931F93CF93DF93CDB7DEB7AB970FB677
:10311000F894DEBF0FBECDBF0E943703C0902E01D2
:10312000D0902F018090830490908404A090850417
:10313000B0908604681979098A099B094601B12C67
:10314000A12C681579058A059B0508F45EC4809159
:10315000C3049091C4048230910509F4A5C430F4ED
:10316000019709F4C5C01092810445C483309105CC
:1031700011F40C946D230497B1F780910D0188230D
:1031800031F010920D0190E080E00E94212CF0902F
:103190006D040091B5041091B604F1100C945E26F4
:1031A000D8011296ED91FC91C080D18020E045E5D8
:1031B00060EFC6010E942017882311F40C944B265F
:1031C0006AE070E080E090E00E945C0320E040E074
:1031D0006BEFC6010E942017882311F40C944B2634
:1031E00064E170E080E090E00E945C03F801C2803E
:1031F000D380D6016D907C90C3010E940317D30148
:10320000ED91FC910190F081E02D6AEFC3010995E9
:10321000F301E7A40E94B216D3019E961C929E97DA
:103220009F961C92EE2011F40C94E72590E080E02C
:10323000F60193838283C8010E94602AE82E8823C6
:1032400011F40C945126D8011296ED91FC9135960B
:1032500085E1DF011D928A95E9F7D8011296ED917B
:10326000FC91139786E08483ED91FC910190F081AD
:10327000E02DC8010995882311F40C945126F8011A
:10328000068D178D0115110511F40C945A26D801DD
:10329000CD90DC90C6010E94602A882311F40C9422
:1032A0005526D601ED91FC910190F081E02DC601EB
:1032B0000995E82E882311F40C94552681E080931B
:1032C0006D0480E00E944208E091B504F091B604DC
:1032D0000280F381E02D828193810E94212C82E380
:1032E00090E090932F0180932E01F092810483C38C
:1032F0009E012F5F3F4F38A32F8F8CE0D9011D9285
:103300008A95E9F780911A01882381F010921A01B9
:1033100080913001833050F045E064E28AE895E026
:103320000E94610C80E791E00E94A60D80918005CB
:103330008093850580918105909182059093870502
:1033400080938605809183059091840590938905EB
:1033500080938805A0917E0510927E052C9A8BE2C1
:1033600090E00197F1F72C9883E190E00197F1F755
:1033700090E080E030E020E043E150E06CB166FB9B
:10338000EE24E0F8F12CB701082E02C0660F771F7B
:103390000A94E2F7262B372B2D98FA013197F1F793
:1033A0002D9AFA013197F1F701968031910531F7A5
:1033B000832F82958F7090E18D3009F091E070E05D
:1033C00060E050E040E0E3E1EE2EF12CECB1E6FBF2
:1033D000002700F910E0F801062E02C0EE0FFF1FD3
:1033E0000A94E2F74E2B5F2B2D98F7013197F1F7F6
:1033F0002D9AF7013197F1F76F5F7F4F691730F31F
:10340000982F909520953095409550958F3021F4C8
:103410004E3FBFEF5B07E1F1E0917E0561E06E0F8B
:1034200060937E0561E070E0E11102C070E060E051
:10343000811113C0E32FFF27EF70FF273F9769F437
:103440008AE0869FF001879FF00D1124E558FA4F1E
:103450008FE085835187408711C092FFD5C08AE0F5
:10346000869FF001879FF00D1124E558FA4F84E004
:1034700085839370892F90E0918780878AE0869F6B
:10348000F001879FF00D1124E558FA4F378326830A
:1034900080917E058A17B8F44AE09FEF21E030E082
:1034A000811102C030E020E0429FF001439FF00D07
:1034B0001124E558FA4F95831782168211861086DB
:1034C0008F5FA813EBCF8091710580937605809173
:1034D000720590917305909378058093770580919C
:1034E00074059091750590937A05809379056091A4
:1034F0006F0510926F058E9A8BE290E00197F1F7BD
:103500008E9883E190E00197F1F750E040E090E081
:1035100080E0E3E1F0E02FB1022E000C330B222714
:10352000330F221F3327042E02C0220F331F0A94A9
:10353000E2F7822B932B8D98DF011197F1F78D9A8B
:10354000DF011197F1F74F5F5F4F4031510519F7D8
:10355000792F72957F7010E17D3009F011E0F0E075
:10356000E0E050E040E0B3E1EB2EF12C2FB1022E71
:10357000000C330B2227330F221F33270E2E02C0DD
:10358000220F331F0A94E2F7422B532B8D98D70159
:103590001197F1F78D9AD7011197F1F73196E1174D
:1035A00028F3272F20958C01009510954095509574
:1035B0007F3029F44E3FBFEF5B0709F447C080918D
:1035C0006F0591E0980F90936F05E1E0F0E08111B5
:1035D00002C0F0E0E0E08AE08E9FD0018F9FB00D46
:1035E0001124A459BA4F71111AC0812F99278F70D5
:1035F00099270F97A1F48FE015968C93159719963C
:103600005C934E93189717C09AE0969FF001979F8E
:10361000F00D1124E558FA4F9FE089271ACF22FFB9
:1036200072C084E015968C931597237030E019963C
:103630003C932E9318972AE02E9FC0012F9F900D48
:103640001124FC01E459FA4F17830683E0916F05BA
:10365000ECA3E617C0F48E2F4AE09FEF21E030E0A4
:10366000811102C030E020E0429FF001439FF00D45
:103670001124E459FA4F9583178216821186108619
:103680008F5F6813EBCF90907E05FCA1F90DFAA334
:1036900027EB34E03FA32EA3D12C00E08091300132
:1036A0003AA13D1509F455C1D81609F452C1BB24FD
:1036B000B394D91408F4B12C21E030E0D91448F5C2
:1036C000D11002C030E020E06AE0629FA001639F59
:1036D000500D1124DA01A058BA4F3D01823051F546
:1036E000992009F4A5C0CD010E949B0BEB2DF0E0C1
:1036F000EE0FFF1F21E030E02C0F3D1FE20FF31F04
:103700009183808317C09FE0972715969C93159708
:1037100076CFD91002C030E020E0BAE0B29FA0011D
:10372000B39F500D1124FA01EF58FA4F3F01823038
:1037300009F47EC0D3018C9115969C91159789133D
:1037400023C011964D915C91129716962D913C9144
:1037500017974217530759F413964D915C9114979C
:1037600018962D913C914217530709F459C08111C5
:1037700019C0F301838194810196A1F4D3011896B5
:103780008D919C91019671F08D2D0E94870B8091F7
:103790003001823039F4C3010E949B0BBC018B2D98
:1037A0000E94922DC3010E949B0B1C01F301818199
:1037B0009281DC01A095B095F4E0B695A795FA95B5
:1037C000E1F71A2F1F709C0121703327AC01569529
:1037D000479570E060E04170552766277727F2E053
:1037E0002F163104B9F5232B09F0426082FD516098
:1037F00083FD5260AEA1BFA1ED91FC914383548340
:103800006583A12FB0E0A053BD4F8C918683CF017B
:103810000E941D0F80913001823009F45BC001E0ED
:10382000D3946EA17FA16E5F7F4F7FA36EA336CF2F
:103830003CA1332309F47ECFC3010E949B0BEB2DE7
:10384000F0E0EE0FFF1F61E070E06C0F7D1FE60FF0
:10385000F71F56CF232B09F0426090FD446091FD85
:10386000486092FD406193FD406224E022163104DD
:1038700021F5D30113962D913C9134FD406435FD23
:10388000406820FD546021FD586022FD506123FDF9
:10389000506224FD506425FD506826FD616027FDBF
:1038A000626030FD646031FD686032FD606133FD4F
:1038B000606237FF9BCF606499CFB5E02B1631046F
:1038C00009F094CFF301238120FD406421FF8ECFC6
:1038D00040688CCF70E5472E72E0572E19A28B2DD1
:1038E00090E0880F991FFC01EF56FC4FFBA7EAA759
:1038F000F2E02F16310441F429A1283008F5F20135
:10390000E05AFF4F243008F0F201E080F18002819C
:103910001381D30111968D919C918E219F21CC24EE
:10392000C394892B09F4C12C1F928780A68024811F
:103930004581EAA5FBA560818B2D0E94050E0F90A5
:10394000F9A1FF5FF9A328E0420E511CFC3081F67B
:1039500066CFE980FA80823079F480910E019091EF
:103960000F018E159F0541F0E114F10429F470E078
:1039700060E080E00E94922DF0920F01E0920E0133
:10398000EB80FC8080913001823079F480911001CD
:10399000909111018E159F0541F0E114F10429F475
:1039A00070E060E081E00E94922DF0921101E092BF
:1039B0001001809182047AA17817C0F4172F8091AA
:1039C0008204181798F480913001181779F0812F2C
:1039D0000E94870BE12FF0E0EE0FFF1FE954FB4F31
:1039E000808191810E941D0F1F5FE9CF8AA1809382
:1039F0008204009381040E943703609383047093D0
:103A000084048093850490938604809181048823A4
:103A100041F08091080181110C941A2981E00E94E3
:103A2000090F809108018823B1F00E948E03009154
:103A30006604109167042091680430916904601B4A
:103A4000710B820B930B603E73498440910518F013
:103A500080E00E94090F4E990EC06CE271E080E098
:103A600090E00E945C038091080181110C9426294A
:103A700081E00E94090FAB960FB6F894DEBF0FBE2F
:103A8000CDBFDF91CF911F910F91FF90EF90DF900D
:103A9000CF90BF90AF909F908F907F906F905F90EE
:103AA0004F903F902F90089510928004D090A904D9
:103AB000DD2009F4EDC2D090AD04D11005C00E9404
:103AC000102BD092810497CF8091AF049091B004D5
:103AD0000E94FC09D82E811103C01092AD04F1CFD1
:103AE00080915004811113C080919F049091A00493
:103AF000092E000CAA0BBB0B80934C0490934D0431
:103B0000A0934E04B0934F0481E0809350041D8E27
:103B10001E8A188A1F861A8219828091AF0490919A
:103B2000B004DC0196962D913C919797D12C2630CC
:103B3000310599F49C96DC90DD2079F08E010F5FC1
:103B40001F4F9E01215F3F4FAE014A5E5F4FBE0196
:103B5000635E7F4F0E947B2AD82E8F85988910E064
:103B60000497F9F480914A0490914B04988B8F87C5
:103B7000019709F020C18EEF8D8F8FEF8E8B109201
:103B800049041092480410924704109246048E890A
:103B900090E0982F88278E6F90934504809344047B
:103BA00010E86F8578896115710521F070934B04D9
:103BB00060934A044E898D8D342F282F309343040F
:103BC00020934204A091AF04B091B00494968D91DB
:103BD0009C919597809590957C01EE0CFF1CEE0CC6
:103BE000FF1CE4E0EE22FF24AC014C7FE42AF52A1E
:103BF000F0924104E0924004D110F7C0AC01442798
:103C000051709C0122273270BC01662773706115C8
:103C1000734009F0D4C01092A70421E094FD09C0BC
:103C200023E095FD06C027E096FD03C097FF03C083
:103C30002FE02093A60421E030E084FD0CC022E0B8
:103C400030E085FD08C024E030E086FD04C087FF39
:103C500006C028E030E03093A5042093A40421E0BE
:103C6000AC014427547092FF20E093FB882780F931
:103C70002817A9F062E0452B09F461E06093A304E2
:103C800070E080EA90E00E94D2347093A2046093C6
:103C9000A104759567957093A00460939F0480912B
:103CA000A70460E571E0813051F067E571E0813093
:103CB00030F06AE471E0823011F06DE371E081E090
:103CC0000E94ED2B66E371E082E00E94ED2B609193
:103CD000A60470E090E080E04AE00E94242E6DE2AD
:103CE00071E083E00E94ED2B8091A4049091A504E3
:103CF0000E94722E66E271E084E00E94ED2B8091BA
:103D0000A304813009F06EC08EE091E00E94722E13
:103D100081E00E94090F68EC70E080E090E00E9472
:103D20005C030E94102B8091AF049091B004FC01C1
:103D300026A137A12630310589F424A5222371F06C
:103D40008E010F5F1F4F9E01215F3F4FAE014A5E04
:103D50005F4FBE01635E7F4F0E947B2A1092490431
:103D600010924804109247041092460480919F04D8
:103D70009091A004092E000CAA0BBB0B80934C045D
:103D800090934D04A0934E04B0934F04809142044D
:103D90009091430490934504809344048091A70438
:103DA000833009F08ECE80913E0487FF6CC18F5F17
:103DB00080933E0486CE8EEF8D8F1E8AE0CEBC01AE
:103DC00066277C7061157C4039F0452B49F4232B24
:103DD00009F423CF22E001C023E02093A7041DCFE4
:103DE00021E0FBCF87E890E091CFB090A704E0916D
:103DF000A104F091A204672B09F454C080914404FB
:103E000090914504A901481B590B8091460490915B
:103E10004704840F951F9093470480934604BB206A
:103E200019F063E0B6123EC010923F04052E000C5C
:103E3000660B770B40904C0450904D0460904E04FC
:103E400070904F04440D551D661D771D40934C0422
:103E500050934D0460934E0470934F0477FF08C055
:103E600010924C0410924D0410924E0410924F0484
:103E7000AF010F2E000C660B770B40904C04509056
:103E80004D0460904E0470904F044415550566052E
:103E9000770544F440934C0450934D0460934E04D2
:103EA00070934F042F010F2E000C660877088FEFD8
:103EB0008B0D823008F0A2C040919F045091A00465
:103EC00088279927841B950B281739070CF06FC09A
:103ED00010924C0410924D0410924E0410924F0414
:103EE00071E0B71273C081E080933F048091A60413
:103EF0008F708063812BDD968C93209148043091E4
:103F000049046090A4047090A504809146049091A7
:103F10004704821B930BB3010E94D23461384FEFE8
:103F2000740714F461E87FEF8B016038710514F0B9
:103F30000FE710E0609EC001619E900D709E900D95
:103F40001124820F931F9093490480934804C02E3C
:103F500020914C0430914D0440914E0450914F04F7
:103F6000AFEFB0E00E9496349F01FF0F440B550B5A
:103F70000E947734922E322F63E0B61252C080EC4A
:103F800007FD03C0002319F08FE380933E042091C6
:103F90003E0427FF3BC06894E0F8F0924104E092B1
:103FA000400480914004909141048D7F36C04217B7
:103FB000530784F440924C0450924D0460924E0496
:103FC00070924F0481E0B81609F48DCF81E08093A0
:103FD0003F0414C091E0B91202C010923F04420F96
:103FE000531F70E060E040934C0450934D04609385
:103FF0004E0470934F0422E0B21641F380913F04C7
:10400000813009F473CFDD961C9377CF8091400403
:10401000909141048260222321F290934104809385
:104020004004E0904004F090410480913C04909161
:104030003D048E159F0541F480913B04381304C064
:1040400080913A04C816E9F0F0923D04E0923C04F5
:1040500090923B04C0923A0481E00E94CD2AE09104
:10406000B704F091B8047FE0E722E382F482809104
:10407000A804811102C097820683CF010E941D0F00
:1040800085CED12C83CE882309F41BCD815090CED0
:1040900080917E0481115FC080917F0481115BC09B
:1040A0008091AD0481110DC08091660590916705E6
:1040B000DC01ED91FC910680F781E02D099580935C
:1040C000AD0480937E048091AE0481110DC0809177
:1040D000680590916905DC01ED91FC910680F781FE
:1040E000E02D09958093AE0480937F0481E00E94C7
:1040F000090F07E027E04FE760E08AE895E00E94BB
:10410000C10D67E08AE895E00E94370C60E08AE81C
:1041100095E00E94430C80917E0481110BC0809138
:104120007F04811103C086E194E002C08FE591E035
:104130000E94A60D62E48AE895E00E94430C9091EB
:104140007E0480917F04992361F1811104C08FE581
:1041500091E00E94A60D86E6282E85E0382E9CE789
:10416000E92E94E0F92E2EE7422E24E0522E10E0A4
:1041700000E0CC24C394F101819191911F019093AF
:10418000B0048093AF04D7011D927D01F20121910B
:104190002F0121110BC00130110541F101E010E0A8
:1041A000EACF8111D2CF86E194E0D3CF9801235595
:1041B0003B4F3901D9012C91211198C0DC01ED91BF
:1041C000FC910680F781E02D0995882359F0F301D1
:1041D000C082E091AF04F091B00466A177A1802F76
:1041E0000E94362D8091AC048823A9F2E12C44244E
:1041F000439400E8302E80913001E81608F061CC3D
:104200008E2D90E0FC01E355FB4F2081222309F421
:10421000AAC0FC01E458FB4FB080BB2009F4A3C046
:10422000880F991FFC01EA59FA4F00811181109300
:10423000B0040093AF048091AB04811194C0F0905E
:10424000AC04FF2009F465C180916104882309F45E
:1042500091C081E00E94090F10916104113009F0B2
:104260005DC0C090AF04D090B00468E070E0C601BB
:104270000E94F92A882309F445C08091580481508E
:1042800080935804C090AF04D090B00460E070E216
:10429000C6010E94F92A882321F081E0810F8093D2
:1042A0006104F60186A197A10797A1F484A588234C
:1042B00089F082A593A560A571A58130910511F0C3
:1042C0000C9472296530710529F06A30710511F07E
:1042D0000C947229D0905F04DD2009F443C08091D2
:1042E000B7049091B8040E941D0F3DC00E94FC09C4
:1042F000F70131978083811175CFD3011C9270E053
:1043000060E06DCF60E070E4C6010E94F92A882366
:1043100009F4B8CF809158048F5FB2CF1230E9F41E
:10432000C090AF04D090B00468E070E0C6010E9475
:10433000F92A882331F080915904815080935904DF
:10434000A1CF60E070E4C6010E94F92A882309F435
:1043500099CF809159048F5FF1CF133009F092CF3C
:1043600010926104DF2C809180048F5F8093800421
:10437000E39441CF8091600481110CC08091A80426
:1043800081116FC080915F0481116BC04092600405
:1043900040925F04D0906004DD2021F3D801949610
:1043A0002D913C912095309535FB882780F923FD90
:1043B000826036FD84606090B7047090B804F301A9
:1043C0008383D80196968D919C9197978230910521
:1043D00050F28430910508F4B3C7079709F0C3CFB2
:1043E0009C968C919C97882309F474CF9A968D9112
:1043F0009C919B9798966D917C918130910509F0E5
:1044000081C76530710509F465CF6A30710509F01F
:1044100079C780915C0490915D04009709F046C0D3
:10442000D80194968D919C91809590959C012870CF
:1044300030722830304209F04DCF96FF4BCF1092AA
:10444000600480915F04882329F0F3011382C30183
:104450000E941D0F68EE73E080E090E00E945C0314
:104460006FC760E070E2C8010E94F92A811107C09D
:1044700068E070E0C8010E94F92A882319F0409290
:10448000600470CF60E070E4C8010E94F92AD82E61
:10449000882309F47FCF40926004409261046CE26B
:1044A00071E080E090E00E945C035DCF60915A046F
:1044B00070915B046115710509F4B2CF2091590424
:1044C000620F711D27FD7A9520915804820F911D6E
:1044D00027FD9A950E94C02A80915E048F5F809389
:1044E0005E048F3F09F0F6CE10925E0410925D04D8
:1044F00010925C0410925B0410925A0480915F0445
:10450000882309F4E7CEF3011482158216821782FC
:1045100017C79090800455245394D80192962D91FA
:104520003C91939794968D919C912817390709F4A3
:10453000512CF80166A077A0092D10E0000F111F83
:10454000F801EE59FB4F808191816816790621F0C0
:10455000B301892D0E94362DE1E0F0E0EC0FFD1F44
:10456000E00FF11F71826082C3010197059708F087
:10457000B2C080E00E94CD2A2091AF043091B004F7
:104580003BA32AA3D90194968D919C9180959095F7
:10459000292F221F2227221F30E096FD226095FD41
:1045A000246094FD286092FD206193FD206290FDBF
:1045B000206491FD206880FD316083FD326081FDC3
:1045C000346082FD3860EAA1FBA1F0A421A48091AF
:1045D000800490E0FC01EE0FFF1FE954FB4F0190B7
:1045E000F081E02DAAA1BBA19C964C91442309F433
:1045F00066C0B5E06B16710409F461C0F7822086CD
:10460000AC014A5F5E4FDA01CC90BC016C5F7E4F1B
:10461000CF105CC0DB01CC90C21058C0DA01FC9214
:10462000DB012C92AAA1BBA19A965C919A979B96CA
:104630004C919B979C966C91662329F0B5E06B1684
:10464000710409F045C03186328640E850E8BC016B
:104650006E5F7E4F7BA36AA3DB016C9180509F4FFE
:10466000651305C0DC016C91641301C0B52CAAA1CF
:10467000BBA15C93DC014C93238334831582BB2064
:1046800079F0CF010E941D0FB1E0B91548F04091BB
:10469000AF045091B00420E0B301892D0E94B92CE1
:1046A000D801AE59BB4FE1E0F0E0EC0FFD1FE00F89
:1046B000F11F808191818D939C93DB2854CE3782AA
:1046C000308660E8262E70E8F72E9ACF5B2CA6CFB6
:1046D00051874287BCCFB52CE3CF80917A048111FA
:1046E00067C080917B04811163C07601EE0CFF1CD2
:1046F000EE0CFF1CE5E0EE1AF10802E615E04AE7D1
:10470000A42E44E0B42E56E6852E55E0952ED80111
:104710008D919D918D010E94CF08F50181935F01DC
:1047200080917A04811104C080917B04882339F040
:10473000F2E0CF16D10418F0C7010197F1F7801607
:10474000910629F781E00E94090F07E027E04FE773
:1047500060E08AE895E00E94C10D67E08AE895E094
:104760000E94370C60E08AE895E00E94430C80913B
:104770007A0481110BC080917B04811103C086E112
:1047800094E002C08FE591E00E94A60D62E48AE801
:1047900095E00E94430C90917A0480917B049923C8
:1047A00009F475C0811104C08FE591E00E94A60D47
:1047B0001D8E1E8E10E090E5C92E93ECD92E07E0D9
:1047C00022E3622E712C80913001181708F072C01C
:1047D000412E512CF201EE0FFF1FEE59FA4F2080AF
:1047E00031803092790420927804F201E658FB4F30
:1047F0008081882309F449C0C1010E94CF08920139
:104800002A583B4F7901882309F446C087E0F1011B
:10481000DE01569601900D928A95E1F787E0FE0140
:104820007696DE011F9601900D928A95E1F7049D20
:10483000C001059D900D112461E070E06C0F7D1F9B
:10484000860F971FFE013F96DC01202F01900D92ED
:104850002A95E1F7DC018D919C91BB24B3940097DC
:1048600009F4B12CF7012081211109C0892B39F0FD
:10487000812F0E94B00861E0812F0E946B0ED7014A
:10488000BC9270922F0160922E011F5F9CCF81110C
:1048900089CF86E194E08ACF812F0E94B00860E042
:1048A000812F0E946B0EF7011082D0922F01C092CF
:1048B0002E01EBCFB12CB7E0DB2E80913001B81682
:1048C00008F07DC16B2C712CF301EA58FB4F8081FD
:1048D000882309F472C1D69CF001D79CF00D1124F5
:1048E00021E030E02C0F3D1FE20FF31F2381822FC8
:1048F00082958F7090E0982F88279295907F2F70E7
:1049000030E0322F2227820F931F2481422F4295BD
:104910004F7030E1439FA0011124840F951F2F7029
:104920001C01220E311C9580468149A3B3016C58AD
:104930007B4F7DA36CA3DB018C91981207C0F30120
:10494000EE58FB4F8081841709F401C5EDE1F0E0DA
:10495000EC0FFD1FE60DF71DB1E0B083D69CF00112
:10496000D79CF00D112421E030E02C0F3D1FE20F09
:10497000F31F838122E030E087FD02C030E020E0B9
:10498000D69CF001D79CF00D112461E070E06C0F13
:104990007D1FE60FF71F838186FD2160D69CF00105
:1049A000D79CF00D112481E090E08C0F9D1FE80F43
:1049B000F91F838185FD3160D69CF001D79CF00DF5
:1049C0001124A1E0B0E0AC0FBD1FEA0FFB1F8381F3
:1049D00084FD3260D69CF001D79CF00D112461E07B
:1049E00070E06C0F7D1FE60FF71F848185FD20614D
:1049F000D69CF001D79CF00D112481E090E08C0F43
:104A00009D1FE80FF91F848184FD2062D69CF00170
:104A1000D79CF00D1124A1E0B0E0AC0FBD1FEA0F50
:104A2000FB1F848183FD2064D69CF001D79CF00D90
:104A3000112461E070E06C0F7D1FE60FF71F848189
:104A400082FD2460D69CF001D79CF00D112481E0FA
:104A500090E08C0F9D1FE80FF91F848181FD286075
:104A6000D69CF001D79CF00D1124A1E0B0E0AC0F72
:104A7000BD1FEA0FFB1F848180FD2068F301EE0F4C
:104A8000FF1FFBA3EAA3E954FB4FA081B18113965A
:104A90002C93139714963C93149715961C92159784
:104AA000D69CF001D79CF00D112421E030E02C0FB2
:104AB0003D1FE20FF31F838183FBEE27E0F941E006
:104AC0004E2782FF4260D69CC001D79C900D1124D6
:104AD00061E070E06C0F7D1F860F971FFC018381E2
:104AE00081FF4460D69CC001D79C900D112421E029
:104AF00030E02C0F3D1F820F931FFC01838180FF4C
:104B00004860E42FF0E0E053FD4F808116968C93CF
:104B1000169780E8890D17968C93179789A180586E
:104B2000809518968C931897CD010E941D0F50EE1A
:104B3000452E51E0552EB10190E080E06EA37FA399
:104B400088A799A7EAA1FBA1EF56FC4F70817AA72D
:104B5000D201ED90FD900D911C918EA19FA1A8A571
:104B6000B9A58E219F21A023B123CC24C394892BE6
:104B70008A2B8B2B09F4C12C1F92F2018780A6800F
:104B8000248145816AA58B2D0E94050EF8E04F0E09
:104B9000511C0F9020E5421622E05206C9F6EAA108
:104BA000FBA1E259FB4F31822082ACA1BDA19C92B6
:104BB000F301EE58FB4FB9A1B083B3947ECE8D8D37
:104BC000811101C08E8D809381040C94FB1C87EBB6
:104BD00092E00197F1F766E0C3010E945017482F59
:104BE00050E0BE016F5F7F4FC3010E94AC0486306E
:104BF00011F00C9416198B81843A09F048C08C810D
:104C0000803209F044C08D81811103C09E819923B7
:104C100091F199812A81923058F421111AC084307F
:104C200008F52E81213031F484E090E00C941819BD
:104C300021110FC08130B1F48E81833061F499234A
:104C4000F1F0913001F1933011F587E090E00C9490
:104C50001819813039F48E818231C9F488E090E0EE
:104C60000C941819811113C08E81833181F489E06D
:104C700090E00C94181983E090E00C94181985E0EA
:104C800090E00C94181986E090E00C94181982E0DA
:104C900090E00C941819D8011296ED91FC911382B2
:104CA000128280E593EC0C947119F801048115814E
:104CB0000C944219EE20A9F30C945E19C8010E94CD
:104CC000602A882309F4CEC0D8011296ED91FC9198
:104CD000AF014B5F5F4F648170E0808191810E94E2
:104CE0009F178CA3882309F4BDC0F80182819381AA
:104CF000DC0114964C910596FC012FEF30E050E05A
:104D0000BF01681B790B6417750724F46191362B7A
:104D10002623F6CF332309F4A5C02F3F09F4A2C000
:104D2000E091B504F091B6040280F381E02D028198
:104D30001381C8010397029708F4AAC0912CD12CC3
:104D40001AA219A2B12C712C612C80916B04909144
:104D50006C04FCA08615970539F4FF24F394809128
:104D60006A048B1101C0F12C80910C0139A18313CD
:104D70000EC080910B014AA1841309C080910A01E1
:104D80008D1105C080910901891509F4E7C2E091F0
:104D9000B704F091B8046382748215826B2D70E0C1
:104DA0007FA36EA3DB01A053BD4F8C91868379A1B5
:104DB00077838AA181958087D186892D8195828785
:104DC000CF010E941D0F045011090230110508F097
:104DD0001EC28FE08AA789E1482E83E0582E312C2D
:104DE000212CD201ED90FD900D911C9113971496FA
:104DF0002C91149715964C9115971696AC90169782
:104E000017968C90BAE0B21508F404C2C301022CC4
:104E100002C0969587950A94E2F7E82FE170CE2EAE
:104E20001F9260E080E00E94050E0F908FEF281A1D
:104E3000380A98E0490E511CAAA52A1690F27092E1
:104E40006C0460926B04B0926A04B9A1B0930C0137
:104E5000EAA1E0930B01D0920A0190920901FCA013
:104E60000C94751910926D0480E593EC90932F01CA
:104E700080932E0180E00E94420810926C041092F0
:104E80006B0490E080E00E94212CF12C0C947519A9
:104E90000430110509F09EC1E091B304F091B4040F
:104EA00084810280F381E02D8111C4C0228530E02D
:104EB000390195E0759467949A95E1F76094709440
:104EC000B1E06B22772446E0359527954A95E1F7C6
:104ED0002095309520FDC4C0228530E074E03595E2
:104EE00027957A95E1F72095309520FDC9C0228558
:104EF00030E053E0359527955A95E1F720953095A8
:104F000020FDCEC0218530E095E0359527959A9516
:104F1000E1F72095309520FDD3C0218530E035950F
:104F200027952095309520FDD8C0228530E0220FAE
:104F3000232F221F330B232B09F4DCC0228530E002
:104F400035952795359527952095309520FDE1C01D
:104F5000218530E0B4E035952795BA95E1F72095A5
:104F6000309520FDE6C0218530E0359527953595B3
:104F700027952095309520FDEBC0218530E053E04A
:104F8000359527955A95E1F72095309520FDF0C08D
:104F90009285BB24B39490FFB12C218530E096E03C
:104FA000359527959A95E1F72095309520FD04C019
:104FB0006894B1F88111F3C0228530E035952795CA
:104FC0002095309520FD04C06894B2F88111EFC09F
:104FD000218530E0220F232F221F330B232B21F0BA
:104FE0006894B3F88111ECC09581692F660F660F44
:104FF00069A38681782F770F770F7AA32781907C1A
:10500000969596959695807CD82ED294D69437E036
:10501000D322D92A822F807890E0880F892F881F89
:10502000990BD82ADD0CDD0CDD0C922E990C990C15
:10503000990C8BCE248530E03901A5E075946794F6
:10504000AA95E1F76094709441E064227724B6E079
:1050500035952795BA95E1F72095309520FF05C045
:10506000689461F8882309F437CF248530E064E040
:10507000359527956A95E1F72095309520FF05C075
:10508000689462F8882309F432CF248530E043E045
:10509000359527954A95E1F72095309520FF05C075
:1050A000689463F8882309F42DCF238530E0B5E0B8
:1050B00035952795BA95E1F72095309520FF05C0E5
:1050C000689464F8882309F428CF238530E0359567
:1050D00027952095309520FF05C0689465F88823B2
:1050E00009F423CF248530E0220F232F221F330B16
:1050F000232B29F4689466F8882309F41FCF2485AC
:1051000030E035952795359527952095309520FFEA
:1051100005C0689467F8882309F41ACF238530E026
:10512000A4E035952795AA95E1F72095309520FFC5
:1051300005C0689470F8882309F415CF238530E002
:1051400035952795359527952095309520FF05C0F5
:10515000689471F8882309F410CF238530E043E088
:10516000359527954A95E1F72095309520FF05C0A4
:10517000689472F8882309F40BCF948590FD27C0BA
:10518000B12C882309F408CF238530E0B6E03595AB
:105190002795BA95E1F72095309520FF09CF248512
:1051A00030E0359527952095309520FF0DCF23854C
:1051B00030E0220F232F221F330B232B09F010CFB7
:1051C000858189A397819AA3D6809084BECDBB2484
:1051D000B394DACFE091B104F091B2040280F3818C
:1051E000E02D8285682E712C75946794609470947C
:1051F000A1E06A22772480FD02C0689461F8B5813D
:10520000B9A326812AA3912CD12CB12C9ECD92E05A
:105210009AA7E1CDC1010B976EA17FA102C0759540
:1052200067958A95E2F7CB0180959095782F7170FC
:10523000C72EF6CD0E948E036093660470936704B8
:1052400080936804909369040C94111DE090C3044A
:10525000F090C4040E9432080E94CD0E10E000E0DD
:1052600062E070E080E090E00E945C034E990CC028
:105270006CE271E080E090E00E945C030E943208E2
:105280000E94CD0E10E000E00F5F1F4F003D27E0B1
:10529000120731F76091C3047091C4046E157F0545
:1052A00021F40E94CD0E0C943B1D90E080E00E9402
:1052B00069348AE895E00E94F60D83E691E00E9449
:1052C000A60D88E19EE00FB6F894A8958093600043
:1052D0000FBE9093600068E770E080E090E00E946D
:1052E0005C03F9CF20915904620F711D27FD7A9557
:1052F00020915804820F911D27FD9A950E94C02A83
:105300000C946A2110925E0490935D0480935C0477
:1053100070935B0460935A0420915F04222311F47C
:105320000C946A2120915904620F711D27FD7A9512
:1053300020915804820F911D27FD9A950E94C02A42
:105340008091600481110C946A210C94B2213EE694
:10535000231634E0330609F0F9CA2FCCFF2011F4EC
:105360000C94751914CD249825982C9A2D9A882779
:1053700099271C9B08951D9B089581E0089581E065
:105380000895BFE0A0EA00240E94D1293AF40A94CB
:10539000D9F71197C1F728940C94D829A8940C94A4
:1053A000D829A8941D990C94D62928940000089512
:1053B000089591E09A95F1F7089508951F93CF937A
:1053C000DF93EC0180E888A789A78AA78BA71CA692
:1053D000FE01BD968CE0DF011D928A95E9F71FA2C0
:1053E0001EA21AAE1BAE1CAE1DAE15E0CE010E9471
:1053F000FC0961E070E080E090E00E945C031150E5
:10540000A9F7CE01DF91CF911F910C94FC09CF93A6
:10541000DF93EC01849A8C9A229A2A9A219A299AEB
:1054200023982B982B9A0E940606CE01DF91CF91EC
:105430000C94DE29CF93DF93EC013E9A469A229A90
:105440002A9A219A299A23982B982B9A0E94060629
:10545000CE01DF91CF910C94DE29EF92FF920F9352
:105460001F93CF93DF93F82E192FE62E042F81E0A0
:10547000860F880F0E94A00383E00E94A003CF2D17
:10548000D12FEC0EFD2EF11CCE15DF05B9F007FF74
:1054900013C0FE0184910E94A003182F80E00E9497
:1054A000A003812321968111EFCFDF91CF911F912E
:1054B0000F91FF90EF9008958881EDCF81E0F5CFB7
:1054C000CF93DF93EC01E881F9810280F381E02D35
:1054D0000995EA81FB81228133812817390739F048
:1054E000019719F481E0232B19F480E001C081E0D9
:1054F000DF91CF9108950F931F93CF93DF93EC012A
:10550000F9018DA5DB018C938EA5DA018C939FA503
:105510009F709130D9F038F09230E9F09430F1F08A
:105520008FE090E015C0118210828FA5807F8038B7
:10553000C1F0803CE1F0811120C0F801118210829D
:1055400081E0DF91CF911F910F91089581E090E06C
:1055500091838083EACF82E090E0FACF84E090E00C
:10556000F7CF80E890E0D8018D939C93E9CF80EC51
:1055700090E0F80191838083E3CF80EF90E0F3CF58
:1055800020915F04222341F0E091B704F091B80428
:1055900084839583668377830895E091AF04F091C7
:1055A000B00444A155A1409550959A0154E0369518
:1055B00027955A95E1F791E029272170332746FF77
:1055C000226047FF246045FF2860E0918004F0E0FE
:1055D000EE0FFF1FE954FB4F0190F081E02D2053A7
:1055E0003D4FD9019C91882311F0958308959683AE
:1055F0000895FC0124A135A142A153A142275327BC
:105600004623572391E0452B09F490E020953095EF
:105610006223732381E0672B09F480E089230895D6
:105620008F929F92BF92CF92DF92EF92FF920F9351
:105630001F93CF93DF93CDB7DEB729970FB6F894BA
:10564000DEBF0FBECDBF8091AF049091B004DC01EE
:10565000ED91FC910680F781E02D0995882309F4EE
:10566000AAC081E08093AD048091AF049091B00412
:105670000E94390B882309F498C00091AF0410915F
:10568000B00489E0E7EDF1E0DE01119601900D92A2
:105690008A95E1F71D820E948E036B017C01B12C7B
:1056A000D801ED91FC910190F081E02DC8010995A0
:1056B00045E0BE016F5F7F4FC8010E9464094C0145
:1056C000D801ED91FC910280F381E02DC80109958C
:1056D000892809F0B394B2E0BB1588F06AE070E065
:1056E00080E090E00E945C030E948E036C197D09AB
:1056F0008E099F096B3F71058105910588F262E370
:1057000070E080E090E00E945C030091AF04109193
:10571000B00489E0EEECF1E0DE01119601900D920B
:105720008A95E1F70E948E036B017C01B12CD801B0
:10573000ED91FC910190F081E02DC801099545E0C3
:10574000BE016F5F7F4FC8010E9464094C01D80100
:10575000ED91FC910280F381E02DC8010995892823
:1057600009F0B394B2E0BB1588F06AE070E080E025
:1057700090E00E945C030E948E036C197D098E09E3
:105780009F096B3F71058105910588F262E370E026
:1057900080E090E00E945C0381E0F80182AF80919C
:1057A000AF049091B0040E94AE098091AF04909133
:1057B000B0040E94FC0929960FB6F894DEBF0FBE14
:1057C000CDBFDF91CF911F910F91FF90EF90DF90B0
:1057D000CF90BF909F908F9008950F93CF93DF93BA
:1057E000EB0142E0480F60E08AE895E00E94610C1E
:1057F00020918F05E0919505F091960500E0309796
:1058000071F03396E491F0E0379683E0F595E795F3
:105810008A95E1F7009198050E9F002D1124EFEF76
:10582000E20F0E0F40919005415060918E058AE87D
:1058300095E00E94C10DCE01DF91CF910F910C94A4
:10584000A60D8F92AF92CF92DF92EF92FF920F93BD
:105850001F93CF93DF93EC0107E023E04CE360E07C
:105860008AE895E00E94C10D47E060E08AE895E093
:105870000E94610CFE013297E830F10508F076C015
:10588000EC5BF34D0C94E634B32C4C2C7B2C992C14
:10589000A72CAA2CAD2CB02C86E594E00E94A60D76
:1058A000C1E0CF938CE3882E9BE3A92ECC24C39434
:1058B000E12CF12C8701E39422E040E360E080E0FA
:1058C0000E94050ECF9312E0E12EF12C00E010E0D3
:1058D00023E046E360E080E00E94050E0F900F9009
:1058E000DF91CF911F910F91FF90EF90DF90CF90BC
:1058F000AF908F9008958EE494E00E94A60DC9E1C8
:10590000D3E0DD24D394E880F9800A811B81DF9203
:105910008F80AE80CC24C3942C814D8160E080E0E8
:105920000E94050E28960F9083E0C139D80759F7D9
:10593000D7CF87E494E0DF91CF911F910F91FF9033
:10594000EF90DF90CF90AF908F900C94A60D82E4F3
:1059500094E0F1CF88E394E0EECF82E394E0EBCFE4
:1059600089E294E0E8CF8BE194E0E5CF86E194E032
:10597000E2CF2F923F924F925F926F927F928F92DF
:105980009F92AF92BF92CF92DF92EF92FF920F93CE
:105990001F93CF93DF9300D000D0CDB7DEB7B82EE2
:1059A0002B011A01922E8EE491E09C838B83D12CE3
:1059B000FB013297FA83E9836B2C712C660C771C00
:1059C000C3018F569C4F3C01E981FA81329770F0F8
:1059D0008FEF8D0D823050F1F5E04F16510431F408
:1059E000DD2021F188EF8D0D823000F1EB81FC810B
:1059F000E080F1800281138124814581A680878027
:105A00002114310459F0F10184A195A1809590955C
:105A10008E219F21CC24C394892B09F4C12C9F9201
:105A2000F30160818B2D0E94050E0F90D3948B8122
:105A30009C8108969C838B8390E1D912C5CF0F90EF
:105A40000F900F900F90DF91CF911F910F91FF90CA
:105A5000EF90DF90CF90BF90AF909F908F907F900E
:105A60006F905F904F903F902F900895FF920F930B
:105A70001F93CF93DF93182FEB01E82FF0E0EE0F89
:105A8000FF1FEF56FC4FF08007E023E041816F2DB0
:105A90008AE895E00E94C10D47E06F2D8AE895E005
:105AA0000E94610CC430D105A1F188F4C130D10548
:105AB00031F18AEE90E0C230D10589F086E194E0C0
:105AC000DF91CF911F910F91FF900C94A60DC530DF
:105AD000D105A9F087ED90E0C630D10579F70E9495
