:100000000C9466020C948E020C948E020C948E0258
:100010000C948E020C948E020C948E020C948E0220
:100020000C948E020C948E020C9419140C94881467
:100030000C948E020C948E020C948E020C948E0200
:100040000C948E020C948E020C948E020C948E02F0
:100050000C948E020C948E020C948E020C94CF138E
:100060000C948E020C948E020C948E020C948E02D0
:100070000C948E020C948E020C948E020C948E02C0
:100080000C948E020C948E020C948E020C948E02B0
:100090000C948E020C948E020C948E020C948E02A0
:1000A0000C948E020C948E020C948E02AED580A815
:1000B0003FD300408D142002A1C8DA12817FD9F10C
:1000C000DB40A4A6AF56424F59004E545400534E45
:1000D0004553004E4553004A4F47434F4E00464C50
:1000E00049474854535449434B004455414C5348A5
:1000F0004F434B004449474954414C004E45474308
:100100004F4E00504F50204E00504144002B4E4562
:1001100047002B47554E0050535800574949004E51
:100120003634204F524947494E414C2052414E47A8
:1001300045004E4553202B20534E45530059200077
:100140005820004F55545055542044495341424C77
:10015000454400582000434F4E4649470047554EFE
:10016000434F4E00504C55472B5245534554005277
:1001700045424F4F54494E472E2E2E004D554C545C
:10018000492D5441500000030C0F30333C3FC0C395
:10019000CCCFF0F3FCFF0000000200090F000003C9
:1001A0000401000C0000000000000000000000003E
:1001B0000000000000080B00020202000009040019
:1001C00000010202000005240010010524010101C4
:1001D00004240206052406000107058103100040DF
:1001E00009040100020A00000007050202400000A5
:1001F000070583024000000403090412010002EF16
:10020000020140D0167E12000101020301556E6BFF
:100210006E6F776E005265666C6578204164617020
:1002200074005245464C4558000000050720610007
:100230000000000000005F00006070787060605097
:1002400048506003070F07030305090503081C3E18
:100250007F7F081C22417F7F7F3E1C087F41221C3C
:1002600008082A1C2A0808083E0808005030000028
:100270000808080808006060000020100804023E1A
:100280005149453E00427F4000426151494621416B
:10029000454B311814127F1027454545393C4A49D2
:1002A000493001710905033649494936064949294A
:1002B0001E00363600003C7E7E7E3C3C4242423C84
:1002C0001414141414F0F0F0F0F0F0909090F03258
:1002D0004979413E7E1111117E7F494949363E419F
:1002E0004141227F4141221C7F494949417F0909FF
:1002F00001013E414151327F0808087F00417F41A2
:10030000002040413F017F081422417F404040408F
:100310007F0204027F7F0408107F3E4141413E7FFF
:10032000090909063E4151215E7F091929464649BE
:1003300049493101017F01013F4040403F1F2040BA
:10034000201F7F2018207F6314081463030478049F
:1003500003615149454300007F41410204081020D8
:1003600041417F0000383C1E0F074040404040386C
:100370002412090720545454787F484444383844A0
:10038000444420384444487F3854545418087E0963
:100390000102081454543C7F0804047800447D4052
:1003A000002040443D00007F10284400417F400071
:1003B0007C041804787C0804047838444444387C6D
:1003C00014141408081414187C7C080404084854F5
:1003D000545420043F4440203C4040207C1C20409A
:1003E000201C3C4030403C44281028440C505050C5
:1003F0003C4464544C44E0E0E0E0E000007F000056
:10040000E0A0A0A0E008082A1C08081C2A08080090
:1004100006090906AC00198040004E4F4E45004EBB
:100420004F5420535550504F52544544004452416C
:1004300057534F4D45005544524157005455524E65
:100440005441424C45004452554D00475549544192
:100450005200434C4153534943004E554E43485577
:100460004B00000000002300260029002C002F0074
:1004700000000000250028002B002E0031000000A5
:100480000000240027002A002D003000040404048A
:100490000403040502020202040302020202060629
:1004A00006060606040402020204040408020110FF
:1004B000408040102040804080080204018040209D
:1004C00010020110801020404020922C11241FBEE9
:1004D000CFEFDAE0DEBFCDBF14E0A0E0B1E0E2E5AF
:1004E000F6E602C005900D92AA37B107D9F725E0CC
:1004F000AAE7B4E001C01D92A23BB207E1F712E007
:10050000C6E6D2E004C02197FE010E94E731C5365D
:10051000D107C9F70E94232D0C9427330C940000B7
:1005200090E0FC01E555FB4F249184579B4FFC0163
:100530008491882399F090E0880F991FFC01E2587C
:10054000FB4FA591B491FC01E059FB4F859194912B
:100550008FB7F894EC91E22BEC938FBF0895CF9373
:10056000DF93FA013081322B3083DB013C91322B57
:100570003C9340816081422B50E030E020953095E3
:1005800070E02623372361E0EC01A99178E0208315
:10059000AA0F40F4B4E0BA95F1F74083BAE0BA95F7
:1005A000F1F705C0BEE0BA95F1F7000040837A95F7
:1005B00029F0B3E0BA95F1F70000E9CF6A9529F088
:1005C000B1E0BA95F1F70000E0CFB2E0BA95F1F7EB
:1005D000000000002083B4E0BA95F1F700000000AD
:1005E0004083DF91CF910895FC018091DE04882340
:1005F00011F13FB7F89482E08093E9002091F20076
:10060000822F90E01816190614F481E090E08823F8
:1006100039F0289844E64093DD044091F10040838E
:10062000222339F02091F200211103C02BE6209300
:10063000E8003FBF08958FEF9FEF0895CF93DF93BA
:100640001F92CDB7DEB76983DC01ED91FC9102808A
:10065000F381E02D41E050E0BE016F5F7F4F0995CF
:100660000F90DF91CF91089583E08093E90080910E
:10067000F200882319F08AE38093E8000895CF936D
:10068000DF931F92CDB7DEB7FC018485958597FD7A
:1006900008C02FEF3FEF358724870F90DF91CF9170
:1006A0000895CE0101960E94F402019719F4898100
:1006B00090E0F3CF8FEF9FEFF0CF0F931F93CF9387
:1006C000DF931F92CDB7DEB78C01FC018485958541
:1006D00097FF0BC0CE0101960E94F402019771F4BE
:1006E000898190E0F80195878487F8018485958554
:1006F0000F90DF91CF911F910F9108958FEF9FEF92
:10070000F1CFFC018485958597FD0BC09FB7F894C8
:1007100082E08093E9008091F2009FBF90E0019613
:1007200008959FB7F89482E08093E9008091F200E9
:100730009FBF90E008953FB7F8948091D9049091BD
:10074000DA04A091DB04B091DC0426B5A89B05C0B7
:100750002F3F19F00196A11DB11D3FBFBA2FA92F40
:10076000982F8827BC01CD01620F711D811D911D3D
:1007700042E0660F771F881F991F4A95D1F70895A9
:100780008F929F92AF92BF92CF92DF92EF92FF92A1
:100790004B015C010E949B036B017C010E949B0347
:1007A0006C197D098E099F09683E7340810591058A
:1007B000A8F321E0821A9108A108B10888EEC80EBA
:1007C00083E0D81EE11CF11C81149104A104B10442
:1007D00029F7FF90EF90DF90CF90BF90AF909F9060
:1007E0008F9008952FB7F8946091D5047091D60436
:1007F0008091D7049091D8042FBF08954091C104EF
:100800005091C2042091BF043091C0044217530795
:10081000B4F49091E8009570E1F39091E80092FDB6
:1008200019C08093F1008091C1049091C204019697
:100830008F739927892B19F48EEF8093E8008091AC
:10084000C1049091C20401969093C2048093C104A4
:1008500081E0089580E00895DF92EF92FF920F9378
:100860001F93CF93DF93D82E8A01EB017B01E40E17
:10087000F51ECE15DF0559F0D7FE12C0FE0184919A
:100880000E94FE0321968111F4CF0FEF1FEFC801E4
:10089000DF91CF911F910F91FF90EF90DF9008951E
:1008A0008881EECF2FB7F89487708093E9009091FC
:1008B000E800892F807295FF04C09091F20080E4D7
:1008C000891B2FBF089583E00E94520490E0089591
:1008D0007F928F929F92AF92BF92CF92DF92EF92D0
:1008E000FF920F931F93CF93DF93C82E8B017A0152
:1008F0008091DE04811110C08FEF9FEFDF91CF91C7
:100900001F910F91FF90EF90DF90CF90BF90AF902D
:100910009F908F907F9008958091C50480FF05C0BF
:100920008091E00082608093E000CE2DDF2DD12CFD
:100930008AEFB82E8C2D8770982E8C2D8072882E81
:100940008C2D8074782E9AE3A92E209719F4DD203F
:1009500009F452C08C2D0E94520481110AC0BA942D
:10096000BB2051F261E070E080E090E00E94C003A3
:10097000ECCF8C171D0611F00CF08C2F9FB7F8945C
:100980009092E9002091E80025FD02C09FBFDDCFD5
:10099000282F30E0C21BD30B882029F08150A0F013
:1009A0001092F100FBCFF801C7FC0AC0815050F053
:1009B00041914093F100FACF44914093F100319678
:1009C0008150D0F7020F131FDD2021F0A092E80024
:1009D000D12CDCCF8091E80085FD07C0A092E80013
:1009E000DD24D394209791F2F3CF209779F67720E6
:1009F00069F2A092E800CACF5D9884E68093C404AF
:100A0000C7017CCFCF93DF93EC0180913A0188231B
:100A100031F083E00E9468041816190634F081E072
:100A200090E09B838A8380E090E0DF91CF910895EE
:100A3000615030F02091F100FC0120830196F8CF45
:100A4000289884E68093DD0408954F925F926F9218
:100A50007F92AF92BF92CF92DF92EF92FF920F936D
:100A60001F93CF93DF93EC016B017B01E40EF51E26
:100A70008B015801AC18BD080E151F0511F10E941D
:100A8000F203688779878A879B87E881F9810284E6
:100A9000F385E02DCE01099597FF23C00E94F20354
:100AA000488459846A847B84641975098609970986
:100AB0004C805D806E807F80641575058605970586
:100AC00020F3C501DF91CF911F910F91FF90EF901F
:100AD000DF90CF90BF90AF907F906F905F904F90DE
:100AE0000895F80181938F01C4CFAF92BF92CF9246
:100AF000DF92EF92FF920F931F93CF93DF936C01DE
:100B00007B018B01040F151FEB015E01AE18BF08BE
:100B1000C017D10759F06991D601ED91FC91019070
:100B2000F081E02DC6010995892B79F7C501DF9188
:100B3000CF911F910F91FF90EF90DF90CF90BF90DA
:100B4000AF9008958091B70481110DC082E0809329
:100B5000B30484E08093B4041092B6041092B504F8
:100B600081E08093B70483EB94E008950F931F9383
:100B7000CF93DF931F92CDB7DEB782E0898342E443
:100B800050E065EB71E080E80E942C040E94A20511
:100B9000DC0112960D911C910115110589F0D80107
:100BA000ED91FC910280F381E02DBE016F5F7F4FDC
:100BB000C801099597FD04C0F80100851185ECCFA7
:100BC00089810F90DF91CF911F910F910895CF935D
:100BD000CFB7F8948091B20481115AC04DE954E026
:100BE000FA0194912CEB34E0F9018491E92FF0E0C3
:100BF000EE0FFF1FE258FB4FA591B4919C919823F3
:100C000009F037C0E7EAF1E09491F9012491FA0183
:100C10008491882309F42DC09923E9F091509F30E5
:100C2000D0F4E92FF0E0E95EF94F0C94E731580673
:100C30005C062606500654062B062B062B065F067E
:100C4000650669066D0673062B067706909180008F
:100C50009F7790938000E82FF0E0EE0FFF1FE059A0
:100C6000FB4FA591B4918FB7F8949C91292B2C93AD
:100C70008FBF81E10E9490028CB580618CBD8CB5E4
:100C800080648CBD8FE00E94900280E10E949002FF
:100C90008091B2048F5F8093B204CFBFCF9108954B
:100CA000909180009F7DD5CF90918000977FD1CF8C
:100CB00094B59F7794BDCFCF94B59F7DFBCF909196
:100CC00090009F7790939000C6CF909190009F7D69
:100CD000F9CF90919000977FF5CF9091C0009F77CA
:100CE0009093C000B8CF9091C0009F7DF9CF9091B4
:100CF000C200977F9093C200AECFCF93DF93EC01F9
:100D00008A85882329F081508A87DF91CF910895C1
:100D10009C818E819817C8F78D856827E881F981B5
:100D20000084F185E02D42E0CE0109958C818F5F32
:100D30008C83EBCF81E090E0089581E0089583E01B
:100D400090E0089584E090E00895EF920F931F9350
:100D5000F901DA012C913E2D309532233C933081FC
:100D60003E293083FC01D80198E080E030E020E0AB
:100D70004C914E2189F02A95D9F720E04C914E21D3
:100D800059F02A95D9F720E84C914E2129F02A955F
:100D9000D9F73A9561F717C047E04A95F1F7000097
:100DA00031E0550F4C914E2109F051609A9529F48C
:100DB0005193839598E0681731F020E84C914E21CB
:100DC00011F72A95D9F71F910F91EF9008959F92EF
:100DD000AF92BF92CF92DF92EF92FF920F931F9349
:100DE000CF93DF93DB016A01F22E282F30E0F90167
:100DF000E555FB4FE49024573B4FF901249130E037
:100E0000220F331FF901E258FB4FC591D491F9012C
:100E1000E059FB4FA590B490F901EE59FB4F0591B5
:100E200014919FB6F8942E2DA501BE01CD010E940C
:100E3000AF029501AE016F2DC6010E94A5069FBEAF
:100E4000DF91CF911F910F91FF90EF90DF90CF90A6
:100E5000BF90AF909F900895FC018FE086838FE74D
:100E6000878380871186128613860895FC0113827A
:100E700014821582168217820895DC01FB011296F6
:100E80002C911297848195812817190641F491813C
:100E90008081813A31F49D7F81E0913009F080E0DA
:100EA00008958132E1F79B3029F482811F968C935B
:100EB00081E008959A3099F7828150968C93F8CF0B
:100EC000EF92FF920F931F93CF93DF93FB0120814B
:100ED000213889F52381223271F5DC0112964C917B
:100EE000248135814217130631F58C01FC01C3853D
:100EF000D485F12CE12C209791F04C815D816A81A1
:100F00007B818E81811180E80E942C048F3F98079D
:100F100059F0E80EF91E0990D881C02DECCF81E080
:100F2000D8011F968C93C701DF91CF911F910F912C
:100F3000FF90EF90089590E080E0F6CFCF93DF939D
:100F4000CDB7DEB769970FB6F894DEBF0FBECDBF41
:100F5000FC01DB018C918F5F8C939E012D5F3F4FD5
:100F60008DE0D9011D928A95E9F729E0298384E073
:100F70008A8391E09D8383E08E832A8721E22B87F9
:100F80009C879D879F8722E2288B27E02B8B25E07B
:100F90002C8B8E8B20E430E0388F2F8B998F8281C1
:100FA0008B8395858685998B8A8B838180688D8BD1
:100FB00049E150E0BE016F5F7F4F80E00E942C044A
:100FC00069960FB6F894DEBF0FBECDBFDF91CF910B
:100FD00008958FB7F8948091AF048FBF089584E986
:100FE0008093BC0085E69091BC0094FF03C08150C3
:100FF000D1F7089581E008956EBD00000DB407FE9D
:10100000FDCF8EB508952A9A299A8C9A83EC90E0A8
:101010000197F1F708952A9A299A469A83EC90E06D
:101020000197F1F708958091D2049091D30401962D
:10103000853091052CF49093D3048093D2040895C5
:1010400081E090E0F8CF909132018917C0F4E82F49
:10105000F0E0EE0FFF1FE152FB4F80819181DC0138
:10106000ED91FC910190F081E02D0995E091DF0474
:10107000F091E0048FE787838087818782870895D6
:101080000895DC019C96EC919C979D962C91E2171B
:1010900030F4E80FF92FF11D848590E008958FEF6B
:1010A0009FEF0895FC0194A585A52FEF3FEF9817BA
:1010B00040F4DF01A90FB11D1C962C9130E09F5F19
:1010C00094A7C9010895FC0185A594A5891B990BD6
:1010D0000895CF92DF92EF92FF920F931F93CF93D9
:1010E000DF936C01EB017B01E40EF51E10E000E0E4
:1010F000CE15DF0561F06991D601ED91FC9101906B
:10110000F081E02DC6010995080F191FF1CFC80124
:10111000DF91CF911F910F91FF90EF90DF90CF90D3
:101120000895CF93DF93909132018917B0F4C82FBF
:10113000D0E0CC0FDD1FC152DB4F88819981DC01EB
:10114000ED91FC910190F081E02D0995E881F98104
:101150008FE78783808781878287DF91CF9108958A
:101160000F931F93CF93DF931F92CDB7DEB78C0100
:10117000FC0180819181892BD1F48781198223E040
:10118000A801BE016F5F7F4F0E94E706833059F0D0
:10119000F80110821182128280E00F90DF91CF91CE
:1011A0001F910F9108958BE891E00197F1F7F801F5
:1011B000878191E0998324E0A8014D5F5F4FBE01D4
:1011C0006F5F7F4F0E94E706843011F781E0E5CF23
:1011D0008CBD9DBD08958C9880917C0590917D0576
:1011E0000E94E80883EC90E00197F1F70895469893
:1011F00080917C0590917D050E94E80883EC90E049
:101200000197F1F708958F929F92AF92BF92CF927C
:10121000DF92EF92FF920F931F93CF93DF937C01A6
:101220006B015A01022F10E0D0E0C0E083EC882E61
:10123000912CC017D107E1F0D701ED91FC9104800A
:10124000F581E02D6AE5C114D10421F0D601AC0F7F
:10125000BD1F6C91C7010995A114B10421F0F501DE
:10126000EC0FFD1F8083C4010197F1F72196E1CFB8
:10127000DF91CF911F910F91FF90EF90DF90CF9072
:10128000BF90AF909F908F900895CF92DF92EF9292
:10129000FF920F931F93CF93DF937C016B01D42FA9
:1012A0008C010E5F1F4F23E0A8010E940309F70184
:1012B00023812F3F61F410E000E0C801DF91CF915E
:1012C0001F910F91FF90EF90DF90CF900895848150
:1012D0008A3511F08111EFCF2F70C22FCC0FD33090
:1012E00059F0B6016D5F7F4F2DEF2D0FA7014B5FBA
:1012F0005F4FC7010E9403092C2F2D1B2D5FE9F2C0
:101300004D2F50E0CA01820F911D8197A4F6400F26
:10131000511F70E060E0C7010E940309CECFAF9279
:10132000BF92CF92DF92EF92FF920F931F93CF93D2
:10133000DF9300D000D01F92CDB7DEB78C01DC0167
:101340009C961C929C97D9961C92D997ED91FC91F2
:101350000190F081E02D0995F80182AD811108C05E
:1013600083AD803409F083C084AD813009F07FC043
:1013700085E0EAE4F1E0DE01119601900D928A9594
:10138000E1F7D80196968D919C919797069709F071
:1013900068C0DD968C918C8345E0BE016F5F7F4F06
:1013A000C8010E9445097C01D801ED91FC910280A1
:1013B000F381E02DC8010995E114F10409F440C05E
:1013C000F7018181807F803F09F055C00E94F203C0
:1013D0006B017C01D801ED91FC910190F081E02D31
:1013E000C801099544E061E471E0C8010E94450923
:1013F0005C01D801ED91FC910280F381E02DC801E0
:101400000995A114B10429F0F5018181807F803F05
:1014100089F46AE070E080E090E00E94C0030E94DE
:10142000F2036C197D098E099F096B3F71058105D7
:10143000910580F262E370E080E090E00E94C003DA
:1014400080E00F900F900F900F900F90DF91CF9151
:101450001F910F91FF90EF90DF90CF90BF90AF90D2
:101460000895F80183AD8C8384AD8D8395CF43E0DF
:101470006AE471E095CFD80194968D919C919597EF
:1014800093969C938E9392972381348195963C9367
:101490002E93949781818937B9F483E090E09796F1
:1014A0009C938E939697D80196968D919C91979741
:1014B0008430910591F150F58230910571F10397D7
:1014C00009F441C081E0BDCF982F907F903721F47F
:1014D00082E090E0D801E3CF903531F484E090E0F1
:1014E000F80197A386A3DFCF833219F485E090E05B
:1014F000F1CF903E19F486E090E0F2CF833619F4F4
:1015000087E090E0E7CF81E090E0EACF8630910578
:1015100009F45CC030F10797A9F681E0D8019C96E8
:101520008C939C97F70185819A968C939A978681E4
:101530009B968C939B97878198968C9398978085A0
:1015400099968C93BFCF81E0F80181AFF70139966E
:101550009D96C701459621912D93E817F907D9F774
:10156000DCCF81E09C968C939C97F70195819896AF
:101570009C939897D9968C93D9978681D3968C9380
:10158000D3979781D4969C93D4974085D5964C93C6
:10159000D59797FF05C03F7795963C932E939497E8
:1015A00087FF0AC0D80194968D919C9195979F7B57
:1015B00095969C938E939497403F08F483CFF801BF
:1015C00084A195A19B7F95A384A37CCF81E09C9669
:1015D0008C93F7019681858197FD1AC087FD8FE76F
:1015E000D80198968C93D80198968C9198978058AA
:1015F00098968C939897F70185819D968C939D97EB
:1016000086819E968C939E9787819F968C935ACFC6
:10161000813808F481E8F80180A7E5CF9091320184
:10162000891778F4E82FF0E0EE0FFF1FE152FB4F2F
:1016300080819181DC01ED91FC910190F081E02DA0
:1016400009940895FC019081911107C083819481D0
:101650000196B1F090E080E008959F3051F422812E
:1016600030E02F7033272F30310581F482E090E095
:101670000895923041F0943049F485E090E0089567
:1016800083E090E0089584E090E0089581E090E0A8
:101690000895FC016093BC002FEF3FEF8091BC00E8
:1016A00087FF06C09091B900987F908381E00895EC
:1016B0002150310999F780E00895CF93DF93EC0131
:1016C0006093BB0064E80E94490B882329F081E005
:1016D0009881983209F080E0DF91CF910895DF92F0
:1016E000EF92FF920F931F93CF93DF93EC01D62ECF
:1016F000F42E8989882329F0411103C00E94EF0745
:10170000198A8E01015F1F4F8989811119C0E888EC
:1017100064EAC8010E94490B882361F08F858830F4
:1017200011F0803139F4EE0CE092BB0064E8C8019E
:101730000E94490B60E0F11060E4C8010E945D0B5B
:101740006D2DC8010E945D0B82E0F8120BC08989E3
:101750008F5F898BDF91CF911F910F91FF90EF9059
:10176000DF9008950E94EF07198AF4CFDC01ED9114
:10177000FC910084F185E02D40E00994FC01278173
:10178000269526952695621720F46583606B0C9448
:10179000B60B08950F931F93CF93FC012681621718
:1017A00098F4C62F8C0164836085C60F6C2F6F7010
:1017B0000E94B60B6C2F62956F706061C801CF916B
:1017C0001F910F910C94B60BCF911F910F9108951B
:1017D0001F93CF93DF93EC01142F0E94CA0B612F4C
:1017E000CE01DF91CF911F910C94BE0B2F923F92AF
:1017F0004F925F926F927F928F929F92AF92BF9221
:10180000CF92DF92EF92FF920F931F93CF93DF93CC
:1018100000D000D000D0CDB7DEB7FC0123853485E1
:101820002115310509F416C19E838D83F901329685
:10183000649031964491E42EF12CF7E0EF0EF11C08
:1018400053E0F594E7945A95E1F7E982F90134966B
:1018500054913196E4916D30F1F460E00E94CA0B2E
:1018600081E090E026960FB6F894DEBF0FBECDBFA4
:10187000DF91CF911F910F91FF90EF90DF90CF906C
:10188000BF90AF909F908F907F906F905F904F90A0
:101890003F902F9008956A3081F460E08D819E81A1
:1018A0000E94CA0BED81FE81868565818E9D600D4B
:1018B0001124CF010E94BE0BD3CF651708F4CAC014
:1018C0008E2F90E0FC01E50FF11D6E171F060CF046
:1018D000C1C089010A5F1F4F651BED81FE817185C3
:1018E0005685759F502D11245C83F90154912F5F0B
:1018F0003F4FF9012491352F2230310508F06AC09D
:101900006E9CC0016F9C900D1124689FF001699F2F
:10191000F00D11240E0F1F1F512CED81FE81F4815B
:10192000FA83ED81FE812580F285FB83862C912C44
:10193000AA24A394B12C312C8981381608F086C0D2
:10194000412CED81FE818685481608F078C08B8198
:101950008287311002C0442041F0ED81FE81458133
:101960004F5F6A81CF010E94E80BD12CC12CC614B5
:1019700008F058C0F801EC0DFD1D7490552061F081
:10198000EA14FB0449F4E72DF0E0052C02C0F595BC
:10199000E7950A94E2F77E2EED81FE8186858230FE
:1019A00081F4442009F43AC072948FE07822E72D44
:1019B000F0E0EA57FE4F7490672D8D819E810E9462
:1019C0007D06672D8D819E810E947D068FEFC81A4E
:1019D000D80ACDCF477028E0522E541A411101C0C9
:1019E000512CF801612C30E020E0661631F0449172
:1019F000240F311D63943196F8CF600E712E711C47
:101A0000F3016490E29EF001E39EF00DF29EF00D72
:101A100011248E0F9F1F080F191F7FCFF72DFF7006
:101A20007F2EC5CFD12CEC81DE1639F060E08D81A0
:101A30009E810E947D06D394F6CF439482CF339447
:101A4000080D191DFFEFAF1ABF0A76CF622D8D81E9
:101A50009E8130CF90E080E005CF0F931F93CF930E
:101A6000DF938C01D0E0C0E0F801EC0FFD1F649122
:101A7000662341F08CE995E00E94F60B892B11F06A
:101A80002196F2CFCE01DF91CF911F910F91089552
:101A9000CF92DF92EF92FF920F931F93CF93DF933A
:101AA000EC01F62EC42ED22E1A868F81869586954D
:101AB0008695081710F00FEF080F1D2D011780F005
:101AC000412F6F2DCE010E94E80BEF2CCE1430F089
:101AD0006D85CE010E947D06E394F8CF1F5FEECFA7
:101AE0004D2D6F2DCE01DF91CF911F910F91FF9062
:101AF000EF90DF90CF900C94E80B0F93FC010781DF
:101B000006950695069501504681415020E060E01B
:101B10000E94480D0F9108954F925F926F927F92AD
:101B20008F92AF92CF92EF92FF920F931F93CF932A
:101B3000DF93CDB7DEB72701380194E0899F80019C
:101B40001124F801E658FB4F80819181A281B38175
:101B50008E219521A621B72131E0892B8A2B8B2B51
:101B600009F430E03C1103C08889882301F1C110D9
:101B700001C0A82C2D5F640F422F8CE995E00E94D4
:101B8000E80B6A2D8CE995E00E94F60BF801E65807
:101B9000FB4FCC20D1F080819181A281B381842937
:101BA0009529A629B72980839183A283B383DF91E6
:101BB000CF911F910F91FF90EF90CF90AF908F90AA
:101BC0007F906F905F904F900895409450946094F0
:101BD000709480819181A281B38184219521A62175
:101BE000B721E1CF8F929F92AF92BF92CF92DF92B7
:101BF000EF92FF920F931F93CF93DF93D82EC62FB0
:101C0000E82FF0E0EE0FFF1FE754FC4FB08007E035
:101C100023E041816B2D8CE995E00E94480D47E05F
:101C20006B2D8CE995E00E94E80BC13069F589E0E5
:101C300091E00E942D0D81E08D15C8F0C7E2D2E041
:101C400099249394E880F9800A811B819F928F8068
:101C5000AE80CC24C3942C814D816B2D8D2D0E94A0
:101C60008C0D28960F9082E0C739D80759F7DF917D
:101C7000CF911F910F91FF90EF90DF90CF90BF9089
:101C8000AF909F908F9008958AE194E0DF91CF917B
:101C90001F910F91FF90EF90DF90CF90BF90AF908A
:101CA0009F908F900C942D0D0F9307E022E04FE74B
:101CB00060E08CE995E00E94480D8091D2049091FB
:101CC000D30482309105E1F020F4019779F00F916F
:101CD00008958330910521F10497C9F766E38CE9F3
:101CE00095E00E94CA0B8BE191E007C064E28CE9A9
:101CF00095E00E94CA0B82E391E00F910C942D0DA8
:101D00006EE18CE995E00E94CA0B87E191E00E94A8
:101D10002D0D82E191E00E942D0D8DE091E0EDCF3F
:101D200066E08CE995E00E94CA0B8FE191E0E5CF77
:101D3000809312016EEA81116FEA8CE995E00E94AE
:101D4000B60B0E94F2036093900470939104809309
:101D50009204909393040895FC01448550E0A58576
:101D6000B0E0AA0FBB1FA151BB4F0D90BC91A02D9D
:101D700013968C9180649091F304BF01992321F014
:101D80006E5F7F4F0C9468046D5F7F4FFBCF0895AB
:101D900090E080E00895CF92DF92FF920F931F931F
:101DA000CF93DF936C0170E06F5F7F4F7595679500
:101DB0009091B004961758F09091B104FF24F394D9
:101DC00001E010E0961730F082E0F82E6AC0F12CA6
:101DD00010E000E0F801E055FB4F81E0890F8083BF
:101DE00091115FC083E190E00E94ED31EC0191E040
:101DF0009C839D839E01265F3F4F3F832E831986E0
:101E000018862BE133E0398328831C861B861E86C7
:101E10001D869F87988BDA8AC98A81EC8A870E94FF
:101E2000A205FC0181813C81682F630F7727771F12
:101E3000683071057CF5A281B3811097F9F4D383E2
:101E4000C28390819A838B838D81890F808390E0F8
:101E500080E08317F8F42181A22FB0E0BD016B5D13
:101E60007E4F4E815F81480F591FDA014C91DB0193
:101E70004C932F5F21830196ECCFDA0118964D9198
:101E80005C91199741155105C1F71996DC93CE93D2
:101E90001897D7CF000F111FF801E151FB4FD183E5
:101EA000C0838F2DDF91CF911F910F91FF90DF9015
:101EB000CF9008954F925F926F927F928F929F92F0
:101EC000AF92BF92CF92DF92EF92FF920F931F9348
:101ED000CF93DF93CDB7DEB7C456D1090FB6F894D0
:101EE000DEBF0FBECDBF3C01CB01D42EF22EE89653
:101EF000BFACE897E9969FACE99721ED33E0D301B9
:101F00002D933C936F2D0E94CB0E182FF3018587E4
:101F100081E08F1508F080E08093F30487ED93E073
:101F2000D30111969C938E931296DC922C2D2A0D40
:101F30002E0D200FBB2DB90D5B2E580C822F850D59
:101F400095E0980FF301948735E0398391E09A8307
:101F500049E04B833C8331EA3D839E839F1508F023
:101F6000F6C385E88F83D88698E0E1E0F0E0EC0FD7
:101F7000FD1FE90FF11D45E04083E1E0E90F662414
:101F80006394712C6C0E7D1E6E0E711CF30159E072
:101F90005083E2E0E90F61E070E06C0F7D1F6E0F8F
:101FA000711DFB0189E18083E3E0E90FA1E0B0E06E
:101FB000AC0FBD1FAE0FB11DFD0131E03083E4E079
:101FC000E90F66246394712C6C0E7D1E6E0E711CDD
:101FD000F30189E28083E5E0E90F61E070E06C0FD6
:101FE0007D1F6E0F711DFB0188E18083E6E0E90F24
:101FF000A1E0B0E0AC0FBD1FAE0FB11DFD0175E15A
:10200000472E4082E7E0E90F66246394712C6C0E42
:102010007D1E6E0E711CF3011082E8E0E90F61E095
:1020200070E06C0F7D1F6E0F711DFB01A5E2FA2E93
:10203000F082E9E0E90FA1E0B0E0AC0FBD1FAE0F08
:10204000B11DFD013083EAE0E90F66246394712C31
:102050006C0E7D1E6E0E711CF30175E77083EBE054
:10206000E90FA1E0B0E0AC0FBD1FAE0FB11DFD0147
:102070003083ECE0E90F66246394712C6C0E7D1EB6
:102080006E0E711CF30165E96083EDE0E90FA1E0DC
:10209000B0E0AC0FBD1FAE0FB11DFD018083EEE0BF
:1020A000E90F66246394712C6C0E7D1E6E0E711CFC
:1020B000F30181E88083EFE0E90FA1E0B0E0AC0F2D
:1020C000BD1FAE0FB11DFD01A2E0DA2ED082E0E10E
:1020D000E90F66246394712C6C0E7D1E6E0E711CCC
:1020E000F3014083E1E1E90FA1E0B0E0AC0FBD1FD7
:1020F000AE0FB11DFD013083E2E1E90F6624639468
:10210000712C6C0E7D1E6E0E711CF3015083E3E189
:10211000E90FA1E0B0E0AC0FBD1FAE0FB11DFD0196
:1021200049E34083E4E1E90F66246394712C6C0E6B
:102130007D1E6E0E711CF3014082E5E1E90FA1E006
:10214000B0E0AC0FBD1FAE0FB11DFD011082E6E186
:10215000E90F66246394712C6C0E7D1E6E0E711C4B
:10216000F301F082E7E1E90FA1E0B0E0AC0FBD1FA1
:10217000AE0FB11DFD0147E04083E8E1E90F6624A1
:102180006394712C6C0E7D1E6E0E711CF30145E381
:102190004083E9E1E90FA1E0B0E0AC0FBD1FAE0F55
:1021A000B11DFD011082EAE1E90F66246394712CF0
:1021B0006C0E7D1E6E0E711CF30146E44083EBE154
:1021C000E90FA1E0B0E0AC0FBD1FAE0FB11DFD01E6
:1021D0004BE34083ECE1E90F66246394712C6C0EB1
:1021E0007D1E6E0E711CF3013083EDE1E90FA1E05D
:1021F000B0E0AC0FBD1FAE0FB11DFD0145E6408341
:10220000EEE1E90F66246394712C6C0E7D1E6E0E58
:10221000711CF30144E14083EFE1E90FA1E0B0E07C
:10222000AC0FBD1FAE0FB11DFD017083E0E2E90FE1
:1022300066246394712C6C0E7D1E6E0E711CF3016E
:1022400048E04083E1E2E90FA1E0B0E0AC0FBD1F40
:10225000AE0FB11DFD016083E2E2E90F66246394D5
:10226000712C6C0E7D1E6E0E711CF3013083E3E247
:10227000E90FA1E0B0E0AC0FBD1FAE0FB11DFD0135
:102280008083E5E2E90F84E2890F66246394712C70
:102290006C0E7D1E680E711CD301DC92222309F4A2
:1022A00000C166246394712C6C0E7D1E6E0E711C31
:1022B000F3015083E6E2E90FA1E0B0E0AC0FBD1FEF
:1022C000AE0FB11DFD013083E7E2E90F6624639490
:1022D000712C6C0E7D1E6E0E711CF3014082E8E2C3
:1022E000E90FA1E0B0E0AC0FBD1FAE0FB11DFD01C5
:1022F0001082E9E2E90F66246394712C6C0E7D1E56
:102300006E0E711CF30186E28083EAE2E90FA1E020
:10231000B0E0AC0FBD1FAE0FB11DFD018FEF80838C
:10232000EBE2E90F66246394712C6C0E7D1E6E0E39
:10233000711CF3011082ECE2E90FA1E0B0E0AC0FF8
:10234000BD1FAE0FB11DFD017083EDE2E90F6624E4
:102350006394712C6C0E7D1E6E0E711CF301408314
:10236000EEE2E90FA1E0B0E0AC0FBD1FAE0FB11D72
:10237000FD016083EFE2E90F66246394712C6C0E1B
:102380007D1E6E0E711CF3012083E0E3E90F21E056
:1023900030E02C0F3D1F2E0F311DF90181EA8083A3
:1023A00082E3890FE1E3E90F61E070E06C0F7D1FCC
:1023B0006E0F711DFB011082002391F0E1E0F0E04F
:1023C000EC0FFD1FE80FF11D508384E3890F9D5C26
:1023D000E1E0F0E0EC0FFD1FE90FF11D90E39083C9
:1023E000EE20A1F0E1E0F0E0EC0FFD1FE80FF11DA1
:1023F00099E09083E1E0E80FA1E0B0E0AC0FBD1FF1
:10240000AE0FB11DFD0191E390838E5FCC20A9F04A
:10241000E1E0F0E0EC0FFD1FE80FF11D99E0908383
:10242000E1E0E80F66246394712C6C0E7D1E6E0E45
:10243000711CF30192E390838E5FAA20A1F0E1E08A
:10244000F0E0EC0FFD1FE80FF11D99E09083E1E053
:10245000E80F21E030E02C0F3D1F2E0F311DF90158
:1024600095E390838E5FE1E0F0E0EC0FFD1FE80F55
:10247000F11D91E89083E1E0E80F61E070E06C0FFE
:102480007D1F6E0F711DFB0192E09083E3E0E80F6A
:102490008E5FA1E0B0E0AC0FBD1FA80FB11D20EC16
:1024A0002C93552009F4FAC025E081E090E08C0FD0
:1024B0009D1F8E0F911DDC012C9381E08E0F6624F1
:1024C0006394712C6C0E7D1E680E711C22E0D3018A
:1024D0002C9382E08E0F66246394712C6C0E7D1E0B
:1024E000680E711C25E1D3012C9383E08E0F6624C6
:1024F0006394712C6C0E7D1E680E711CD3011C92AE
:1025000084E08E0F66246394712C6C0E7D1E680E21
:10251000711C26E2D3012C9385E08E0F6624639410
:10252000712C6C0E7D1E680E711C2FEFD3012C9345
:1025300086E08E0F66246394712C6C0E7D1E680EEF
:10254000711CD3011C9287E08E0F66246394712C5A
:102550006C0E7D1E680E711C25E7D3012C9388E05C
:102560008E0F66246394712C6C0E7D1E680E711C98
:1025700028E0D3012C9389E08E0F66246394712C9C
:102580006C0E7D1E680E711C25E9D3012C938AE028
:102590008E0F66246394712C6C0E7D1E680E711C68
:1025A000D3015C92ABE0AE0F66246394712C6C0E89
:1025B0007D1E6A0E711CD30181EA8C934DE04E0F93
:1025C0008CE08E0F21E030E02C0F3D1F280F311DD5
:1025D000D9011C928820A9F0A1E0B0E0AC0FBD1F8A
:1025E000A40FB11D89E08C934FE04E0FE25F66248B
:1025F0006394712C6C0E7D1E6E0E711CF3018BEBBF
:102600008083BB20A1F0E1E0F0E0EC0FFD1FE40FC0
:10261000F11D89E08083E1E0E40F21E030E02C0F40
:102620003D1F2E0F311DF90185EC80834E5F9920EF
:10263000A1F0E1E0F0E0EC0FFD1FE40FF11D89E0F7
:102640008083E1E0E40F61E070E06C0F7D1F6E0FAE
:10265000711DFB0188EC80834E5FE1E0F0E0EC0F40
:10266000FD1FE40FF11D81E88083E1E0E40F81E0CC
:1026700090E08C0F9D1F8E0F911DFC0182E08083E6
:10268000E3E0E40FA2E0A40F66246394712C6C0EC7
:102690007D1E6A0E711CD30180EC8C93A1E0B0E02A
:1026A000AC0FBD1FAE0FB11D80EC8C93EF5FEE2E13
:1026B000F12CC7010E94ED316C01A701BE016F5FD3
:1026C0007F4F0E94173387E090E00E94ED31DC01DC
:1026D00011961C921E921396DC92CE92129715962A
:1026E000FC92EE92149716961C921697E12FF0E04A
:1026F000EE0FFF1FE151FB4F40815181FA018385AD
:102700009485009749F5B487A387FA018585968556
:1027100014962D913C91820F931F96878587CC59F3
:10272000DF4F0FB6F894DEBF0FBECDBFDF91CF9164
:102730001F910F91FF90EF90DF90CF90BF90AF90DF
:102740009F908F907F906F905F904F9008958C5FD7
:10275000848796E00ACCC901FC01208131812115D2
:102760003105C9F7B183A083D0CF0E941233CF9334
:10277000DF93FC012085318580E0232B69F4EB0198
:1027800061897289CE010E942033FE0101900020F0
:10279000E9F731978E2F8C1BDF91CF9108951F920F
:1027A0000F920FB60F9211242F933F938F939F9305
:1027B000AF93BF938091D5049091D604A091D70494
:1027C000B091D8043091D40423E0230F2D3758F56D
:1027D0000196A11DB11D2093D4048093D50490933C
:1027E000D604A093D704B093D8048091D9049091D3
:1027F000DA04A091DB04B091DC040196A11DB11DA7
:102800008093D9049093DA04A093DB04B093DC04A2
:10281000BF91AF919F918F913F912F910F900FBEDC
:102820000F901F90189526E8230F0296A11DB11D49
:10283000D2CF1F920F920FB60F9211248F939F93B6
:102840008091E1009091E100937F9093E10083FFFC
:102850000FC01092E90091E09093EB001092EC0011
:1028600092E39093ED001092DE0498E09093F000D4
:1028700082FF22C093E09093E9009091F2009923A7
:1028800019F09AE39093E8009091C404992341F0E1
:102890009091C40491509093C404911101C05D9A29
:1028A0009091DD04992341F09091DD049150909333
:1028B000DD04911101C0289A84FF18C08091E200C4
:1028C0008E7E81608093E2008091E1008F7E809314
:1028D000E1008091C5048E7E80618093C5049F9144
:1028E0008F910F900FBE0F901F90189580FFF7CF1C
:1028F0008091E2008E7E80618093E2008091E10011
:102900008E7E8093E1008091C5048E7E8160E5CF4C
:102910001F920F920FB60F921124CF92DF92EF9277
:10292000FF920F931F932F933F934F935F936F9358
:102930007F938F939F93AF93BF93EF93FF93CF9327
:10294000DF93CDB7DEB76C97DEBFCDBF1092E90045
:102950008091E80083FF25C068E0CE0145960E9483
:10296000180582EF8093E8008D8987FF39C0909128
:10297000E80090FFFCCF982F907609F034C19E8933
:102980004F89588D2F89F88C911131C0803861F5AD
:102990008091C6048093F1001092F1008EEF809335
:1029A000E8006C960FB6F894DEBF0FBECDBFDF9186
:1029B000CF91FF91EF91BF91AF919F918F917F91B7
:1029C0006F915F914F913F912F911F910F91FF90C8
:1029D000EF90DF90CF900F900FBE0F901F90189543
:1029E0009EEF9093E800C7CF1092F100D5CF9130C1
:1029F00059F48111D3CF4130510581F68091C6043D
:102A00008D7F8093C604CACF933049F48111C6CF1D
:102A10004130510519F68091C6048260F2CF95309D
:102A200041F48091E80080FFFCCF20682093E30010
:102A3000B5CF963009F0A9C00B8D1C8D22E0109205
:102A4000E9001092C2041092C104F2122EC010923A
:102A5000C0041092BF040E94B6051F8299E09983BA
:102A6000FA8291E09E8390EA98879AEF9987209165
:102A7000C1043091C204275F3F4F3C832B838D8379
:102A80001092E9001092C2041092C1041093C00485
:102A90000093BF0449E050E0BE016F5F7F4F80E0CC
:102AA0000E942C040E94B60579CF1093C0040093B5
:102AB000BF040E94A205DC0112960D911C91011524
:102AC000110509F451C1D801ED91FC910480F58103
:102AD000E02DBE016B5E7F4FC8010995009709F09C
:102AE0003EC1F80100851185EACFF3E0FF120EC068
:102AF0008F89882309F440C0823061F440E86CE09B
:102B000085E192E00E942229811148CF81E28093E1
:102B1000EB0047CF813029F440E867E08DE092E098
:102B2000F1CF833099F70E94A205DC011296ED9057
:102B3000FC908E010F5F1F4F6801E114F10479F0E2
:102B4000D701ED91FC910680F781E02DB801C70116
:102B50000995080F111DF701E084F184EECFD8012B
:102B60001C92F60101900020E9F73197BF016C1922
:102B70007D0940E0C601C6CF67EF71E0FB014491DB
:102B800050E080E80E942C0409CF973009F4BECFB2
:102B9000983021F481E08093F10000CF993009F062
:102BA000FDCE837009F0B2CFE6E2F1E081E031E0E2
:102BB00096E32191222371F08093E9003093EB009A
:102BC000DF0111972C912093EC009093ED008F5F23
:102BD000873079F78EE78093EA001092EA008F89B8
:102BE0008093DE04DBCE8B8D9C8D1092E9001092D9
:102BF000C2041092C1049093C0048093BF04898DD5
:102C0000811192C08E899D89913A49F4813209F0EF
:102C10007DCF47E050E063E371E080E0B3CF9132D5
:102C200009F074CF833269F48F89988DB0E0A0E009
:102C300080932C0190932D01A0932E01B0932F012E
:102C4000ADCE803269F48091E80082FFFCCF67E06E
:102C500083E391E00E9418058BEF8093E8009ECEFD
:102C6000823209F09BCE8F8980933A01EEEFFFE725
:102C7000859194918B3F9C4D51F1E0E0F8E080917B
:102C8000330190913401A0913501B0913601803B20
:102C90009440A105B105F1F480913A0180FD1AC07C
:102CA000EE3F8AE0F80789F587E797E7918380830D
:102CB000809160008093C30488E19BE00FB6F89494
:102CC000A895809360000FBE9093600067CEEEEFF2
:102CD000FAE0D5CF808191818737974709F05ECEA2
:102CE000A895809160008861809360008091C30402
:102CF00080936000EE3F2AE0F20789F08091FE0A9F
:102D00009091FF0A9183808349CE8081918187379A
:102D1000980751F29093FF0A8093FE0AC5CF109254
:102D2000FF0A1092FE0A3ACE0E94A205DC0112961A
:102D30000D911C910115110509F4E8CED801ED9112
:102D4000FC910190F081E02DBE016B5E7F4FC801C8
:102D50000995811123CEF80100851185EBCF181656
:102D600019060CF41BCED2CEF1E0FF12BECE6BEFF3
:102D700071E004CF71E02D98259A24982C9A0000D8
:102D8000000000000E94A02825982D9A0E94A028EB
:102D9000A8940000000000001D9B0E948828F2F00B
:102DA00088941C990894771F30F72D98259A8030C5
:102DB00021F024982C9A0C94DF162C98249A000069
:102DC000000000000E94A02825982D9AA8940000D9
:102DD00000001D9B0E9488280E94A028000000007F
:102DE0002D98259A872F9927089580E208950894B1
:102DF000881F0C94FC16880F11F12D98259A00005D
:102E00000000000028F4000024982C9A0C940C1761
:102E10002C98249A0C940C170E94A02825982D9A7F
:102E2000A8940000000000001D9B0E9488281AF44E
:102E300088270C9435170E94A0280C94FB162D9817
:102E4000259A0000000024982C9A0E94A028992717
:102E5000882725982D9AA89400001D9B0E948828F9
:102E60003AF31C9B81E00E94A028000000002D98EE
:102E7000259A089581E00895CF93DF93EC01862F82
:102E80000E94F716811108C08FA5811102C083E04E
:102E90008FA790E080E002C081E090E0DF91CF91C9
:102EA00008952D98259A2C98249A0E94A028259858
:102EB0002D9A0E94A0281D9B0E94882824982C9A55
:102EC0000E94A02808958F93F1E0E4EF8F918F93F3
:102ED0001D9B0E9488282C98249A0E94A0280E945A
:102EE000F716882331F40E945117319711F00C9492
:102EF000661799270F90089581E008952D98259AD7
:102F00000E94A02824982C9A0E94A02825982D9AE7
:102F10000E94A0281D9B0E9488282C98249A0E9419
:102F2000A0280E94F716089581E008951D9B0E9435
:102F300088282C98249A0E94A0280E94F7160895A9
:102F400081E008951F93CF93DF93EC011EA584EADF
:102F5000112371F00E947E17811108C082E08FA7B3
:102F600081E08EA7DF91CF911F91089580E0F7CF88
:102F70000E949617811101C012E01FA7F1CFFF92A6
:102F80000F931F93CF93DF93EC01F62E042F122F94
:102F90000E94A217E881F9810190F081E02D6F2D48
:102FA000CE010995E881F9810190F081E02D602F33
:102FB000CE0109950FA50E9451171EA61FA680E0FD
:102FC000011107C0112321F087EB92E00197F1F77F
:102FD00081E0DF91CF911F910F91FF900895AF9203
:102FE000BF92CF92DF92EF92FF921F93CF93DF9326
:102FF000EC011FA6162F613208F010E28EA588237F
:1030000031F185EA0E947E1791E089279FA59111F1
:1030100004C0882311F082E08FA76E018CE0C80EF7
:10302000D11CF12CE12CE12FE150FF0B5F01E116E7
:1030300090F481E0AE14BF0409F080E00E94BA165B
:10304000F60181936F01FFEFEF1AFF0AF0CF85EAD7
:103050000E949617D9CF1CA68FA5811110E01DA73D
:103060001EA60E9451178DA5DF91CF911F91FF9051
:10307000EF90DF90CF90BF90AF900895EF92FF92C6
:103080000F931F93CF93DF93EC01162F7A010E94C9
:10309000A217E881F9810190F081E02D60E0CE0176
:1030A00009950FA50E9451171EA61FA6011110C059
:1030B00087EB92E00197F1F7612FCE010E94EF17A5
:1030C000482F50E0B701CE010E94250591E018136A
:1030D00090E0892FDF91CF911F910F91FF90EF909A
:1030E0000895AF92BF92CF92DF92EF92FF920F932B
:1030F0001F93CF93DF93CDB7DEB760970FB6F894E9
:10310000DEBF0FBECDBF8C0197EBE92E92E0F92E0A
:10311000C7010197F1F7D8011296ED91FC9121E0DA
:1031200043E06EEF808191810E94BF17FE013196CE
:103130006F01811111C0D8011296ED91FC91A60189
:1031400066E070E0808191810E943E18882309F436
:1031500043C0C7010197F1F788E05E01B9E0AB0E0B
:10316000B11CF501282F11922A95E9F7D6011D927D
:103170008A95E9F787EBE82E82E0F82ED8011296BF
:10318000ED91FC91A50168E070E0808191810E9441
:103190003E18882309F443C0C7010197F1F7D8010D
:1031A0001296ED91FC91A60168E070E0808191811A
:1031B0000E943E18882399F12985998129131DC001
:1031C0002A859A81291319C09F8591111AC098895F
:1031D000911117C0F801148260960FB6F894DEBF03
:1031E0000FBECDBFDF91CF911F910F91FF90EF9058
:1031F000DF90CF90BF90AF900895C7010197F1F78E
:10320000BDCF91E0D80114969C9314971296ED913E
:10321000FC919481983000F798E09483DDCF80E0B2
:10322000DBCF2F923F924F925F926F927F928F925D
:103230009F92AF92BF92CF92DF92EF92FF920F9345
:103240001F93CF93DF93CDB7DEB7AB970FB6F8944C
:10325000DEBF0FBECDBF0E949B03C0903001D09057
:1032600031018090AB049090AC04A090AD04B0907C
:10327000AE04681979098A099B094601B12CA12C71
:10328000681579058A059B0508F469C48091D20404
:103290009091D3048230910509F4A4C428F40197D5
:1032A00009F4C2C0D12C47C48330910511F40C94A9
:1032B00039220497B9F780911701882331F01092D1
:1032C000170190E080E00E94CB29D09097040091F4
:1032D000D0041091D104D1100C943225D80112964B
:1032E000ED91FC91E080F18020E045E560EFC701C1
:1032F0000E94BF17882311F40C941F256AE070E028
:1033000080E090E00E94C00320E040E06BEFC70146
:103310000E94BF17882311F40C941F2564E170E00C
:1033200080E090E00E94C003F801E280F380D701C2
:10333000AD90BC90C5010E94A217D501ED91FC9102
:103340000190F081E02D6AEFC5010995F501C7A450
:103350000E945117D5019E961C929E979F961C9293
:10336000CC2011F40C94BB2490E080E0F70193830F
:103370008283C8010E945529C82E882311F40C9419
:103380002525D8011296ED91FC91359685E1DF0156
:103390001D928A95E9F7D8011296ED91FC91139749
:1033A00086E08483ED91FC910190F081E02DC801CD
:1033B0000995882311F40C942525F801068D178DA5
:1033C0000115110511F40C942E25D801ED90FC90F7
:1033D000C7010E945529882311F40C942925D7018F
:1033E000ED91FC910190F081E02DC7010995C82E67
:1033F000882311F40C94292581E08093970480E0C0
:103400000E942308E091D004F091D1040280F3815E
:10341000E02D828193810E94CB2982E390E09093FA
:1034200031018093300187C39E012F5F3F4F38A346
:103430002F8F8CE0D9011D928A95E9F780912401A4
:10344000882381F01092240180913201833050F062
:1034500045E064E28CE995E00E94E80B8CE791E09E
:103460000E942D0D80919205809397058091930580
:103470009091940590939905809398058091950576
:103480009091960590939B0580939A05A091900545
:10349000109290052C9A8BE290E00197F1F72C980E
:1034A00083E190E00197F1F790E080E030E020E0E8
:1034B00043E150E06CB166FBEE24E0F8F12CB7017B
:1034C000082E02C0660F771F0A94E2F7262B372BCF
:1034D0002D98FA013197F1F72D9AFA013197F1F70A
:1034E00001968031910531F7832F82958F7090E19D
:1034F0008D3009F091E070E060E050E040E0E3E101
:10350000EE2EF12CECB1E6FB002700F910E0F801FB
:10351000062E02C0EE0FFF1F0A94E2F74E2B5F2B20
:103520002D98F7013197F1F72D9AF7013197F1F7BF
:103530006F5F7F4F691730F3982F909520953095E6
:10354000409550958F3021F44E3FBFEF5B07E1F17E
:10355000E091900561E06E0F6093900561E070E08E
:10356000E11102C070E060E0811113C0E32FFF277A
:10357000EF70FF273F9769F48AE0869FF001879FED
:10358000F00D1124E357FA4F8FE085835187408770
:1035900011C092FFD5C08AE0869FF001879FF00D91
:1035A0001124E357FA4F84E085839370892F90E0CC
:1035B000918780878AE0869FF001879FF00D112414
:1035C000E357FA4F37832683809190058A17B8F422
:1035D0004AE09FEF21E030E0811102C030E020E0BE
:1035E000429FF001439FF00D1124E357FA4F95835A
:1035F00017821682118610868F5FA813EBCF8091F9
:10360000830580938805809184059091850590932A
:103610008A0580938905809186059091870590930E
:103620008C0580938B0560918105109281058E9A9F
:103630008BE290E00197F1F78E9883E190E001979B
:10364000F1F750E040E090E080E0E3E1F0E02FB1FE
:10365000022E000C330B2227330F221F3327042E98
:1036600002C0220F331F0A94E2F7822B932B8D980E
:10367000DF011197F1F78D9ADF011197F1F74F5F95
:103680005F4F4031510519F7792F72957F7010E126
:103690007D3009F011E0F0E0E0E050E040E0B3E11F
:1036A000EB2EF12C2FB1022E000C330B2227330FFF
:1036B000221F33270E2E02C0220F331F0A94E2F777
:1036C000422B532B8D98D7011197F1F78D9AD70183
:1036D0001197F1F73196E11728F3272F20958C01E8
:1036E00000951095409550957F3029F44E3FBFEFDF
:1036F0005B0709F447C08091810591E0980F909392
:103700008105E1E0F0E0811102C0F0E0E0E08AE054
:103710008E9FD0018F9FB00D1124A258BA4F711106
:103720001AC0812F99278F7099270F97A1F48FE0E6
:1037300015968C93159719965C934E93189717C00E
:103740009AE0969FF001979FF00D1124E357FA4FEE
:103750009FE089271ACF22FF76C084E015968C93CC
:103760001597237030E019963C932E9318972AE012
:103770002E9FC0012F9F900D1124FC01E258FA4F9B
:1037800017830683E0918105ECA3E617C0F48E2F22
:103790004AE09FEF21E030E0811102C030E020E0FC
:1037A000429FF001439FF00D1124E258FA4F958398
:1037B00017821682118610868F5F6813EBCFF09107
:1037C0009005F9A32CA1F20FFBA36FED74E07FA38A
:1037D0006EA3B12CD12C809132017BA17B1509F411
:1037E0005AC1B81609F457C19924939499A1B916EE
:1037F00008F4912CA9A121E030E0BA1650F5B110DF
:1038000002C030E020E0BAE0B29FA001B39F500DAB
:103810001124FA01EE56FA4F3F01823061F5B9A149
:10382000BB2309F4A7C0CF010E94220BE92DF0E0D1
:10383000EE0FFF1F21E030E02C0F3D1FE20FF31FC2
:103840009183808318C09FE0972715969C931597C6
:1038500072CFF9A1BF1202C030E020E06AE0629F9F
:10386000A001639F500D1124DA01AD57BA4F3D01FD
:10387000823009F47FC0D3018C9115969C911597E5
:10388000891323C011964D915C91129716962D9134
:103890003C9117974217530759F413964D915C9139
:1038A000149718962D913C914217530709F45AC06A
:1038B000811119C0F301838194810196A1F4D30190
:1038C00018968D919C91019671F08B2D0E940E0B94
:1038D00080913201823039F4C3010E94220BBC0175
:1038E000892D0E94812BC3010E94220B1C01F30130
:1038F00081819281DC01A095B095F4E0B695A79501
:10390000FA95E1F71A2F1F709C0121703327AC0143
:103910005695479570E060E04170552766277727F8
:10392000F2E02F163104C1F5232B09F0426082FD2D
:10393000516083FD5260AEA1BFA1ED91FC91438324
:1039400054836583A12FB0E0A354BC4F8C91868330
:10395000CF010E94AC0E80913201823009F45CC02C
:10396000DD24D394B3946EA17FA16E5F7F4F7FA3BC
:103970006EA331CF3CA1332309F47DCFC3010E9454
:10398000220BE92DF0E0EE0FFF1F61E070E06C0FFD
:103990007D1FE60FF71F54CF232B09F0426090FDE7
:1039A000446091FD486092FD406193FD406224E0D7
:1039B0002216310421F5D30113962D913C9134FD4B
:1039C000406435FD406820FD546021FD586022FDB3
:1039D000506123FD506224FD506425FD506826FD92
:1039E000616027FD626030FD646031FD686032FD1A
:1039F000606133FD606237FF9ACF606498CFB5E0B5
:103A00002B16310409F093CFF301238120FD40648C
:103A100021FF8DCF40688BCF77E9472E72E0572E7C
:103A2000D12C892D90E0880F991FFC01E754FC4FA1
:103A3000FBA7EAA7F2E02F16310449F427E02D1581
:103A400010F133E0F201E05AFF4F3D1508F4F201A6
:103A5000E080F18002811381D30111968D919C91B8
:103A60008E219F21CC24C394892B09F4C12C1F9251
:103A70008780A68024814581EAA5FBA56081892DE8
:103A80000E948C0D0F90D394F8E04F0E511C2CE047
:103A9000D212D0CF65CF09811A81823079F480911A
:103AA0001801909119010817190741F00115110526
:103AB00029F470E060E080E00E94812B10931901EE
:103AC000009318010B811C8180913201823079F4BE
:103AD00080911A0190911B018017910741F0011507
:103AE000110529F470E060E081E00E94812B1093C1
:103AF0001B0100931A018091AA047BA17817C0F4DE
:103B0000172F8091AA04181798F480913201181782
:103B100079F0812F0E940E0BE12FF0E0EE0FFF1FD6
:103B2000E152FB4F808191810E94AC0E1F5FE9CF73
:103B30008BA18093AA040E949B036093AB047093B3
:103B4000AC048093AD049093AE04DD2041F08091ED
:103B5000120181110C94EE2781E00E94980E809151
:103B600012018823B1F00E94F20300919004109199
:103B700091042091920430919304601B710B820B8D
:103B8000930B603C744D8140910518F080E00E94D9
:103B9000980E4E990EC06CE271E080E090E00E94B9
:103BA000C0038091120181110C94FA2781E00E94D8
:103BB000980EAB960FB6F894DEBF0FBECDBFDF9167
:103BC000CF911F910F91FF90EF90DF90CF90BF901A
:103BD000AF909F908F907F906F905F904F903F90AD
:103BE0002F9008951092EB048091A80481115FC07A
:103BF0008091A90481115BC08091CA0481110DC01C
:103C00008091780590917905DC01ED91FC91068019
:103C1000F781E02D09958093CA048093A8048091D0
:103C2000CB0481110DC080917A0590917B05DC0158
:103C3000ED91FC910680F781E02D09958093CB04EE
:103C40008093A90481E00E94980E07E027E04FE7E7
:103C500060E08CE995E00E94480D67E08CE995E012
:103C60000E94BE0B60E08CE995E00E94CA0B809137
:103C7000A80481110BC08091A904811103C08AE1BD
:103C800094E002C084E691E00E942D0D62E48CE98C
:103C900095E00E94CA0B9091A8048091A9049923F1
:103CA00061F1811104C084E691E00E942D0D38E796
:103CB000A32E35E0B32E46EAE42E44E0F42E58EA73
:103CC000652E54E0752E10E000E099249394F501E0
:103CD000819191915F019093EE048093ED04D7015F
:103CE0001D927D01F30121913F0121110BC0013093
:103CF000110541F101E010E0EACF8111D2CF8AE154
:103D000094E0D3CF980126533B4F6901D9012C9100
:103D1000211121C1DC01ED91FC910680F781E02D9C
:103D20000995882359F0F6019082E091ED04F09115
:103D3000EE0466A177A1802F0E941E2B8091C904FA
:103D40008823A9F2412CD12C55245394809132011F
:103D5000481608F0F0CE842D90E0FC01E653FB4FAE
:103D60002081222309F4F0C0FC01EA55FB4F90802A
:103D7000992009F4E9C0880F991FFC01E858FA4F0F
:103D8000008111811093EE040093ED043090C8047B
:103D9000332009F4ECC0B090EB04EB2CF12CF701CC
:103DA000E85FFE4F8081882331F0108265E070E08B
:103DB0008B2D0E941E2BA091ED04B091EE04E1E04A
:103DC000E9A392962D913C91939794968D919C9115
:103DD00095972817390709F419A29896AC909897E7
:103DE000D9968C91D997C12C882319F0D596CC906F
:103DF000D597C094212C882319F0D3962C90D39773
:103E00002094912C882319F0D4969C90D497909468
:103E10000091EB0410E0F801EE0FFF1FE152FB4FA1
:103E200060807180F301A782C0862186928680918E
:103E3000C704882329F0E091DF04F091E004A38611
:103E400094962D913C912095309535FB882780F9EB
:103E500034FD826033FD846023FD8860D3011396B6
:103E60008C93139714961C92149715961C920E948B
:103E7000F42898012A5F3E4FF9014081C8018C5F08
:103E80009E4FD801AE5FBE4F00501F4FA4120CC012
:103E9000FC014081C41208C04C91241205C0F801F5
:103EA0004081941201C039A0F901A082FC01C082B6
:103EB0002C92D8019C92332009F444C0C3010E9483
:103EC000AC0EB1E0BB15F0F1E7EA6E2EE1E07E2E1C
:103ED000FBEF9F2EEE0CFF1CF701E754FC4F1F0178
:103EE000D3015896ED90FD900D911C915B975C96D7
:103EF0002C915C975D964C915D975E96AC905E9729
:103F00005F968C90B1E0B915B0F4E091ED04F091BA
:103F1000EE0484A195A1809590958E219F21CC24BB
:103F2000C394892B09F4C12C1F92F10160818B2D60
:103F30000E948C0D0F90F8E06F0E711C939428E096
:103F40009212CECF39A1D32A8091EB048F5F809358
:103F5000EB044394FBCE0E948F09F70131978083D5
:103F60008111ECCED6011C9270E060E0E4CEF090BE
:103F7000C904FF2009F49EC180918B04882309F4B1
:103F8000A9C081E00E94980E10918B04113009F0B5
:103F90006AC0C090ED04D090EE0468E070E0C60105
:103FA0000E947D29382E80918804815031100BC0E9
:103FB00060E070E4C6010E947D29382E882329F034
:103FC000809188048F5F80938804C090ED04D09026
:103FD000EE0460E070E2C6010E947D29882329F08A
:103FE00091E0910F90938B04382ED60196968D9187
:103FF0009C9197970797C9F49C968C919C978823DE
:10400000A1F09A968D919C919B9798966D917C9139
:104010008130910511F00C9440286530710529F02C
:104020006A30710511F00C944028332089F080919A
:104030008B04813009F046C060E471E083E00E94A7
:10404000BA2980918804082E000C990B0E94612CDB
:10405000D0908904DD20A1F18091DF049091E004EB
:104060000E94AC0E71CF1230F1F4C090ED04D090EC
:10407000EE0468E070E0C6010E947D29382E809130
:104080008204815031100CC060E070E4C6010E94CF
:104090007D29382E882309F498CF809182048F5F80
:1040A0008093820492CF133009F08FCF10928B044B
:1040B00005E024E04FE760E08CE995E00E94480DC0
:1040C000DF2C42CF6DE371E083E00E94BA2980913A
:1040D0008204B9CF80918A04811110C0D0908904E4
:1040E000D11077C050928A04509289046DE571E036
:1040F00081E00E94BA2981E00E94980ED0908A0443
:10410000DD20F1F2E091ED04F091EE0424A135A15F
:104110002095309535FB882780F923FD826036FD98
:1041200084600091DF041091E004D80113968C9311
:1041300086A197A18230910508F406CF84309105BD
:1041400010F40C946E28079709F0FECE84A58823FE
:1041500009F47ECF82A593A560A571A58130910554
:1041600009F09EC76530710509F472CF6A30710598
:1041700009F096C78091850490918604009709F014
:1041800066C084A195A1809590959C01287030729D
:104190002830304209F05CCF96FF5ACF10928A0443
:1041A00080918904882331F0D80113961C92C801AC
:1041B0000E94AC0E81E00E94980E63E471E082E000
:1041C0000E94BA2968EE73E080E090E00E94C0038C
:1041D00085C760E070E2C8010E947D29811107C097
:1041E00068E070E0C8010E947D29882359F0509250
:1041F0008A0444E060E08CE995E00E94E80B0E94AC
:104200009429A2CE60E070E4C8010E947D29D82ED6
:10421000882309F470CF50928A0450928B0466E58B
:1042200071E082E00E94BA2963E571E083E00E94B8
:10423000BA2980918804082E000C990B0E94612CE9
:104240006CE271E080E090E00E94C0037DCE60915E
:104250008304709184046115710509F492CF209153
:104260008204620F711D27FD7A9520918804820FC8
:10427000911D27FD9A950E947029809187048F5F78
:10428000809387048F3F09F0E3CE10928704109249
:104290008604109285041092840410928304809105
:1042A0008904882309F4D4CEF80114821582168279
:1042B000178214C7B090EB04EE24E394F80122A116
:1042C00033A184A195A12817390709F4E12CD8015D
:1042D00096966D907C900B2D10E0000F111FF80149
:1042E000E457FB4F808191816816790621F0B30174
:1042F0008B2D0E941E2BE1E0F0E0EC0FFD1FE00F84
:10430000F11F71826082C3010197059708F095C083
:104310000E94F428E091ED04F091EE04FAA3E9A3E1
:1043200084A195A180959095292F221F2227221FD5
:1043300030E096FD226095FD246094FD286092FD9A
:10434000206193FD206290FD206491FD206880FD36
:10435000316083FD326081FD346082FD3860A9A147
:10436000BAA198962C90989799963C90999780919D
:10437000EB0490E0FC01EE0FFF1FE152FB4F0190B8
:10438000F081E02D9C964C91442309F465C0B5E082
:104390006B16710409F460C027823086BC01605F2F
:1043A0007E4FDB01FC90AC01425F5E4FF2105CC0BF
:1043B000DA01FC90F31058C0FE2CDB012C92DA01DC
:1043C0003C92A9A1BAA19A965C919A979B964C911E
:1043D0009B979C966C91662329F0B5E06B1671044F
:1043E00009F044C040E84187428750E8BC01645F5F
:1043F0007E4F1B01DB016C91865F9E4F651305C0EC
:10440000DC016C91641301C09F2CD1015C93DC0131
:104410004C93238334831582992079F0CF010E9435
:10442000AC0EB1E0BB1548F04091ED045091EE04A4
:1044300020E0B3018B2D0E94652AD801A457BB4F01
:10444000E1E0F0E0EC0FFD1FE00FF11F80819181B2
:104450008D939C93DE2878CD40E84783408740E8E1
:10446000342E50E8252E9ACFF92CA7CF51874287BA
:10447000BDCF8091A404811177C08091A5048111E2
:1044800073C07601EE0CFF1CEE0CFF1CE5E0EE1A8B
:10449000F10804E715E024EAA22E24E0B22E38E762
:1044A000832E35E0932ED8018D919D918D010E9430
:1044B000B008F50181935F018091A404811104C0CB
:1044C0008091A504882339F0F2E0CF16D10418F0CA
:1044D000C7010197F1F78016910629F781E00E9444
:1044E000980E07E027E04FE760E08CE995E00E9436
:1044F000480D67E08CE995E00E94BE0B60E08CE916
:1045000095E00E94CA0B8091A40481110BC0809198
:10451000A504811103C08AE194E002C084E691E021
:104520000E942D0D62E48CE995E00E94CA0B9091E7
:10453000A4048091A504992309F47AC0811104C0D0
:1045400084E691E00E942D0D8091A404882321F03F
:1045500061E080E00E94F20D8091A504882321F0A3
:1045600061E081E00E94F20D1D8E1E8EB12C87E06D
:10457000A82E80913201B81608F069C0EB2CF12CFE
:10458000F701EE0FFF1FEC58FA4F008111811093D5
:10459000A3040093A204F701EC55FB4F808188230C
:1045A00009F444C0C8010E94B008970120563B4F4F
:1045B0006901882309F441C087E0F801DE015696BD
:1045C00001900D928A95E1F787E0FE017696DE0173
:1045D0001F9601900D928A95E1F7AE9CC001AF9CA9
:1045E000900D112461E070E06C0F7D1F860F971F06
:1045F000FE013F96DC012A2D01900D922A95E1F7EC
:10460000DC018D919C9111E0009709F410E0F60116
:104610002081211109C0892B39F08B2D0E9491082E
:1046200061E08B2D0E94F20DD6011C93B394A1CFB3
:10463000811184CF8AE194E085CF8B2D0E9491086F
:1046400060E08B2D0E94F20DF6011082EFCFB12CAD
:1046500017E0D12E80913201B81608F087C16B2C7B
:10466000712CF301E056FB4F8081882309F47CC153
:10467000D69CF001D79CF00D112421E030E02C0FE6
:104680003D1FE20FF31F2381822F82958F7090E0F0
:10469000982F88279295907F2F7030E0322F222715
:1046A000820F931F2481422F42954F7030E1439F28
:1046B000A0011124840F951F2F701C01220E311CA4
:1046C000B301660F771F7AA369A3DB01A456BB4F22
:1046D0008D919C91958076817BA3D301A656BB4F8B
:1046E000BDA3ACA32C91921207C0F301E856FB4F77
:1046F0002081271709F4F9C4EDE1F0E0EC0FFD1F6C
:10470000E60DF71D21E02816390609F420E0208384
:10471000D69CF001D79CF00D112421E030E02C0F45
:104720003D1FE20FF31F838122E030E087FD02C0CE
:1047300030E020E0D69CF001D79CF00D112461E020
:1047400070E06C0F7D1FE60FF71F838186FD2160EF
:10475000D69CF001D79CF00D112481E090E08C0FE5
:104760009D1FE80FF91F838185FD3160D69CF00104
:10477000D79CF00D1124A1E0B0E0AC0FBD1FEA0FF3
:10478000FB1F838184FD3260D69CF001D79CF00D25
:10479000112461E070E06C0F7D1FE60FF71F84812C
:1047A00085FD2061D69CF001D79CF00D112481E09D
:1047B00090E08C0F9D1FE80FF91F848184FD20621B
:1047C000D69CF001D79CF00D1124A1E0B0E0AC0F15
:1047D000BD1FEA0FFB1F848183FD2064D69CF0017E
:1047E000D79CF00D112461E070E06C0F7D1FE60F87
:1047F000F71F848182FD2460D69CF001D79CF00DC8
:10480000112481E090E08C0F9D1FE80FF91F848137
:1048100081FD2860D69CF001D79CF00D1124A1E009
:10482000B0E0AC0FBD1FEA0FFB1F848180FD206844
:10483000E9A1FAA1E152FB4FA081B18113962C931B
:10484000139714963C93149715961C921597D69C23
:10485000F001D79CF00D112421E030E02C0F3D1F1A
:10486000E20FF31F838183FBEE27E0F941E04E273F
:1048700082FF4260D69CC001D79C900D112461E05C
:1048800070E06C0F7D1F860F971FFC01838181FFF5
:104890004460D69CC001D79C900D112421E030E0EB
:1048A0002C0F3D1F820F931FFC01838180FF486006
:1048B000E42FF0E0E354FC4F808116968C9316971A
:1048C00080E8890D17968C9317978BA18058809557
:1048D00018968C931897CD010E94AC0E67E2462E75
:1048E00062E0562EB10190E080E06EA37FA388A71E
:1048F00099A7E9A1FAA1E754FC4F70817AA7D201E8
:10490000ED90FD900D911C918EA19FA1A8A5B9A538
:104910008E219F21A023B123CC24C394892B8A2BE1
:104920008B2B09F4C12C1F92F2018780A680248171
:1049300045816AA58B2D0E948C0DF8E04F0E511C0D
:104940000F9027E932E024153505C9F6E9A1FAA14F
:10495000E456FB4F31822082ACA1BDA19C92F301B1
:10496000E856FB4FBBA1B083B39474CEDD8CD1105D
:10497000E2C8DE8CE0C887EB92E00197F1F766E0D1
:10498000C5010E94EF17482F50E0BE016F5F7F4FB7
:10499000C5010E942505863011F00C94B4198B8155
:1049A000843A09F048C08C81803209F044C08D817E
:1049B000811103C09E81992391F199812A819230BE
:1049C00058F421111AC0843008F52E81213031F4B9
:1049D00084E090E00C94B61921110FC08130B1F43D
:1049E0008E81833061F49923F1F0913001F193309D
:1049F00011F587E090E00C94B619813039F48E817E
:104A00008231C9F488E090E00C94B619811113C08A
:104A10008E81833181F489E090E00C94B61983E0B3
:104A200090E00C94B61985E090E00C94B61986E0FD
:104A300090E00C94B61982E090E00C94B619D8017D
:104A40001296ED91FC911382128280E593EC0C9406
:104A50000F1AF801048115810C94E019CC20A9F3F8
:104A60000C94FC19C8010E945529882309F4D1C06F
:104A7000D8011296ED91FC91AF014B5F5F4F6481BD
:104A800070E0808191810E943E18D82E882309F41D
:104A9000C0C0F80182819381DC0114964C91059687
:104AA000FC012FEF30E050E0BF01681B790B641769
:104AB000750724F46191362B2623F6CF332309F4AE
:104AC000A8C02F3F09F4A5C0E091D004F091D10413
:104AD0000280F381E02D02811381C80103970297C0
:104AE00008F4ACC01CA21BA219A2912CB12C712CF1
:104AF000612C80919504909196048615970539F460
:104B0000DD24D394809194048B1101C0D12C809129
:104B10001601891113C080911501E9A18E130EC0F1
:104B200080911401FBA18F1309C0809113012CA166
:104B3000821304C0DD2011F40C949B1DE091DF046E
:104B4000F091E0046382748215826B2D70E07FA384
:104B50006EA3DB01A354BC4F8C918683978289A1FD
:104B6000819580877BA171878CA181958287CF01F8
:104B70000E94AC0E045011090230110508F01BC24E
:104B80008FE08AA781E4482E83E0582E312C212C17
:104B9000D201ED90FD900D911C91139714962C91DC
:104BA000149715964C9115971696AC9016971796E4
:104BB0008C90BAE0B21508F401C2C301022C02C005
:104BC000969587950A94E2F7E82FE170CE2E1F9212
:104BD00060E080E00E948C0D0F908FEF281A380A59
:104BE00098E0490E511CAAA52A1690F270929604DC
:104BF00060929504B092940490921601B9A1B0937A
:104C00001501EBA1E0931401FCA1F09313010C94A6
:104C10009B1D1092970480E593EC90933101809353
:104C2000300180E00E9423081092960410929504AF
:104C300090E080E00E94CB290C94521904301105B9
:104C400009F09DC1E091CE04F091CF0484810280EF
:104C5000F381E02D8111C2C0228530E0390145E0A9
:104C6000759467944A95E1F760947094B1E06B2273
:104C7000772456E0359527955A95E1F7209530959C
:104C800020FDC2C0228530E0A4E035952795AA9585
:104C9000E1F72095309520FDC7C0228530E063E024
:104CA000359527956A95E1F72095309520FDCCC084
:104CB000218530E045E0359527954A95E1F7209527
:104CC000309520FDD1C0218530E035952795209580
:104CD000309520FDD6C0228530E0220F232F221FE1
:104CE000330B232B09F4DAC0228530E03595279564
:104CF000359527952095309520FDDFC0218530E042
:104D000094E0359527959A95E1F72095309520FD0B
:104D1000E4C0218530E03595279535952795209578
:104D2000309520FDE9C0218530E063E03595279579
:104D30006A95E1F72095309520FDEEC09285BB2461
:104D4000B39490FFB12C218530E046E0359527954E
:104D50004A95E1F72095309520FD04C06894B1F89C
:104D60008111F1C0228530E0359527952095309549
:104D700020FD04C06894B2F88111EDC0218530E0B7
:104D8000220F232F221F330B232B21F06894B3F81B
:104D90008111EAC08581982E990C990C9681692F12
:104DA000660F660F69A34781907C929596959770E0
:104DB000807C869586958695892B242F207830E0F7
:104DC000220F232F221F330B822B880F880F880F6F
:104DD0008BA3440F440F440F4CA38BCE248530E0AB
:104DE0003901B5E075946794BA95E1F760947094D1
:104DF00041E06422772496E0359527959A95E1F76E
:104E00002095309520FF05C0689461F8882309F447
:104E100039CF248530E074E0359527957A95E1F710
:104E20002095309520FF05C0689462F8882309F426
:104E300034CF248530E053E0359527955A95E1F736
:104E40002095309520FF05C0689463F8882309F405
:104E50002FCF238530E095E0359527959A95E1F79A
:104E60002095309520FF05C0689464F8882309F4E4
:104E70002ACF238530E0359527952095309520FF62
:104E800005C0689465F8882309F425CF248530E0AF
:104E9000220F232F221F330B232B29F4689466F84B
:104EA000882309F421CF248530E035952795359561
:104EB00027952095309520FF05C0689467F88823D2
:104EC00009F41CCF238530E0B4E035952795BA95D9
:104ED000E1F72095309520FF05C0689470F888238D
:104EE00009F417CF238530E035952795359527951B
:104EF0002095309520FF05C0689471F8882309F447
:104F000012CF238530E053E0359527955A95E1F788
:104F10002095309520FF05C0689472F8882309F425
:104F20000DCF948590FD28C0B12C882309F40ACFB9
:104F3000238530E096E0359527959A95E1F7209501
:104F4000309520FF0BCF248530E0359527952095AF
:104F5000309520FF0FCF238530E0220F232F221F13
:104F6000330B232B09F012CF9580778179A38681AB
:104F70008BA390859CA3BDCDBB24B394D9CFE091E6
:104F8000CC04F091CD040280F381E02D8285682E5F
:104F9000712C7594679460947094A1E06A227724D0
:104FA00080FD02C0689461F89580B681B9A31CA207
:104FB0001BA2B12C9ECD92E09AA7E4CDC1010B9724
:104FC0006EA17FA102C0759567958A95E2F7CB0126
:104FD00080959095782F7170C72EF9CD0E94F203BD
:104FE000609390047093910480939204909393043F
:104FF0000C94AF1DE090D204F090D3040E941308EB
:105000000E94540E10E000E062E070E080E090E06A
:105010000E94C0034E990CC06CE271E080E090E009
:105020000E94C0030E9413080E94540E10E000E08A
:105030000F5F1F4F003D37E0130731F76091D20437
:105040007091D3046E157F0521F40E94540E0C94C8
:10505000D91D90E080E00E94B7318CE995E00E9474
:105060007D0D8FE691E00E942D0D88E19EE00FB648
:10507000F894A895809360000FBE90936000FFCFD6
:1050800020918204620F711D27FD7A95209188047A
:10509000820F911D27FD9A950E9470290C9415206E
:1050A00010928704909386048093850470938404FF
:1050B0006093830420918904222311F40C94282006
:1050C00020918204620F711D27FD7A95209188043A
:1050D000820F911D27FD9A950E94702980918A0464
:1050E00081110C9428200C9460202816390609F0B0
:1050F00003CB3ACC249825982C9A2D9A8827992767
:105100001C9B08951D9B089581E0089581E00895FA
:10511000BFE0A0EA00240E9498283AF40A94D9F744
:105120001197C1F728940C949F28A8940C949F2859
:10513000A8941D990C949D28289400000895089522
:1051400093E09A95F1F7089508951F93CF93DF9315
:10515000EC0180E888A789A78AA78BA71CA6FE0177
:10516000BD968CE0DF011D928A95E9F71FA21EA271
:105170001AAE1BAE1CAE1DAE15E0CE010E948F090B
:1051800061E070E080E090E00E94C0031150A9F758
:10519000CE01DF91CF911F910C948F09CF93DF93B4
:1051A000EC01849A8C9A229A2A9A219A299A239815
:1051B0002B982B9A0E94E705CE01DF91CF910C949A
:1051C000A528CF93DF93EC013E9A469A229A2A9A19
:1051D000219A299A23982B982B9A0E94E705CE01B1
:1051E000DF91CF910C94A528E091ED04F091EE04AD
:1051F00084A195A180959095FC0194E0F695E795A2
:105200009A95E1F721E0E227E17086FFE26087FFEF
:10521000E46085FFE8608091EC04882311F0E82BBE
:10522000EF70A091EB04B0E0AA0FBB1FA152BB4FDF
:105230000D90BC91A02DF0E0E354FC4F80811696B8
:105240008C930895EF92FF920F931F93CF93DF9368
:10525000F82E192FE62E042F81E0860F880F0E946A
:10526000FE0383E00E94FE03CF2DD12FEC0EFD2E16
:10527000F11CCE15DF05B9F007FF13C0FE018491C4
:105280000E94FE03182F80E00E94FE0381232196D6
:105290008111EFCFDF91CF911F910F91FF90EF9090
:1052A00008958881EDCF81E0F5CFCF93DF93EC01B6
:1052B000E881F9810280F381E02D0995EA81FB8183
:1052C000228133812817390739F0019719F481E0D9
:1052D000232B19F480E001C081E0DF91CF91089584
:1052E00020918904222341F0E091DF04F091E00451
:1052F00084839583668377830895FC0124A135A177
:1053000042A153A1422753274623572391E0452B1F
:1053100009F490E0209530956223732381E0672B98
:1053200009F480E0892308950F932091A105E0916D
:10533000A705F091A80500E0309771F03396E4914D
:10534000F0E0379683E0F595E7958A95E1F70091CF
:10535000AA050E9F002D1124EFEFE20F0E0F4091D2
:10536000A20541506091A0058CE995E00E94480D8E
:105370000F910895CF93DF93EB0142E0480F60E077
:105380008CE995E00E94E80B0E949429CE01DF9100
:10539000CF910C942D0D8F92AF92CF92DF92EF921E
:1053A000FF920F931F93CF93DF93EC014091A205DF
:1053B000415007E023E060E08CE995E00E94480D51
:1053C00047E060E08CE995E00E94E80BFE0132972F
:1053D000E830F10508F076C0E051F64D0C94E73165
:1053E0005F2AF829272A452A532A562A592A5C2A4D
:1053F0008AE594E00E942D0DC1E0CF938CE3882EC6
:105400009BE3A92ECC24C394E12CF12C8701E394D7
:1054100022E040E360E080E00E948C0DCF9312E038
:10542000E12EF12C00E010E023E046E360E080E0B4
:105430000E948C0D0F900F90DF91CF911F910F91D3
:10544000FF90EF90DF90CF90AF908F90089582E51E
:1054500094E00E942D0DC1E4D3E0DD24D394E880D4
:10546000F9800A811B81DF928F80AE80CC24C394A7
:105470002C814D8160E080E00E948C0D28960F9079
:1054800083E0C93BD80759F7D7CF8BE494E0DF918D
:10549000CF911F910F91FF90EF90DF90CF90AF9041
:1054A0008F900C942D0D86E494E0F1CF8CE394E082
:1054B000EECF86E394E0EBCF8DE294E0E8CF8FE18E
:1054C00094E0E5CF8AE194E0E2CF2F923F924F92B1
:1054D0005F926F927F928F929F92AF92BF92CF9284
:1054E000DF92EF92FF920F931F93CF93DF9300D041
:1054F00000D0CDB7DEB7B82E1B012A01922E8091C5
:10550000EC048E3009F463C087EA91E09C838B83BE
:10551000D12CFB013297FA83E9836B2C712C660C3A
:10552000771CC30187549C4F3C01E981FA81329773
:1055300070F08FEF8D0D823050F1F5E02F163104B1
:1055400031F4DD2021F188EF8D0D823000F1EB8107
:10555000FC81E080F1800281138124814581A68055
:1055600087804114510459F0F20184A195A18095DE
:1055700090958E219F21CC24C394892B09F4C12CB2
:105580009F92F30160818B2D0E948C0D0F90D3941C
:105590008B819C8108969C838B8390E1D912C5CF27
:1055A0000F900F900F900F90DF91CF911F910F915F
:1055B000FF90EF90DF90CF90BF90AF909F908F9033
:1055C0007F906F905F904F903F902F900895EFE401
:1055D000F1E0FA83E98387EA682E81E0782EEB2DEB
:1055E000F0E0EE0FFF1FE754FC4FD080E981FA8115
:1055F000E080F1800281138124814581A68087802B
:105600004114510459F0F20184A195A1809590951F
:105610008E219F21CC24C394892B09F4C12C9F9205
:105620006D2D8B2D0E948C0D89819A8108969A830D
:1056300089830F9068167906C9F6B2CFFF920F934F
:105640001F93CF93DF93182FEB01E82FF0E0EE0FBD
:10565000FF1FE754FC4FF08007E023E041816F2DEE
:105660008CE995E00E94480D47E06F2D8CE995E0AC
:105670000E94E80BC430D105D9F188F4C130D105BE
:1056800031F18AEE90E0C230D10589F08AE194E0F0
:10569000DF91CF911F910F91FF900C942D0DC5308C
:1056A000D105A9F087ED90E0C630D10579F70E94C9
:1056B0002D0D123000F521E050E040E0BE01812FB9
:1056C000DF91CF911F910F91FF900C94652A8091EB
:1056D000EC048E3019F483E091E0E9CF8091C804A6
:1056E000811103C084EF90E0E2CF8CEF90E0DFCF38
:1056F0008EED90E0DCCFDF91CF911F910F91FF9065
:1057000008955F926F927F928F929F92AF92BF9215
:10571000CF92DF92EF92FF920F931F93CF93DF937D
:10572000D82EEB01E82FF0E0EE0FFF1FE754FC4FFF
:10573000908007E023E04181692D8CE995E00E948B
:10574000480D47E0692D8CE995E00E94E80BC330D5
:10575000D10509F462C0C0F483ED90E0C230D105F8
:10576000E1F08AE194E0DF91CF911F910F91FF90DA
:10577000EF90DF90CF90BF90AF909F908F907F90F1
:105780006F905F900C942D0DC430D10509F448C082
:1057900085EC90E0C530D10521F70E942D0D82E007
:1057A000D81659F187E9682E82E0782EB12C55245D
:1057B0005394C230D10549F487E08B15B8F083E0EB
:1057C000F301E05AFF4F8B1508F4F301E080F180FC
:1057D000028113815F928780A680CC24C3942481A8
:1057E0004581692D8D2D0E948C0D0F90B39488E01A
:1057F000680E711C8CE0B812DCCFDF91CF911F9145
:105800000F91FF90EF90DF90CF90BF90AF909F905F
:105810008F907F906F905F9008958EEC90E0BDCF59
:105820008AEC90E0BACF8F929F92AF92BF920F9383
:105830001F93CF93DF93CDB7DEB7A1970FB6F89440
:10584000DEBF0FBECDBF19A2423008F44AE08E0180
:105850000F5D1F4F842E912CB12CA12CA50194011A
:105860000E94C531E62FB901CA01EA3044F5E05D76
:10587000D801EE938D01232B242B252B79F790E073
:1058800080E0109769F0FD0101900020E9F7319761
:10589000AF014A1B5B0BBD018CE995E00E947505C9
:1058A000A1960FB6F894DEBF0FBECDBFDF91CF91AA
:1058B0001F910F91BF90AF909F908F900895E95CDA
:1058C000D7CFCF92DF92EF92FF92CF93DF936C010D
:1058D000092E000CEE08FF0897FF19C06DE28CE955
:1058E00095E00E94F60BEC0166277727CB016C1937
:1058F0007D098E099F094AE00E94132C8C0F9D1F81
:10590000DF91CF91FF90EF90DF90CF9008954AE024
:10591000C701B601DF91CF91FF90EF90DF90CF905C
:105920000C94132CCF92DF92EF92FF921F93CF93A0
:10593000DF93E4EFF4E01382128288EEC82E83E056
:10594000D82EE12CF12CC482D582E682F7828DED2F
:1059500093E0918380838FEF9FEF95878487ECE9B5
:10596000F5E013821282128614861386158681E072
:1059700086878FEE93E091838083EDE8F5E01382D4
:1059800014828AE0E2E9F5E0DF01282F1D922A95D2
:10599000E9F7EEE7F5E013821482E3E8F5E0DF01D2
:1059A0001D928A95E9F7ECE7F5E08EE78083118296
:1059B00082E490E00E94ED3112E4FC01212F11926B
:1059C0002A95E9F72BE134E0DC012D933C93C8E7FD
:1059D000D5E09983888382E490E00E94ED31FC0158
:1059E00011921A95E9F72FE034E0DC012D933C93F6
:1059F0009B838A8388E090E00E94ED3125E1FC01E1
:105A00002783C4E7D5E09983888388E090E00E94EB
:105A1000ED3125E0DC0117962C939B838A83E4E427
:105A2000F5E013821282C482D582E682F7828DEF7E
:105A300093E091838083DF91CF911F91FF90EF904E
:105A4000DF90CF900895CF93DF93CDB7DEB7EC977B
:105A50000FB6F894DEBF0FBECDBF789484B58260D8
:105A600084BD84B5816084BD85B5826085BD85B502
:105A7000816085BD80916E00816080936E00109280
:105A800081008091810082608093810080918100FB
:105A9000816080938100809180008160809380008C
:105AA000809191008260809391008091910081604B
:105AB000809391008091900081608093900080910C
:105AC000C10084608093C1008091C1008260809396
:105AD000C1008091C10081608093C1008091C300AA
