:100000000C9472020C949A020C949A020C949A0228
:100010000C949A020C949A020C949A020C949A02F0
:100020000C949A020C949A020C94A0250C940F261E
:100030000C949A020C949A020C949A020C949A02D0
:100040000C949A020C949A020C949A020C949A02C0
:100050000C949A020C949A020C949A020C945625D1
:100060000C949A020C949A020C949A020C949A02A0
:100070000C949A020C949A020C949A020C949A0290
:100080000C949A020C949A020C949A020C949A0280
:100090000C949A020C949A020C949A020C949A0270
:1000A0000C949A020C949A020C949A02AED580A8F1
:1000B0003FD300408D142002A1C8DA12817FD9F10C
:1000C000DB40A4A6AF56424F59004E545400534E45
:1000D0004553004E4553004A4F47434F4E00464C50
:1000E00049474854535449434B004455414C5348A5
:1000F0004F434B004449474954414C004E45474308
:100100004F4E00504F50204E005043452D3600506A
:1001100043452D3200504144002B4E4547002B4AA9
:100120004F47002B47554E00505358004E36342051
:100130004F524947494E414C2052414E474500508D
:10014000432D454E47494E45004E4553202B2053E5
:100150004E45530052414E474520005350205354C2
:1001600045502000464F524345200046414B452014
:100170005350494E4E455200574845454C0050415A
:1001800044444C45005350494E4E455200592000BE
:100190005820004F55545055542044495341424C27
:1001A000454400582000434F4E4649470047554EAE
:1001B000434F4E004D554C54492D54415000504C26
:1001C00055472B5245534554004E4F4E450052451E
:1001D000424F4F54494E472E2E2E004D554C5449F8
:1001E0002D5441500000030C0F30333C3FC0C3CCB2
:1001F000CFF0F3FCFF0000000200090F0000030431
:1002000001000C00000000000000000000000000E1
:1002100000000000080B00020202000009040000B8
:10022000010202000005240010010524010101045F
:100230002402060524060001070581031000400979
:10024000040100020A000000070502024000000746
:100250000583024000000403090412010002EF02BA
:100260000140D0167E12000101020301556E6B6E33
:100270006F776E005265666C6578204164617074BA
:10028000005245464C45580000000507206100001B
:1002900000000000005F00006070787060605048EF
:1002A000506003070F07030305090503081C3E7F81
:1002B0007F081C22417F7F7F3E1C087F41221C0853
:1002C000082A1C2A0808083E0808005030000008C8
:1002D00008080808006060000020100804023E5171
:1002E00049453E00427F4000426151494621414517
:1002F0004B311814127F1027454545393C4A49496E
:100300003001710905033649494936064949291E14
:1003100000363600003C7E7E7E3C3C4242423C142D
:1003200014141414F0F0F0F0F0F0909090F03249C2
:1003300079413E7E1111117E7F494949363E414146
:1003400041227F4141221C7F494949417F090901DE
:10035000013E414151327F0808087F00417F410042
:100360002040413F017F081422417F404040407FB0
:100370000204027F7F0408107F3E4141413E7F0915
:100380000909063E4151215E7F091929464649491E
:10039000493101017F01013F4040403F1F20402083
:1003A0001F7F2018207F631408146303047804035C
:1003B000615149454300007F41410204081020413A
:1003C000417F0000383C1E0F074040404040382429
:1003D00012090720545454787F4844443838444420
:1003E0004420384444487F3854545418087E090146
:1003F00002081454543C7F0804047800447D4000F3
:100400002040443D00007F10284400417F40007C94
:10041000041804787C0804047838444444387C1474
:10042000141408081414187C7C0804040848545454
:100430005420043F4440203C4040207C1C2040206D
:100440001C3C4030403C44281028440C5050503C48
:100450004464544C44E0E0E0E0E000007F0000E051
:10046000A0A0A0E008082A1C08081C2A080800060A
:10047000090906AC00198040000000000023002696
:100480000029002C002F0000000000250028002B70
:10049000002E00310000000000240027002A002D5B
:1004A00000300004040404040304050202020204F0
:1004B00003020202020606060606060404020202FF
:1004C0000404040802011040804010204080408055
:1004D00008020401804020100201108010204040DA
:1004E0002000212D11241FBECFEFDAE0DEBFCDBFEB
:1004F00014E0A0E0B1E0E6E0FAE602C005900D925B
:10050000A43AB107D9F726E0A4EAB4E001C01D92ED
:10051000AC32B207E1F712E0C2E7D2E004C02197A3
:10052000FE010E94AD33C137D107C9F70E94A42D47
:100530000C9401350C940000FC01A385B485109740
:1005400071F47487638785859685DB0114962D91F8
:100550003C91820F931F968785870895DC018D91CA
:100560009C9111970097D1F76D937C93ECCF90E01D
:10057000FC01EE53FB4F24918D559B4FFC01849160
:10058000882399F090E0880F991FFC01EB56FB4FF0
:10059000A591B491FC01E957FB4F859194918FB7D8
:1005A000F894EC91E22BEC938FBF0895CF93DF93F7
:1005B000FA013081322B3083DB013C91322B3C93AA
:1005C00040816081422B50E030E02095309570E012
:1005D0002623372361E0EC01A99178E02083AA0F5C
:1005E00040F4B4E0BA95F1F74083BAE0BA95F1F778
:1005F00005C0BEE0BA95F1F7000040837A9529F076
:10060000B3E0BA95F1F70000E9CF6A9529F0B1E0BF
:10061000BA95F1F70000E0CFB2E0BA95F1F700002B
:1006200000002083B4E0BA95F1F700000000408399
:10063000DF91CF910895FC0180913805882311F155
:100640003FB7F89482E08093E9002091F200822F76
:1006500090E01816190614F481E090E0882339F030
:10066000289844E6409337054091F10040832223C7
:1006700039F02091F200211103C02BE62093E8000D
:100680003FBF08958FEF9FEF0895CF93DF931F92A1
:10069000CDB7DEB76983DC01ED91FC910280F38177
:1006A000E02D41E050E0BE016F5F7F4F09950F9054
:1006B000DF91CF91089583E08093E9008091F2006B
:1006C000882319F08AE38093E8000895CF93DF939D
:1006D0001F92CDB7DEB7FC018485958597FD08C0D4
:1006E0002FEF3FEF358724870F90DF91CF9108954B
:1006F000CE0101960E941B03019719F4898190E0B5
:10070000F3CF8FEF9FEFF0CF0F931F93CF93DF9334
:100710001F92CDB7DEB78C01FC018485958597FFCC
:100720000BC0CE0101960E941B03019771F48981D1
:1007300090E0F80195878487F801848595850F906E
:10074000DF91CF911F910F9108958FEF9FEFF1CF20
:10075000FC018485958597FD0BC09FB7F89482E0D6
:100760008093E9008091F2009FBF90E00196089588
:100770009FB7F89482E08093E9008091F2009FBFD8
:1007800090E008953FB7F894809133059091340537
:10079000A0913505B091360526B5A89B05C02F3F21
:1007A00019F00196A11DB11D3FBFBA2FA92F982F97
:1007B0008827BC01CD01620F711D811D911D42E092
:1007C000660F771F881F991F4A95D1F708958F925A
:1007D0009F92AF92BF92CF92DF92EF92FF924B0126
:1007E0005C010E94C2036B017C010E94C2036C1970
:1007F0007D098E099F09683E734081059105A8F324
:1008000021E0821A9108A108B10888EEC80E83E0A1
:10081000D81EE11CF11C81149104A104B10429F734
:10082000FF90EF90DF90CF90BF90AF909F908F9010
:1008300008952FB7F89460912F057091300580913D
:100840003105909132052FBF0895FC018FE085831B
:10085000168217820895409107055091080520914E
:1008600005053091060542175307B4F49091E8004E
:100870009570E1F39091E80092FD19C08093F1002A
:10088000809107059091080501968F739927892B10
:1008900019F48EEF8093E800809107059091080588
:1008A0000196909308058093070581E0089580E004
:1008B0000895EF92FF920F931F93CF93DF93F82E3B
:1008C000192FE62E042F81E0860F880F0E942B043B
:1008D00083E00E942B04CF2DD12FEC0EFD2EF11CB6
:1008E000CE15DF05B9F007FF13C0FE0184910E9409
:1008F0002B04182F80E00E942B0481232196811164
:10090000EFCFDF91CF911F910F91FF90EF9008955E
:100910008881EDCF81E0F5CFDF92EF92FF920F93C8
:100920001F93CF93DF93D82E8A01EB017B01E40E56
:10093000F51ECE15DF0559F0D7FE12C0FE018491D9
:100940000E942B0421968111F4CF0FEF1FEFC801F5
:10095000DF91CF911F910F91FF90EF90DF9008955D
:100960008881EECF2FB7F89487708093E90090913B
:10097000E800892F807295FF04C09091F20080E416
:10098000891B2FBF089583E00E94B20490E0089570
:100990007F928F929F92AF92BF92CF92DF92EF920F
:1009A000FF920F931F93CF93DF93C82E8B017A0191
:1009B00080913805811110C08FEF9FEFDF91CF91AB
:1009C0001F910F91FF90EF90DF90CF90BF90AF906D
:1009D0009F908F907F90089580910B0580FF05C0B8
:1009E0008091E00082608093E000CE2DDF2DD12C3D
:1009F0008AEFB82E8C2D8770982E8C2D8072882EC1
:100A00008C2D8074782E9AE3A92E209719F4DD207E
:100A100009F452C08C2D0E94B20481110AC0BA940C
:100A2000BB2051F261E070E080E090E00E94E703BB
:100A3000ECCF8C171D0611F00CF08C2F9FB7F8949B
:100A40009092E9002091E80025FD02C09FBFDDCF14
:100A5000282F30E0C21BD30B882029F08150A0F052
:100A60001092F100FBCFF801C7FC0AC0815050F092
:100A700041914093F100FACF44914093F1003196B7
:100A80008150D0F7020F131FDD2021F0A092E80063
:100A9000D12CDCCF8091E80085FD07C0A092E80052
:100AA000DD24D394209791F2F3CF209779F6772025
:100AB00069F2A092E800CACF5D9884E680930A05A7
:100AC000C7017CCFCF93DF93EC0180914201882353
:100AD00031F083E00E94C8041816190634F081E052
:100AE00090E09B838A8380E090E0DF91CF9108952E
:100AF000615030F02091F100FC0120830196F8CF85
:100B0000289884E6809337050895AF92BF92CF92DC
:100B1000DF92EF92FF920F931F93CF93DF936C01BD
:100B20007B018B01040F151FEB015E01AE18BF089E
:100B3000C017D10759F06991D601ED91FC91019050
:100B4000F081E02DC6010995892B79F7C501DF9168
:100B5000CF911F910F91FF90EF90DF90CF90BF90BA
:100B6000AF9008958091FD0481110DC082E08093C3
:100B7000F90484E08093FA041092FC041092FB04C0
:100B800081E08093FD0489EF94E008950F931F9313
:100B9000CF93DF931F92CDB7DEB782E0898342E423
:100BA00050E064E172E080E80E948C040E94B2058B
:100BB000DC0112960D911C910115110589F0D801E7
:100BC000ED91FC910280F381E02DBE016F5F7F4FBC
:100BD000C801099597FD04C0F80100851185ECCF87
:100BE00089810F90DF91CF911F910F910895CF933D
:100BF000CFB7F8948091F80481115AC044EB54E0C7
:100C0000FA01949123ED34E0F9018491E92FF0E0A9
:100C1000EE0FFF1FEB56FB4FA591B4919C919823CB
:100C200009F037C0E6E0F2E09491F9012491FA016D
:100C30008491882309F42DC09923E9F091509F30C5
:100C4000D0F4E92FF0E0E95DF94F0C94AD3368067C
:100C50006C063606600664063B063B063B066F06DE
:100C6000750679067D0683063B068706909180000F
:100C70009F7790938000E82FF0E0EE0FFF1FE95779
:100C8000FB4FA591B4918FB7F8949C91292B2C938D
:100C90008FBF81E10E94B7028CB580618CBD8CB59D
:100CA00080648CBD8FE00E94B70280E10E94B70291
:100CB0008091F8048F5F8093F804CFBFCF9108959F
:100CC000909180009F7DD5CF90918000977FD1CF6C
:100CD00094B59F7794BDCFCF94B59F7DFBCF909176
:100CE00090009F7790939000C6CF909190009F7D49
:100CF000F9CF90919000977FF5CF9091C0009F77AA
:100D00009093C000B8CF9091C0009F7DF9CF909193
:100D1000C200977F9093C200AECFCF93DF93EC01D8
:100D20008A85882329F081508A87DF91CF910895A1
:100D30009C818E819817C8F78D856827E881F98195
:100D40000084F185E02D42E0CE0109958C818F5F12
:100D50008C83EBCFEF920F931F93F901DA012C9163
:100D60003E2D309532233C9330813E293083FC0167
:100D7000D80198E080E030E020E04C914E2189F0ED
:100D80002A95D9F720E04C914E2159F02A95D9F7B0
:100D900020E84C914E2129F02A95D9F73A9561F730
:100DA00017C047E04A95F1F7000031E0550F4C912C
:100DB0004E2109F051609A9529F45193839598E05A
:100DC000681731F020E84C914E2111F72A95D9F798
:100DD0001F910F91EF9008959F92AF92BF92CF9283
:100DE000DF92EF92FF920F931F93CF93DF93DB017C
:100DF0006A01F22E282F30E0F901EE53FB4FE49008
:100E00002D553B4FF901249130E0220F331FF9019A
:100E1000EB56FB4FC591D491F901E957FB4FA590D3
:100E2000B490F901E758FB4F059114919FB6F894DF
:100E30002E2DA501BE01CD010E94D6029501AE0165
:100E40006F2DC6010E94AA069FBEDF91CF911F9110
:100E50000F91FF90EF90DF90CF90BF90AF909F9059
:100E60000895FC018FE086838FE787838087118652
:100E7000128613860895FC0113821482158216824D
:100E800017820895DC01FB0112962C911297848140
:100E900095812817190641F491818081813A31F4B6
:100EA0009D7F81E0913009F080E008958132E1F783
:100EB0009B3029F482811F968C9381E008959A30AB
:100EC00099F7828150968C93F8CFEF92FF920F930F
:100ED0001F93CF93DF93FB012081213889F5238174
:100EE000223271F5DC0112964C9124813581421732
:100EF000130631F58C01FC01C385D485F12CE12C5E
:100F0000209791F04C815D816A817B818E81811176
:100F100080E80E948C048F3F980759F0E80EF91E74
:100F20000990D881C02DECCF81E0D8011F968C9319
:100F3000C701DF91CF911F910F91FF90EF9008951E
:100F400090E080E0F6CFCF93DF93CDB7DEB769971F
:100F50000FB6F894DEBF0FBECDBFFC01DB018C9154
:100F60008F5F8C939E012D5F3F4F8DE0D9011D92C5
:100F70008A95E9F729E0298384E08A8391E09D83BB
:100F800083E08E832A8721E22B879C879D879F871A
:100F900022E2288B27E02B8B25E02C8B8E8B20E404
:100FA00030E0388F2F8B998F82818B839585868552
:100FB000998B8A8B838180688D8B49E150E0BE01DB
:100FC0006F5F7F4F80E00E948C0469960FB6F894A3
:100FD000DEBF0FBECDBFDF91CF9108958FB7F894DC
:100FE0008091F5048FBF089584E98093BC0085E665
:100FF0009091BC0094FF03C08150D1F7089581E027
:1010000008956EBD00000DB407FEFDCF8EB50895A6
:101010002A9A299A8C9A83EC90E00197F1F7089527
:101020002A9A299A469A83EC90E00197F1F708955D
:1010300080912C0590912D050196853091052CF419
:1010400090932D0580932C05089581E090E0F8CFD2
:10105000CF93DF9390913A018917B0F4C82FD0E075
:10106000CC0FDD1FC05EDA4F88819981DC01ED91E4
:10107000FC910190F081E02D0995E881F9818FE7DD
:101080008783808781878287DF91CF9108950F932F
:101090001F93CF93DF931F92CDB7DEB78C01FC0176
:1010A00080819181892BD1F48781198223E0A80165
:1010B000BE016F5F7F4F0E94EC06833059F0F8014C
:1010C00010821182128280E00F90DF91CF911F91E8
:1010D0000F9108958BE891E00197F1F7F80187816E
:1010E00091E0998324E0A8014D5F5F4FBE016F5FDF
:1010F0007F4F0E94EC06843011F781E0E5CF90919C
:101100003A01891778F4E82FF0E0EE0FFF1FE05E58
:10111000FA4F80819181DC01ED91FC910190F08189
:10112000E02D099408958CBD9DBD08958C98809103
:10113000F6059091F7050E94930883EC90E00197E3
:10114000F1F7089546988091F6059091F7050E9471
:10115000930883EC90E00197F1F708958F929F92A6
:10116000AF92BF92CF92DF92EF92FF920F931F93B5
:10117000CF93DF937C016B015A01022F10E0D0E086
:10118000C0E083EC882E912CC017D107E1F0D70185
:10119000ED91FC910480F581E02D6AE5C114D10444
:1011A00021F0D601AC0FBD1F6C91C7010995A114A8
:1011B000B10421F0F501EC0FFD1F8083C4010197FC
:1011C000F1F72196E1CFDF91CF911F910F91FF9021
:1011D000EF90DF90CF90BF90AF909F908F90089549
:1011E000CF92DF92EF92FF920F931F93CF93DF93F3
:1011F0007C016B01D42F8C010E5F1F4F23E0A801EF
:101200000E94AE08F70123812F3F61F410E000E057
:10121000C801DF91CF911F910F91FF90EF90DF9068
:10122000CF90089584818A3511F08111EFCF2F700E
:10123000C22FCC0FD33059F0B6016D5F7F4F2DEF29
:101240002D0FA7014B5F5F4FC7010E94AE082C2FE7
:101250002D1B2D5FE9F24D2F50E0CA01820F911D29
:101260008197A4F6400F511F70E060E0C7010E9413
:10127000AE08CECFCF92DF92EF92FF920F931F93E3
:10128000CF93DF93EC010E9419046B017C01E8818C
:10129000F9810190F081E02DCE01099544E06AE7E3
:1012A00071E0CE010E94F0088C01E881F981028092
:1012B000F381E02DCE0109950115110529F0F80102
:1012C0008181807F803F11F56AE070E080E090E0EE
:1012D0000E94E7030E9419046C197D098E099F0979
:1012E0006B3F71058105910590F2C0E062E370E00B
:1012F00080E090E00E94E7038C2FDF91CF911F9157
:101300000F91FF90EF90DF90CF900895C1E0EECF66
:10131000EF92FF920F931F93CF93DF9300D000D0F3
:101320001F92CDB7DEB78C01DC019C961C929C9776
:10133000D9961C92D997ED91FC910190F081E02D06
:101340000995F80182AD811108C083AD803409F0A0
:1013500045C084AD813009F041C085E0E3E8F1E0AB
:10136000DE01119601900D928A95E1F7D8019696CB
:101370008D919C919797069759F5DD968C918C836A
:1013800045E0BE016F5F7F4FC8010E94F0087C01FD
:10139000D801ED91FC910280F381E02DC8010995FF
:1013A000E114F10441F0F7018181807F803FD1F4A5
:1013B000C8010E943A0980E00F900F900F900F90A3
:1013C0000F90DF91CF911F910F91FF90EF900895B3
:1013D000F80183AD8C8384AD8D83D2CF43E063E885
:1013E00071E0D2CFD80194968D919C919597939668
:1013F0009C938E9392972381348195963C932E9360
:10140000949781818937B9F483E090E097969C9313
:101410008E939697D80196968D919C91979784304C
:10142000910591F150F58230910571F1039709F41E
:1014300041C081E0C1CF982F907F903721F482E0A6
:1014400090E0D801E3CF903531F484E090E0F801EA
:1014500097A386A3DFCF833219F485E090E0F1CF24
:10146000903E19F486E090E0F2CF833619F487E0DD
:1014700090E0E7CF81E090E0EACF8630910509F473
:101480005CC030F10797A9F681E0D8019C968C9357
:101490009C97F70185819A968C939A9786819B9663
:1014A0008C939B97878198968C9398978085999633
:1014B0008C93BFCF81E0F80181AFF70139969D96FB
:1014C000C701459621912D93E817F907D9F7DCCF8D
:1014D00081E09C968C939C97F701958198969C93BC
:1014E0009897D9968C93D9978681D3968C93D397D6
:1014F0009781D4969C93D4974085D5964C93D59755
:1015000097FF05C03F7795963C932E93949787FF5E
:101510000AC0D80194968D919C9195979F7B959642
:101520009C938E939497403F08F483CFF80184A155
:1015300095A19B7F95A384A37CCF81E09C968C93FF
:10154000F7019681858197FD1AC087FD8FE7D80145
:1015500098968C93D80198968C91989780589896E5
:101560008C939897F70185819D968C939D978681A2
:101570009E968C939E9787819F968C935ACF8138A5
:1015800008F481E8F80180A7E5CFCF92DF92EF92CF
:10159000FF920F931F93CF93DF93EC010E941904E6
:1015A0006B017C01E881F9810190F081E02DCE0191
:1015B000099544E061E771E0CE010E94F0088C01DA
:1015C000E881F9810280F381E02DCE0109950115B2
:1015D000110529F0F8018181807F803F11F16AE0D7
:1015E00070E080E090E00E94E7030E9419046C190B
:1015F0007D098E099F096B3F71058105910590F268
:10160000C0E062E370E080E090E00E94E7038C2F8E
:10161000DF91CF911F910F91FF90EF90DF90CF90CE
:101620000895C1E0EECFFC019081911107C0838144
:1016300094810196B1F090E080E008959F3051F4DC
:10164000228130E02F7033272F30310581F482E082
:1016500090E00895923041F0943049F485E090E0B4
:10166000089583E090E0089584E090E0089581E09B
:1016700090E00895FC016093BC002FEF3FEF809154
:10168000BC0087FF06C09091B900987F908381E0ED
:1016900008952150310999F780E00895CF93DF93A1
:1016A000EC016093BB0064E80E943A0B882329F0A8
:1016B00081E09881983209F080E0DF91CF91089520
:1016C000DF92EF92FF920F931F93CF93DF93EC0182
:1016D000D62EF42E8989882329F0411103C00E9457
:1016E000F407198A8E01015F1F4F8989811119C082
:1016F000E88864EAC8010E943A0B882361F08F856C
:10170000883011F0803139F4EE0CE092BB0064E8CF
:10171000C8010E943A0B60E0F11060E4C8010E9429
:101720004E0B6D2DC8010E944E0B82E0F8120BC0CB
:1017300089898F5F898BDF91CF911F910F91FF90E6
:10174000EF90DF9008950E94F407198AF4CFDC012E
:10175000ED91FC910084F185E02D40E00994FC01BD
:101760002781269526952695621720F46583606B60
:101770000C94A70B08950F931F93CF93FC01268120
:10178000621798F4C62F8C0164836085C60F6C2F96
:101790006F700E94A70B6C2F62956F706061C8011B
:1017A000CF911F910F910C94A70BCF911F910F9187
:1017B00008951F93CF93DF93EC01142F0E94BB0B6E
:1017C000612FCE01DF91CF911F910C94AF0B2F921F
:1017D0003F924F925F926F927F928F929F92AF92C1
:1017E000BF92CF92DF92EF92FF920F931F93CF930E
:1017F000DF9300D000D000D0CDB7DEB7FC01238549
:1018000034852115310509F416C19E838D83F901B4
:101810003296649031964491E42EF12CF7E0EF0E6D
:10182000F11C53E0F594E7945A95E1F7E982F90148
:10183000349654913196E4916D30F1F460E00E9459
:10184000BB0B81E090E026960FB6F894DEBF0FBE8A
:10185000CDBFDF91CF911F910F91FF90EF90DF905F
:10186000CF90BF90AF909F908F907F906F905F9040
:101870004F903F902F9008956A3081F460E08D8101
:101880009E810E94BB0BED81FE81868565818E9DC8
:10189000600D1124CF010E94AF0BD3CF651708F460
:1018A000CAC08E2F90E0FC01E50FF11D6E171F06D8
:1018B0000CF0C1C089010A5F1F4F651BED81FE81DD
:1018C00071855685759F502D11245C83F9015491C3
:1018D0002F5F3F4FF9012491352F2230310508F059
:1018E0006AC06E9CC0016F9C900D1124689FF0012E
:1018F000699FF00D11240E0F1F1F512CED81FE81E9
:10190000F481FA83ED81FE812580F285FB83862CAC
:10191000912CAA24A394B12C312C8981381608F07B
:1019200086C0412CED81FE818685481608F078C07E
:101930008B818287311002C0442041F0ED81FE810D
:1019400045814F5F6A81CF010E94D90BD12CC12CF8
:10195000C61408F058C0F801EC0DFD1D7490552018
:1019600061F0EA14FB0449F4E72DF0E0052C02C015
:10197000F595E7950A94E2F77E2EED81FE81868546
:10198000823081F4442009F43AC072948FE07822C6
:10199000E72DF0E0EB51FE4F7490672D8D819E8115
:1019A0000E948D06672D8D819E810E948D068FEF8E
:1019B000C81AD80ACDCF477028E0522E541A4111C8
:1019C00001C0512CF801612C30E020E0661631F0A6
:1019D0004491240F311D63943196F8CF600E712E1F
:1019E000711CF3016490E29EF001E39EF00DF29E03
:1019F000F00D11248E0F9F1F080F191F7FCFF72D99
:101A0000FF707F2EC5CFD12CEC81DE1639F060E05F
:101A10008D819E810E948D06D394F6CF439482CF10
:101A20003394080D191DFFEFAF1ABF0A76CF622D50
:101A30008D819E8130CF90E080E005CF0F931F9382
:101A4000CF93DF938C01D0E0C0E0F801EC0FFD1FD5
:101A50006491662341F086E196E00E94E70B892BB2
:101A600011F02196F2CFCE01DF91CF911F910F910E
:101A70000895CF92DF92EF92FF920F931F93CF932F
:101A8000DF93EC01F62EC42ED22E1A868F81869516
:101A900086958695081710F00FEF080F1D2D01177A
:101AA00080F0412F6F2DCE010E94D90BEF2CCE1468
:101AB00030F06D85CE010E948D06E394F8CF1F5F54
:101AC000EECF4D2D6F2DCE01DF91CF911F910F9154
:101AD000FF90EF90DF90CF900C94D90B0F93FC0107
:101AE000078106950695069501504681415020E0F4
:101AF00060E00E94390D0F9108954F925F926F92AE
:101B00007F928F92AF92CF92EF92FF920F931F939B
:101B1000CF93DF93CDB7DEB72701380194E0899FDB
:101B200080011124F801EC55FB4F80819181A28145
:101B3000B3818E219521A621B72131E0892B8A2BF3
:101B40008B2B09F430E03C1103C08889882301F114
:101B5000C11001C0A82C2D5F640F422F86E196E0D2
:101B60000E94D90B6A2D86E196E00E94E70BF801EE
:101B7000EC55FB4FCC20D1F080819181A281B381C3
:101B800084299529A629B72980839183A283B383C9
:101B9000DF91CF911F910F91FF90EF90CF90AF9079
:101BA0008F907F906F905F904F90089540945094E5
:101BB0006094709480819181A281B3818421952168
:101BC000A621B721E1CF8F929F92AF92BF92CF9281
:101BD000DF92EF92FF920F931F93CF93DF93D82E54
:101BE000C62FE82FF0E0EE0FFF1FEE5BFC4FB0803A
:101BF00007E023E041816B2D86E196E00E94390DDC
:101C000047E06B2D86E196E00E94D90BC13069F563
:101C100085E191E00E941E0D81E08D15C8F0C2EDB6
:101C2000D2E099249394E880F9800A811B819F92E5
:101C30008F80AE80CC24C3942C814D816B2D8D2D53
:101C40000E947D0D28960F9083E0C234D80759F783
:101C5000DF91CF911F910F91FF90EF90DF90CF9088
:101C6000BF90AF909F908F90089589EC91E0DF91A5
:101C7000CF911F910F91FF90EF90DF90CF90BF9089
:101C8000AF909F908F900C941E0D0F9307E022E071
:101C90004FE760E086E196E00E94390D80912C05C7
:101CA00090912D0582309105E1F020F4019779F0B3
:101CB0000F9108958330910541F10497C9F766E0CB
:101CC00086E196E00E94BB0B8CE291E007C064E2E3
:101CD00086E196E00E94BB0B89E491E00F910C94A1
:101CE0001E0D62E186E196E00E94BB0B88E291E066
:101CF0000E941E0D83E291E00E941E0D8EE191E094
:101D00000E941E0D89E191E0E9CF64E286E196E050
:101D10000E94BB0B8FE391E0E1CF809312016EEA4A
:101D200081116FEA86E196E00E94A70B0E941904D8
:101D30006093D8047093D9048093DA049093DB0401
:101D40000895FC01448550E0A585B0E0AA0FBB1FB3
:101D5000A75CBA4F0D90BC91A02D13968C91806416
:101D600090913D05BF01992321F06E5F7F4F0C9448
:101D7000C8046D5F7F4FFBCF089590E080E0089529
:101D8000CF92DF92FF920F931F93CF93DF936C015B
:101D900070E06F5F7F4F759567959091F604961789
:101DA00058F09091F704FF24F39401E010E09617A7
:101DB00030F082E0F82E6AC0F12C10E000E0F8016B
:101DC000EA50FB4F81E0890F808391115FC083E16E
:101DD00090E00E94C733EC0191E09C839D839E01BB
:101DE000265F3F4F3F832E83198618862AED33E006
:101DF000398328831C861B861E861D869F87988BA9
:101E0000DA8AC98A81EC8A870E94B205FC01818145
:101E10003C81682F630F7727771F683071057CF549
:101E2000A281B3811097F9F4D383C28390819A83FE
:101E30008B838D81890F808390E080E08317F8F495
:101E40002181A22FB0E0BD01635D7E4F4E815F8195
:101E5000480F591FDA014C91DB014C932F5F21830E
:101E60000196ECCFDA0118964D915C9119974115C6
:101E70005105C1F71996DC93CE931897D7CF000F71
:101E8000111FF801E75CFA4FD183C0838F2DDF91DA
:101E9000CF911F910F91FF90DF90CF9008954F92B7
:101EA0005F926F927F928F929F92AF92BF92CF92EA
:101EB000DF92EF92FF920F931F93CF93DF93CDB7F3
:101EC000DEB7C456D1090FB6F894DEBF0FBECDBF42
:101ED0003C01CB01D42EF22EE896BFACE897E996F0
:101EE0009FACE9972BEF33E0D3012D933C936F2DFB
:101EF0000E94C00E182FF301858781E08F1508F02E
:101F000080E080933D0581E094E0D30111969C939D
:101F10008E931296DC922C2D2A0D2E0D200FBB2DA8
:101F2000B90D5B2E580C822F850D95E0980FF301AB
:101F3000948735E0398391E09A8349E04B833C8371
:101F400031EA3D839E839F1508F0E7C385E88F83C0
:101F5000D88698E0E1E0F0E0EC0FFD1FE90FF11DFD
:101F600045E04083E1E0E90F66246394712C6C0E38
:101F70007D1E6E0E711CF30159E05083E2E0E90F03
:101F800061E070E06C0F7D1F6E0F711DFB0189E138
:101F90008083E3E0E90FA1E0B0E0AC0FBD1FAE0F1E
:101FA000B11DFD0131E03083E4E0E90F6624639464
:101FB000712C6C0E7D1E6E0E711CF30189E2808304
:101FC000E5E0E90F61E070E06C0F7D1F6E0F711DA1
:101FD000FB0188E18083E6E0E90FA1E0B0E0AC0F0F
:101FE000BD1FAE0FB11DFD0175E1472E4082E7E038
:101FF000E90F66246394712C6C0E7D1E6E0E711CAD
:10200000F3011082E8E0E90F61E070E06C0F7D1FE2
:102010006E0F711DFB01A5E2FA2EF082E9E0E90FD7
:10202000A1E0B0E0AC0FBD1FAE0FB11DFD013083CC
:10203000EAE0E90F66246394712C6C0E7D1E6E0E2F
:10204000711CF30175E77083EBE0E90FA1E0B0E0EC
:10205000AC0FBD1FAE0FB11DFD013083ECE0E90FE9
:1020600066246394712C6C0E7D1E6E0E711CF30140
:1020700065E96083EDE0E90FA1E0B0E0AC0FBD1FC2
:10208000AE0FB11DFD018083EEE0E90F662463947D
:10209000712C6C0E7D1E6E0E711CF30181E8808325
:1020A000EFE0E90FA1E0B0E0AC0FBD1FAE0FB11D36
:1020B000FD01A2E0DA2ED082E0E1E90F662463940C
:1020C000712C6C0E7D1E6E0E711CF3014083E1E1DC
:1020D000E90FA1E0B0E0AC0FBD1FAE0FB11DFD01D7
:1020E0003083E2E1E90F66246394712C6C0E7D1E4F
:1020F0006E0E711CF3015083E3E1E90FA1E0B0E043
:10210000AC0FBD1FAE0FB11DFD0149E34083E4E1FB
:10211000E90F66246394712C6C0E7D1E6E0E711C8B
:10212000F3014082E5E1E90FA1E0B0E0AC0FBD1F93
:10213000AE0FB11DFD011082E6E1E90F6624639444
:10214000712C6C0E7D1E6E0E711CF301F082E7E1A6
:10215000E90FA1E0B0E0AC0FBD1FAE0FB11DFD0156
:1021600047E04083E8E1E90F66246394712C6C0E2C
:102170007D1E6E0E711CF30145E34083E9E1E90F1A
:10218000A1E0B0E0AC0FBD1FAE0FB11DFD0110828C
:10219000EAE1E90F66246394712C6C0E7D1E6E0ECD
:1021A000711CF30146E44083EBE1E90FA1E0B0E0EC
:1021B000AC0FBD1FAE0FB11DFD014BE34083ECE141
:1021C000E90F66246394712C6C0E7D1E6E0E711CDB
:1021D000F3013083EDE1E90FA1E0B0E0AC0FBD1FEA
:1021E000AE0FB11DFD0145E64083EEE1E90F662427
:1021F0006394712C6C0E7D1E6E0E711CF30144E114
:102200004083EFE1E90FA1E0B0E0AC0FBD1FAE0FDE
:10221000B11DFD017083E0E2E90F66246394712C27
:102220006C0E7D1E6E0E711CF30148E04083E1E2EE
:10223000E90FA1E0B0E0AC0FBD1FAE0FB11DFD0175
:102240006083E2E2E90F66246394712C6C0E7D1EBC
:102250006E0E711CF3013083E3E2E90FA1E0B0E000
:10226000AC0FBD1FAE0FB11DFD018083E5E2E90F8C
:1022700084E2890F66246394712C6C0E7D1E680EB7
:10228000711CD301DC92222309F400C166246394FB
:10229000712C6C0E7D1E6E0E711CF3015083E6E2F4
:1022A000E90FA1E0B0E0AC0FBD1FAE0FB11DFD0105
:1022B0003083E7E2E90F66246394712C6C0E7D1E77
:1022C0006E0E711CF3014082E8E2E90FA1E0B0E07C
:1022D000AC0FBD1FAE0FB11DFD011082E9E2E90F89
:1022E00066246394712C6C0E7D1E6E0E711CF301BE
:1022F00086E28083EAE2E90FA1E0B0E0AC0FBD1F07
:10230000AE0FB11DFD018FEF8083EBE2E90F662474
:102310006394712C6C0E7D1E6E0E711CF301108285
:10232000ECE2E90FA1E0B0E0AC0FBD1FAE0FB11DB4
:10233000FD017083EDE2E90F66246394712C6C0E4D
:102340007D1E6E0E711CF3014083EEE2E90FA1E0E9
:10235000B0E0AC0FBD1FAE0FB11DFD016083EFE219
:10236000E90F66246394712C6C0E7D1E6E0E711C39
:10237000F3012083E0E3E90F21E030E02C0F3D1F63
:102380002E0F311DF90181EA808382E3890FE1E399
:10239000E90F61E070E06C0F7D1F6E0F711DFB0196
:1023A0001082002391F0E1E0F0E0EC0FFD1FE80F58
:1023B000F11D508384E3890F9D5CE1E0F0E0EC0FB8
:1023C000FD1FE90FF11D90E39083EE20A1F0E1E005
:1023D000F0E0EC0FFD1FE80FF11D99E09083E1E0C4
:1023E000E80FA1E0B0E0AC0FBD1FAE0FB11DFD01C5
:1023F00091E390838E5FCC20A9F0E1E0F0E0EC0F58
:10240000FD1FE80FF11D99E09083E1E0E80F6624DD
:102410006394712C6C0E7D1E6E0E711CF30192E3A1
:1024200090838E5FAA20A1F0E1E0F0E0EC0FFD1FA9
:10243000E80FF11D99E09083E1E0E80F21E030E042
:102440002C0F3D1F2E0F311DF90195E390838E5FF8
:10245000E1E0F0E0EC0FFD1FE80FF11D91E8908343
:10246000E1E0E80F61E070E06C0F7D1F6E0F711D01
:10247000FB0192E09083E3E0E80F8E5FA1E0B0E023
:10248000AC0FBD1FA80FB11D20EC2C93552009F4F3
:10249000FAC025E081E090E08C0F9D1F8E0F911D0A
:1024A000DC012C9381E08E0F66246394712C6C0EFA
:1024B0007D1E680E711C22E0D3012C9382E08E0FEA
:1024C00066246394712C6C0E7D1E680E711C25E1D0
:1024D000D3012C9383E08E0F66246394712C6C0ED1
:1024E0007D1E680E711CD3011C9284E08E0F662441
:1024F0006394712C6C0E7D1E680E711C26E2D30154
:102500002C9385E08E0F66246394712C6C0E7D1ED7
:10251000680E711C2FEFD3012C9386E08E0F66247A
:102520006394712C6C0E7D1E680E711CD3011C927D
:1025300087E08E0F66246394712C6C0E7D1E680EEE
:10254000711C25E7D3012C9388E08E0F66246394D9
:10255000712C6C0E7D1E680E711C28E0D3012C932B
:1025600089E08E0F66246394712C6C0E7D1E680EBC
:10257000711C25E9D3012C938AE08E0F66246394A5
:10258000712C6C0E7D1E680E711CD3015C92ABE049
:10259000AE0F66246394712C6C0E7D1E6A0E711C46
:1025A000D30181EA8C934DE04E0F8CE08E0F21E039
:1025B00030E02C0F3D1F280F311DD9011C928820BF
:1025C000A9F0A1E0B0E0AC0FBD1FA40FB11D89E0E0
:1025D0008C934FE04E0FE25F66246394712C6C0E77
:1025E0007D1E6E0E711CF3018BEB8083BB20A1F06E
:1025F000E1E0F0E0EC0FFD1FE40FF11D89E08083C6
:10260000E1E0E40F21E030E02C0F3D1F2E0F311DE3
:10261000F90185EC80834E5F9920A1F0E1E0F0E0C4
:10262000EC0FFD1FE40FF11D89E08083E1E0E40F72
:1026300061E070E06C0F7D1F6E0F711DFB0188EC77
:1026400080834E5FE1E0F0E0EC0FFD1FE40FF11D31
:1026500081E88083E1E0E40F81E090E08C0F9D1F32
:102660008E0F911DFC0182E08083E3E0E40FA2E085
:10267000A40F66246394712C6C0E7D1E6A0E711C6F
:10268000D30180EC8C93A1E0B0E0AC0FBD1FAE0F86
:10269000B11D80EC8C93EF5FEE2EF12CC7010E94F0
:1026A000C7336C01A701BE016F5F7F4F0E94F134F9
:1026B00087E090E00E94C733DC0111961C921E92C5
:1026C0001396DC92CE9212971596FC92EE92149786
:1026D00016961C921697E12FF0E0EE0FFF1FE75CB5
:1026E000FA4FBD0180819181CC59DF4F0FB6F8942C
:1026F000DEBF0FBECDBFDF91CF911F910F91FF9035
:10270000EF90DF90CF90BF90AF909F908F907F9091
:102710006F905F904F900C949C028C5F848796E042
:1027200019CC0E94EC34CF93DF93FC0120853185D6
:1027300080E0232B69F4EB0161897289CE010E944C
:10274000FA34FE0101900020E9F731978E2F8C1B9F
:10275000DF91CF9108952F923F924F925F926F92A7
:102760007F928F929F92AF92BF92CF92DF92EF9221
:10277000FF920F931F93CF93DF93CDB7DEB7AC9744
:102780000FB6F894DEBF0FBECDBF0E94C203C0904B
:102790003801D09039018090F1049090F204A0901B
:1027A000F304B090F404681979098A099B09460179
:1027B000B12CA12C681579058A059B0508F405C480
:1027C00080912C0590912D058230910509F440C42B
:1027D00028F4019709F463C0512CE3C383309105B9
:1027E00011F40C94641F0497B9F78091E8048111E7
:1027F0000C94C1228091E90481110C94C1227601CC
:10280000EE0CFF1CEE0CFF1CE5E0EE1AF1080EE8E2
:1028100015E0A8EEAA2EA4E0BA2EB2E96B2EB5E020
:102820007B2ED8018D919D918D010E944708F50165
:1028300081935F018091E804811104C08091E904D3
:10284000882339F0F2E0CF16D10418F0C7010197C0
:10285000F1F76016710629F781E00E948D0E07E0FE
:1028600027E04FE760E086E196E00E94390D67E0DF
:1028700086E196E00E94AF0B60E086E196E00E9460
:10288000BB0B8091E80481110C949F228091E90494
:1028900081110C949B2289EC91E00C949D229E0165
:1028A0002F5F3F4F38A32F8F8CE0D9011D928A955F
:1028B000E9F780912C01882381F010922C018091FE
:1028C0003A01833050F045E064E286E196E00E94F0
:1028D000D90B8BED91E00E941E0D80910C06809328
:1028E000110680910D0690910E0690931306809329
:1028F000120680910F069091100690931506809312
:102900001406A0910A0610920A062C9A8BE290E017
:102910000197F1F72C9883E190E00197F1F790E0AF
:1029200080E030E020E043E150E06CB166FBEE2453
:10293000E0F8F12CB701082E02C0660F771F0A9449
:10294000E2F7262B372B2D98FA013197F1F72D9AC4
:10295000FA013197F1F701968031910531F7832F14
:1029600082958F7090E18D3009F091E070E060E029
:1029700050E040E0E3E1EE2EF12CECB1E6FB002765
:1029800000F910E0F801062E02C0EE0FFF1F0A94B6
:10299000E2F74E2B5F2B2D98F7013197F1F72D9A27
:1029A000F7013197F1F76F5F7F4F691730F3982F79
:1029B000909520953095409550958F3021F44E3F5D
:1029C000BFEF5B07E1F1E0910A0661E06E0F6093F3
:1029D0000A0661E070E0E11102C070E060E0811180
:1029E00013C0E32FFF27EF70FF273F9769F48AE0BA
:1029F000869FF001879FF00D1124E95FF94F8FE06A
:102A000085835187408711C092FFD5C08AE0869F99
:102A1000F001879FF00D1124E95FF94F84E0858371
:102A20009370892F90E0918780878AE0869FF001DC
:102A3000879FF00D1124E95FF94F3783268380913A
:102A40000A068A17B8F44AE09FEF21E030E08111CE
:102A500002C030E020E0429FF001439FF00D1124BE
:102A6000E95FF94F958317821682118610868F5F72
:102A7000A813EBCF8091FD05809302068091FE059F
:102A80009091FF05909304068093030680910006C1
:102A90009091010690930606809305066091FB05D0
:102AA0001092FB058E9A8BE290E00197F1F78E98D9
:102AB00083E190E00197F1F750E040E090E080E0A2
:102AC000E3E1F0E02FB1022E000C330B2227330F8D
:102AD000221F3327042E02C0220F331F0A94E2F76D
:102AE000822B932B8D98DF011197F1F78D9ADF01DF
:102AF0001197F1F74F5F5F4F4031510519F7792F6B
:102B000072957F7010E17D3009F011E0F0E0E0E0B7
:102B100050E040E0B3E1EB2EF12C2FB1022E000C7F
:102B2000330B2227330F221F33270E2E02C0220F12
:102B3000331F0A94E2F7422B532B8D98D70111973C
:102B4000F1F78D9AD7011197F1F73196E11728F334
:102B5000272F20958C0100951095409550957F303A
:102B600029F44E3FBFEF5B0709F447C08091FB0596
:102B700091E0980F9093FB05E1E0F0E0811102C035
:102B8000F0E0E0E08AE08E9FD0018F9FB00D11242D
:102B9000A850BA4F71111AC0812F99278F709927A9
:102BA0000F97A1F48FE015968C93159719965C9367
:102BB0004E93189717C09AE0969FF001979FF00DDB
:102BC0001124E95FF94F9FE089271ACF22FF72C0D5
:102BD00084E015968C931597237030E019963C93FA
:102BE0002E9318972AE02E9FC0012F9F900D11243D
:102BF000FC01E850FA4F17830683E091FB05EDA333
:102C0000E617C0F48E2F4AE09FEF21E030E08111FB
:102C100002C030E020E0429FF001439FF00D1124FC
:102C2000E850FA4F958317821682118610868F5FBF
:102C30006813EBCF90900A06FDA1F90DFBA320E2EB
:102C400035E038A72FA3D12C512C80913A013BA11C
:102C50003D1509F456C1D81609F453C1BB24B394E9
:102C6000D91408F4B12C21E030E0D91448F5D11082
:102C700002C030E020E06AE0629FA001639F500D37
:102C80001124DA01A45FB94F3D01823051F599203A
:102C900009F4A6C0CD010E94130BEB2DF0E0EE0F5E
:102CA000FF1F21E030E02C0F3D1FE20FF31F918347
:102CB000808317C09FE0972715969C93159776CF32
:102CC000D91002C030E020E0BAE0B29FA001B39F6B
:102CD000500D1124FA01E350FA4F3F01823009F4FC
:102CE0007FC0D3018C9115969C911597891323C0B1
:102CF00011964D915C91129716962D913C911797D4
:102D00004217530759F413964D915C9114971896F6
:102D10002D913C914217530709F45AC0811119C0F3
:102D2000F301838194810196A1F4D30118968D91CA
:102D30009C91019671F08D2D0E947F0880913A013F
:102D4000823039F4C3010E94130BBC018B2D0E9409
:102D5000012CC3010E94130B1C01F301818192819C
:102D6000DC01A095B09524E0B695A7952A95E1F7EA
:102D70001A2F1F709C0121703327AC01569547957F
:102D800070E060E04170552766277727F2E02F1644
:102D90003104C1F5232B09F0426082FD516083FDAF
:102DA0005260AFA1B8A5ED91FC9143835483658334
:102DB000A12FB0E0AA53BC4F8C918683CF010E9413
:102DC000A10E80913A01823009F45CC055245394DD
:102DD000D3946FA178A56E5F7F4F78A76FA335CF8F
:102DE0003DA1332309F47DCFC3010E94130BEB2DCA
:102DF000F0E0EE0FFF1F61E070E06C0F7D1FE60F4B
:102E0000F71F55CF232B09F0426090FD446091FDE0
:102E1000486092FD406193FD406224E02216310437
:102E200021F5D30113962D913C9134FD406435FD7D
:102E3000406820FD546021FD586022FD506123FD53
:102E4000506224FD506425FD506826FD616027FD19
:102E5000626030FD646031FD686032FD606133FDA9
:102E6000606237FF9ACF606498CFB5E02B163104CB
:102E700009F093CFF301238120FD406421FF8DCF22
:102E800040688BCF16E4412E13E0512E19A28B2DF2
:102E900090E0880F991FFC01EE5BFC4FFCA7EBA7AD
:102EA000F2E02F16310441F429A1283008F5F2018F
:102EB000E05AFF4F243008F0F201E080F1800281F7
:102EC0001381D30111968D919C918E219F21CC2449
:102ED000C394892B09F4C12C1F928780A68024817A
:102EE0004581EBA5FCA560818B2D0E947D0D0F9087
:102EF000F9A1FF5FF9A328E0420E511CFC3081F6D6
:102F000065CF09811A81823079F4809120019091F6
:102F100021010817190741F00115110529F470E086
:102F200060E080E00E94012C1093210100932001B9
:102F30000B811C8180913A01823079F480912201C9
:102F4000909123018017910741F00115110529F493
:102F500070E060E081E00E94012C10932301009357
:102F600022018091F0047BA17817C0F4172F809183
:102F7000F004181798F480913A01181779F0812F0E
:102F80000E947F08E12FF0E0EE0FFF1FE05EFA4F96
:102F9000808191810E94A10E1F5FE9CF8BA1809358
:102FA000F0040E94C2036093F1047093F2048093D2
:102FB000F3049093F404552041F0809112018111A3
:102FC0000C94CA2481E00E948D0E80911201882306
:102FD000B1F00E9419040091D8041091D9042091F5
:102FE000DA043091DB04601B710B820B930B603CA5
:102FF000744D8140910518F080E00E948D0E4E992D
:103000000EC06CE271E080E090E00E94E7038091E6
:10301000120181110C94D62481E00E948D0EAC9691
:103020000FB6F894DEBF0FBECDBFDF91CF911F91D9
:103030000F91FF90EF90DF90CF90BF90AF909F9057
:103040008F907F906F905F904F903F902F9008955A
:103050001092EF0450901805552009F4EBC25090DF
:103060001C05511003C00E942C299BCF80911E0586
:1030700090911F050E948809582E811103C010925B
:103080001C058FCF8091C204811113C080910D0562
:1030900090910E05092E000CAA0BBB0B8093BE0469
:1030A0009093BF04A093C004B093C10481E08093C7
:1030B000C2041D8E1E8A188A1F861A821982809168
:1030C0001E0590911F05DC0196962D913C919797D6
:1030D000512C2630310599F49C965C90552079F05E
:1030E0008E010F5F1F4F9E01215F3F4FAE014A5E71
:1030F0005F4FBE01635E7F4F0E949028582E8F85E0
:10310000988910E00497F9F48091BC049091BD0473
:10311000988B8F87019709F020C18EEF8D8F8FEFED
:103120008E8B1092BB041092BA041092B9041092C4
:10313000B8048E8990E0982F88278E6F9093B704FB
:103140008093B60410E86F8578896115710521F0C8
:103150007093BD046093BC044E898D8D342F282F4D
:103160003093B5042093B404A0911E05B0911F05BF
:1031700094968D919C919597809590957C01EE0CFD
:10318000FF1CEE0CFF1CE4E0EE22FF24AC014C7FA0
:10319000E42AF52AF092B304E092B2045110F7C089
:1031A000AC01442751709C0122273270BC01662774
:1031B00073706115734009F0D4C01092150521E0B9
:1031C00094FD09C023E095FD06C027E096FD03C0ED
:1031D00097FF03C02FE02093140521E030E084FD29
:1031E0000CC022E030E085FD08C024E030E086FD20
:1031F00004C087FF06C028E030E030931305209319
:10320000120521E0AC014427547092FF20E093FBAB
:10321000882780F92817A9F062E0452B09F461E0BE
:103220006093110570E080EA90E00E9499337093FA
:10323000100560930F057595679570930E05609363
:103240000D05809115056EE771E0813051F065E85C
:1032500071E0813030F068E771E0823011F06BE6A8
:1032600071E081E00E942F2A64E671E082E00E9412
:103270002F2A6091140570E090E080E04AE00E94FF
:10328000932C6BE571E083E00E942F2A8091120558
:10329000909113050E94E12C64E571E084E00E94A6
:1032A0002F2A80911105813009F06EC08EE091E0E7
:1032B0000E94E12C81E00E948D0E68EC70E080E0BD
:1032C00090E00E94E7030E942C2980911E059091B6
:1032D0001F05FC0126A137A12630310589F424A55C
:1032E000222371F08E010F5F1F4F9E01215F3F4F20
:1032F000AE014A5E5F4FBE01635E7F4F0E94902821
:103300001092BB041092BA041092B9041092B8043F
:1033100080910D0590910E05092E000CAA0BBB0B98
:103320008093BE049093BF04A093C004B093C104E3
:103330008091B4049091B5049093B7048093B6043F
:1033400080911505833009F02CCE8091B00487FF61
:103350006CC18F5F8093B00424CE8EEF8D8F1E8A58
:10336000E0CEBC0166277C7061157C4039F0452BAE
:1033700049F4232B09F423CF22E001C023E020935A
:1033800015051DCF21E0FBCF87E890E091CFD090CD
:103390001505E0910F05F0911005672B09F454C055
:1033A0008091B6049091B704A901481B590B8091F4
:1033B000B8049091B904840F951F9093B904809339
:1033C000B804DD2019F063E0D6123EC01092B104BB
:1033D000052E000C660B770B8090BE049090BF0406
:1033E000A090C004B090C104480D591D6A1D7B1DFA
:1033F0004093BE045093BF046093C0047093C10413
:1034000077FF08C01092BE041092BF041092C0044F
:103410001092C104AF010F2E000C660B770B809049
:10342000BE049090BF04A090C004B090C1044815A1
:1034300059056A057B0544F44093BE045093BF04CC
:103440006093C0047093C1044F010F2E000CAA08B2
:10345000BB088FEF8D0D823008F0A2C040910D05A2
:1034600050910E0588279927841B950B281739073B
:103470000CF06FC01092BE041092BF041092C004F2
:103480001092C10471E0D71273C081E08093B1043F
:10349000809114058F708063812BDD968C93209131
:1034A000BA043091BB04A0901205B090130580912E
:1034B000B8049091B904821B930BB5010E94993313
:1034C00061384FEF740714F461E87FEF8B016038C7
:1034D000710514F00FE710E00A9DC0010B9D900DDF
:1034E0001A9D900D1124820F931F9093BB0480931B
:1034F000BA04C02E2091BE043091BF044091C00494
:103500005091C104AFEFB0E00E945D339F01FF0F07
:10351000440B550B0E943E33B22E322F63E0D6127D
:1035200052C080EC07FD03C0002319F08FE38093A5
:10353000B0042091B00427FF3BC06894E0F8F092FB
:10354000B304E092B2048091B2049091B3048D7FF1
:1035500036C04217530784F48092BE049092BF0491
:10356000A092C004B092C10481E0D81609F48DCFB6
:1035700081E08093B10414C091E0D91202C010928E
:10358000B104420F531F70E060E04093BE045093BB
:10359000BF046093C0047093C10422E0D21641F3CB
:1035A0008091B104813009F473CFDD961C9377CFFD
:1035B0008091B2049091B3048260222321F290930F
:1035C000B3048093B204E090B204F090B30480910D
:1035D000AE049091AF048E159F0541F48091AD0427
:1035E000381304C08091AC04C816E9F0F092AF041F
:1035F000E092AE04B092AD04C092AC0481E00E94AF
:10360000E228E0912005F09121057FE0E722E382A6
:10361000F48280911705811102C0B7820683CF0121
:103620000E94A10E85CE512C83CE882309F4B9CCFB
:10363000815090CE8091ED0481115FC08091EE04A5
:1036400081115BC080911C0581110DC08091F20534
:103650009091F305DC01ED91FC910680F781E02D5E
:10366000099580931C058093ED0480911D058111BF
:103670000DC08091F4059091F505DC01ED91FC9170
:103680000680F781E02D099580931D058093EE0457
:1036900081E00E948D0E07E027E04FE760E086E1C1
:1036A00096E00E94390D67E086E196E00E94AF0B3C
:1036B00060E086E196E00E94BB0B8091ED048111F1
:1036C0000BC08091EE04811103C089EC91E002C02F
:1036D0008EEB91E00E941E0D62E486E196E00E946E
:1036E000BB0B9091ED048091EE04992361F181115F
:1036F00004C08EEB91E00E941E0D32EFC32E35E028
:10370000D32E4BEE642E44E0742E5DEEA52E54E0D5
:10371000B52E10E000E0FF24F394F6018191919121
:103720006F0190931F0580931E05D3011D923D01EB
:10373000F50121915F0121110BC00130110541F10B
:1037400001E010E0EACF8111D2CF89EC91E0D3CF34
:103750009801245E3A4F1901D9012C91211124C1FD
:10376000DC01ED91FC910680F781E02D099588231D
:1037700059F0F101F082E0911E05F0911F0566A15C
:1037800077A1802F0E949E2B80911B058823A9F290
:10379000412C9924939480913A01481608F001CC69
:1037A000842D90E0FC01E45EFA4F2081222309F48D
:1037B000F4C0FC01E551FB4FB080BB2009F4EDC023
:1037C000880F991FFC01EE50FA4F00811181109370
:1037D0001F0500931E05C0901A05CC2009F4F0C007
:1037E000D090EF04AD2CB12CF501E85FFE4F808145
:1037F000882331F0108265E070E08D2D0E949E2BB1
:10380000A0911E05B0911F05E1E0E9A392962D91CC
:103810003C91939794968D919C9195972817390791
:1038200009F419A29896EC909897D9968C91D9970B
:10383000F12C882319F0D596FC90D597F094212C83
:10384000882319F0D3962C90D3972094312C882379
:1038500019F0D4963C90D49730940091EF0410E086
:10386000F801EE0FFF1FE05EFA4F60807180F301F8
:10387000E782F0862186328680911905882329F017
:10388000E0912005F0912105E38694962D913C91DD
:103890002095309535FB882780F934FD826033FD13
:1038A000846023FD8860D30113968C93139714963C
:1038B0001C92149715961C9280E00E94E2289801B1
:1038C0002A5F3E4FF9014081C8018C5F9E4FD801AD
:1038D000AE5FBE4F00501F4FE4120CC0FC01408190
:1038E000F41208C04C91241205C0F8014081341232
:1038F00001C0C9A0F901E082FC01F0822C92D8013C
:103900003C92CC2009F447C0C3010E94A10EB1E053
:10391000BD1508F440C0E2E56E2EE2E07E2EFBEF1E
:103920003F2EAA0CBB1CF501EE5BFC4FFCA3EBA3E6
:10393000D3015896ED90FD900D911C915B975C968C
:103940002C915C975D964C915D975E96AC905E97DE
:103950005F968C90B1E0B315B8F4E0911E05F0913C
:103960001F0584A195A1809590958E219F21CC243F
:10397000C394892B09F4C12C1F92EBA1FCA1608197
:103980008D2D0E947D0D0F90F8E06F0E711C339409
:1039900028E03212CDCF39A1532A8091EF048F5FF6
:1039A0008093EF044394F7CE0E948809F301319786
:1039B00080838111E9CED1011C9270E060E0E1CEFC
:1039C000F0901B05FF2009F4A1C18091D304882346
:1039D00009F4A9C081E00E948D0E1091D30411302A
:1039E00009F06AC0A0901E05B0901F0568E070E065
:1039F000C5010E941529C82E8091D0048150C110A4
:103A00000BC060E070E4C5010E941529C82E882310
:103A100029F08091D0048F5F8093D004A0901E0580
:103A2000B0901F0560E070E2C5010E94152988234F
:103A300029F091E0910F9093D304C82ED50196966A
:103A40008D919C9197970797C9F49C968C919C9720
:103A50008823A1F09A968D919C919B9798966D9151
:103A60007C918130910511F00C941C256530710515
:103A700029F06A30710511F00C941C25CC2089F0D6
:103A80008091D304813009F046C060E971E083E0A1
:103A90000E942F2A8091D004082E000C990B0E94BE
:103AA000E12C5090D1045520A1F1809120059091F6
:103AB00021050E94A10E71CF1230F1F4A0901E05D5
:103AC000B0901F0568E070E0C5010E941529C82E5E
:103AD0008091CA048150C1100CC060E070E4C5013F
:103AE0000E941529C82E882309F498CF8091CA0412
:103AF0008F5F8093CA0492CF133009F08FCF10925A
:103B0000D30405E024E04FE760E086E196E00E9400
:103B1000390D5F2C42CF6DE871E083E00E942F2ABF
:103B20008091CA04B9CF8091D204811114C08091D0
:103B3000170581117AC08091D104811176C09092CD
:103B4000D2049092D1046DEA71E081E00E942F2AA4
:103B500081E00E948D0E5090D2045520D1F2E09168
:103B60001E05F0911F0524A135A12095309535FB48
:103B7000882780F923FD826036FD8460009120054E
:103B800010912105D80113968C9386A197A18230BC
:103B9000910508F402CF8430910508F47BC707979C
:103BA00009F0FBCE84A5882309F47BCF82A593A5D9
:103BB00060A571A58130910509F04EC7653071058A
:103BC00009F46FCF6A30710509F046C78091CD04C2
:103BD0009091CE04009709F066C084A195A18095CC
:103BE00090959C01287030722830304209F059CFEE
:103BF00096FF57CF1092D2048091D104882331F0E0
:103C0000D80113961C92C8010E94A10E81E00E9467
:103C10008D0E63E971E082E00E942F2A68EE73E066
:103C200080E090E00E94E70335C760E070E2C801E1
:103C30000E941529811107C068E070E0C8010E9448
:103C40001529882359F09092D20444E060E086E17F
:103C500096E00E94D90B0E94092A5BCF60E070E4D5
:103C6000C8010E941529582E882309F471CF90921B
:103C7000D2049092D30466EA71E082E00E942F2A77
:103C800063EA71E083E00E942F2A8091D004082E1D
:103C9000000C990B0E94E12C6CE271E080E090E056
:103CA0000E94E7037ACE6091CB047091CC04611539
:103CB000710509F492CF2091CA04620F711D27FD8E
:103CC0007A952091D004820F911D27FD9A950E942C
:103CD000D5288091CF048F5F8093CF048F3F09F068
:103CE000E0CE1092CF041092CE041092CD04109228
:103CF000CC041092CB048091D104882309F4D1CE56
:103D0000F8011482158216821782C4C6D090EF047F
:103D100022242394F80122A133A184A195A128177C
:103D2000390709F4212CD80196966D907C900D2DC1
:103D300010E0000F111FF801EC52FB4F80819181C0
:103D40006816790621F0B3018D2D0E949E2BE1E0CB
:103D5000F0E0EC0FFD1FE00FF11F71826082C301E4
:103D60000197059708F096C080E00E94E228E09154
:103D70001E05F0911F05FAA3E9A384A195A18095E2
:103D80009095292F221F2227221F30E096FD2260C6
:103D900095FD246094FD286092FD206193FD2062D2
:103DA00090FD206491FD206880FD316083FD3260CC
:103DB00081FD346082FD3860A9A1BAA19896AC90CB
:103DC00098979996CC9099978091EF0490E0FC0198
:103DD000EE0FFF1FE05EFA4F0190F081E02D9C9600
:103DE0004C91442309F465C0B5E06B16710409F4E5
:103DF00060C0A782C086BC01605F7E4FDB01FC9083
:103E0000AC01425F5E4FFA1004C0DA01FC90322C24
:103E1000FC103B2CDB01AC92DA01CC92A9A1BAA137
:103E20009A965C919A979B964C919B979C966C91D5
:103E3000662329F0B5E06B16710409F042C040E832
:103E40004187428750E8BC01645F7E4F7B01DB0104
:103E50006C91865F9E4F651305C0DC016C91641305
:103E600001C0B32CD7015C93DC014C9323833483D2
:103E70001582BB2079F0CF010E94A10EB1E0BD15E3
:103E800048F040911E0550911F0520E0B3018D2D93
:103E90000E94E52AD801AC52BB4FE1E0F0E0EC0F04
:103EA000FD1FE00FF11F808191818D939C9352281B
:103EB00074CD40E84783408740E8C42E50E8A52EE3
:103EC0009ACF51874287BFCFFE0131966F018CE0B8
:103ED000DF011D928A95E9F780911F01882381F007
:103EE00010921F0180913A01833050F045E06EE15D
:103EF00086E196E00E94D90B84EB91E00E941E0DB2
:103F0000E2ECF5E08AEE95E020853185358724875F
:103F1000228533853787268738968E179F07A1F726
:103F20004091C8051092C8051092C905469A5C9A3E
:103F300083E090E00197F1F799B18CB153B123B1CF
:103F400086FB882780F9880F880F991F9927991F6A
:103F5000990F990F990F890F25FB992790F9890FD0
:103F600052955170550F580F09F069C081E0809348
:103F7000C8058091CA059091CB05009719F0A1E082
:103F8000039709F4A2E0B0E023E030E05C98C901B7
:103F90000197F1F799B18CB163B173B186FB8827B2
:103FA00080F9880F880F991F9927991F990F990FEA
:103FB000990F890F75FB992790F9890F62956170A8
:103FC000660F680F4698C9010197F1F7E9B19CB1F6
:103FD00073B1F3B196FB882780F9880F880F9E2F65
:103FE000991F9927991F990F990F990F890FF5FB21
:103FF000992790F9890F74FB992790F9990F890FE8
:104000000091CC051091CD05E82FF0E061114DC075
:10401000107FFE2FEE27E00FF11FF093CD05E09308
:10402000CC05B1E05F5FA51337C083E090E0B1112C
:1040300002C082E090E09093CB058093CA05469839
:104040005C9883E290E00197F1F79091C80580E0D9
:104050002FEF3FEF9817D1F1E82F863008F0E5E019
:10406000F0E0DF0113E0AA0FBB1F1A95E1F7A6539A
:10407000BA4F03E0EE0FFF1F0A95E1F7EE53FA4F38
:104080000D90BC91A02D64857585A617B70711F01A
:10409000338722878F5FDECF513009F077CF469A82
:1040A0005C9AC9010197F1F771CF007F600F712F02
:1040B000711D6F7084E0EE0FFF1F8A95E1F76E0FA0
:1040C0007F1F7093CD056093CC05ACCF8417F0F4BF
:1040D0006FEF7FEF282F863008F025E030E0F90100
:1040E000A3E0EE0FFF1FAA95E1F7E653FA4F118206
:1040F0001082B3E0220F331FBA95E1F7F901EE53B6
:10410000FA4F738762878F5F4813E4CFE2E9F5E0E7
:104110008AEB95E020853185358724872285338594
:104120003787268738968E179F07A1F72091980525
:1041300010929805109299052B9A2A9A83E090E0A4
:104140000197F1F783B13FB19FB14FB1869581706F
:10415000880F880F880F331F3327331F330F330F18
:10416000830F45FB332730F9830F96FB992790F98E
:10417000990F980F09F069C081E0809398054091EC
:104180009A0550919B054115510521F031E04330CE
:10419000510509F432E0A0E043E050E02A98FA012A
:1041A0003197F1F783B17FB16FB1EFB1869581702F
:1041B000880F880F880F771F7727771F770F770F64
:1041C000870FE5FB772770F9870F66FB662760F995
:1041D000660F680F2B98FA013197F1F783B1EFB1B1
:1041E0007FB1FFB186958170880F880F880FEE1F11
:1041F000EE27EE1FEE0FEE0F8E0FF5FBEE27E0F928
:104200008E0F76FB772770F9770F870F00919C054B
:1042100010919D05E82FF0E061114EC0107FFE2F38
:10422000EE27E00FF11FF0939D05E0939C05A1E0C0
:104230009F5F391338C083E090E0A11102C082E093
:1042400090E090939B0580939A052B982A9883E29F
:1042500090E00197F1F780919805A12C4FEF5FEF67
:104260008A15D9F1EA2DB5E0BA1508F4E5E0F0E0D9
:10427000DF0113E0AA0FBB1F1A95E1F7A656BA4F4C
:1042800003E0EE0FFF1F0A95E1F7EE56FA4F0D908F
:10429000BC91A02D64857585A617B70711F05387CB
:1042A0004287A394DDCF913009F078CF2B9A2A9AD8
:1042B000FA013197F1F772CF007F600F712F711DF6
:1042C0006F7084E0EE0FFF1F8A95E1F76E0F7F1F7E
:1042D00070939D0560939C05ABCFA216F8F43A2D20
:1042E0004FEF5FEF832F363008F085E090E0FC0160
:1042F00063E0EE0FFF1F6A95E1F7E656FA4F118271
:10430000108273E0880F991F7A95E1F7FC01EE5651
:10431000FA4F538742873F5F2313E4CF9090C8053D
:10432000692C6A0C40E2E42E45E0F42EB12C512CAD
:1043300080913A016B1409F4AEC0B81609F4ABC011
:1043400077247394B91408F4712C0B2DB91430F53B
:10435000E5E0EB1508F405E0F8E00F9F800111247B
:1043600006531A4F823091F1D8012D913C9111974B
:1043700014968D919C91159728173907A9F51296D7
:104380002D913C91139716968D919C912817390782
:10439000C1F5B394B2E0EB0EF11CCACF0919063097
:1043A00008F005E028E0029F8001112406561A4F0C
:1043B0008230D1F6F80180819181AA20A9F2E72DFF
:1043C000F0E0EE0FFF1FEC0DFD1D0BC0992091F3E7
:1043D000E72DF0E0EE0FFF1FEC0DFD1DD8018D91D4
:1043E0009C9191838083C0CF8B2D0E947F08809108
:1043F0003A01823031F4F80160817181872D0E9489
:104400009D2AD80112964D915C9124E030E045FF41
:1044100002C030E020E044FF206246FF316047FFE9
:104420003260F80180819181039741F450FF22604E
:1044300051FF216052FF286053FF2061F701A081E6
:10444000B18113962C93139714963C931497159659
:104450001C921597E42FE17042FDE26043FDE46099
:1044600041FDE860F0E0EA53FC4F808116968C93A2
:104470001697CD010E94A10E80913A01823041F43D
:10448000D8016D917C9120E0A801872D0E94402ADF
:10449000552453947ECF09811A81823079F480911A
:1044A0001301909114018017910741F00115110536
:1044B00029F470E060E080E00E949D2A10931401CE
:1044C000009313010B811C8180913A01823079F4B1
:1044D00080911501909116018017910741F0011507
:1044E000110529F470E060E081E00E949D2A10939C
:1044F0001601009315018091EA046816C0F4162D88
:104500008091EA04181798F480913A01181779F00D
:10451000812F0E947F08E12FF0E0EE0FFF1FE05E89
:10452000FA4F808191810E94A10E1F5FE9CF6092B6
:10453000EA040C94D1178EEB91E00E941E0D62E408
:1045400086E196E00E94BB0B9091E8048091E9041B
:10455000992309F47AC0811104C08EEB91E00E9486
:104560001E0D8091E804882321F061E080E00E9424
:10457000E30D8091E904882321F061E081E00E944D
:10458000E30D1D8E1E8EB12CE7E0AE2E80913A0118
:10459000B81608F069C0EB2CF12CF701EE0FFF1FE5
:1045A000E257FA4F008111811093E7040093E6046B
:1045B000F701E851FB4F8081882309F444C0C8010A
:1045C0000E94470897012C513B4F6901882309F449
:1045D00041C087E0F801DE01569601900D928A9560
:1045E000E1F787E0FE017696DE011F9601900D92BD
:1045F0008A95E1F7AE9CC001AF9C900D112461E05B
:1046000070E06C0F7D1F860F971FFE013F96DC0147
:104610002A2D01900D922A95E1F7DC018D919C9154
:1046200011E0009709F410E0F6012081211109C082
:10463000892B39F08B2D0E94280861E08B2D0E9478
:10464000E30DD6011C93B394A1CF811184CF89ECE3
:1046500091E085CF8B2D0E94280860E08B2D0E9471
:10466000E30DF6011082EFCFB12C67E0D62E8091DA
:104670003A01B81608F087C16B2C712CF301EC518C
:10468000FB4F8081882309F47CC1D69CF001D79C24
:10469000F00D112421E030E02C0F3D1FE20FF31F3D
:1046A0002381822F82958F7090E0982F8827929592
:1046B000907F2F7030E0322F2227820F931F2481AA
:1046C000422F42954F7030E1439FA0011124840F87
:1046D000951F2F701C01220E311CB301660F771F2E
:1046E0007AA369A3DB01A052BB4F8D919C91958069
:1046F00076817BA3D301A252BB4FBEA3ADA32C9165
:10470000921207C0F301E452FB4F2081271709F4EE
:10471000C8C1EDE1F0E0EC0FFD1FE60DF71D21E053
:104720002816390609F420E02083D69CF001D79C96
:10473000F00D112421E030E02C0F3D1FE20FF31F9C
:10474000838122E030E087FD02C030E020E0D69C8B
:10475000F001D79CF00D112461E070E06C0F7D1F1B
:10476000E60FF71F838186FD2160D69CF001D79C60
:10477000F00D112481E090E08C0F9D1FE80FF91FD0
:10478000838185FD3160D69CF001D79CF00D11240A
:10479000A1E0B0E0AC0FBD1FEA0FFB1F838184FDD9
:1047A0003260D69CF001D79CF00D112461E070E0DE
:1047B0006C0F7D1FE60FF71F848185FD2061D69C5D
:1047C000F001D79CF00D112481E090E08C0F9D1F2B
:1047D000E80FF91F848184FD2062D69CF001D79CEC
:1047E000F00D1124A1E0B0E0AC0FBD1FEA0FFB1FDC
:1047F000848183FD2064D69CF001D79CF00D1124A8
:1048000061E070E06C0F7D1FE60FF71F848182FD71
:104810002460D69CF001D79CF00D112481E090E03B
:104820008C0F9D1FE80FF91F848181FD2860D69CA5
:10483000F001D79CF00D1124A1E0B0E0AC0FBD1F3A
:10484000EA0FFB1F848180FD2068E9A1FAA1E05EE8
:10485000FA4FA081B18113962C93139714963C9331
:10486000149715961C921597D69CF001D79CF00DC5
:10487000112421E030E02C0F3D1FE20FF31F838154
:1048800083FBEE27E0F941E04E2782FF4260D69C91
:10489000C001D79C900D112461E070E06C0F7D1F6A
:1048A000860F971FFC01838181FF4460D69CC00165
:1048B000D79C900D112421E030E02C0F3D1F820F7A
:1048C000931FFC01838180FF4860E42FF0E0EA53EE
:1048D000FC4F808116968C93169780E8890D179669
:1048E0008C9317978BA18058809518968C93189766
:1048F000CD010E94A10E82ED482E82E0582EB1011A
:1049000090E080E06FA378A789A79AA7E9A1FAA110
:10491000EE5BFC4F70817BA7D201ED90FD900D9175
:104920001C918FA198A5A9A5BAA58E219F21A0238E
:10493000B123CC24C394892B8A2B8B2B09F4C12C53
:104940001F92F2018780A680248145816BA58B2D63
:104950000E947D0DF8E04F0E511C0F9022E433E0D1
:1049600024153505C9F6E9A1FAA1E052FB4F3182C1
:104970002082ADA1BEA19C92F301E452FB4FBBA1EA
:10498000B083B39474CE5D8C51100C94D1175E8CAF
:104990000C94D1170E9419046093D8047093D90421
:1049A0008093DA049093DB040C94E517E0902C05D7
:1049B000F0902D050E9418080E94450E10E000E0BE
:1049C00062E070E080E090E00E94E7034E990CC046
:1049D0006CE271E080E090E00E94E7030E9418081A
:1049E0000E94450E10E000E00F5F1F4F003DF7E012
:1049F0001F0731F760912C0570912D056E157F050D
:104A000021F40E94450E0C940F1890E080E00E9463
:104A1000303386E196E00E946E0D8EEC91E00E94AC
:104A20001E0D88E19EE00FB6F894A8958093600073
:104A30000FBE90936000FFCF2091CA04620F711DDA
:104A400027FD7A952091D004820F911D27FD9A951C
:104A50000E94D5280C943E1D1092CF049093CE0452
:104A60008093CD047093CC046093CB042091D10447
:104A7000222311F40C94511D2091CA04620F711D60
:104A800027FD7A952091D004820F911D27FD9A95DC
:104A90000E94D5288091D20481110C94511D0C9450
:104AA000891D2816390609F034CE6BCF1F920F925C
:104AB0000FB60F9211242F933F938F939F93AF9331
:104AC000BF9380912F0590913005A0913105B09151
:104AD000320530912E0523E0230F2D3758F501962E
:104AE000A11DB11D20932E0580932F0590933005B5
:104AF000A0933105B0933205809133059091340530
:104B0000A0913505B09136050196A11DB11D809388
:104B1000330590933405A0933505B0933605BF91C6
:104B2000AF919F918F913F912F910F900FBE0F905A
:104B30001F90189526E8230F0296A11DB11DD2CF14
:104B40001F920F920FB60F9211248F939F93809113
:104B5000E1009091E100937F9093E10083FF0FC00B
:104B60001092E90091E09093EB001092EC0092E338
:104B70009093ED001092380598E09093F00082FF3A
:104B800022C093E09093E9009091F200992319F0EC
:104B90009AE39093E80090910A05992341F090914F
:104BA0000A05915090930A05911101C05D9A909168
:104BB0003705992341F0909137059150909337052F
:104BC000911101C0289A84FF18C08091E2008E7E66
:104BD00081608093E2008091E1008F7E8093E1000C
:104BE00080910B058E7E806180930B059F918F9144
:104BF0000F900FBE0F901F90189580FFF7CF8091F8
:104C0000E2008E7E80618093E2008091E1008E7EE2
:104C10008093E10080910B058E7E8160E5CF1F922D
:104C20000F920FB60F921124CF92DF92EF92FF9264
:104C30000F931F932F933F934F935F936F937F93A4
:104C40008F939F93AF93BF93EF93FF93CF93DF9394
:104C5000CDB7DEB76C97DEBFCDBF1092E900809173
:104C6000E80083FF25C068E0CE0145960E947805E4
:104C700082EF8093E8008D8987FF39C09091E8002A
:104C800090FFFCCF982F907609F034C19E894F8910
:104C9000588D2F89F88C911131C0803861F5809141
:104CA0000C058093F1001092F1008EEF8093E800E4
:104CB0006C960FB6F894DEBF0FBECDBFDF91CF91DB
:104CC000FF91EF91BF91AF919F918F917F916F91E4
:104CD0005F914F913F912F911F910F91FF90EF9016
:104CE000DF90CF900F900FBE0F901F9018959EEF02
:104CF0009093E800C7CF1092F100D5CF913059F4CE
:104D00008111D3CF4130510581F680910C058D7F03
:104D100080930C05CACF933049F48111C6CF41303E
:104D2000510519F680910C058260F2CF953041F45F
:104D30008091E80080FFFCCF20682093E300B5CF8E
:104D4000963009F0A9C00B8D1C8D22E01092E9006D
:104D50001092080510920705F2122EC01092060557
:104D6000109205050E94C6051F8299E09983FA8278
:104D700091E09E8390EA98879AEF998720910705A2
:104D800030910805275F3F4F3C832B838D83109222
:104D9000E90010920805109207051093060500938C
:104DA000050549E050E0BE016F5F7F4F80E00E9443
:104DB0008C040E94C60579CF109306050093050563
:104DC0000E94B205DC0112960D911C91011511058E
:104DD00009F451C1D801ED91FC910480F581E02DD9
:104DE000BE016B5E7F4FC8010995009709F03EC177
:104DF000F80100851185EACFF3E0FF120EC08F891C
:104E0000882309F440C0823061F440E86CE084E714
:104E100092E00E945904811148CF81E28093EB0017
:104E200047CF813029F440E867E08CE692E0F1CF8B
:104E3000833099F70E94B205DC011296ED90FC9048
:104E40008E010F5F1F4F6801E114F10479F0D70163
:104E5000ED91FC910680F781E02DB801C70109951D
:104E6000080F111DF701E084F184EECFD8011C92E8
:104E7000F60101900020E9F73197BF016C197D0917
:104E800040E0C601C6CF66E572E0FB01449150E008
:104E900080E80E948C0409CF973009F4BECF983087
:104EA00021F481E08093F10000CF993009F0FDCE2C
:104EB000837009F0B2CFEEE2F1E081E031E096E3F9
:104EC0002191222371F08093E9003093EB00DF0100
:104ED00011972C912093EC009093ED008F5F873019
:104EE00079F78EE78093EA001092EA008F89809329
:104EF0003805DBCE8B8D9C8D1092E9001092080551
:104F0000109207059093060580930505898D811100
:104F100092C08E899D89913A49F4813209F07DCF02
:104F200047E050E06BE371E080E0B3CF913209F0ED
:104F300074CF833269F48F89988DB0E0A0E08093BC
:104F4000340190933501A0933601B0933701ADCE73
:104F5000803269F48091E80082FFFCCF67E08BE348
:104F600091E00E9478058BEF8093E8009ECE82321C
:104F700009F09BCE8F8980934201EEEFFFE7859188
:104F800094918B3F9C4D51F1E0E0F8E080913B0122
:104F900090913C01A0913D01B0913E01803B944035
:104FA000A105B105F1F48091420180FD1AC0EE3FE8
:104FB0008AE0F80789F587E797E7918380838091F6
:104FC00060008093090588E19BE00FB6F894A895EE
:104FD000809360000FBE9093600067CEEEEFFAE022
:104FE000D5CF808191818737974709F05ECEA8950C
:104FF00080916000886180936000809109058093B2
:105000006000EE3F2AE0F20789F08091FE0A90915D
:10501000FF0A9183808349CE8081918187379807E9
:1050200051F29093FF0A8093FE0AC5CF1092FF0AB7
:105030001092FE0A3ACE0E94B205DC0112960D9142
:105040001C910115110509F4E8CED801ED91FC91F0
:105050000190F081E02DBE016B5E7F4FC801099584
:10506000811123CEF80100851185EBCF18161906A2
:105070000CF41BCED2CEF1E0FF12BECE6AE572E098
:1050800004CF1F93CF93DF93EC0180E888A789A713
:105090008AA78BA71CA6FE01BD968CE0DF011D929E
:1050A0008A95E9F71FA21EA21AAE1BAE1CAE1DAE5A
:1050B00015E0CE010E94880961E070E080E090E098
:1050C0000E94E7031150A9F7CE01DF91CF911F9104
:1050D0000C948809CF93DF93EC01849A8C9A229ADE
:1050E0002A9A219A299A23982B982B9A0E94F7059D
:1050F000CE01DF91CF910C944128CF93DF93EC0147
:105100003E9A469A229A2A9A219A299A23982B986B
:105110002B9A0E94F705CE01DF91CF910C94412884
:105120000F931F93CF93DF93EC01F9018DA5DB0162
:105130008C938EA5DA018C939FA59F709130D9F046
:1051400038F09230E9F09430F1F08FE090E015C043
:10515000118210828FA5807F8038C1F0803CE1F001
:10516000811120C0F8011182108281E0DF91CF917E
:105170001F910F91089581E090E091838083EACFA1
:1051800082E090E0FACF84E090E0F7CF80E890E012
:10519000D8018D939C93E9CF80EC90E0F801918346
:1051A0008083E3CF80EF90E0F3CF2091D1042223DE
:1051B00041F0E0912005F091210584839583668379
:1051C00077830895E0911E05F0911F0524A135A174
:1051D00020953095F90134E0F695E7953A95E1F799
:1051E00091E0E927E17026FFE26027FFE46025FFF8
:1051F000E86090911605992311F0E92BEF70A091CA
:10520000EF04B0E0AA0FBB1FA05EBA4F0D90BC9197
:10521000A02DF0E0EA53FC4F9081882319F01596F9
:105220009C93089516969C930895FC0124A135A1A2
:1052300042A153A1422753274623572391E0452BF0
:1052400009F490E0209530956223732381E0672B69
:1052500009F480E0892308958F929F92BF92CF92A4
:10526000DF92EF92FF920F931F93CF93DF93CDB70F
:10527000DEB729970FB6F894DEBF0FBECDBF809181
:105280001E0590911F05DC01ED91FC910680F781D0
:10529000E02D0995882309F4AAC081E080931C05BC
:1052A00080911E0590911F050E94C50A882309F46C
:1052B00098C000911E0510911F0589E0E9EEF1E00C
:1052C000DE01119601900D928A95E1F71D820E94F0
:1052D00019046B017C01B12CD801ED91FC91019076
:1052E000F081E02DC801099545E0BE016F5F7F4F59
:1052F000C8010E94F0084C01D801ED91FC91028098
:10530000F381E02DC8010995892809F0B394B2E032
:10531000BB1588F06AE070E080E090E00E94E7034F
:105320000E9419046C197D098E099F096B3F710554
:105330008105910588F262E370E080E090E00E94D0
:10534000E70300911E0510911F0589E0E0EEF1E0F2
:10535000DE01119601900D928A95E1F70E941904E1
:105360006B017C01B12CD801ED91FC910190F08191
:10537000E02DC801099545E0BE016F5F7F4FC80170
:105380000E94F0084C01D801ED91FC910280F3815C
:10539000E02DC8010995892809F0B394B2E0BB1546
:1053A00088F06AE070E080E090E00E94E7030E94ED
:1053B00019046C197D098E099F096B3F71058105E0
:1053C000910588F262E370E080E090E00E94E703DC
:1053D00081E0F80182AF80911E0590911F050E9427
:1053E0003A0980911E0590911F050E94880929960F
:1053F0000FB6F894DEBF0FBECDBFDF91CF911F91E6
:105400000F91FF90EF90DF90CF90BF909F908F9083
:1054100008950F9320911B06E0912106F09122063A
:1054200000E0309771F03396E491F0E0379683E036
:10543000F595E7958A95E1F7009124060E9F002DDA
:105440001124EFEFE20F0E0F40911C0641506091C6
:105450001A0686E196E00E94390D0F910895CF93C8
:10546000DF93EB0142E0480F60E086E196E00E94A6
:10547000D90B0E94092ACE01DF91CF910C941E0D09
:105480002F923F924F925F926F927F928F929F9254
:10549000AF92BF92CF92DF92EF92FF920F931F9342
:1054A000CF93DF93B82E2B011A01922EC2EFD1E0D9
:1054B000D12C682E712C660C771CC3018E5B9C4F1F
:1054C0003C0192E04916510419F4E7E0ED15E8F0CB
:1054D000E880F9800A811B812C814D81AE808F800C
:1054E00081E02114310449F0F101628173816E2160
:1054F0007F2181E0672B09F080E09F92C82EF301A5
:1055000060818B2D0E947D0D0F90D3942896FCE036
:10551000DF12D7CFDF91CF911F910F91FF90EF90C6
:10552000DF90CF90BF90AF909F908F907F906F90C3
:105530005F904F903F902F900895EF92FF920F93BE
:10554000CF93DF93C82F7B01E82FF0E0EE0FFF1F12
:10555000EE5BFC4FD08107E023E041816D2F86E1B7
:1055600096E00E94390D47E06D2F86E196E00E949B
:10557000D90B82E0E816F10469F083E0E816F10443
:10558000D9F089EC91E0DF91CF910F91FF90EF90EE
:105590000C941E0D8FE091E00E941E0DC23079F038
:1055A00021E050E040E0B7018C2FDF91CF910F91C7
:1055B000FF90EF900C94402A89E091E0EDCFDF91CD
:1055C000CF910F91FF90EF9008952F923F924F92BD
:1055D0005F926F927F928F929F92AF92BF92CF9283
:1055E000DF92EF92FF920F931F93CF93DF9300D040
:1055F00000D0CDB7DEB7B82E1B012A01922E8091C4
:1056000016058E3009F463C082E592E09C838B839B
:10561000D12CFB013297FA83E9836B2C712C660C39
:10562000771CC3018E5B9C4F3C01E981FA81329764
:1056300070F08FEF8D0D823050F1F5E02F163104B0
:1056400031F4DD2021F188EF8D0D823000F1EB8106
:10565000FC81E080F1800281138124814581A68054
:1056600087804114510459F0F20184A195A18095DD
:1056700090958E219F21CC24C394892B09F4C12CB1
:105680009F92F30160818B2D0E947D0D0F90D3942A
:105690008B819C8108969C838B8390E1D912C5CF26
:1056A0000F900F900F900F90DF91CF911F910F915E
:1056B000FF90EF90DF90CF90BF90AF909F908F9032
:1056C0007F906F905F904F903F902F900895E8E803
:1056D000F1E0FA83E98380EE682E81E0782EEB2DED
:1056E000F0E0EE0FFF1FEE5BFC4FD080E981FA8106
:1056F000E080F1800281138124814581A68087802A
:105700004114510459F0F20184A195A1809590951E
:105710008E219F21CC24C394892B09F4C12C9F9204
:105720006D2D8B2D0E947D0D89819A8108969A831B
:1057300089830F9068167906C9F6B2CFFF920F934E
:105740001F93CF93DF93182FEB01E82FF0E0EE0FBC
:10575000FF1FEE5BFC4FF08007E023E041816F2DDF
:1057600086E196E00E94390D47E06F2D86E196E0D4
:105770000E94D90BC430D105D9F188F4C130D105CC
:1057800031F18AEE90E0C230D10589F089EC91E0E8
:10579000DF91CF911F910F91FF900C941E0DC5309A
:1057A000D105A9F087ED90E0C630D10579F70E94C8
:1057B0001E0D123000F521E050E040E0BE01812FC7
:1057C000DF91CF911F910F91FF900C94E52A80916A
:1057D00016058E3019F483E091E0E9CF80911A0527
:1057E000811103C084EF90E0E2CF8CEF90E0DFCF37
:1057F0008EED90E0DCCFDF91CF911F910F91FF9064
:1058000008955F926F927F928F929F92AF92BF9214
:10581000CF92DF92EF92FF920F931F93CF93DF937C
:10582000D82EEB01E82FF0E0EE0FFF1FEE5BFC4FF0
:10583000908007E023E04181692D86E196E00E9497
:10584000390D47E0692D86E196E00E94D90BC330FF
:10585000D10509F462C0C0F483ED90E0C230D105F7
:10586000E1F089EC91E0DF91CF911F910F91FF90D2
:10587000EF90DF90CF90BF90AF909F908F907F90F0
:105880006F905F900C941E0DC430D10509F448C090
:1058900085EC90E0C530D10521F70E941E0D82E015
:1058A000D81659F186E4682E83E0782EB12C552461
:1058B0005394C230D10549F487E08B15B8F083E0EA
:1058C000F301E05AFF4F8B1508F4F301E080F180FB
:1058D000028113815F928780A680CC24C3942481A7
:1058E0004581692D8D2D0E947D0D0F90B39488E028
:1058F000680E711C8CE0B812DCCFDF91CF911F9144
:105900000F91FF90EF90DF90CF90BF90AF909F905E
:105910008F907F906F905F9008958EEC90E0BDCF58
:105920008AEC90E0BACF8F929F92AF92BF920F9382
:105930001F93CF93DF93CDB7DEB7A1970FB6F8943F
:10594000DEBF0FBECDBF19A2423008F44AE08E017F
:105950000F5D1F4F842E912CB12CA12CA501940119
:105960000E946833E62FB901CA01EA3044F5E05DD0
:10597000D801EE938D01232B242B252B79F790E072
:1059800080E0109769F0FD0101900020E9F7319760
:10599000AF014A1B5B0BBD0186E196E00E948505C5
:1059A000A1960FB6F894DEBF0FBECDBFDF91CF91A9
:1059B0001F910F91BF90AF909F908F900895E95CD9
:1059C000D7CFCF92DF92EF92FF92CF93DF936C010C
:1059D000990FEE08FF08F7FE19C06DE286E196E028
:1059E0000E94E70BEC0166277727CB016C197D0934
:1059F0008E099F094AE00E94932C8C0F9D1FDF9116
:105A0000CF91FF90EF90DF90CF9008954AE0C701CB
:105A1000B601DF91CF91FF90EF90DF90CF900C9483
:105A2000932CDC0116961C92169717961C921797CA
:105A300088E2E9E4F1E0189601900D928A95E1F789
:105A400008951F93CF93DF93EEE3F5E01382128264
:105A500088EE93E0A0E0B0E084839583A683B783CB
:105A600087E094E0918380838FEF9FEF9587848711
:105A7000E6E1F6E0138212821286148613861586FA
:105A800081E0868789E194E091838083E7E0F6E016
:105A9000138214828AE0ECE0F6E0DF01282F1D92E9
:105AA0002A95E9F7E8EFF5E013821482EDEFF5E0CF
:105AB000DF011D928A95E9F7E6EFF5E08EE7808336
:105AC000118282E490E00E94C73312E4FC01212F8E
:105AD00011922A95E9F723E334E0DC012D933C93FE
