:100000000C9458020C9480020C9480020C94800290
:100010000C9480020C9480020C9480020C94800258
:100020000C9480020C9480020C9495250C94042668
:100030000C9480020C9480020C9480020C94800238
:100040000C9480020C9480020C9480020C94800228
:100050000C9480020C9480020C9480020C944B252A
:100060000C9480020C9480020C9480020C94800208
:100070000C9480020C9480020C9480020C948002F8
:100080000C9480020C9480020C9480020C948002E8
:100090000C9480020C9480020C9480020C948002D8
:1000A0000C9480020C9480020C948002AED580A83F
:1000B0003FD300408D142002A1C8DA12817FD9F10C
:1000C000DB40A4A6AF5341542D574845454C00533F
:1000D00041542D33440053415455524E0047454E30
:1000E000455349532D360047454E455349532D330B
:1000F000004A4F47434F4E00464C494748545354DB
:1001000049434B004455414C53484F434B004E45E7
:1001100047434F4E00504F50204E0059200058206A
:10012000004F55545055542044495341424C454486
:1001300000582000434F4E4649470047554E434F15
:100140004E005043452D36005043452D32004A4164
:1001500047554152004E454F2D47454F0050432DC6
:10016000454E47494E45002B4E4547002B47554EBF
:10017000005053580047454E45534953202B2053B8
:10018000415455524E005245424F4F54494E472E0E
:100190002E2E004D554C54492D54415000504C5575
:1001A000472B5245534554004D554C54492D54410D
:1001B000500000030C0F30333C3FC0C3CCCFF0F3F2
:1001C000FCFF0000000200090F0000030401000C06
:1001D000000000000000000000000000000000001F
:1001E00000080B00020202000009040000010202E4
:1001F0000000052400100105240101010424020669
:1002000005240600010705810310004009040100D0
:10021000020A0000000705020240000007058302F1
:100220004000000403090412010002EF020140D063
:10023000167E12000101020301556E6B6E6F776E20
:10024000005265666C6578204164617074005245A7
:10025000464C4558000000050720610000000000E2
:1002600000005F000060707870606050485060036C
:10027000070F07030305090503081C3E7F7F081CC1
:1002800022417F7F7F3E1C087F41221C08082A1CD8
:100290002A0808083E08080050300000080808082E
:1002A00008006060000020100804023E5149453EED
:1002B00000427F400042615149462141454B31187F
:1002C00014127F1027454545393C4A494930017190
:1002D0000905033649494936064949291E0036367B
:1002E00000003C7E7E7E3C3C4242423C141414148E
:1002F00014F0F0F0F0F0F0909090F0324979413E37
:100300007E1111117E7F494949363E414141227F8C
:100310004141221C7F494949417F090901013E4170
:100320004151327F0808087F00417F410020404151
:100330003F017F081422417F404040407F02040279
:100340007F7F0408107F3E4141413E7F0909090635
:100350003E4151215E7F09192946464949493101EB
:10036000017F01013F4040403F1F2040201F7F2070
:1003700018207F631408146303047804036151494F
:10038000454300007F4141020408102041417F00A5
:1003900000383C1E0F0740404040403824120907F7
:1003A00020545454787F48444438384444442038D6
:1003B0004444487F3854545418087E0901020814F4
:1003C00054543C7F0804047800447D40002040449D
:1003D0003D00007F10284400417F40007C04180449
:1003E000787C0804047838444444387C1414140895
:1003F000081414187C7C080404084854545420043D
:100400003F4440203C4040207C1C2040201C3C407D
:1004100030403C44281028440C5050503C44645414
:100420004C44E0E0E0E0E000007F0000E0A0A0A09D
:10043000E008082A1C08081C2A0808000609090602
:10044000AC00198040004E4F4E4500444947495486
:10045000414C0000000000250028002B002E003138
:100460000000000000240027002A002D00300004B6
:10047000040404040304050202020204030202024B
:100480000206060606060604040202020404040824
:10049000020110408040102040804080080204018A
:1004A0008040201002011080102040402000222EA9
:1004B00011241FBECFEFDAE0DEBFCDBF15E0A0E014
:1004C000B1E0EEEAFBE602C005900D92A035B1075F
:1004D000D9F727E0A0E5B5E001C01D92A336B20729
:1004E000E1F712E0C8E5D2E004C02197FE010E94C6
:1004F0009534C735D107C9F70E948F2E0C94D53596
:100500000C94000090E0FC01E257FB4F24918159CC
:100510009B4FFC018491882399F090E0880F991FEC
:10052000FC01EF59FB4FA591B491FC01ED5AFB4F33
:10053000859194918FB7F894EC91E22BEC938FBF57
:100540000895FC01611109C081819281807F480F6B
:10055000592F511D528341830895613051F4818197
:1005600092818F7020E1429FA0011124480F591FF2
:10057000F1CF623039F481819281907F50E0542F25
:100580004427F4CF633049F4818192819F7050E019
:10059000542F44275295507FE9CF643011F44383A0
:1005A0000895653011F444830895663011F445834D
:1005B0000895673009F446830895FC0180919F05F2
:1005C000882311F13FB7F89482E08093E9002091ED
:1005D000F200822F90E01816190614F481E090E0E2
:1005E000882339F0289844E640939E054091F10015
:1005F0004083222339F02091F200211103C02BE621
:100600002093E8003FBF08958FEF9FEF0895CF93A9
:10061000DF931F92CDB7DEB76983DC01ED91FC91CA
:100620000280F381E02D41E050E0BE016F5F7F4F1B
:1006300009950F90DF91CF91089583E08093E900B1
:100640008091F200882319F08AE38093E8000895EE
:10065000CF93DF931F92CDB7DEB7FC0184859585DC
:1006600097FD08C02FEF3FEF358724870F90DF916C
:10067000CF910895CE0101960E94DD02019719F4F1
:10068000898190E0F3CF8FEF9FEFF0CF0F931F930F
:10069000CF93DF931F92CDB7DEB78C01FC01848529
:1006A000958597FF0BC0CE0101960E94DD02019750
:1006B00071F4898190E0F80195878487F801848539
:1006C00095850F90DF91CF911F910F9108958FEF36
:1006D0009FEFF1CFFC018485958597FD0BC09FB7F7
:1006E000F89482E08093E9008091F2009FBF90E04F
:1006F000019608959FB7F89482E08093E900809175
:10070000F2009FBF90E008953FB7F89480919A055A
:1007100090919B05A0919C05B0919D0526B5A89B45
:1007200005C02F3F19F00196A11DB11D3FBFBA2F83
:10073000A92F982F8827BC01CD01620F711D811D43
:10074000911D42E0660F771F881F991F4A95D1F7C8
:1007500008958F929F92AF92BF92CF92DF92EF92C5
:10076000FF924B015C010E9484036B017C010E949B
:1007700084036C197D098E099F09683E73408105C9
:100780009105A8F321E0821A9108A108B10888EE2A
:10079000C80E83E0D81EE11CF11C81149104A10451
:1007A000B10429F7FF90EF90DF90CF90BF90AF900A
:1007B0009F908F9008952FB7F8946091960570914F
:1007C000970580919805909199052FBF08954091C4
:1007D000880550918905209186053091870542173B
:1007E0005307B4F49091E8009570E1F39091E8001C
:1007F00092FD19C08093F100809188059091890540
:1008000001968F739927892B19F48EEF8093E80056
:100810008091880590918905019690938905809330
:10082000880581E0089580E00895EF92FF920F938C
:100830001F93CF93DF93F82E192FE62E042F81E01C
:10084000860F880F0E94E70383E00E94E703CF2D05
:10085000D12FEC0EFD2EF11CCE15DF05B9F007FFF0
:1008600013C0FE0184910E94E703182F80E00E94CC
:10087000E703812321968111EFCFDF91CF911F9163
:100880000F91FF90EF9008958881EDCF81E0F5CF33
:10089000DF92EF92FF920F931F93CF93DF93D82EA7
:1008A0008A01EB017B01E40EF51ECE15DF0559F040
:1008B000D7FE12C0FE0184910E94E70321968111A8
:1008C000F4CF0FEF1FEFC801DF91CF911F910F9170
:1008D000FF90EF90DF9008958881EECF2FB7F894C6
:1008E00087708093E9009091E800892F807295FFCE
:1008F00004C09091F20080E4891B2FBF089583E02B
:100900000E946E0490E008957F928F929F92AF9222
:10091000BF92CF92DF92EF92FF920F931F93CF93EC
:10092000DF93C82E8B017A0180919F05811110C041
:100930008FEF9FEFDF91CF911F910F91FF90EF907D
:10094000DF90CF90BF90AF909F908F907F90089551
:1009500080918C0580FF05C08091E00082608093CB
:10096000E000CE2DDF2DD12C8AEFB82E8C2D877094
:10097000982E8C2D8072882E8C2D8074782E9AE380
:10098000A92E209719F4DD2009F452C08C2D0E9465
:100990006E0481110AC0BA94BB2051F261E070E08C
:1009A00080E090E00E94A903ECCF8C171D0611F0A7
:1009B0000CF08C2F9FB7F8949092E9002091E800FA
:1009C00025FD02C09FBFDDCF282F30E0C21BD30B17
:1009D000882029F08150A0F01092F100FBCFF8019F
:1009E000C7FC0AC0815050F041914093F100FACF0A
:1009F00044914093F10031968150D0F7020F131FBC
:100A0000DD2021F0A092E800D12CDCCF8091E8001D
:100A100085FD07C0A092E800DD24D394209791F2D1
:100A2000F3CF209779F6772069F2A092E800CACF39
:100A30005D9884E680938B05C7017CCFCF93DF93CD
:100A4000EC0180914701882331F083E00E94840407
:100A50001816190634F081E090E09B838A8380E0C9
:100A600090E0DF91CF910895615030F02091F10036
:100A7000FC0120830196F8CF289884E680939E0598
:100A80000895AF92BF92CF92DF92EF92FF920F93B1
:100A90001F93CF93DF936C017B018B01040F151F14
:100AA000EB015E01AE18BF08C017D10759F069917C
:100AB000D601ED91FC910190F081E02DC6010995E0
:100AC000892B79F7C501DF91CF911F910F91FF908D
:100AD000EF90DF90CF90BF90AF90089580917E050A
:100AE00081110DC082E080937A0584E080937B05BC
:100AF00010927D0510927C0581E080937E058AE747
:100B000095E008950F931F93CF93DF931F92CDB776
:100B1000DEB782E0898342E450E061EE71E080E874
:100B20000E9448040E946E05DC0112960D911C91F2
:100B30000115110589F0D801ED91FC910280F38136
:100B4000E02DBE016F5F7F4FC801099597FD04C07E
:100B5000F80100851185ECCF89810F90DF91CF914D
:100B60001F910F910895CF93CFB7F8948091790595
:100B700081115AC040E854E0FA0194912FE934E021
:100B8000F9018491E92FF0E0EE0FFF1FEF59FB4FC1
:100B9000A591B4919C91982309F037C0E3EDF1E061
:100BA0009491F9012491FA018491882309F42DC0CC
:100BB0009923E9F091509F30D0F4E92FF0E0ED5106
:100BC000FA4F0C94953424062806F2051C062006DC
:100BD000F705F705F7052B063106350639063F06FA
:100BE000F7054306909180009F7790938000E82F4F
:100BF000F0E0EE0FFF1FED5AFB4FA591B4918FB7B8
:100C0000F8949C91292B2C938FBF81E10E94820242
:100C10008CB580618CBD8CB580648CBD8FE00E94EA
:100C2000820280E10E948202809179058F5F809329
:100C30007905CFBFCF910895909180009F7DD5CF4A
:100C400090918000977FD1CF94B59F7794BDCFCFFF
:100C500094B59F7DFBCF909190009F7790939000EB
:100C6000C6CF909190009F7DF9CF90919000977F93
:100C7000F5CF9091C0009F779093C000B8CF90912E
:100C8000C0009F7DF9CF9091C200977F9093C200E2
:100C9000AECFCF93DF93EC018A85882329F0815072
:100CA0008A87DF91CF9108959C818E819817C8F72C
:100CB0008D856827E881F9810084F185E02D42E087
:100CC000CE0109958C818F5F8C83EBCFFC018FE087
:100CD00086838FE78783808711861286138608951F
:100CE000FC01138214821582168217820895DC019A
:100CF000FB0112962C911297848195812817190671
:100D000041F491818081813A31F49D7F81E091307D
:100D100009F080E008958132E1F79B3029F4828167
:100D20001F968C9381E008959A3099F782815096AE
:100D30008C93F8CFEF92FF920F931F93CF93DF9393
:100D4000FB012081213889F52381223271F5DC01F4
:100D500012964C91248135814217130631F58C018E
:100D6000FC01C385D485F12CE12C209791F04C81B6
:100D70005D816A817B818E81811180E80E944804B7
:100D80008F3F980759F0E80EF91E0990D881C02DC1
:100D9000ECCF81E0D8011F968C93C701DF91CF91F2
:100DA0001F910F91FF90EF90089590E080E0F6CFB3
:100DB000CF93DF93CDB7DEB769970FB6F894DEBF58
:100DC0000FBECDBFFC01DB018C918F5F8C939E0128
:100DD0002D5F3F4F8DE0D9011D928A95E9F729E0FB
:100DE000298384E08A8391E09D8383E08E832A8730
:100DF00021E22B879C879D879F8722E2288B27E013
:100E00002B8B25E02C8B8E8B20E430E0388F2F8BC2
:100E1000998F82818B8395858685998B8A8B838137
:100E200080688D8B49E150E0BE016F5F7F4F80E0AD
:100E30000E94480469960FB6F894DEBF0FBECDBF7E
:100E4000DF91CF91089523B14FB13FB15FB12695A6
:100E50002170220F220F220F441F4427441F440FEA
:100E6000440F240F55FB442740F9240F36FB33274A
:100E700030F9330F230F019721F01B9920611E9940
:100E80002062822F089559B13CB143B163B136FB62
:100E9000222720F9220F220F352F331F3327331F2C
:100EA000330F330F330F230F65FB332730F9230F35
:100EB00044FB332730F9330F230F019721F0369984
:100EC000206137992062822F08958FB7F89480911E
:100ED00076058FBF089584E98093BC0085E69091E4
:100EE000BC0094FF03C08150D1F7089581E00895BC
:100EF0006EBD00000DB407FEFDCF8EB508952A9A91
:100F0000299A8C9A83EC90E00197F1F708952A9A38
:100F1000299A469A83EC90E00197F1F70895809121
:100F20009305909194050196863091052CF4909349
:100F3000940580939305089581E090E0F8CF909117
:100F40003F01891778F4E82FF0E0EE0FFF1FEB5513
:100F5000FA4F80819181DC01ED91FC910190F0814B
:100F6000E02D099408958CBD9DBD08958C988091C5
:100F70008106909182060E94B30783EC90E001976E
:100F8000F1F70895469880918106909182060E941B
:100F9000B30783EC90E00197F1F708958F929F9249
:100FA000AF92BF92CF92DF92EF92FF920F931F9377
:100FB000CF93DF937C016B015A01022F10E0D0E048
:100FC000C0E083EC882E912CC017D107E1F0D70147
:100FD000ED91FC910480F581E02D6AE5C114D10406
:100FE00021F0D601AC0FBD1F6C91C7010995A1146A
:100FF000B10421F0F501EC0FFD1F8083C4010197BE
:10100000F1F72196E1CFDF91CF911F910F91FF90E2
:10101000EF90DF90CF90BF90AF909F908F9008950A
:10102000CF92DF92EF92FF920F931F93CF93DF93B4
:101030007C016B01D42F8C010E5F1F4F23E0A801B0
:101040000E94CE07F70123812F3F61F410E000E0FA
:10105000C801DF91CF911F910F91FF90EF90DF902A
:10106000CF90089584818A3511F08111EFCF2F70D0
:10107000C22FCC0FD33059F0B6016D5F7F4F2DEFEB
:101080002D0FA7014B5F5F4FC7010E94CE072C2F8A
:101090002D1B2D5FE9F24D2F50E0CA01820F911DEB
:1010A0008197A4F6400F511F70E060E0C7010E94D5
:1010B000CE07CECFAF92BF92CF92DF92EF92FF9248
:1010C0000F931F93CF93DF9300D000D01F92CDB723
:1010D000DEB78C01DC019C961C929C97D9961C92E1
:1010E000D997ED91FC910190F081E02D0995F801DF
:1010F00082AD811108C083AD803409F083C084AD16
:10110000813009F07FC085E0E1E5F2E0DE01119673
:1011100001900D928A95E1F7D80196968D919C9158
:101120009797069709F068C0DD968C918C8345E00F
:10113000BE016F5F7F4FC8010E9410087C01D8017B
:10114000ED91FC910280F381E02DC8010995E11435
:10115000F10409F440C0F7018181807F803F09F0EC
:1011600055C00E94DB036B017C01D801ED91FC911D
:101170000190F081E02DC801099544E068E472E037
:10118000C8010E9410085C01D801ED91FC91028019
:10119000F381E02DC8010995A114B10429F0F501EE
:1011A0008181807F803F89F46AE070E080E090E098
:1011B0000E94A9030E94DB036C197D098E099F0917
:1011C0006B3F71058105910580F262E370E080E07C
:1011D00090E00E94A90380E00F900F900F900F9075
:1011E0000F90DF91CF911F910F91FF90EF90DF90C3
:1011F000CF90BF90AF900895F80183AD8C8384ADFC
:101200008D8395CF43E061E572E095CFD801949648
:101210008D919C91959793969C938E939297238111
:10122000348195963C932E93949781818937B9F4B4
:1012300083E090E097969C938E939697D80196962C
:101240008D919C9197978430910591F150F5823062
:10125000910571F1039709F441C081E0BDCF982F4A
:10126000907F903721F482E090E0D801E3CF903571
:1012700031F484E090E0F80197A386A3DFCF8332B6
:1012800019F485E090E0F1CF903E19F486E090E00B
:10129000F2CF833619F487E090E0E7CF81E090E069
:1012A000EACF8630910509F45CC030F10797A9F6C2
:1012B00081E0D8019C968C939C97F70185819A9642
:1012C0008C939A9786819B968C939B97878198960F
:1012D0008C939897808599968C93BFCF81E0F80185
:1012E00081AFF70139969D96C701459621912D93BF
:1012F000E817F907D9F7DCCF81E09C968C939C978F
:10130000F701958198969C939897D9968C93D99745
:101310008681D3968C93D3979781D4969C93D497B8
:101320004085D5964C93D59797FF05C03F77959606
:101330003C932E93949787FF0AC0D80194968D9181
:101340009C9195979F7B95969C938E939497403F05
:1013500008F483CFF80184A195A19B7F95A384A372
:101360007CCF81E09C968C93F7019681858197FDD7
:101370001AC087FD8FE7D80198968C93D80198966C
:101380008C919897805898968C939897F7018581BF
:101390009D968C939D9786819E968C939E97878130
:1013A0009F968C935ACF813808F481E8F80180A782
:1013B000E5CFFC018081878381819281918780873D
:1013C00083818287848183878581848786818587DD
:1013D0000895FC016093BC002FEF3FEF8091BC00AB
:1013E00087FF06C09091B900987F908381E00895AF
:1013F0002150310999F780E00895CF93DF93EC01F4
:101400006093BB0064E80E94E909882329F081E029
:101410009881983209F080E0DF91CF910895DF92B2
:10142000EF92FF920F931F93CF93DF93EC01D62E91
:10143000F42E8989882329F0411103C00E946B078B
:10144000198A8E01015F1F4F8989811119C0E888AF
:1014500064EAC8010E94E909882361F08F85883019
:1014600011F0803139F4EE0CE092BB0064E8C80161
:101470000E94E90960E0F11060E4C8010E94FD09E2
:101480006D2DC8010E94FD0982E0F8120BC0898908
:101490008F5F898BDF91CF911F910F91FF90EF901C
:1014A000DF9008950E946B07198AF4CFDC01ED915B
:1014B000FC910084F185E02D40E00994FC01278136
:1014C000269526952695621720F46583606B0C940B
:1014D000560A08950F931F93CF93FC01268162173C
:1014E00098F4C62F8C0164836085C60F6C2F6F70D3
:1014F0000E94560A6C2F62956F706061C801CF918F
:101500001F910F910C94560ACF911F910F9108953E
:101510001F93CF93DF93EC01142F0E946A0A612F6F
:10152000CE01DF91CF911F910C945E0A2F923F92D2
:101530004F925F926F927F928F929F92AF92BF92E3
:10154000CF92DF92EF92FF920F931F93CF93DF938F
:1015500000D000D000D0CDB7DEB7FC0123853485A4
:101560002115310509F416C19E838D83F901329648
:10157000649031964491E42EF12CF7E0EF0EF11CCB
:1015800053E0F594E7945A95E1F7E982F90134962E
:1015900054913196E4916D30F1F460E00E946A0A52
:1015A00081E090E026960FB6F894DEBF0FBECDBF67
:1015B000DF91CF911F910F91FF90EF90DF90CF902F
:1015C000BF90AF909F908F907F906F905F904F9063
:1015D0003F902F9008956A3081F460E08D819E8164
:1015E0000E946A0AED81FE81868565818E9D600D6F
:1015F0001124CF010E945E0AD3CF651708F4CAC038
:101600008E2F90E0FC01E50FF11D6E171F060CF008
:10161000C1C089010A5F1F4F651BED81FE81718585
:101620005685759F502D11245C83F90154912F5FCD
:101630003F4FF9012491352F2230310508F06AC05F
:101640006E9CC0016F9C900D1124689FF001699FF2
:10165000F00D11240E0F1F1F512CED81FE81F4811E
:10166000FA83ED81FE812580F285FB83862C912C07
:10167000AA24A394B12C312C8981381608F086C095
:10168000412CED81FE818685481608F078C08B815B
:101690008287311002C0442041F0ED81FE814581F6
:1016A0004F5F6A81CF010E94880AD12CC12CC614D9
:1016B00008F058C0F801EC0DFD1D7490552061F044
:1016C000EA14FB0449F4E72DF0E0052C02C0F5957F
:1016D000E7950A94E2F77E2EED81FE8186858230C1
:1016E00081F4442009F43AC072948FE07822E72D07
:1016F000F0E0EE54FE4F7490672D8D819E810E9424
:101700004906672D8D819E810E9449068FEFC81A78
:10171000D80ACDCF477028E0522E541A411101C08B
:10172000512CF801612C30E020E0661631F0449134
:10173000240F311D63943196F8CF600E712E711C09
:10174000F3016490E29EF001E39EF00DF29EF00D35
:1017500011248E0F9F1F080F191F7FCFF72DFF70C9
:101760007F2EC5CFD12CEC81DE1639F060E08D8163
:101770009E810E944906D394F6CF439482CF33943E
:10178000080D191DFFEFAF1ABF0A76CF622D8D81AC
:101790009E8130CF90E080E005CF0F931F93CF93D1
:1017A000DF938C01D0E0C0E0F801EC0FFD1F6491E5
:1017B000662341F08DE497E00E94960A892B11F090
:1017C0002196F2CFCE01DF91CF911F910F91089515
:1017D000CF92DF92EF92FF920F931F93CF93DF93FD
:1017E000EC01F62EC42ED22E1A868F818695869510
:1017F0008695081710F00FEF080F1D2D011780F0C8
:10180000412F6F2DCE010E94880AEF2CCE1430F0AC
:101810006D85CE010E944906E394F8CF1F5FEECF9D
:101820004D2D6F2DCE01DF91CF911F910F91FF9024
:10183000EF90DF90CF900C94880A0F93FC01078102
:1018400006950695069501504681415020E060E0DE
:101850000E94E80B0F9108954F925F926F927F92D2
:101860008F92AF92CF92EF92FF920F931F93CF93ED
:10187000DF93CDB7DEB72701380194E0899F80015F
:101880001124F801E05BFA4F80819181A281B3813C
:101890008E219521A621B72131E0892B8A2B8B2B14
:1018A00009F430E03C1103C08889882301F1C1109C
:1018B00001C0A82C2D5F640F422F8DE497E00E9499
:1018C000880A6A2D8DE497E00E94960AF801E05B91
:1018D000FA4FCC20D1F080819181A281B3818429FB
:1018E0009529A629B72980839183A283B383DF91A9
:1018F000CF911F910F91FF90EF90CF90AF908F906D
:101900007F906F905F904F900895409450946094B2
:10191000709480819181A281B38184219521A62137
:10192000B721E1CF2F923F924F925F926F927F92B9
:101930008F92AF92CF92DF92EF92FF920F931F930D
:10194000CF93DF933C01D62EC4EFD3E0E880F9803B
:101950000A811B819C814D81AE808F8081E0611462
:10196000710479F0F30122803380448055802E2069
:101970003F204022512281E023282428252809F0F5
:1019800080E0DF92C82E292F60E080E00E942C0CBE
:1019900028960F90F4E0CC39DF07C1F6DF91CF91A4
:1019A0001F910F91FF90EF90DF90CF90AF908F90AD
:1019B0007F906F905F904F903F902F9008950F937E
:1019C000CF93DF93EC0107E023E04CE360E08DE48C
:1019D00097E00E94E80B47E060E08DE497E00E940A
:1019E000880A229761F48BE494E00E94CD0B61E0B9
:1019F00090E080E0DF91CF910F910C94920C86E4FF
:101A000094E0DF91CF910F910C94CD0B0F9307E0F1
:101A100022E04FE760E08DE497E00E94E80B8091C0
:101A20009305909194058330910579F138F48130D4
:101A3000910589F00297C9F00F91089584309105BE
:101A400061F10597C9F76AE28DE497E00E946A0A9E
:101A50008EE491E007C06CE08DE497E00E946A0A92
:101A600085E791E00F910C94CD0B6EE18DE497E04A
:101A70000E946A0A81E791E00E94CD0B8CE691E01A
:101A80000E94CD0B87E691E0EDCF64E28DE497E014
:101A90000E946A0A8DE591E0E5CF6AE28DE497E065
:101AA0000E946A0A85E591E0DDCF809312016EEA1B
:101AB00081116FEA8DE497E00E94560A0E94DB03D1
:101AC00060936705709368058093690590936A0534
:101AD0000895FC01448550E0A585B0E0AA0FBB1F26
:101AE000A056BA4F0D90BC91A02D13968C91806496
:101AF0009091A405BF01992321F06E5F7F4F0C9454
:101B000084046D5F7F4FFBCF089590E080E00895DF
:101B1000CF92DF92FF920F931F93CF93DF936C01CD
:101B200070E06F5F7F4F7595679590917705961779
:101B300058F090917805FF24F39401E010E0961797
:101B400030F082E0F82E6AC0F12C10E000E0F801DD
:101B5000E958FA4F81E0890F808391115FC083E1DA
:101B600090E00E949B34EC0191E09C839D839E0158
:101B7000265F3F4F3F832E831986188622EE33E07F
:101B8000398328831C861B861E861D869F87988B1B
:101B9000DA8AC98A81EC8A870E946E05FC018181FC
:101BA0003C81682F630F7727771F683071057CF5BC
:101BB000A281B3811097F9F4D383C28390819A8371
:101BC0008B838D81890F808390E080E08317F8F408
:101BD0002181A22FB0E0BD016E5C7E4F4E815F81FE
:101BE000480F591FDA014C91DB014C932F5F218381
:101BF0000196ECCFDA0118964D915C911997411539
:101C00005105C1F71996DC93CE931897D7CF000FE3
:101C1000111FF801E056FA4FD183C0838F2DDF9159
:101C2000CF911F910F91FF90DF90CF9008954F9229
:101C30005F926F927F928F929F92AF92BF92CF925C
:101C4000DF92EF92FF920F931F93CF93DF93CDB765
:101C5000DEB7C456D1090FB6F894DEBF0FBECDBFB4
:101C60003C01CB01D42EF22EE896BFACE897E99662
:101C70009FACE99720EA34E0D3012D933C936F2D7C
:101C80000E94880D182FF301858781E08F1508F0D9
:101C900080E08093A40586EA94E0D30111969C939A
:101CA0008E931296DC922C2D2A0D2E0D200FBB2D1B
:101CB000B90D5B2E580C822F850D95E0980FF3011E
:101CC000948735E0398391E09A8349E04B833C83E4
:101CD00031EA3D839E839F1508F0F6C385E88F8324
:101CE000D88698E0E1E0F0E0EC0FFD1FE90FF11D70
:101CF00045E04083E1E0E90F66246394712C6C0EAB
:101D00007D1E6E0E711CF30159E05083E2E0E90F75
:101D100061E070E06C0F7D1F6E0F711DFB0189E1AA
:101D20008083E3E0E90FA1E0B0E0AC0FBD1FAE0F90
:101D3000B11DFD0131E03083E4E0E90F66246394D6
:101D4000712C6C0E7D1E6E0E711CF30189E2808376
:101D5000E5E0E90F61E070E06C0F7D1F6E0F711D13
:101D6000FB0188E18083E6E0E90FA1E0B0E0AC0F81
:101D7000BD1FAE0FB11DFD0175E1472E4082E7E0AA
:101D8000E90F66246394712C6C0E7D1E6E0E711C1F
:101D9000F3011082E8E0E90F61E070E06C0F7D1F55
:101DA0006E0F711DFB01A5E2FA2EF082E9E0E90F4A
:101DB000A1E0B0E0AC0FBD1FAE0FB11DFD0130833F
:101DC000EAE0E90F66246394712C6C0E7D1E6E0EA2
:101DD000711CF30175E77083EBE0E90FA1E0B0E05F
:101DE000AC0FBD1FAE0FB11DFD013083ECE0E90F5C
:101DF00066246394712C6C0E7D1E6E0E711CF301B3
:101E000065E96083EDE0E90FA1E0B0E0AC0FBD1F34
:101E1000AE0FB11DFD018083EEE0E90F66246394EF
:101E2000712C6C0E7D1E6E0E711CF30181E8808397
:101E3000EFE0E90FA1E0B0E0AC0FBD1FAE0FB11DA8
:101E4000FD01A2E0DA2ED082E0E1E90F662463947E
:101E5000712C6C0E7D1E6E0E711CF3014083E1E14E
:101E6000E90FA1E0B0E0AC0FBD1FAE0FB11DFD0149
:101E70003083E2E1E90F66246394712C6C0E7D1EC1
:101E80006E0E711CF3015083E3E1E90FA1E0B0E0B5
:101E9000AC0FBD1FAE0FB11DFD0149E34083E4E16E
:101EA000E90F66246394712C6C0E7D1E6E0E711CFE
:101EB000F3014082E5E1E90FA1E0B0E0AC0FBD1F06
:101EC000AE0FB11DFD011082E6E1E90F66246394B7
:101ED000712C6C0E7D1E6E0E711CF301F082E7E119
:101EE000E90FA1E0B0E0AC0FBD1FAE0FB11DFD01C9
:101EF00047E04083E8E1E90F66246394712C6C0E9F
:101F00007D1E6E0E711CF30145E34083E9E1E90F8C
:101F1000A1E0B0E0AC0FBD1FAE0FB11DFD011082FE
:101F2000EAE1E90F66246394712C6C0E7D1E6E0E3F
:101F3000711CF30146E44083EBE1E90FA1E0B0E05E
:101F4000AC0FBD1FAE0FB11DFD014BE34083ECE1B3
:101F5000E90F66246394712C6C0E7D1E6E0E711C4D
:101F6000F3013083EDE1E90FA1E0B0E0AC0FBD1F5C
:101F7000AE0FB11DFD0145E64083EEE1E90F662499
:101F80006394712C6C0E7D1E6E0E711CF30144E186
:101F90004083EFE1E90FA1E0B0E0AC0FBD1FAE0F51
:101FA000B11DFD017083E0E2E90F66246394712C9A
:101FB0006C0E7D1E6E0E711CF30148E04083E1E261
:101FC000E90FA1E0B0E0AC0FBD1FAE0FB11DFD01E8
:101FD0006083E2E2E90F66246394712C6C0E7D1E2F
:101FE0006E0E711CF3013083E3E2E90FA1E0B0E073
:101FF000AC0FBD1FAE0FB11DFD018083E5E2E90FFF
:1020000084E2890F66246394712C6C0E7D1E680E29
:10201000711CD301DC92222309F400C1662463946D
:10202000712C6C0E7D1E6E0E711CF3015083E6E266
:10203000E90FA1E0B0E0AC0FBD1FAE0FB11DFD0177
:102040003083E7E2E90F66246394712C6C0E7D1EE9
:102050006E0E711CF3014082E8E2E90FA1E0B0E0EE
:10206000AC0FBD1FAE0FB11DFD011082E9E2E90FFB
:1020700066246394712C6C0E7D1E6E0E711CF30130
:1020800086E28083EAE2E90FA1E0B0E0AC0FBD1F79
:10209000AE0FB11DFD018FEF8083EBE2E90F6624E7
:1020A0006394712C6C0E7D1E6E0E711CF3011082F8
:1020B000ECE2E90FA1E0B0E0AC0FBD1FAE0FB11D27
:1020C000FD017083EDE2E90F66246394712C6C0EC0
:1020D0007D1E6E0E711CF3014083EEE2E90FA1E05C
:1020E000B0E0AC0FBD1FAE0FB11DFD016083EFE28C
:1020F000E90F66246394712C6C0E7D1E6E0E711CAC
:10210000F3012083E0E3E90F21E030E02C0F3D1FD5
:102110002E0F311DF90181EA808382E3890FE1E30B
:10212000E90F61E070E06C0F7D1F6E0F711DFB0108
:102130001082002391F0E1E0F0E0EC0FFD1FE80FCA
:10214000F11D508384E3890F9D5CE1E0F0E0EC0F2A
:10215000FD1FE90FF11D90E39083EE20A1F0E1E077
:10216000F0E0EC0FFD1FE80FF11D99E09083E1E036
:10217000E80FA1E0B0E0AC0FBD1FAE0FB11DFD0137
:1021800091E390838E5FCC20A9F0E1E0F0E0EC0FCA
:10219000FD1FE80FF11D99E09083E1E0E80F662450
:1021A0006394712C6C0E7D1E6E0E711CF30192E314
:1021B00090838E5FAA20A1F0E1E0F0E0EC0FFD1F1C
:1021C000E80FF11D99E09083E1E0E80F21E030E0B5
:1021D0002C0F3D1F2E0F311DF90195E390838E5F6B
:1021E000E1E0F0E0EC0FFD1FE80FF11D91E89083B6
:1021F000E1E0E80F61E070E06C0F7D1F6E0F711D74
:10220000FB0192E09083E3E0E80F8E5FA1E0B0E095
:10221000AC0FBD1FA80FB11D20EC2C93552009F465
:10222000FAC025E081E090E08C0F9D1F8E0F911D7C
:10223000DC012C9381E08E0F66246394712C6C0E6C
:102240007D1E680E711C22E0D3012C9382E08E0F5C
:1022500066246394712C6C0E7D1E680E711C25E142
:10226000D3012C9383E08E0F66246394712C6C0E43
:102270007D1E680E711CD3011C9284E08E0F6624B3
:102280006394712C6C0E7D1E680E711C26E2D301C6
:102290002C9385E08E0F66246394712C6C0E7D1E4A
:1022A000680E711C2FEFD3012C9386E08E0F6624ED
:1022B0006394712C6C0E7D1E680E711CD3011C92F0
:1022C00087E08E0F66246394712C6C0E7D1E680E61
:1022D000711C25E7D3012C9388E08E0F662463944C
:1022E000712C6C0E7D1E680E711C28E0D3012C939E
:1022F00089E08E0F66246394712C6C0E7D1E680E2F
:10230000711C25E9D3012C938AE08E0F6624639417
:10231000712C6C0E7D1E680E711CD3015C92ABE0BB
:10232000AE0F66246394712C6C0E7D1E6A0E711CB8
:10233000D30181EA8C934DE04E0F8CE08E0F21E0AB
:1023400030E02C0F3D1F280F311DD9011C92882031
:10235000A9F0A1E0B0E0AC0FBD1FA40FB11D89E052
:102360008C934FE04E0FE25F66246394712C6C0EE9
:102370007D1E6E0E711CF3018BEB8083BB20A1F0E0
:10238000E1E0F0E0EC0FFD1FE40FF11D89E0808338
:10239000E1E0E40F21E030E02C0F3D1F2E0F311D56
:1023A000F90185EC80834E5F9920A1F0E1E0F0E037
:1023B000EC0FFD1FE40FF11D89E08083E1E0E40FE5
:1023C00061E070E06C0F7D1F6E0F711DFB0188ECEA
:1023D00080834E5FE1E0F0E0EC0FFD1FE40FF11DA4
:1023E00081E88083E1E0E40F81E090E08C0F9D1FA5
:1023F0008E0F911DFC0182E08083E3E0E40FA2E0F8
:10240000A40F66246394712C6C0E7D1E6A0E711CE1
:10241000D30180EC8C93A1E0B0E0AC0FBD1FAE0FF8
:10242000B11D80EC8C93EF5FEE2EF12CC7010E9462
:102430009B346C01A701BE016F5F7F4F0E94C535C1
:1024400087E090E00E949B34DC0111961C921E9262
:102450001396DC92CE9212971596FC92EE921497F8
:1024600016961C921697E12FF0E0EE0FFF1FE05634
:10247000FA4F40815181FA0183859485009749F58F
:10248000B487A387FA018585968514962D913C9192
:10249000820F931F96878587CC59DF4F0FB6F8942C
:1024A000DEBF0FBECDBFDF91CF911F910F91FF9087
:1024B000EF90DF90CF90BF90AF909F908F907F90E4
:1024C0006F905F904F9008958C5F848796E00ACC60
:1024D000C901FC012081318121153105C9F7B18382
:1024E000A083D0CF0E94C035CF93DF93FC0120851D
:1024F000318580E0232B69F4EB0161897289CE017B
:102500000E94CE35FE0101900020E9F731978E2F11
:102510008C1BDF91CF9108952F923F924F925F9243
:102520006F927F928F929F92AF92BF92CF92DF92E3
:10253000EF92FF920F931F93CF93DF93CDB7DEB748
:102540006A970FB6F894DEBF0FBECDBF0E9484031A
:1025500000917205109173052091740530917505F5
:10256000AB01BC01401B510B620B730B80913D0111
:1025700090913E01B0E0A0E0481759076A077B0739
:1025800010F40C94D21B80919305909194058330A4
:10259000910511F40C94BC1E58F48130910509F496
:1025A000FFC0029711F40C94161CD12C0C94BE1B86
:1025B0008430910511F40C94E0210597B1F78091D6
:1025C0001106909112069093180680931706809139
:1025D000130690911406A0911506B09116068093EB
:1025E000190690931A06A0931B06B0931C065091EF
:1025F0000F0610920F06109210068091D001909154
:10260000D101A091D201B091D30189839A83AB8388
:10261000BC839E012F5F3F4FF901B0E06BE170E09A
:1026200080916605813011F40C94ED2210F40C9425
:10263000EA22823011F40C94F022833011F40C94CD
:10264000F322B23011F40C94F922B33011F40C944B
:10265000FC22B13011F40C94F6225F98CB01019763
:10266000F1F7B093660596B1F9B013B1AFB143B1CC
:1026700003B196FB882780F98295880F807E9F2D75
:102680009071890F05FB992790F9890F1870810FB8
:10269000A1FB992790F9990F990F890F44FB99276E
:1026A00090F9990F890F8193BF5FB43009F0B8CFCB
:1026B00090910F0681E0890F80930F0681E09111C0
:1026C00001C080E090E04B81BC016F5F7F4F45FD12
:1026D00002C00C94FF224C8145FD02C00C94FF22E5
:1026E0004CE0469FF001479FF00D1124EB5FF94F3E
:1026F00062E070E07183608301964CE0489FF001D6
:10270000499FF00D1124EB5FF94F40E0D9018D9105
:102710009D01C82ED12CF12CE12C82819381A481C2
:10272000B58141110C940B23807C8C0D9D1DAE1D39
:10273000BF1D82839383A483B5834F5F443031F7F9
:1027400090910F06C12C8CE088248A94982C540117
:102750009C1511F40C942F2321E030E0C11002C02D
:1027600030E020E0B9016F5F7F4F869FD001879FE7
:10277000B00D1124AB5FB94F829FF001839FF00D24
:102780001124EB5FF94F6D917C9122893389621797
:10279000730721F086869786A08AB18AC394D8CF22
:1027A0009E012F5F3F4F59018CE0D9011D928A9500
:1027B000E9F780913101882381F0109231018091F5
:1027C0003F01833050F045E06EE18DE497E00E94D8
:1027D000880A88EA91E00E94CD0B83EF96E00E9480
:1027E000D90982E097E00E94D90981E197E00E942F
:1027F000D90980E297E00E94D9098FE297E00E9410
:10280000D9098EE397E00E94D909B091EF06BD8700
:102810001092EF061092F0065C9AEBE0CE2ED12CCF
:10282000C6010197F1F78091F1069091F2060E949E
:102830004307182F5C98C6010197F1F78091F106C4
:102840009091F2060E944307912F97702091F10614
:102850003091F206412F4F70943009F0C2C0213000
:10286000310541F021E030E03093F2062093F1068B
:102870003F9A479AE091EF0691E09E0F9093EF0602
:10288000E73008F0E6E02FE0E29FF0011124E85184
:10289000F94F9FE49387248535853F7050E0542F8E
:1028A00044275295507F240F351F207F8F70280FAB
:1028B000311D358724875C9A47982BE030E0C901A9
:1028C0000197F1F759B19CB143B163B196FB8827E9
:1028D00080F9880F880F952F991F9927991F990FB5
:1028E000990F990F890F65FB992790F9890F44FB80
:1028F000992790F9990F890F40E1849FC001112415
:10290000448555854F70840F951F958784875C9803
:102910004798C9010197F1F739B19CB123B143B18F
:1029200096FB882780F9880F880F932F991F992786
:10293000991F990F990F990F890F45FB992790F9C6
:10294000890F24FB992790F9990F890F90E0982F10
:10295000882724853585307F820F931F958784874C
:102960005C9A8091F1069091F206019709F4479ADA
:1029700083E290E00197F1F77091EF0620E03FE0ED
:102980004FEF5FEF60E8721709F434C2822F2730EF
:1029900008F086E090E0389FD001399FB00D1124F7
:1029A000A851B94F1B96FC911B975296EC915297E8
:1029B000FE17A9F01D965C934E931C971E966C9380
:1029C0001E970196389FF001399FF00D1124E851B0
:1029D000F94F608350961C92509751961C922F5F2E
:1029E000D2CF413009F046C1982F9F70913009F045
:1029F00041C12130310541F081E090E09093F20631
:102A00008093F1063F9A479A70E061E02BE030E056
:102A10004798572F562780ED97E046B146FB44274D
:102A200040F954130C949324F9013197F1F701976D
:102A3000A1F796CF59B19CB143B1E3B196FB88277A
:102A400080F9880F880F952F991F9927991F990F43
:102A5000990F990F890FE5FB992790F9890F44FB8E
:102A6000992790F9990F890F713011F00C94B324C4
:102A700054E0F51203C0813009F472CF682F660F5D
:102A80006F87F11022C0823039F190E080E051E090
:102A90006BE070E0BF85B91709F462CF882309F4B1
:102AA00092C0479A8527A82FA17020ED37E046B144
:102AB00046FB442740F9FB01A4130C94B72431973B
:102AC000F1F72150310999F74BCF71E0F7126DC042
:102AD000863011F08330C9F60091EF0691E0900F37
:102AE0009093EF06073008F006E0202F30E09FE0DB
:102AF000099F80011124F801ED50F94FFA8BE98B01
:102B0000A801FEE04851594FFF125FC0815090EE7E
:102B10008927DA011B968C9310E000E0312C9BE0B2
:102B2000C92ED12C43E0842E912C8FE0829F70011E
:102B3000839FF00C1124A7014851594F7A01BA0123
:102B40006F5E7F4F7C8B6B8BDA015096BE8BAD8BAB
:102B50002F5F3F4F829FA001839F500D1124FA01E8
:102B6000E851F94FF88FEF8B3701FEE06F0E711CC3
:102B70002CE0E20EF11C3F85311709F4F1CE002361
:102B800061F1479A81E00827302F317080ED97E09E
:102B900026B126FB222720F932130C94BC24F6011F
:102BA0003197F1F70197A1F7DBCE9EE0F91204C04F
:102BB000833008F491CF69CFAFE0FA1266CF8F303F
:102BC00009F063CFCDCE47986DCFB0E1FB9EB00149
:102BD00011248627FA0183879FCF4798D3CF1330DC
:102BE00089F4D7012D913C9111973F70487050E0C6
:102BF000542F44275295507F420F531F4D935C939F
:102C00000C94E024143099F1153049F4B0E13B9E66
:102C1000C0011124482BF30140830C94E0241630AA
:102C200031F1173051F4F0E13F9EC0011124482BDF
:102C3000AF89B88D4C930C94E0241830C1F0193052
:102C400041F4B0E13B9EC0011124482BED89FE897F
:102C5000E3CF1A3061F01B3011F00C94E024F0E166
:102C60003F9EC0011124482BAB89BC89E3CF342E91
:102C70000C94E024982F9C7009F0A0C0232B39F00D
:102C80001092F2061092F1063F984798479A2091C9
:102C9000EF0691E0920F9093EF06273008F026E0C0
:102CA000E22EF12CBFE02B9FF0011124E851F94FE7
:102CB00090EE9387612F70E01C7009F451CE24854B
:102CC0003585207F420F532F511D4F7014E07595AD
:102CD00067951A95E1F786958695862B20E1820205
:102CE000C0011124840F951F9587848784E091E0AB
:102CF0004BE050E021E0992309F45EC05C9AFA01B0
:102D00003197F1F792278150B1F78091F1069091B8
:102D1000F2060E9443079FE09E9DF0019F9DF00DEB
:102D20001124E851F94F918D992321F021EE238749
:102D30009150918F8F7009F013CE8FE08E9D80019E
:102D40008F9D100D11240851194F84E6D801599612
:102D50008C935C9AFBE0CF2ED12CC6010197F1F742
:102D60008091F1069091F2060E944307F82E5C983C
:102D7000C6010197F1F78091F1069091F2060E9449
:102D8000430791EEF801938724853585307F4F2DD9
:102D90004F7050E0542F4427240F351F3F70880F89
:102DA000880F880F90E0982F88279295907F280FA2
:102DB000391F35872487D4CD5C98A1CF433081F467
:102DC0008F708F3069F42130310509F4C9CD81E06D
:102DD00090E09093F2068093F1063F9A479AC0CD17
:102DE000232B09F4BDCD1092F2061092F1063F9804
:102DF0004798F4CFFD852F1780F56FE07FEF4FEFF9
:102E00005FEF30E8822F273008F086E090E0689F7F
:102E1000D001699FB00D1124A851B94F1B967C9326
:102E20001B9759961C9259971D965C934E931C972D
:102E30001E963C931E970196689FF001699FF00DC6
:102E40001124E851F94F308350961C9250975196B7
:102E50001C922F5F8D858213D5CF8EE896E00E945D
:102E6000D9098DE996E00E94D9098CEA96E00E9482
:102E7000D9098BEB96E00E94D9098AEC96E00E9472
:102E8000D90989ED96E00E94D90990918A069D871B
:102E900010928A0610928B062A9AEBE0EE2EF12C05
:102EA000C7010197F1F780918C0690918D060E94E1
:102EB0002307182F2A98C7010197F1F780918C06F4
:102EC00090918D060E942307412F477020918C0618
:102ED00030918D06912F9F70443009F0C0C0213091
:102EE000310541F021E030E030938D0620938C06CF
:102EF000269A2E9AE0918A0621E02E0F20938A06C8
:102F0000E73008F0E6E0AFE0EA9FF0011124ED576A
:102F1000F94F2FE42387248535853F70492F50E0F2
:102F2000542F44275295507F240F351F207F8F70D8
:102F3000280F311D358724872A9A2E982BE030E000
:102F4000C9010197F1F783B14FB19FB15FB1869588
:102F50008170880F880F880F441F4427441F440F37
:102F6000440F840F55FB442740F9840F96FB9927A3
:102F700090F9990F890FB0E18B9FC001112444850E
:102F800055854F70840F951F958784872A982E98B2
:102F9000C9010197F1F783B12FB19FB13FB1869578
:102FA0008170880F880F880F221F2227221F220F6F
:102FB000220F820F35FB222720F9820F96FB9927DB
:102FC00090F9990F890F90E0982F882724853585EF
:102FD000307F820F931F958784872A9A80918C0671
:102FE00090918D06019709F42E9A83E290E0019763
:102FF000F1F760918A06412C2FE04FEF5FEF30E848
:10300000641509F42FC2842DF6E0F41508F486E067
:1030100090E0289FD001299FB00D1124AD57B94FE2
:103020001B96EC911B9752967C915297E717A9F04B
:103030001D965C934E931C971E963C931E9701968B
:10304000289FF001299FF00D1124ED57F94F30838F
:1030500050961C92509751961C924394D1CF913028
:1030600009F041C1482F4F70413009F03CC1213077
:10307000310541F081E090E090938D0680938C06BD
:10308000269A2E9A70E051E02BE030E02E98672FC0
:10309000652780ED97E043B143FB442740F9641373
:1030A0000C94E324F9013197F1F70197A1F795CF3B
:1030B00083B14FB19FB16FB186958170880F880F32
:1030C000880F441F4427441F440F440F840F65FB9F
:1030D000442740F9840F96FB992790F9990F890F9F
:1030E000713011F00C940225E4E05E1203C08130CF
:1030F00009F473CF282E220C511021C0823031F1F7
:1031000090E080E051E06BE070E0291609F465CFB3
:10311000882309F491C02E9A8527A82FA17020ED4D
:1031200037E043B143FB442740F9FB01A4130C945F
:1031300006253197F1F72150310999F74ECFF1E08B
:103140005F126CC0863011F08330D1F600918A0690
:1031500091E0900F90938A06073008F006E0202F48
:1031600030E09FE0099F80011124A8014257594F88
:10317000588B4F87A8016EE04D57594F56125EC0CD
:10318000815090EE8927DA011B968C9310E000E0C5
:10319000412C9BE0C92ED12C43E0842E912C8FE052
:1031A000829F7001839FF00C1124A7014D57594F46
:1031B0007A01BA016F5E7F4F7A8B698BDA01509684
:1031C000BC8BAB8B2F5F3F4F829FA001839F500D25
:1031D0001124FA01ED57F94FFE8BED8B3701FEE01C
:1031E0006F0E711C2CE0E20EF11C211609F4F5CED5
:1031F000002361F12E9A81E00827302F317080ED95
:1032000097E023B123FB222720F932130C940B25DE
:10321000F6013197F1F70197A1F7DFCE2EE05212B8
:1032200004C0833008F492CF6BCF3FE0531268CFD5
:103230008F3009F065CFD1CE2E986ECFB0E15B9E76
:10324000B00111248627FA018387A0CF2E98D3CF0F
:10325000133089F4D7012D913C9111973F7048703C
:1032600050E0542F44275295507F420F531F4D93E7
:103270005C930C942F25143099F1153049F4B0E18A
:103280004B9EC0011124482BF30140830C942F2541
:10329000163031F1173051F4F0E14F9EC001112486
:1032A000482BAD89BE894C930C942F251830C1F062
:1032B000193041F4B0E14B9EC0011124482BEB8939
:1032C000FC89E3CF1A3061F01B3011F00C942F25EC
:1032D000F0E14F9EC0011124482BA989BA89E3CFA0
:1032E000442E0C942F25482F4C7009F09FC0232B9F
:1032F00039F010928D0610928C0626982E982E9AF0
:1033000040918A0621E0240F20938A06473008F076
:1033100046E0E42EF12CBFE04B9FF0011124ED5765
:10332000F94F20EE2387412F50E01C7009F455CE51
:1033300024853585207F290F311D2F70A4E05595F8
:103340004795AA95E1F786958695842B40E18402FE
:10335000C0011124820F931F9587848784E091E038
:103360004BE050E021E0992309F45EC02A9AFA016B
:103370003197F1F792278150B1F780918C069091A7
:103380008D060E9423079FE09E9DF0019F9DF00DFA
:103390001124ED57F94F918D992321F021EE2387C8
:1033A0009150918F8F7009F018CE8FE08E9D800123
:1033B0008F9D100D11240D57194F84E6D801599691
:1033C0008C932A9A4BE0C42ED12CC6010197F1F7B9
:1033D00080918C0690918D060E942307F82E2A98E2
:1033E000C6010197F1F780918C0690918D060E949D
:1033F000230791EEF801938724853585307F4F2D83
:103400004F7050E0542F4427240F351F3F70880F12
:10341000880F880F90E0982F88279295907F280F2B
:10342000391F35872487D9CD2A98A1CF933081F4CD
:103430008F708F3069F42130310509F4CECD81E0F1
:1034400090E090938D0680938C06269A2E9AC5CD97
:10345000232B09F4C2CD10928D0610928C0626986B
:103460002E98F4CF2D85421688F5242D6FE07FEF3E
:103470004FEF5FEF30E8822F273008F086E090E0D2
:10348000689FD001699FB00D1124AD57B94F1B96AD
:103490007C931B9759961C9259971D965C934E935B
:1034A0001C971E963C931E970196689FF001699F9A
:1034B000F00D1124ED57F94F308350961C92509720
:1034C00051961C922F5F8D858213D5CF2090EF06E9
:1034D000522C540C35EA832E35E0932EC12CD12C7E
:1034E00080913F015C1409F4D7C0C81609F4D4C018
:1034F00033243394C21408F4312C0C2DC214D8F5A3
:1035000096E09C1508F406E0AFE00A9F80011124C4
:103510000D50194F823071F4222061F0F801808142
:103520000E94B328E32DF0E0EE0FFF1FEA0DFB1D14
:1035300091838083F8019081878198132DC0218128
:1035400032818085918528173907A9F59381828575
:10355000981331C09481838598132DC095818485FB
:10356000981329C096818585981325C0C394B2E02D
:103570008B0E911CB5CF0219073008F006E0BFE0B2
:103580000B9F800111240257194F823099F6442075
:1035900089F2D8018C91C4CF8C2D0E949F07809115
:1035A0003F01823041F4D8018C910E94B328BC01C4
:1035B000832D0E94522BF80181819281F82FFF7098
:1035C000DF2EB2E0EB2EF12C86FF02C0F12CE12CB5
:1035D00084FD02C06894E2F885FD02C06894E5F8B5
:1035E00092FD02C06894E0F891FD02C06894E3F88F
:1035F00090FD02C06894E4F887FD02C06894F1F879
:10360000D4016D907C90F8012081207F2031D9F584
:103610008381D30117968C931797848118968C9386
:103620001897858119968C93199786811A968C9391
:1036300080810E94B328069719F4BD2DBC60DB2E53
:10364000F301E382F4821582ED2DF0E0E855FB4FA3
:103650008081D30116968C93C3010E94690D8091DD
:103660003F01823069F4E32DF0E0EE0FFF1FEA0D19
:10367000FB1D6081718120E0A801832D0E94ED2A4D
:10368000DD24D39473CF93FD02C06894E7F897FDCF
:10369000D7CF6894E6F8D4CF09811A81823079F4C3
:1036A00080912501909126018017910741F0011525
:1036B000110529F470E060E080E00E94522B109325
:1036C0002601009325010B811C8180913F018230EE
:1036D00079F480912701909128018017910741F09A
:1036E0000115110529F470E060E081E00E94522B81
:1036F0001093280100932701809171055816C0F49A
:10370000152D80917105181798F480913F011817B5
:1037100079F0812F0E949F07E12FF0E0EE0FFF1F4D
:10372000EB55FA4F808191810E94690D1F5FE9CFAF
:10373000509271058091F006843049F090918B068B
:10374000943029F0890F51F482E390E002C080EDBB
:1037500097E090933E0180933D0110C0852D90E04D
:10376000019644EF51E0849F9001859F300D949F16
:10377000300D112430933E0120933D010E948403BB
:10378000609372057093730580937405909375052B
:10379000DD2041F08091120181110C942B2481E0F5
:1037A0000E94550D809112018823B1F00E94DB0325
:1037B00000916705109168052091690530916A05AF
:1037C000601B710B820B930B603C744D8140910523
:1037D00018F080E00E94550D4E9B02C00C943225DB
:1037E0006CE271E080E090E00E94A90380911201F8
:1037F00081110C94372481E06A960FB6F894DEBFED
:103800000FBECDBFDF91CF911F910F91FF90EF9031
:10381000DF90CF90BF90AF909F908F907F906F90F0
:103820005F904F903F902F900C94550D1092B105E2
:1038300080916F0581115FC08091700581115BC01F
:103840008091910581110DC080917D0690917E0639
:10385000DC01ED91FC910680F781E02D09958093C4
:10386000910580936F058091920581110DC0809123
:103870007F0690918006DC01ED91FC910680F78136
:10388000E02D0995809392058093700581E00E9458
:10389000550D07E027E04FE760E08DE497E00E94D8
:1038A000E80B67E08DE497E00E945E0A60E08DE43B
:1038B00097E00E946A0A80916F0581110BC0809188
:1038C0007005811103C086E494E002C08DE991E0A7
:1038D0000E94CD0B62E48DE497E00E946A0A909109
:1038E0006F0580917005992361F1811104C08DE904
:1038F00091E00E94CD0B4DE7A42E46E0B42E5DE68C
:10390000E52E55E0F52E6FE6862E65E0962E10E04A
:1039100000E077247394F501819191915F01909378
:10392000B4058093B305D7011D927D01F401219167
:103930004F0121110BC00130110541F101E010E0F0
:10394000EACF8111D2CF86E494E0D3CF98012F56ED
:103950003A4F6901D9012C91211124C1DC01ED916B
:10396000FC910680F781E02D0995882359F0F60136
:103970007082E091B305F091B40566A177A1802F24
:103980000E948A2A809190058823A9F2912CD12C3B
:1039900030E8532E80913F01981608F0EFCE892D24
:1039A00090E0FC01EF56FA4F2081222309F4F3C086
:1039B000FC01E359FA4FB080BB2009F4ECC0880F3A
:1039C000991FFC01E358F94F0190F081E02DF0932D
:1039D000B405E093B30540908F05442009F4EEC090
:1039E000B090B105EB2CF12CF701E85FFE4F808120
:1039F000882331F0108265E070E08B2D0E948A2AC6
:103A0000A091B305B091B4053324339492962D91CF
:103A10003C91939794968D919C919597281739078F
:103A200009F4312C98962C909897D9968C91D99727
:103A3000812C882319F0D5968C90D5978094A12C51
:103A4000882319F0D396AC90D397A094C12C8823E7
:103A500019F0D496CC90D497C0940091B10510E0A1
:103A6000F801EE0FFF1FEB55FA4F60807180F301F4
:103A700027828086A186C28680918E05882329F0C0
:103A8000E091A505F091A605238694962D913C9191
:103A90002095309535FB882780F934FD826033FD11
:103AA000846023FD8860D30113968C93139714963A
:103AB0001C92149715961C920E94852898012A5FE3
:103AC0003E4FF9014081C8018C5F9E4FD801AE5F27
:103AD000BE4F00501F4F24120CC0FC0140818412C5
:103AE00008C04C91A41205C0F8014081C41201C065
:103AF000432CF9012082FC018082AC92D801CC9247
:103B0000442009F447C0C3010E94690DB1E0BB1510
:103B100008F440C0EEE06E2EE3E07E2EFBEF4F2E69
:103B2000EE0CFF1CF701E051FC4FFE87ED87D3013F
:103B30005896ED90FD900D911C915B975C962C91A1
:103B40005C975D964C915D975E96AC905E975F96A4
:103B50008C90B1E0B415B8F4E091B305F091B405E0
:103B600084A195A1809590958E219F21CC24C3940A
:103B7000892B09F4C12C1F92ED85FE8560818B2D68
:103B80000E942C0C0F90F8E06F0E711C439428E0FB
:103B90004212CDCFD3288091B1058F5F8093B105BC
:103BA0009394F8CE0E945A08F701319780838111CF
:103BB000E9CED6011C9270E060E0E1CE1091900554
:103BC000112321F00E94292CD12EE5CFC090B10500
:103BD000AA24A39422A133A184A195A1281739076F
:103BE00009F4A12CE6A0F7A00C2D10E0000F111F86
:103BF000F801EE59FA4F80819181E816F90621F01B
:103C0000B7018C2D0E948A2AE1E0F0E0EC0FFD1F45
:103C1000E00FF11FF182E082C7010197059708F0DC
:103C200090C00E9485282090B3053090B405D10142
:103C300094968D919C9180959095292F221F2227F3
:103C4000221F30E096FD226095FD246094FD2860DF
:103C500092FD206193FD206290FD206491FD20681B
:103C600080FD316083FD326081FD346082FD38600B
:103C7000F10170A481A48091B10590E0FC01EE0FE8
:103C8000FF1FEB55FA4F0190F081E02DD1019C967A
:103C90004C91442309F464C0B5E0EB16F10409F437
:103CA0005FC077828086BC01605F7E4FDB016C90D5
:103CB000AC01425F5E4F67105AC0DA016C90681029
:103CC00056C06A2CDB017C92DA018C92D1019A9663
:103CD0005C919A979B964C919B979C966C916623CE
:103CE00029F0B5E0EB16F10409F043C05186528685
:103CF00040E850E8BC01645F7E4F1B01DB016C9122
:103D0000865F9E4F651305C0DC016C91641301C092
:103D1000B62CD1015C93DC014C9323833483158250
:103D2000BB2079F0CF010E94690DB1E0BC1548F0CD
:103D30004091B3055091B40520E0B7018C2D0E944D
:103D4000D129D801AE59BA4FE1E0F0E0EC0FFD1FE8
:103D5000E00FF11F808191818D939C93DA281BCF16
:103D60005782508640E8842E50E8752E9CCF6B2CED
:103D7000A9CF51874287BECFFE0131965F018CE00B
:103D8000DF011D928A95E9F780912401882381F053
:103D90001092240180913F01833050F045E06EE1A4
:103DA0008DE497E00E94880A83E991E00E94CD0BA0
:103DB000EDE4F6E0808591859587848782859385FB
:103DC000978786873896B6E0E537FB0799F7209105
:103DD00053061092530610925406469A5C9A83E05A
:103DE00090E00197F1F799B18CB133B143B186FB03
:103DF000882780F9880F880F991F9927991F990F95
:103E0000990F990F890F45FB992790F9890F3295E2
:103E10003170330F380F09F069C081E08093530689
:103E20008091550690915606009719F0A1E00397EE
:103E300009F4A2E0B0E043E050E05C98CA010197C9
:103E4000F1F799B18CB163B173B186FB882780F922
:103E5000880F880F991F9927991F990F990F990F0C
:103E6000890F75FB992790F9890F62956170660F2C
:103E7000680F4698CA010197F1F7E9B19CB173B197
:103E8000F3B196FB882780F9880F880F9E2F991F22
:103E90009927991F990F990F990F890FF5FB99276A
:103EA00090F9890F74FB992790F9990F890F009168
:103EB000570610915806E82FF0E061114DC0107FB1
:103EC000FE2FEE27E00FF11FF0935806E093570600
:103ED000B1E03F5FA31337C083E090E0B11102C0AF
:103EE00082E090E0909356068093550646985C9841
:103EF00083E290E00197F1F78091530630E04FEFB5
:103F00005FEF8317D1F1E32F363008F0E5E0F0E002
:103F1000DF0113E0AA0FBB1F1A95E1F7AB5AB94FA7
:103F200003E0EE0FFF1F0A95E1F7E35BF94F0D90F9
:103F3000BC91A02D64857585A617B70711F053872E
:103F400042873F5FDECF313009F077CF469A5C9AE7
:103F5000CA010197F1F771CF007F600F712F711DBA
:103F60006F7084E0EE0FFF1F8A95E1F76E0F7F1FE1
:103F70007093580660935706ACCF3217F0F44FEFAA
:103F80005FEF832F363008F085E090E0FC0163E0BE
:103F9000EE0FFF1F6A95E1F7EB5AF94F118210827D
:103FA00073E0880F991F7A95E1F7FC01E35BF94F05
:103FB000538742873F5F2313E4CFEDE1F6E080852E
:103FC000918595878487828593859787868738969C
:103FD00026E0E534F20799F7209123061092230694
:103FE000109224062B9A2A9A83E090E00197F1F729
:103FF00083B13FB19FB14FB186958170880F880F13
:10400000880F331F3327331F330F330F830F45FBC5
:10401000332730F9830F96FB992790F9990F980F62
:1040200009F069C081E080932306409125065091F4
:1040300026064115510521F031E04330510509F4C0
:1040400032E0A0E043E050E02A98FA013197F1F71E
:1040500083B17FB16FB1EFB186958170880F880F02
:10406000880F771F7727771F770F770F870FE5FB6D
:10407000772770F9870F66FB662760F9660F680F70
:104080002B98FA013197F1F783B1EFB17FB1FFB10E
:1040900086958170880F880F880FEE1FEE27EE1F20
:1040A000EE0FEE0F8E0FF5FBEE27E0F98E0F76FB8D
:1040B000772770F9770F870F009127061091280650
:1040C000E82FF0E061114EC0107FFE2FEE27E00FC9
:1040D000F11FF0932806E0932706A1E09F5F3913B4
:1040E00038C083E090E0A11102C082E090E090939C
:1040F0002606809325062B982A9883E290E0019764
:10410000F1F780912306912C4FEF5FEF8915D9F1DC
:10411000E92D35E0391508F4E5E0F0E0DF0173E062
:10412000AA0FBB1F7A95E1F7AB5DB94F13E0EE0F15
:10413000FF1F1A95E1F7E35EF94F0D90BC91A02D9A
:1041400064857585A617B70711F053874287939446
:10415000DDCF913009F078CF2B9A2A9AFA01319766
:10416000F1F772CF007F600F712F711D6F7004E047
:10417000EE0FFF1F0A95E1F76E0F7F1F7093280661
:1041800060932706ABCF9216F8F4392D4FEF5FEF0F
:10419000832F363008F085E090E0FC0103E0EE0F5D
:1041A000FF1F0A95E1F7EB5DF94F1182108263E082
:1041B000880F991F6A95E1F7FC01E35EF94F538779
:1041C00042873F5F2313E4CF80905306682C690C2D
:1041D00015EAE12E15E0F12EC12CD12C80913F0182
:1041E0006C1409F49EC0C81609F49BC0772473941C
:1041F000C81408F4712C0C2DC814D0F445E04C15EB
:1042000008F405E058E0059F800111240B5A194F6E
:104210008230E1F48820D1F0E72DF0E0EE0FFF1FAF
:10422000EA0DFB1DD8018D919C91918380830EC076
:104230000819063008F005E068E0069F80011124A7
:104240000B5D194F823011F49110E6CFF8012081F7
:104250003181848195812817390761F42281338166
:10426000868197812817390791F4C394B2E0EB0E49
:10427000F11CB4CF8C2D0E949F0780913F018230AA
:1042800031F4D8016D917C91872D0E948929F80124
:104290008281938124E030E085FF02C030E020E09D
:1042A00084FF206286FF316087FF3260D8014D9124
:1042B0005C914330510541F490FF226091FF2160F1
:1042C00092FF286093FF2061F701A081B1811396CE
:1042D0002C93139714963C93149715961C9215974C
:1042E000E82FE17082FDE26083FDE46081FDE8601B
:1042F000F0E0E855FB4F808116968C931697CD0120
:104300000E94690D80913F01823041F4D8016D9186
:104310007C9120E0A801872D0E942C29DD24D394D4
:10432000A4CF09811A81823079F48091180190918B
:1043300019010817190741F00115110529F470E05A
:1043400060E080E00E948929109319010093180110
:104350000B811C8180913F01823079F480911A0198
:1043600090911B018017910741F00115110529F467
:1043700070E060E081E00E94892910931B010093A6
:104380001A0180916C056816C0F4162D80916C0599
:10439000181798F480913F01181779F0812F0E9427
:1043A0009F07E12FF0E0EE0FFF1FEB55FA4F8081E2
:1043B00091810E94690D1F5FE9CF60926C05DEC993
:1043C00080911701882351F11092170107E023E033
:1043D0004FE763E28DE497E00E94E80B6EE8662EFB
:1043E00063E0762E7EED472E73E0572EDD24D394C6
:1043F000F301E080F18002811381DF928780A68043
:10440000C12C2481458163E280E00E942C0CF8E0FD
:104410006F0E711C0F904614570451F763B133B1FE
:10442000E3B179B15CB193B149B186B126B1F3B1D1
:1044300063FB662760F9660F6E871D8635FB3327A1
:1044400030F9388B1F866D847E84AF85B8896A2ADF
:104450007B2AF695F170F98B1A8AA989BA896A2A9A
:104460007B2AE4FB222420F8312C3694322C22249F
:104470003794279462287328729571707B8B1C8AFD
:104480002B883C88F6E0220C331CFA95E1F7622871
:10449000732856FB552750F95D8B1E8A2D883E8860
:1044A000A5E0220C331CAA95E1F76228732892FB41
:1044B000992790F99F8B188E2F88388CB4E0220CA6
:1044C000331CBA95E1F762287328042E000C550BB3
:1044D0004427550F441F552703E0440F551F0A95E5
:1044E000E1F7642A752A082E000C990B8827990F8A
:1044F000881F9927880F991F880F991F682A792A82
:1045000026FB222720F9298F1A8E898D9A8D880FF4
:10451000991F682A792A80911501909116016816D1
:10452000790611F40C94D51270921601609215015F
:1045300022E030E064FE02C030E020E065FE24604E
:1045400066FE216067FE286070FE316071FE326099
:10455000E091A505F091A605238334831582D3014C
:10456000AF70BB27A855BB4F8C918683CF010E94AB
:10457000690D7EE8472E73E0572E312C212C81E007
:1045800090E0022C02C0880F991F0A94E2F786215E
:104590009721CC24C394892B09F0C12CF201E0802F
:1045A000F180028113811F928780A680248145813A
:1045B00063E280E00E942C0CFFEF2F1A3F0A28E0F4
:1045C000420E511C0F903AE023163104C1F6DD244F
:1045D000D394D4C85F9A0C942113769A0C94211327
:1045E0002E9A0C942113479A0C94211376980C94CC
:1045F0002E132E980C942E1347980C942E134CE0E7
:10460000469FF001479FF00D1124EB5FF94F61E0E9
:1046100070E00C947A13413059F48F73907F66E008
:10462000CC0CDD1CEE1CFF1C6A95D1F70C94951385
:10463000423059F49F70AC7F0CE0CC0CDD1CEE1CBA
:10464000FF1C0A95D1F70C949513A37012E1CC0CC2
:10465000DD1CEE1CFF1C1A95D1F70C949513C516A2
:1046600030F58C2D9CE088248A94982C540121E00C
:1046700030E0811102C030E020E0B9016F5F7F4F70
:10468000969FF001979FF00D1124EB5FF94F118277
:104690001082929FF001939FF00D1124EB5FF94F70
:1046A00086869786A08AB18A8F5F5813E0CF35EA55
:1046B000A32E35E0B32E10E000E0712CD12C4CE09D
:1046C000642E7C1409F495C080913F01781609F49A
:1046D00090C081E0711001C080E0882E912C94017F
:1046E0002F5F3F4F629EC001639E900D1124FC011D
:1046F000EB5FF94F7F0100811181689CF001699C9B
:10470000F00D1124EB5FF94F82899389081719077F
:1047100091F4468557856089718984899589A68930
:10472000B789481759076A077B0769F47394B2E0A1
:10473000AB0EB11CC6CF872D0E949F07D7018D916C
:104740009C910E94DF0C689CF001699CF00D112483
:10475000EB5FF94F86859785A089B189AD01662702
:104760007727E1E04E27417055276627772792FF8C
:10477000426084FF4460A6FF516085FF526086FF5F
:10478000546094FF5860A2FF506187FF406195FF1D
:104790005062A3FF406290FF486096FF4064A4FF10
:1047A000406891FF506497FF5068A5FF6160F50174
:1047B00080809180F40143835483658383FB2227A7
:1047C00020F982FD226081FD246080FD2860A22FF7
:1047D000B0E0A855BB4F8C91D40116968C93C401C0
:1047E0000E94690D60E0C7010E94920CDD24D39401
:1047F0009DCF80911301909114018017910739F09A
:104800000115110521F490E080E00E94DF0C109367
:1048100014010093130180916B05C816C0F41C2D80
:1048200080916B05181798F480913F01181779F063
:10483000812F0E949F07E12FF0E0EE0FFF1FEB5545
:10484000FA4F808191810E94690D1F5FE9CFC0926C
:104850006B050C94BE1B0E94DB036093670570938D
:1048600068058093690590936A050C94D21BE090CB
:104870009305F09094050E948F070E94060D10E0AA
:1048800000E062E070E080E090E00E94A9034E99B1
:104890000CC06CE271E080E090E00E94A9030E94ED
:1048A0008F070E94060D10E000E00F5F1F4F003DD4
:1048B000F7E01F0731F760919305709194056E152D
:1048C0007F05D1F46A960FB6F894DEBF0FBECDBF58
:1048D000DF91CF911F910F91FF90EF90DF90CF90DC
:1048E000BF90AF909F908F907F906F905F904F9010
:1048F0003F902F900C94060D90E080E00E9465346C
:104900008DE497E00E941D0C86E891E00E94CD0B9B
:1049100088E19EE00FB6F894A895809360000FBEE2
:1049200090936000FFCFC9010197F1F771110C94CA
:104930001A1549B18CB193B153B186FBFF24F0F83D
:10494000FF0CFF0C842F881F8827881F880F880F73
:10495000880FF80E55FB882780F9F80E94FB8827FE
:1049600080F9880FF80E71E0479A0C940915319779
:10497000F1F79F5F0C944A15C4010197F1F799B1C3
:104980004CB183B123B146FB442740F9440F440F97
:10499000991F9927991F990F990F990F490F25FB77
:1049A000992790F9490F82958170880F480F13302D
:1049B00010F00C94EF15612F89899A890E94A10249
:1049C0001F5F0C94BB15C9010197F1F771110C948D
:1049D000581853B09FB18FB14FB151FA552450F8C8
:1049E000550C550C550C991F9927991F990F990F24
:1049F000590E45FB992790F9590E86FB882780F9B7
:104A0000880F580E71E02E9A0C9447183197F1F7E1
:104A10009F5F0C948518C4010197F1F743B19FB1D2
:104A20008FB12FB146954170440F440F440F991F29
:104A30009927991F990F990F490F25FB992790F9ED
:104A4000490F86FB882780F9880F480F133010F034
:104A50000C942819612F8F8598890E94A1021F5FED
:104A60000C94F5186A960FB6F894DEBF0FBECDBF52
:104A7000DF91CF911F910F91FF90EF90DF90CF903A
:104A8000BF90AF909F908F907F906F905F904F906E
:104A90003F902F9008951F920F920FB60F921124FE
:104AA0002F933F938F939F93AF93BF9380919605DE
:104AB00090919705A0919805B09199053091950531
:104AC00023E0230F2D3758F50196A11DB11D20932A
:104AD00095058093960590939705A0939805B093BC
:104AE000990580919A0590919B05A0919C05B091A4
:104AF0009D050196A11DB11D80939A0590939B057C
:104B0000A0939C05B0939D05BF91AF919F918F910C
:104B10003F912F910F900FBE0F901F90189526E890
:104B2000230F0296A11DB11DD2CF1F920F920FB677
:104B30000F9211248F939F938091E1009091E10057
:104B4000937F9093E10083FF0FC01092E90091E002
:104B50009093EB001092EC0092E39093ED00109292
:104B60009F0598E09093F00082FF22C093E090931D
:104B7000E9009091F200992319F09AE39093E800EC
:104B800090918B05992341F090918B0591509093D2
:104B90008B05911101C05D9A90919E05992341F07A
:104BA00090919E05915090939E05911101C0289A75
:104BB00084FF18C08091E2008E7E81608093E200C5
:104BC0008091E1008F7E8093E10080918C058E7E44
:104BD000806180938C059F918F910F900FBE0F90F5
:104BE0001F90189580FFF7CF8091E2008E7E806144
:104BF0008093E2008091E1008E7E8093E1008091BD
:104C00008C058E7E8160E5CF1F920F920FB60F92BA
:104C10001124CF92DF92EF92FF920F931F932F9365
:104C20003F934F935F936F937F938F939F93AF9334
:104C3000BF93EF93FF93CF93DF93CDB7DEB76C971E
:104C4000DEBFCDBF1092E9008091E80083FF25C050
:104C500068E0CE0145960E94340582EF8093E8001B
:104C60008D8987FF39C09091E80090FFFCCF982F85
:104C7000907609F034C19E894F89588D2F89F88C20
:104C8000911131C0803861F580918D058093F100DC
:104C90001092F1008EEF8093E8006C960FB6F894B6
:104CA000DEBF0FBECDBFDF91CF91FF91EF91BF91DE
:104CB000AF919F918F917F916F915F914F913F91B4
:104CC0002F911F910F91FF90EF90DF90CF900F9059
:104CD0000FBE0F901F9018959EEF9093E800C7CFDE
:104CE0001092F100D5CF913059F48111D3CF4130DA
:104CF000510581F680918D058D7F80938D05CACFFA
:104D0000933049F48111C6CF4130510519F6809195
:104D10008D058260F2CF953041F48091E80080FFEC
:104D2000FCCF20682093E300B5CF963009F0A9C0EE
:104D30000B8D1C8D22E01092E900109289051092D3
:104D40008805F2122EC010928705109286050E94E7
:104D500082051F8299E09983FA8291E09E8390EA0E
:104D600098879AEF99872091880530918905275F68
:104D70003F4F3C832B838D831092E900109289056D
:104D800010928805109387050093860549E050E04E
:104D9000BE016F5F7F4F80E00E9448040E94820541
:104DA00079CF10938705009386050E946E05DC017C
:104DB00012960D911C910115110509F451C1D801EC
:104DC000ED91FC910480F581E02DBE016B5E7F4F7B
:104DD000C8010995009709F03EC1F80100851185C9
:104DE000EACFF3E0FF120EC08F89882309F440C098
:104DF000823061F440E86CE081E492E00E941504A6
:104E0000811148CF81E28093EB0047CF813029F4B4
:104E100040E867E089E392E0F1CF833099F70E94A0
:104E20006E05DC011296ED90FC908E010F5F1F4F16
:104E30006801E114F10479F0D701ED91FC9106804D
:104E4000F781E02DB801C7010995080F111DF70181
:104E5000E084F184EECFD8011C92F601019000208D
:104E6000E9F73197BF016C197D0940E0C601C6CF53
:104E700063E272E0FB01449150E080E80E94480444
:104E800009CF973009F4BECF983021F481E08093A8
:104E9000F10000CF993009F0FDCE837009F0B2CF58
:104EA000E3E3F1E081E031E096E32191222371F028
:104EB0008093E9003093EB00DF0111972C91209350
:104EC000EC009093ED008F5F873079F78EE7809349
:104ED000EA001092EA008F8980939F05DBCE8B8DCC
:104EE0009C8D1092E900109289051092880590938C
:104EF000870580938605898D811192C08E899D8951
:104F0000913A49F4813209F07DCF47E050E060E406
:104F100071E080E0B3CF913209F074CF833269F44D
:104F20008F89988DB0E0A0E08093390190933A0189
:104F3000A0933B01B0933C01ADCE803269F48091E7
:104F4000E80082FFFCCF67E080E491E00E94340536
:104F50008BEF8093E8009ECE823209F09BCE8F8942
:104F600080934701EEEFFFE7859194918B3F9C4D35
:104F700051F1E0E0F8E08091400190914101A09171
:104F80004201B0914301803B9440A105B105F1F489
:104F90008091470180FD1AC0EE3F8AE0F80789F54D
:104FA00087E797E7918380838091600080938A05EB
:104FB00088E19BE00FB6F894A895809360000FBE3F
:104FC0009093600067CEEEEFFAE0D5CF80819181BB
:104FD0008737974709F05ECEA89580916000886179
:104FE0008093600080918A0580936000EE3F2AE004
:104FF000F20789F08091FE0A9091FF0A91838083E5
:1050000049CE808191818737980751F29093FF0AAA
:105010008093FE0AC5CF1092FF0A1092FE0A3ACE84
:105020000E946E05DC0112960D911C91011511056F
:1050300009F4E8CED801ED91FC910190F081E02DCA
:10504000BE016B5E7F4FC8010995811123CEF80127
:1050500000851185EBCF181619060CF41BCED2CEA5
:10506000F1E0FF12BECE67E272E004CF1F93CF9350
:10507000DF93EC0180E888A789A78AA78BA71CA6E5
:10508000FE01BD968CE0DF011D928A95E9F71FA213
:105090001EA21AAE1BAE1CAE1DAE15E0CE010E94C4
:1050A0005A0861E070E080E090E00E94A90311508E
:1050B000A9F7CE01DF91CF911F910C945A08CF939D
:1050C000DF93EC01849A8C9A229A2A9A219A299A3F
:1050D00023982B982B9A0E94B305CE01DF91CF9194
:1050E0000C943628CF93DF93EC013E9A469A229A8D
:1050F0002A9A219A299A23982B982B9A0E94B305D1
:10510000CE01DF91CF910C943628E091B305F09158
:10511000B40584A195A180959095FC0194E0F69545
:10512000E7959A95E1F721E0E227E17086FFE260DA
:1051300087FFE46085FFE8608091B205882311F065
:10514000E82BEF70A091B105B0E0AA0FBB1FAB55E3
:10515000BA4F0D90BC91A02DF0E0E855FB4F808137
:1051600016968C9308958F3489F0823079F08631C9
:1051700081F0833181F0803E81F0813E81F021E039
:1051800090E08F3F09F420E0822F089584E090E0C2
:10519000089585E0FCCF86E0FACF82E0F8CF83E087
:1051A000F6CF20915F05222341F0E091A505F09113
:1051B000A60584839583668377830895FC0124A1E3
:1051C00035A142A153A1422753274623572391E0FB
:1051D000452B09F490E0209530956223732381E0FC
:1051E000672B09F480E0892308950F9320915207DB
:1051F000E0915807F091590700E0309771F033962D
:10520000E491F0E0379683E0F595E7958A95E1F72C
:1052100000915B070E9F002D1124EFEFE20F0E0FA0
:10522000409153074150609151078DE497E00E94EF
:10523000E80B0F910895CF93DF93EB0142E0480F05
:1052400060E08DE497E00E94880A0E94F528CE0174
:10525000DF91CF910C94CD0B2F923F924F925F92A2
:105260006F927F928F929F92AF92BF92CF92DF9276
:10527000EF92FF920F931F93CF93DF93B82E2B01E2
:105280001A01922ECEEAD2E0D12C682E712C660C37
:10529000771CC30180519C4F3C0192E04916510498
:1052A00019F4E7E0ED15E8F0E880F9800A811B8148
:1052B0002C814D81AE808F8081E02114310449F032
:1052C000F101628173816E217F2181E0672B09F0FA
:1052D00080E09F92C82EF30160818B2D0E942C0CE0
:1052E0000F90D3942896FCE0DF12D7CFDF91CF91B7
:1052F0001F910F91FF90EF90DF90CF90BF90AF90F4
:105300009F908F907F906F905F904F903F902F90E5
:105310000895EF92FF920F93CF93DF93C82F7B01F5
:10532000E82FF0E0EE0FFF1FE051FC4FD08107E0C7
:1053300023E041816D2F8DE497E00E94E80B47E068
:105340006D2F8DE497E00E94880A82E0E816F10450
:1053500069F083E0E816F104D9F086E494E0DF9187
:10536000CF910F91FF90EF900C94CD0B88E491E0DA
:105370000E94CD0BC23079F021E050E040E0B7014F
:105380008C2FDF91CF910F91FF90EF900C942C29EF
:1053900082E491E0EDCFDF91CF910F91FF90EF90FC
:1053A00008952F923F924F925F926F927F928F92C9
:1053B0009F92AF92BF92CF92DF92EF92FF920F93A4
:1053C0001F93CF93DF9300D000D0CDB7DEB7B82EB8
:1053D0001B012A01922E8091B2058E3009F463C020
:1053E0008EE093E09C838B83D12CFB013297FA8370
:1053F000E9836B2C712C660C771CC30180519C4F88
:105400003C01E981FA81329770F08FEF8D0D823087
:1054100050F1F5E02F16310431F4DD2021F188EF51
:105420008D0D823000F1EB81FC81E080F180028102
:10543000138124814581A68087804114510459F04D
:10544000F20184A195A1809590958E219F21CC2475
:10545000C394892B09F4C12C9F92F30160818B2D99
:105460000E942C0C0F90D3948B819C8108969C8376
:105470008B8390E1D912C5CF0F900F900F900F90B2
:10548000DF91CF911F910F91FF90EF90DF90CF9020
:10549000BF90AF909F908F907F906F905F904F9054
:1054A0003F902F900895E6E5F2E0FA83E9838EEAD3
:1054B000682E82E0782EEB2DF0E0EE0FFF1FE0511A
:1054C000FC4FD080E981FA81E080F1800281138174
:1054D00024814581A68087804114510459F0F2014E
:1054E00084A195A1809590958E219F21CC24C39471
:1054F000892B09F4C12C9F926D2D8B2D0E942C0CB1
:1055000089819A8108969A8389830F906816790613
:10551000C9F6B2CFFF920F931F93CF93DF93182F4B
:10552000EB01E82FF0E0EE0FFF1FE051FC4FF080A1
:1055300007E023E041816F2D8DE497E00E94E80BA6
:1055400047E06F2D8DE497E00E94880AC430D105B2
:10555000D9F188F4C130D10531F184E091E0C23055
:10556000D10589F086E494E0DF91CF911F910F91EE
:10557000FF900C94CD0BC530D105A9F081EF90E0E0
:10558000C630D10579F70E94CD0B123000F521E02D
:1055900050E040E0BE01812FDF91CF911F910F912C
:1055A000FF900C94D1298091B2058E3019F485E1D9
:1055B00091E0E9CF80918F05811103C08BE494E0E5
:1055C000E2CF8EE091E0DFCF88EF90E0DCCFDF919B
:1055D000CF911F910F91FF9008952F923F924F927C
:1055E0005F926F927F928F929F92AF92BF92CF9273
:1055F000DF92EF92FF920F931F93CF93DF93B82E1A
:105600002B011A01922EC0EED1E0D12C682E712C04
:10561000660C771CC30180519C4F3C0192E04916F7
:105620005104B1F4E8E0DE121AC0DF91CF911F916E
:105630000F91FF90EF90DF90CF90BF90AF909F9031
:105640008F907F906F905F904F903F902F90089534
:10565000F3E04F16510419F48CE0D816E9F0E88015
:10566000F9800A811B812C814D81AE808F8081E081
:105670002114310449F0F101618172816E217F2191
:1056800081E0672B09F080E09F92C82EF3016081D2
:105690008B2D0E942C0C0F90D3942896FDE0DF12E6
:1056A000BDCFC3CFFF920F931F93CF93DF93182FDC
:1056B000EB01E82FF0E0EE0FFF1FE051FC4FF08010
:1056C00007E023E041816F2D8DE497E00E94E80B15
:1056D00047E06F2D8DE497E00E94880AC430D10521
:1056E00069F188F4C230D10531F18DED90E0C3301D
:1056F000D10589F086E494E0DF91CF911F910F915D
:10570000FF900C94CD0BC530D105D9F085EC90E01D
:10571000C630D10579F70E94CD0B1230A9F021E0F7
:1057200050E040E0BE01812FDF91CF911F910F919A
:10573000FF900C94ED2A87EE90E0EDCF86ED90E09F
:10574000EACF8FEC90E0E7CFDF91CF911F910F91DF
:10575000FF9008958F929F92AF92BF920F931F93E5
:10576000CF93DF93CDB7DEB7A1970FB6F894DEBF26
:105770000FBECDBF19A2423008F44AE08E010F5D82
:105780001F4F842E912CB12CA12CA50194010E94B5
:105790007334E62FB901CA01EA3044F5E05DD8015F
:1057A000EE938D01232B242B252B79F790E080E0BD
:1057B000109769F0FD0101900020E9F73197AF01E2
:1057C0004A1B5B0BBD018DE497E00E944105A19649
:1057D0000FB6F894DEBF0FBECDBFDF91CF911F9102
:1057E0000F91BF90AF909F908F900895E95CD7CFB5
:1057F000CF92DF92EF92FF92CF93DF936C01092E4D
:10580000000CEE08FF0897FF19C06DE28DE497E0E9
:105810000E94960AEC0166277727CB016C197D0957
:105820008E099F094AE00E94AA2B8C0F9D1FDF91D1
:10583000CF91FF90EF90DF90CF9008954AE0C7019D
:10584000B601DF91CF91FF90EF90DF90CF900C9455
:10585000AA2B0F931F93CF93DF9380916105882329
:1058600009F4A6C081E00E94550DD0916105D130A8
:1058700009F063C00091B3051091B40568E070E0D1
:10588000C8010E94DE28C82F80915E058150C11199
:105890000BC060E070E4C8010E94DE28C82F882396
:1058A00029F080915E058F5F80935E050091B305BE
:1058B0001091B40560E070E2C8010E94DE288823E0
:1058C00021F0DF5FD0936105C82FF80186A197A171
:1058D000079791F484A5882379F082A593A560A504
:1058E00071A58130910509F058C16530710521F02D
:1058F0006A30710509F051C1CC2389F080916105AE
:10590000813009F04DC06EE171E083E00E941B29F7
:1059100080915E05082E000C990B0E94F82B809157
:105920005F058823C1F18091A5059091A605DF91BF
:10593000CF911F910F910C94690DD230F1F4009129
:10594000B3051091B40568E070E0C8010E94DE283C
:10595000C82F809158058150C1110CC060E070E4DF
:10596000C8010E94DE28C82F882309F49FCF8091A8
:1059700058058F5F8093580599CFC0E0D33009F068
:1059800095CF1092610505E024E04FE760E08DE4DB
:1059900097E00E94E80BDF91CF911F910F9108953E
:1059A0006BE171E083E00E941B2980915805B2CF22
:1059B00080916005811110C080915F05811172C0D6
:1059C00081E08093600580935F056BE371E00E9446
:1059D0001B2981E00E94550D809160058823D9F232
:1059E000E091B305F091B40524A135A1209530953F
:1059F00035FB882780F923FD826036FD8460C091E5
:105A0000A505D091A6058B8386A197A1823091052B
:105A100008F4C1CF8430910508F4EBC0079709F072
:105A2000BACF84A5882309F47ACF82A593A560A56F
:105A300071A58130910509F0BFC06530710509F489
:105A40006ECF6A30710509F0B7C080915B05909107
:105A50005C05009709F06FC084A195A18095909591
:105A60009C01287030722830304209F058CF96FFE0
:105A700056CF1092600580915F05882321F01B822C
:105A8000CE010E94690D81E00E94550D61E271E036
:105A900082E00E941B2968EE73E080E090E00E94A3
:105AA000A903A7C0C091B305D091B40560E070E22E
:105AB000CE010E94DE28811107C068E070E0CE01AF
:105AC0000E94DE28882379F081E08093600544E01D
:105AD00060E08DE497E00E94880ADF91CF911F91EA
