:100000000C9452020C947A020C947A020C947A02A8
:100010000C947A020C947A020C947A020C947A0270
:100020000C947A020C947A020C94B3140C9422155A
:100030000C947A020C947A020C947A020C947A0250
:100040000C947A020C947A020C947A020C947A0240
:100050000C947A020C947A020C947A020C9469142F
:100060000C947A020C947A020C947A020C947A0220
:100070000C947A020C947A020C947A020C947A0210
:100080000C947A020C947A020C947A020C947A0200
:100090000C947A020C947A020C947A020C947A02F0
:1000A0000C947A020C947A020C947A02AED580A851
:1000B0003FD300408D142002A1C8DA12817FD9F10C
:1000C000DB40A4A6AF56424F59004E545400534E45
:1000D0004553004E4553004A4F47434F4E00464C50
:1000E00049474854535449434B004455414C5348A5
:1000F0004F434B004449474954414C004E45474308
:100100004F4E00504144005749490047414D454337
:10011000554245004E3634204F524947494E414CD6
:100120002052414E4745002B4E4547005053580042
:100130004E4553202B20534E455300000000002312
:1001400000260029002C002F0000030C0F30333C48
:100150003FC0C3CCCFF0F3FCFF0000000200090F4A
:100160000000030401000C0000000000000000007B
:100170000000000000000000080B00020202000066
:1001800009040000010202000005240010010524FA
:10019000010101042402060524060001070581036C
:1001A00010004009040100020A00000007050202D5
:1001B0004000000705830240000004030904120107
:1001C0000002EF020140D0167E120001010203017D
:1001D000556E6B6E6F776E005265666C6578204168
:1001E00064617074005245464C4558000000050794
:1001F0002061000000000000005F00006070787067
:1002000060605048506003070F07030305090503AA
:10021000081C3E7F7F081C22417F7F7F3E1C087F99
:1002200041221C08082A1C2A0808083E0808005019
:10023000300000080808080800606000002010086E
:1002400004023E5149453E00427F4000426151490F
:10025000462141454B311814127F10274545453939
:100260003C4A494930017109050336494949360676
:100270004949291E00363600003C7E7E7E3C3C42C9
:1002800042423C1414141414F0F0F0F0F0F090908A
:1002900090F0324979413E7E1111117E7F494949E2
:1002A000363E414141227F4141221C7F494949411B
:1002B0007F090901013E414151327F0808087F0052
:1002C000417F41002040413F017F081422417F408F
:1002D0004040407F0204027F7F0408107F3E41417E
:1002E000413E7F090909063E4151215E7F091929D6
:1002F00046464949493101017F01013F4040403FA5
:100300001F2040201F7F2018207F631408146303E0
:1003100004780403615149454300007F41410204D0
:1003200008102041417F0000383C1E0F074040402C
:100330004040382412090720545454787F484444DC
:10034000383844444420384444487F38545454187E
:10035000087E090102081454543C7F080404780004
:10036000447D40002040443D00007F10284400416F
:100370007F40007C041804787C08040478384444E6
:1003800044387C14141408081414187C7C080404E1
:10039000084854545420043F4440203C4040207CB2
:1003A0001C2040201C3C4030403C44281028440C79
:1003B0005050503C4464544C44E0E0E0E0E0000025
:1003C0007F0000E0A0A0A0E008082A1C08081C2A62
:1003D00008080006090906AC0019804000504C5579
:1003E000472B5245534554005245424F4F54494EB6
:1003F000472E2E2E004D554C54492D544150004E41
:100400004F4E45004E4F5420535550504F52544577
:10041000440044524157534F4D45005544524157B3
:10042000005455524E5441424C45004452554D00E3
:1004300047554954415200434C4153534943004EA0
:10044000554E4348554B0000000000250028002B66
:10045000002E00310000000000240027002A002D9B
:100460000030000404040404030405020202020430
:10047000030202020206060606060604040202023F
:100480000404040802011040804010204080408095
:10049000080204018040201002011080102040401A
:1004A0002000021D11241FBECFEFDAE0DEBFCDBF5A
:1004B00014E0A0E0B1E0ECEDF8E602C005900D928A
:1004C000AA37B107D9F725E0AAE7B4E001C01D9229
:1004D000AB3BB207E1F712E0C2E5D2E004C02197DE
:1004E000FE010E942C33C135D107C9F70E94AF1D10
:1004F0000C946C340C94000090E0FC01EE57FB4F20
:1005000024918D599B4FFC018491882399F090E0B0
:10051000880F991FFC01EB5AFB4FA591B491FC0188
:10052000E95BFB4F859194918FB7F894EC91E22BA6
:10053000EC938FBF0895FC018091E204882311F1B0
:100540003FB7F89482E08093E9002091F200822F77
:1005500090E01816190614F481E090E0882339F031
:10056000289844E64093E1044091F100408322231F
:1005700039F02091F200211103C02BE62093E8000E
:100580003FBF08958FEF9FEF0895CF93DF931F92A2
:10059000CDB7DEB76983DC01ED91FC910280F38178
:1005A000E02D41E050E0BE016F5F7F4F09950F9055
:1005B000DF91CF91089583E08093E9008091F2006C
:1005C000882319F08AE38093E8000895CF93DF939E
:1005D0001F92CDB7DEB7FC018485958597FD08C0D5
:1005E0002FEF3FEF358724870F90DF91CF9108954C
:1005F000CE0101960E949B02019719F4898190E037
:10060000F3CF8FEF9FEFF0CF0F931F93CF93DF9335
:100610001F92CDB7DEB78C01FC018485958597FFCD
:100620000BC0CE0101960E949B02019771F4898153
:1006300090E0F80195878487F801848595850F906F
:10064000DF91CF911F910F9108958FEF9FEFF1CF21
:10065000FC018485958597FD0BC09FB7F89482E0D7
:100660008093E9008091F2009FBF90E00196089589
:100670009FB7F89482E08093E9008091F2009FBFD9
:1006800090E008953FB7F8948091DD049091DE04E6
:10069000A091DF04B091E00426B5A89B05C02F3FD0
:1006A00019F00196A11DB11D3FBFBA2FA92F982F98
:1006B0008827BC01CD01620F711D811D911D42E093
:1006C000660F771F881F991F4A95D1F708958F925B
:1006D0009F92AF92BF92CF92DF92EF92FF924B0127
:1006E0005C010E9442036B017C010E9442036C1971
:1006F0007D098E099F09683E734081059105A8F325
:1007000021E0821A9108A108B10888EEC80E83E0A2
:10071000D81EE11CF11C81149104A104B10429F735
:10072000FF90EF90DF90CF90BF90AF909F908F9011
:1007300008952FB7F8946091D9047091DA048091EC
:10074000DB049091DC042FBF0895409192045091F6
:100750009304209190043091910442175307B4F40C
:100760009091E8009570E1F39091E80092FD19C036
:100770008093F100809192049091930401968F737D
:100780009927892B19F48EEF8093E80080919204C9
:10079000909193040196909393048093920481E046
:1007A000089580E00895DF92EF92FF920F931F93D8
:1007B000CF93DF93D82E8A01EB017B01E40EF51E67
:1007C000CE15DF0559F0D7FE12C0FE0184910E94BC
:1007D000A50321968111F4CF0FEF1FEFC801DF9120
:1007E000CF911F910F91FF90EF90DF900895888136
:1007F000EECF2FB7F89487708093E9009091E800CE
:10080000892F807295FF04C09091F20080E4891BCB
:100810002FBF089583E00E94F90390E008957F922E
:100820008F929F92AF92BF92CF92DF92EF92FF9200
:100830000F931F93CF93DF93C82E8B017A01809182
:10084000E204811110C08FEF9FEFDF91CF911F91D4
:100850000F91FF90EF90DF90CF90BF90AF909F905F
:100860008F907F9008958091960480FF05C08091BD
:10087000E00082608093E000CE2DDF2DD12C8AEF46
:10088000B82E8C2D8770982E8C2D8072882E8C2DF2
:100890008074782E9AE3A92E209719F4DD2009F4AC
:1008A00052C08C2D0E94F90381110AC0BA94BB205A
:1008B00051F261E070E080E090E00E946703ECCFCD
:1008C0008C171D0611F00CF08C2F9FB7F8949092A6
:1008D000E9002091E80025FD02C09FBFDDCF282F51
:1008E00030E0C21BD30B882029F08150A0F0109279
:1008F000F100FBCFF801C7FC0AC0815050F04191D4
:100900004093F100FACF44914093F1003196815029
:10091000D0F7020F131FDD2021F0A092E800D12CA8
:10092000DCCF8091E80085FD07C0A092E800DD24BF
:10093000D394209791F2F3CF209779F6772069F23C
:10094000A092E800CACF5D9884E680939504C70121
:100950007CCFCF93DF93EC0180913401882331F079
:1009600083E00E940F041816190634F081E090E02D
:100970009B838A8380E090E0DF91CF91089561505E
:1009800030F02091F100FC0120830196F8CF2898E7
:1009900084E68093E10408954F925F926F927F9274
:1009A000AF92BF92CF92DF92EF92FF920F931F937D
:1009B000CF93DF93EC016B017B01E40EF51E8B01FD
:1009C0005801AC18BD080E151F0511F10E949903BE
:1009D000688779878A879B87E881F9810284F38514
:1009E000E02DCE01099597FF23C00E94990348840A
:1009F00059846A847B8464197509860997094C8037
:100A00005D806E807F80641575058605970520F3EF
:100A1000C501DF91CF911F910F91FF90EF90DF9073
:100A2000CF90BF90AF907F906F905F904F90089560
:100A3000F80181938F01C4CFAF92BF92CF92DF9222
:100A4000EF92FF920F931F93CF93DF936C017B0183
:100A50008B01040F151FEB015E01AE18BF08C01714
:100A6000D10759F06991D601ED91FC910190F08187
:100A7000E02DC6010995892B79F7C501DF91CF914A
:100A80001F910F91FF90EF90DF90CF90BF90AF90AC
:100A900008958091880481110DC082E080938404C0
:100AA00084E080938504109287041092860481E08C
:100AB0008093880484E894E008950F931F93CF9364
:100AC000DF931F92CDB7DEB782E0898342E450E026
:100AD00068E771E080E80E94D3030E944905DC01C9
:100AE00012960D911C910115110589F0D801ED9117
:100AF000FC910280F381E02DBE016F5F7F4FC80142
:100B0000099597FD04C0F80100851185ECCF898116
:100B10000F90DF91CF911F910F910895CF93CFB791
:100B2000F8948091830481115AC044E754E0FA019B
:100B3000949123E934E0F9018491E92FF0E0EE0F7C
:100B4000FF1FEB5AFB4FA591B4919C91982309F09C
:100B500037C0EAE6F1E09491F9012491FA01849119
:100B6000882309F42DC09923E9F091509F30D0F4E7
:100B7000E92FF0E0E254FA4F0C942C33FF05030602
:100B8000CD05F705FB05D205D205D20506060C06F4
:100B9000100614061A06D2051E06909180009F7753
:100BA00090938000E82FF0E0EE0FFF1FE95BFB4F12
:100BB000A591B4918FB7F8949C91292B2C938FBF5A
:100BC00081E10E947C028CB580618CBD8CB5806413
:100BD0008CBD8FE00E947C0280E10E947C028091AB
:100BE00083048F5F80938304CFBFCF91089590914A
:100BF00080009F7DD5CF90918000977FD1CF94B515
:100C00009F7794BDCFCF94B59F7DFBCF90919000FF
:100C10009F7790939000C6CF909190009F7DF9CFE1
:100C200090919000977FF5CF9091C0009F7790931F
:100C3000C000B8CF9091C0009F7DF9CF9091C200C5
:100C4000977F9093C200AECFCF93DF93EC018A855C
:100C5000882329F081508A87DF91CF9108959C8164
:100C60008E819817C8F78D856827E881F9810084FF
:100C7000F185E02D42E0CE0109958C818F5F8C8358
:100C8000EBCF81E090E0089581E0089583E090E06B
:100C9000089584E090E00895EF920F931F93F90177
:100CA000DA012C913E2D309532233C9330813E2940
:100CB0003083FC01D80198E080E030E020E04C91E6
:100CC0004E2189F02A95D9F720E04C914E2159F018
:100CD0002A95D9F720E84C914E2129F02A95D9F789
:100CE0003A9561F717C047E04A95F1F7000031E007
:100CF000550F4C914E2109F051609A9529F451936A
:100D0000839598E0681731F020E84C914E2111F757
:100D10002A95D9F71F910F91EF9008950F931F9384
:100D2000F9012081202B2083DA012C91202B2C9398
:100D300020814081202B30E010E00095109550E09C
:100D400004231523DC015D9148E00083550F40F436
:100D500074E07A95F1F720837AE07A95F1F705C08F
:100D60007EE07A95F1F7000020834A9529F073E040
:100D70007A95F1F70000E9CF6A9529F071E07A954C
:100D8000F1F70000E0CF72E07A95F1F70000000083
:100D9000008374E07A95F1F70000000020831F9132
:100DA0000F9108957F928F929F92AF92BF92CF92B0
:100DB000DF92EF92FF920F931F93CF93DF93DB01AC
:100DC000642F5901F02E282F30E0F901EE57FB4F28
:100DD000E4902D593B4FF901249130E0220F331F4D
:100DE000F901EB5AFB4FC591D491F901E95BFB4F37
:100DF000C590D490F901E55CFE4F859094907FB644
:100E0000F8940E2D9601AE01CD010E948E0684014C
:100E10009601AE016F2DC5010E944C067FBEDF9189
:100E2000CF911F910F91FF90EF90DF90CF90BF90E7
:100E3000AF909F908F907F900895FC018FE0868304
:100E40008FE7878380871186128613860895DC01D9
:100E5000FB0112962C91129784819581281719060F
:100E600041F491818081813A31F49D7F81E091301C
:100E700009F080E008958132E1F79B3029F4828106
:100E80001F968C9381E008959A3099F7828150964D
:100E90008C93F8CFEF92FF920F931F93CF93DF9332
:100EA000FB012081213889F52381223271F5DC0193
:100EB00012964C91248135814217130631F58C012D
:100EC000FC01C385D485F12CE12C209791F04C8155
:100ED0005D816A817B818E81811180E80E94D303CC
:100EE0008F3F980759F0E80EF91E0990D881C02D60
:100EF000ECCF81E0D8011F968C93C701DF91CF9191
:100F00001F910F91FF90EF90089590E080E0F6CF51
:100F1000CF93DF93CDB7DEB769970FB6F894DEBFF6
:100F20000FBECDBFFC01DB018C918F5F8C939E01C6
:100F30002D5F3F4F8DE0D9011D928A95E9F729E099
:100F4000298384E08A8391E09D8383E08E832A87CE
:100F500021E22B879C879D879F8722E2288B27E0B1
:100F60002B8B25E02C8B8E8B20E430E0388F2F8B61
:100F7000998F82818B8395858685998B8A8B8381D6
:100F800080688D8B49E150E0BE016F5F7F4F80E04C
:100F90000E94D30369960FB6F894DEBF0FBECDBF93
:100FA000DF91CF9108958FB7F894809182048FBF1D
:100FB000089584E98093BC0085E69091BC0094FF7D
:100FC00003C08150D1F7089581E008956EBD0000FF
:100FD0000DB407FEFDCF8EB508952A9A299A8C9AF2
:100FE00083EC90E00197F1F708952A9A299A469A9E
:100FF00083EC90E00197F1F708958091D2049091ED
:10100000D3040196863091052CF49093D3048093F9
:10101000D204089581E090E0F8CF909129018917DA
:10102000C0F4E82FF0E0EE0FFF1FED51FB4F808181
:101030009181DC01ED91FC910190F081E02D099509
:10104000E091E304F091E4048FE787838087818750
:10105000828708950895DC019C96EC919C979D965B
:101060002C91E21730F4E80FF92FF11D848590E000
:1010700008958FEF9FEF0895FC0194A585A52FEFAC
:101080003FEF981740F4DF01A90FB11D1C962C917A
:1010900030E09F5F94A7C9010895FC0185A594A540
:1010A000891B990B0895CF92DF92EF92FF920F93D5
:1010B0001F93CF93DF936C01EB017B01E40EF51ED0
:1010C00010E000E0CE15DF0561F06991D601ED91E9
:1010D000FC910190F081E02DC6010995080F191FC0
:1010E000F1CFC801DF91CF911F910F91FF90EF9049
:1010F000DF90CF900895CF93DF93909129018917C6
:10110000B0F4C82FD0E0CC0FDD1FCD51DB4F88816C
:101110009981DC01ED91FC910190F081E02D099520
:10112000E881F9818FE78783808781878287DF91D4
:10113000CF910895EF92FF920F93CF93DF931F9279
:10114000CDB7DEB77C01FC0180819181892BE1F470
:101150008781198203E0970141E0BE016F5F7F4FF5
:101160000E94D206833061F0F70110821182128250
:1011700080E00F90DF91CF910F91FF90EF90089555
:101180008BE891E00197F1F7F701878191E099836E
:1011900004E097012D5F3F4F41E0BE016F5F7F4F3D
:1011A0000E94D206843001F781E0E3CFFC01108277
:1011B000118212820895EF92FF920F93CF93DF93E3
:1011C0001F92CDB7DEB77C01FC018589198203E04F
:1011D000970141E0BE016F5F7F4F0E94D2068330CE
:1011E00029F0C7010E94D60890E017C0F70180815E
:1011F000918188309042C9F0F701858991E4998303
:1012000097012D5F3F4F0AE041E0BE016F5F7F4FC6
:101210000E94D20691E08A3039F7892F0F90DF9132
:10122000CF910F91FF90EF90089591E0F6CFEF925C
:10123000FF920F93CF93DF9300D01F92CDB7DEB70D
:101240007C01FC0180819181892B09F1F70180816A
:1012500091818930910579F5928193FB992790F9D5
:10126000858920E4298323E02A839B8308E0970172
:10127000235F3F4F43E0BE016F5F7F4F0E94D20666
:10128000883099F0C7010E94D60880E005C0C701E8
:101290000E94DB088111DACF0F900F900F90DF9141
:1012A000CF910F91FF90EF900895F701858585FD0F
:1012B000E9CF81E0F1CF88309042D9F7F7018589F5
:1012C00094E599831A821B8208E09701235F3F4FC0
:1012D00043E0BE016F5F7F4F0E94D206883049F322
:1012E000D1CF8CBD9DBD08958C988091850590913E
:1012F00086050E94710983EC90E00197F1F708954B
:10130000469880918505909186050E94710983EC2D
:1013100090E00197F1F708958F929F92AF92BF925C
:10132000CF92DF92EF92FF920F931F93CF93DF93B1
:101330007C016B015A01022F10E0D0E0C0E083EC89
:10134000882E912CC017D107E1F0D701ED91FC91C7
:101350000480F581E02D6AE5C114D10421F0D601A5
:10136000AC0FBD1F6C91C7010995A114B10421F008
:10137000F501EC0FFD1F8083C4010197F1F7219661
:10138000E1CFDF91CF911F910F91FF90EF90DF9010
:10139000CF90BF90AF909F908F900895CF92DF92A3
:1013A000EF92FF920F931F93CF93DF937C016B011A
:1013B000D42F8C010E5F1F4F23E0A8010E948C09DF
:1013C000F70123812F3F61F410E000E0C801DF91B5
:1013D000CF911F910F91FF90EF90DF90CF900895E4
:1013E00084818A3511F08111EFCF2F70C22FCC0F7D
:1013F000D33059F0B6016D5F7F4F2DEF2D0FA70150
:101400004B5F5F4FC7010E948C092C2F2D1B2D5F56
:10141000E9F24D2F50E0CA01820F911D8197A4F689
:10142000400F511F70E060E0C7010E948C09CECFD1
:10143000AF92BF92CF92DF92EF92FF920F931F93E2
:10144000CF93DF9300D000D01F92CDB7DEB78C01D1
:10145000DC019C961C929C97D9961C92D997ED9191
:10146000FC910190F081E02D0995F80182AD811188
:1014700008C083AD803409F083C084AD813009F0A9
:101480007FC085E0EBE4F1E0DE01119601900D9262
:101490008A95E1F7D80196968D919C91979706973A
:1014A00009F068C0DD968C918C8345E0BE016F5FCA
:1014B0007F4FC8010E94CE097C01D801ED91FC91BB
:1014C0000280F381E02DC8010995E114F10409F4CB
:1014D00040C0F7018181807F803F09F055C00E94A4
:1014E00099036B017C01D801ED91FC910190F08191
:1014F000E02DC801099544E062E471E0C8010E9452
:10150000CE095C01D801ED91FC910280F381E02DC0
:10151000C8010995A114B10429F0F5018181807FEA
:10152000803F89F46AE070E080E090E00E94670309
:101530000E9499036C197D098E099F096B3F710503
:101540008105910580F262E370E080E090E00E9406
:10155000670380E00F900F900F900F900F90DF9136
:10156000CF911F910F91FF90EF90DF90CF90BF90A0
:10157000AF900895F80183AD8C8384AD8D8395CFB2
:1015800043E06BE471E095CFD80194968D919C91E6
:10159000959793969C938E939297238134819596F9
:1015A0003C932E93949781818937B9F483E090E03E
:1015B00097969C938E939697D80196968D919C9131
:1015C00097978430910591F150F58230910571F132
:1015D000039709F441C081E0BDCF982F907F9037E9
:1015E00021F482E090E0D801E3CF903531F484E03B
:1015F00090E0F80197A386A3DFCF833219F485E04A
:1016000090E0F1CF903E19F486E090E0F2CF83367F
:1016100019F487E090E0E7CF81E090E0EACF8630F0
:10162000910509F45CC030F10797A9F681E0D80173
:101630009C968C939C97F70185819A968C939A97A8
:1016400086819B968C939B97878198968C9398978D
:10165000808599968C93BFCF81E0F80181AFF70127
:1016600039969D96C701459621912D93E817F90764
:10167000D9F7DCCF81E09C968C939C97F7019581FC
:1016800098969C939897D9968C93D9978681D39660
:101690008C93D3979781D4969C93D4974085D59675
:1016A0004C93D59797FF05C03F7795963C932E9323
:1016B000949787FF0AC0D80194968D919C91959735
:1016C0009F7B95969C938E939497403F08F483CF8D
:1016D000F80184A195A19B7F95A384A37CCF81E091
:1016E0009C968C93F7019681858197FD1AC087FDA2
:1016F0008FE7D80198968C93D80198968C919897FB
:10170000805898968C939897F70185819D968C9335
:101710009D9786819E968C939E9787819F968C93AA
:101720005ACF813808F481E8F80180A7E5CF90917D
:101730002901891778F4E82FF0E0EE0FFF1FED5133
:10174000FB4F80819181DC01ED91FC910190F08152
:10175000E02D09940895FC019081911107C08381C7
:1017600094810196B1F090E080E008959F3051F4AB
:10177000228130E02F7033272F30310581F482E051
:1017800090E00895923041F0943049F485E090E083
:10179000089583E090E0089584E090E0089581E06A
:1017A00090E00895FC016093BC002FEF3FEF809123
:1017B000BC0087FF06C09091B900987F908381E0BC
:1017C00008952150310999F780E00895CF93DF9370
:1017D000EC016093BB0064E80E94D20B882329F0DF
:1017E00081E09881983209F080E0DF91CF910895EF
:1017F000DF92EF92FF920F931F93CF93DF93EC0151
:10180000D62EF42E8989882329F0411103C00E9425
:10181000D907198A8E01015F1F4F8989811119C06B
:10182000E88864EAC8010E94D20B882361F08F85A2
:10183000883011F0803139F4EE0CE092BB0064E89E
:10184000C8010E94D20B60E0F11060E4C8010E9460
:10185000E60B6D2DC8010E94E60B82E0F8120BC06A
:1018600089898F5F898BDF91CF911F910F91FF90B5
:10187000EF90DF9008950E94D907198AF4CFDC0118
:10188000ED91FC910084F185E02D40E00994FC018C
:101890002781269526952695621720F46583606B2F
:1018A0000C943F0C08950F931F93CF93FC01268156
:1018B000621798F4C62F8C0164836085C60F6C2F65
:1018C0006F700E943F0C6C2F62956F706061C80151
:1018D000CF911F910F910C943F0CCF911F910F91BD
:1018E00008951F93CF93DF93EC01142F0E94530CA4
:1018F000612FCE01DF91CF911F910C94470C2F9255
:101900003F924F925F926F927F928F929F92AF928F
:10191000BF92CF92DF92EF92FF920F931F93CF93DC
:10192000DF9300D000D000D0CDB7DEB7FC01238517
:1019300034852115310509F416C19E838D83F90183
:101940003296649031964491E42EF12CF7E0EF0E3C
:10195000F11C53E0F594E7945A95E1F7E982F90117
:10196000349654913196E4916D30F1F460E00E9428
:10197000530C81E090E026960FB6F894DEBF0FBEC0
:10198000CDBFDF91CF911F910F91FF90EF90DF902E
:10199000CF90BF90AF909F908F907F906F905F900F
:1019A0004F903F902F9008956A3081F460E08D81D0
:1019B0009E810E94530CED81FE81868565818E9DFE
:1019C000600D1124CF010E94470CD3CF651708F496
:1019D000CAC08E2F90E0FC01E50FF11D6E171F06A7
:1019E0000CF0C1C089010A5F1F4F651BED81FE81AC
:1019F00071855685759F502D11245C83F901549192
:101A00002F5F3F4FF9012491352F2230310508F027
:101A10006AC06E9CC0016F9C900D1124689FF001FC
:101A2000699FF00D11240E0F1F1F512CED81FE81B7
:101A3000F481FA83ED81FE812580F285FB83862C7B
:101A4000912CAA24A394B12C312C8981381608F04A
:101A500086C0412CED81FE818685481608F078C04D
:101A60008B818287311002C0442041F0ED81FE81DC
:101A700045814F5F6A81CF010E94710CD12CC12C2E
:101A8000C61408F058C0F801EC0DFD1D74905520E7
:101A900061F0EA14FB0449F4E72DF0E0052C02C0E4
:101AA000F595E7950A94E2F77E2EED81FE81868515
:101AB000823081F4442009F43AC072948FE0782295
:101AC000E72DF0E0E75BFE4F7490672D8D819E81DE
:101AD0000E942406672D8D819E810E9424068FEF2F
:101AE000C81AD80ACDCF477028E0522E541A411197
:101AF00001C0512CF801612C30E020E0661631F075
:101B00004491240F311D63943196F8CF600E712EED
:101B1000711CF3016490E29EF001E39EF00DF29ED1
:101B2000F00D11248E0F9F1F080F191F7FCFF72D67
:101B3000FF707F2EC5CFD12CEC81DE1639F060E02E
:101B40008D819E810E942406D394F6CF439482CF48
:101B50003394080D191DFFEFAF1ABF0A76CF622D1F
:101B60008D819E8130CF90E080E005CF0F931F9351
:101B7000CF93DF938C01D0E0C0E0F801EC0FFD1FA4
:101B80006491662341F085EA95E00E947F0C892BE1
:101B900011F02196F2CFCE01DF91CF911F910F91DD
:101BA0000895CF92DF92EF92FF920F931F93CF93FE
:101BB000DF93EC01F62EC42ED22E1A868F818695E5
:101BC00086958695081710F00FEF080F1D2D011749
:101BD00080F0412F6F2DCE010E94710CEF2CCE149E
:101BE00030F06D85CE010E942406E394F8CF1F5F8C
:101BF000EECF4D2D6F2DCE01DF91CF911F910F9123
:101C0000FF90EF90DF90CF900C94710C0F93FC013C
:101C1000078106950695069501504681415020E0C2
:101C200060E00E94D10D0F9108954F925F926F92E4
:101C30007F928F92AF92CF92EF92FF920F931F936A
:101C4000CF93DF93CDB7DEB72701380194E0899FAA
:101C500080011124F801E658FB4F80819181A28117
:101C6000B3818E219521A621B72131E0892B8A2BC2
:101C70008B2B09F430E03C1103C08889882301F1E3
:101C8000C11001C0A82C2D5F640F422F85EA95E09A
:101C90000E94710C6A2D85EA95E00E947F0CF80184
:101CA000E658FB4FCC20D1F080819181A281B38195
:101CB00084299529A629B72980839183A283B38398
:101CC000DF91CF911F910F91FF90EF90CF90AF9048
:101CD0008F907F906F905F904F90089540945094B4
:101CE0006094709480819181A281B3818421952137
:101CF000A621B721E1CF8F929F92AF92BF92CF9250
:101D0000DF92EF92FF920F931F93CF93DF93D82E22
:101D1000C62FE82FF0E0EE0FFF1FE055FC4FB0801C
:101D200007E023E041816B2D85EA95E00E94D10D0B
:101D300047E06B2D85EA95E00E94710CC13069F592
:101D400083E091E00E94B60D81E08D15C8F0C8E4F3
:101D5000D2E099249394E880F9800A811B819F92B4
:101D60008F80AE80CC24C3942C814D816B2D8D2D22
:101D70000E94150E28960F9082E0C83BD80759F7AD
:101D8000DF91CF911F910F91FF90EF90DF90CF9057
:101D9000BF90AF909F908F9008958FEF93E0DF9169
:101DA000CF911F910F91FF90EF90DF90CF90BF9058
:101DB000AF909F908F900C94B60D0F9307E022E0A8
:101DC0004FE760E085EA95E00E94D10D8091D20452
:101DD0009091D3048330910559F138F48130910505
:101DE00089F00297C9F00F9108958430910541F16F
:101DF0000597C9F766E385EA95E00E94530C87E0F2
:101E000091E007C064E285EA95E00E94530C80E30C
:101E100091E00F910C94B60D6AE285EA95E00E947C
:101E2000530C8CE291E00E94B60D87E291E0F1CF75
:101E300066E085EA95E00E94530C84E191E0E9CFE9
:101E400064E285EA95E00E94530C8BE091E0E1CFDB
:101E5000809316016EEA81116FEA85EA95E00E948F
:101E60003F0C0E94990360939D0470939E0480939D
:101E70009F049093A0040895FC01448550E0A5853B
:101E8000B0E0AA0FBB1FAC50BB4F0D90BC91A02D72
:101E900013968C9180649091F804BF01992321F0EE
:101EA0006E5F7F4F0C940F046D5F7F4FFBCF0895E3
:101EB00090E080E008952F923F924F925F926F9250
:101EC0007F928F929F92AF92BF92CF92DF92EF92CA
:101ED000FF920F931F93CF93DF93CDB7DEB7C45616
:101EE000D1090FB6F894DEBF0FBECDBF2C011B0188
:101EF000942ED22EBE2C84ED93E0D2018D939C9330
:101F0000822F90E00196959587959091F20498170D
:101F100050F09091F30411E0EE24E394F12C981723
:101F200028F012E075C010E0F12CE12CF701EE5022
:101F3000FB4F81E0890F808391116AC083E190E0BB
:101F40000E9432333C0181E0F30184838583930155
:101F5000265F3F4F378326831186108628EC33E0B7
:101F60003183208314861386168615868787808B97
:101F7000328A218A81EC82870E944905FC01818195
:101F8000D30114965C91682F650F7727771F68300F
:101F90007105BCF5A281B381109739F57382628215
:101FA0009081D30112969C93129713968C9313975A
:101FB00015968C91890F808390E080E0851708F555
:101FC0004181A42FB0E0BD016B5C7E4FD30116961A
:101FD0002D913C91280F391FD9012C91DB012C93B5
:101FE0004F5F41830196EACFD90118962D913C911C
:101FF000199721153105C1F719967C926E921897A1
:10200000CFCFF701EE0FFF1FEC50FB4F71826082C4
:10201000F201158781E08D1508F080E08093F804C7
:102020008AED93E0D20111969C938E9312969C9226
:102030002C2D2A0D2B0D200FEA96BFADEA97EB96BB
:102040006FACEB97B60D3B2E380C822F830D95E0CD
:10205000980FD2011C969C9335E0398391E09A83C6
:1020600049E04B833C8331EA3D839E839D1508F014
:1020700007C485E88F83988698E0E1E0F0E0EC0FF4
:10208000FD1FE90FF11D45E04083E1E0E90F662403
:102090006394712C6C0E7D1E6E0E711CF30159E061
:1020A0005083E2E0E90FEE24E394F12CEC0EFD1EE8
:1020B000EE0EF11CF70189E18083E3E0E90F61E0B6
:1020C00070E06C0F7D1F6E0F711DFB0131E03083DE
:1020D000E4E0E90FA1E0B0E0AC0FBD1FAE0FB11D11
:1020E000FD0189E28083E5E0E90F66246394712CA9
:1020F0006C0E7D1E6E0E711CF30188E18083E6E09C
:10210000E90FEE24E394F12CEC0EFD1EEE0EF11C13
:10211000F701A5E19A2E9082E7E0E90F61E070E017
:102120006C0F7D1F6E0F711DFB011082E8E0E90F3F
:10213000A1E0B0E0AC0FBD1FAE0FB11DFD01B5E2D7
:10214000FB2EF082E9E0E90F66246394712C6C0E9B
:102150007D1E6E0E711CF3013083EAE0E90F61E031
:1021600070E06C0F7D1F6E0F711DFB0175E77083B2
:10217000EBE0E90FA1E0B0E0AC0FBD1FAE0FB11D69
:10218000FD013083ECE0E90F66246394712C6C0E42
:102190007D1E6E0E711CF30165E96083EDE0E90FB1
:1021A000A1E0B0E0AC0FBD1FAE0FB11DFD018083FB
:1021B000EEE0E90F66246394712C6C0E7D1E6E0EAA
:1021C000711CF30181E88083EFE0E90FA1E0B0E04A
:1021D000AC0FBD1FAE0FB11DFD01B2E0DB2ED082F2
:1021E000E0E1E90F66246394712C6C0E7D1E6E0E87
:1021F000711CF3014083E1E1E90FA1E0B0E0AC0F15
:10220000BD1FAE0FB11DFD013083E2E1E90F662471
:102210006394712C6C0E7D1E6E0E711CF301508345
:10222000E3E1E90FA1E0B0E0AC0FBD1FAE0FB11DBF
:10223000FD0149E34083E4E1E90F66246394712CD6
:102240006C0E7D1E6E0E711CF3019082E5E1E90FAC
:10225000A1E0B0E0AC0FBD1FAE0FB11DFD011082BB
:10226000E6E1E90F66246394712C6C0E7D1E6E0E00
:10227000711CF301F082E7E1E90FEE24E394F12C05
:10228000EC0EFD1EEE0EF11CF70147E04083E8E185
:10229000E90FA1E0B0E0AC0FBD1FAE0FB11DFD0115
:1022A00045E34083E9E1E90F66246394712C6C0EE9
:1022B0007D1E6E0E711CF3011082EAE1E90FEE241F
:1022C000E394F12CEC0EFD1EEE0EF11CF70146E43A
:1022D0004083EBE1E90FA1E0B0E0AC0FBD1FAE0F12
:1022E000B11DFD014BE34083ECE1E90F66246394EB
:1022F000712C6C0E7D1E6E0E711CF3013083EDE1AE
:10230000E90FEE24E394F12CEC0EFD1EEE0EF11C11
:10231000F70145E64083EEE1E90FA1E0B0E0AC0F44
:10232000BD1FAE0FB11DFD0144E14083EFE1E90F98
:1023300066246394712C6C0E7D1E6E0E711CF3016D
:102340007083E0E2E90FEE24E394F12CEC0EFD1E25
:10235000EE0EF11CF70148E04083E1E2E90FA1E055
:10236000B0E0AC0FBD1FAE0FB11DFD016083E2E216
:10237000E90F66246394712C6C0E7D1E6E0E711C29
:10238000F3013083E3E2E90FEE24E394F12CEC0E49
:10239000FD1EEE0EF11CF7018083E5E2E90F84E2F9
:1023A000890FEE24E394F12CEC0EFD1EE80EF11CD7
:1023B000D701DC92222309F404C166246394712CB2
:1023C0006C0E7D1E6E0E711CF3015083E6E2E90F68
:1023D000EE24E394F12CEC0EFD1EEE0EF11CF70141
:1023E0003083E7E2E90FA1E0B0E0AC0FBD1FAE0F14
:1023F000B11DFD019082E8E2E90F66246394712C1F
:102400006C0E7D1E6E0E711CF3011082E9E2E90F65
:10241000EE24E394F12CEC0EFD1EEE0EF11CF70100
:1024200086E28083EAE2E90FA1E0B0E0AC0FBD1FD5
:10243000AE0FB11DFD018FEF8083EBE2E90F662443
:102440006394712C6C0E7D1E6E0E711CF301108254
:10245000ECE2E90FEE24E394F12CEC0EFD1EEE0EFF
:10246000F11CF7017083EDE2E90FA1E0B0E0AC0FE1
:10247000BD1FAE0FB11DFD014083EEE2E90F6624E2
:102480006394712C6C0E7D1E6E0E711CF3016083C3
:10249000EFE2E90FEE24E394F12CEC0EFD1EEE0EBC
:1024A000F11CF7012083E0E3E90F21E030E02C0F7D
:1024B0003D1F2E0F311DF90181EA808382E3890FD0
:1024C000E1E3E90F61E070E06C0F7D1F6E0F711D9D
:1024D000FB011082002391F0E1E0F0E0EC0FFD1F22
:1024E000E80FF11D508384E3890F9D5CE1E0F0E08B
:1024F000EC0FFD1FE90FF11D90E39083BB20A1F0CD
:10250000E1E0F0E0EC0FFD1FE80FF11D99E0908392
:10251000E1E0E80FA1E0B0E0AC0FBD1FAE0FB11DD0
:10252000FD0191E390838E5FCC20A9F0E1E0F0E023
:10253000EC0FFD1FE80FF11D99E09083E1E0E80F3B
:1025400066246394712C6C0E7D1E6E0E711CF3015B
:1025500092E390838E5FAA20A9F0E1E0F0E0EC0F17
:10256000FD1FE80FF11D99E09083E1E0E80FEE24F4
:10257000E394F12CEC0EFD1EEE0EF11CF70195E339
:1025800090838E5FE1E0F0E0EC0FFD1FE80FF11D9E
:1025900091E89083E1E0E80F21E030E02C0F3D1F4F
:1025A0002E0F311DF90192E09083E3E0E80F8E5F7A
:1025B00061E070E06C0F7D1F680F711D20ECDB0186
:1025C0002C93332009F401C125E081E090E08C0FC9
:1025D0009D1F8E0F911DDC012C9381E08E0F6624D0
:1025E0006394712C6C0E7D1E680E711C22E0D30169
:1025F0002C9382E08E0F66246394712C6C0E7D1EEA
:10260000680E711C25E1D3012C9383E08E0F6624A4
:102610006394712C6C0E7D1E680E711CD3011C928C
:1026200084E08E0F66246394712C6C0E7D1E680E00
:10263000711C26E2D3012C9385E08E0F66246394EF
:10264000712C6C0E7D1E680E711C2FEFD3012C9324
:1026500086E08E0F66246394712C6C0E7D1E680ECE
:10266000711CD3011C9287E08E0F66246394712C39
:102670006C0E7D1E680E711C25E7D3012C9388E03B
:102680008E0F66246394712C6C0E7D1E680E711C77
:1026900028E0D3012C9389E08E0F66246394712C7B
:1026A0006C0E7D1E680E711C25E9D3012C938AE007
:1026B0008E0F66246394712C6C0E7D1E680E711C47
:1026C000D3013C92ABE0AE0F66246394712C6C0E88
:1026D0007D1E6A0E711CD30181EA8C934DE04E0F72
:1026E0008CE08E0FEE24E394F12CEC0EFD1EE80E30
:1026F000F11CD7011C928820A9F0A1E0B0E0AC0F3A
:10270000BD1FA40FB11D89E08C934FE04E0FE25F17
:1027100066246394712C6C0E7D1E6E0E711CF30189
:102720008BEB8083EA967FACEA977720A9F0E1E013
:10273000F0E0EC0FFD1FE40FF11D89E08083E1E084
:10274000E40FEE24E394F12CEC0EFD1EEE0EF11CD2
:10275000F70185EC80834E5FEB96FFACEB97FF2093
:10276000A1F0E1E0F0E0EC0FFD1FE40FF11D89E0C6
:102770008083E1E0E40F21E030E02C0F3D1F2E0FBD
:10278000311DF90188EC80834E5FE1E0F0E0EC0F51
:10279000FD1FE40FF11D81E88083E1E0E40F61E0BB
:1027A00070E06C0F7D1F6E0F711DFB0182E0808356
:1027B000E3E0E40FA2E0A40F81E090E08C0F9D1F06
:1027C0008A0F911DDC0180EC8C93A1E0B0E0AC0F8E
:1027D000BD1FAE0FB11D80EC8C93EF5FEE2EF12C80
:1027E000C7010E9432336C01A701BE016F5F7F4FAA
:1027F0000E945C3487E090E00E943233DC01119645
:102800001C921E921396DC92CE9212971596FC9211
:10281000EE92149716961C921697E12FF0E0EE0FA9
:10282000FF1FEC50FB4F40815181FA018385948555
:10283000009761F5B487A387FA018585968514967C
:102840002D913C91820F931F96878587CC59DF4F3E
:102850000FB6F894DEBF0FBECDBFDF91CF911F91B1
:102860000F91FF90EF90DF90CF90BF90AF909F902F
:102870008F907F906F905F904F903F902F90089532
:102880008C5FF201848796E0F8CBC901FC012081BE
:10289000318121153105C9F7B183A083CDCF0E94C5
:1028A0005734CF93DF93FC012085318580E0232BC3
:1028B00069F4EB0161897289CE010E946534FE01E1
:1028C00001900020E9F731978E2F8C1BDF91CF917B
:1028D00008951F920F920FB60F9211242F933F93DA
:1028E0008F939F93AF93BF938091D9049091DA0413
:1028F000A091DB04B091DC043091D80423E0230FD5
:102900002D3758F50196A11DB11D2093D804809351
:10291000D9049093DA04A093DB04B093DC04809193
:10292000DD049091DE04A091DF04B091E0040196F3
:10293000A11DB11D8093DD049093DE04A093DF04FC
:10294000B093E004BF91AF919F918F913F912F91F0
:102950000F900FBE0F901F90189526E8230F029638
:10296000A11DB11DD2CF1F920F920FB60F9211244D
:102970008F939F938091E1009091E100937F9093DA
:10298000E10083FF0FC01092E90091E09093EB000B
:102990001092EC0092E39093ED001092E20498E024
:1029A0009093F00082FF22C093E09093E900909111
:1029B000F200992319F09AE39093E800909195041E
:1029C000992341F090919504915090939504911121
:1029D00001C05D9A9091E104992341F09091E10446
:1029E00091509093E104911101C0289A84FF18C07E
:1029F0008091E2008E7E81608093E2008091E10010
:102A00008F7E8093E100809196048E7E806180931A
:102A100096049F918F910F900FBE0F901F90189565
:102A200080FFF7CF8091E2008E7E80618093E2008C
:102A30008091E1008E7E8093E100809196048E7EED
:102A40008160E5CF1F920F920FB60F921124CF92A3
:102A5000DF92EF92FF920F931F932F933F934F9329
:102A60005F936F937F938F939F93AF93BF93EF93F6
:102A7000FF93CF93DF93CDB7DEB76C97DEBFCDBFAB
:102A80001092E9008091E80083FF25C068E0CE0144
:102A900045960E94BF0482EF8093E8008D8987FFEE
:102AA00039C09091E80090FFFCCF982F907609F004
:102AB00034C19E894F89588D2F89F88C911131C06E
:102AC000803861F5809197048093F1001092F100B5
:102AD0008EEF8093E8006C960FB6F894DEBF0FBEC1
:102AE000CDBFDF91CF91FF91EF91BF91AF919F91BA
:102AF0008F917F916F915F914F913F912F911F9196
:102B00000F91FF90EF90DF90CF900F900FBE0F903E
:102B10001F9018959EEF9093E800C7CF1092F10098
:102B2000D5CF913059F48111D3CF4130510581F681
:102B3000809197048D7F80939704CACF933049F496
:102B40008111C6CF4130510519F6809197048260FA
:102B5000F2CF953041F48091E80080FFFCCF2068EF
:102B60002093E300B5CF963009F0A9C00B8D1C8DE2
:102B700022E01092E9001092930410929204F21253
:102B80002EC010929104109290040E945D051F8245
:102B900099E09983FA8291E09E8390EA98879AEF70
:102BA00099872091920430919304275F3F4F3C8393
:102BB0002B838D831092E90010929304109292045B
:102BC000109391040093900449E050E0BE016F5FC0
:102BD0007F4F80E00E94D3030E945D0579CF109360
:102BE0009104009390040E944905DC0112960D9116
:102BF0001C910115110509F451C1D801ED91FC9109
:102C00000480F581E02DBE016B5E7F4FC801099500
:102C1000009709F03EC1F80100851185EACFF3E085
:102C2000FF120EC08F89882309F440C0823061F4FE
:102C300040E86CE088ED91E00E944D1A811148CF88
:102C400081E28093EB0047CF813029F440E867E0D0
:102C500080ED91E0F1CF833099F70E944905DC01C6
:102C60001296ED90FC908E010F5F1F4F6801E114EA
:102C7000F10479F0D701ED91FC910680F781E02D08
:102C8000B801C7010995080F111DF701E084F1840F
:102C9000EECFD8011C92F60101900020E9F73197A0
:102CA000BF016C197D0940E0C601C6CF6AEB71E037
:102CB000FB01449150E080E80E94D30309CF973094
:102CC00009F4BECF983021F481E08093F10000CF69
:102CD000993009F0FDCE837009F0B2CFE6E3F1E060
:102CE00081E031E096E32191222371F08093E900A5
:102CF0003093EB00DF0111972C912093EC0090931F
:102D0000ED008F5F873079F78EE78093EA001092AD
:102D1000EA008F898093E204DBCE8B8D9C8D10922C
:102D2000E90010929304109292049093910480937E
:102D30009004898D811192C08E899D89913A49F4C0
:102D4000813209F07DCF47E050E06DE271E080E034
:102D5000B3CF913209F074CF833269F48F89988DA3
:102D6000B0E0A0E08093000190930101A0930201E4
:102D7000B0930301ADCE803269F48091E80082FF08
:102D8000FCCF67E08DE291E00E94BF048BEF80935F
:102D9000E8009ECE823209F09BCE8F898093340169
:102DA000EEEFFFE7859194918B3F9C4D51F1E0E070
:102DB000F8E080912D0190912E01A0912F01B0910A
:102DC0003001803B9440A105B105F1F480913401BC
:102DD00080FD1AC0EE3F8AE0F80789F587E797E79C
:102DE00091838083809160008093940488E19BE0CC
:102DF0000FB6F894A895809360000FBE9093600082
:102E000067CEEEEFFAE0D5CF808191818737974783
:102E100009F05ECEA8958091600088618093600083
:102E20008091940480936000EE3F2AE0F20789F0DD
:102E30008091FE0A9091FF0A9183808349CE808120
:102E400091818737980751F29093FF0A8093FE0A89
:102E5000C5CF1092FF0A1092FE0A3ACE0E94490591
:102E6000DC0112960D911C910115110509F4E8CEB3
:102E7000D801ED91FC910190F081E02DBE016B5ED7
:102E80007F4FC8010995811123CEF8010085118576
:102E9000EBCF181619060CF41BCED2CEF1E0FF12C0
:102EA000BECE6EEB71E004CF71E02D98259A249888
:102EB0002C9A0000000000000E94D11925982D9A3C
:102EC0000E94D119A8940000000000001D9B0E94E0
:102ED000B919F2F088941C990894771F30F72D984F
:102EE000259A803021F024982C9A0C9479172C98EC
:102EF000249A0000000000000E94D11925982D9A04
:102F0000A894000000001D9B0E94B9190E94D119CD
:102F1000000000002D98259A872F9927089580E2B8
:102F200008950894881F0C949617880F11F12D9816
:102F3000259A00000000000028F4000024982C9A34
:102F40000C94A6172C98249A0C94A6170E94D119B9
:102F500025982D9AA8940000000000001D9B0E9457
:102F6000B9191AF488270C94CF170E94D1190C9420
:102F700095172D98259A0000000024982C9A0E94FD
:102F8000D1199927882725982D9AA89400001D9B70
:102F90000E94B9193AF31C9B81E00E94D1190000EC
:102FA00000002D98259A089581E00895CF93DF932E
:102FB000EC01862F0E949117811108C08FA5811105
:102FC00002C083E08FA790E080E002C081E090E043
:102FD000DF91CF9108952D98259A2C98249A0E94DC
:102FE000D11925982D9A0E94D1191D9B0E94B919BB
:102FF00024982C9A0E94D11908958F93F1E0E4EF60
:103000008F918F931D9B0E94B9192C98249A0E942E
:10301000D1190E949117882331F40E94EB17319740
:1030200011F00C94001899270F90089581E00895ED
:103030002D98259A0E94D11924982C9A0E94D11972
:1030400025982D9A0E94D1191D9B0E94B9192C9880
:10305000249A0E94D1190E949117089581E0089541
:103060001D9B0E94B9192C98249A0E94D1190E9484
:103070009117089581E008951F93CF93DF93EC019A
:103080001EA584EA112371F00E941818811108C04E
:1030900082E08FA781E08EA7DF91CF911F910895E5
:1030A00080E0F7CF0E943018811101C012E01FA705
:1030B000F1CFFF920F931F93CF93DF93EC01F62E86
:1030C000042F122F0E943C18E881F9810190F081B1
:1030D000E02D6F2DCE010995E881F9810190F081F5
:1030E000E02D602FCE0109950FA50E94EB171EA6BB
:1030F0001FA680E0011107C0112321F087EB92E0A9
:103100000197F1F781E0DF91CF911F910F91FF902F
:103110000895AF92BF92CF92DF92EF92FF921F93EA
:10312000CF93DF93EC011FA6162F613208F010E257
:103130008EA5882331F185EA0E94181891E089272D
:103140009FA5911104C0882311F082E08FA76E0122
:103150008CE0C80ED11CF12CE12CE12FE150FF0BCB
:103160005F01E11690F481E0AE14BF0409F080E045
:103170000E945417F60181936F01FFEFEF1AFF0AC7
:10318000F0CF85EA0E943018D9CF1CA68FA58111F7
:1031900010E01DA71EA60E94EB178DA5DF91CF9111
:1031A0001F91FF90EF90DF90CF90BF90AF90089568
:1031B000EF92FF920F931F93CF93DF93EC01162FA3
:1031C0007A010E943C18E881F9810190F081E02D9C
:1031D00060E0CE0109950FA50E94EB171EA61FA661
:1031E000011110C087EB92E00197F1F7612FCE013A
:1031F0000E948918482F50E0B701CE010E94CC04EC
:1032000091E0181390E0892FDF91CF911F910F91DA
:10321000FF90EF900895AF92BF92CF92DF92EF921E
:10322000FF920F931F93CF93DF93CDB7DEB76097D5
:103230000FB6F894DEBF0FBECDBF8C0197EBE92E21
:1032400092E0F92EC7010197F1F7D8011296ED919E
:10325000FC9121E043E06EEF808191810E9459183A
:10326000FE0131966F01811111C0D8011296ED91C6
:10327000FC91A60166E070E0808191810E94D818DF
:10328000882309F443C0C7010197F1F788E05E0184
:10329000B9E0AB0EB11CF501282F11922A95E9F780
:1032A000D6011D928A95E9F787EBE82E82E0F82E89
:1032B000D8011296ED91FC91A50168E070E0808143
:1032C00091810E94D818882309F443C0C70101974F
:1032D000F1F7D8011296ED91FC91A60168E070E03B
:1032E000808191810E94D818882399F1298599813C
:1032F00029131DC02A859A81291319C09F85911110
:103300001AC09889911117C0F801148260960FB6FF
:10331000F894DEBF0FBECDBFDF91CF911F910F910B
:10332000FF90EF90DF90CF90BF90AF900895C701CE
:103330000197F1F7BDCF91E0D80114969C931497B3
:103340001296ED91FC919481983000F798E0948367
:10335000DDCF80E0DBCF249825982C9A2D9A882702
:1033600099271C9B08951D9B089581E0089581E095
:103370000895BFE0A0EA00240E94C9193AF40A9413
:10338000D9F71197C1F728940C94D019A8940C94EC
:10339000D019A8941D990C94CE1928940000089572
:1033A000089593E09A95F1F7089508951F93CF93A8
:1033B000DF93EC0180E888A789A78AA78BA71CA6C2
:1033C000FE01BD968CE0DF011D928A95E9F71FA2F0
:1033D0001EA21AAE1BAE1CAE1DAE15E0CE010E94A1
:1033E000180A61E070E080E090E00E9467031150ED
:1033F000A9F7CE01DF91CF911F910C94180ACF93BA
:10340000DF93EC01849A8C9A229A2A9A219A299A1B
:1034100023982B982B9A0E948E05CE01DF91CF9195
:103420000C94D619CF93DF93EC013E9A469A229AD8
:103430002A9A219A299A23982B982B9A0E948E05D2
:10344000CE01DF91CF910C94D619E091F004F09168
:10345000F10424A135A120953095C90134E0969559
:1034600087953A95E1F741E084278170992726FFF7
:10347000826027FF846025FF8860E091EF04F0E020
:10348000EE0FFF1FED51FB4F0190F081E02D8C54AA
:103490009C4FDC018C9186830895EF92FF920F93ED
:1034A0001F93CF93DF93F82E192FE62E042F81E080
:1034B000860F880F0E94A50383E00E94A503CF2DED
:1034C000D12FEC0EFD2EF11CCE15DF05B9F007FF54
:1034D00013C0FE0184910E94A503182F80E00E9472
:1034E000A503812321968111EFCFDF91CF911F9109
:1034F0000F91FF90EF9008958881EDCF81E0F5CF97
:10350000CF93DF93EC01E881F9810280F381E02D14
:103510000995EA81FB81228133812817390739F027
:10352000019719F481E0232B19F480E001C081E0B8
:10353000DF91CF9108958F92AF92CF92DF92EF9269
:10354000FF920F931F93CF93DF93EC014091AB0554
:10355000415007E023E060E085EA95E00E94D10D4C
:1035600047E060E085EA95E00E94710CFE01329729
:10357000E830F10508F076C0E054F54E0C942C3399
:103580002F1BC81AF71A151B231B261B291B2C1BC4
:103590008FE394E00E94B60DC1E0CF938CE3882EB8
:1035A0009BE3A92ECC24C394E12CF12C8701E39456
:1035B00022E040E360E080E00E94150ECF9312E02D
:1035C000E12EF12C00E010E023E046E360E080E033
:1035D0000E94150E0F900F90DF91CF911F910F91C8
:1035E000FF90EF90DF90CF90AF908F90089587E39A
:1035F00094E00E94B60DC8E3D3E0DD24D394E880C4
:10360000F9800A811B81DF928F80AE80CC24C39425
:103610002C814D8160E080E00E94150E28960F906D
:1036200083E0C03BD80759F7D7CF80E394E0DF9120
:10363000CF911F910F91FF90EF90DF90CF90AF90BF
:103640008F900C94B60D8BE294E0F1CF81E294E080
:10365000EECF8BE194E0EBCF82E194E0E8CF84E021
:1036600094E0E5CF8FEF93E0E2CF8F929F92AF92FD
:10367000BF92CF92DF92EF92FF920F931F93CF935F
:10368000DF93D82EC62FE82FF0E0EE0FFF1FE05596
:10369000FC4FB08007E023E041816B2D85EA95E087
:1036A0000E94D10D47E06B2D85EA95E00E94710CD8
:1036B000C13069F583E091E00E94B60D81E08D157F
:1036C000C8F0C8EED1E099249394E880F9800A818B
:1036D0001B819F928F80AE80CC24C3942C814D811E
:1036E0006B2D8D2D0E94150E28960F9082E0C83408
:1036F000D80759F7DF91CF911F910F91FF90EF906D
:10370000DF90CF90BF90AF909F908F9008958FEFF4
:1037100093E0DF91CF911F910F91FF90EF90DF9099
:10372000CF90BF90AF909F908F900C94B60D2F923A
:103730003F924F925F926F927F928F929F92AF9241
:10374000BF92CF92DF92EF92FF920F931F93CF938E
:10375000DF9300D000D0CDB7DEB7B82E2B011A0111
:10376000922E88E691E09C838B83D12CFB013297CB
:10377000FA83E9836B2C712C660C771CC30180558E
:103780009C4F3C01E981FA81329770F08FEF8D0DEB
:10379000823050F1F5E04F16510431F4DD2021F173
:1037A00088EF8D0D823000F1EB81FC81E080F180AB
:1037B0000281138124814581A680878021143104F0
:1037C00059F0F10184A195A1809590958E219F21BA
:1037D000CC24C394892B09F4C12C9F92F3016081FE
:1037E0008B2D0E94150E0F90D3948B819C8108968F
:1037F0009C838B8390E1D912C5CF0F900F900F90CF
:103800000F90DF91CF911F910F91FF90EF90DF907C
:10381000CF90BF90AF909F908F907F906F905F9070
:103820004F903F902F900895FF920F931F93CF9347
:10383000DF93182FEB01E82FF0E0EE0FFF1FE055AC
:10384000FC4FF08007E023E041816F2D85EA95E091
:103850000E94D10D47E06F2D85EA95E00E94710C22
:10386000C430D105A1F188F4C130D10531F18AEE1F
:1038700090E0C230D10589F08FEF93E0DF91CF91D6
:103880001F910F91FF900C94B60DC530D105A9F092
:1038900087ED90E0C630D10579F70E94B60D123061
:1038A000C8F421E050E040E0BE01812FDF91CF91CC
:1038B0001F910F91FF900C94971B8091C904811167
:1038C00003C084EF90E0E9CF8CEF90E0E6CF8EED7F
:1038D00090E0E3CFDF91CF911F910F91FF9008957A
:1038E0005F926F927F928F929F92AF92BF92CF9290
:1038F000DF92EF92FF920F931F93CF93DF93D82E17
:10390000EB01E82FF0E0EE0FFF1FE055FC4F908039
:1039100007E023E04181692D85EA95E00E94D10D01
:1039200047E0692D85EA95E00E94710CC330D1050E
:1039300009F462C0C0F483ED90E0C230D105E1F03B
:103940008FEF93E0DF91CF911F910F91FF90EF9058
:10395000DF90CF90BF90AF909F908F907F906F90AF
:103960005F900C94B60DC430D10509F448C085ECC5
:1039700090E0C530D10521F70E94B60D82E0D8163F
:1039800059F188EB682E82E0782EB12C552453949F
:10399000C230D10549F487E08B15B8F083E0F3011C
:1039A000E05AFF4F8B1508F4F301E080F1800281AB
:1039B00013815F928780A680CC24C39424814581A3
:1039C000692D8D2D0E94150E0F90B39488E0680E1E
:1039D000711C8CE0B812DCCFDF91CF911F910F9159
:1039E000FF90EF90DF90CF90BF90AF909F908F901F
:1039F0007F906F905F9008958EEC90E0BDCF8AEC41
:103A000090E0BACFAF92BF92CF92DF92EF92FF9247
:103A10001F93CF93DF93E9EFF4E01382128288EED5
:103A2000C82E83E0D82EE12CF12CC482D582E68208
:103A3000F78280EE93E0918380838FEF9FEF9587ED
:103A40008487E5EAF5E013821282128614861386D3
:103A5000158681E0868782EF93E091838083E6E993
:103A6000F5E0138214828AE0EBE9F5E0DF01282F0C
:103A70001D922A95E9F7E7E8F5E013821482ECE855
:103A8000F5E0DF011D928A95E9F7E5E8F5E08EE7BC
:103A90008083118282E490E00E94323312E4FC01C0
:103AA000212F11922A95E9F72EE134E0DC012D93C4
:103AB0003C93C1E8D5E09983888382E490E00E943A
:103AC0003233FC0111921A95E9F722E134E0DC016E
:103AD0002D933C939B838A8388E090E00E9432334D
:103AE000C5E1FC01C7832DE7A22E25E0B22ED5014A
:103AF0008D939C9388E090E00E94323315E0FC01A6
:103B00001783D50113969C938E93129786E190E0CC
:103B10000E943233FC01C58BC9E7D5E099838883C5
:103B200086E190E00E943233DC0155961C939B8322
:103B30008A83E9E4F5E013821282C482D582E682A8
:103B4000F78280E094E091838083DF91CF911F9191
:103B5000FF90EF90DF90CF90BF90AF900895CF93FC
:103B6000DF93CDB7DEB7C856D1090FB6F894DEBFE4
:103B70000FBECDBF789484B5826084BD84B581606A
:103B800084BD85B5826085BD85B5816085BD809128
:103B90006E00816080936E001092810080918100A0
:103BA0008260809381008091810081608093810098
:103BB000809180008160809380008091910082607C
:103BC0008093910080919100816080939100809119
:103BD00090008160809390008091C1008460809308
:103BE000C1008091C10082608093C1008091C100BA
:103BF00081608093C1008091C30081608093C30085
:103C00008091C00082608093C0008091C20081607A
:103C10008093C20080917A00846080937A008091C2
:103C20007A00826080937A0080917A00816080932C
:103C30007A0080917A00806880937A001092E20482
:103C400010929704109296048091D700816080931F
:103C5000D70080EA8093D80089B5806189BD89B595
:103C6000826089BD09B400FEFDCF61E070E080E0B4
:103C700090E00E9467038091D8008F7C80618093E0
:103C8000D8008091E000807F8093E0008091E10087
:103C90008E7E8093E1008DE08093E200559A209A19
:103CA00056985E9A90E080E00E94BB32282F30E068
:103CB0003093D3042093D204863030F081E090E03A
:103CC0009093D3048093D2048091D2049091D30432
:103CD0008330910509F4D4C108F03EC081309105CC
:103CE00009F480C0029709F4E4C01092B6058CE391
:103CF0008093B5051092B90084E48093BC008CE0F9
:103D00008093B8001092A9051092AA05E7EDF3E0A0
:103D1000E590F490E9EDF3E0D490EAEDF3E0E4917E
:103D2000E093AB05EBEDF3E0E491E093AC05ECED53
:103D3000F3E0E491E093AD0510E000E00D1508F02C
:103D4000D9C2F701E00FF11F649185EA95E00E9466
:103D50003F0C0F5F1F4FF2CF8430910509F4E2C191
:103D6000059709F0C2CF65E070E080E090E00E9426
:103D7000670381E08093290182E390E090932C0116
:103D800080932B018EE090E00E9432333C011F9221
:103D90001F92812CAA24A394CC24C394EE24E394F0
:103DA00001E021E043E060E774E00E945B0F709265
:103DB000E4046092E3040F900F9010E080912901D9
:103DC000181708F010C2812F0E940D08E12FF0E0B3
:103DD000EE0FFF1FED51FB4F808191810E943C0F40
:103DE0001F5FECCF10929A05249A2C98259A2D9A51
:103DF0006E987698769A10928B05869A8E98859A08
:103E00008D9A87988F988F9A83E290E00197F1F7C7
:103E100082E08093290182E390E090932C018093CB
:103E20002B0110E0F09029011F15F8F48EE090E0CE
:103E30000E9432333C0143E0410F1F921F92812CBC
:103E4000A12CC12CE12C00E02F2D63E474E00E9432
:103E50005B0FE12FF0E0EE0FFF1FED51FB4F718282
:103E600060821F5F0F900F90DDCF10E080912901DD
:103E7000181778F4812F0E94970BE12FF0E0EE0FD6
:103E8000FF1FED51FB4F808191810E943C0F1F5F0E
:103E9000EDCF80912B0190912C018230910508F497
:103EA00024CF880F991F880F991F05970197F1F765
:103EB0001CCF849A3E9A8C9A469A80918105909163
:103EC00082059093F1048093F004DC01ED91FC9164
:103ED0000680F781E02D0995882381F081E08093A9
:103EE000CD04E091F004F091F10426A137A1273030
:103EF000310509F05CC081E08093CA048091C90457
:103F0000882309F465C082E08093290133EE632E93
:103F100034E0732E13E0FF24F3948EE090E00E94CF
:103F200032332C018091980466E274E0811102C062
:103F300064E374E08F93FF9288248394A12CCC24B3
:103F4000C394E12C01E022E0412FC2010E945B0FEB
:103F5000F301419251923F010F900F901430B1F54F
:103F6000F12C20E8D22EEE24EA9480912901F81653
:103F700008F07FC00F2D10E0000F111F0D511B4FD7
:103F8000D8018D919C91DC01ED91FC910190F08123
:103F9000E02D0995D801ED91FC91D782E086E1866C
:103FA000E286D386CF010E943C0FF394DECF25300A
:103FB000310529F48093C904809398049FCF84A18C
:103FC00095A18095909580FD96CF98CF14E0A5CFD0
:103FD0008091CA04811131C082E0809329018EE072
:103FE00090E00E9432333C011F921F92812CAA2440
:103FF000A394CC24C394EE24E39401E022E043E0B4
:1040000061E574E00E945B0F7092E4046092E30447
:104010008EE090E00E9432333C011F921F9222E01A
:1040200044E061E574E00E945B0F7092E6046092E8
:10403000E5040F900F900F900F90F12C80912901C3
:10404000F816B8F40F2D10E0000F111F0D511B4F83
:10405000F80180819181DC01ED91FC910190F0816A
:10406000E02D0995F801808191810E943C0FF39425
:10407000E5CF84E690E090932C0180932B0135CE20
:1040800065E070E080E090E00E94670382E080934A
:10409000290182E390E090932C0180932B018EE024
:1040A00090E00E9432333C011F921F92812CAA247F
:1040B000A394CC24C394EE24E39401E022E043E0F3
:1040C0006DE574E00E945B0F7092E4046092E3047B
:1040D0008EE090E00E9432333C011F921F9222E05A
:1040E00044E06DE574E00E945B0F7092E60460921C
:1040F000E5040F900F900F900F9010E08091290130
:10410000181708F0E2C0812F0E947B08E12FF0E031
:10411000EE0FFF1FED51FB4F808191810E943C0FFC
:104120001F5FECCF65E070E080E090E00E946703E5
:1041300082E08093290184E690E090932C018093A3
:104140002B018EE090E00E9432333C011F921F92BF
:10415000812CAA24A394CC24C394EE24E39401E0FC
:1041600022E043E067E674E00E945B0F7092E40493
:104170006092E3048EE090E00E9432333C011F9293
:104180001F9222E044E067E674E00E945B0F7092A9
:10419000E6046092E5040F900F900F900F9010E0EE
:1041A00000912901101780F019E7E12E15E0F12E9A
:1041B00010E0011709F489C0D7018D919D917D010F
:1041C0000E94DB081F5FF5CF812F0E947B08E12F43
:1041D000F0E0EE0FFF1FED51FB4F808191810E94B7
:1041E0003C0F1F5FDDCF109275051092760510927F
:1041F0007805109277050E94AB1980E290E00E944A
:1042000032338C016C01B4E0CB0ED11C89E495E013
:10421000F801958384831782168286E08087D38293
:10422000C28284E591E0918380831093A904009376
:10423000A8048BE090E00E943233FC01D382C2825A
:1042400014828CE591E0918380837F0125E0E20E6A
:10425000F11C58013EE1A30EB11CF683E583B08644
:10426000A78212861186D8015F96FC92EE925E9725
:10427000F093A504E093A4048AE090E00E94323316
:10428000FC01D382C28284E691E091838083CF01D6
:104290000496F583E483B782A68211861086E11422
:1042A000F104D9F4D8015F969C938E935E97F093B6
:1042B000A304E093A204D8011496ED91FC9114A6F6
:1042C00015A617A616A60E94AB1962E370E080E05F
:1042D00090E00E94670309CD7901D70114962D91D2
:1042E0003C91159721153105B9F715969C938E933E
:1042F0001497DDCF85EA95E00E94060E61E885EA15
:1043000095E00E943F0C61E085EA95E00E943F0C39
:10431000ECEEF1E0F093B105E093B0058491EDEEA1
:10432000F1E0E491F82F319709F049C01092AE0501
:1043300085EA95E00E94060E11E01093B3056EE148
:1043400085EA95E00E94530C82E08093B30585EEE8
:1043500091E00E94B60D1093B3050E94DD0EFE01A0
:1043600031961F010E944203E0902B01F0902C0136
:104370000091D4041091D5042091D6043091D70433
:10438000601B710B820B930B870130E020E06017FC
:1043900071078207930708F4A5C48091D204909115
:1043A000D3048330910509F48AC768F481309105FC
:1043B00009F4C9C0029709F4C7C4512C7FC481E035
:1043C0008093AE05B5CF8430910511F40C94CB2BBE
:1043D000059799F780911B01882331F010921B01FA
:1043E00090E080E00E949B1A5090AA040091A804DB
:1043F0001091A90451100C945C2FD8011296ED91E4
:10440000FC91E080F18020E045E560EFC7010E946B
:104410005918882311F40C94492F6AE070E080E069
:1044200090E00E94670320E040E06BEFC7010E942C
:104430005918882311F40C94492F64E170E080E04E
:1044400090E00E946703F801C280D380D601ED900E
:10445000FC90C7010E943C18D701ED91FC9101909E
:10446000F081E02D6AEFC7010995F701B7A40E941A
:10447000EB17D7019E961C929E979F961C92BB208D
:1044800011F40C94E72E90E080E0F6019383828390
:10449000C8010E94801AF82E882311F40C944F2F23
:1044A000D8011296ED91FC91359685E1DF011D92C0
:1044B0008A95E9F7D8011296ED91FC91139786E061
:1044C0008483ED91FC910190F081E02DC801099564
:1044D000882311F40C944F2FF801068D178D0115C8
:1044E000110511F40C94582FD801CD90DC90C60121
:1044F0000E94801A882311F40C94532FD601ED9159
:10450000FC910190F081E02DC6010995F82E8823D9
:1045100011F40C94532F81E08093AA0480E00E9450
:104520000D08E091A804F091A9040280F381E02D28
:10453000828193810E949B1A82E390E090932C01E8
:1045400080932B01BBC38CE0D1011D928A95E9F7C2
:1045500080912A01882381F010922A0180912901FB
:10456000833050F045E064E285EA95E00E94710CEA
:1045700085EF93E00E94B60D80919B058093A00586
:1045800080919C0590919D059093A2058093A10533
:1045900080919E0590919F059093A4058093A3051B
:1045A000A0919905109299052C9A8BE290E00197C1
:1045B000F1F72C9883E190E00197F1F790E080E02B
:1045C00030E020E043E150E06CB166FB662760F923
:1045D0006F966FAF6F97A0961FAEA097A0966EAD27
:1045E0007FADA097082E02C0660F771F0A94E2F7EE
:1045F000262B372B2D98FA013197F1F72D9AFA01D6
:104600003197F1F7019680319105F1F6832F82956C
:104610008F7090E18D3009F091E070E060E050E043
:1046200040E003E110E0ECB1E6FBEE27E0F9A196F3
:10463000EFAFA197A2961FAEA297A296EEADFFADE7
:10464000A297062E02C0EE0FFF1F0A94E2F74E2B30
:104650005F2B2D98F8013197F1F72D9AF8013197DA
:10466000F1F76F5F7F4F6917F0F220953095409515
:1046700050958F3021F44E3FBFEF5B07F1F19091E1
:10468000990561E0690F6093990561E070E091110F
:1046900002C070E060E0811113C0E32FFF27EF70CC
:1046A000FF273F9769F48AE0869FF001879FF00D0E
:1046B0001124EA56FA4F8FE085835187408713C053
:1046C000982F909592FF42C18AE0869FF001879FC4
:1046D000F00D1124EA56FA4F84E085839370892FF8
:1046E00090E0918780878AE0869FF001879FF00D98
:1046F0001124EA56FA4F37832683809199058A1749
:10470000B8F44AE09FEF21E030E0811102C030E0D0
:1047100020E0429FF001439FF00D1124EA56FA4F2A
:10472000958317821682118610868F5FA813EBCFB0
:1047300080918C058093910580918D0590918E05D7
:10474000909393058093920580918F0590919005A9
:10475000909395058093940550918A0510928A054F
:104760008E9A8BE290E00197F1F78E9883E190E0CA
:104770000197F1F770E060E090E080E0E3E1F0E0C5
:104780002FB1022E000C330B2227330F221F3327A9
:10479000062E02C0220F331F0A94E2F7822B932BBE
:1047A0008D98DF011197F1F78D9ADF011197F1F7DD
:1047B0006F5F7F4F6031710519F7492F42954F7038
:1047C00010E14D3009F011E070E060E030E020E0F1
:1047D000A3E1B0E0EFB10E2E000CFF0BEE27FF0FB0
:1047E000EE1FFF27062E02C0EE0FFF1F0A94E2F70E
:1047F0002E2B3F2B8D98FD013197F1F78D9AFD01FE
:104800003197F1F76F5F7F4F611720F3BC0160951F
:104810007095209530954F3021F42E3FEFEF3E07F5
:1048200081F180918A0591E0980F90938A05E1E0EB
:10483000F0E0811102C0F0E0E0E0411192C0872F6A
:1048400099278F7099270F9709F08BC08AE08E9F68
:10485000D0018F9FB00D1124A957BA4F8FE0159644
:104860008C93159719963C932E9318972AE02E9FB8
:10487000C0012F9F900D1124FC01E957FA4F778357
:104880006683F0918A056596FFAF6597F517C0F4CA
:104890008F2F4AE09FEF21E030E0811102C030E02D
:1048A00020E0429FF001439FF00D1124E957FA4F99
:1048B000958317821682118610868F5F5813EBCF6F
:1048C0009090990565962FAD6597290D63962FAF4A
:1048D000639743EE54E06A965FAF4EAF6A97D12C70
:1048E000512C8091290163965FAD63975D1509F4A2
:1048F00091C1D81609F48EC1BB24B394D91408F41D
:10490000B12C21E030E0D91408F045C0D11002C02C
:1049100030E020E06AE0629FA001639F500D112407
:10492000DA01A556BA4F3D01823009F049C09920FD
:1049300009F446C0C3010E94AB0BEB2DF0E0EE0F73
:10494000FF1FE20DF31D918380833AC09AE0969F8A
:10495000F001979FF00D1124EA56FA4F9FE0892746
:10496000ABCE942F90958AE08E9FD0018F9FB00D93
:104970001124A957BA4F92FF08C084E015968C9372
:1049800015979370292F30E06DCF8FE0482715964B
:104990004C93159767CF9D1002C030E020E0BAE03D
:1049A000B29FA001B39F500D1124FA01E457FA4FB2
:1049B0003F01823029F46596FFAD6597F111BACFBA
:1049C000D3018C9115969C911597891323C011964C
:1049D0004D915C91129716962D913C911797421725
:1049E000530759F413964D915C91149718962D9195
:1049F0003C914217530709F464C0811119C0F301B7
:104A0000838194810196A1F4D30118968D919C9194
:104A1000019671F08D2D0E94970B809129018230B3
:104A200039F4C3010E94AB0BBC018B2D0E94701C9A
:104A3000C3010E94AB0B2C01F30181819281FC0127
:104A4000E095F095A4E0F695E795AA95E1F71E2F7D
:104A50001F709C0121703327AC015695479570E07B
:104A600060E04170552766277727F2E04F16510422
:104A7000A1F5232B09F0426082FD516083FD526055
:104A80006A96EEADFFAD6A97A081B18113964C9303
:104A9000139714965C93149715966C931597E12FC2
:104AA000F0E0EC54FC4F808116968C931697CD0164
:104AB0000E943C0F80912901823009F44EC0552498
:104AC0005394D3946A964EAD5FAD6A974E5F5F4F35
:104AD0006A965FAF4EAF6A9704CF232B09F042600E
:104AE00090FD446091FD486092FD406193FD4062FD
:104AF00024E04216510421F5D30113962D913C91E7
:104B000034FD406435FD406820FD546021FD58604F
:104B100022FD506123FD506224FD506425FD506844
:104B200026FD616027FD626030FD646031FD6860D4
:104B300032FD606133FD606237FF9ECF60649CCFC1
:104B4000B5E04B16510409F097CFF301238120FD06
:104B5000406421FF91CF40688FCF28EB32E0689608
:104B60003FAF2EAF689761961FAE61978B2D90E097
:104B7000880F991FAC0140555C4F6E965FAF4EAFEA
:104B80006E9752E04516510409F03FC061966FAD33
:104B90006197683028F56430C0F56896EEADFFADDA
:104BA0006897E05AFF4FE080F18002811381D301C2
:104BB00011968D919C918E219F21CC24C394892B99
:104BC00009F4C12C1F928780A680248145816E96AE
:104BD000EEADFFAD6E9760818B2D0E94150E0F908C
:104BE0006196FFAD6197FF5F6196FFAF6197689631
:104BF0002EAD3FAD6897285F3F4F68963FAF2EAF11
:104C00006897FC3009F0BDCF5ACF6896EEADFFAD86
:104C10006897C9CF09811A81823079F480911D018A
:104C200090911E018017910741F00115110529F49B
:104C300070E060E080E00E94701C10931E01009301
:104C40001D010B811C8180912901823079F48091B2
:104C50001F01909120018017910741F00115110566
:104C600029F470E060E081E00E94701C1093200144
:104C700000931F018091D10463965FAD639758172D
:104C8000C0F4152F8091D104181798F48091290150
:104C9000181779F0812F0E94970BE12FF0E0EE0FAB
:104CA000FF1FED51FB4F808191810E943C0F1F5FE0
:104CB000E9CF63966FAD63976093D1040E9442037E
:104CC0006093D4047093D5048093D6049093D70452
:104CD000552041F08091160181110C94513281E0F0
:104CE0000E94280F809116018823B1F00E94990339
:104CF00000919D0410919E0420919F043091A00486
:104D0000601B710B820B930B603E734984409105CD
:104D100018F080E00E94280F4E990EC06CE271E0FE
:104D200080E090E00E9467038091160181110C944D
:104D30005D3281E00E94280F80E090E0892B09F429
:104D400011CB0E9400000ECB1092EF048091CF0493
:104D500081115FC08091D00481115BC08091CD042E
:104D600081110DC08091810590918205DC01ED914A
:104D7000FC910680F781E02D09958093CD04809306
:104D8000CF048091CE0481110DC080918305909154
:104D90008405DC01ED91FC910680F781E02D0995F9
:104DA0008093CE048093D00481E00E94280F07E016
:104DB00027E04FE760E085EA95E00E94D10D67E0CB
:104DC00085EA95E00E94470C60E085EA95E00E9444
:104DD000530C8091CF0481110BC08091D0048111BC
:104DE00003C08FEF93E002C08DED93E00E94B60DFB
:104DF00062E485EA95E00E94530C9091CF04809183
:104E0000D004992361F1811104C08DED93E00E94DB
:104E1000B60D41E8A42E45E0B42E5BECE52E54E03F
:104E2000F52E6FEC862E64E0962E10E000E07724DD
:104E30007394F501819191915F019093F1048093B6
:104E4000F004D7011D927D01F40121914F01211140
:104E50000BC00130110541F101E010E0EACF8111F2
:104E6000D2CF8FEF93E0D3CF980123533B4F69010B
:104E7000D9012C91211139C1DC01ED91FC91068001
:104E8000F781E02D0995882359F0F6017082E091B1
:104E9000F004F091F10466A177A1802F0E94141C08
:104EA0008091CA048823A9F2912C512C30E8432E1A
:104EB00080912901981608F001CF892D90E0FC011E
:104EC000E353FB4F2081222309F408C1FC01E55381
:104ED000FB4FF080FF2009F401C1D090EF04880F50
:104EE000991FFC01EF57FA4F0190F081E02DF093EC
:104EF000F104E093F004B090C904BB2009F401C1AF
:104F0000ED2DF0E06496FFAFEEAF6497E45FFE4FE7
:104F10008081882331F0108265E070E08D2D0E9441
:104F2000141CA091F004B091F1046624639492964D
:104F30002D913C91939794968D919C9195972817DC
:104F4000390709F4612C98967C909897D9968C91A2
:104F5000D997812C882319F0D5968C90D597809479
:104F6000A12C882319F0D396AC90D397A094C12C90
:104F7000882319F0D496CC90D497C0940091EF0474
:104F800010E0F801EE0FFF1FED51FB4FE080F180C4
:104F9000F70177828086A186C28680919804882353
:104FA00029F0E091E304F091E404738694962D9146
:104FB0003C912095309535FB882780F934FD82603F
:104FC00033FD846023FD8860D70113968C9313977B
:104FD00014961C92149715961C920E94251A9801FB
:104FE000265F3E4FF9014081C801885F9E4FB8019E
:104FF0006A5F7E4FF801EC5FFE4F74120CC0DC015B
:105000004C91841208C0DB014C91A41204C0408171
:10501000C41201C0B62CD9017C92DC018C92DB0158
:10502000AC92C082BB2009F458C0C7010E943C0F5B
:10503000B1E0BD1508F451C0E8E66E2EE1E07E2E29
:10504000EBEF6196EFAF619764968EAD9FAD64977D
:10505000880F991F9C0120553C4F64963FAF2EAF9F
:105060006497D3015896ED90FD900D911C915B973C
:105070005C962C915C975D964C915D975E96AC909A
:105080005E975F968C906196BFAD6197B230C8F025
:10509000E091F004F091F10484A195A180959095A0
:1050A0008E219F21CC24C394892B09F4C12C1F92FB
:1050B0006496EEADFFAD649760818D2D0E94150E54
:1050C0000F90F8E06F0E711C61962FAD61972F5F06
:1050D00061962FAF6197283021F65B288091EF040D
:1050E0008F5F8093EF049394E3CE0E94180AF70138
:1050F000319780838111D4CED6011C9270E060E09C
:10510000CCCE8091CA048111E9CFEE24E39422A190
:1051100033A184A195A12817390709F4E12C06A130
:1051200017A1AD2CB12CAA0CBB1CF501E756FB4F07
:10513000808191810817190721F0B8018D2D0E94F7
:10514000141CF101EA0DFB1D11830083C8010197B6
:10515000059708F0B2C00E94251A4091F0045091C2
:10516000F10462965FAF4EAF6297DA0194968D912B
:105170009C9180959095292F221F2227221F30E095
:1051800096FD226095FD246094FD286092FD2061CB
:1051900093FD206290FD206491FD206880FD3160C8
:1051A00083FD326081FD346082FD38606296EEAD31
:1051B000FFAD629780A4C1A48091EF0490E0FC0150
:1051C000EE0FFF1FED51FB4F0190F081E02D629635
:1051D000AEADBFAD62979C964C91442309F461C07B
:1051E0000530110509F45DC08782C086BC016C5E84
:1051F0007E4FDB017C90AC014E5E5E4F781058C054
:10520000DA017C907C1054C0DB018C92DA01CC92E4
:105210006296AEADBFAD62979A965C919A979B9657
:105220004C919B979C966C91662321F0053011055B
:1052300009F040C04186428640E850E8BC01605F0A
:105240007E4F3B01DB016C91825F9E4F651305C071
:10525000DC016C91641301C0FE2CD3015C93DC0172
:105260004C93238334831582FF2079F0CF010E9471
:105270003C0FB1E0BD1548F04091F0045091F104AD
:1052800020E0B8018D2D0E94971BD501A756BB4F7A
:10529000F101EA0DFB1D808191818D939C935F2824
:1052A0001DCF4782408640E8C42E50E8852E9ECF11
:1052B000EF2CAACF51874287C1CFFE2CE6CF809139
:1052C000C704811167C08091C804811163C0670160
:1052D000CC0CDD1CCC0CDD1CE5E0CE1AD1080DE7B2
:1052E00015E097ECA92E94E0B92E21E8822E25E056
:1052F000922ED8018D919D918D010E949A08F50101
:1053000081935F018091C704811104C08091C8041A
:10531000882339F0F2E0EF16F10418F0C601019786
:10532000F1F78016910629F781E00E94280F07E027
:1053300027E04FE760E085EA95E00E94D10D67E045
:1053400085EA95E00E94470C60E085EA95E00E94BE
:10535000530C8091C70481110BC08091C804811146
:1053600003C08FEF93E002C08DED93E00E94B60D75
:1053700062E485EA95E00E94530C9091C704809105
:10538000C804992309F479C0811104C08DED93E01C
:105390000E94B60D2F961FAE2F9760961FAE609796
:1053A000712CB0E5AB2EB3ECBB2E17E0612E02E3FF
:1053B000802E912C80912901781608F071C0072D5C
:1053C00010E0F801EE0FFF1FE358FA4FC080D180C4
:1053D000D092C604C092C504F801E953FB4F808106
:1053E000882309F448C0C6010E949A0898012D53E9
:1053F0003B4F7901882309F445C087E0F601DE01BF
:10540000A95BBF4F01900D928A95E1F787E0FE01FD
:10541000E95BFF4FDE01A05CBF4F01900D928A95C2
:10542000E1F7609EC001619E900D1124820D931DD5
:10543000FE01E05CFF4FDC01262D01900D922A95C4
:10544000E1F7DC018D919C9111E0009709F410E0E7
:10545000F7012081211109C0892B39F0872D0E9485
:105460007B0861E0872D0E947B0ED7011C939092F0
:105470002C0180922B0173949DCF811185CF8FEFEA
:1054800093E086CF872D0E947B0860E0872D0E94E5
:105490007B0EF7011082B0922C01A0922B01EBCF72
:1054A000912CE7E0DE2E80912901981608F06AC160
:1054B000692C712CF301ED53FB4F8081882309F493
:1054C0005FC1D69CF001D79CF00D1124E20DF31DB5
:1054D0002381822F82958F7090E0982F8827929554
:1054E000907F2F7030E0322F2227820F931F24816C
:1054F000422F42954F7030E1439FA0011124840F49
:10550000951F2F70AC01420F511D62965FAF4EAFD9
:105510006297B580568163965FAF6397B3016F530F
:105520007B4F68967FAF6EAF6897DB018C91B812A6
:1055300008C0F301E154FB4F8081851711F40C94EE
:10554000A332EEE4F0E0EC0FFD1FE60DF71DB1E035
:10555000B083D69CF001D79CF00D1124E20DF31D11
:10556000838122E030E087FD02C030E020E0D69C5D
:10557000F001D79CF00D1124E20DF31D838186FD0F
:105580002160D69CF001D79CF00D1124E20DF31D93
:10559000838185FD3160D69CF001D79CF00D1124EC
:1055A000E20DF31D838184FD3260D69CF001D79C0F
:1055B000F00D1124E20DF31D848185FD2061D69C40
:1055C000F001D79CF00D1124E20DF31D848184FDC0
:1055D0002062D69CF001D79CF00D1124E20DF31D42
:1055E000848183FD2064D69CF001D79CF00D1124AA
:1055F000E20DF31D848182FD2460D69CF001D79CCE
:10560000F00D1124E20DF31D848181FD2860D69CEC
:10561000F001D79CF00D1124E20DF31D848180FD73
:105620002068F301EE0FFF1F6696FFAFEEAF66979F
:10563000ED51FB4FA081B18113962C9313971496D3
:105640003C93149715961C921597D69CF001D79C05
:10565000F00D1124E20DF31D838183FBEE27E0F9A9
:1056600021E02E2782FF2260D69CC001D79C900D9E
:105670001124820D931DFC01838181FF2460D69C3F
:10568000C001D79C900D1124820D931DFC018381D4
:1056900080FF2860E22FF0E0EC54FC4F80811696EA
:1056A0008C93169780E88B0D17968C9317976396BB
:1056B0008FAD63978058809518968C931897CD017D
:1056C0000E943C0F48E4442E42E0542E62964EADB8
:1056D0005FAD62979A0150E040E06C962CAF3DAF11
:1056E0004EAF5FAF6C976696EEADFFAD6697E05537
:1056F000FC4F50816D965FAF6D97D201ED90FD909C
:105700000D911C916C968CAD9DADAEADBFAD6C97FF
:105710008E219F21A023B123CC24C394892B8A2BD3
:105720008B2B09F4C12C1F92F2018780A680248163
:1057300045816D966FAD6D97892D0E94150EF8E02D
:105740004F0E511C0F9028EB32E024153505A9F6B9
:105750006696EEADFFAD6697E554FB4F62964EAD93
:105760005FAD6297518340836896AEADBFAD6897D9
:10577000BC92F301E154FB4F6396BFAD6397B083D6
:10578000939491CE2F965FAC2F97511097CA609645
:105790005FAC609793CA80911C01882331F010920E
:1057A0001C0160E080E00E94351B8091B9048111EA
:1057B00066C08091BA04811162C08091B7048111E2
:1057C00008C08091790590917A050E94170980930D
:1057D000B7048093B9048091B804811108C0809106
:1057E0007B0590917C050E9417098093B8048093F3
:1057F000BA0481E00E94280F07E027E04FE760E04D
:1058000085EA95E00E94D10D67E085EA95E00E9467
:10581000470C60E085EA95E00E94530C8091B90442
:1058200081110BC08091BA04811103C08FEF93E006
:1058300002C08DED93E00E94B60D62E485EA95E02A
:105840000E94530C9091B9048091BA04992309F4F1
:1058500078C0811104C08DED93E00E94B60D809157
:10586000B904882321F061E080E00E94351B80911B
:10587000BA04882321F061E081E00E94351B28965C
:105880001FAE289729961FAE2997512C90E5692EB7
:1058900093EC792E25E1422E34E6832E912C8091D3
:1058A0002901581608F067C0E52CF12CF701E754E0
:1058B000FB4F8081882309F442C08701000F111F2C
:1058C000F801E758FA4FA080B180C5010E9417097E
:1058D000F701E954FB4F6F018823C1F185E1F50120
:1058E000DE019B9601900D928A95E1F74E9CC001D6
:1058F0004F9C900D1124820D931DFE01BB96DC017F
:10590000242D01900D922A95E1F7DC018D919C9157
:1059100011E0009709F410E0F6012081211109C07F
:10592000892B39F0852D0E947B0861E0852D0E942E
:10593000351BD6011C9390922C0180922B0153941D
:10594000AECF811186CF8FEF93E087CF852D0E9458
:105950007B08F801ED51FB4F808191810E943C0F43
:1059600060E0852D0E94351BF601108270922C019B
:1059700060922B01E4CF912CB5E1DB2E11EEB12E1C
:1059800080912901981608F017C2492C512CF20178
:10599000E954FB4F8081882309F4EEC1D49CF001C7
:1059A000D59CF00D1124E20DF31D958586859C0193
:1059B00062963FAF2EAF62974785B2016F547B4F1F
:1059C0006E967FAF6EAF6E97DB018C91082E000C48
:1059D000990B9201220F331F4817190611F55089B0
:1059E000D201A155BB4F8C91082E000C990B581772
:1059F0001906B9F45189D201A355BB4F8C91082ED9
:105A0000000C990B5817190661F45289F201E555FB
:105A1000FB4F8081082E000C990B5817190609F4CA
:105A20009CC5E7E4F0E0EC0FFD1FE40DF51DB1E0CF
:105A3000B083D49CF001D59CF00D1124E20DF31D30
:105A4000858580FF9BC184E090E0D49CF001D59CCB
:105A5000F00D1124E20DF31D558551FD8260D49C9B
:105A6000F001D59CF00D1124E20DF31D558552FD7A
:105A70008860D49CF001D59CF00D1124E20DF31D3B
:105A8000558553FD8160D49CF001D59CF00D112407
:105A9000E20DF31D568554FD9160D49CF001D59C18
:105AA000F00D1124E20DF31D558554FD9260D49C38
:105AB000F001D59CF00D1124E20DF31D568556FD25
:105AC0008061D49CF001D59CF00D1124E20DF31DF2
:105AD000568555FD80622D513B4FF90100811181A2
