:100000000C946A020C9492020C9492020C94920248
:100010000C9492020C9492020C9492020C94920210
:100020000C9492020C9492020C9479130C94E813A1
:100030000C9492020C9492020C9492020C949202F0
:100040000C9492020C9492020C9492020C949202E0
:100050000C9492020C9492020C9492020C942F1322
:100060000C9492020C9492020C9492020C949202C0
:100070000C9492020C9492020C9492020C949202B0
:100080000C9492020C9492020C9492020C949202A0
:100090000C9492020C9492020C9492020C94920290
:1000A0000C9492020C9492020C949202AED580A809
:1000B0003FD300408D142002A1C8DA12817FD9F10C
:1000C000DB40A4A6AF56424F59004E545400534E45
:1000D0004553004E4553004A4F47434F4E00464C50
:1000E00049474854535449434B004455414C5348A5
:1000F0004F434B004449474954414C004E45474308
:100100004F4E00504144002B4A4F47005053580077
:10011000574949004E3634204F524947494E414CC9
:100120002052414E4745004E4553202B20534E450B
:10013000530052414E4745200053502053544550E0
:100140002000464F524345200046414B4520535026
:10015000494E4E455200574845454C005041444495
:100160004C45005350494E4E455200504C55472B7C
:100170005245534554005245424F4F54494E472E25
:100180002E2E004D554C54492D5441500000030C67
:100190000F30333C3FC0C3CCCFF0F3FCFF00000076
:1001A0000200090F0000030401000C000000000021
:1001B000000000000000000000000000080B00022A
:1001C00002020000090400000102020000052400F0
:1001D0001001052401010104240206052406000182
:1001E0000705810310004009040100020A00000015
:1001F00007050202400000070583024000000403D7
:10020000090412010002EF020140D0167E12000123
:1002100001020301556E6B6E6F776E005265666C5E
:100220006578204164617074005245464C45580021
:10023000000005072061000000000000005F0000D2
:100240006070787060605048506003070F070303C8
:1002500005090503081C3E7F7F081C22417F7F7F24
:100260003E1C087F41221C08082A1C2A0808083E58
:100270000808005030000008080808080060600006
:100280000020100804023E5149453E00427F4000D4
:1002900042615149462141454B311814127F1027C4
:1002A000454545393C4A49493001710905033649FC
:1002B000494936064949291E00363600003C7E7EF3
:1002C0007E3C3C4242423C1414141414F0F0F0F012
:1002D000F0F0909090F0324979413E7E1111117EFC
:1002E0007F494949363E414141227F4141221C7F9D
:1002F000494949417F090901013E414151327F0885
:1003000008087F00417F41002040413F017F0814E1
:1003100022417F404040407F0204027F7F0408105A
:100320007F3E4141413E7F090909063E4151215E20
:100330007F09192946464949493101017F01013F99
:100340004040403F1F2040201F7F2018207F631423
:100350000814630304780403615149454300007F96
:100360004141020408102041417F0000383C1E0F2B
:100370000740404040403824120907205454547824
:100380007F484444383844444420384444487F3803
:1003900054545418087E090102081454543C7F0830
:1003A00004047800447D40002040443D00007F105C
:1003B000284400417F40007C041804787C08040431
:1003C0007838444444387C14141408081414187CF5
:1003D0007C080404084854545420043F4440203C02
:1003E0004040207C1C2040201C3C4030403C4428A5
:1003F0001028440C5050503C4464544C44E0E0E01D
:10040000E0E000007F0000E0A0A0A0E008082A1CB7
:1004100008081C2A08080006090906AC00198040D3
:10042000004E4F4E45004E4F5420535550504F52A2
:100430005445440044524157534F4D450055445292
:100440004157005455524E5441424C450044525578
:100450004D0047554954415200434C415353494381
:10046000004E554E4348554B000000000023002627
:100470000029002C002F0000000000250028002B80
:10048000002E00310000000000240027002A002D6B
:100490000030000404040404030405020202020400
:1004A000030202020206060606060604040202020F
:1004B0000404040802011040804010204080408065
:1004C00008020401804020100201108010204040EA
:1004D00020009B2C11241FBECFEFDAE0DEBFCDBF82
:1004E00025E0A4E2B4E001C01D92AA37B207E1F70B
:1004F00014E0A0E0B1E0E8E4F7E602C005900D9258
:10050000A432B107D9F712E0CAE6D2E004C02197BD
:10051000FE010E944E32C936D107C9F70E942C2D28
:100520000C94A2330C94000090E0FC01EE54FB4FBD
:1005300024918D569B4FFC018491882399F090E083
:10054000880F991FFC01EB57FB4FA591B491FC015B
:10055000E958FB4F859194918FB7F894EC91E22B79
:10056000EC938FBF0895CF93DF93FA013081322B44
:100570003083DB013C91322B3C9340816081422BE4
:1005800050E030E02095309570E02623372361E07D
:10059000EC01A99178E02083AA0F40F4B4E0BA9569
:1005A000F1F74083BAE0BA95F1F705C0BEE0BA951D
:1005B000F1F7000040837A9529F0B3E0BA95F1F79E
:1005C0000000E9CF6A9529F0B1E0BA95F1F7000093
:1005D000E0CFB2E0BA95F1F7000000002083B4E06C
:1005E000BA95F1F7000000004083DF91CF910895A4
:1005F000FC018091B604882311F13FB7F89482E0A2
:100600008093E9002091F200822F90E018161906DD
:1006100014F481E090E0882339F0289844E6409370
:10062000B5044091F1004083222339F02091F2007B
:10063000211103C02BE62093E8003FBF08958FEF00
:100640009FEF0895CF93DF931F92CDB7DEB76983F5
:10065000DC01ED91FC910280F381E02D41E050E05E
:10066000BE016F5F7F4F09950F90DF91CF91089585
:1006700083E08093E9008091F200882319F08AE3F7
:100680008093E8000895CF93DF931F92CDB7DEB734
:10069000FC018485958597FD08C02FEF3FEF3587D6
:1006A00024870F90DF91CF910895CE0101960E948B
:1006B000F802019719F4898190E0F3CF8FEF9FEF53
:1006C000F0CF0F931F93CF93DF931F92CDB7DEB779
:1006D0008C01FC018485958597FF0BC0CE010196A6
:1006E0000E94F802019771F4898190E0F8019587E2
:1006F0008487F801848595850F90DF91CF911F91B4
:100700000F9108958FEF9FEFF1CFFC0184859585C0
:1007100097FD0BC09FB7F89482E08093E900809129
:10072000F2009FBF90E0019608959FB7F89482E091
:100730008093E9008091F2009FBF90E008953FB759
:10074000F8948091B1049091B204A091B304B09157
:10075000B40426B5A89B05C02F3F19F00196A11D32
:10076000B11D3FBFBA2FA92F982F8827BC01CD01FB
:10077000620F711D811D911D42E0660F771F881F5A
:10078000991F4A95D1F708958F929F92AF92BF9289
:10079000CF92DF92EF92FF924B015C010E949F0388
:1007A0006B017C010E949F036C197D098E099F09D2
:1007B000683E734081059105A8F321E0821A9108F3
:1007C000A108B10888EEC80E83E0D81EE11CF11C18
:1007D00081149104A104B10429F7FF90EF90DF90F8
:1007E000CF90BF90AF909F908F9008952FB7F894BF
:1007F0006091AD047091AE048091AF049091B0040B
:100800002FBF0895FC018FE085831682178208951B
:10081000409180045091810420917E0430917F04A6
:1008200042175307B4F49091E8009570E1F390916A
:10083000E80092FD19C08093F100809180049091AE
:10084000810401968F739927892B19F48EEF809379
:10085000E800809180049091810401969093810436
:100860008093800481E0089580E00895DF92EF9204
:10087000FF920F931F93CF93DF93D82E8A01EB0142
:100880007B01E40EF51ECE15DF0559F0D7FE12C030
:10089000FE0184910E94080421968111F4CF0FEF8C
:1008A0001FEFC801DF91CF911F910F91FF90EF9043
:1008B000DF9008958881EECF2FB7F89487708093EA
:1008C000E9009091E800892F807295FF04C0909113
:1008D000F20080E4891B2FBF089583E00E945C042E
:1008E00090E008957F928F929F92AF92BF92CF92A5
:1008F000DF92EF92FF920F931F93CF93DF93C82E57
:100900008B017A018091B604811110C08FEF9FEFA7
:10091000DF91CF911F910F91FF90EF90DF90CF90DB
:10092000BF90AF909F908F907F90089580918404A6
:1009300080FF05C08091E00082608093E000CE2DB2
:10094000DF2DD12C8AEFB82E8C2D8770982E8C2D10
:100950008072882E8C2D8074782E9AE3A92E209791
:1009600019F4DD2009F452C08C2D0E945C04811121
:100970000AC0BA94BB2051F261E070E080E090E0E0
:100980000E94C403ECCF8C171D0611F00CF08C2FC5
:100990009FB7F8949092E9002091E80025FD02C0ED
:1009A0009FBFDDCF282F30E0C21BD30B882029F05A
:1009B0008150A0F01092F100FBCFF801C7FC0AC0F3
:1009C000815050F041914093F100FACF449140930F
:1009D000F10031968150D0F7020F131FDD2021F076
:1009E000A092E800D12CDCCF8091E80085FD07C003
:1009F000A092E800DD24D394209791F2F3CF2097C2
:100A000079F6772069F2A092E800CACF5D9884E673
:100A100080938304C7017CCFCF93DF93EC01809157
:100A20003001882331F083E00E9472041816190601
:100A300034F081E090E09B838A8380E090E0DF9156
:100A4000CF910895615030F02091F100FC01208396
:100A50000196F8CF289884E68093B50408954F92C4
:100A60005F926F927F92AF92BF92CF92DF92EF929E
:100A7000FF920F931F93CF93DF93EC016B017B01E8
:100A8000E40EF51E8B015801AC18BD080E151F05AC
:100A900011F10E94F603688779878A879B87E8812E
:100AA000F9810284F385E02DCE01099597FF23C0DB
:100AB0000E94F603488459846A847B84641975090A
:100AC000860997094C805D806E807F80641575056E
:100AD0008605970520F3C501DF91CF911F910F91F6
:100AE000FF90EF90DF90CF90BF90AF907F906F908E
:100AF0005F904F900895F80181938F01C4CFAF921A
:100B0000BF92CF92DF92EF92FF920F931F93CF93FA
:100B1000DF936C017B018B01040F151FEB015E015C
:100B2000AE18BF08C017D10759F06991D601ED91F1
:100B3000FC910190F081E02DC6010995892B79F790
:100B4000C501DF91CF911F910F91FF90EF90DF9042
:100B5000CF90BF90AF9008958091760481110DC021
:100B600082E08093720484E0809373041092750491
:100B70001092740481E08093760482E794E00895F3
:100B80000F931F93CF93DF931F92CDB7DEB782E011
:100B9000898342E450E06CEB71E080E80E94360407
:100BA0000E94AC05DC0112960D911C9101151105F6
:100BB00089F0D801ED91FC910280F381E02DBE0116
:100BC0006F5F7F4FC801099597FD04C0F80100854C
:100BD0001185ECCF89810F90DF91CF911F910F91FB
:100BE0000895CF93CFB7F8948091710481115AC0C2
:100BF00044EA54E0FA01949123EC34E0F901849141
:100C0000E92FF0E0EE0FFF1FEB57FB4FA591B491DA
:100C10009C91982309F037C0EEEAF1E09491F90134
:100C20002491FA018491882309F42DC09923E9F0D5
:100C300091509F30D0F4E92FF0E0EF5DF94F0C9424
:100C40004E326206660630065A065E0635063506E0
:100C5000350669066F06730677067D06350681063A
:100C6000909180009F7790938000E82FF0E0EE0F46
:100C7000FF1FE958FB4FA591B4918FB7F8949C9151
:100C8000292B2C938FBF81E10E9494028CB5806147
:100C90008CBD8CB580648CBD8FE00E94940280E195
:100CA0000E949402809171048F5F80937104CFBF82
:100CB000CF910895909180009F7DD5CF9091800035
:100CC000977FD1CF94B59F7794BDCFCF94B59F7DBB
:100CD000FBCF909190009F7790939000C6CF90911A
:100CE00090009F7DF9CF90919000977FF5CF9091E4
:100CF000C0009F779093C000B8CF9091C0009F7DB7
:100D0000F9CF9091C200977F9093C200AECFCF935E
:100D1000DF93EC018A85882329F081508A87DF914F
:100D2000CF9108959C818E819817C8F78D8568278B
:100D3000E881F9810084F185E02D42E0CE0109953A
:100D40008C818F5F8C83EBCF81E090E0089581E010
:100D5000089583E090E0089584E090E00895EF9294
:100D60000F931F93F901DA012C913E2D3095322318
:100D70003C9330813E293083FC01D80198E080E02B
:100D800030E020E04C914E2189F02A95D9F720E0FF
:100D90004C914E2159F02A95D9F720E84C914E21DB
:100DA00029F02A95D9F73A9561F717C047E04A9597
:100DB000F1F7000031E0550F4C914E2109F05160E0
:100DC0009A9529F45193839598E0681731F020E8BB
:100DD0004C914E2111F72A95D9F71F910F91EF9061
:100DE00008959F92AF92BF92CF92DF92EF92FF92BF
:100DF0000F931F93CF93DF93DB016A01F22E282F0D
:100E000030E0F901EE54FB4FE4902D563B4FF901D1
:100E1000249130E0220F331FF901EB57FB4FC591AE
:100E2000D491F901E958FB4FA590B490F901E75925
:100E3000FB4F059114919FB6F8942E2DA501BE018C
:100E4000CD010E94B3029501AE016F2DC6010E9433
:100E5000AF069FBEDF91CF911F910F91FF90EF9052
:100E6000DF90CF90BF90AF909F900895FC018FE0EE
:100E700086838FE78783808711861286138608957D
:100E8000DC01FB0112962C91129784819581281721
:100E9000190641F491818081813A31F49D7F81E08E
:100EA000913009F080E008958132E1F79B3029F418
:100EB00082811F968C9381E008959A3099F7828100
:100EC00050968C93F8CFEF92FF920F931F93CF938E
:100ED000DF93FB012081213889F52381223271F5CE
:100EE000DC0112964C91248135814217130631F5AD
:100EF0008C01FC01C385D485F12CE12C209791F065
:100F00004C815D816A817B818E81811180E80E94A4
:100F100036048F3F980759F0E80EF91E0990D881E2
:100F2000C02DECCF81E0D8011F968C93C701DF91D3
:100F3000CF911F910F91FF90EF90089590E080E086
:100F4000F6CFCF93DF93CDB7DEB769970FB6F8949E
:100F5000DEBF0FBECDBFFC01DB018C918F5F8C9398
:100F60009E012D5F3F4F8DE0D9011D928A95E9F7D3
:100F700029E0298384E08A8391E09D8383E08E8346
:100F80002A8721E22B879C879D879F8722E2288BD7
:100F900027E02B8B25E02C8B8E8B20E430E0388FE4
:100FA0002F8B998F82818B8395858685998B8A8BF0
:100FB000838180688D8B49E150E0BE016F5F7F4F78
:100FC00080E00E94360469960FB6F894DEBF0FBE2B
:100FD000CDBFDF91CF9108958FB7F89480916E04C3
:100FE0008FBF089584E98093BC0085E69091BC0092
:100FF00094FF03C08150D1F7089581E008956EBD3C
:1010000000000DB407FEFDCF8EB508952A9A299AE7
:101010008C9A83EC90E00197F1F708952A9A299A27
:10102000469A83EC90E00197F1F708958091AA0425
:101030009091AB040196853091052CF49093AB040C
:101040008093AA04089581E090E0F8CF9091280160
:101050008917C0F4E82FF0E0EE0FFF1FE256FB4FB8
:1010600080819181DC01ED91FC910190F081E02D76
:101070000995E0919E04F0919F048FE78783808714
:101080008187828708950895DC019C96EC919C9756
:101090009D962C91E21730F4E80FF92FF11D84850D
:1010A00090E008958FEF9FEF0895FC0194A585A52A
:1010B0002FEF3FEF981740F4DF01A90FB11D1C96E9
:1010C0002C9130E09F5F94A7C9010895FC0185A58C
:1010D00094A5891B990B0895CF92DF92EF92FF920E
:1010E0000F931F93CF93DF936C01EB017B01E40E11
:1010F000F51E10E000E0CE15DF0561F06991D60124
:10110000ED91FC910190F081E02DC6010995080F49
:10111000191FF1CFC801DF91CF911F910F91FF905F
:10112000EF90DF90CF900895CF93DF9390912801B7
:101130008917B0F4C82FD0E0CC0FDD1FC256DB4FAB
:1011400088819981DC01ED91FC910190F081E02D85
:101150000995E881F9818FE7878380878187828776
:10116000DF91CF9108950F931F93CF93DF931F9239
:10117000CDB7DEB78C01FC0180819181892BD1F440
:101180008781198223E0A801BE016F5F7F4F0E9413
:10119000F106833059F0F80110821182128280E04A
:1011A0000F90DF91CF911F910F9108958BE891E0FF
:1011B0000197F1F7F801878191E0998324E0A80174
:1011C0004D5F5F4FBE016F5F7F4F0E94F10684301D
:1011D00011F781E0E5CF8CBD9DBD08958C9880917D
:1011E0004405909145050E94EB0883EC90E001973F
:1011F000F1F70895469880914405909145050E9425
:10120000EB0883EC90E00197F1F708958F929F929D
:10121000AF92BF92CF92DF92EF92FF920F931F9304
:10122000CF93DF937C016B015A01022F10E0D0E0D5
:10123000C0E083EC882E912CC017D107E1F0D701D4
:10124000ED91FC910480F581E02D6AE5C114D10493
:1012500021F0D601AC0FBD1F6C91C7010995A114F7
:10126000B10421F0F501EC0FFD1F8083C40101974B
:10127000F1F72196E1CFDF91CF911F910F91FF9070
:10128000EF90DF90CF90BF90AF909F908F90089598
:10129000CF92DF92EF92FF920F931F93CF93DF9342
:1012A0007C016B01D42F8C010E5F1F4F23E0A8013E
:1012B0000E940609F70123812F3F61F410E000E04E
:1012C000C801DF91CF911F910F91FF90EF90DF90B8
:1012D000CF90089584818A3511F08111EFCF2F705E
:1012E000C22FCC0FD33059F0B6016D5F7F4F2DEF79
:1012F0002D0FA7014B5F5F4FC7010E9406092C2FDE
:101300002D1B2D5FE9F24D2F50E0CA01820F911D78
:101310008197A4F6400F511F70E060E0C7010E9462
:101320000609CECFCF92DF92EF92FF920F931F93D9
:10133000CF93DF93EC010E94F6036B017C01E881FF
:10134000F9810190F081E02DCE01099544E060E43F
:1013500071E0CE010E9448098C01E881F981028088
:10136000F381E02DCE0109950115110529F0F80151
:101370008181807F803F11F56AE070E080E090E03D
:101380000E94C4030E94F6036C197D098E099F090F
:101390006B3F71058105910590F2C0E062E370E05A
:1013A00080E090E00E94C4038C2FDF91CF911F91C9
:1013B0000F91FF90EF90DF90CF900895C1E0EECFB6
:1013C000EF92FF920F931F93CF93DF9300D000D043
:1013D0001F92CDB7DEB78C01DC019C961C929C97C6
:1013E000D9961C92D997ED91FC910190F081E02D56
:1013F0000995F80182AD811108C083AD803409F0F0
:1014000045C084AD813009F041C085E0E9E4F1E0F8
:10141000DE01119601900D928A95E1F7D80196961A
:101420008D919C919797069759F5DD968C918C83B9
:1014300045E0BE016F5F7F4FC8010E9448097C01F3
:10144000D801ED91FC910280F381E02DC80109954E
:10145000E114F10441F0F7018181807F803FD1F4F4
:10146000C8010E94920980E00F900F900F900F909A
:101470000F90DF91CF911F910F91FF90EF90089502
:10148000F80183AD8C8384AD8D83D2CF43E069E4D2
:1014900071E0D2CFD80194968D919C9195979396B7
:1014A0009C938E9392972381348195963C932E93AF
:1014B000949781818937B9F483E090E097969C9363
:1014C0008E939697D80196968D919C91979784309C
:1014D000910591F150F58230910571F1039709F46E
:1014E00041C081E0C1CF982F907F903721F482E0F6
:1014F00090E0D801E3CF903531F484E090E0F8013A
:1015000097A386A3DFCF833219F485E090E0F1CF73
:10151000903E19F486E090E0F2CF833619F487E02C
:1015200090E0E7CF81E090E0EACF8630910509F4C2
:101530005CC030F10797A9F681E0D8019C968C93A6
:101540009C97F70185819A968C939A9786819B96B2
:101550008C939B97878198968C9398978085999682
:101560008C93BFCF81E0F80181AFF70139969D964A
:10157000C701459621912D93E817F907D9F7DCCFDC
:1015800081E09C968C939C97F701958198969C930B
:101590009897D9968C93D9978681D3968C93D39725
:1015A0009781D4969C93D4974085D5964C93D597A4
:1015B00097FF05C03F7795963C932E93949787FFAE
:1015C0000AC0D80194968D919C9195979F7B959692
:1015D0009C938E939497403F08F483CFF80184A1A5
:1015E00095A19B7F95A384A37CCF81E09C968C934F
:1015F000F7019681858197FD1AC087FD8FE7D80195
:1016000098968C93D80198968C9198978058989634
:101610008C939897F70185819D968C939D978681F1
:101620009E968C939E9787819F968C935ACF8138F4
:1016300008F481E8F80180A7E5CFCF92DF92EF921E
:10164000FF920F931F93CF93DF93EC010E94F60359
:101650006B017C01E881F9810190F081E02DCE01E0
:10166000099544E067E371E0CE010E9448098C01CE
:10167000E881F9810280F381E02DCE010995011501
:10168000110529F0F8018181807F803F11F16AE026
:1016900070E080E090E00E94C4030E94F6036C19A1
:1016A0007D098E099F096B3F71058105910590F2B7
:1016B000C0E062E370E080E090E00E94C4038C2F01
:1016C000DF91CF911F910F91FF90EF90DF90CF901E
:1016D0000895C1E0EECF90912801891778F4E82FA2
:1016E000F0E0EE0FFF1FE256FB4F80819181DC019D
:1016F000ED91FC910190F081E02D09940895FC0199
:101700009081911107C0838194810196B1F090E09E
:1017100080E008959F3051F4228130E02F7033270C
:101720002F30310581F482E090E00895923041F04D
:10173000943049F485E090E0089583E090E00895C6
:1017400084E090E0089581E090E00895FC016093CA
:10175000BC002FEF3FEF8091BC0087FF06C0909147
:10176000B900987F908381E008952150310999F75D
:1017700080E00895CF93DF93EC016093BB0064E8B1
:101780000E94A60B882329F081E09881983209F005
:1017900080E0DF91CF910895DF92EF92FF920F9357
:1017A0001F93CF93DF93EC01D62EF42E89898823E3
:1017B00029F0411103C00E94F207198A8E01015FCE
:1017C0001F4F8989811119C0E88864EAC8010E9405
:1017D000A60B882361F08F85883011F0803139F4B1
:1017E000EE0CE092BB0064E8C8010E94A60B60E02A
:1017F000F11060E4C8010E94BA0B6D2DC8010E946F
:10180000BA0B82E0F8120BC089898F5F898BDF9158
:10181000CF911F910F91FF90EF90DF9008950E945C
:10182000F207198AF4CFDC01ED91FC910084F18577
:10183000E02D40E00994FC01278126952695269508
:10184000621720F46583606B0C94130C08950F935A
:101850001F93CF93FC012681621798F4C62F8C0149
:1018600064836085C60F6C2F6F700E94130C6C2F01
:1018700062956F706061C801CF911F910F910C94B8
:10188000130CCF911F910F9108951F93CF93DF9366
:10189000EC01142F0E94270C612FCE01DF91CF9114
:1018A0001F910C941B0C2F923F924F925F926F925C
:1018B0007F928F929F92AF92BF92CF92DF92EF92E0
:1018C000FF920F931F93CF93DF9300D000D000D0EF
:1018D000CDB7DEB7FC01238534852115310509F428
:1018E00016C19E838D83F90132966490319644919E
:1018F000E42EF12CF7E0EF0EF11C53E0F594E794A1
:101900005A95E1F7E982F901349654913196E491C0
:101910006D30F1F460E00E94270C81E090E02696A3
:101920000FB6F894DEBF0FBECDBFDF91CF911F91F0
:101930000F91FF90EF90DF90CF90BF90AF909F906E
:101940008F907F906F905F904F903F902F90089571
:101950006A3081F460E08D819E810E94270CED81C8
:10196000FE81868565818E9D600D1124CF010E94C8
:101970001B0CD3CF651708F4CAC08E2F90E0FC0172
:10198000E50FF11D6E171F060CF0C1C089010A5F3B
:101990001F4F651BED81FE8171855685759F502D0A
:1019A00011245C83F90154912F5F3F4FF901249179
:1019B000352F2230310508F06AC06E9CC0016F9C43
:1019C000900D1124689FF001699FF00D11240E0FF6
:1019D0001F1F512CED81FE81F481FA83ED81FE8180
:1019E0002580F285FB83862C912CAA24A394B12C0C
:1019F000312C8981381608F086C0412CED81FE819A
:101A00008685481608F078C08B818287311002C025
:101A1000442041F0ED81FE8145814F5F6A81CF0115
:101A20000E94450CD12CC12CC61408F058C0F801F6
:101A3000EC0DFD1D7490552061F0EA14FB0449F48F
:101A4000E72DF0E0052C02C0F595E7950A94E2F742
:101A50007E2EED81FE818685823081F4442009F45A
:101A60003AC072948FE07822E72DF0E0E357FE4F02
:101A70007490672D8D819E810E948706672D8D81D0
:101A80009E810E9487068FEFC81AD80ACDCF477073
:101A900028E0522E541A411101C0512CF801612C3A
:101AA00030E020E0661631F04491240F311D63943C
:101AB0003196F8CF600E712E711CF3016490E29E96
:101AC000F001E39EF00DF29EF00D11248E0F9F1F8A
:101AD000080F191F7FCFF72DFF707F2EC5CFD12C98
:101AE000EC81DE1639F060E08D819E810E948706D0
:101AF000D394F6CF439482CF3394080D191DFFEF92
:101B0000AF1ABF0A76CF622D8D819E8130CF90E0D3
:101B100080E005CF0F931F93CF93DF938C01D0E02C
:101B2000C0E0F801EC0FFD1F6491662341F084E6EC
:101B300095E00E94530C892B11F02196F2CFCE0133
:101B4000DF91CF911F910F910895CF92DF92EF9285
:101B5000FF920F931F93CF93DF93EC01F62EC42EC9
:101B6000D22E1A868F81869586958695081710F055
:101B70000FEF080F1D2D011780F0412F6F2DCE01A3
:101B80000E94450CEF2CCE1430F06D85CE010E94E2
:101B90008706E394F8CF1F5FEECF4D2D6F2DCE015A
:101BA000DF91CF911F910F91FF90EF90DF90CF9039
:101BB0000C94450C0F93FC0107810695069506953C
:101BC00001504681415020E060E00E94A50D0F9138
:101BD00008954F925F926F927F928F92AF92CF92C1
:101BE000EF92FF920F931F93CF93DF93CDB7DEB7A2
:101BF0002701380194E0899F80011124F801EC5DF0
:101C0000FB4F80819181A281B3818E219521A621F4
:101C1000B72131E0892B8A2B8B2B09F430E03C1162
:101C200003C08889882301F1C11001C0A82C2D5F51
:101C3000640F422F84E695E00E94450C6A2D84E6ED
:101C400095E00E94530CF801EC5DFB4FCC20D1F0E5
:101C500080819181A281B38184299529A629B72900
:101C600080839183A283B383DF91CF911F910F91E2
:101C7000FF90EF90CF90AF908F907F906F905F909C
:101C80004F90089540945094609470948081918115
:101C9000A281B38184219521A621B721E1CF8F9222
:101CA0009F92AF92BF92CF92DF92EF92FF920F93EB
:101CB0001F93CF93DF93D82EC62FE82FF0E0EE0FBF
:101CC000FF1FE557FC4FB08007E023E041816B2DFB
:101CD00084E695E00E94A50D47E06B2D84E695E033
:101CE0000E94450CC13069F583E091E00E948A0DA5
:101CF00081E08D15C8F0C0EED1E099249394E8807E
:101D0000F9800A811B819F928F80AE80CC24C3947E
:101D10002C814D816B2D8D2D0E94E90D28960F9001
:101D200082E0C035D80759F7DF91CF911F910F910D
:101D3000FF90EF90DF90CF90BF90AF909F908F90EB
:101D4000089581E294E0DF91CF911F910F91FF9070
:101D5000EF90DF90CF90BF90AF909F908F900C94BA
:101D60008A0D0F9307E022E04FE760E084E695E0FC
:101D70000E94A50D8091AA049091AB048230910538
:101D8000E1F020F4019779F00F91089583309105E7
:101D900001F10497C9F766E384E695E00E94270CF9
:101DA00080E191E007C064E284E695E00E94270CA0
:101DB00087E291E00F910C948A0D6AE284E695E047
:101DC0000E94270C8CE091E00E948A0D87E091E050
:101DD000F1CF66E084E695E00E94270C84E191E073
:101DE000E9CF809308016EEA81116FEA84E695E0FD
:101DF0000E94130C0E94F60360934E0470934F04EC
:101E000080935004909351040895FC01448550E060
:101E1000A585B0E0AA0FBB1FA954BB4F0D90BC9184
:101E2000A02D13968C9180649091BB04BF019923DF
:101E300021F06E5F7F4F0C9472046D5F7F4FFBCF7C
:101E4000089590E080E00895CF92DF92FF920F9383
:101E50001F93CF93DF936C0170E06F5F7F4F759599
:101E6000679590916F04961758F090917004FF2435
:101E7000F39401E010E0961730F082E0F82E6AC08B
:101E8000F12C10E000E0F801E159FB4F81E0890FEF
:101E9000808391115FC083E190E00E946832EC0181
:101EA00091E09C839D839E01265F3F4F3F832E835D
:101EB0001986188624EE32E0398328831C861B8617
:101EC0001E861D869F87988BDA8AC98A81EC8A874D
:101ED0000E94AC05FC0181813C81682F630F77274C
:101EE000771F683071057CF5A281B3811097F9F4F2
:101EF000D383C28390819A838B838D81890F808362
:101F000090E080E08317F8F42181A22FB0E0BD01BA
:101F1000655E7E4F4E815F81480F591FDA014C91FB
:101F2000DB014C932F5F21830196ECCFDA011896E9
:101F30004D915C91199741155105C1F71996DC93A4
:101F4000CE931897D7CF000F111FF801E954FB4F1C
:101F5000D183C0838F2DDF91CF911F910F91FF907F
:101F6000DF90CF9008956F927F928F929F92AF9261
:101F7000CF92EF92FF920F931F93CF93DF93CDB742
:101F8000DEB7C456D1090FB6F894DEBF0FBECDBF81
:101F90004C01CB01642E722E23E933E0D4012D9342
:101FA0003C93672D0E94240F182FF401858781E050
:101FB000871508F080E08093BB0489E993E0D401A1
:101FC00011969C938E9312966C9212972C2D2A0D3B
:101FD0002E0D200F85E0820F1C968C9395E099833F
:101FE00081E08A8339E03B839C8391EA9D838E83E1
:101FF000871508F00AC385E88F83688698E0E1E0DA
:10200000F0E0EC0FFD1FE90FF11D35E0932E9082FB
:10201000E1E0E90F66246394712C6C0E7D1E6E0E58
:10202000711CF30159E05083E2E0E90F61E070E0D8
:102030006C0F7D1F6E0F711DFB0189E18083E3E052
:10204000E90FA1E0B0E0AC0FBD1FAE0FB11DFD0167
:1020500031E03083E4E0E90F66246394712C6C0E68
:102060007D1E6E0E711CF30189E28083E5E0E90FAD
:1020700061E070E06C0F7D1F6E0F711DFB0148E188
:102080004083A6E0A90FE1E0F0E0EC0FFD1FEA0FAE
:10209000F11DDF01E5E1EC93A7E0A90F662463944D
:1020A000712C6C0E7D1E6A0E711CD3011C92A8E06F
:1020B000A90F61E070E06C0F7D1F6A0F711DDB01DD
:1020C00085E28C93A9E0A90F66246394712C6C0EB1
:1020D0007D1E6A0E711CD3013C93AAE0A90F61E03A
:1020E00070E06C0F7D1F6A0F711DDB0175E77C933B
:1020F000ABE0A90F66246394712C6C0E7D1E6A0EF2
:10210000711CD3013C93ACE0A90F66246394712C3D
:102110006C0E7D1E6A0E711CD30165E96C93ADE0F7
:10212000A90F66246394712C6C0E7D1E6A0E711CBF
:10213000D3014C93AEE0A90F66246394712C6C0E0E
:102140007D1E6A0E711CD30141E84C93AFE0A90FCC
:1021500066246394712C6C0E7D1E6A0E711CD30173
:10216000F2E0FC93A0E1A90F66246394712C6C0E3D
:102170007D1E6A0E711CD3019C92A1E1A90F8824D7
:102180008394912C8C0E9D1E8A0E911CD4013C933D
:10219000A2E1A90F66246394712C6C0E7D1E6A0E59
:1021A000711CD3015C93A3E1A90F88248394912C23
:1021B0008C0E9D1E8A0E911CD4010F2EF9E39F2ECA
:1021C000F02D9C92A4E1A90F66246394712C6C0EEF
:1021D0007D1E6A0E711CD301EC93A5E1A90F882422
:1021E0008394912C8C0E9D1E8A0E911CD4011C92FE
:1021F000A6E1A90F66246394712C6C0E7D1E6A0EF5
:10220000711CD3018C93A7E1A90F88248394912C8E
:102210008C0E9D1E8A0E911CD40187E08C93A8E140
:10222000A90F66246394712C6C0E7D1E6A0E711CBE
:10223000D30185E38C93A9E1A90F88248394912C81
:102240008C0E9D1E8A0E911CD4011C92AAE1A90F2E
:1022500066246394712C6C0E7D1E6A0E711CD30172
:1022600086E48C93ABE1A90F88248394912C8C0E87
:102270009D1E8A0E911CD4018BE38C93ACE1A90FB7
:1022800066246394712C6C0E7D1E6A0E711CD30142
:102290003C93ADE1A90F88248394912C8C0E9D1E54
:1022A0008A0E911CD40185E68C93AEE1A90F6624B9
:1022B0006394712C6C0E7D1E6A0E711CD30184E137
:1022C0008C93AFE1A90F88248394912C8C0E9D1ED2
:1022D0008A0E911CD4017C93A0E2A90F662463941A
:1022E000712C6C0E7D1E6A0E711CD30188E08C93DC
:1022F000A1E2A90F88248394912C8C0E9D1E8A0E36
:10230000911CD4016C93A2E2A90F66246394712CF2
:102310006C0E7D1E6A0E711CD3013C93A3E2A90FC3
:1023200088248394912C8C0E9D1E8A0E911CD401BE
:102330004C9345E2F42EF90E44E2490F662463946F
:10234000712C6C0E7D1E640E711CD301FC93222334
:1023500009F405C1A1E0B0E0AC0FBD1FAF0DB11D88
:102360005C93A6E2A90F66246394712C6C0E7D1E0B
:102370006A0E711CD3013C93A7E2A90F88248394B1
:10238000912C8C0E9D1E8A0E911CD401EC93E8E2D8
:10239000E90FA1E0B0E0AC0FBD1FAE0FB11DFD0114
:1023A0001082E9E2E90F66246394712C6C0E7D1EA5
:1023B0006E0E711CF30136E23083EAE2E90F8824E5
:1023C0008394912C8C0E9D1E8E0E911CF4013FEF78
:1023D0003083EBE2E90FA1E0B0E0AC0FBD1FAE0F20
:1023E000B11DFD011082ECE2E90F66246394712CAB
:1023F0006C0E7D1E6E0E711CF3017083EDE2E90F11
:1024000088248394912C8C0E9D1E8E0E911CF401B9
:102410008083EEE2E90FA1E0B0E0AC0FBD1FAE0F8C
:10242000B11DFD016083EFE2E90F66246394712C16
:102430006C0E7D1E6E0E711CF3012083E0E3E90F2C
:1024400088248394912C8C0E9D1E8E0E911CF40179
:1024500081EA808322E3290FE1E3E90F61E070E084
:102460006C0F7D1F6E0F711DFB011082002391F018
:10247000E1E0F0E0EC0FFD1FE20FF11D508324E3DB
:10248000290F9D5CE1E0F0E0EC0FFD1FE90FF11D6D
:1024900080E38083EE20A1F0E1E0F0E0EC0FFD1F8F
:1024A000E20FF11D89E08083E1E0E20F81E090E03E
:1024B0008C0F9D1F8E0F911DFC0181E380832E5F89
:1024C000CC20A1F0E1E0F0E0EC0FFD1FE20FF11DE8
:1024D00089E08083E1E0E20FA1E0B0E0AC0FBD1F36
:1024E000AE0FB11DFD0182E380832E5FAA20A9F00B
:1024F000E1E0F0E0EC0FFD1FE20FF11D89E08083C9
:10250000E1E0E20F66246394712C6C0E7D1E6E0E6A
:10251000711CF30185E380832E5FE1E0F0E0EC0FB6
:10252000FD1FE20FF11D81E88083E1E0E20F8824C6
:102530008394912C8C0E9D1E8E0E911CF40182E0D2
:10254000808333E0F32EF20EE2E0E20F21E030E090
:102550002C0F3D1F2E0F311DF90180EC8083E1E02F
:10256000F0E0EC0FFD1FEF0DF11D80EC8083A1E08A
:10257000AF0D8A2E912CC4010E9468323C01A40147
:10258000BE016F5F7F4F0E94923387E090E00E9410
:102590006832DC0111961C921E9213967C926E9208
:1025A000129715969C928E92149716961C921697D7
:1025B000E12FF0E0EE0FFF1FE954FB4F4081518106
:1025C000FA0183859485009739F5B487A387FA01CA
:1025D0008585968514962D913C91820F931F968741
:1025E0008587CC59DF4F0FB6F894DEBF0FBECDBF45
:1025F000DF91CF911F910F91FF90EF90CF90AF900F
:102600009F908F907F906F90089584E0820FF401E7
:10261000848796E0F4CCC901FC0120813181211529
:102620003105C9F7B183A083D2CF0E948D33CF93F8
:10263000DF93FC012085318580E0232B69F4EB01D9
:1026400061897289CE010E949B33FE0101900020B6
:10265000E9F731978E2F8C1BDF91CF9108951F9250
:102660000F920FB60F9211242F933F938F939F9346
:10267000AF93BF938091AD049091AE04A091AF044D
:10268000B091B0043091AC0423E0230F2D3758F5FE
:102690000196A11DB11D2093AC048093AD049093CD
:1026A000AE04A093AF04B093B0048091B1049091B4
:1026B000B204A091B304B091B4040196A11DB11D60
:1026C0008093B1049093B204A093B304B093B40484
:1026D000BF91AF919F918F913F912F910F900FBE1E
:1026E0000F901F90189526E8230F0296A11DB11D8B
:1026F000D2CF1F920F920FB60F9211248F939F93F8
:102700008091E1009091E100937F9093E10083FF3D
:102710000FC01092E90091E09093EB001092EC0052
:1027200092E39093ED001092B60498E09093F0003D
:1027300082FF22C093E09093E9009091F2009923E8
:1027400019F09AE39093E80090918304992341F063
:1027500090918304915090938304911101C05D9AEC
:102760009091B504992341F09091B50491509093C4
:10277000B504911101C0289A84FF18C08091E2002D
:102780008E7E81608093E2008091E1008F7E809355
:10279000E100809184048E7E8061809384049F9107
:1027A0008F910F900FBE0F901F90189580FFF7CF5D
:1027B0008091E2008E7E80618093E2008091E10052
:1027C0008E7E8093E100809184048E7E8160E5CFCF
:1027D0001F920F920FB60F921124CF92DF92EF92B9
:1027E000FF920F931F932F933F934F935F936F939A
:1027F0007F938F939F93AF93BF93EF93FF93CF9369
:10280000DF93CDB7DEB76C97DEBFCDBF1092E90086
:102810008091E80083FF25C068E0CE0145960E94C4
:10282000220582EF8093E8008D8987FF39C090915F
:10283000E80090FFFCCF982F907609F034C19E8974
:102840004F89588D2F89F88C911131C0803861F5EE
:10285000809185048093F1001092F1008EEF8093B7
:10286000E8006C960FB6F894DEBF0FBECDBFDF91C7
:10287000CF91FF91EF91BF91AF919F918F917F91F8
:102880006F915F914F913F912F911F910F91FF9009
:10289000EF90DF90CF900F900FBE0F901F90189584
:1028A0009EEF9093E800C7CF1092F100D5CF913002
:1028B00059F48111D3CF4130510581F680918504BF
:1028C0008D7F80938504CACF933049F48111C6CFA0
:1028D0004130510519F6809185048260F2CF953020
:1028E00041F48091E80080FFFCCF20682093E30052
:1028F000B5CF963009F0A9C00B8D1C8D22E0109247
:10290000E9001092810410928004F2122EC01092FD
:102910007F0410927E040E94C0051F8299E0998373
:10292000FA8291E09E8390EA98879AEF99872091A6
:10293000800430918104275F3F4F3C832B838D833C
:102940001092E900109281041092800410937F0489
:1029500000937E0449E050E0BE016F5F7F4F80E04E
:102960000E9436040E94C00579CF10937F04009323
:102970007E040E94AC05DC0112960D911C9101159C
:10298000110509F451C1D801ED91FC910480F58144
:10299000E02DBE016B5E7F4FC8010995009709F0DD
:1029A0003EC1F80100851185EACFF3E0FF120EC0A9
:1029B0008F89882309F440C0823061F440E86CE0DC
:1029C0008CE192E00E944828811148CF81E28093F7
:1029D000EB0047CF813029F440E867E084E192E0E2
:1029E000F1CF833099F70E94AC05DC011296ED908F
:1029F000FC908E010F5F1F4F6801E114F10479F024
:102A0000D701ED91FC910680F781E02DB801C70157
:102A10000995080F111DF701E084F184EECFD8016C
:102A20001C92F60101900020E9F73197BF016C1963
:102A30007D0940E0C601C6CF6EEF71E0FB01449115
:102A400050E080E80E94360409CF973009F4BECFE9
:102A5000983021F481E08093F10000CF993009F0A3
:102A6000FDCE837009F0B2CFECE1F1E081E031E01E
:102A700096E32191222371F08093E9003093EB00DB
:102A8000DF0111972C912093EC009093ED008F5F64
:102A9000873079F78EE78093EA001092EA008F89F9
:102AA0008093B604DBCE8B8D9C8D1092E900109242
:102AB00081041092800490937F0480937E04898D1A
:102AC000811192C08E899D89913A49F4813209F031
:102AD0007DCF47E050E069E271E080E0B3CF913212
:102AE00009F074CF833269F48F89988DB0E0A0E04B
:102AF0008093220190932301A0932401B093250198
:102B0000ADCE803269F48091E80082FFFCCF67E0AF
:102B100089E291E00E9422058BEF8093E8009ECE2F
:102B2000823209F09BCE8F8980933001EEEFFFE770
:102B3000859194918B3F9C4D51F1E0E0F8E08091BC
:102B4000290190912A01A0912B01B0912C01803B89
:102B50009440A105B105F1F48091300180FD1AC0C7
:102B6000EE3F8AE0F80789F587E797E7918380834E
:102B7000809160008093820488E19BE00FB6F89416
:102B8000A895809360000FBE9093600067CEEEEF33
:102B9000FAE0D5CF808191818737974709F05ECEE3
:102BA000A895809160008861809360008091820484
:102BB00080936000EE3F2AE0F20789F08091FE0AE0
:102BC0009091FF0A9183808349CE808191818737DC
:102BD000980751F29093FF0A8093FE0AC5CF109296
:102BE000FF0A1092FE0A3ACE0E94AC05DC01129652
:102BF0000D911C910115110509F4E8CED801ED9154
:102C0000FC910190F081E02DBE016B5E7F4FC80109
:102C10000995811123CEF80100851185EBCF181697
:102C200019060CF41BCED2CEF1E0FF12BECE62E04C
:102C300072E004CF71E02D98259A24982C9A000018
:102C4000000000000E94F42725982D9A0E94F42786
:102C5000A8940000000000001D9B0E94DC27F2F0F9
:102C600088941C990894771F30F72D98259A803006
:102C700021F024982C9A0C943F162C98249A00004A
:102C8000000000000E94F42725982D9AA8940000C7
:102C900000001D9B0E94DC270E94F427000000001A
:102CA0002D98259A872F9927089580E208950894F2
:102CB000881F0C945C16880F11F12D98259A00003E
:102CC0000000000028F4000024982C9A0C946C1644
:102CD0002C98249A0C946C160E94F42725982D9A0F
:102CE000A8940000000000001D9B0E94DC271AF43D
:102CF00088270C9495160E94F4270C945B162D9847
:102D0000259A0000000024982C9A0E94F427992705
:102D1000882725982D9AA89400001D9B0E94DC27E7
:102D20003AF31C9B81E00E94F427000000002D98DC
:102D3000259A089581E00895CF93DF93EC01862FC3
:102D40000E945716811108C08FA5811102C083E02F
:102D50008FA790E080E002C081E090E0DF91CF910A
:102D600008952D98259A2C98249A0E94F427259846
:102D70002D9A0E94F4271D9B0E94DC2724982C9AF0
:102D80000E94F42708958F93F1E0E4EF8F918F93E1
:102D90001D9B0E94DC272C98249A0E94F4270E94F5
:102DA0005716882331F40E94B116319711F00C9414
:102DB000C61699270F90089581E008952D98259AB9
:102DC0000E94F42724982C9A0E94F42725982D9A83
:102DD0000E94F4271D9B0E94DC272C98249A0E94B5
:102DE000F4270E945716089581E008951D9B0E94C4
:102DF000DC272C98249A0E94F4270E9457160895E5
:102E000081E008951F93CF93DF93EC011EA584EA20
:102E1000112371F00E94DE16811108C082E08FA795
:102E200081E08EA7DF91CF911F91089580E0F7CFC9
:102E30000E94F616811101C012E01FA7F1CFFF9288
:102E40000F931F93CF93DF93EC01F62E042F122FD5
:102E50000E940217E881F9810190F081E02D6F2D29
:102E6000CE010995E881F9810190F081E02D602F74
:102E7000CE0109950FA50E94B1161EA61FA680E0DF
:102E8000011107C0112321F087EB92E00197F1F7C0
:102E900081E0DF91CF911F910F91FF900895AF9244
:102EA000BF92CF92DF92EF92FF921F93CF93DF9367
:102EB000EC011FA6162F613208F010E28EA58823C0
:102EC00031F185EA0E94DE1691E089279FA59111D4
:102ED00004C0882311F082E08FA76E018CE0C80E39
:102EE000D11CF12CE12CE12FE150FF0B5F01E11629
:102EF00090F481E0AE14BF0409F080E00E941A163D
:102F0000F60181936F01FFEFEF1AFF0AF0CF85EA18
:102F10000E94F616D9CF1CA68FA5811110E01DA71F
:102F20001EA60E94B1168DA5DF91CF911F91FF9033
:102F3000EF90DF90CF90BF90AF900895EF92FF9207
:102F40000F931F93CF93DF93EC01162F7A010E940A
:102F50000217E881F9810190F081E02D60E0CE0157
:102F600009950FA50E94B1161EA61FA6011110C03B
:102F700087EB92E00197F1F7612FCE010E944F1786
:102F8000482F50E0B701CE010E942F0591E01813A1
:102F900090E0892FDF91CF911F910F91FF90EF90DB
:102FA0000895AF92BF92CF92DF92EF92FF920F936C
:102FB0001F93CF93DF93CDB7DEB760970FB6F8942A
:102FC000DEBF0FBECDBF8C0197EBE92E92E0F92E4C
:102FD000C7010197F1F7D8011296ED91FC9121E01C
:102FE00043E06EEF808191810E941F17FE013196B0
:102FF0006F01811111C0D8011296ED91FC91A601CB
:1030000066E070E0808191810E949E17882309F418
:1030100043C0C7010197F1F788E05E01B9E0AB0E4C
:10302000B11CF501282F11922A95E9F7D6011D92BE
:103030008A95E9F787EBE82E82E0F82ED801129600
:10304000ED91FC91A50168E070E0808191810E9482
:103050009E17882309F443C0C7010197F1F7D801EF
:103060001296ED91FC91A60168E070E0808191815B
:103070000E949E17882399F12985998129131DC0E3
:103080002A859A81291319C09F8591111AC09889A0
:10309000911117C0F801148260960FB6F894DEBF44
:1030A0000FBECDBFDF91CF911F910F91FF90EF9099
:1030B000DF90CF90BF90AF900895C7010197F1F7CF
:1030C000BDCF91E0D80114969C9314971296ED9180
:1030D000FC919481983000F798E09483DDCF80E0F4
:1030E000DBCF2F923F924F925F926F927F928F929F
:1030F0009F92AF92BF92CF92DF92EF92FF920F9387
:103100001F93CF93DF93CDB7DEB7AB970FB6F8948D
:10311000DEBF0FBECDBF0E949F03A0902601B090DE
:10312000270140906A0450906B0460906C0470908A
:103130006D0464197509860997092501712C612CA4
:10314000641575058605970508F464C48091AA0482
:103150009091AB048230910509F49FC428F4019743
:1031600009F4C2C0512C42C48330910511F40C946F
:10317000CE210497B9F780910D01882331F0109288
:103180000D0190E080E00E94182A509055040091B3
:103190009C0410919D0451100C94BC24D8011296EB
:1031A000ED91FC91E080F18020E045E560EFC70102
:1031B0000E941F17882311F40C94A9246AE070E080
:1031C00080E090E00E94C40320E040E06BEFC70184
:1031D0000E941F17882311F40C94A92464E170E065
:1031E00080E090E00E94C403F801C280D380D60141
:1031F000AD90BC90C5010E940217D501ED91FC91E4
:103200000190F081E02D6AEFC5010995F501F7A461
:103210000E94B116D5019E961C929E979F961C9275
:10322000FF2011F40C94452490E080E0F601938394
:103230008283C8010E947B28D82E882311F40C9425
:10324000AF24D8011296ED91FC91359685E1DF010E
:103250001D928A95E9F7D8011296ED91FC9113978A
:1032600086E08483ED91FC910190F081E02DC8010E
:103270000995882311F40C94AF24F801068D178D5D
:103280000115110511F40C94B824D801AD90BC902F
:10329000C5010E947B28882311F40C94B324D50126
:1032A000ED91FC910190F081E02DC5010995D82E9A
:1032B000882311F40C94B32481E08093550480E0BA
:1032C0000E942608E0919C04F0919D040280F38105
:1032D000E02D828193810E94182A82E390E09093EE
:1032E00027018093260182C39E012F5F3F4F38A3A1
:1032F0002F8F8CE0D9011D928A95E9F780911A01F0
:10330000882381F010921A0180912801833050F0B7
:1033100045E064E284E695E00E94450C83E891E094
:103320000E948A0D80915A0580935F0580915B050C
:1033300090915C05909361058093600580915D0597
:1033400090915E059093630580936205A091580566
:10335000109258052C9A8BE290E00197F1F72C9887
:1033600083E190E00197F1F790E080E030E020E029
:1033700043E150E06CB166FBCC24C0F8D12CB6011F
:10338000082E02C0660F771F0A94E2F7262B372B10
:103390002D98FA013197F1F72D9AFA013197F1F74B
:1033A00001968031910531F7832F82958F7090E1DE
:1033B0008D3009F091E070E060E050E040E0E3E142
:1033C000EE2EF12CECB1E6FB002700F910E0F8013D
:1033D000062E02C0EE0FFF1F0A94E2F74E2B5F2B62
:1033E0002D98F7013197F1F72D9AF7013197F1F701
:1033F0006F5F7F4F691730F3982F90952095309528
:10340000409550958F3021F44E3FBFEF5B07E1F1BF
:10341000E091580561E06E0F6093580561E070E03F
:10342000E11102C070E060E0811113C0E32FFF27BB
:10343000EF70FF273F9769F48AE0869FF001879F2E
:10344000F00D1124EB5AFA4F8FE0858351874087A6
:1034500011C092FFD5C08AE0869FF001879FF00DD2
:103460001124EB5AFA4F84E085839370892F90E002
:10347000918780878AE0869FF001879FF00D112455
:10348000EB5AFA4F37832683809158058A17B8F490
:103490004AE09FEF21E030E0811102C030E020E0FF
:1034A000429FF001439FF00D1124EB5AFA4F958390
:1034B00017821682118610868F5FA813EBCF80913A
:1034C0004B058093500580914C0590914D0590934C
:1034D00052058093510580914E0590914F05909330
:1034E00054058093530560914905109249058E9AC1
:1034F0008BE290E00197F1F78E9883E190E00197DD
:10350000F1F750E040E090E080E0E3E1F0E02FB13F
:10351000022E000C330B2227330F221F3327042ED9
:1035200002C0220F331F0A94E2F7822B932B8D984F
:10353000DF011197F1F78D9ADF011197F1F74F5FD6
:103540005F4F4031510519F7792F72957F7010E167
:103550007D3009F011E0F0E0E0E050E040E0B3E160
:10356000EB2EF12C2FB1022E000C330B2227330F40
:10357000221F33270E2E02C0220F331F0A94E2F7B8
:10358000422B532B8D98D7011197F1F78D9AD701C4
:103590001197F1F73196E11728F3272F20958C0129
:1035A00000951095409550957F3029F44E3FBFEF20
:1035B0005B0709F447C08091490591E0980F90930B
:1035C0004905E1E0F0E0811102C0F0E0E0E08AE0CE
:1035D0008E9FD0018F9FB00D1124AA5BBA4F71113D
:1035E0001AC0812F99278F7099270F97A1F48FE028
:1035F00015968C93159719965C934E93189717C050
:103600009AE0969FF001979FF00D1124EB5AFA4F24
:103610009FE089271ACF22FF72C084E015968C9311
:103620001597237030E019963C932E9318972AE053
:103630002E9FC0012F9F900D1124FC01EA5BFA4FD1
:1036400017830683E0914905ECA3E617C0F48E2F9B
:103650004AE09FEF21E030E0811102C030E020E03D
:10366000429FF001439FF00D1124EA5BFA4F9583CE
:1036700017821682118610868F5F6813EBCF9090A9
:103680005805FCA1F90DFAA32EE934E03FA32EA3BF
:10369000D12C512C809128013AA13D1509F456C135
:1036A000D81609F453C1BB24B394D91408F4B12C2F
:1036B00021E030E0D91448F5D11002C030E020E01C
:1036C0006AE0629FA001639F500D1124DA01A65A9F
:1036D000BA4F3D01823051F5992009F4A6C0CD01C1
:1036E0000E947F0BEB2DF0E0EE0FFF1F21E030E09A
:1036F0002C0F3D1FE20FF31F9183808317C09FE0C3
:10370000972715969C93159776CFD91002C030E075
:1037100020E0BAE0B29FA001B39F500D1124FA013E
:10372000E55BFA4F3F01823009F47FC0D3018C91F1
:1037300015969C911597891323C011964D915C9114
:10374000129716962D913C9117974217530759F4EB
:1037500013964D915C91149718962D913C914217B8
:10376000530709F45AC0811119C0F3018381948170
:103770000196A1F4D30118968D919C91019671F058
:103780008D2D0E946B0B80912801823039F4C3018A
:103790000E947F0BBC018B2D0E948B2BC3010E94CA
:1037A0007F0B1C01F30181819281DC01A095B09512
:1037B00064E0B695A7956A95E1F71A2F1F709C01F2
:1037C00021703327AC015695479570E060E0417059
:1037D000552766277727F2E02F163104C1F5232BF2
:1037E00009F0426082FD516083FD5260AEA1BFA12D
:1037F000ED91FC91438354836583A12FB0E0A053E6
:10380000BD4F8C918683CF010E94050F80912801C6
:10381000823009F45CC055245394D3946EA17FA1E7
:103820006E5F7F4F7FA36EA335CF3CA1332309F496
:103830007DCFC3010E947F0BEB2DF0E0EE0FFF1F49
:1038400061E070E06C0F7D1FE60FF71F55CF232B53
:1038500009F0426090FD446091FD486092FD406136
:1038600093FD406224E02216310421F5D301139622
:103870002D913C9134FD406435FD406820FD54603D
:1038800021FD586022FD506123FD506224FD5064EB
:1038900025FD506826FD616027FD626030FD646093
:1038A00031FD686032FD606133FD606237FF9ACFA1
:1038B000606498CFB5E02B16310409F093CFF30183
:1038C000238120FD406421FF8DCF40688BCF40E5F0
:1038D000442E42E0542E19A28B2D90E0880F991FA0
:1038E000FC01E557FC4FFBA7EAA7F2E02F163104D5
:1038F00041F429A1283008F5F201E05AFF4F2430A5
:1039000008F0F201E080F18002811381D301119669
:103910008D919C918E219F21CC24C394892B09F4F5
:10392000C12C1F928780A68024814581EAA5FBA532
:1039300060818B2D0E94E90D0F90F9A1FF5FF9A323
:1039400028E0420E511CFC3081F665CF09811A81B6
:10395000823079F480910E0190910F0108171907B8
:1039600041F00115110529F470E060E080E00E944B
:103970008B2B10930F0100930E010B811C81809102
:103980002801823079F48091100190911101801703
:10399000910741F00115110529F470E060E081E024
:1039A0000E948B2B109311010093100180916904E8
:1039B0007AA17817C0F4172F80916904181798F42A
:1039C00080912801181779F0812F0E946B0BE12F4D
:1039D000F0E0EE0FFF1FE256FB4F808191810E94C5
:1039E000050F1F5FE9CF8AA1809369040E949F039E
:1039F00060936A0470936B0480936C0490936D04DD
:103A0000552041F08091080181110C94752781E0C7
:103A10000E94F10E809108018823B1F00E94F60304
:103A200000914E0410914F042091500430915104A4
:103A3000601B710B820B930B603E734984409105B0
:103A400018F080E00E94F10E4E990EC06CE271E019
:103A500080E090E00E94C4038091080181110C94E1
:103A6000812781E00E94F10EAB960FB6F894DEBF7D
:103A70000FBECDBFDF91CF911F910F91FF90EF90BF
:103A8000DF90CF90BF90AF909F908F907F906F907E
:103A90005F904F903F902F9008951092680450903F
:103AA0009004552009F4EBC250909404511003C0C7
:103AB0000E9407299BCF80919604909197040E94C1
:103AC000E009582E811103C0109294048FCF809189
:103AD0004204811113C08091860490918704092EBD
:103AE000000CAA0BBB0B80933E0490933F04A09361
:103AF0004004B093410481E0809342041D8E1E8AED
:103B0000188A1F861A8219828091960490919704D0
:103B1000DC0196962D913C919797512C26303105DA
:103B200099F49C965C90552079F08E010F5F1F4FA1
:103B30009E01215F3F4FAE014A5E5F4FBE01635E53
:103B40007F4F0E949628582E8F85988910E0049701
:103B5000F9F480913C0490913D04988B8F870197F4
:103B600009F020C18EEF8D8F8FEF8E8B10923B046A
:103B700010923A0410923904109238048E8990E021
:103B8000982F88278E6F909337048093360410E81F
:103B90006F8578896115710521F070933D046093FC
:103BA0003C044E898D8D342F282F3093350420937B
:103BB0003404A0919604B091970494968D919C91B1
:103BC0009597809590956C01CC0CDD1CCC0CDD1C80
:103BD000E4E0CE22DD24AC014C7FC42AD52AD09269
:103BE0003304C09232045110F7C0AC014427517025
:103BF0009C0122273270BC016627737061157340E7
:103C000009F0D4C010928E0421E094FD09C023E095
:103C100095FD06C027E096FD03C097FF03C02FE087
:103C200020938D0421E030E084FD0CC022E030E0E0
:103C300085FD08C024E030E086FD04C087FF06C093
:103C400028E030E030938C0420938B0421E0AC0119
:103C50004427547092FF20E093FB882780F92817AF
:103C6000A9F062E0452B09F461E060938A0470E0FA
:103C700080EA90E00E94F93170938904609388048F
:103C800075956795709387046093860480918E0480
:103C90006CE571E0813051F063E671E0813030F025
:103CA00066E571E0823011F069E471E081E00E9424
:103CB000E42962E471E082E00E94E42960918D04CD
:103CC00070E090E080E04AE00E941D2C69E371E022
:103CD00083E00E94E42980918B0490918C040E94DF
:103CE0006B2C62E371E084E00E94E42980918A04F5
:103CF000813009F06EC08EE091E00E946B2C81E073
:103D00000E94F10E68EC70E080E090E00E94C40335
:103D10000E9407298091960490919704FC0126A1A6
:103D200037A12630310589F424A5222371F08E01B4
:103D30000F5F1F4F9E01215F3F4FAE014A5E5F4FF5
:103D4000BE01635E7F4F0E94962810923B04109242
:103D50003A041092390410923804809186049091AC
:103D60008704092E000CAA0BBB0B80933E04909392
:103D70003F04A0934004B093410480913404909197
:103D80003504909337048093360480918E048330F9
:103D900009F02CCE8091300487FF6CC18F5F809337
:103DA000300424CE8EEF8D8F1E8AE0CEBC016627B4
:103DB0007C7061157C4039F0452B49F4232B09F4C4
:103DC00023CF22E001C023E020938E041DCF21E009
:103DD000FBCF87E890E091CFB0908E04E09188040B
:103DE000F0918904672B09F454C0809136049091B6
:103DF0003704A901481B590B80913804909139046C
:103E0000840F951F9093390480933804BB2019F0D8
:103E100063E0B6123EC010923104052E000C660B12
:103E2000770B60903E0470903F0480904004909027
:103E30004104460D571D681D791D40933E04509363
:103E40003F04609340047093410477FF08C01092D0
:103E50003E0410923F041092400410924104AF01BE
:103E60000F2E000C660B770B60903E0470903F04A1
:103E700080904004909041044615570568057905E7
:103E800044F440933E0450933F0460934004709385
:103E900041043F010F2E000C880899088FEF8B0D0D
:103EA000823008F0A2C04091860450918704882790
:103EB0009927841B950B281739070CF06FC01092B7
:103EC0003E0410923F04109240041092410471E0AD
:103ED000B71273C081E08093310480918D048F709C
:103EE0008063812BDD968C9320913A0430913B04C2
:103EF00060908B0470908C04809138049091390408
:103F0000821B930BB3010E94F93161384FEF7407A4
:103F100014F461E87FEF8B016038710514F00FE74E
:103F200010E0609EC001619E900D709E900D112466
:103F3000820F931F90933B0480933A04A02E20910C
:103F40003E0430913F044091400450914104AFEF52
:103F5000B0E00E94DF319F01FF0F440B550B0E9420
:103F60002F32922E322F63E0B61252C080EC07FD42
:103F700003C0002319F08FE38093300420913004B4
:103F800027FF3BC06894C0F8D0923304C09232043B
:103F900080913204909133048D7F36C042175307CD
:103FA00084F460923E0470923F04809240049092A8
:103FB000410481E0B81609F48DCF81E0809331048B
:103FC00014C091E0B91202C010923104420F531F85
:103FD00070E060E040933E0450933F0460934004DF
:103FE0007093410422E0B21641F380913104813094
:103FF00009F473CFDD961C9377CF809132049091B2
:1040000033048260222321F290933304809332049C
:10401000C0903204D090330480912E0490912F04EC
:104020008C159D0541F480912D04381304C08091B6
:104030002C04A816E9F0D0922F04C0922E0490927E
:104040002D04A0922C0481E00E94DB28E0919E04C4
:10405000F0919F047FE0C722C382D48280918F04B5
:10406000811102C097820683CF010E94050F85CE81
:10407000512C83CE882309F4B9CC815090CE809105
:10408000660481112AC080916704811126C0809145
:10409000940481110DC08091400590914105DC018F
:1040A000ED91FC910680F781E02D099580939404B1
:1040B000809366048091950481110DC08091420522
:1040C00090914305DC01ED91FC910680F781E02D94
:1040D00009958093950480936704E0E4AE2EE5E0B3
:1040E000BE2EF4E66F2EF4E07F2EA6E6CA2EA4E0E4
:1040F000DA2E10E000E0FF24F394F5018191919114
:104100005F019093970480939604D3011D923D0123
:10411000F60121916F01211106C00130110519F13D
:1041200001E010E0EACF98012C563B4F1901D9016C
:104130002C91211119C1DC01ED91FC910680F781D0
:10414000E02D0995882359F0F101F082E091960461
:10415000F091970466A177A1802F0E942F2B809168
:1041600093048823D1F2312C70E8472E80912801E6
:10417000381608F03BCC832D90E0FC01EC56FB4F49
:104180002081222309F4E9C0FC01EC59FB4FD080C7
:10419000DD2009F4E2C0B0906804880F991FFC018B
:1041A000E05CFA4F0190F081E02DF0939704E093EA
:1041B0009604809192048111D0C080919304811162
:1041C000CCC09924939422A133A184A195A128174E
:1041D000390709F4912C66A077A00B2D10E0000F91
:1041E000111FF801E65BFB4F80819181681679060B
:1041F00021F0B3018B2D0E942F2BE1E0F0E0EC0FBA
:10420000FD1FE00FF11F71826082C30101970597C6
:1042100008F0C2C080E00E94DB28E0919604F09193
:104220009704FBA3EAA384A195A180959095292FDB
:10423000221F2227221F30E096FD226095FD246078
:1042400094FD286092FD206193FD206290FD206422
:1042500091FD206880FD316083FD326081FD346016
:1042600082FD3860AAA1BBA19896AC9098979996C8
:10427000CC9099978091680490E0FC01EE0FFF1FAD
:10428000E256FB4F0190F081E02D9C964C91442327
:1042900009F476C0B5E06B16710409F471C0A78209
:1042A000C086AC014A5F5E4FDA01FC90BC016C5FD6
:1042B0007E4FFA106CC0DB01FC90FC1068C0DA0184
:1042C000AC92DB01CC92AAA1BBA19A965C919A9781
:1042D0009B964C919B979C966C91662329F0B5E038
:1042E0006B16710409F055C04186428640E850E8DB
:1042F000BC016E5F7E4F7B01DB016C9180509F4F54
:10430000651305C0DC016C91641301C0D92CD70181
:104310005C93DC014C93238334831582DD2079F098
:10432000CF010E94050FB1E0BB1548F04091960403
:104330005091970420E0B3018B2D0E94B22AD8013E
:10434000A65BBB4FE1E0F0E0EC0FFD1FE00FF11FBB
:10435000808191818D939C935D28809168048F5F0B
:1043600080936804339402CF0E94E009F3013197EF
:1043700080838111F4CED1011C9270E060E0ECCE1C
:104380004782408660E8C62E70E8A72E8ACF9D2C13
:1043900096CF51874287ACCFD92CD1CF8091620480
:1043A000811167C080916304811163C06501CC0CE9
:1043B000DD1CCC0CDD1CE5E0CE1AD1080CE315E0C9
:1043C00042E6E42E44E0F42E50E4852E55E0952E8E
:1043D000D8018D919D918D010E94B308F7018193C1
:1043E0007F0180916204811104C08091630488235D
:1043F00039F0F2E0AF16B10418F0C6010197F1F7F9
:104400008016910629F781E00E94F10E07E027E06F
:104410004FE760E084E695E00E94A50D67E084E642
:1044200095E00E941B0C60E084E695E00E94270C5A
:104430008091620481110BC080916304811103C0DB
:1044400081E294E002C08BE691E00E948A0D62E472
:1044500084E695E00E94270C9091620480916304A9
:10446000992309F475C0811104C08BE691E00E9484
:104470008A0D1D8E1E8E10E090E5A92E93ECB92EAC
:1044800007E022E3622E712C80912801181708F0B2
:1044900072C0412E512CF201EE0FFF1FE45CFA4F67
:1044A000208031803092610420926004F201EE5944
:1044B000FB4F8081882309F449C0C1010E94B308E1
:1044C0009201225A3B4F6901882309F446C087E0D4
:1044D000F101DE01569601900D928A95E1F787E091
:1044E000FE017696DE011F9601900D928A95E1F706
:1044F000049DC001059D900D112461E070E06C0FDA
:104500007D1F860F971FFE013F96DC01202F019033
:104510000D922A95E1F7DC018D919C91FF24F39493
:10452000009709F4F12CF6012081211109C0892B93
:1045300039F0812F0E94940861E0812F0E944F0E74
:10454000D601FC9270922701609226011F5F9CCFDA
:10455000811189CF81E294E08ACF812F0E94940853
:1045600060E0812F0E944F0EF6011082B092270169
:10457000A0922601EBCFB12C17E0D12E809128011B
:10458000B81608F07DC16B2C712CF301E25AFB4F79
:104590008081882309F472C1D69CF001D79CF00D6C
:1045A000112421E030E02C0F3D1FE20FF31F238187
:1045B000822F82958F7090E0982F88279295907F18
:1045C0002F7030E0322F2227820F931F2481422F39
:1045D00042954F7030E1439FA0011124840F951F35
:1045E0002F701C01220E311C9580468149A3B30116
:1045F000645A7B4F7DA36CA3DB018C91981207C09A
:10460000F301E65AFB4F8081841709F4C0C4EDE141
:10461000F0E0EC0FFD1FE60DF71DB1E0B083D69C76
:10462000F001D79CF00D112421E030E02C0F3D1F4C
:10463000E20FF31F838122E030E087FD02C030E00B
:1046400020E0D69CF001D79CF00D112461E070E0D1
:104650006C0F7D1FE60FF71F838186FD2160D69CBE
:10466000F001D79CF00D112481E090E08C0F9D1F8C
:10467000E80FF91F838185FD3160D69CF001D79C3E
:10468000F00D1124A1E0B0E0AC0FBD1FEA0FFB1F3D
:10469000838184FD3260D69CF001D79CF00D1124FB
:1046A00061E070E06C0F7D1FE60FF71F848185FDD0
:1046B0002061D69CF001D79CF00D112481E090E0A0
:1046C0008C0F9D1FE80FF91F848184FD2062D69C0A
:1046D000F001D79CF00D1124A1E0B0E0AC0FBD1F9C
:1046E000EA0FFB1F848183FD2064D69CF001D79CD8
:1046F000F00D112461E070E06C0F7D1FE60FF71FD5
:10470000848182FD2460D69CF001D79CF00D112499
:1047100081E090E08C0F9D1FE80FF91F848181FDDF
:104720002860D69CF001D79CF00D1124A1E0B0E0E8
:10473000AC0FBD1FEA0FFB1F848180FD2068F301D1
:10474000EE0FFF1FFBA3EAA3E256FB4FA081B1814E
:1047500013962C93139714963C93149715961C92CA
:104760001597D69CF001D79CF00D112421E030E084
:104770002C0F3D1FE20FF31F838183FBEE27E0F92F
:1047800041E04E2782FF4260D69CC001D79C900D2D
:10479000112461E070E06C0F7D1F860F971FFC01F4
:1047A000838181FF4460D69CC001D79C900D112469
:1047B00021E030E02C0F3D1F820F931FFC0183810D
:1047C00080FF4860E42FF0E0E053FD4F80811696B3
:1047D0008C93169780E8890D17968C93179789A16B
:1047E0008058809518968C931897CD010E94050FDC
:1047F00060EE462E61E0562EB10190E080E06EA39F
:104800007FA388A799A7EAA1FBA1E557FC4F708178
:104810007AA7D201ED90FD900D911C918EA19FA1E0
:10482000A8A5B9A58E219F21A023B123CC24C39490
:10483000892B8A2B8B2B09F4C12C1F92F2018780C4
:10484000A680248145816AA58B2D0E94E90DF8E0A0
:104850004F0E511C0F9020E532E024153505C9F6A6
:10486000EAA1FBA1EA5AFB4F31822082ACA1BDA193
:104870009C92F301E65AFB4FB9A1B083B3947ECE6C
:104880005D8C5110B3C85E8CB1C887EB92E0019784
:10489000F1F766E0C5010E944F17482F50E0BE01B6
:1048A0006F5F7F4FC5010E942F05863011F00C9479
:1048B00014198B81843A09F048C08C81803209F048
:1048C00044C08D81811103C09E81992391F199810A
:1048D0002A81923058F421111AC0843008F52E81B3
:1048E000213031F484E090E00C94161921110FC0AE
:1048F0008130B1F48E81833061F49923F1F09130ED
:1049000001F1933011F587E090E00C941619813095
:1049100039F48E818231C9F488E090E00C94161944
:10492000811113C08E81833181F489E090E00C9471
:10493000161983E090E00C94161985E090E00C9431
:10494000161986E090E00C94161982E090E00C9421
:104950001619D8011296ED91FC911382128280E50E
:1049600093EC0C946F19F801048115810C94401993
:10497000DD20A9F30C945C19C8010E947B288823D0
:1049800009F4D1C0D8011296ED91FC91AF014B5FB3
:104990005F4F648170E0808191810E949E178CA39B
:1049A000882309F4C0C0F80182819381DC01149648
:1049B0004C910596FC012FEF30E050E0BF01681BE1
:1049C000790B6417750724F46191362B2623F6CFF3
:1049D000332309F4A8C02F3F09F4A5C0E0919C043B
:1049E000F0919D040280F381E02D02811381C801C2
:1049F0000397029708F4ACC01AA219A2B12C912C0B
:104A0000D12C712C612C80915304909154045CA0A2
:104A10008615970539F455245394809152048D11CD
:104A200001C0512C80910C01891112C080910B01A1
:104A30008B110EC080910A01A9A18A1309C080912F
:104A40000901BAA18B1304C0552011F40C94F61C73
:104A5000E0919E04F0919F046382748215822D2D53
:104A600030E03FA32EA3D901A053BD4F8C91868384
:104A700097828B2D8195808739A131878AA1819575
:104A80008287CF010E94050F0450110902301105E1
:104A900008F018C24FE04AA783E1482E83E0582E61
:104AA000312C212CD201ED90FD900D911C9113978A
:104AB00014962C91149715964C9115971696AC90C8
:104AC000169717968C90BAE0B21508F4FEC1C30190
:104AD000022C02C0969587950A94E2F7E82FE170C0
:104AE000CE2E1F9260E080E00E94E90D0F908FEFC4
:104AF000281A380A98E0490E511CAAA52A1690F2E5
:104B00007092540460925304D092520490920C011B
:104B1000B0920B01B9A1B0930A01EAA1E093090197
:104B20005CA00C94F61C1092550480E593EC9093D5
:104B300027018093260180E00E94260810925404E9
:104B40001092530490E080E00E94182A0C94B2184E
:104B50000430110509F09BC1E0919A04F0919B0487
:104B600084810280F381E02D8111C1C0228530E073
:104B7000390145E0759467944A95E1F76094709423
:104B8000B1E06B22772456E0359527955A95E1F7E9
:104B90002095309520FDC1C0228530E0A4E03595F8
:104BA0002795AA95E1F72095309520FDC6C022856E
:104BB00030E063E0359527956A95E1F720953095CB
:104BC00020FDCBC0218530E045E0359527954A95FD
:104BD000E1F72095309520FDD0C0218530E0359556
:104BE00027952095309520FDD5C0228530E0220FF5
:104BF000232F221F330B232B09F4D9C0228530E049
:104C000035952795359527952095309520FDDEC063
:104C1000218530E094E0359527959A95E1F7209528
:104C2000309520FDE3C0218530E0359527953595F9
:104C300027952095309520FDE8C0218530E063E080
:104C4000359527956A95E1F72095309520FDEDC0C3
:104C50009285DD24D39490FFD12C218530E046E06D
:104C6000359527954A95E1F72095309520FD04C0AC
:104C70006894D1F88111F0C0228530E035952795F0
:104C80002095309520FD04C06894D2F88111ECC0C5
:104C9000218530E0220F232F221F330B232B21F0FD
:104CA0006894D3F88111E9C09581992E990C990CDB
:104CB0008681B82EBB0CBB0C4781907C969596954F
:104CC0009695807C829586958770892B242F2078F5
:104CD00030E0220F232F221F330B822B880F880FE7
:104CE000880F89A3440F440F440F4AA38CCE248518
:104CF00030E03901B5E075946794BA95E1F76094B6
:104D0000709441E06422772496E0359527959A9532
:104D1000E1F72095309520FF05C0689461F888235D
:104D200009F43ACF248530E074E0359527957A95DB
:104D3000E1F72095309520FF05C0689462F888233C
:104D400009F435CF248530E053E0359527955A9501
:104D5000E1F72095309520FF05C0689463F888231B
:104D600009F430CF238530E095E0359527959A9565
:104D7000E1F72095309520FF05C0689464F88823FA
:104D800009F42BCF238530E0359527952095309574
:104D900020FF05C0689465F8882309F426CF248590
:104DA00030E0220F232F221F330B232B29F468948A
:104DB00066F8882309F422CF248530E035952795BD
:104DC000359527952095309520FF05C0689467F8A4
:104DD000882309F41DCF238530E0B4E0359527956D
:104DE000BA95E1F72095309520FF05C0689470F8DA
:104DF000882309F418CF238530E03595279535951C
:104E000027952095309520FF05C0689471F8882378
:104E100009F413CF238530E053E0359527955A9553
:104E2000E1F72095309520FF05C0689472F888233B
:104E300009F40ECF948590FD27C0D12C882309F466
:104E40000BCF238530E096E0359527959A95E1F7CD
:104E50002095309520FF0CCF248530E0359527959F
:104E60002095309520FF10CF238530E0220F232F8F
:104E7000221F330B232B09F013CF9580B780668157
:104E800069A370857AA3BFCDDD24D394DACFE091F6
:104E90009804F09199040280F381E02D8285682EB8
:104EA000712C759467946094709491E069227724D2
:104EB00080FD02C0689461F89580B6801AA219A29C
:104EC000D12CA1CD62E06AA7E7CDC1010B976EA1FD
:104ED0007FA102C0759567958A95E2F7CB01809511
:104EE0009095782F7170C72EFCCD0E94F6036093C9
:104EF0004E0470934F0480935004909351040C948B
:104F00000A1DE090AA04F090AB040E9416080E94CB
:104F1000B10E10E000E062E070E080E090E00E94FE
:104F2000C4034E990CC06CE271E080E090E00E94F6
:104F3000C4030E9416080E94B10E10E000E00F5F4B
:104F40001F4F003D27E0120731F76091AA047091CE
:104F5000AB046E157F0521F40E94B10E0C94341D34
:104F600090E080E00E94D13184E695E00E94DA0D65
:104F700086E791E00E948A0D88E19EE00FB6F894E2
:104F8000A895809360000FBE90936000FFCF36E538
:104F9000231634E0330609F03ACB70CC24982598D8
:104FA0002C9A2D9A882799271C9B08951D9B08955C
:104FB00081E0089581E00895BFE0A0EA00240E9406
:104FC000EC273AF40A94D9F71197C1F728940C9476
:104FD000F327A8940C94F327A8941D990C94F12717
:104FE000289400000895089593E09A95F1F70895A4
:104FF00008951F93CF93DF93EC0180E888A789A7DA
:105000008AA78BA71CA6FE01BD968CE0DF011D922E
:105010008A95E9F71FA21EA21AAE1BAE1CAE1DAEEA
:1050200015E0CE010E94E00961E070E080E090E0D0
:105030000E94C4031150A9F7CE01DF91CF911F91B7
:105040000C94E009CF93DF93EC01849A8C9A229A16
:105050002A9A219A299A23982B982B9A0E94F10533
:10506000CE01DF91CF910C94F927CF93DF93EC0120
:105070003E9A469A229A2A9A219A299A23982B98FC
:105080002B9A0E94F105CE01DF91CF910C94F92764
:10509000EF92FF920F931F93CF93DF93F82E192F68
:1050A000E62E042F81E0860F880F0E94080483E01B
:1050B0000E940804CF2DD12FEC0EFD2EF11CCE1531
:1050C000DF05B9F007FF13C0FE0184910E940804B8
:1050D000182F80E00E940804812321968111EFCFD0
:1050E000DF91CF911F910F91FF90EF9008958881EC
:1050F000EDCF81E0F5CFCF93DF93EC01E881F9812B
:105100000280F381E02D0995EA81FB8122813381C0
:105110002817390739F0019719F481E0232B19F486
:1051200080E001C081E0DF91CF9108950F931F933C
:10513000CF93DF93EC01F9018DA5DB018C938EA554
:10514000DA018C939FA59F709130D9F038F092309E
:10515000E9F09430F1F08FE090E015C011821082F8
:105160008FA5807F8038C1F0803CE1F0811120C0A4
:10517000F8011182108281E0DF91CF911F910F9190
:10518000089581E090E091838083EACF82E090E00F
:10519000FACF84E090E0F7CF80E890E0D8018D93DB
:1051A0009C93E9CF80EC90E0F80191838083E3CF7A
:1051B00080EF90E0F3CFE0919604F091970444A142
:1051C00055A1409550959A0154E0369527955A95EA
:1051D000E1F791E029272170332746FF226047FF3E
:1051E000246045FF2860E0916804F0E0EE0FFF1FA7
:1051F000E256FB4F0190F081E02D20533D4FD90145
:105200009C91882311F095830895968308958F9239
:105210009F92BF92CF92DF92EF92FF920F931F93D4
:10522000CF93DF93CDB7DEB729970FB6F894DEBFE3
:105230000FBECDBF8091960490919704DC01ED9153
:10524000FC910680F781E02D0995882309F4AAC016
:1052500081E08093940480919604909197040E9439
:105260001D0B882309F498C00091960410919704AF
:1052700089E0E7EDF1E0DE01119601900D928A954B
:10528000E1F71D820E94F6036B017C01B12CD8016D
:10529000ED91FC910190F081E02DC801099545E068
:1052A000BE016F5F7F4FC8010E9448094C01D801C1
:1052B000ED91FC910280F381E02DC80109958928C8
:1052C00009F0B394B2E0BB1588F06AE070E080E0CA
:1052D00090E00E94C4030E94F6036C197D098E09B8
:1052E0009F096B3F71058105910588F262E370E0CB
:1052F00080E090E00E94C40300919604109197040E
:1053000089E0EEECF1E0DE01119601900D928A95B4
:10531000E1F70E94F6036B017C01B12CD801ED91FD
:10532000FC910190F081E02DC801099545E0BE0196
:105330006F5F7F4FC8010E9448094C01D801ED9171
:10534000FC910280F381E02DC8010995892809F0BC
:10535000B394B2E0BB1588F06AE070E080E090E0C2
:105360000E94C4030E94F6036C197D098E099F09EF
:105370006B3F71058105910588F262E370E080E082
:1053800090E00E94C40381E0F80182AF809196040E
:10539000909197040E9492098091960490919704AD
:1053A0000E94E00929960FB6F894DEBF0FBECDBF6C
:1053B000DF91CF911F910F91FF90EF90DF90CF90F1
:1053C000BF909F908F9008950F93CF93DF93EB0141
:1053D00042E0480F60E084E695E00E94450C209191
:1053E0006905E0916F05F091700500E0309771F06C
:1053F0003396E491F0E0379683E0F595E7958A954A
:10540000E1F7009172050E9F002D1124EFEFE20FDE
:105410000E0F40916A0541506091680584E695E061
:105420000E94A50DCE01DF91CF910F910C948A0DB2
:105430008F92AF92CF92DF92EF92FF920F931F93D2
:10544000CF93DF93EC0140916A05415007E023E0E0
:1054500060E084E695E00E94A50D47E060E084E608
:1054600095E00E94450CFE013297E830F10508F006
:1054700076C0E35CF54D0C944E32AC2A452A742A72
:10548000922AA02AA32AA62AA92A81E694E00E94A9
:105490008A0DC1E0CF938CE3882E9BE3A92ECC2408
:1054A000C394E12CF12C8701E39422E040E360E017
:1054B00080E00E94E90DCF9312E0E12EF12C00E094
:1054C00010E023E046E360E080E00E94E90D0F90E9
:1054D0000F90DF91CF911F910F91FF90EF90DF9090
:1054E000CF90AF908F90089589E594E00E948A0D47
:1054F000C3E1D3E0DD24D394E880F9800A811B81E5
:10550000DF928F80AE80CC24C3942C814D8160E0EB
:1055100080E00E94E90D28960F9083E0CB38D807F1
:1055200059F7D7CF82E594E0DF91CF911F910F918A
:10553000FF90EF90DF90CF90AF908F900C948A0DFA
:105540008DE494E0F1CF83E494E0EECF8DE394E03A
:10555000EBCF84E394E0E8CF86E294E0E5CF81E20C
:1055600094E0E2CF2F923F924F925F926F927F92A0
:105570008F929F92AF92BF92CF92DF92EF92FF9263
:105580000F931F93CF93DF9300D000D0CDB7DEB73A
:10559000B82E2B011A01922E8EE491E09C838B830E
:1055A000D12CFB013297FA83E9836B2C712C660CAA
:1055B000771CC30185579C4F3C01E981FA813297E2
:1055C00070F08FEF8D0D823050F1F5E04F165104E1
:1055D00031F4DD2021F188EF8D0D823000F1EB8177
:1055E000FC81E080F1800281138124814581A680C5
:1055F00087802114310459F0F10184A195A180958F
:1056000090958E219F21CC24C394892B09F4C12C21
:105610009F92F30160818B2D0E94E90D0F90D3942E
:105620008B819C8108969C838B8390E1D912C5CF96
:105630000F900F900F900F90DF91CF911F910F91CE
:10564000FF90EF90DF90CF90BF90AF909F908F90A2
:105650007F906F905F904F903F902F900895FF92B2
:105660000F931F93CF93DF93182FEB01E82FF0E0F8
:10567000EE0FFF1FE557FC4FF08007E023E041816C
:105680006F2D84E695E00E94A50D47E06F2D84E61E
:1056900095E00E94450CC430D105A1F188F4C130D9
:1056A000D10531F18AEE90E0C230D10589F081E276
:1056B00094E0DF91CF911F910F91FF900C948A0D90
:1056C000C530D105A9F087ED90E0C630D10579F756
:1056D0000E948A0D1230C8F421E050E040E0BE0183
:1056E000812FDF91CF911F910F91FF900C94B22ADF
:1056F00080919204811103C084EF90E0E9CF8CEF98
:1057000090E0E6CF8EED90E0E3CFDF91CF911F9157
:105710000F91FF9008955F926F927F928F929F9268
:10572000AF92BF92CF92DF92EF92FF920F931F93AF
:10573000CF93DF93D82EEB01E82FF0E0EE0FFF1FA1
:10574000E557FC4F908007E023E04181692D84E616
:1057500095E00E94A50D47E0692D84E695E00E9442
:10576000450CC330D10509F462C0C0F483ED90E06C
:10577000C230D105E1F081E294E0DF91CF911F9139
:105780000F91FF90EF90DF90CF90BF90AF909F90E0
:105790008F907F906F905F900C948A0DC430D105EC
:1057A00009F448C085EC90E0C530D10521F70E948E
:1057B0008A0D82E0D81659F180E5682E82E0782EB5
:1057C000B12C55245394C230D10549F487E08B1590
:1057D000B8F083E0F301E05AFF4F8B1508F4F301B2
:1057E000E080F180028113815F928780A680CC24C3
:1057F000C39424814581692D8D2D0E94E90D0F9060
:10580000B39488E0680E711C8CE0B812DCCFDF9195
:10581000CF911F910F91FF90EF90DF90CF90BF90AD
:10582000AF909F908F907F906F905F9008958EECD7
:1058300090E0BDCF8AEC90E0BACF8F929F92AF926A
:10584000BF920F931F93CF93DF93CDB7DEB7A1978E
:105850000FB6F894DEBF0FBECDBF19A2423008F4D8
:105860004AE08E010F5D1F4F842E912CB12CA12C8C
:10587000A50194010E940D32E62FB901CA01EA3058
:1058800044F5E05DD801EE938D01232B242B252BCD
:1058900079F790E080E0109769F0FD010190002019
:1058A000E9F73197AF014A1B5B0BBD0184E695E038
:1058B0000E947F05A1960FB6F894DEBF0FBECDBF44
:1058C000DF91CF911F910F91BF90AF909F908F90DC
:1058D0000895E95CD7CFCF92DF92EF92FF92CF93FA
:1058E000DF936C01990FEE08FF08F7FE19C06DE217
:1058F00084E695E00E94530CEC0166277727CB01E4
:105900006C197D098E099F094AE00E941D2C8C0F9D
:105910009D1FDF91CF91FF90EF90DF90CF90089582
:105920004AE0C701B601DF91CF91FF90EF90DF9081
:10593000CF900C941D2CCF92DF92EF92FF921F9389
:10594000CF93DF93ECEBF4E01382128288EEC82E43
:1059500083E0D82EE12CF12CC482D582E682F78236
:105960008FE993E0918380838FEF9FEF9587848702
:10597000E4E6F5E0138212821286148613861586F9
:1059800081E0868781EB93E091838083E5E5F5E014
:10599000138214828AE0EAE5F5E0DF01282F1D92E8
:1059A0002A95E9F7E6E4F5E013821482EBE4F5E0EA
:1059B000DF011D928A95E9F7E4E4F5E08EE7808344
:1059C000118282E490E00E94683212E4FC01212FEF
:1059D00011922A95E9F72DED33E0DC012D933C93EC
:1059E000C0E4D5E09983888382E490E00E94683225
:1059F000FC0111921A95E9F721ED33E0DC012D93BA
:105A00003C939B838A8388E090E00E94683225E182
:105A1000FC012783CCE3D5E09983888388E090E07C
:105A20000E94683225E0DC0117962C939B838A83C1
:105A3000ECE0F5E013821282C482D582E682F7821E
:105A40008FEB93E091838083DF91CF911F91FF9043
:105A5000EF90DF90CF900895CF93DF93CDB7DEB76F
:105A6000C659D1090FB6F894DEBF0FBECDBF7894EA
:105A700084B5826084BD84B5816084BD85B5826053
:105A800085BD85B5816085BD80916E008160809304
:105A90006E0010928100809181008260809381006D
:105AA000809181008160809381008091800081607D
:105AB000809380008091910082608093910080911A
:105AC000910081608093910080919000816080932B
:105AD00090008091C10084608093C1008091C100DA
