:100000000C945F020C9487020C9487020C94870274
:100010000C9487020C9487020C9487020C9487023C
:100020000C9487020C9487020C94FD250C946C268A
:100030000C9487020C9487020C9487020C9487021C
:100040000C9487020C9487020C9487020C9487020C
:100050000C9487020C9487020C9487020C94B325AD
:100060000C9487020C9487020C9487020C948702EC
:100070000C9487020C9487020C9487020C948702DC
:100080000C9487020C9487020C9487020C948702CC
:100090000C9487020C9487020C9487020C948702BC
:1000A0000C9487020C9487020C948702AED580A82A
:1000B0003FD300408D142002A1C8DA12817FD9F10C
:1000C000DB40A4A6AF56424F59004E545400534E45
:1000D0004553004E4553004A4F47434F4E00464C50
:1000E00049474854535449434B004455414C5348A5
:1000F0004F434B004E4547434F4E00504144004E46
:100100003634004A4147554152004E454F2D474530
:100110004F002B4E4547002B4A4F47002B47554E6B
:1001200000505358004E4553202B20534E4553004A
:1001300052414E4745200053502053544550200013
:10014000464F524345200046414B45205350494EAF
:100150004E455200574845454C00504144444C459B
:10016000005350494E4E4552005920005820004F30
:1001700055545055542044495341424C454400582D
:100180002000434F4E4649470047554E434F4E00CF
:100190005245424F4F54494E472E2E2E00504C553B
:1001A000472B5245534554004D554C54492D54410D
:1001B000500000030C0F30333C3FC0C3CCCFF0F3F2
:1001C000FCFF0000000200090F0000030401000C06
:1001D000000000000000000000000000000000001F
:1001E00000080B00020202000009040000010202E4
:1001F0000000052400100105240101010424020669
:1002000005240600010705810310004009040100D0
:10021000020A0000000705020240000007058302F1
:100220004000000403090412010002EF020140D063
:10023000167E12000101020301556E6B6E6F776E20
:10024000005265666C6578204164617074005245A7
:10025000464C4558000000050720610000000000E2
:1002600000005F000060707870606050485060036C
:10027000070F07030305090503081C3E7F7F081CC1
:1002800022417F7F7F3E1C087F41221C08082A1CD8
:100290002A0808083E08080050300000080808082E
:1002A00008006060000020100804023E5149453EED
:1002B00000427F400042615149462141454B31187F
:1002C00014127F1027454545393C4A494930017190
:1002D0000905033649494936064949291E0036367B
:1002E00000003C7E7E7E3C3C4242423C141414148E
:1002F00014F0F0F0F0F0F0909090F0324979413E37
:100300007E1111117E7F494949363E414141227F8C
:100310004141221C7F494949417F090901013E4170
:100320004151327F0808087F00417F410020404151
:100330003F017F081422417F404040407F02040279
:100340007F7F0408107F3E4141413E7F0909090635
:100350003E4151215E7F09192946464949493101EB
:10036000017F01013F4040403F1F2040201F7F2070
:1003700018207F631408146303047804036151494F
:10038000454300007F4141020408102041417F00A5
:1003900000383C1E0F0740404040403824120907F7
:1003A00020545454787F48444438384444442038D6
:1003B0004444487F3854545418087E0901020814F4
:1003C00054543C7F0804047800447D40002040449D
:1003D0003D00007F10284400417F40007C04180449
:1003E000787C0804047838444444387C1414140895
:1003F000081414187C7C080404084854545420043D
:100400003F4440203C4040207C1C2040201C3C407D
:1004100030403C44281028440C5050503C44645414
:100420004C44E0E0E0E0E000007F0000E0A0A0A09D
:10043000E008082A1C08081C2A0808000609090602
:10044000AC001980400000000000230026002900B5
:100450002C002F004E4F4E45004449474954414C13
:100460000000000000250028002B002E00310000B5
:10047000000000240027002A002D0030000404049E
:10048000040403040502020202040302020202063B
:100490000606060606040402020204040408020119
:1004A00010408040102040804080080204018040BD
:1004B0002010020110801020404020007F2C1124C9
:1004C0001FBECFEFDAE0DEBFCDBF14E0A0E0B1E0A9
:1004D000EAEDF8E602C005900D92A03DB107D9F70C
:1004E00026E0A0EDB4E001C01D92A031B207E1F713
:1004F00012E0CFE5D2E004C02197FE010E9417333D
:10050000CE35D107C9F70E94072D0C946B340C949B
:100510000000FC01A385B485109771F4748763878C
:1005200085859685DB0114962D913C91820F931F52
:10053000968785870895DC018D919C91119700978E
:10054000D1F76D937C93ECCF90E0FC01E456FB4F28
:10055000249183589B4FFC018491882399F090E06B
:10056000880F991FFC01E159FB4FA591B491FC0143
:10057000EF59FB4F859194918FB7F894EC91E22B52
:10058000EC938FBF0895CF93DF93FA013081322B24
:100590003083DB013C91322B3C9340816081422BC4
:1005A00050E030E02095309570E02623372361E05D
:1005B000EC01A99178E02083AA0F40F4B4E0BA9549
:1005C000F1F74083BAE0BA95F1F705C0BEE0BA95FD
:1005D000F1F7000040837A9529F0B3E0BA95F1F77E
:1005E0000000E9CF6A9529F0B1E0BA95F1F7000073
:1005F000E0CFB2E0BA95F1F7000000002083B4E04C
:10060000BA95F1F7000000004083DF91CF91089583
:10061000FC0180916405882311F13FB7F89482E0D2
:100620008093E9002091F200822F90E018161906BD
:1006300014F481E090E0882339F0289844E6409350
:1006400063054091F1004083222339F02091F200AC
:10065000211103C02BE62093E8003FBF08958FEFE0
:100660009FEF0895CF93DF931F92CDB7DEB76983D5
:10067000DC01ED91FC910280F381E02D41E050E03E
:10068000BE016F5F7F4F09950F90DF91CF91089565
:1006900083E08093E9008091F200882319F08AE3D7
:1006A0008093E8000895CF93DF931F92CDB7DEB714
:1006B000FC018485958597FD08C02FEF3FEF3587B6
:1006C00024870F90DF91CF910895CE0101960E946B
:1006D0000803019719F4898190E0F3CF8FEF9FEF22
:1006E000F0CF0F931F93CF93DF931F92CDB7DEB759
:1006F0008C01FC018485958597FF0BC0CE01019686
:100700000E940803019771F4898190E0F8019587B0
:100710008487F801848595850F90DF91CF911F9193
:100720000F9108958FEF9FEFF1CFFC0184859585A0
:1007300097FD0BC09FB7F89482E08093E900809109
:10074000F2009FBF90E0019608959FB7F89482E071
:100750008093E9008091F2009FBF90E008953FB739
:10076000F89480915F0590916005A0916105B0912A
:10077000620526B5A89B05C02F3F19F00196A11D63
:10078000B11D3FBFBA2FA92F982F8827BC01CD01DB
:10079000620F711D811D911D42E0660F771F881F3A
:1007A000991F4A95D1F708958F929F92AF92BF9269
:1007B000CF92DF92EF92FF924B015C010E94AF0358
:1007C0006B017C010E94AF036C197D098E099F09A2
:1007D000683E734081059105A8F321E0821A9108D3
:1007E000A108B10888EEC80E83E0D81EE11CF11CF8
:1007F00081149104A104B10429F7FF90EF90DF90D8
:10080000CF90BF90AF909F908F9008952FB7F8949E
:1008100060915B0570915C0580915D0590915E052E
:100820002FBF0895FC018FE08583168217820895FB
:1008300040913405509135052091320530913305B2
:1008400042175307B4F49091E8009570E1F390914A
:10085000E80092FD19C08093F100809134059091D9
:10086000350501968F739927892B19F48EEF8093A4
:10087000E8008091340590913505019690933505F7
:100880008093340581E0089580E00895EF92FF920F
:100890000F931F93CF93DF93F82E192FE62E042F7B
:1008A00081E0860F880F0E94180483E00E941804DC
:1008B000CF2DD12FEC0EFD2EF11CCE15DF05B9F09A
:1008C00007FF13C0FE0184910E941804182F80E0D6
:1008D0000E941804812321968111EFCFDF91CF91DF
:1008E0001F910F91FF90EF9008958881EDCF81E0E7
:1008F000F5CFDF92EF92FF920F931F93CF93DF9389
:10090000D82E8A01EB017B01E40EF51ECE15DF0522
:1009100059F0D7FE12C0FE0184910E94180421965E
:100920008111F4CF0FEF1FEFC801DF91CF911F911D
:100930000F91FF90EF90DF9008958881EECF2FB751
:10094000F89487708093E9009091E800892F807275
:1009500095FF04C09091F20080E4891B2FBF089599
:1009600083E00E949F0490E008957F928F929F926F
:10097000AF92BF92CF92DF92EF92FF920F931F93AD
:10098000CF93DF93C82E8B017A018091640581118A
:1009900010C08FEF9FEFDF91CF911F910F91FF90CC
:1009A000EF90DF90CF90BF90AF909F908F907F900F
:1009B00008958091380580FF05C08091E000826035
:1009C0008093E000CE2DDF2DD12C8AEFB82E8C2D18
:1009D0008770982E8C2D8072882E8C2D8074782EA6
:1009E0009AE3A92E209719F4DD2009F452C08C2D2A
:1009F0000E949F0481110AC0BA94BB2051F261E0A9
:100A000070E080E090E00E94D403ECCF8C171D06CC
:100A100011F00CF08C2F9FB7F8949092E900209180
:100A2000E80025FD02C09FBFDDCF282F30E0C21BAC
:100A3000D30B882029F08150A0F01092F100FBCF59
:100A4000F801C7FC0AC0815050F041914093F10079
:100A5000FACF44914093F10031968150D0F7020FC4
:100A6000131FDD2021F0A092E800D12CDCCF809173
:100A7000E80085FD07C0A092E800DD24D39420970C
:100A800091F2F3CF209779F6772069F2A092E800EF
:100A9000CACF5D9884E680933705C7017CCFCF939A
:100AA000DF93EC0180913A01882331F083E00E94CA
:100AB000B5041816190634F081E090E09B838A8310
:100AC00080E090E0DF91CF910895615030F0209167
:100AD000F100FC0120830196F8CF289884E68093EA
:100AE00063050895AF92BF92CF92DF92EF92FF928B
:100AF0000F931F93CF93DF936C017B018B01040F46
:100B0000151FEB015E01AE18BF08C017D10759F0E1
:100B10006991D601ED91FC910190F081E02DC60123
:100B20000995892B79F7C501DF91CF911F910F911D
:100B3000FF90EF90DF90CF90BF90AF90089580919D
:100B40002A0581110DC082E08093260584E0809300
:100B50002705109229051092280581E080932A0527
:100B600086E295E008950F931F93CF93DF931F9232
:100B7000CDB7DEB782E0898342E450E061EE71E0F8
:100B800080E80E9479040E949F05DC0112960D9175
:100B90001C910115110589F0D801ED91FC9102809D
:100BA000F381E02DBE016F5F7F4FC801099597FD6E
:100BB00004C0F80100851185ECCF89810F90DF9189
:100BC000CF911F910F910895CF93CFB7F894809153
:100BD000250581115AC04EE854E0FA0194912DEA9E
:100BE00034E0F9018491E92FF0E0EE0FFF1FE159A5
:100BF000FB4FA591B4919C91982309F037C0E3ED88
:100C0000F1E09491F9012491FA018491882309F487
:100C10002DC09923E9F091509F30D0F4E92FF0E0F6
:100C2000EC5EF94F0C9417335506590623064D0612
:100C300051062806280628065C06620666066A062D
:100C4000700628067406909180009F77909380002C
:100C5000E82FF0E0EE0FFF1FEF59FB4FA591B49185
:100C60008FB7F8949C91292B2C938FBF81E10E9420
:100C7000A4028CB580618CBD8CB580648CBD8FE086
:100C80000E94A40280E10E94A402809125058F5F4A
:100C900080932505CFBFCF910895909180009F7DCF
:100CA000D5CF90918000977FD1CF94B59F7794BD99
:100CB000CFCF94B59F7DFBCF909190009F7790937D
:100CC0009000C6CF909190009F7DF9CF90919000B9
:100CD000977FF5CF9091C0009F779093C000B8CFD9
:100CE0009091C0009F7DF9CF9091C200977F909323
:100CF000C200AECFCF93DF93EC018A85882329F021
:100D000081508A87DF91CF9108959C818E819817B9
:100D1000C8F78D856827E881F9810084F185E02D89
:100D200042E0CE0109958C818F5F8C83EBCFEF92EF
:100D30000F931F93F901DA012C913E2D3095322348
:100D40003C9330813E293083FC01D80198E080E05B
:100D500030E020E04C914E2189F02A95D9F720E02F
:100D60004C914E2159F02A95D9F720E84C914E210B
:100D700029F02A95D9F73A9561F717C047E04A95C7
:100D8000F1F7000031E0550F4C914E2109F0516010
:100D90009A9529F45193839598E0681731F020E8EB
:100DA0004C914E2111F72A95D9F71F910F91EF9091
:100DB00008959F92AF92BF92CF92DF92EF92FF92EF
:100DC0000F931F93CF93DF93DB016A01F22E282F3D
:100DD00030E0F901E456FB4FE49023583B4FF90112
:100DE000249130E0220F331FF901E159FB4FC591E7
:100DF000D491F901EF59FB4FA590B490F901EA5B4A
:100E0000FB4F059114919FB6F8942E2DA501BE01BC
:100E1000CD010E94C3029501AE016F2DC6010E9453
:100E200097069FBEDF91CF911F910F91FF90EF909A
:100E3000DF90CF90BF90AF909F900895FC018FE01E
:100E400086838FE7878380871186128613860895AD
:100E5000FC01138214821582168217820895DC0128
:100E6000FB0112962C9112978481958128171906FF
:100E700041F491818081813A31F49D7F81E091300C
:100E800009F080E008958132E1F79B3029F48281F6
:100E90001F968C9381E008959A3099F7828150963D
:100EA0008C93F8CFEF92FF920F931F93CF93DF9322
:100EB000FB012081213889F52381223271F5DC0183
:100EC00012964C91248135814217130631F58C011D
:100ED000FC01C385D485F12CE12C209791F04C8145
:100EE0005D816A817B818E81811180E80E94790415
:100EF0008F3F980759F0E80EF91E0990D881C02D50
:100F0000ECCF81E0D8011F968C93C701DF91CF9180
:100F10001F910F91FF90EF90089590E080E0F6CF41
:100F2000CF93DF93CDB7DEB769970FB6F894DEBFE6
:100F30000FBECDBFFC01DB018C918F5F8C939E01B6
:100F40002D5F3F4F8DE0D9011D928A95E9F729E089
:100F5000298384E08A8391E09D8383E08E832A87BE
:100F600021E22B879C879D879F8722E2288B27E0A1
:100F70002B8B25E02C8B8E8B20E430E0388F2F8B51
:100F8000998F82818B8395858685998B8A8B8381C6
:100F900080688D8B49E150E0BE016F5F7F4F80E03C
:100FA0000E94790469960FB6F894DEBF0FBECDBFDC
:100FB000DF91CF9108958FB7F894809122058FBF6C
:100FC000089584E98093BC0085E69091BC0094FF6D
:100FD00003C08150D1F7089581E008956EBD0000EF
:100FE0000DB407FEFDCF8EB508952A9A299A8C9AE2
:100FF00083EC90E00197F1F708952A9A299A469A8E
:1010000083EC90E00197F1F7089580915805909155
:1010100059050196863091052CF4909359058093DB
:101020005805089581E090E0F8CFCF93DF93909139
:1010300032018917B0F4C82FD0E0CC0FDD1FC45B9C
:10104000DA4F88819981DC01ED91FC910190F0816A
:10105000E02D0995E881F9818FE787838087818773
:101060008287DF91CF9108950F931F93CF93DF93E2
:101070001F92CDB7DEB78C01FC0180819181892B55
:10108000D1F48781198223E0A801BE016F5F7F4FF1
:101090000E94D906833059F0F80110821182128221
:1010A00080E00F90DF91CF911F910F9108958BE811
:1010B00091E00197F1F7F801878191E0998324E0AD
:1010C000A8014D5F5F4FBE016F5F7F4F0E94D90641
:1010D000843011F781E0E5CF90913201891778F4DF
:1010E000E82FF0E0EE0FFF1FE45BFA4F8081918163
:1010F000DC01ED91FC910190F081E02D09940895BF
:101100008CBD9DBD08958C988091DA059091DB058A
:101110000E94800883EC90E00197F1F708954698CB
:101120008091DA059091DB050E94800883EC90E0C5
:101130000197F1F708958F929F92AF92BF92CF924D
:10114000DF92EF92FF920F931F93CF93DF937C0177
:101150006B015A01022F10E0D0E0C0E083EC882E32
:10116000912CC017D107E1F0D701ED91FC910480DB
:10117000F581E02D6AE5C114D10421F0D601AC0F50
:10118000BD1F6C91C7010995A114B10421F0F501AF
:10119000EC0FFD1F8083C4010197F1F72196E1CF89
:1011A000DF91CF911F910F91FF90EF90DF90CF9043
:1011B000BF90AF909F908F900895CF92DF92EF9263
:1011C000FF920F931F93CF93DF937C016B01D42F7A
:1011D0008C010E5F1F4F23E0A8010E949B08F701BE
:1011E00023812F3F61F410E000E0C801DF91CF912F
:1011F0001F910F91FF90EF90DF90CF900895848121
:101200008A3511F08111EFCF2F70C22FCC0FD33060
:1012100059F0B6016D5F7F4F2DEF2D0FA7014B5F8A
:101220005F4FC7010E949B082C2F2D1B2D5FE9F2F9
:101230004D2F50E0CA01820F911D8197A4F6400FF7
:10124000511F70E060E0C7010E949B08CECFCF9293
:10125000DF92EF92FF920F931F93CF93DF93EC01F6
:101260000E9406046B017C01E881F9810190F08104
:10127000E02DCE01099544E06AE571E0CE010E94BF
:10128000DD088C01E881F9810280F381E02DCE0137
:1012900009950115110529F0F8018181807F803FB2
:1012A00011F56AE070E080E090E00E94D4030E94B3
:1012B00006046C197D098E099F096B3F7105810534
:1012C000910590F2C0E062E370E080E090E00E945F
:1012D000D4038C2FDF91CF911F910F91FF90EF904E
:1012E000DF90CF900895C1E0EECFEF92FF920F9381
:1012F0001F93CF93DF9300D000D01F92CDB7DEB7FE
:101300008C01DC019C961C929C97D9961C92D997D3
:10131000ED91FC910190F081E02D0995F80182ADED
:10132000811108C083AD803409F045C084AD81309F
:1013300009F041C085E0E3E6F1E0DE01119601909D
:101340000D928A95E1F7D80196968D919C91979789
:10135000069759F5DD968C918C8345E0BE016F5F51
:101360007F4FC8010E94DD087C01D801ED91FC91FE
:101370000280F381E02DC8010995E114F10441F0E8
:10138000F7018181807F803FD1F4C8010E94270945
:1013900080E00F900F900F900F900F90DF91CF9102
:1013A0001F910F91FF90EF900895F80183AD8C830A
:1013B00084AD8D83D2CF43E063E671E0D2CFD80114
:1013C00094968D919C91959793969C938E939297DA
:1013D0002381348195963C932E939497818189370C
:1013E000B9F483E090E097969C938E939697D801FA
:1013F00096968D919C9197978430910591F150F537
:101400008230910571F1039709F441C081E0C1CFA9
:10141000982F907F903721F482E090E0D801E3CFBD
:10142000903531F484E090E0F80197A386A3DFCFF4
:10143000833219F485E090E0F1CF903E19F486E014
:1014400090E0F2CF833619F487E090E0E7CF81E0B7
:1014500090E0EACF8630910509F45CC030F107973F
:10146000A9F681E0D8019C968C939C97F701858121
:101470009A968C939A9786819B968C939B9787815B
:1014800098968C939897808599968C93BFCF81E09E
:10149000F80181AFF70139969D96C70145962191D4
:1014A0002D93E817F907D9F7DCCF81E09C968C9350
:1014B0009C97F701958198969C939897D9968C93D1
:1014C000D9978681D3968C93D3979781D4969C9302
:1014D000D4974085D5964C93D59797FF05C03F7715
:1014E00095963C932E93949787FF0AC0D8019496C3
:1014F0008D919C9195979F7B95969C938E939497B5
:10150000403F08F483CFF80184A195A19B7F95A368
:1015100084A37CCF81E09C968C93F7019681858192
:1015200097FD1AC087FD8FE7D80198968C93D80154
:1015300098968C919897805898968C939897F701E5
:1015400085819D968C939D9786819E968C939E9780
:1015500087819F968C935ACF813808F481E8F801EF
:1015600080A7E5CFCF92DF92EF92FF920F931F9368
:10157000CF93DF93EC010E9406046B017C01E881AC
:10158000F9810190F081E02DCE01099544E061E5FB
:1015900071E0CE010E94DD088C01E881F9810280B2
:1015A000F381E02DCE0109950115110529F0F8010F
:1015B0008181807F803F11F16AE070E080E090E0FF
:1015C0000E94D4030E9406046C197D098E099F09AC
:1015D0006B3F71058105910590F2C0E062E370E018
:1015E00080E090E00E94D4038C2FDF91CF911F9177
:1015F0000F91FF90EF90DF90CF900895C1E0EECF74
:10160000FC019081911107C0838194810196B1F012
:1016100090E080E008959F3051F4228130E02F70F7
:1016200033272F30310581F482E090E00895923025
:1016300041F0943049F485E090E0089583E090E033
:10164000089584E090E0089581E090E00895FC0121
:101650006093BC002FEF3FEF8091BC0087FF06C076
:101660009091B900987F908381E0089521503109CD
:1016700099F780E00895CF93DF93EC016093BB006E
:1016800064E80E94270B882329F081E09881983232
:1016900009F080E0DF91CF910895DF92EF92FF9201
:1016A0000F931F93CF93DF93EC01D62EF42E8989ED
:1016B000882329F0411103C00E94E107198A8E0195
:1016C000015F1F4F8989811119C0E88864EAC80148
:1016D0000E94270B882361F08F85883011F08031BC
:1016E00039F4EE0CE092BB0064E8C8010E94270BBD
:1016F00060E0F11060E4C8010E943B0B6D2DC80151
:101700000E943B0B82E0F8120BC089898F5F898BA6
:10171000DF91CF911F910F91FF90EF90DF9008958F
:101720000E94E107198AF4CFDC01ED91FC9100845D
:10173000F185E02D40E00994FC012781269526954E
:101740002695621720F46583606B0C94940B0895C2
:101750000F931F93CF93FC012681621798F4C62F35
:101760008C0164836085C60F6C2F6F700E94940B90
:101770006C2F62956F706061C801CF911F910F91BE
:101780000C94940BCF911F910F9108951F93CF93B9
:10179000DF93EC01142F0E94A80B612FCE01DF9183
:1017A000CF911F910C949C0B2F923F924F925F927E
:1017B0006F927F928F929F92AF92BF92CF92DF9261
:1017C000EF92FF920F931F93CF93DF9300D000D03F
:1017D00000D0CDB7DEB7FC01238534852115310556
:1017E00009F416C19E838D83F90132966490319677
:1017F0004491E42EF12CF7E0EF0EF11C53E0F59448
:10180000E7945A95E1F7E982F901349654913196BB
:10181000E4916D30F1F460E00E94A80B81E090E06B
:1018200026960FB6F894DEBF0FBECDBFDF91CF91E5
:101830001F910F91FF90EF90DF90CF90BF90AF90EE
:101840009F908F907F906F905F904F903F902F90E0
:1018500008956A3081F460E08D819E810E94A80B1A
:10186000ED81FE81868565818E9D600D1124CF01FD
:101870000E949C0BD3CF651708F4CAC08E2F90E04E
:10188000FC01E50FF11D6E171F060CF0C1C08901A8
:101890000A5F1F4F651BED81FE8171855685759F1F
:1018A000502D11245C83F90154912F5F3F4FF901B2
:1018B0002491352F2230310508F06AC06E9CC0019A
:1018C0006F9C900D1124689FF001699FF00D112409
:1018D0000E0F1F1F512CED81FE81F481FA83ED81E3
:1018E000FE812580F285FB83862C912CAA24A3946B
:1018F000B12C312C8981381608F086C0412CED813D
:10190000FE818685481608F078C08B818287311069
:1019100002C0442041F0ED81FE8145814F5F6A8124
:10192000CF010E94C60BD12CC12CC61408F058C0A0
:10193000F801EC0DFD1D7490552061F0EA14FB04D4
:1019400049F4E72DF0E0052C02C0F595E7950A94DF
:10195000E2F77E2EED81FE818685823081F444207F
:1019600009F43AC072948FE07822E72DF0E0EE544B
:10197000FE4F7490672D8D819E810E947A06672D9F
:101980008D819E810E947A068FEFC81AD80ACDCF2A
:10199000477028E0522E541A411101C0512CF80111
:1019A000612C30E020E0661631F04491240F311DA7
:1019B00063943196F8CF600E712E711CF301649020
:1019C000E29EF001E39EF00DF29EF00D11248E0FC9
:1019D0009F1F080F191F7FCFF72DFF707F2EC5CFD8
:1019E000D12CEC81DE1639F060E08D819E810E9461
:1019F0007A06D394F6CF439482CF3394080D191D01
:101A0000FFEFAF1ABF0A76CF622D8D819E8130CF56
:101A100090E080E005CF0F931F93CF93DF938C016D
:101A2000D0E0C0E0F801EC0FFD1F6491662341F0A7
:101A30008AEF95E00E94D40B892B11F02196F2CF0A
:101A4000CE01DF91CF911F910F910895CF92DF9238
:101A5000EF92FF920F931F93CF93DF93EC01F62E3B
:101A6000C42ED22E1A868F81869586958695081764
:101A700010F00FEF080F1D2D011780F0412F6F2D73
:101A8000CE010E94C60BEF2CCE1430F06D85CE0136
:101A90000E947A06E394F8CF1F5FEECF4D2D6F2D95
:101AA000CE01DF91CF911F910F91FF90EF90DF90CA
:101AB000CF900C94C60B0F93FC01078106950695F9
:101AC000069501504681415020E060E00E94260DBD
:101AD0000F9108954F925F926F927F928F92AF9283
:101AE000CF92EF92FF920F931F93CF93DF93CDB7D7
:101AF000DEB72701380194E0899F80011124F801A5
:101B0000E053FB4F80819181A281B3818E21952189
:101B1000A621B72131E0892B8A2B8B2B09F430E0E9
:101B20003C1103C08889882301F1C11001C0A82C91
:101B30002D5F640F422F8AEF95E00E94C60B6A2D3D
:101B40008AEF95E00E94D40BF801E053FB4FCC20C4
:101B5000D1F080819181A281B38184299529A62920
:101B6000B72980839183A283B383DF91CF911F91A3
:101B70000F91FF90EF90CF90AF908F907F906F90EC
:101B80005F904F9008954094509460947094808139
:101B90009181A281B38184219521A621B721E1CF32
:101BA0002F923F924F925F926F927F928F92AF925D
:101BB000CF92DF92EF92FF920F931F93CF93DF9319
:101BC0003C01D62ECFE6D3E0E880F9800A811B8164
:101BD0009C814D81AE808F8081E06114710479F029
:101BE000F30122803380448055802E203F20402204
:101BF000512281E023282428252809F080E0DF9263
:101C0000C82E292F60E080E00E946A0D28960F9070
:101C1000F4E0C731DF07C1F6DF91CF911F910F913B
:101C2000FF90EF90DF90CF90AF908F907F906F906C
:101C30005F904F903F902F9008950F93CF93DF9335
:101C4000EC0107E023E04CE360E08AEF95E00E94BE
:101C5000260D47E060E08AEF95E00E94C60B2297D0
:101C600061F489E594E00E940B0D61E090E080E072
:101C7000DF91CF910F910C94D00D84E594E0DF912A
:101C8000CF910F910C940B0D8F929F92AF92BF92B8
:101C9000CF92DF92EF92FF920F931F93CF93DF9338
:101CA000D82EC62FE82FF0E0EE0FFF1FE559FC4FAE
:101CB000B08007E023E041816B2D8AEF95E00E9420
:101CC000260D47E06B2D8AEF95E00E94C60BC130D0
:101CD00069F58BEF90E00E940B0D81E08D15C8F047
:101CE000CAEFD1E099249394E880F9800A811B819E
:101CF0009F928F80AE80CC24C3942C814D816B2D1C
:101D00008D2D0E946A0D28960F9082E0CA36D80762
:101D100059F7DF91CF911F910F91FF90EF90DF90D6
:101D2000CF90BF90AF909F908F90089584E594E0FE
:101D3000DF91CF911F910F91FF90EF90DF90CF90A7
:101D4000BF90AF909F908F900C940B0D0F9307E076
:101D500022E04FE760E08AEF95E00E94260D809137
:101D60005805909159058330910599F138F48130E7
:101D7000910589F00297C9F00F910895843091057B
:101D800081F10597C9F766E38AEF95E00E94A80BF9
:101D90008FEF90E007C064E28AEF95E00E94A80B05
:101DA00085E291E00F910C940B0D62E18AEF95E0D2
:101DB0000E94A80B81E291E00E940B0D8CE191E062
:101DC0000E940B0D87E191E00E940B0D82E191E0F2
:101DD000E9CF6AE28AEF95E00E94A80B8AE091E0E1
:101DE000E1CF6AE28AEF95E00E94A80B83E091E0E0
:101DF000D9CF809312016EEA81116FEA8AEF95E0E4
:101E00000E94940B0E9406046093050570930605DA
:101E100080930705909308050895FC01448550E0E0
:101E2000A585B0E0AA0FBB1FAB59BA4F0D90BC916E
:101E3000A02D13968C91806490916905BF01992320
:101E400021F06E5F7F4F0C94B5046D5F7F4FFBCF29
:101E5000089590E080E00895CF92DF92FF920F9373
:101E60001F93CF93DF936C0170E06F5F7F4F759589
:101E7000679590912305961758F090912405FF24BB
:101E8000F39401E010E0961730F082E0F82E6AC07B
:101E9000F12C10E000E0F801ED5DFA4F81E0890FD0
:101EA000808391115FC083E190E00E943133EC01A7
:101EB00091E09C839D839E01265F3F4F3F832E834D
:101EC000198618862EE433E0398328831C861B8606
:101ED0001E861D869F87988BDA8AC98A81EC8A873D
:101EE0000E949F05FC0181813C81682F630F772749
:101EF000771F683071057CF5A281B3811097F9F4E2
:101F0000D383C28390819A838B838D81890F808351
:101F100090E080E08317F8F42181A22FB0E0BD01AA
:101F20006B5D7E4F4E815F81480F591FDA014C91E6
:101F3000DB014C932F5F21830196ECCFDA011896D9
:101F40004D915C91199741155105C1F71996DC9394
:101F5000CE931897D7CF000F111FF801EB59FA4F06
:101F6000D183C0838F2DDF91CF911F910F91FF906F
:101F7000DF90CF9008954F925F926F927F928F92F1
:101F80009F92AF92BF92CF92DF92EF92FF920F9308
:101F90001F93CF93DF93CDB7DEB7C456D1090FB6E9
:101FA000F894DEBF0FBECDBF3C01CB01D42EF22E84
:101FB000E896BFACE897E9969FACE9972BE134E04F
:101FC000D3012D933C936F2D0E942C0F182FF301FA
:101FD000858781E08F1508F080E08093690581E2B4
:101FE00094E0D30111969C938E931296DC922C2D43
:101FF0002A0D2E0D200FBB2DB90D5B2E580C822FF4
:10200000850D95E0980FF301948735E0398391E0D1
:102010009A8349E04B833C8331EA3D839E839F153D
:1020200008F0E7C385E88F83D88698E0E1E0F0E028
:10203000EC0FFD1FE90FF11D45E04083E1E0E90FE2
:1020400066246394712C6C0E7D1E6E0E711CF30160
:1020500059E05083E2E0E90F61E070E06C0F7D1F12
:102060006E0F711DFB0189E18083E3E0E90FA1E0C0
:10207000B0E0AC0FBD1FAE0FB11DFD0131E03083EC
:10208000E4E0E90F66246394712C6C0E7D1E6E0EE5
:10209000711CF30189E28083E5E0E90F61E070E003
:1020A0006C0F7D1F6E0F711DFB0188E18083E6E0E0
:1020B000E90FA1E0B0E0AC0FBD1FAE0FB11DFD01F7
:1020C00075E1472E4082E7E0E90F66246394712CA6
:1020D0006C0E7D1E6E0E711CF3011082E8E0E90F9C
:1020E00061E070E06C0F7D1F6E0F711DFB01A5E2BA
:1020F000FA2EF082E9E0E90FA1E0B0E0AC0FBD1FDD
:10210000AE0FB11DFD013083EAE0E90F6624639450
:10211000712C6C0E7D1E6E0E711CF30175E77083C1
:10212000EBE0E90FA1E0B0E0AC0FBD1FAE0FB11DB9
:10213000FD013083ECE0E90F66246394712C6C0E92
:102140007D1E6E0E711CF30165E96083EDE0E90F01
:10215000A1E0B0E0AC0FBD1FAE0FB11DFD0180834B
:10216000EEE0E90F66246394712C6C0E7D1E6E0EFA
:10217000711CF30181E88083EFE0E90FA1E0B0E09A
:10218000AC0FBD1FAE0FB11DFD01A2E0DA2ED08253
:10219000E0E1E90F66246394712C6C0E7D1E6E0ED7
:1021A000711CF3014083E1E1E90FA1E0B0E0AC0F65
:1021B000BD1FAE0FB11DFD013083E2E1E90F6624C2
:1021C0006394712C6C0E7D1E6E0E711CF301508396
:1021D000E3E1E90FA1E0B0E0AC0FBD1FAE0FB11D10
:1021E000FD0149E34083E4E1E90F66246394712C27
:1021F0006C0E7D1E6E0E711CF3014082E5E1E90F4D
:10220000A1E0B0E0AC0FBD1FAE0FB11DFD0110820B
:10221000E6E1E90F66246394712C6C0E7D1E6E0E50
:10222000711CF301F082E7E1E90FA1E0B0E0AC0F2F
:10223000BD1FAE0FB11DFD0147E04083E8E1E90F8E
:1022400066246394712C6C0E7D1E6E0E711CF3015E
:1022500045E34083E9E1E90FA1E0B0E0AC0FBD1F29
:10226000AE0FB11DFD011082EAE1E90F662463940F
:10227000712C6C0E7D1E6E0E711CF30146E44083C2
:10228000EBE1E90FA1E0B0E0AC0FBD1FAE0FB11D57
:10229000FD014BE34083ECE1E90F66246394712C6C
:1022A0006C0E7D1E6E0E711CF3013083EDE1E90FA3
:1022B000A1E0B0E0AC0FBD1FAE0FB11DFD0145E6C2
:1022C0004083EEE1E90F66246394712C6C0E7D1E51
:1022D0006E0E711CF30144E14083EFE1E90FA1E0D0
:1022E000B0E0AC0FBD1FAE0FB11DFD017083E0E289
:1022F000E90F66246394712C6C0E7D1E6E0E711CAA
:10230000F30148E04083E1E2E90FA1E0B0E0AC0F67
:10231000BD1FAE0FB11DFD016083E2E2E90F66242F
:102320006394712C6C0E7D1E6E0E711CF301308354
:10233000E3E2E90FA1E0B0E0AC0FBD1FAE0FB11DAD
:10234000FD018083E5E2E90F84E2890F662463944E
:10235000712C6C0E7D1E680E711CD301DC92222341
:1023600009F400C166246394712C6C0E7D1E6E0E00
:10237000711CF3015083E6E2E90FA1E0B0E0AC0F7D
:10238000BD1FAE0FB11DFD013083E7E2E90F6624EA
:102390006394712C6C0E7D1E6E0E711CF3014082D5
:1023A000E8E2E90FA1E0B0E0AC0FBD1FAE0FB11D38
:1023B000FD011082E9E2E90F66246394712C6C0E32
:1023C0007D1E6E0E711CF30186E28083EAE2E90F46
:1023D000A1E0B0E0AC0FBD1FAE0FB11DFD018FEF4E
:1023E0008083EBE2E90F66246394712C6C0E7D1EF2
:1023F0006E0E711CF3011082ECE2E90FA1E0B0E077
:10240000AC0FBD1FAE0FB11DFD017083EDE2E90FF2
:1024100066246394712C6C0E7D1E6E0E711CF3018C
:102420004083EEE2E90FA1E0B0E0AC0FBD1FAE0FBC
:10243000B11DFD016083EFE2E90F66246394712C06
:102440006C0E7D1E6E0E711CF3012083E0E3E90F1C
:1024500021E030E02C0F3D1F2E0F311DF90181EAE4
:10246000808382E3890FE1E3E90F61E070E06C0FA4
:102470007D1F6E0F711DFB011082002391F0E1E0C2
:10248000F0E0EC0FFD1FE80FF11D508384E3890F8E
:102490009D5CE1E0F0E0EC0FFD1FE90FF11D90E322
:1024A0009083EE20A1F0E1E0F0E0EC0FFD1FE80FDB
:1024B000F11D99E09083E1E0E80FA1E0B0E0AC0FFE
:1024C000BD1FAE0FB11DFD0191E390838E5FCC2047
:1024D000A9F0E1E0F0E0EC0FFD1FE80FF11D99E03D
:1024E0009083E1E0E80F66246394712C6C0E7D1EEE
:1024F0006E0E711CF30192E390838E5FAA20A1F00F
:10250000E1E0F0E0EC0FFD1FE80FF11D99E0908392
:10251000E1E0E80F21E030E02C0F3D1F2E0F311DD0
:10252000F90195E390838E5FE1E0F0E0EC0FFD1F91
:10253000E80FF11D91E89083E1E0E80F61E070E0C1
:102540006C0F7D1F6E0F711DFB0192E09083E3E025
:10255000E80F8E5FA1E0B0E0AC0FBD1FA80FB11D6A
:1025600020EC2C93552009F4FAC025E081E090E09E
:102570008C0F9D1F8E0F911DDC012C9381E08E0F1F
:1025800066246394712C6C0E7D1E680E711C22E013
:10259000D3012C9382E08E0F66246394712C6C0E11
:1025A0007D1E680E711C25E1D3012C9383E08E0FF4
:1025B00066246394712C6C0E7D1E680E711CD30111
:1025C0001C9284E08E0F66246394712C6C0E7D1E29
:1025D000680E711C26E2D3012C9385E08E0F6624D1
:1025E0006394712C6C0E7D1E680E711C2FEFD3014D
:1025F0002C9386E08E0F66246394712C6C0E7D1EE6
:10260000680E711CD3011C9287E08E0F66246394C0
:10261000712C6C0E7D1E680E711C25E7D3012C9366
:1026200088E08E0F66246394712C6C0E7D1E680EFC
:10263000711C28E0D3012C9389E08E0F66246394EB
:10264000712C6C0E7D1E680E711C25E9D3012C9334
:102650008AE08E0F66246394712C6C0E7D1E680ECA
:10266000711CD3015C92ABE0AE0F66246394712CB5
:102670006C0E7D1E6A0E711CD30181EA8C934DE0B5
:102680004E0F8CE08E0F21E030E02C0F3D1F280F05
:10269000311DD9011C928820A9F0A1E0B0E0AC0F57
:1026A000BD1FA40FB11D89E08C934FE04E0FE25F78
:1026B00066246394712C6C0E7D1E6E0E711CF301EA
:1026C0008BEB8083BB20A1F0E1E0F0E0EC0FFD1F7D
:1026D000E40FF11D89E08083E1E0E40F21E030E0C8
:1026E0002C0F3D1F2E0F311DF90185EC80834E5FAD
:1026F0009920A1F0E1E0F0E0EC0FFD1FE40FF11DE7
:1027000089E08083E1E0E40F61E070E06C0F7D1F01
:102710006E0F711DFB0188EC80834E5FE1E0F0E0FD
:10272000EC0FFD1FE40FF11D81E88083E1E0E40F71
:1027300081E090E08C0F9D1F8E0F911DFC0182E0C7
:102740008083E3E0E40FA2E0A40F66246394712C7D
:102750006C0E7D1E6A0E711CD30180EC8C93A1E07F
:10276000B0E0AC0FBD1FAE0FB11D80EC8C93EF5FDE
:10277000EE2EF12CC7010E9431336C01A701BE017E
:102780006F5F7F4F0E945B3487E090E00E9431339F
:10279000DC0111961C921E921396DC92CE92129737
:1027A0001596FC92EE92149716961C921697E12FAE
:1027B000F0E0EE0FFF1FEB59FA4FBD0180819181D0
:1027C000CC59DF4F0FB6F894DEBF0FBECDBFDF91FF
:1027D000CF911F910F91FF90EF90DF90CF90BF901E
:1027E000AF909F908F907F906F905F904F900C94E0
:1027F00089028C5F848796E019CC0E945634CF936F
:10280000DF93FC012085318580E0232B69F4EB0107
:1028100061897289CE010E946434FE01019000201A
:10282000E9F731978E2F8C1BDF91CF9108952F926E
:102830003F924F925F926F927F928F929F92AF9250
:10284000BF92CF92DF92EF92FF920F931F93CF939D
:10285000DF93CDB7DEB7AE970FB6F894DEBF0FBEED
:10286000CDBF0E94AF03C0903001D0903101809065
:102870001E0590901F05A0902005B09021056819B5
:1028800079098A099B094601B12CA12C68157905A3
:102890008A059B0508F411C480915805909159054B
:1028A0008330910511F40C94E11F48F481309105B7
:1028B00009F466C0029709F443C4512CEAC384307A
:1028C000910511F40C94E8200597B9F7809115054E
:1028D00081110C9418238091160581110C941823F2
:1028E0007601EE0CFF1CEE0CFF1CE5E0EE1AF10881
:1028F0000AEB15E0A5E1AA2EA5E0BA2EBEEB8B2EC1
:10290000B5E09B2ED8018D919D918D010E943408D8
:10291000F50181935F0180911505811104C08091BB
:102920001605882339F0F2E0CF16D10418F0C7015C
:102930000197F1F78016910629F781E00E94F90EC0
:1029400007E027E04FE760E08AEF95E00E94260D60
:1029500067E08AEF95E00E949C0B60E08AEF95E0CB
:102960000E94A80B8091150581110C94062380917B
:10297000160581110C94022384E594E00C94042341
:102980009E012F5F3F4F38A32F8F8CE0D9011D92FE
:102990008A95E9F780912401882381F0109224011F
:1029A00080913201833050F045E064E28AEF95E097
:1029B0000E94C60B88EA91E00E940B0D8091F00501
:1029C0008093F5058091F1059091F2059093F705BC
:1029D0008093F6058091F3059091F4059093F905A5
:1029E0008093F805A091EE051092EE052C9A8BE2EB
:1029F00090E00197F1F72C9883E190E00197F1F7CF
:102A000090E080E030E020E043E150E06CB166FB14
:102A1000002700F910E0B801082E02C0660F771FEA
:102A20000A94E2F7262B372B2D98FA013197F1F70C
:102A30002D9AFA013197F1F701968031910531F71E
:102A4000832F82958F7090E18D3009F091E070E0D6
:102A500060E050E040E003E110E0ECB1E6FBEE2482
:102A6000E0F8F12CF701062E02C0EE0FFF1F0A94CA
:102A7000E2F74E2B5F2B2D98F8013197F1F72D9A45
:102A8000F8013197F1F76F5F7F4F691730F32095A9
:102A90003095409550958F3021F44E3FBFEF5B0746
:102AA000F1F19091EE0561E0690F6093EE0561E050
:102AB00070E0911102C070E060E0811113C0E32F5B
:102AC000FF27EF70FF273F9769F48AE0869FF001A8
:102AD000879FF00D1124E551FA4F8FE085835187D0
:102AE000408713C0982F909592FFD2C08AE0869FAE
:102AF000F001879FF00D1124E551FA4F84E08583A2
:102B00009370892F90E0918780878AE0869FF001FB
:102B1000879FF00D1124E551FA4F3783268380916A
:102B2000EE058A17B8F44AE09FEF21E030E081110A
:102B300002C030E020E0429FF001439FF00D1124DD
:102B4000E551FA4F958317821682118610868F5FA2
:102B5000A813EBCF8091E1058093E6058091E20513
:102B60009091E3059093E8058093E7058091E40553
:102B70009091E5059093EA058093E9056091DF0562
:102B80001092DF058E9A8BE290E00197F1F78E9814
:102B900083E190E00197F1F730E020E050E040E081
:102BA000E3E1F0E08FB1082E000C990B8827990F14
:102BB000881F9927022E02C0880F991F0A94E2F7F6
:102BC000482B592B8D98CF010197F1F78D9ACF01A2
:102BD0000197F1F72F5F3F4F2031310519F7852F0E
:102BE00082958F7090E18D3009F091E0B0E0A0E027
:102BF000F12CE12C03E110E02FB1022E000C330B7D
:102C00002227330F221F33270A2E02C0220F331F21
:102C10000A94E2F7E22AF32A8D98F8013197F1F746
:102C20008D9AF8013197F1F71196A91728F340957D
:102C30005095F701E095F0958F3029F4EE3F2FEF96
:102C4000F20709F44DC09091DF0521E0290F209390
:102C5000DF0521E030E0911102C030E020E0811179
:102C600022C0A52FBB27AF70BB271F97E1F48AE0D6
:102C7000829FD001839FB00D1124A452BA4F8FE0E0
:102C800015968C9315971996FC93EE9318971EC082
:102C90009AE0969FF001979FF00D1124E551FA4FAD
:102CA0009FE089271BCF982F909592FFF5C08AE06F
:102CB000829FF001839FF00D1124E452FA4F84E0CB
:102CC00085839370892F90E0918780878AE0829F27
:102CD000F001839FF00D1124E452FA4F578346838D
:102CE0003091DF053DA33617C0F4832F4AE09FEFF4
:102CF00021E030E0811102C030E020E0429FF0018D
:102D0000439FF00D1124E452FA4F958317821682E7
:102D1000118610868F5F6813EBCF9090EE054DA162
:102D2000490D4BA36CE475E078A76FA3D12C512C0F
:102D3000809132017BA17D1509F45BC1D81609F49D
:102D400058C1BB24B394D91408F4B12C21E030E06D
:102D5000D91408F0ACC0D11002C030E020E09AE0F5
:102D6000929FA001939F500D1124DA01A051BA4FF8
:102D70003D01823089F4992079F0CD010E94000B49
:102D8000EB2DF0E0EE0FFF1F21E030E02C0F3D1F98
:102D9000E20FF31F91838083D3018C9115969C9150
:102DA0001597891323C011964D915C911297169631
:102DB0002D913C9117974217530759F413964D9153
:102DC0005C91149718962D913C914217530709F482
:102DD0005BC0811119C0F301838194810196A1F434
:102DE000D30118968D919C91019671F08D2D0E94C2
:102DF0006C0880913201823039F4C3010E94000BCB
:102E0000BC018B2D0E946F2BC3010E94000B1C0183
:102E1000F30181819281DC01A095B09524E0B69503
:102E2000A7952A95E1F71A2F1F709C01217033276F
:102E3000AC015695479570E060E0417055276627D4
:102E40007727F2E02F16310409F054C0232B09F044
:102E5000426082FD516083FD5260AFA1B8A5ED9143
:102E6000FC91438354836583A12FB0E0A65CBC4FE3
:102E70008C918683CF010E940D0F809132018230A8
:102E800009F478C055245394D3946FA178A56E5F4C
:102E90007F4F78A76FA34CCF9AE0929FD001939F6A
:102EA000B00D1124A452BA4F9FE08927E9CE9D109E
:102EB00002C030E020E0BAE0B29FA001B39F500D05
:102EC0001124FA01EF51FA4F3F01823009F064CF2B
:102ED0003DA1332309F460CFCF010E94000BEB2DFD
:102EE000F0E0EE0FFF1F61E070E06C0F7D1FE60F5A
:102EF000F71F50CF232B09F0426090FD446091FDF5
:102F0000486092FD406193FD406224E02216310446
:102F100021F5D30113962D913C9134FD406435FD8C
:102F2000406820FD546021FD586022FD506123FD62
:102F3000506224FD506425FD506826FD616027FD28
:102F4000626030FD646031FD686032FD606133FDB8
:102F5000606237FF7ECF60647CCFB5E02B16310412
:102F600009F077CFF301238120FD406421FF71CF69
:102F700040686FCF1AEB412E12E0512E19A28B2D13
:102F800090E0880F991FFC01E559FC4FFCA7EBA7C7
:102F9000F2E02F16310441F429A1283008F5F2019E
:102FA000E05AFF4F243008F0F201E080F180028106
:102FB0001381D30111968D919C918E219F21CC2458
:102FC000C394892B09F4C12C1F928780A680248189
:102FD0004581EBA5FCA560818B2D0E946A0D0F90A9
:102FE000F9A1FF5FF9A328E0420E511CFC3081F6E5
:102FF00049CF09811A81823079F48091180190912A
:1030000019018017910741F00115110529F470E0AD
:1030100060E080E00E946F2B10931901009318016B
:103020000B811C8180913201823079F480911A01E8
:1030300090911B018017910741F00115110529F4AA
:1030400070E060E081E00E946F2B10931B01009301
:103050001A0180911D057BA17817C0F4172F80916C
:103060001D05181798F480913201181779F0812FF7
:103070000E946C08E12FF0E0EE0FFF1FE45BFA4FB7
:10308000808191810E940D0F1F5FE9CF8BA18093FA
:103090001D050E94AF0360931E0570931F0580936A
:1030A000200590932105552041F080911201811156
:1030B0000C94262581E00E94F90E8091120188234C
:1030C000B1F00E94060400910505109106052091BB
:1030D000070530910805601B710B820B930B603E56
:1030E00073498440910518F080E00E94F90E4E99D2
:1030F0000EC06CE271E080E090E00E94D403809109
:10310000120181110C94322581E00E94F90EAE96D5
:103110000FB6F894DEBF0FBECDBFDF91CF911F91E8
:103120000F91FF90EF90DF90CF90BF90AF909F9066
:103130008F907F906F905F904F903F902F90089569
:1031400010921C0550904405552009F4EBC2509094
:103150004805511003C00E9482299BCF80914A05E7
:1031600090914B050E947509582E811103C0109251
:1031700048058FCF8091EE04811113C080913A05EC
:1031800090913B05092E000CAA0BBB0B8093EA041F
:103190009093EB04A093EC04B093ED0481E0809352
:1031A000EE041D8E1E8A188A1F861A82198280914B
:1031B0004A0590914B05DC0196962D913C9197978D
:1031C000512C2630310599F49C965C90552079F06D
:1031D0008E010F5F1F4F9E01215F3F4FAE014A5E80
:1031E0005F4FBE01635E7F4F0E94ED28582E8F8592
:1031F000988910E00497F9F48091E8049091E9042B
:10320000988B8F87019709F020C18EEF8D8F8FEFFC
:103210008E8B1092E7041092E6041092E50410924F
:10322000E4048E8990E0982F88278E6F9093E304B2
:103230008093E20410E86F8578896115710521F0AB
:103240007093E9046093E8044E898D8D342F282F04
:103250003093E1042093E004A0914A05B0914B051E
:1032600094968D919C919597809590957C01EE0C0C
:10327000FF1CEE0CFF1CE4E0EE22FF24AC014C7FAF
:10328000E42AF52AF092DF04E092DE045110F7C040
:10329000AC01442751709C0122273270BC01662783
:1032A00073706115734009F0D4C01092420521E09B
:1032B00094FD09C023E095FD06C027E096FD03C0FC
:1032C00097FF03C02FE02093410521E030E084FD0B
:1032D0000CC022E030E085FD08C024E030E086FD2F
:1032E00004C087FF06C028E030E0309340052093FB
:1032F0003F0521E0AC014427547092FF20E093FB8E
:10330000882780F92817A9F062E0452B09F461E0CD
:1033100060933E0570E080EA90E00E940333709372
:103320003D0560933C057595679570933B056093EB
:103330003A05809142056AE571E0813051F061E61D
:1033400071E0813030F064E571E0823011F067E4C3
:1033500071E081E00E94852A60E471E082E00E94D1
:10336000852A6091410570E090E080E04AE00E948B
:10337000012C67E371E083E00E94852A80913F057C
:10338000909140050E944F2C60E371E084E00E9420
:10339000852A80913E05813009F06EC08EE091E073
:1033A0000E944F2C81E00E94F90E68EC70E080E0F2
:1033B00090E00E94D4030E94822980914A05909156
:1033C0004B05FC0126A137A12630310589F424A53F
:1033D000222371F08E010F5F1F4F9E01215F3F4F2F
:1033E000AE014A5E5F4FBE01635E7F4F0E94ED28D3
:1033F0001092E7041092E6041092E5041092E4049F
:1034000080913A0590913B05092E000CAA0BBB0B4D
:103410008093EA049093EB04A093EC04B093ED0442
:103420008091E0049091E1049093E3048093E2049E
:1034300080914205833009F02CCE8091DC0487FF17
:103440006CC18F5F8093DC0424CE8EEF8D8F1E8A3B
:10345000E0CEBC0166277C7061157C4039F0452BBD
:1034600049F4232B09F423CF22E001C023E0209369
:1034700042051DCF21E0FBCF87E890E091CFD090AF
:103480004205E0913C05F0913D05672B09F454C0DD
:103490008091E2049091E304A901481B590B8091AB
:1034A000E4049091E504840F951F9093E5048093C4
:1034B000E404DD2019F063E0D6123EC01092DD0472
:1034C000052E000C660B770B8090EA049090EB04BD
:1034D000A090EC04B090ED04480D591D6A1D7B1DB1
:1034E0004093EA045093EB046093EC047093ED0472
:1034F00077FF08C01092EA041092EB041092EC04DB
:103500001092ED04AF010F2E000C660B770B80902C
:10351000EA049090EB04A090EC04B090ED04481500
:1035200059056A057B0544F44093EA045093EB0483
:103530006093EC047093ED044F010F2E000CAA0869
:10354000BB088FEF8D0D823008F0A2C040913A0584
:1035500050913B0588279927841B950B281739071D
:103560000CF06FC01092EA041092EB041092EC047D
:103570001092ED0471E0D71273C081E08093DD04F6
:10358000809141058F708063812BDD968C93209113
:10359000E6043091E704A0903F05B090400580918B
:1035A000E4049091E504821B930BB5010E94033360
:1035B00061384FEF740714F461E87FEF8B016038D6
:1035C000710514F00FE710E0A09EC001A19E900DC0
:1035D000B09E900D1124820F931F9093E704809367
:1035E000E604C02E2091EA043091EB044091EC04F3
:1035F0005091ED04AFEFB0E00E94C7329F01FF0F82
:10360000440B550B0E94A832B22E322F63E0D61223
:1036100052C080EC07FD03C0002319F08FE38093B4
:10362000DC042091DC0427FF3BC06894E0F8F092B2
:10363000DF04E092DE048091DE049091DF048D7F50
:1036400036C04217530784F48092EA049092EB0448
:10365000A092EC04B092ED0481E0D81609F48DCF6D
:1036600081E08093DD0414C091E0D91202C0109271
:10367000DD04420F531F70E060E04093EA04509372
:10368000EB046093EC047093ED0422E0D21641F356
:103690008091DD04813009F473CFDD961C9377CFE0
:1036A0008091DE049091DF048260222321F29093C6
:1036B000DF048093DE04E090DE04F090DF0480916C
:1036C000DA049091DB048E159F0541F48091D904B2
:1036D000381304C08091D804C816E9F0F092DB04D6
:1036E000E092DA04B092D904C092D80481E00E943A
:1036F0003F29E0914C05F0914D057FE0E722E38200
:10370000F48280914305811102C0B7820683CF0104
:103710000E940D0F85CE512C83CE882309F4B9CC9D
:10372000815090CE80911A0581115FC080911B0558
:1037300081115BC08091480581110DC08091D60533
:103740009091D705DC01ED91FC910680F781E02D89
:1037500009958093480580931A0580914905811148
:103760000DC08091D8059091D905DC01ED91FC91B7
:103770000680F781E02D09958093490580931B050C
:1037800081E00E94F90E07E027E04FE760E08AEF52
:1037900095E00E94260D67E08AEF95E00E949C0B61
:1037A00060E08AEF95E00E94A80B80911A058111D4
:1037B0000BC080911B05811103C084E594E002C019
:1037C0008DE991E00E940B0D62E48AEF95E00E9482
:1037D000A80B90911A0580911B05992361F1811125
:1037E00004C08DE991E00E940B0D46EDC42E45E02A
:1037F000D42E58E1652E55E0752E6AE1A62E65E0BF
:10380000B62E10E000E0FF24F394F601819191912F
:103810006F0190934B0580934A05D3011D923D01A2
:10382000F50121915F0121110BC00130110541F11A
:1038300001E010E0EACF8111D2CF84E594E0D3CF4C
:103840009801285B3A4F1901D9012C91211126C109
:10385000DC01ED91FC910680F781E02D099588232C
:1038600059F0F101F082E0914A05F0914B0566A113
:1038700077A1802F0E94132B809147058823A9F2FE
:10388000312C4424439430E8232E809132013816A1
:1038900008F0FFCB832D90E0FC01E85BFA4F20811C
:1038A000222309F4F4C0FC01E85EFA4FD080DD2049
:1038B00009F4EDC0880F991FFC01EA52FA4F00810C
:1038C000118110934B0500934A05B0904605BB202B
:1038D00009F4F0C090901C05C92CD12CF601E85FCA
:1038E000FE4F8081882331F0108265E070E0892DE1
:1038F0000E94132BA0914A05B0914B05E1E0E9A38A
:1039000092962D913C91939794968D919C91959739
:103910002817390709F419A298968C909897D99688
:103920008C91D997E12C882319F0D596EC90D597F6
:10393000E094F12C882319F0D396FC90D397F0945F
:10394000A12C882319F0D496AC90D497A094009120
:103950001C0510E0F801EE0FFF1FE45BFA4F6080DA
:103960007180F3018782E086F186A2868091450509
:10397000882329F0E0914C05F0914D0583869496BB
:103980002D913C912095309535FB882780F934FDA9
:10399000826033FD846023FD8860D30113968C938D
:1039A000139714961C92149715961C9280E00E940F
:1039B0003F2998012A5F3E4FF9014081C8018C5F81
:1039C0009E4FD801AE5FBE4F00501F4F84120CC0F7
:1039D000FC014081E41208C04C91F41205C0F801CA
:1039E0004081A41201C0B9A0F9018082FC01E082EB
:1039F000FC92D801AC92BB2009F448C0C3010E94DC
:103A00000D0FB1E0B91508F441C06AE7662E61E018
:103A1000762EEBEFE9A3CC0CDD1C960125593C4F2B
:103A20003CA32BA3D3015896ED90FD900D911C91D2
:103A30005B975C962C915C975D964C915D975E963A
:103A4000AC905E975F968C90B9A1B230B8F0E091DF
:103A50004A05F0914B0584A195A1809590958E2102
:103A60009F21CC24C394892B09F4C12C1F92EBA174
:103A7000FCA16081892D0E946A0D0F90F8E06F0E05
:103A8000711C29A12F5F29A3283061F65B28809142
:103A90001C058F5F80931C053394F7CE0E94750937
:103AA000F301319780838111E7CED1011C9270E040
:103AB00060E0DFCEF0904705FF2009F4A2C18091BD
:103AC000FF04882309F4AAC081E00E94F90EE09067
:103AD000FF0431E0E3126AC000914A0510914B05E2
:103AE00068E070E0C8010E946B29B82E8091FC0448
:103AF0008150B1100BC060E070E4C8010E946B29D6
:103B0000B82E882329F08091FC048F5F8093FC04F9
:103B100000914A0510914B0560E070E2C8010E94D7
:103B20006B29882329F091E09E0D9093FF04B82E15
:103B3000D80196968D919C9197970797C9F49C967A
:103B40008C919C978823A1F09A968D919C919B973C
:103B500098966D917C918130910511F00C947825A7
:103B60006530710529F06A30710511F00C947825E3
:103B7000BB2089F08091FF04813009F047C06CE6DA
:103B800071E083E00E94852A8091FC04082E000CDD
:103B9000990B0E944F2C5090FD045520A9F1809163
:103BA0004C0590914D050E940D0F71CF42E0E4123B
:103BB0001EC000914A0510914B0568E070E0C801F5
:103BC0000E946B29B82E8091F6048150B1100CC070
:103BD00060E070E4C8010E946B29B82E882309F4C4
:103BE00097CF8091F6048F5F8093F60491CF63E0C6
:103BF000E6128ECF1092FF0405E024E04FE760E06C
:103C00008AEF95E00E94260D5F2C41CF69E671E0B6
:103C100083E00E94852A8091F604B8CF8091FE044B
:103C2000811114C08091430581117AC08091FD04F7
:103C3000811176C04092FE044092FD0469E871E073
:103C400081E00E94852A81E00E94F90E5090FE04D6
:103C50005520D1F2E0914A05F0914B0524A135A100
:103C60002095309535FB882780F923FD826036FD4D
:103C7000846000914C0510914D05D80113968C93EA
:103C800086A197A18230910508F401CF8430910577
:103C900008F45CC7079709F0FACE84A5882309F4D5
:103CA0007ACF82A593A560A571A58130910509F011
:103CB0002FC76530710509F46ECF6A30710509F0C0
:103CC00027C78091F9049091FA04009709F066C023
:103CD00084A195A1809590959C0128703072283020
:103CE000304209F058CF96FF56CF1092FE048091D3
:103CF000FD04882331F0D80113961C92C8010E945C
:103D00000D0F81E00E94F90E6FE671E082E00E94E3
:103D1000852A68EE73E080E090E00E94D40316C725
:103D200060E070E2C8010E946B29811107C068E061
:103D300070E0C8010E946B29882359F04092FE046C
:103D400044E060E08AEF95E00E94C60B0E945F2A83
:103D50005BCF60E070E4C8010E946B29582E882375
:103D600009F471CF4092FE044092FF0462E871E0D2
:103D700082E00E94852A6FE771E083E00E94852A35
:103D80008091FC04082E000C990B0E944F2C6CE2D1
:103D900071E080E090E00E94D40379CE6091F70456
:103DA0007091F8046115710509F492CF2091F60421
:103DB000620F711D27FD7A952091FC04820F911DE1
:103DC00027FD9A950E9432298091FB048F5F809392
:103DD000FB048F3F09F0DFCE1092FB041092FA042F
:103DE0001092F9041092F8041092F7048091FD04E7
:103DF000882309F4D0CEF801148215821682178226
:103E0000A5C6B0901C0599249394F80122A133A172
:103E100084A195A12817390709F4912CD801969609
:103E20006D907C900B2D10E0000F111FF801E050F9
:103E3000FB4F808191816816790621F0B3018B2DAB
:103E40000E94132BE1E0F0E0EC0FFD1FE00FF11FEB
:103E500071826082C3010197059708F0B0C080E0CD
:103E60000E943F29E0914A05F0914B05FAA3E9A38E
:103E700084A195A180959095292F221F2227221F8A
:103E800030E096FD226095FD246094FD286092FD4F
:103E9000206193FD206290FD206491FD206880FDEB
:103EA000316083FD326081FD346082FD3860A9A1FC
:103EB000BAA19896AC9098979996CC909997809142
:103EC0001C0590E0FC01EE0FFF1FE45BFA4F019030
:103ED000F081E02D9C964C91442309F464C0B5E038
:103EE0006B16710409F45FC0A782C086AC01405F05
:103EF0005E4FDA01FC90BC01625F7E4FFA105AC03F
:103F0000DB01FC90FC1056C0DA01AC92DB01CC92D4
:103F1000A9A1BAA19A965C919A979B964C919B976E
:103F20009C966C91662329F0B5E06B16710409F03C
:103F300043C02186228640E850E8BC01645F7E4F82
:103F40007B01DB016C91865F9E4F651305C0DC0130
:103F50006C91641301C0D92CD7015C93DC014C93A4
:103F6000238334831582DD2079F0CF010E940D0F69
:103F7000B1E0BB1548F040914A0550914B0520E057
:103F8000B3018B2D0E94962AD801A050BB4FE1E0CF
:103F9000F0E0EC0FFD1FE00FF11F808191818D9308
:103FA0009C935D2874CD2782208670E8C72EA0E8F8
:103FB000AA2E9CCF9D2CA8CF51874287BECFD92C4B
:103FC000E3CF80911701882341F11092170107E098
:103FD00023E04FE763E28AEF95E00E94260D6AE650
:103FE000662E62E0762EDD24D394F301E080F1802A
:103FF00002811381DF928780A680C12C24814581B4
:1040000063E280E00E946A0DF8E06F0E711C0F9071
:104010002AEB32E02615370541F763B133B1E3B13E
:1040200079B15CB193B149B186B126B1F3B163FB0B
:10403000662760F9660F6AA319A235FB332730F9AA
:104040003CA31BA269A07AA0ABA1BCA16A2A7B2ACF
:10405000F695F170FDA31EA2ADA1BEA16A2A7B2A2E
:10406000E4FB442440F8512C5694542C4424579497
:10407000479464287528729571707FA318A64FA085
:1040800058A4F6E0440C551CFA95E1F7642875280D
:1040900056FB552750F95BA71CA64BA45CA4A5E0D2
:1040A000440C551CAA95E1F76428752892FB9927C2
:1040B00090F99DA71EA64DA45EA4B4E0440C551C27
:1040C000BA95E1F764287528042E000C550B442797
:1040D000550F441F552703E0440F551F0A95E1F77C
:1040E000642A752A082E000C990B8827990F881FBF
:1040F0009927880F991F880F991F682A792A26FB0C
:10410000222420F8312CC101880F991F682A792AAE
:1041100080911501909116016816790611F40C949E
:104120005D14709216016092150122E030E064FE89
:1041300002C030E020E065FE246066FE216067FE7C
:10414000286070FE316071FE3260E0914C05F091A4
:104150004D05238334831582D301AF70BB27A65C42
:10416000BC4F8C918683CF010E940D0F7AE6472EBB
:1041700072E0572E312C212C81E090E0022C02C0FD
:10418000880F991F0A94E2F786219721CC24C394C3
:10419000892B09F0C12CF201E080F18002811381AA
:1041A0001F928780A6802481458163E280E00E947F
:1041B0006A0DFFEF2F1A3F0A28E0420E511C0F90A4
:1041C0003AE023163104C1F6552453940C9449184F
:1041D0008091CA059091CB059093D1058093D0052D
:1041E0008091CC059091CD05A091CE05B091CF05E1
:1041F0008093D2059093D305A093D405B093D505B1
:104200005091C8051092C8051092C90580914101CE
:1042100090914201A0914301B091440189839A8316
:10422000AB83BC839E012F5F3F4FF901B0E06BE190
:1042300070E080910405813009F4B0C008F4ACC08E
:10424000823009F4ADC0833009F4ACC0B23009F457
:10425000ADC0B33009F4ACC0B13009F4A5C05F986B
:10426000CB010197F1F7B093040596B1F9B013B102
:10427000AFB143B103B196FB882780F98295880FCF
:10428000807E9F2D9071890F05FB992790F9890FEA
:104290001870810FA1FB992790F9990F990F890F39
:1042A00044FB992790F9990F890F8193BF5FB43030
:1042B00009F0BFCF9091C80581E0890F8093C805B0
:1042C00081E0911101C080E090E04B81BC016F5F03
:1042D0007F4F45FF6FC04C8145FF6CC04CE0469F4F
:1042E000F001479FF00D1124E254FA4F62E070E0B4
:1042F0007183608301964CE0489FF001499FF00D67
:104300001124E254FA4F40E0D9018D919D01C82E4D
:10431000D12CF12CE12C82819381A481B5814111B2
:1043200054C0807C8C0D9D1DAE1DBF1D8283938368
:10433000A483B5834F5F443039F79091C805B12C01
:104340008CE0CC24CA94DC2C76019B1509F45EC069
:1043500021E030E0B11002C030E020E0B9016F5F31
:104360007F4F869FD001879FB00D1124A254BA4F72
:10437000829FF001839FF00D1124E254FA4F6D915A
:104380007C91228933896217730721F0C686D7860C
:10439000E08AF18AB394D9CF5F9A58CF769A56CFF4
:1043A0002E9A54CF479A52CF76985ACF2E9858CFFC
:1043B000479856CF4CE0469FF001479FF00D1124DF
:1043C000E254FA4F61E070E093CF413051F48F73C3
:1043D000907F66E0CC0CDD1CEE1CFF1C6A95D1F7CB
:1043E000A1CF423051F49F70AC7F0CE0CC0CDD1CAF
:1043F000EE1CFF1C0A95D1F795CFA37012E1CC0CEF
:10440000DD1CEE1CFF1C1A95D1F78CCFB51630F5CC
:104410008B2D9CE0CC24CA94DC2C760121E030E08A
:10442000811102C030E020E0B9016F5F7F4F969F9D
:10443000F001979FF00D1124E254FA4F118210827F
:10444000929FF001939FF00D1124E254FA4FC6861B
:10445000D786E08AF18A8F5F5813E0CF3CE4C32E01
:1044600035E0D32E10E000E0A12C512C4CE0742E4E
:10447000AB1409F495C080913201A81609F490C0DC
:1044800081E0A11001C080E0882E912C94012F5F63
:104490003F4F729EC001739E900D1124FC01E254A7
:1044A000FA4F7F0100811181789CF001799CF00D19
:1044B0001124E254FA4F828993890817190791F45D
:1044C000468557856089718984899589A689B789C8
:1044D000481759076A077B0769F4A394B2E0CB0E2B
:1044E000D11CC6CF8A2D0E946C08D7018D919C915A
:1044F0000E941D0E789CF001799CF00D1124E2546D
:10450000FA4F86859785A089B189AD0166277727FF
:10451000E1E04E27417055276627772792FF4260DA
:1045200084FF4460A6FF516085FF526086FF54609F
:1045300094FF5860A2FF506187FF406195FF506271
:10454000A3FF406290FF486096FF4064A4FF40686C
:1045500091FF506497FF5068A5FF6160F60180806D
:104560009180F40143835483658383FB222720F9E0
:1045700082FD226081FD246080FD2860A22FB0E0D2
:10458000A65CBC4F8C91D40116968C93C4010E94FA
:104590000D0F60E0C7010E94D00D552453949DCFAC
:1045A00080911301909114018017910739F0011542
:1045B000110521F490E080E00E941D0E109314017B
:1045C0000093130180911705B816C0F41B2D80913C
:1045D0001705181798F480913201181779F0812F78
:1045E0000E946C08E12FF0E0EE0FFF1FE45BFA4F32
:1045F000808191810E940D0F1F5FE9CFB092170556
:104600000C9449188DE991E00E940B0D62E48AEF49
:1046100095E00E94A80B90911505809116059923AD
:1046200009F475C0811104C08DE991E00E940B0D61
:104630001D8E1E8E10E070E5C72E73ECD72E07E09E
:10464000E2E3AE2EB12C80913201181708F072C04F
:10465000812E912CF401EE0FFF1FE654FA4F60807B
:1046600071807092140560921305F401EB5EFA4FAD
:104670008081882309F449C0C3010E943408940151
:104680002F5E3A4F7901882309F446C087E0F30191
:10469000DE01569601900D928A95E1F787E0FE01C2
:1046A0007696DE011F9601900D928A95E1F7089D9E
:1046B000C001099D900D112461E070E06C0F7D1F19
:1046C000860F971FFE013F96DC01202F01900D926F
:1046D0002A95E1F7DC018D919C91992493940097A0
:1046E00009F4912CF7012081211109C0892B39F09F
:1046F000812F0E94150861E0812F0E94440ED7018E
:104700009C92B0923101A09230011F5F9CCF811129
:1047100089CF84E594E08ACF812F0E94150860E05C
:10472000812F0E94440EF7011082D0923101C09275
:104730003001EBCFB12C57E0D52E80913201B81665
:1047400008F07DC16B2C712CF301EF5EFA4F808174
:10475000882309F472C1D69CF001D79CF00D112476
:1047600021E030E02C0F3D1FE20FF31F2381822F49
:1047700082958F7090E0982F88279295907F2F7068
:1047800030E0322F2227820F931F2481422F42953F
:104790004F7030E1439FA0011124840F951F2F70AB
:1047A0001C01220E311C9580468149A3B301615F33
:1047B0007A4F7EA36DA3DB018C91981207C0F301A1
:1047C000E35FFA4F8081841709F4C6C1EDE1F0E0A0
:1047D000EC0FFD1FE60DF71DB1E0B083D69CF00194
:1047E000D79CF00D112421E030E02C0F3D1FE20F8B
:1047F000F31F838122E030E087FD02C030E020E03B
:10480000D69CF001D79CF00D112461E070E06C0F94
:104810007D1FE60FF71F838186FD2160D69CF00186
:10482000D79CF00D112481E090E08C0F9D1FE80FC4
:10483000F91F838185FD3160D69CF001D79CF00D76
:104840001124A1E0B0E0AC0FBD1FEA0FFB1F838174
:1048500084FD3260D69CF001D79CF00D112461E0FC
:1048600070E06C0F7D1FE60FF71F848185FD2061CE
:10487000D69CF001D79CF00D112481E090E08C0FC4
:104880009D1FE80FF91F848184FD2062D69CF001F2
:10489000D79CF00D1124A1E0B0E0AC0FBD1FEA0FD2
:1048A000FB1F848183FD2064D69CF001D79CF00D12
:1048B000112461E070E06C0F7D1FE60FF71F84810B
:1048C00082FD2460D69CF001D79CF00D112481E07C
:1048D00090E08C0F9D1FE80FF91F848181FD2860F7
:1048E000D69CF001D79CF00D1124A1E0B0E0AC0FF4
:1048F000BD1FEA0FFB1F848180FD2068F301EE0FCE
:10490000FF1FFCA3EBA3E45BFA4FA081B1811396D8
:104910002C93139714963C93149715961C92159705
:10492000D69CF001D79CF00D112421E030E02C0F33
:104930003D1FE20FF31F838183FBEE27E0F941E087
:104940004E2782FF4260D69CC001D79C900D112457
:1049500061E070E06C0F7D1F860F971FFC01838163
:1049600081FF4460D69CC001D79C900D112421E0AA
:1049700030E02C0F3D1F820F931FFC01838180FFCD
:104980004860E42FF0E0E65CFC4F808116968C9343
:10499000169780E8890D17968C93179789A18058F0
:1049A000809518968C931897CD010E940D0F8AEF71
:1049B000482E81E0582EB10190E080E06FA378A7E7
:1049C00089A79AA7EBA1FCA1E559FC4F70817BA7B1
:1049D000D201ED90FD900D911C918FA198A5A9A5F4
:1049E000BAA58E219F21A023B123CC24C394892B67
:1049F0008A2B8B2B09F4C12C1F92F2018780A68091
:104A0000248145816BA58B2D0E946A0DF8E04F0E25
:104A1000511C0F902AE632E024153505C9F6EBA1AA
:104A2000FCA1E75FFA4F31822082ADA1BEA19C922A
:104A3000F301E35FFA4FB9A1B083B3947ECE5D8CEE
:104A400051100C9449185E8C0C9449180E9406046D
:104A500060930505709306058093070590930805FC
:104A60000C945D18E0905805F09059050E940508D7
:104A70000E94A60E10E000E062E070E080E090E0AE
:104A80000E94D4034E990CC06CE271E080E090E08B
:104A90000E94D4030E9405080E94A60E10E000E0C8
:104AA0000F5F1F4F003DF7E01F0731F7609158057A
:104AB000709159056E157F0521F40E94A60E0C9485
:104AC000871890E080E00E949A328AEF95E00E9479
:104AD0005B0D80E991E00E940B0D88E19EE00FB62E
:104AE000F894A895809360000FBE90936000FFCF6C
:104AF0002091F604620F711D27FD7A952091FC0428
:104B0000820F911D27FD9A950E9432290C94B81DA1
:104B10001092FB049093FA048093F9047093F804C4
:104B20006093F7042091FD04222311F40C94CB1D13
:104B30002091F604620F711D27FD7A952091FC04E7
:104B4000820F911D27FD9A950E9432298091FE04C3
:104B500081110C94CB1D58C829E0221625E032069D
:104B600009F034CE6ACF1F920F920FB60F92112424
:104B70002F933F938F939F93AF93BF9380915B0548
:104B800090915C05A0915D05B0915E0530915A054C
:104B900023E0230F2D3758F50196A11DB11D209359
:104BA0005A0580935B0590935C05A0935D05B093D7
:104BB0005E0580915F0590916005A0916105B091BF
:104BC00062050196A11DB11D80935F05909360055C
:104BD000A0936105B0936205BF91AF919F918F91B2
:104BE0003F912F910F900FBE0F901F90189526E8C0
:104BF000230F0296A11DB11DD2CF1F920F920FB6A7
:104C00000F9211248F939F938091E1009091E10086
:104C1000937F9093E10083FF0FC01092E90091E031
:104C20009093EB001092EC0092E39093ED001092C1
:104C3000640598E09093F00082FF22C093E0909387
:104C4000E9009091F200992319F09AE39093E8001B
:104C500090913705992341F09091370591509093A9
:104C60003705911101C05D9A90916305992341F038
:104C700090916305915090936305911101C0289A1A
:104C800084FF18C08091E2008E7E81608093E200F4
:104C90008091E1008F7E8093E100809138058E7EC7
:104CA0008061809338059F918F910F900FBE0F9078
:104CB0001F90189580FFF7CF8091E2008E7E806173
:104CC0008093E2008091E1008E7E8093E1008091EC
:104CD00038058E7E8160E5CF1F920F920FB60F923E
:104CE0001124CF92DF92EF92FF920F931F932F9395
:104CF0003F934F935F936F937F938F939F93AF9364
:104D0000BF93EF93FF93CF93DF93CDB7DEB76C974D
:104D1000DEBFCDBF1092E9008091E80083FF25C07F
:104D200068E0CE0145960E94650582EF8093E80019
:104D30008D8987FF39C09091E80090FFFCCF982FB4
:104D4000907609F034C19E894F89588D2F89F88C4F
:104D5000911131C0803861F5809139058093F1005F
:104D60001092F1008EEF8093E8006C960FB6F894E5
:104D7000DEBF0FBECDBFDF91CF91FF91EF91BF910D
:104D8000AF919F918F917F916F915F914F913F91E3
:104D90002F911F910F91FF90EF90DF90CF900F9088
:104DA0000FBE0F901F9018959EEF9093E800C7CF0D
:104DB0001092F100D5CF913059F48111D3CF413009
:104DC000510581F6809139058D7F80933905CACFD1
:104DD000933049F48111C6CF4130510519F68091C5
:104DE00039058260F2CF953041F48091E80080FF70
:104DF000FCCF20682093E300B5CF963009F0A9C01E
:104E00000B8D1C8D22E01092E90010923505109256
:104E10003405F2122EC010923305109232050E9412
:104E2000B3051F8299E09983FA8291E09E8390EA0C
:104E300098879AEF99872091340530913505275F3F
:104E40003F4F3C832B838D831092E90010923505F0
:104E500010923405109333050093320549E050E079
:104E6000BE016F5F7F4F80E00E9479040E94B3050E
:104E700079CF10933305009332050E949F05DC0122
:104E800012960D911C910115110509F451C1D8011B
:104E9000ED91FC910480F581E02DBE016B5E7F4FAA
:104EA000C8010995009709F03EC1F80100851185F8
:104EB000EACFF3E0FF120EC08F89882309F440C0C7
:104EC000823061F440E86CE081E492E00E944604A4
:104ED000811148CF81E28093EB0047CF813029F4E4
:104EE00040E867E089E392E0F1CF833099F70E94D0
:104EF0009F05DC011296ED90FC908E010F5F1F4F15
:104F00006801E114F10479F0D701ED91FC9106807C
:104F1000F781E02DB801C7010995080F111DF701B0
:104F2000E084F184EECFD8011C92F60101900020BC
:104F3000E9F73197BF016C197D0940E0C601C6CF82
:104F400063E272E0FB01449150E080E80E94790442
:104F500009CF973009F4BECF983021F481E08093D7
:104F6000F10000CF993009F0FDCE837009F0B2CF87
:104F7000E6E2F1E081E031E096E32191222371F055
:104F80008093E9003093EB00DF0111972C9120937F
:104F9000EC009093ED008F5F873079F78EE7809378
:104FA000EA001092EA008F8980936405DBCE8B8D36
:104FB0009C8D1092E9001092350510923405909363
:104FC000330580933205898D811192C08E899D8928
:104FD000913A49F4813209F07DCF47E050E063E334
:104FE00071E080E0B3CF913209F074CF833269F47D
:104FF0008F89988DB0E0A0E080932C0190932D01D3
:10500000A0932E01B0932F01ADCE803269F4809130
:10501000E80082FFFCCF67E083E391E00E94650532
:105020008BEF8093E8009ECE823209F09BCE8F8971
:1050300080933A01EEEFFFE7859194918B3F9C4D71
:1050400051F1E0E0F8E08091330190913401A091BA
:105050003501B0913601803B9440A105B105F1F4D2
:1050600080913A0180FD1AC0EE3F8AE0F80789F589
:1050700087E797E79183808380916000809336056E
:1050800088E19BE00FB6F894A895809360000FBE6E
:105090009093600067CEEEEFFAE0D5CF80819181EA
:1050A0008737974709F05ECEA895809160008861A8
:1050B000809360008091360580936000EE3F2AE087
:1050C000F20789F08091FE0A9091FF0A9183808314
:1050D00049CE808191818737980751F29093FF0ADA
:1050E0008093FE0AC5CF1092FF0A1092FE0A3ACEB4
:1050F0000E949F05DC0112960D911C91011511056E
:1051000009F4E8CED801ED91FC910190F081E02DF9
:10511000BE016B5E7F4FC8010995811123CEF80156
:1051200000851185EBCF181619060CF41BCED2CED4
:10513000F1E0FF12BECE67E272E004CF1F93CF937F
:10514000DF93EC0180E888A789A78AA78BA71CA614
:10515000FE01BD968CE0DF011D928A95E9F71FA242
:105160001EA21AAE1BAE1CAE1DAE15E0CE010E94F3
:10517000750961E070E080E090E00E94D403115076
:10518000A9F7CE01DF91CF911F910C947509CF93B0
:10519000DF93EC01849A8C9A229A2A9A219A299A6E
:1051A00023982B982B9A0E94E405CE01DF91CF9192
:1051B0000C949E28CF93DF93EC013E9A469A229A54
:1051C0002A9A219A299A23982B982B9A0E94E405CF
:1051D000CE01DF91CF910C949E280F931F93CF9314
:1051E000DF93EC01F9018DA5DB018C938EA5DA012B
:1051F0008C939FA59F709130D9F038F09230E9F0F0
:105200009430F1F08FE090E015C0118210828FA5EC
:10521000807F8038C1F0803CE1F0811120C0F8012E
:105220001182108281E0DF91CF911F910F9108953B
:1052300081E090E091838083EACF82E090E0FACF32
:1052400084E090E0F7CF80E890E0D8018D939C93C4
:10525000E9CF80EC90E0F80191838083E3CF80EF89
:1052600090E0F3CF2091FD04222341F0E0914C0522
:10527000F0914D0584839583668377830895E0914B
:105280004A05F0914B0544A155A1409550959A01CE
:1052900054E0369527955A95E1F791E0292721703A
:1052A000332746FF226047FF246045FF2860E091D6
:1052B0001C05F0E0EE0FFF1FE45BFA4F0190F08158
:1052C000E02D265C3C4FD9019C91882311F09583F9
:1052D000089596830895FC0124A135A142A153A10C
:1052E000422753274623572391E0452B09F490E0AA
:1052F000209530956223732381E0672B09F480E0C9
:10530000892308958F929F92BF92CF92DF92EF925E
:10531000FF920F931F93CF93DF93CDB7DEB72997FB
:105320000FB6F894DEBF0FBECDBF80914A059091B5
:105330004B05DC01ED91FC910680F781E02D09958C
:10534000882309F4AAC081E08093480580914A052A
:1053500090914B050E94B20A882309F498C00091ED
:105360004A0510914B0589E0E1E7F1E0DE01119675
:1053700001900D928A95E1F71D820E9406046B014F
:105380007C01B12CD801ED91FC910190F081E02DD0
:10539000C801099545E0BE016F5F7F4FC8010E94BB
:1053A000DD084C01D801ED91FC910280F381E02DE4
:1053B000C8010995892809F0B394B2E0BB1588F0BB
:1053C0006AE070E080E090E00E94D4030E9406044E
:1053D0006C197D098E099F096B3F71058105910547
:1053E00088F262E370E080E090E00E94D4030091D4
:1053F0004A0510914B0589E0E8E6F1E0DE011196DF
:1054000001900D928A95E1F70E9406046B017C01E0
:10541000B12CD801ED91FC910190F081E02DC801F3
:10542000099545E0BE016F5F7F4FC8010E94DD080E
:105430004C01D801ED91FC910280F381E02DC8016F
:105440000995892809F0B394B2E0BB1588F06AE0A9
:1054500070E080E090E00E94D4030E9406046C1982
:105460007D098E099F096B3F71058105910588F2C1
:1054700062E370E080E090E00E94D40381E0F801F4
:1054800082AF80914A0590914B050E942709809137
:105490004A0590914B050E94750929960FB6F8941C
:1054A000DEBF0FBECDBFDF91CF911F910F91FF9057
:1054B000EF90DF90CF90BF909F908F9008950F93C3
:1054C0002091FF05E0910506F091060600E0309777
:1054D00071F03396E491F0E0379683E0F595E79527
:1054E0008A95E1F7009108060E9F002D1124EFEF39
:1054F000E20F0E0F4091000641506091FE058AEFC9
:1055000095E00E94260D0F910895CF93DF93EB0154
:1055100042E0480F60E08AEF95E00E94C60B0E94CF
:105520005F2ACE01DF91CF910C940B0D2F923F9209
:105530004F925F926F927F928F929F92AF92BF92A3
:10554000CF92DF92EF92FF920F931F93CF93DF934F
:1055500000D000D0CDB7DEB7B82E2B011A01922EA5
:105560008AE791E09C838B83D12CFB013297FA83ED
:10557000E9836B2C712C660C771CC30185599C4FF9
:105580003C01E981FA81329770F08FEF8D0D823006
:1055900050F1F5E04F16510431F4DD2021F188EF90
:1055A0008D0D823000F1EB81FC81E080F180028181
:1055B000138124814581A68087802114310459F00C
:1055C000F10184A195A1809590958E219F21CC24F5
:1055D000C394892B09F4C12C9F92F30160818B2D18
:1055E0000E946A0D0F90D3948B819C8108969C83B6
:1055F0008B8390E1D912C5CF0F900F900F900F9031
:10560000DF91CF911F910F91FF90EF90DF90CF909E
:10561000BF90AF909F908F907F906F905F904F90D2
:105620003F902F900895FF920F931F93CF93DF9396
:10563000182FEB01E82FF0E0EE0FFF1FE559FC4FAC
:10564000F08007E023E041816F2D8AEF95E00E9412
:10565000260D47E06F2D8AEF95E00E94C60BC430FF
:10566000D105A1F188F4C130D10531F18AEE90E085
:10567000C230D10589F084E594E0DF91CF911F918C
:105680000F91FF900C940B0DC530D105A9F087ED5B
:1056900090E0C630D10579F70E940B0D1230C8F4A6
:1056A00021E050E040E0BE01812FDF91CF911F91BA
:1056B0000F91FF900C94962A80914605811103C0AA
:1056C00089E594E0E9CF84EF90E0E6CF8EED90E0BD
:1056D000E3CFDF91CF911F910F91FF9008955F92DB
:1056E0006F927F928F929F92AF92BF92CF92DF92F2
:1056F000EF92FF920F931F93CF93DF93D82EEB017E
:10570000E82FF0E0EE0FFF1FE559FC4F908007E017
:1057100023E04181692D8AEF95E00E94260D47E044
:10572000692D8AEF95E00E94C60BC330D10509F4BC
:1057300062C0C0F483ED90E0C230D105E1F084E5B1
:1057400094E0DF91CF911F910F91FF90EF90DF9048
:10575000CF90BF90AF909F908F907F906F905F9011
:105760000C940B0DC430D10509F448C085EC90E0D1
:10577000C530D10521F70E940B0D82E0D81659F1F2
:105780008AEB682E82E0782EB12C55245394C230D7
:10579000D10549F487E08B15B8F083E0F301E05AB6
:1057A000FF4F8B1508F4F301E080F1800281138133
:1057B0005F928780A680CC24C39424814581692D83
:1057C0008D2D0E946A0D0F90B39488E0680E711CB5
:1057D0008CE0B812DCCFDF91CF911F910F91FF9039
:1057E000EF90DF90CF90BF90AF909F908F907F9081
:1057F0006F905F9008958EEC90E0BDCF8AEC90E0C2
:10580000BACF8F929F92AF92BF920F931F93CF9375
:10581000DF93CDB7DEB7A1970FB6F894DEBF0FBE0A
:10582000CDBF19A2423008F44AE08E010F5D1F4F30
:10583000842E912CB12CA12CA50194010E94D2326E
:10584000E62FB901CA01EA3044F5E05DD801EE93D4
:105850008D01232B242B252B79F790E080E01097E6
:1058600069F0FD0101900020E9F73197AF014A1B73
:105870005B0BBD018AEF95E00E947205A1960FB601
:10588000F894DEBF0FBECDBFDF91CF911F910F9176
:10589000BF90AF909F908F900895E95CD7CFCF9243
:1058A000DF92EF92FF92CF93DF936C01990FEE0896
:1058B000FF08F7FE19C06DE28AEF95E00E94D40B55
:1058C000EC0166277727CB016C197D098E099F09AA
:1058D0004AE00E94012C8C0F9D1FDF91CF91FF9019
:1058E000EF90DF90CF9008954AE0C701B601DF91B5
:1058F000CF91FF90EF90DF90CF900C94012C1F93ED
:10590000CF93DF93EAE6F5E01382128288EE93E00C
:10591000A0E0B0E084839583A683B78387E294E018
:10592000918380838FEF9FEF95878487EAEFF5E07F
:1059300013821282128614861386158681E086876A
:1059400089E394E091838083EBEEF5E01382148287
:105950008AE0E0EFF5E0DF01282F1D922A95E9F7B4
:10596000ECEDF5E013821482E1EEF5E0DF011D922B
:105970008A95E9F7EAEDF5E08EE78083118282E40B
:1059800090E00E94313312E4FC01212F11922A95FC
:10599000E9F723E534E0DC012D933C93C6EDD5E037
:1059A0009983888382E490E00E943133FC01119254
:1059B0001A95E9F727E434E0DC012D933C939B83AF
:1059C0008A83EEEBF5E0128613868CE0E5E4F1E0E5
:1059D000AAECB5E001900D928A95E1F788E090E09D
:1059E0000E94313325E1FC012783CAEBD5E099837E
:1059F000888388E090E00E94313325E0DC0117962F
:105A00002C939B838A83DF91CF911F910895CF932D
:105A1000DF93CDB7DEB7C659D1090FB6F894DEBF14
:105A20000FBECDBF789484B5826084BD84B581609B
:105A300084BD85B5826085BD85B5816085BD809159
:105A40006E00816080936E001092810080918100D1
:105A500082608093810080918100816080938100C9
:105A600080918000816080938000809191008260AD
:105A7000809391008091910081608093910080914A
:105A800090008160809390008091C1008460809339
:105A9000C1008091C10082608093C1008091C100EB
:105AA00081608093C1008091C30081608093C300B6
:105AB0008091C00082608093C0008091C2008160AC
:105AC0008093C20080917A00846080937A008091F4
:105AD0007A00826080937A0080917A00816080935E
