:100000000C945C020C9484020C9484020C94840280
:100010000C9484020C9484020C9484020C94840248
:100020000C9484020C9484020C940F140C947E148F
:100030000C9484020C9484020C9484020C94840228
:100040000C9484020C9484020C9484020C94840218
:100050000C9484020C9484020C9484020C94C513B6
:100060000C9484020C9484020C9484020C948402F8
:100070000C9484020C9484020C9484020C948402E8
:100080000C9484020C9484020C9484020C948402D8
:100090000C9484020C9484020C9484020C948402C8
:1000A0000C9484020C9484020C948402AED580A833
:1000B0003FD300408D142002A1C8DA12817FD9F10C
:1000C000DB40A4A6AF56424F59004E545400534E45
:1000D0004553004E4553004A4F47434F4E00464C50
:1000E00049474854535449434B004455414C5348A5
:1000F0004F434B004449474954414C004E45474308
:100100004F4E00504144002B4E4547002B47554E63
:100110000050535800574949004E3634004E45535D
:10012000202B20534E4553005920005820004F5596
:10013000545055542044495341424C4544005820A2
:1001400000434F4E4649470047554E434F4E0050DF
:100150004C55472B5245534554005245424F4F543E
:10016000494E472E2E2E004D554C54492D5441508A
:100170000000030C0F30333C3FC0C3CCCFF0F3FC86
:10018000FF0000000200090F0000030401000C0042
:10019000000000000000000000000000000000005F
:1001A000080B000202020000090400000102020024
:1001B00000052400100105240101010424020605A4
:1001C0002406000107058103100040090401000214
:1001D0000A000000070502024000000705830240F4
:1001E00000000403090412010002EF020140D016CE
:1001F0007E12000101020301556E6B6E6F776E0077
:100200005265666C657820416461707400524546A1
:100210004C45580000000507206100000000000068
:10022000005F0000607078706060504850600307A5
:100230000F07030305090503081C3E7F7F081C22E6
:10024000417F7F7F3E1C087F41221C08082A1C2A10
:100250000808083E08080050300000080808080890
:10026000006060000020100804023E5149453E0035
:10027000427F400042615149462141454B311814AB
:10028000127F1027454545393C4A494930017109DB
:1002900005033649494936064949291E00363600C4
:1002A000003C7E7E7E3C3C4242423C1414141414BA
:1002B000F0F0F0F0F0F0909090F0324979413E7E0D
:1002C0001111117E7F494949363E414141227F410A
:1002D00041221C7F494949417F090901013E4141B1
:1002E00051327F0808087F00417F41002040413F94
:1002F000017F081422417F404040407F0204027F7A
:100300007F0408107F3E4141413E7F090909063EB6
:100310004151215E7F091929464649494931010168
:100320007F01013F4040403F1F2040201F7F201899
:10033000207F631408146303047804036151494562
:100340004300007F4141020408102041417F00002A
:10035000383C1E0F07404040404038241209072017
:10036000545454787F4844443838444444203844F2
:1003700044487F3854545418087E09010208145424
:10038000543C7F0804047800447D40002040443DF4
:1003900000007F10284400417F40007C041804784E
:1003A0007C0804047838444444387C141414080845
:1003B0001414187C7C080404084854545420043F46
:1003C0004440203C4040207C1C2040201C3C4030CD
:1003D000403C44281028440C5050503C4464544C39
:1003E00044E0E0E0E0E000007F0000E0A0A0A0E04A
:1003F00008082A1C08081C2A08080006090906AC77
:1004000000198040004E4F4E45004E4F542053552A
:1004100050504F525445440044524157534F4D455C
:10042000005544524157005455524E5441424C4598
:10043000004452554D0047554954415200434C41E8
:1004400053534943004E554E4348554B000000005E
:10045000002300260029002C002F000000000025AA
:100460000028002B002E003100000000002400278F
:10047000002A002D003000040404040403040502D3
:10048000020202040302020202060606060606042F
:1004900004020202040404080201104080401020FB
:1004A000408040800802040180402010020110803A
:1004B000102040402000302C11241FBECFEFDAE086
:1004C000DEBFCDBF14E0A0E0B1E0E2E6F5E602C099
:1004D00005900D92A232B107D9F725E0A2E2B4E06F
:1004E00001C01D92A935B207E1F712E0CCE5D2E0D8
:1004F00004C02197FE010E946F31CB35D107C9F7A7
:100500000E94C12C0C94AF320C94000090E0FC01CE
:10051000EA56FB4F249189589B4FFC018491882314
:1005200099F090E0880F991FFC01E759FB4FA591C6
:10053000B491FC01E55AFB4F859194918FB7F894E3
:10054000EC91E22BEC938FBF0895CF93DF93FA01E8
:100550003081322B3083DB013C91322B3C93408144
:100560006081422B50E030E02095309570E02623EA
:10057000372361E0EC01A99178E02083AA0F40F4D1
:10058000B4E0BA95F1F74083BAE0BA95F1F705C047
:10059000BEE0BA95F1F7000040837A9529F0B3E008
:1005A000BA95F1F70000E9CF6A9529F0B1E0BA9564
:1005B000F1F70000E0CFB2E0BA95F1F700000000DB
:1005C0002083B4E0BA95F1F7000000004083DF918A
:1005D000CF910895FC0180918604882311F13FB7E3
:1005E000F89482E08093E9002091F200822F90E05D
:1005F0001816190614F481E090E0882339F0289841
:1006000044E6409385044091F1004083222339F071
:100610002091F200211103C02BE62093E8003FBF98
:1006200008958FEF9FEF0895CF93DF931F92CDB77B
:10063000DEB76983DC01ED91FC910280F381E02D4E
:1006400041E050E0BE016F5F7F4F09950F90DF9151
:10065000CF91089583E08093E9008091F200882390
:1006600019F08AE38093E8000895CF93DF931F92F7
:10067000CDB7DEB7FC018485958597FD08C02FEFC7
:100680003FEF358724870F90DF91CF910895CE01FA
:1006900001960E94EA02019719F4898190E0F3CF54
:1006A0008FEF9FEFF0CF0F931F93CF93DF931F92A6
:1006B000CDB7DEB78C01FC018485958597FF0BC013
:1006C000CE0101960E94EA02019771F4898190E0BF
:1006D000F80195878487F801848595850F90DF91CF
:1006E000CF911F910F9108958FEF9FEFF1CFFC01F4
:1006F0008485958597FD0BC09FB7F89482E0809321
:10070000E9008091F2009FBF90E0019608959FB7A5
:10071000F89482E08093E9008091F2009FBF90E01E
:1007200008953FB7F8948091810490918204A0913C
:100730008304B091840426B5A89B05C02F3F19F00F
:100740000196A11DB11D3FBFBA2FA92F982F882751
:10075000BC01CD01620F711D811D911D42E0660F2C
:10076000771F881F991F4A95D1F708958F929F92FE
:10077000AF92BF92CF92DF92EF92FF924B015C015A
:100780000E9491036B017C010E9491036C197D0909
:100790008E099F09683E734081059105A8F321E009
:1007A000821A9108A108B10888EEC80E83E0D81E0D
:1007B000E11CF11C81149104A104B10429F7FF90FC
:1007C000EF90DF90CF90BF90AF909F908F90089563
:1007D0002FB7F89460917D0470917E0480917F041E
:1007E000909180042FBF08954091690450916A044C
:1007F000209167043091680442175307B4F4909134
:10080000E8009570E1F39091E80092FD19C08093A3
:10081000F1008091690490916A0401968F73992781
:10082000892B19F48EEF8093E800809169049091F0
:100830006A04019690936A048093690481E00895A4
:1008400080E00895DF92EF92FF920F931F93CF9372
:10085000DF93D82E8A01EB017B01E40EF51ECE1545
:10086000DF0559F0D7FE12C0FE0184910E94F40307
:1008700021968111F4CF0FEF1FEFC801DF91CF91C7
:100880001F910F91FF90EF90DF9008958881EECF38
:100890002FB7F89487708093E9009091E800892F32
:1008A000807295FF04C09091F20080E4891B2FBFF5
:1008B000089583E00E94480490E008957F928F920B
:1008C0009F92AF92BF92CF92DF92EF92FF920F93DF
:1008D0001F93CF93DF93C82E8B017A0180918604FA
:1008E000811110C08FEF9FEFDF91CF911F910F917A
:1008F000FF90EF90DF90CF90BF90AF909F908F9040
:100900007F90089580916D0480FF05C08091E00084
:1009100082608093E000CE2DDF2DD12C8AEFB82E9F
:100920008C2D8770982E8C2D8072882E8C2D807443
:10093000782E9AE3A92E209719F4DD2009F452C0ED
:100940008C2D0E94480481110AC0BA94BB2051F238
:1009500061E070E080E090E00E94B603ECCF8C177D
:100960001D0611F00CF08C2F9FB7F8949092E900BF
:100970002091E80025FD02C09FBFDDCF282F30E089
:10098000C21BD30B882029F08150A0F01092F100F7
:10099000FBCFF801C7FC0AC0815050F04191409351
:1009A000F100FACF44914093F10031968150D0F795
:1009B000020F131FDD2021F0A092E800D12CDCCF24
:1009C0008091E80085FD07C0A092E800DD24D39463
:1009D000209791F2F3CF209779F6772069F2A092D1
:1009E000E800CACF5D9884E680936C04C7017CCF91
:1009F000CF93DF93EC0180913A01882331F083E0BB
:100A00000E945E041816190634F081E090E09B8382
:100A10008A8380E090E0DF91CF910895615030F0BB
:100A20002091F100FC0120830196F8CF289884E6FC
:100A30008093850408954F925F926F927F92AF9258
:100A4000BF92CF92DF92EF92FF920F931F93CF93BB
:100A5000DF93EC016B017B01E40EF51E8B01580165
:100A6000AC18BD080E151F0511F10E94E803688738
:100A700079878A879B87E881F9810284F385E02D55
:100A8000CE01099597FF23C00E94E803488459844A
:100A90006A847B8464197509860997094C805D8096
:100AA0006E807F80641575058605970520F3C50166
:100AB000DF91CF911F910F91FF90EF90DF90CF903A
:100AC000BF90AF907F906F905F904F900895F80126
:100AD00081938F01C4CFAF92BF92CF92DF92EF92FA
:100AE000FF920F931F93CF93DF936C017B018B01D8
:100AF000040F151FEB015E01AE18BF08C017D10728
:100B000059F06991D601ED91FC910190F081E02DB1
:100B1000C6010995892B79F7C501DF91CF911F9106
:100B20000F91FF90EF90DF90CF90BF90AF9008951E
:100B300080915F0481110DC082E080935B0484E0AA
:100B400080935C0410925E0410925D0481E08093B7
:100B50005F048BE594E008950F931F93CF93DF9389
:100B60001F92CDB7DEB782E0898342E450E060EAAD
:100B700071E080E80E9422040E949805DC01129630
:100B80000D911C910115110589F0D801ED91FC9191
:100B90000280F381E02DBE016F5F7F4FC801099590
:100BA00097FD04C0F80100851185ECCF89810F9075
:100BB000DF91CF911F910F910895CF93CFB7F89404
:100BC00080915A0481115AC048E854E0FA01949186
:100BD00027EA34E0F9018491E92FF0E0EE0FFF1FDE
:100BE000E759FB4FA591B4919C91982309F037C028
:100BF000E2E9F1E09491F9012491FA0184918823CA
:100C000009F42DC09923E9F091509F30D0F4E92FD9
:100C1000F0E0E35FF94F0C946F314E0652061C066C
:100C200046064A0621062106210655065B065F0692
:100C30006306690621066D06909180009F77909368
:100C40008000E82FF0E0EE0FFF1FE55AFB4FA59163
:100C5000B4918FB7F8949C91292B2C938FBF81E18D
:100C60000E9486028CB580618CBD8CB580648CBD81
:100C70008FE00E94860280E10E94860280915A04E1
:100C80008F5F80935A04CFBFCF91089590918000D9
:100C90009F7DD5CF90918000977FD1CF94B59F77DE
:100CA00094BDCFCF94B59F7DFBCF909190009F775F
:100CB00090939000C6CF909190009F7DF9CF909136
:100CC0009000977FF5CF9091C0009F779093C000E0
:100CD000B8CF9091C0009F7DF9CF9091C200977FCF
:100CE0009093C200AECFCF93DF93EC018A85882327
:100CF00029F081508A87DF91CF9108959C818E8160
:100D00009817C8F78D856827E881F9810084F185F7
:100D1000E02D42E0CE0109958C818F5F8C83EBCF73
:100D200081E090E0089581E0089583E090E00895E7
:100D300084E090E00895EF920F931F93F901DA0198
:100D40002C913E2D309532233C9330813E293083C7
:100D5000FC01D80198E080E030E020E04C914E2189
:100D600089F02A95D9F720E04C914E2159F02A9527
:100D7000D9F720E84C914E2129F02A95D9F73A95D8
:100D800061F717C047E04A95F1F7000031E0550FD1
:100D90004C914E2109F051609A9529F45193839515
:100DA00098E0681731F020E84C914E2111F72A9510
:100DB000D9F71F910F91EF9008959F92AF92BF9234
:100DC000CF92DF92EF92FF920F931F93CF93DF9317
:100DD000DB016A01F22E282F30E0F901EA56FB4FC1
:100DE000E49029583B4FF901249130E0220F331F42
:100DF000F901E759FB4FC591D491F901E55AFB4F31
:100E0000A590B490F901E35BFB4F059114919FB657
:100E1000F8942E2DA501BE01CD010E94A5029501D9
:100E2000AE016F2DC6010E949B069FBEDF91CF9140
:100E30001F910F91FF90EF90DF90CF90BF90AF90F8
:100E40009F900895FC018FE086838FE787838087DA
:100E50001186128613860895FC011382148215826E
:100E6000168217820895DC01FB0112962C911297CD
:100E7000848195812817190641F491818081813AF6
:100E800031F49D7F81E0913009F080E00895813256
:100E9000E1F79B3029F482811F968C9381E00895BD
:100EA0009A3099F7828150968C93F8CFEF92FF9207
:100EB0000F931F93CF93DF93FB012081213889F596
:100EC0002381223271F5DC0112964C912481358107
:100ED0004217130631F58C01FC01C385D485F12C32
:100EE000E12C209791F04C815D816A817B818E811C
:100EF000811180E80E9422048F3F980759F0E80E84
:100F0000F91E0990D881C02DECCF81E0D8011F9641
:100F10008C93C701DF91CF911F910F91FF90EF90BC
:100F2000089590E080E0F6CFCF93DF93CDB7DEB7A2
:100F300069970FB6F894DEBF0FBECDBFFC01DB0191
:100F40008C918F5F8C939E012D5F3F4F8DE0D90177
:100F50001D928A95E9F729E0298384E08A8391E04C
:100F60009D8383E08E832A8721E22B879C879D8740
:100F70009F8722E2288B27E02B8B25E02C8B8E8B02
:100F800020E430E0388F2F8B998F82818B83958579
:100F90008685998B8A8B838180688D8B49E150E0AF
:100FA000BE016F5F7F4F80E00E94220469960FB6FA
:100FB000F894DEBF0FBECDBFDF91CF9108958FB7FC
:100FC000F894809157048FBF089584E98093BC0002
:100FD00085E69091BC0094FF03C08150D1F708953D
:100FE00081E008956EBD00000DB407FEFDCF8EB503
:100FF00008952A9A299A8C9A83EC90E00197F1F748
:1010000008952A9A299A469A83EC90E00197F1F77D
:10101000089580917A0490917B0401968530910522
:101020002CF490937B0480937A04089581E090E0FF
:10103000F8CF909132018917C0F4E82FF0E0EE0F5D
:10104000FF1FE957FB4F80819181DC01ED91FC91FD
:101050000190F081E02D0995E0918704F0918804DA
:101060008FE7878380878187828708950895DC01D1
:101070009C96EC919C979D962C91E21730F4E80F8A
:10108000F92FF11D848590E008958FEF9FEF08956B
:10109000FC0194A585A52FEF3FEF981740F4DF01E1
:1010A000A90FB11D1C962C9130E09F5F94A7C90138
:1010B0000895FC0185A594A5891B990B0895CF92ED
:1010C000DF92EF92FF920F931F93CF93DF936C0108
:1010D000EB017B01E40EF51E10E000E0CE15DF050C
:1010E00061F06991D601ED91FC910190F081E02DC4
:1010F000C6010995080F191FF1CFC801DF91CF91E3
:101100001F910F91FF90EF90DF90CF900895CF93B4
:10111000DF93909132018917B0F4C82FD0E0CC0F43
:10112000DD1FC957DB4F88819981DC01ED91FC916E
:101130000190F081E02D0995E881F9818FE787839F
:10114000808781878287DF91CF9108950F931F93C6
:10115000CF93DF931F92CDB7DEB78C01FC01808166
:101160009181892BD1F48781198223E0A801BE01E6
:101170006F5F7F4F0E94DD06833059F0F8011082C7
:101180001182128280E00F90DF91CF911F910F9119
:1011900008958BE891E00197F1F7F801878191E0DC
:1011A000998324E0A8014D5F5F4FBE016F5F7F4FC1
:1011B0000E94DD06843011F781E0E5CF8CBD9DBD36
:1011C00008958C9880912305909124050E94DE0853
:1011D00083EC90E00197F1F70895469880912305FC
:1011E000909124050E94DE0883EC90E00197F1F7CE
:1011F00008958F929F92AF92BF92CF92DF92EF921B
:10120000FF920F931F93CF93DF937C016B015A01E1
:10121000022F10E0D0E0C0E083EC882E912CC017A4
:10122000D107E1F0D701ED91FC910480F581E02D2B
:101230006AE5C114D10421F0D601AC0FBD1F6C9139
:10124000C7010995A114B10421F0F501EC0FFD1FB0
:101250008083C4010197F1F72196E1CFDF91CF910F
:101260001F910F91FF90EF90DF90CF90BF90AF90C4
:101270009F908F900895CF92DF92EF92FF920F93FD
:101280001F93CF93DF937C016B01D42F8C010E5FF2
:101290001F4F23E0A8010E94F908F70123812F3F87
:1012A00061F410E000E0C801DF91CF911F910F9130
:1012B000FF90EF90DF90CF90089584818A3511F0F0
:1012C0008111EFCF2F70C22FCC0FD33059F0B60160
:1012D0006D5F7F4F2DEF2D0FA7014B5F5F4FC70154
:1012E0000E94F9082C2F2D1B2D5FE9F24D2F50E0A5
:1012F000CA01820F911D8197A4F6400F511F70E023
:1013000060E0C7010E94F908CECFAF92BF92CF92A2
:10131000DF92EF92FF920F931F93CF93DF9300D052
:1013200000D01F92CDB7DEB78C01DC019C961C92D9
:101330009C97D9961C92D997ED91FC910190F081E0
:10134000E02D0995F80182AD811108C083AD80348C
:1013500009F083C084AD813009F07FC085E0EAE404
:10136000F1E0DE01119601900D928A95E1F7D80126
:1013700096968D919C919797069709F068C0DD9697
:101380008C918C8345E0BE016F5F7F4FC8010E9446
:101390003B097C01D801ED91FC910280F381E02DA5
:1013A000C8010995E114F10409F440C0F7018181F5
:1013B000807F803F09F055C00E94E8036B017C01EB
:1013C000D801ED91FC910190F081E02DC8010995C3
:1013D00044E061E471E0C8010E943B095C01D8016E
:1013E000ED91FC910280F381E02DC8010995A114D3
:1013F000B10429F0F5018181807F803F89F46AE0A2
:1014000070E080E090E00E94B6030E94E8036C194F
:101410007D098E099F096B3F71058105910580F259
:1014200062E370E080E090E00E94B60380E00F90FD
:101430000F900F900F900F90DF91CF911F910F9110
:10144000FF90EF90DF90CF90BF90AF900895F8019C
:1014500083AD8C8384AD8D8395CF43E06AE471E0E6
:1014600095CFD80194968D919C91959793969C9346
:101470008E9392972381348195963C932E939497E3
:1014800081818937B9F483E090E097969C938E939D
:101490009697D80196968D919C9197978430910557
:1014A00091F150F58230910571F1039709F441C033
:1014B00081E0BDCF982F907F903721F482E090E0BB
:1014C000D801E3CF903531F484E090E0F80197A3A0
:1014D00086A3DFCF833219F485E090E0F1CF903E10
:1014E00019F486E090E0F2CF833619F487E090E0BB
:1014F000E7CF81E090E0EACF8630910509F45CC047
:1015000030F10797A9F681E0D8019C968C939C97BF
:10151000F70185819A968C939A9786819B968C93F6
:101520009B97878198968C939897808599968C93B2
:10153000BFCF81E0F80181AFF70139969D96C701D1
:10154000459621912D93E817F907D9F7DCCF81E073
:101550009C968C939C97F701958198969C9398976D
:10156000D9968C93D9978681D3968C93D39797816C
:10157000D4969C93D4974085D5964C93D59797FF56
:1015800005C03F7795963C932E93949787FF0AC0AA
:10159000D80194968D919C9195979F7B95969C935D
:1015A0008E939497403F08F483CFF80184A195A1CE
:1015B0009B7F95A384A37CCF81E09C968C93F701BD
:1015C0009681858197FD1AC087FD8FE7D80198968F
:1015D0008C93D80198968C919897805898968C9374
:1015E0009897F70185819D968C939D9786819E960D
:1015F0008C939E9787819F968C935ACF813808F45D
:1016000081E8F80180A7E5CF90913201891778F43D
:10161000E82FF0E0EE0FFF1FE957FB4F808191812B
:10162000DC01ED91FC910190F081E02D0994089589
:10163000FC019081911107C0838194810196B1F0E2
:1016400090E080E008959F3051F4228130E02F70C7
:1016500033272F30310581F482E090E008959230F5
:1016600041F0943049F485E090E0089583E090E003
:10167000089584E090E0089581E090E00895FC01F1
:101680006093BC002FEF3FEF8091BC0087FF06C046
:101690009091B900987F908381E00895215031099D
:1016A00099F780E00895CF93DF93EC016093BB003E
:1016B00064E80E943F0B882329F081E098819832EA
:1016C00009F080E0DF91CF910895DF92EF92FF92D1
:1016D0000F931F93CF93DF93EC01D62EF42E8989BD
:1016E000882329F0411103C00E94E507198A8E0161
:1016F000015F1F4F8989811119C0E88864EAC80118
:101700000E943F0B882361F08F85883011F0803173
:1017100039F4EE0CE092BB0064E8C8010E943F0B74
:1017200060E0F11060E4C8010E94530B6D2DC80108
:101730000E94530B82E0F8120BC089898F5F898B5E
:10174000DF91CF911F910F91FF90EF90DF9008955F
:101750000E94E507198AF4CFDC01ED91FC91008429
:10176000F185E02D40E00994FC012781269526951E
:101770002695621720F46583606B0C94AC0B08957A
:101780000F931F93CF93FC012681621798F4C62F05
:101790008C0164836085C60F6C2F6F700E94AC0B48
:1017A0006C2F62956F706061C801CF911F910F918E
:1017B0000C94AC0BCF911F910F9108951F93CF9371
:1017C000DF93EC01142F0E94C00B612FCE01DF913B
:1017D000CF911F910C94B40B2F923F924F925F9236
:1017E0006F927F928F929F92AF92BF92CF92DF9231
:1017F000EF92FF920F931F93CF93DF9300D000D00F
:1018000000D0CDB7DEB7FC01238534852115310525
:1018100009F416C19E838D83F90132966490319646
:101820004491E42EF12CF7E0EF0EF11C53E0F59417
:10183000E7945A95E1F7E982F9013496549131968B
:10184000E4916D30F1F460E00E94C00B81E090E023
:1018500026960FB6F894DEBF0FBECDBFDF91CF91B5
:101860001F910F91FF90EF90DF90CF90BF90AF90BE
:101870009F908F907F906F905F904F903F902F90B0
:1018800008956A3081F460E08D819E810E94C00BD2
:10189000ED81FE81868565818E9D600D1124CF01CD
:1018A0000E94B40BD3CF651708F4CAC08E2F90E006
:1018B000FC01E50FF11D6E171F060CF0C1C0890178
:1018C0000A5F1F4F651BED81FE8171855685759FEF
:1018D000502D11245C83F90154912F5F3F4FF90182
:1018E0002491352F2230310508F06AC06E9CC0016A
:1018F0006F9C900D1124689FF001699FF00D1124D9
:101900000E0F1F1F512CED81FE81F481FA83ED81B2
:10191000FE812580F285FB83862C912CAA24A3943A
:10192000B12C312C8981381608F086C0412CED810C
:10193000FE818685481608F078C08B818287311039
:1019400002C0442041F0ED81FE8145814F5F6A81F4
:10195000CF010E94DE0BD12CC12CC61408F058C058
:10196000F801EC0DFD1D7490552061F0EA14FB04A4
:1019700049F4E72DF0E0052C02C0F595E7950A94AF
:10198000E2F77E2EED81FE818685823081F444204F
:1019900009F43AC072948FE07822E72DF0E0EF5816
:1019A000FE4F7490672D8D819E810E947306672D76
:1019B0008D819E810E9473068FEFC81AD80ACDCF01
:1019C000477028E0522E541A411101C0512CF801E1
:1019D000612C30E020E0661631F04491240F311D77
:1019E00063943196F8CF600E712E711CF3016490F0
:1019F000E29EF001E39EF00DF29EF00D11248E0F99
:101A00009F1F080F191F7FCFF72DFF707F2EC5CFA7
:101A1000D12CEC81DE1639F060E08D819E810E9430
:101A20007306D394F6CF439482CF3394080D191DD7
:101A3000FFEFAF1ABF0A76CF622D8D819E8130CF26
:101A400090E080E005CF0F931F93CF93DF938C013D
:101A5000D0E0C0E0F801EC0FFD1F6491662341F077
:101A600083E495E00E94EC0B892B11F02196F2CFD4
:101A7000CE01DF91CF911F910F910895CF92DF9208
:101A8000EF92FF920F931F93CF93DF93EC01F62E0B
:101A9000C42ED22E1A868F81869586958695081734
:101AA00010F00FEF080F1D2D011780F0412F6F2D43
:101AB000CE010E94DE0BEF2CCE1430F06D85CE01EE
:101AC0000E947306E394F8CF1F5FEECF4D2D6F2D6C
:101AD000CE01DF91CF911F910F91FF90EF90DF909A
:101AE000CF900C94DE0B0F93FC01078106950695B1
:101AF000069501504681415020E060E00E943E0D75
:101B00000F9108954F925F926F927F928F92AF9252
:101B1000CF92EF92FF920F931F93CF93DF93CDB7A6
:101B2000DEB72701380194E0899F80011124F80174
:101B3000EE5DFB4F80819181A281B3818E21952141
:101B4000A621B72131E0892B8A2B8B2B09F430E0B9
:101B50003C1103C08889882301F1C11001C0A82C61
:101B60002D5F640F422F83E495E00E94DE0B6A2D07
:101B700083E495E00E94EC0BF801EE5DFB4FCC2076
:101B8000D1F080819181A281B38184299529A629F0
:101B9000B72980839183A283B383DF91CF911F9173
:101BA0000F91FF90EF90CF90AF908F907F906F90BC
:101BB0005F904F9008954094509460947094808109
:101BC0009181A281B38184219521A621B721E1CF02
:101BD0008F929F92AF92BF92CF92DF92EF92FF923D
:101BE0000F931F93CF93DF93D82EC62FE82FF0E0EB
:101BF000EE0FFF1FEF59FC4FB08007E023E041815B
:101C00006B2D83E495E00E943E0D47E06B2D83E44D
:101C100095E00E94DE0BC13069F583E091E00E94FF
:101C2000230D81E08D15C8F0CFECD1E09924939479
:101C3000E880F9800A811B819F928F80AE80CC243E
:101C4000C3942C814D816B2D8D2D0E94820D289681
:101C50000F9082E0CF33D80759F7DF91CF911F91D2
:101C60000F91FF90EF90DF90CF90BF90AF909F903B
:101C70008F90089585E094E0DF91CF911F910F91AF
:101C8000FF90EF90DF90CF90BF90AF909F908F909C
:101C90000C94230D0F9307E022E04FE760E083E40C
:101CA00095E00E943E0D80917A0490917B048230F1
:101CB0009105E1F020F4019779F00F9108958330B8
:101CC000910521F10497C9F766E383E495E00E944A
:101CD000C00B85E191E007C064E283E495E00E94D7
:101CE000C00B8DE191E00F910C94230D6EE183E424
:101CF00095E00E94C00B81E191E00E94230D8CE0F1
:101D000091E00E94230D87E091E0EDCF66E383E44C
:101D100095E00E94C00B89E191E0E5CF809312012C
:101D20006EEA81116FEA83E495E00E94AC0B0E9499
:101D3000E803609338047093390480933A049093D5
:101D40003B040895FC01448550E0A585B0E0AA0F4E
:101D5000BB1FAA56BB4F0D90BC91A02D13968C9122
:101D6000806490919A04BF01992321F06E5F7F4FA8
:101D70000C945E046D5F7F4FFBCF089590E080E090
:101D80000895CF92DF92FF920F931F93CF93DF932B
:101D90006C0170E06F5F7F4F759567959091580467
:101DA000961758F090915904FF24F39401E010E045
:101DB000961730F082E0F82E6AC0F12C10E000E0B7
:101DC000F801E85AFB4F81E0890F808391115FC0D1
:101DD00083E190E00E947531EC0191E09C839D834A
:101DE0009E01265F3F4F3F832E831986188623EC82
:101DF00032E0398328831C861B861E861D869F87BA
:101E0000988BDA8AC98A81EC8A870E949805FC013E
:101E100081813C81682F630F7727771F68307105B8
:101E20007CF5A281B3811097F9F4D383C2839081AA
:101E30009A838B838D81890F808390E080E0831764
:101E4000F8F42181A22FB0E0BD016B5D7E4F4E8181
:101E50005F81480F591FDA014C91DB014C932F5FD2
:101E600021830196ECCFDA0118964D915C91199778
:101E700041155105C1F71996DC93CE931897D7CF2A
:101E8000000F111FF801EA56FB4FD183C0838F2D3D
:101E9000DF91CF911F910F91FF90DF90CF90089528
:101EA0004F925F926F927F928F929F92AF92BF926A
:101EB000CF92DF92EF92FF920F931F93CF93DF9316
:101EC000CDB7DEB7C456D1090FB6F894DEBF0FBE4A
:101ED000CDBF3C01CB01D42EF22EE896BFACE897E3
:101EE000E9969FACE99729E733E0D3012D933C9322
:101EF0006F2D0E94C10E182FF301858781E08F1589
:101F000008F080E080939A048FE793E0D301119664
:101F10009C938E931296DC922C2D2A0D2E0D200F61
:101F2000BB2DB90D5B2E580C822F850D95E0980FB7
:101F3000F301948735E0398391E09A8349E04B833C
:101F40003C8331EA3D839E839F1508F0F6C385E804
:101F50008F83D88698E0E1E0F0E0EC0FFD1FE90FF9
:101F6000F11D45E04083E1E0E90F66246394712CA4
:101F70006C0E7D1E6E0E711CF30159E05083E2E081
:101F8000E90F61E070E06C0F7D1F6E0F711DFB01AA
:101F900089E18083E3E0E90FA1E0B0E0AC0FBD1F71
:101FA000AE0FB11DFD0131E03083E4E0E90F66249E
:101FB0006394712C6C0E7D1E6E0E711CF30189E210
:101FC0008083E5E0E90F61E070E06C0F7D1F6E0F2C
:101FD000711DFB0188E18083E6E0E90FA1E0B0E03C
:101FE000AC0FBD1FAE0FB11DFD0175E1472E408244
:101FF000E7E0E90F66246394712C6C0E7D1E6E0E73
:10200000711CF3011082E8E0E90F61E070E06C0FF1
:102010007D1F6E0F711DFB01A5E2FA2EF082E9E033
:10202000E90FA1E0B0E0AC0FBD1FAE0FB11DFD0187
:102030003083EAE0E90F66246394712C6C0E7D1EF8
:102040006E0E711CF30175E77083EBE0E90FA1E000
:10205000B0E0AC0FBD1FAE0FB11DFD013083ECE051
:10206000E90F66246394712C6C0E7D1E6E0E711C3C
:10207000F30165E96083EDE0E90FA1E0B0E0AC0FAA
:10208000BD1FAE0FB11DFD018083EEE0E90F662498
:102090006394712C6C0E7D1E6E0E711CF30181E831
:1020A0008083EFE0E90FA1E0B0E0AC0FBD1FAE0F01
:1020B000B11DFD01A2E0DA2ED082E0E1E90F662435
:1020C0006394712C6C0E7D1E6E0E711CF3014083A7
:1020D000E1E1E90FA1E0B0E0AC0FBD1FAE0FB11D13
:1020E000FD013083E2E1E90F66246394712C6C0EEC
:1020F0007D1E6E0E711CF3015083E3E1E90FA1E038
:10210000B0E0AC0FBD1FAE0FB11DFD0149E3408330
:10211000E4E1E90F66246394712C6C0E7D1E6E0E53
:10212000711CF3014082E5E1E90FA1E0B0E0AC0FE2
:10213000BD1FAE0FB11DFD011082E6E1E90F66245F
:102140006394712C6C0E7D1E6E0E711CF301F08277
:10215000E7E1E90FA1E0B0E0AC0FBD1FAE0FB11D8C
:10216000FD0147E04083E8E1E90F66246394712CA8
:102170006C0E7D1E6E0E711CF30145E34083E9E198
:10218000E90FA1E0B0E0AC0FBD1FAE0FB11DFD0126
:102190001082EAE1E90F66246394712C6C0E7D1EB7
:1021A0006E0E711CF30146E44083EBE1E90FA1E000
:1021B000B0E0AC0FBD1FAE0FB11DFD014BE340837E
:1021C000ECE1E90F66246394712C6C0E7D1E6E0E9B
:1021D000711CF3013083EDE1E90FA1E0B0E0AC0F39
:1021E000BD1FAE0FB11DFD0145E64083EEE1E90FD5
:1021F00066246394712C6C0E7D1E6E0E711CF301AF
:1022000044E14083EFE1E90FA1E0B0E0AC0FBD1F76
:10221000AE0FB11DFD017083E0E2E90F6624639407
:10222000712C6C0E7D1E6E0E711CF30148E0408314
:10223000E1E2E90FA1E0B0E0AC0FBD1FAE0FB11DB0
:10224000FD016083E2E2E90F66246394712C6C0E59
:102250007D1E6E0E711CF3013083E3E2E90FA1E0F5
:10226000B0E0AC0FBD1FAE0FB11DFD018083E5E2F4
:10227000E90F84E2890F66246394712C6C0E7D1E35
:10228000680E711CD301DC92222309F400C166247C
:102290006394712C6C0E7D1E6E0E711CF3015083C5
:1022A000E6E2E90FA1E0B0E0AC0FBD1FAE0FB11D3B
:1022B000FD013083E7E2E90F66246394712C6C0E14
:1022C0007D1E6E0E711CF3014082E8E2E90FA1E071
:1022D000B0E0AC0FBD1FAE0FB11DFD011082E9E2F1
:1022E000E90F66246394712C6C0E7D1E6E0E711CBA
:1022F000F30186E28083EAE2E90FA1E0B0E0AC0FEF
:10230000BD1FAE0FB11DFD018FEF8083EBE2E90F22
:1023100066246394712C6C0E7D1E6E0E711CF3018D
:102320001082ECE2E90FA1E0B0E0AC0FBD1FAE0FF0
:10233000B11DFD017083EDE2E90F66246394712CF9
:102340006C0E7D1E6E0E711CF3014083EEE2E90FF0
:10235000A1E0B0E0AC0FBD1FAE0FB11DFD01608369
:10236000EFE2E90F66246394712C6C0E7D1E6E0EF5
:10237000711CF3012083E0E3E90F21E030E02C0F32
:102380003D1F2E0F311DF90181EA808382E3890F01
:10239000E1E3E90F61E070E06C0F7D1F6E0F711DCE
:1023A000FB011082002391F0E1E0F0E0EC0FFD1F53
:1023B000E80FF11D508384E3890F9D5CE1E0F0E0BC
:1023C000EC0FFD1FE90FF11D90E39083EE20A1F0CB
:1023D000E1E0F0E0EC0FFD1FE80FF11D99E09083C4
:1023E000E1E0E80FA1E0B0E0AC0FBD1FAE0FB11D02
:1023F000FD0191E390838E5FCC20A9F0E1E0F0E055
:10240000EC0FFD1FE80FF11D99E09083E1E0E80F6C
:1024100066246394712C6C0E7D1E6E0E711CF3018C
:1024200092E390838E5FAA20A1F0E1E0F0E0EC0F50
:10243000FD1FE80FF11D99E09083E1E0E80F21E036
:1024400030E02C0F3D1F2E0F311DF90195E39083D5
:102450008E5FE1E0F0E0EC0FFD1FE80FF11D91E869
:102460009083E1E0E80F61E070E06C0F7D1F6E0F7C
:10247000711DFB0192E09083E3E0E80F8E5FA1E025
:10248000B0E0AC0FBD1FA80FB11D20EC2C93552060
:1024900009F4FAC025E081E090E08C0F9D1F8E0FBB
:1024A000911DDC012C9381E08E0F66246394712CC6
:1024B0006C0E7D1E680E711C22E0D3012C9382E00D
:1024C0008E0F66246394712C6C0E7D1E680E711C39
:1024D00025E1D3012C9383E08E0F66246394712C45
:1024E0006C0E7D1E680E711CD3011C9284E08E0F51
:1024F00066246394712C6C0E7D1E680E711C26E29E
:10250000D3012C9385E08E0F66246394712C6C0E9E
:102510007D1E680E711C2FEFD3012C9386E08E0F69
:1025200066246394712C6C0E7D1E680E711CD301A1
:102530001C9287E08E0F66246394712C6C0E7D1EB6
:10254000680E711C25E7D3012C9388E08E0F66245A
:102550006394712C6C0E7D1E680E711C28E0D301F3
:102560002C9389E08E0F66246394712C6C0E7D1E73
:10257000680E711C25E9D3012C938AE08E0F662426
:102580006394712C6C0E7D1E680E711CD3015C92DD
:10259000ABE0AE0F66246394712C6C0E7D1E6A0E48
:1025A000711CD30181EA8C934DE04E0F8CE08E0FAD
:1025B00021E030E02C0F3D1F280F311DD9011C9266
:1025C0008820A9F0A1E0B0E0AC0FBD1FA40FB11DA1
:1025D00089E08C934FE04E0FE25F66246394712C88
:1025E0006C0E7D1E6E0E711CF3018BEB8083BB2085
:1025F000A1F0E1E0F0E0EC0FFD1FE40FF11D89E038
:102600008083E1E0E40F21E030E02C0F3D1F2E0F2E
:10261000311DF90185EC80834E5F9920A1F0E1E046
:10262000F0E0EC0FFD1FE40FF11D89E08083E1E095
:10263000E40F61E070E06C0F7D1F6E0F711DFB01F8
:1026400088EC80834E5FE1E0F0E0EC0FFD1FE40FCB
:10265000F11D81E88083E1E0E40F81E090E08C0FE0
:102660009D1F8E0F911DFC0182E08083E3E0E40F4B
:10267000A2E0A40F66246394712C6C0E7D1E6A0E7A
:10268000711CD30180EC8C93A1E0B0E0AC0FBD1FB6
:10269000AE0FB11D80EC8C93EF5FEE2EF12CC701D5
:1026A0000E9475316C01A701BE016F5F7F4F0E94D0
:1026B0009F3287E090E00E947531DC0111961C92F8
:1026C0001E921396DC92CE9212971596FC92EE9281
:1026D000149716961C921697E12FF0E0EE0FFF1F4D
:1026E000EA56FB4F40815181FA018385948500971A
:1026F00049F5B487A387FA018585968514962D91AF
:102700003C91820F931F96878587CC59DF4F0FB678
:10271000F894DEBF0FBECDBFDF91CF911F910F9117
:10272000FF90EF90DF90CF90BF90AF909F908F90F1
:102730007F906F905F904F9008958C5F848796E0B4
:102740000ACCC901FC012081318121153105C9F76D
:10275000B183A083D0CF0E949A32CF93DF93FC0144
:102760002085318580E0232B69F4EB016189728932
:10277000CE010E94A832FE0101900020E9F73197B6
:102780008E2F8C1BDF91CF9108951F920F920FB661
:102790000F9211242F933F938F939F93AF93BF93E7
:1027A00080917D0490917E04A0917F04B09180047B
:1027B00030917C0423E0230F2D3758F50196A11D9D
:1027C000B11D20937C0480937D0490937E04A0939C
:1027D0007F04B09380048091810490918204A09141
:1027E0008304B09184040196A11DB11D80938104DE
:1027F00090938204A0938304B0938404BF91AF911B
:102800009F918F913F912F910F900FBE0F901F902E
:10281000189526E8230F0296A11DB11DD2CF1F9255
:102820000F920FB60F9211248F939F938091E10026
:102830009091E100937F9093E10083FF0FC010928D
:10284000E90091E09093EB001092EC0092E39093FA
:10285000ED001092860498E09093F00082FF22C071
:1028600093E09093E9009091F200992319F09AE394
:102870009093E80090916C04992341F090916C043E
:10288000915090936C04911101C05D9A90918504D0
:10289000992341F090918504915090938504911172
:1028A00001C0289A84FF18C08091E2008E7E81606A
:1028B0008093E2008091E1008F7E8093E10080911F
:1028C0006D048E7E806180936D049F918F910F9037
:1028D0000FBE0F901F90189580FFF7CF8091E200F8
:1028E0008E7E80618093E2008091E1008E7E8093F5
:1028F000E10080916D048E7E8160E5CF1F920F9282
:102900000FB60F921124CF92DF92EF92FF920F93A6
:102910001F932F933F934F935F936F937F938F9367
:102920009F93AF93BF93EF93FF93CF93DF93CDB775
:10293000DEB76C97DEBFCDBF1092E9008091E80052
:1029400083FF25C068E0CE0145960E940E0582EF08
:102950008093E8008D8987FF39C09091E80090FF4F
:10296000FCCF982F907609F034C19E894F89588DFD
:102970002F89F88C911131C0803861F580916E04F7
:102980008093F1001092F1008EEF8093E8006C9636
:102990000FB6F894DEBF0FBECDBFDF91CF91FF9190
:1029A000EF91BF91AF919F918F917F916F915F91C7
:1029B0004F913F912F911F910F91FF90EF90DF90DA
:1029C000CF900F900FBE0F901F9018959EEF909391
:1029D000E800C7CF1092F100D5CF913059F48111A2
:1029E000D3CF4130510581F680916E048D7F809365
:1029F0006E04CACF933049F48111C6CF41305105DE
:102A000019F680916E048260F2CF953041F4809186
:102A1000E80080FFFCCF20682093E300B5CF96301C
:102A200009F0A9C00B8D1C8D22E01092E9001092D4
:102A30006A0410926904F2122EC010926804109277
:102A400067040E94AC051F8299E09983FA8291E0A5
:102A50009E8390EA98879AEF998720916904309134
:102A60006A04275F3F4F3C832B838D831092E900DC
:102A700010926A041092690410936804009367042A
:102A800049E050E0BE016F5F7F4F80E00E9422046A
:102A90000E94AC0579CF10936804009367040E94EC
:102AA0009805DC0112960D911C910115110509F490
:102AB00051C1D801ED91FC910480F581E02DBE015A
:102AC0006B5E7F4FC8010995009709F03EC1F80180
:102AD00000851185EACFF3E0FF120EC08F898823AD
:102AE00009F440C0823061F440E86CE080E092E09C
:102AF0000E940329811148CF81E28093EB0047CFE8
:102B0000813029F440E867E088EF91E0F1CF83302D
:102B100099F70E949805DC011296ED90FC908E01C9
:102B20000F5F1F4F6801E114F10479F0D701ED91B7
:102B3000FC910680F781E02DB801C7010995080FC7
:102B4000111DF701E084F184EECFD8011C92F6014B
:102B500001900020E9F73197BF016C197D0940E031
:102B6000C601C6CF62EE71E0FB01449150E080E8FF
:102B70000E94220409CF973009F4BECF983021F487
:102B800081E08093F10000CF993009F0FDCE837091
:102B900009F0B2CFE6E2F1E081E031E096E3219185
:102BA000222371F08093E9003093EB00DF0111974D
:102BB0002C912093EC009093ED008F5F873079F794
:102BC0008EE78093EA001092EA008F898093860452
:102BD000DBCE8B8D9C8D1092E90010926A041092CE
:102BE00069049093680480936704898D811192C071
:102BF0008E899D89913A49F4813209F07DCF47E071
:102C000050E063E371E080E0B3CF913209F074CF1C
:102C1000833269F48F89988DB0E0A0E080932C0115
:102C200090932D01A0932E01B0932F01ADCE803251
:102C300069F48091E80082FFFCCF67E083E391E0D4
:102C40000E940E058BEF8093E8009ECE823209F041
:102C50009BCE8F8980933A01EEEFFFE785919491A7
:102C60008B3F9C4D51F1E0E0F8E080913301909171
:102C70003401A0913501B0913601803B9440A1050B
:102C8000B105F1F480913A0180FD1AC0EE3F8AE06F
:102C9000F80789F587E797E7918380838091600043
:102CA00080936B0488E19BE00FB6F894A89580931D
:102CB00060000FBE9093600067CEEEEFFAE0D5CFD4
:102CC000808191818737974709F05ECEA8958091E2
:102CD000600088618093600080916B048093600045
:102CE000EE3F2AE0F20789F08091FE0A9091FF0AF8
:102CF0009183808349CE808191818737980751F2F3
:102D00009093FF0A8093FE0AC5CF1092FF0A10929B
:102D1000FE0A3ACE0E949805DC0112960D911C9194
:102D20000115110509F4E8CED801ED91FC9101904F
:102D3000F081E02DBE016B5E7F4FC80109958111C6
:102D400023CEF80100851185EBCF181619060CF477
:102D50001BCED2CEF1E0FF12BECE66EE71E004CF04
:102D600071E02D98259A24982C9A0000000000000C
:102D70000E94872825982D9A0E948728A8940000F1
:102D8000000000001D9B0E946F28F2F088941C999F
:102D90000894771F30F72D98259A803021F02498D9
:102DA0002C9A0C94D5162C98249A00000000000050
:102DB0000E94872825982D9AA894000000001D9B4A
:102DC0000E946F280E948728000000002D98259AF5
:102DD000872F9927089580E208950894881F0C94FE
:102DE000F216880F11F12D98259A000000000000BE
:102DF00028F4000024982C9A0C9402172C98249AFA
:102E00000C9402170E94872825982D9AA8940000F8
:102E1000000000001D9B0E946F281AF488270C9464
:102E20002B170E9487280C94F1162D98259A0000E4
:102E3000000024982C9A0E94872899278827259893
:102E40002D9AA89400001D9B0E946F283AF31C9BAA
:102E500081E00E948728000000002D98259A08959F
:102E600081E00895CF93DF93EC01862F0E94ED1649
:102E7000811108C08FA5811102C083E08FA790E067
:102E800080E002C081E090E0DF91CF9108952D981D
:102E9000259A2C98249A0E94872825982D9A0E947A
:102EA00087281D9B0E946F2824982C9A0E948728AF
:102EB00008958F93F1E0E4EF8F918F931D9B0E9413
:102EC0006F282C98249A0E9487280E94ED16882348
:102ED00031F40E944717319711F00C945C17992731
:102EE0000F90089581E008952D98259A0E948728D3
:102EF00024982C9A0E94872825982D9A0E9487282A
:102F00001D9B0E946F282C98249A0E9487280E945B
:102F1000ED16089581E008951D9B0E946F282C985E
:102F2000249A0E9487280E94ED16089581E0089552
:102F30001F93CF93DF93EC011EA584EA112371F058
:102F40000E947417811108C082E08FA781E08EA7CC
:102F5000DF91CF911F91089580E0F7CF0E948C17E9
:102F6000811101C012E01FA7F1CFFF920F931F93B1
:102F7000CF93DF93EC01F62E042F122F0E949817A7
:102F8000E881F9810190F081E02D6F2DCE01099546
:102F9000E881F9810190F081E02D602FCE01099543
:102FA0000FA50E9447171EA61FA680E0011107C0AB
:102FB000112321F087EB92E00197F1F781E0DF9197
:102FC000CF911F910F91FF900895AF92BF92CF9232
:102FD000DF92EF92FF921F93CF93DF93EC011FA636
:102FE000162F613208F010E28EA5882331F185EAB0
:102FF0000E94741791E089279FA5911104C088232E
:1030000011F082E08FA76E018CE0C80ED11CF12C6C
:10301000E12CE12FE150FF0B5F01E11690F481E01C
:10302000AE14BF0409F080E00E94B016F60181934F
:103030006F01FFEFEF1AFF0AF0CF85EA0E948C17AD
:10304000D9CF1CA68FA5811110E01DA71EA60E9436
:1030500047178DA5DF91CF911F91FF90EF90DF90E3
:10306000CF90BF90AF900895EF92FF920F931F9370
:10307000CF93DF93EC01162F7A010E949817E88115
:10308000F9810190F081E02D60E0CE0109950FA556
:103090000E9447171EA61FA6011110C087EB92E0E1
:1030A0000197F1F7612FCE010E94E517482F50E0FC
:1030B000B701CE010E941B0591E0181390E0892F03
:1030C000DF91CF911F910F91FF90EF900895AF92F4
:1030D000BF92CF92DF92EF92FF920F931F93CF9305
:1030E000DF93CDB7DEB760970FB6F894DEBF0FBEA3
:1030F000CDBF8C0197EBE92E92E0F92EC701019725
:10310000F1F7D8011296ED91FC9121E043E06EEFCA
:10311000808191810E94B517FE0131966F01811166
:1031200011C0D8011296ED91FC91A60166E070E005
:10313000808191810E943418882309F443C0C7011B
:103140000197F1F788E05E01B9E0AB0EB11CF50123
:10315000282F11922A95E9F7D6011D928A95E9F751
:1031600087EBE82E82E0F82ED8011296ED91FC91C3
:10317000A50168E070E0808191810E943418882365
:1031800009F443C0C7010197F1F7D8011296ED91F8
:10319000FC91A60168E070E0808191810E94341862
:1031A000882399F12985998129131DC02A859A813F
:1031B000291319C09F8591111AC09889911117C0C0
:1031C000F801148260960FB6F894DEBF0FBECDBF33
:1031D000DF91CF911F910F91FF90EF90DF90CF90F3
:1031E000BF90AF900895C7010197F1F7BDCF91E06F
:1031F000D80114969C9314971296ED91FC919481AA
:10320000983000F798E09483DDCF80E0DBCF2F92F9
:103210003F924F925F926F927F928F929F92AF9266
:10322000BF92CF92DF92EF92FF920F931F93CF93B3
:10323000DF93CDB7DEB7AC970FB6F894DEBF0FBE05
:10324000CDBF0E949103C0903001D0903101809099
:10325000530490905404A0905504B09056046819FB
:1032600079098A099B094601B12CA12C68157905B9
:103270008A059B0508F464C480917A0490917B04CC
:103280008230910509F49FC428F4019709F4C2C063
:10329000512C42C48330910511F40C942C220497D4
:1032A000B9F780911701882331F01092170190E04F
:1032B00080E00E94AC2950903F0400917804109166
:1032C000790451100C941A25D8011296ED91FC91B5
:1032D000E080F18020E045E560EFC7010E94B5176E
:1032E000882311F40C9407256AE070E080E090E0F8
:1032F0000E94B60320E040E06BEFC7010E94B517C3
:10330000882311F40C94072564E170E080E090E0DC
:103310000E94B603F801E280F380D701CD90DC90E3
:10332000C6010E949817D601ED91FC910190F081A1
:10333000E02D6AEFC6010995F601B7A40E94471770
:10334000D6019E961C929E979F961C92BB2011F4CC
:103350000C94A32490E080E0F70193838283C8015A
:103360000E943629D82E882311F40C940D25D801FB
:103370001296ED91FC91359685E1DF011D928A95BB
:10338000E9F7D8011296ED91FC91139786E08483BA
:10339000ED91FC910190F081E02DC8010995882301
:1033A00011F40C940D25F801068D178D01151105EA
:1033B00011F40C941625D801ED90FC90C7010E94E1
:1033C0003629882311F40C941125D701ED91FC9135
:1033D0000190F081E02DC7010995D82E882311F4C2
:1033E0000C94112581E080933F0480E00E9419082D
:1033F000E0917804F09179040280F381E02D8281DC
:1034000093810E94AC2982E390E0909331018093F4
:10341000300182C39E012F5F3F4F38A32F8F8CE076
:10342000D9011D928A95E9F780912401882381F0C2
:103430001092240180913201833050F045E064E223
:1034400083E495E00E94DE0B87E691E00E94230D65
:103450008091390580933E0580913A0590913B0516
:103460009093400580933F0580913C0590913D05E8
:103470009093420580934105A0913705109237053E
:103480002C9A8BE290E00197F1F72C9883E190E081
:103490000197F1F790E080E030E020E043E150E078
:1034A0006CB166FBEE24E0F8F12CB701082E02C0E7
:1034B000660F771F0A94E2F7262B372B2D98FA0117
:1034C0003197F1F72D9AFA013197F1F70196803192
:1034D000910531F7832F82958F7090E18D3009F03F
:1034E00091E070E060E050E040E0E3E1EE2EF12C8E
:1034F000ECB1E6FB002700F910E0F801062E02C04F
:10350000EE0FFF1F0A94E2F74E2B5F2B2D98F70169
:103510003197F1F72D9AF7013197F1F76F5F7F4FF0
:10352000691730F3982F90952095309540955095D8
:103530008F3021F44E3FBFEF5B07E1F1E09137059B
:1035400061E06E0F6093370561E070E0E11102C049
:1035500070E060E0811113C0E32FFF27EF70FF27B9
:103560003F9769F48AE0869FF001879FF00D112450
:10357000EC5CFA4F8FE085835187408711C092FF42
:10358000D5C08AE0869FF001879FF00D1124EC5C86
:10359000FA4F84E085839370892F90E0918780872C
:1035A0008AE0869FF001879FF00D1124EC5CFA4FB2
:1035B00037832683809137058A17B8F44AE09FEF56
:1035C00021E030E0811102C030E020E0429FF001B4
:1035D000439FF00D1124EC5CFA4F958317821682FD
:1035E000118610868F5FA813EBCF80912A058093F8
:1035F0002F0580912B0590912C0590933105809398
:10360000300580912D0590912E0590933305809380
:10361000320560912805109228058E9A8BE290E081
:103620000197F1F78E9883E190E00197F1F750E070
:1036300040E090E080E0E3E1F0E02FB1022E000CEA
:10364000330B2227330F221F3327042E02C0220FF1
:10365000331F0A94E2F7822B932B8D98DF01119789
:10366000F1F78D9ADF011197F1F74F5F5F4F40310E
:10367000510519F7792F72957F7010E17D3009F0AF
:1036800011E0F0E0E0E050E040E0B3E1EB2EF12C9F
:103690002FB1022E000C330B2227330F221F3327AA
:1036A0000E2E02C0220F331F0A94E2F7422B532B37
:1036B0008D98D7011197F1F78D9AD7011197F1F7EE
:1036C0003196E11728F3272F20958C01009510954E
:1036D000409550957F3029F44E3FBFEF5B0709F4CA
:1036E00047C08091280591E0980F90932805E1E06C
:1036F000F0E0811102C0F0E0E0E08AE08E9FD001AE
:103700008F9FB00D1124AB5DBA4F71111AC0812F7C
:1037100099278F7099270F97A1F48FE015968C93B6
:10372000159719965C934E93189717C09AE0969F39
:10373000F001979FF00D1124EC5CFA4F9FE0892770
:103740001ACF22FF72C084E015968C9315972370D0
:1037500030E019963C932E9318972AE02E9FC001D3
:103760002F9F900D1124FC01EB5DFA4F1783068308
:10377000E0912805EDA3E617C0F48E2F4AE09FEFF5
:1037800021E030E0811102C030E020E0429FF001F2
:10379000439FF00D1124EB5DFA4F9583178216823B
:1037A000118610868F5F6813EBCF90903705FDA1CF
:1037B000F90DFBA327E834E038A72FA3D12C512C17
:1037C000809132013BA13D1509F456C1D81609F488
:1037D00053C1BB24B394D91408F4B12C21E030E0D8
:1037E000D91448F5D11002C030E020E06AE0629FB1
:1037F000A001639F500D1124DA01A75CBA4F3D016F
:10380000823051F5992009F4A6C0CD010E94180B11
:10381000EB2DF0E0EE0FFF1F21E030E02C0F3D1FFD
:10382000E20FF31F9183808317C09FE097271596BF
:103830009C93159776CFD91002C030E020E0BAE013
:10384000B29FA001B39F500D1124FA01E65DFA4F1B
:103850003F01823009F47FC0D3018C9115969C9171
:103860001597891323C011964D915C911297169666
:103870002D913C9117974217530759F413964D9188
:103880005C91149718962D913C914217530709F4B7
:103890005AC0811119C0F301838194810196A1F46A
:1038A000D30118968D919C91019671F08D2D0E94F7
:1038B000040B80913201823039F4C3010E94180B4D
:1038C000BC018B2D0E941F2BC3010E94180B1C01F1
:1038D000F30181819281DC01A095B095F4E0B69569
:1038E000A795FA95E1F71A2F1F709C0121703327D5
:1038F000AC015695479570E060E04170552766270A
:103900007727F2E02F163104C1F5232B09F042602E
:1039100082FD516083FD5260AFA1B8A5ED91FC918D
:10392000438354836583A12FB0E0AB59BC4F8C9186
:103930008683CF010E94A20E80913201823009F469
:103940005CC055245394D3946FA178A56E5F7F4FCC
:1039500078A76FA335CF3DA1332309F47DCFC301F1
:103960000E94180BEB2DF0E0EE0FFF1F61E070E0FE
:103970006C0F7D1FE60FF71F55CF232B09F0426018
:1039800090FD446091FD486092FD406193FD40626E
:1039900024E02216310421F5D30113962D913C9198
:1039A00034FD406435FD406820FD546021FD5860C1
:1039B00022FD506123FD506224FD506425FD5068B6
:1039C00026FD616027FD626030FD646031FD686046
:1039D00032FD606133FD606237FF9ACF606498CF3B
:1039E000B5E02B16310409F093CFF301238120FDBC
:1039F000406421FF8DCF40688BCF7FE3472E72E07C
:103A0000572E19A28B2D90E0880F991FFC01EF59BA
:103A1000FC4FFCA7EBA7F2E02F16310441F429A1DB
:103A2000283008F5F201E05AFF4F243008F0F20187
:103A3000E080F18002811381D30111968D919C91D8
:103A40008E219F21CC24C394892B09F4C12C1F9271
:103A50008780A68024814581EBA5FCA560818B2D04
:103A60000E94820D0F90F9A1FF5FF9A328E0420E9A
:103A7000511CFC3081F665CF09811A81823079F4BE
:103A800080911801909119018017910741F001155B
:103A9000110529F470E060E080E00E941F2B109374
:103AA0001901009318010B811C8180913201823031
:103AB00079F480911A0190911B018017910741F0D0
:103AC0000115110529F470E060E081E00E941F2BD0
:103AD00010931B0100931A01809152047BA1781767
:103AE000C0F4172F80915204181798F48091320176
:103AF000181779F0812F0E94040BE12FF0E0EE0FF0
:103B0000FF1FE957FB4F808191810E94A20E1F5F2A
:103B1000E9CF8BA1809352040E94910360935304D8
:103B2000709354048093550490935604552041F0AB
:103B30008091120181110C94D32781E00E948E0E96
:103B4000809112018823B1F00E94E80300913804AB
:103B50001091390420913A0430913B04601B710BA1
:103B6000820B930B603E73498440910518F080E00E
:103B70000E948E0E4E990EC06CE271E080E090E0E3
:103B80000E94B6038091120181110C94DF2781E01D
:103B90000E948E0EAC960FB6F894DEBF0FBECDBF5E
:103BA000DF91CF911F910F91FF90EF90DF90CF9019
:103BB000BF90AF909F908F907F906F905F904F904D
:103BC0003F902F900895109293048091500481119A
:103BD0005FC08091510481115BC08091720481119A
:103BE0000DC080911F0590912005DC01ED91FC91A5
:103BF0000680F781E02D099580937204809350042C
:103C00008091730481110DC080912105909122054E
:103C1000DC01ED91FC910680F781E02D0995809300
:103C200073048093510481E00E948E0E07E027E028
:103C30004FE760E083E495E00E943E0D67E083E497
:103C400095E00E94B40B60E083E495E00E94C00B15
:103C50008091500481110BC080915104811103C0E7
:103C600085E094E002C08FE491E00E94230D62E4BD
:103C700083E495E00E94C00B909150048091510420
:103C8000992361F1811104C08FE491E00E94230D1A
:103C90003FE1A32E35E0B32E4EE4E42E44E0F42EB3
:103CA00050E5852E54E0952E10E000E077247394C3
:103CB000F501819191915F01909395048093940413
:103CC000D7011D927D01F40121914F0121110BC0FB
:103CD0000130110541F101E010E0EACF8111D2CFAE
:103CE00085E094E0D3CF98012E583B4F6901D9016C
:103CF0002C91211123C1DC01ED91FC910680F7810B
:103D0000E02D0995882359F0F6017082E091940422
:103D1000F091950466A177A1802F0E94C32A80911B
:103D200071048823A9F2312C512C442443948091AE
:103D30003201381608F0F0CE832D90E0FC01EE58E9
:103D4000FB4F2081222309F4F2C0FC01E25BFB4F10
:103D5000D080DD2009F4EBC0880F991FFC01E15EE3
:103D6000FA4F008111811093950400939404B09050
:103D70007004BB2009F4EEC090909304C92CD12CA0
:103D8000F601E85FFE4F8081882331F0108265E004
:103D900070E0892D0E94C32AA0919404B0919504EB
:103DA0008824839492962D913C91939794968D912B
:103DB0009C9195972817390709F4812C9896AC9017
:103DC0009897D9968C91D997E12C882319F0D5969C
:103DD000EC90D597E094F12C882319F0D396FC90C1
:103DE000D397F094212C882319F0D4962C90D49753
:103DF00020940091930410E0F801EE0FFF1FE957A3
:103E0000FB4F60807180F301A782E086F1862286F5
:103E100080916F04882329F0E0918704F091880451
:103E2000A38694962D913C912095309535FB88275B
:103E300080F934FD826033FD846023FD8860D30106
:103E400013968C93139714961C92149715961C92A4
:103E50000E94DB2898012A5F3E4FF9014081C8018A
:103E60008C5F9E4FD801AE5FBE4F00501F4FA41213
:103E70000CC0FC014081E41208C04C91F41205C052
:103E8000F8014081241201C0B82CF901A082FC0184
:103E9000E082FC92D8012C92BB2009F447C0C301F8
:103EA0000E94A20EB1E0B91508F440C06FE4662E7E
:103EB00061E0762E7BEF272ECC0CDD1CF601EF594E
:103EC000FC4FFAA3E9A3D3015896ED90FD900D9114
:103ED0001C915B975C962C915C975D964C915D97DD
:103EE0005E96AC905E975F968C90B1E0B215B8F498
:103EF000E0919404F091950484A195A1809590950A
:103F00008E219F21CC24C394892B09F4C12C1F92AC
:103F1000E9A1FAA16081892D0E94820D0F90F8E03D
:103F20006F0E711C239428E02212CDCF5B28809164
:103F300093048F5F809393043394F9CE0E94850994
:103F4000F701319780838111EACED6011C9270E08F
:103F500060E0E2CEF0907104FF2009F49DC18091F1
:103F60003304882309F4A9C081E00E948E0E1091C9
:103F70003304113009F06AC0C0909404D0909504C5
:103F800068E070E0C6010E945E29B82E809130047E
:103F90008150B1100BC060E070E4C6010E945E2940
:103FA000B82E882329F0809130048F5F80933004ED
:103FB000C0909404D090950460E070E2C6010E9425
:103FC0005E29882329F091E0910F90933304B82E55
:103FD000D60196968D919C9197970797C9F49C96D8
:103FE0008C919C978823A1F09A968D919C919B9798
:103FF00098966D917C918130910511F00C94252853
:104000006530710529F06A30710511F00C9425288E
:10401000BB2089F080913304813009F046C06BE207
:1040200071E083E00E949B2980913004082E000CEF
:10403000990B0E94FF2B509031045520A1F18091E3
:104040008704909188040E94A20E71CF1230F1F47F
:10405000C0909404D090950468E070E0C6010E947E
:104060005E29B82E80912A048150B1100CC060E006
:1040700070E4C6010E945E29B82E882309F498CF07
:1040800080912A048F5F80932A0492CF133009F025
:104090008FCF1092330405E024E04FE760E083E423
:1040A00095E00E943E0D5F2C42CF68E271E083E014
:1040B0000E949B2980912A04B9CF809132048111FA
:1040C00010C050903104511076C04092320440929A
:1040D000310468E471E081E00E949B2981E00E9444
:1040E0008E0E509032045520F1F2E0919404F0913C
:1040F000950424A135A12095309535FB882780F9BA
:1041000023FD826036FD846000918704109188044D
:10411000D80113968C9386A197A18230910508F45B
:1041200006CF8430910508F4BEC7079709F0FFCE8B
:1041300084A5882309F47FCF82A593A560A571A5E6
:104140008130910509F091C76530710509F473CF8D
:104150006A30710509F089C780912D0490912E0471
:10416000009709F066C084A195A1809590959C0167
:10417000287030722830304209F05DCF96FF5BCF57
:104180001092320480913104882331F0D8011396C3
:104190001C92C8010E94A20E81E00E948E0E6EE267
:1041A00071E082E00E949B2968EE73E080E090E07D
:1041B0000E94B60378C760E070E2C8010E945E29E1
:1041C000811107C068E070E0C8010E945E29882361
:1041D00059F04092320444E060E083E495E00E94AC
:1041E000DE0B0E947529A3CE60E070E4C8010E9436
:1041F0005E29582E882309F471CF409232044092F0
:10420000330461E471E082E00E949B296EE371E077
:1042100083E00E949B2980913004082E000C990BAA
:104220000E94FF2B6CE271E080E090E00E94B603F8
:104230007ECE60912B0470912C046115710509F4F8
:1042400092CF20912A04620F711D27FD7A9520914B
:104250003004820F911D27FD9A950E94512980916B
:104260002F048F5F80932F048F3F09F0E4CE1092CC
:104270002F0410922E0410922D0410922C041092F0
:104280002B0480913104882309F4D5CEF8011482DF
:1042900015821682178207C7B090930499249394CD
:1042A000F80122A133A184A195A12817390709F4A7
:1042B000912CD80196966D907C900B2D10E0000FFC
:1042C000111FF801EC5CFB4F808191816816790623
:1042D00021F0B3018B2D0E94C32AE1E0F0E0EC0F46
:1042E000FD1FE00FF11F71826082C30101970597E6
:1042F00008F0B0C00E94DB28E0919404F09195048E
:10430000FAA3E9A384A195A180959095292F221F56
:104310002227221F30E096FD226095FD246094FD47
:10432000286092FD206193FD206290FD206491FD44
:10433000206880FD316083FD326081FD346082FD44
:104340003860A9A1BAA198962C9098979996CC908C
:1043500099978091930490E0FC01EE0FFF1FE957BD
:10436000FB4F0190F081E02D9C964C91442309F481
:1043700064C0B5E06B16710409F45FC02782C08683
:10438000AC01405F5E4FDA01FC90BC01625F7E4F82
:10439000F2105BC0DB01FC90FC1057C0DA012C92DC
:1043A000DB01CC92A9A1BAA19A965C919A979B96AF
:1043B0004C919B979C966C91662329F0B5E06B1607
:1043C000710409F044C040E84187428750E8BC01CD
:1043D000645F7E4F7B01DB016C91865F9E4F6513AE
:1043E00005C0DC016C91641301C0D92CD7015C932A
:1043F000DC014C93238334831582DD2079F0CF01D7
:104400000E94A20EB1E0BB1548F040919404509177
:10441000950420E0B3018B2D0E94462AD801AC5CA4
:10442000BB4FE1E0F0E0EC0FFD1FE00FF11F8081DA
:1044300091818D939C935D287ACD40E84783408796
:1044400060E8C62E70E8272E9BCF9D2CA7CF518702
:104450004287BDCFD92CE2CF80914C04811167C037
:1044600080914D04811163C07601EE0CFF1CEE0CAF
:10447000FF1CE5E0EE1AF1080BE115E04CE4A42E78
:1044800044E0B42E5FE1852E55E0952ED8018D9144
:104490009D918D010E94A608F50181935F01809195
:1044A0004C04811104C080914D04882339F0F2E05E
:1044B000CF16D10418F0C7010197F1F780169106C5
:1044C00029F781E00E948E0E07E027E04FE760E0C9
:1044D00083E495E00E943E0D67E083E495E00E944E
:1044E000B40B60E083E495E00E94C00B80914C0423
:1044F00081110BC080914D04811103C085E094E0CF
:1045000002C08FE491E00E94230D62E483E495E011
:104510000E94C00B90914C0480914D04992309F4A2
:1045200075C0811104C08FE491E00E94230D1D8E9F
:104530001E8E10E090E5C92E93ECD92E07E022E301
:10454000A22EB12C80913201181708F072C0812E72
:10455000912CF401EE0FFF1FE55EFA4F6080718031
:1045600070924B0460924A04F401E45BFB4F80813B
:10457000882309F449C0C3010E94A6089401285B5E
:104580003B4F7901882309F446C087E0F301DE013F
:10459000569601900D928A95E1F787E0FE01769696
:1045A000DE011F9601900D928A95E1F7089DC001EA
:1045B000099D900D112461E070E06C0F7D1F860F46
:1045C000971FFE013F96DC01202F01900D922A9546
:1045D000E1F7DC018D919C9199249394009709F463
:1045E000912CF7012081211109C0892B39F0812FED
:1045F0000E94870861E0812F0E94E80DD7019C92FC
:10460000B0923101A09230011F5F9CCF811189CF00
:1046100085E094E08ACF812F0E94870860E0812F97
:104620000E94E80DF7011082D0923101C092300152
:10463000EBCFB12C17E0D12E80913201B81608F0E3
:104640007DC16B2C712CF301E85BFB4F80818823CB
:1046500009F472C1D69CF001D79CF00D112421E021
:1046600030E02C0F3D1FE20FF31F2381822F829534
:104670008F7090E0982F88279295907F2F7030E070
:10468000322F2227820F931F2481422F42954F7091
:1046900030E1439FA0011124840F951F2F701C014E
:1046A000220E311C9580468149A3B3016A5B7B4F82
:1046B0007EA36DA3DB018C91981207C0F301EC5B24
:1046C000FB4F8081841709F4F5C4EDE1F0E0EC0FB5
:1046D000FD1FE60DF71DB1E0B083D69CF001D79C1D
:1046E000F00D112421E030E02C0F3D1FE20FF31FED
:1046F000838122E030E087FD02C030E020E0D69CDC
:10470000F001D79CF00D112461E070E06C0F7D1F6B
:10471000E60FF71F838186FD2160D69CF001D79CB0
:10472000F00D112481E090E08C0F9D1FE80FF91F20
:10473000838185FD3160D69CF001D79CF00D11245A
:10474000A1E0B0E0AC0FBD1FEA0FFB1F838184FD29
:104750003260D69CF001D79CF00D112461E070E02E
:104760006C0F7D1FE60FF71F848185FD2061D69CAD
:10477000F001D79CF00D112481E090E08C0F9D1F7B
:10478000E80FF91F848184FD2062D69CF001D79C3C
:10479000F00D1124A1E0B0E0AC0FBD1FEA0FFB1F2C
:1047A000848183FD2064D69CF001D79CF00D1124F8
:1047B00061E070E06C0F7D1FE60FF71F848182FDC2
:1047C0002460D69CF001D79CF00D112481E090E08C
:1047D0008C0F9D1FE80FF91F848181FD2860D69CF6
:1047E000F001D79CF00D1124A1E0B0E0AC0FBD1F8B
:1047F000EA0FFB1F848180FD2068F301EE0FFF1F8D
:10480000FCA3EBA3E957FB4FA081B18113962C9336
:10481000139714963C93149715961C921597D69C53
:10482000F001D79CF00D112421E030E02C0F3D1F4A
:10483000E20FF31F838183FBEE27E0F941E04E276F
:1048400082FF4260D69CC001D79C900D112461E08C
:1048500070E06C0F7D1F860F971FFC01838181FF25
:104860004460D69CC001D79C900D112421E030E01B
:104870002C0F3D1F820F931FFC01838180FF486036
:10488000E42FF0E0EB59FC4F808116968C9316973D
:1048900080E8890D17968C93179789A18058809589
:1048A00018968C931897CD010E94A20E6FEC462E9D
:1048B00061E0562EB10190E080E06FA378A789A750
:1048C0009AA7EBA1FCA1EF59FC4F70817BA7D20105
:1048D000ED90FD900D911C918FA198A5A9A5BAA569
:1048E0008E219F21A023B123CC24C394892B8A2B12
:1048F0008B2B09F4C12C1F92F2018780A6802481A2
:1049000045816BA58B2D0E94820DF8E04F0E511C46
:104910000F902FE332E024153505C9F6EBA1FCA179
:10492000E05CFB4F31822082ADA1BEA19C92F301DD
:10493000EC5BFB4FB9A1B083B3947ECE5D8C51107C
:10494000EBC85E8CE9C887EB92E00197F1F766E06F
:10495000C6010E94E517482F50E0BE016F5F7F4FF0
:10496000C6010E941B05863011F00C94AA198B8198
:10497000843A09F048C08C81803209F044C08D81AE
:10498000811103C09E81992391F199812A819230EE
:1049900058F421111AC0843008F52E81213031F4E9
:1049A00084E090E00C94AC1921110FC08130B1F477
:1049B0008E81833061F49923F1F0913001F19330CD
:1049C00011F587E090E00C94AC19813039F48E81B8
:1049D0008231C9F488E090E00C94AC19811113C0C5
:1049E0008E81833181F489E090E00C94AC1983E0EE
:1049F00090E00C94AC1985E090E00C94AC1986E042
:104A000090E00C94AC1982E090E00C94AC19D801C1
:104A10001296ED91FC911382128280E593EC0C9436
:104A2000051AF801048115810C94D619DD20A9F32B
:104A30000C94F219C8010E943629882309F4D1C0C8
:104A4000D8011296ED91FC91AF014B5F5F4F6481ED
:104A500070E0808191810E9434188DA3882309F42D
:104A6000C0C0F80182819381DC0114964C910596B7
:104A7000FC012FEF30E050E0BF01681B790B641799
:104A8000750724F46191362B2623F6CF332309F4DE
:104A9000A8C02F3F09F4A5C0E0917804F0917904F3
:104AA0000280F381E02D02811381C80103970297F0
:104AB00008F4ACC01BA219A2B12C912CD12C712CE2
:104AC000612C80913D0490913E045DA08615970570
:104AD00039F45524539480913C048D1101C0512C1C
:104AE00080911601891112C0809115018B110EC0A1
:104AF00080911401A9A18A1309C080911301BBA15F
:104B00008B1304C0552011F40C948C1DE091870484
:104B1000F09188046382748215822D2D30E038A7CD
:104B20002FA3D901AB59BC4F8C91868397828B2DD3
:104B30008195808739A131878BA181958287CF01AB
:104B40000E94A20E045011090230110508F018C28B
:104B50004FE04BA789EE482E82E0582E312C212CB5
:104B6000D201ED90FD900D911C91139714962C910C
:104B7000149715964C9115971696AC901697179614
:104B80008C90BAE0B21508F4FEC1C301022C02C039
:104B9000969587950A94E2F7E82FE170CE2E1F9242
:104BA00060E080E00E94820D0F908FEF281A380A93
:104BB00098E0490E511CABA52A1690F270923E0463
:104BC00060923D04D0923C0490921601B09215017F
:104BD000B9A1B0931401EBA1E09313015DA00C9473
:104BE0008C1D10923F0480E593EC909331018093EB
:104BF000300180E00E94190810923E0410923D049A
:104C000090E080E00E94AC290C9448190430110512
:104C100009F09BC1E0917604F091770484810280D1
:104C2000F381E02D8111C1C0228530E0390145E0DA
:104C3000759467944A95E1F760947094B1E06B22A3
:104C4000772456E0359527955A95E1F720953095CC
:104C500020FDC1C0228530E0A4E035952795AA95B6
:104C6000E1F72095309520FDC6C0228530E063E055
:104C7000359527956A95E1F72095309520FDCBC0B5
:104C8000218530E045E0359527954A95E1F7209557
:104C9000309520FDD0C0218530E0359527952095B1
:104CA000309520FDD5C0228530E0220F232F221F12
:104CB000330B232B09F4D9C0228530E03595279595
:104CC000359527952095309520FDDEC0218530E073
:104CD00094E0359527959A95E1F72095309520FD3C
:104CE000E3C0218530E035952795359527952095AA
:104CF000309520FDE8C0218530E063E035952795AB
:104D00006A95E1F72095309520FDEDC09285DD2470
:104D1000D39490FFD12C218530E046E0359527953E
:104D20004A95E1F72095309520FD04C06894D1F8AC
:104D30008111F0C0228530E035952795209530957A
:104D400020FD04C06894D2F88111ECC0218530E0C8
:104D5000220F232F221F330B232B21F06894D3F82B
:104D60008111E9C09581992E990C990C8681B82EF4
:104D7000BB0CBB0C4781907C969596959695807C54
:104D8000829586958770892B242F207830E0220F1A
:104D9000232F221F330B822B880F880F880F89A3A4
:104DA000440F440F440F4BA38CCE248530E03901CF
:104DB000B5E075946794BA95E1F76094709441E01A
:104DC0006422772496E0359527959A95E1F720950A
:104DD000309520FF05C0689461F8882309F43ACF24
:104DE000248530E074E0359527957A95E1F7209594
:104DF000309520FF05C0689462F8882309F435CF08
:104E0000248530E053E0359527955A95E1F72095B4
:104E1000309520FF05C0689463F8882309F430CFEB
:104E2000238530E095E0359527959A95E1F7209513
:104E3000309520FF05C0689464F8882309F42BCFCF
:104E4000238530E0359527952095309520FF05C0C6
:104E5000689465F8882309F426CF248530E0220F72
:104E6000232F221F330B232B29F4689466F8882301
:104E700009F422CF248530E035952795359527957F
:104E80002095309520FF05C0689467F8882309F4C1
:104E90001DCF238530E0B4E035952795BA95E1F72D
:104EA0002095309520FF05C0689470F8882309F498
:104EB00018CF238530E03595279535952795209592
:104EC000309520FF05C0689471F8882309F413CF4A
:104ED000238530E053E0359527955A95E1F72095E5
:104EE000309520FF05C0689472F8882309F40ECF2E
:104EF000948590FD27C0D12C882309F40BCF2385FE
:104F000030E096E0359527959A95E1F72095309514
:104F100020FF0CCF248530E03595279520953095DE
:104F200020FF10CF238530E0220F232F221F330BC9
:104F3000232B09F013CF9580B780668169A3708514
:104F40007BA3BFCDDD24D394DACFE0917404F0913C
:104F500075040280F381E02D8285682E712C759492
:104F600067946094709491E06922772480FD02C078
:104F7000689461F89580B6801BA219A2D12CA1CDAE
:104F800062E06BA7E7CDC1010B976FA178A502C0C6
:104F9000759567958A95E2F7CB0180959095782F66
:104FA0007170C72EFCCD0E94E803609338047093A3
:104FB000390480933A0490933B040C94A01DE09034
:104FC0007A04F0907B040E9409080E944A0E10E0C7
:104FD00000E062E070E080E090E00E94B6034E994D
:104FE0000CC06CE271E080E090E00E94B6030E9489
:104FF00009080E944A0E10E000E00F5F1F4F003DBD
:1050000027E0120731F760917A0470917B046E15E6
:105010007F0521F40E944A0E0C94CA1D90E080E0A6
:105020000E943F3183E495E00E94730D8AE591E090
:105030000E94230D88E19EE00FB6F894A895809316
:1050400060000FBE90936000FFCF20912A04620F92
:10505000711D27FD7A9520913004820F911D27FD47
:105060009A950E9451290C94082010922F04909335
:105070002E0480932D0470932C0460932B042091B4
:105080003104222311F40C941B2020912A04620F76
:10509000711D27FD7A9520913004820F911D27FD07
:1050A0009A950E9451298091320481110C941B2001
:1050B0000C94532030E4231634E0330609F005CB7A
:1050C0003BCC249825982C9A2D9A882799271C9BAD
:1050D00008951D9B089581E0089581E00895BFE043
:1050E000A0EA00240E947F283AF40A94D9F7119785
:1050F000C1F728940C948628A8940C948628A89428
:105100001D990C948428289400000895089593E034
:105110009A95F1F7089508951F93CF93DF93EC01CB
:1051200080E888A789A78AA78BA71CA6FE01BD9641
:105130008CE0DF011D928A95E9F71FA21EA21AAE2C
:105140001BAE1CAE1DAE15E0CE010E94850961E0CC
:1051500070E080E090E00E94B6031150A9F7CE0104
:10516000DF91CF911F910C948509CF93DF93EC01D0
:10517000849A8C9A229A2A9A219A299A23982B986F
:105180002B9A0E94DD05CE01DF91CF910C948C28E3
:10519000CF93DF93EC013E9A469A229A2A9A219A5B
:1051A000299A23982B982B9A0E94DD05CE01DF9136
:1051B000CF910C948C28E0919404F091950424A153
:1051C00035A120953095C90134E0969587953A959B
:1051D000E1F741E084278170992726FF826027FF4D
:1051E000846025FF8860E0919304F0E0EE0FFF1FDC
:1051F000E957FB4F0190F081E02D8B599C4FDC016A
:105200008C9186830895EF92FF920F931F93CF9313
:10521000DF93F82E192FE62E042F81E0860F880FDA
:105220000E94F40383E00E94F403CF2DD12FEC0EF3
:10523000FD2EF11CCE15DF05B9F007FF13C0FE01EE
:1052400084910E94F403182F80E00E94F4038123CC
:1052500021968111EFCFDF91CF911F910F91FF9098
:10526000EF9008958881EDCF81E0F5CFCF93DF9364
:10527000EC01E881F9810280F381E02D0995EA8152
:10528000FB81228133812817390739F0019719F4FE
:1052900081E0232B19F480E001C081E0DF91CF9100
:1052A000089520913104222341F0E0918704F09188
:1052B000880484839583668377830895FC0124A101
:1052C00035A142A153A1422753274623572391E0FA
:1052D000452B09F490E0209530956223732381E0FB
:1052E000672B09F480E0892308950F9320914805E6
:1052F000E0914E05F0914F0500E0309771F0339644
:10530000E491F0E0379683E0F595E7958A95E1F72B
:10531000009151050E9F002D1124EFEFE20F0E0FAB
:105320004091490541506091470583E495E00E9412
:105330003E0D0F910895CF93DF93EB0142E0480FAC
:1053400060E083E495E00E94DE0B0E947529CE01A7
:10535000DF91CF910C94230D8F92AF92CF92DF9279
:10536000EF92FF920F931F93CF93DF93EC01409145
:105370004905415007E023E060E083E495E00E94A6
:105380003E0D47E060E083E495E00E94DE0BFE0105
:105390003297E830F10508F076C0EF52F64D0C94E4
:1053A0006F31402AD929082A262A342A372A3A2A4C
:1053B0003D2A85E494E00E94230DC1E0CF938CE365
:1053C000882E9BE3A92ECC24C394E12CF12C8701D9
:1053D000E39422E040E360E080E00E94820DCF93FE
:1053E00012E0E12EF12C00E010E023E046E360E063
:1053F00080E00E94820D0F900F90DF91CF911F915E
:105400000F91FF90EF90DF90CF90AF908F90089525
:105410008DE394E00E94230DC9EED2E0DD24D39405
:10542000E880F9800A811B81DF928F80AE80CC24D6
:10543000C3942C814D8160E080E00E94820D28960B
:105440000F9083E0C136D80759F7D7CF86E394E0B1
:10545000DF91CF911F910F91FF90EF90DF90CF9050
:10546000AF908F900C94230D81E394E0F1CF87E20D
:1054700094E0EECF81E294E0EBCF88E194E0E8CFD6
:105480008AE094E0E5CF85E094E0E2CF2F923F926E
:105490004F925F926F927F928F929F92AF92BF9244
:1054A000CF92DF92EF92FF920F931F93CF93DF93F0
:1054B00000D000D0CDB7DEB7B82E2B011A01922E46
:1054C0008FE491E09C838B83D12CFB013297FA838C
:1054D000E9836B2C712C660C771CC3018F599C4F90
:1054E0003C01E981FA81329770F08FEF8D0D8230A7
:1054F00050F1F5E04F16510431F4DD2021F188EF31
:105500008D0D823000F1EB81FC81E080F180028121
:10551000138124814581A68087802114310459F0AC
:10552000F10184A195A1809590958E219F21CC2495
:10553000C394892B09F4C12C9F92F30160818B2DB8
:105540000E94820D0F90D3948B819C8108969C833E
:105550008B8390E1D912C5CF0F900F900F900F90D1
:10556000DF91CF911F910F91FF90EF90DF90CF903F
:10557000BF90AF909F908F907F906F905F904F9073
:105580003F902F900895FF920F931F93CF93DF9337
:10559000182FEB01E82FF0E0EE0FFF1FEF59FC4F43
:1055A000F08007E023E041816F2D83E495E00E94C5
:1055B0003E0D47E06F2D83E495E00E94DE0BC43082
:1055C000D105A1F188F4C130D10531F18AEE90E026
:1055D000C230D10589F085E094E0DF91CF911F9131
:1055E0000F91FF900C94230DC530D105A9F087EDE4
:1055F00090E0C630D10579F70E94230D1230C8F42F
:1056000021E050E040E0BE01812FDF91CF911F915A
:105610000F91FF900C94462A80917004811103C071
:1056200084EF90E0E9CF8CEF90E0E6CF8EED90E054
:10563000E3CFDF91CF911F910F91FF9008955F927B
:105640006F927F928F929F92AF92BF92CF92DF9292
:10565000EF92FF920F931F93CF93DF93D82EEB011E
:10566000E82FF0E0EE0FFF1FEF59FC4F908007E0AE
:1056700023E04181692D83E495E00E943E0D47E0DF
:10568000692D83E495E00E94DE0BC330D10509F457
:1056900062C0C0F483ED90E0C230D105E1F085E056
:1056A00094E0DF91CF911F910F91FF90EF90DF90E9
:1056B000CF90BF90AF909F908F907F906F905F90B2
:1056C0000C94230DC430D10509F448C085EC90E05A
:1056D000C530D10521F70E94230D82E0D81659F17B
:1056E0008FE3682E82E0782EB12C55245394C2307B
:1056F000D10549F487E08B15B8F083E0F301E05A57
:10570000FF4F8B1508F4F301E080F18002811381D3
:105710005F928780A680CC24C39424814581692D23
:105720008D2D0E94820D0F90B39488E0680E711C3D
:105730008CE0B812DCCFDF91CF911F910F91FF90D9
:10574000EF90DF90CF90BF90AF909F908F907F9021
:105750006F905F9008958EEC90E0BDCF8AEC90E062
:10576000BACF8F929F92AF92BF920F931F93CF9316
:10577000DF93CDB7DEB7A1970FB6F894DEBF0FBEAB
:10578000CDBF19A2423008F44AE08E010F5D1F4FD1
:10579000842E912CB12CA12CA50194010E944D3195
:1057A000E62FB901CA01EA3044F5E05DD801EE9375
:1057B0008D01232B242B252B79F790E080E0109787
:1057C00069F0FD0101900020E9F73197AF014A1B14
:1057D0005B0BBD0183E495E00E946B05A1960FB6BB
:1057E000F894DEBF0FBECDBFDF91CF911F910F9117
:1057F000BF90AF909F908F900895E95CD7CFCF92E4
:10580000DF92EF92FF92CF93DF936C01092E000C91
:10581000EE08FF0897FF19C06DE283E495E00E944F
:10582000EC0BEC0166277727CB016C197D098E09FB
:105830009F094AE00E94B12B8C0F9D1FDF91CF91F1
:10584000FF90EF90DF90CF9008954AE0C701B60136
:10585000DF91CF91FF90EF90DF90CF900C94B12B20
:10586000CF92DF92EF92FF921F93CF93DF93EBE9FA
:10587000F4E01382128288EEC82E83E0D82EE12C49
:10588000F12CC482D582E682F78285E893E0918389
:1058900080838FEF9FEF95878487E3E4F5E01382A1
:1058A0001282128614861386158681E0868787E920
:1058B00093E091838083E4E3F5E0138214828AE02D
:1058C000E9E3F5E0DF01282F1D922A95E9F7E5E2EB
:1058D000F5E013821482EAE2F5E0DF011D928A9579
:1058E000E9F7E3E2F5E08EE78083118282E490E05D
:1058F0000E94753112E4FC01212F11922A95E9F7DB
:1059000023EC33E0DC012D933C93CFE1D5E0998388
:10591000888382E490E00E947531FC0111921A950F
:10592000E9F727EB33E0DC012D933C939B838A83DB
:1059300088E090E00E94753125E1FC012783CBE1EE
:10594000D5E09983888388E090E00E94753125E056
:10595000DC0117962C939B838A83EBEEF4E0138291
:105960001282C482D582E682F78285EA93E091832F
:105970008083DF91CF911F91FF90EF90DF90CF90C8
:105980000895CF93DF93CDB7DEB7EC970FB6F894B9
:10599000DEBF0FBECDBF789484B5826084BD84B570
:1059A000816084BD85B5826085BD85B5816085BD1A
:1059B00080916E00816080936E00109281008091D2
:1059C000810082608093810080918100816080935A
:1059D000810080918000816080938000809191009F
:1059E000826080939100809191008160809391000A
:1059F000809190008160809390008091C1008460CC
:105A00008093C1008091C10082608093C100809129
:105A1000C10081608093C1008091C3008160809348
:105A2000C3008091C00082608093C0008091C2005A
:105A300081608093C20080917A00846080937A00B4
:105A400080917A00826080937A0080917A008160F0
:105A500080937A0080917A00806880937A00109217
:105A6000860410926E0410926D048091D7008160BC
:105A70008093D70080EA8093D80089B5806189BD82
:105A800089B5826089BD09B400FEFDCF61E070E098
:105A900080E090E00E94B6038091D8008F7C806106
:105AA0008093D8008091E000807F8093E000809117
:105AB000E1008E7E8093E1008DE08093E200559AB4
:105AC000209A56985E9A90E080E00E943731282F05
:105AD00030E030937B0420937A04853030F081E00D
